:0400000007EF00F016
:100008007F8245ED4DF00EEF58F067506810D8B478
:1000180010EF00F012EF00F01EEF00F067C0D9FFFC
:1000280068C0DAFF65C0DEFF66C0DDFF1EEF00F0C6
:10003800654A662A65C0D9FF66C0DAFF200EDE1859
:10004800D8B429EF00F02CEF00F0010E2DEF00F0EE
:10005800000E736E746A73507410D8A436EF00F0F3
:1000680038EF00F01CEF00F0F70E696EFF0E6A6EB5
:1000780065C0D9FF66C0DAFFDF506B6E6B50736ED8
:10008800746A73C06CF074C06DF069506C266A5065
:100098006D226D5009E1050E6C5CD8A056EF00F09A
:1000A80058EF00F01CEF00F0000E706E2D0E731864
:1000B8007410D8A462EF00F064EF00F06AEF00F06B
:1000C800010E706E654A662A76EF00F02B0E7318E3
:1000D8007410D8A472EF00F074EF00F076EF00F01F
:1000E80066EF00F0000E796E7BEF00F0792A795008
:1000F8006524D96E000E6620DA6EDF50D8B487EF1B
:1001080000F089EF00F0BFEF00F079506524D96E58
:10011800000E6620DA6EDF50696EA30E7924F66E43
:10012800F76AFF0EF722F86A000EF8220800F55069
:100138006918D8B4A2EF00F0A4EF00F07AEF00F04D
:1001480079506524D96E000E6620DA6EDF50696E2C
:100158009A0E7924F66EF76AFF0EF722F86A000EF7
:10016800F8220800F5506918D8B4BDEF00F0BFEFC9
:1001780000F07AEF00F0020E7964C5EF00F0C7EFE7
:1001880000F0F3EF00F0000E756E000E766E800E34
:10019800776E7F0E786E67506810D8B4D6EF00F08F
:1001A800D8EF00F033EF08F0080E7918D8B4DFEF75
:1001B80000F0E1EF00F0E3EF00F0030E796E795004
:1001C8006524696E000E66206A6E67C0D9FF68C034
:1001D800DAFF69C0DEFF6AC0DDFF33EF08F0000E0A
:1001E800796EF8EF00F0792A79506524D96E000EFF
:1001F8006620DA6EDF50D8B404EF01F006EF01F0A4
:100208003CEF01F079506524D96E000E6620DA6E55
:10021800DF50696EF50E7924F66EF76AFF0EF72245
:10022800F86A000EF8220800F5506918D8B41FEFD4
:1002380001F021EF01F0F7EF00F079506524D96E55
:10024800000E6620DA6EDF50696EED0E7924F66EC8
:10025800F76AFF0EF722F86A000EF8220800F55038
:100268006918D8B43AEF01F03CEF01F0F7EF00F06D
:10027800030E7918D8A443EF01F045EF01F0B3EF6E
:1002880001F0CD0E016EFF0E026E21EC64F001C08C
:1002980075F002C076F003C077F004C078F06750BC
:1002A8006810D8B45AEF01F05CEF01F033EF08F0B2
:1002B80079506526000E662265C0D9FF66C0DAFF50
:1002C800280EDE18D8A46BEF01F06DEF01F0A9EF4E
:1002D80001F0000E796E72EF01F0792A79506524E9
:1002E800D96E000E6620DA6EDF50D8B47EEF01F0CA
:1002F80080EF01F08FEF01F079506524D96E000E80
:100308006620DA6E290EDE18D8A48DEF01F08FEF83
:1003180001F071EF01F079506524D96E000E662066
:10032800DA6E290EDE18D8A49CEF01F09EEF01F0DA
:10033800A9EF01F07950696E6A6A010E6926000E0C
:100348006A22695065266A50662267C0D9FF68C06C
:10035800DAFF65C0DEFF66C0DDFF33EF08F0000E90
:10036800746E000E736E000E756E000E766E000EC3
:10037800776E000E786E000E726E000E716E000EB3
:10038800796EC8EF01F0792A79506524D96E000E8C
:100398006620DA6E300EDE18D8B4D5EF01F0D7EF4C
:1003A80001F0C7EF01F07950D8B4DDEF01F0DFEFCD
:1003B80001F04FEF05F079506524D96E000E6620E4
:1003C800DA6E780EDE18D8B4ECEF01F0EEEF01F03B
:1003D800FDEF01F079506524D96E000E6620DA6EC3
:1003E800580EDE18D8A4FBEF01F0FDEF01F04FEF37
:1003F80005F07950696E6A6A010E6926000E6A2254
:10040800695065266A506622000E796E0DEF02F07B
:10041800792A79506524D96E000E6620DA6E300E7E
:10042800DE18D8B41AEF02F01CEF02F00CEF02F05D
:10043800000E796E79506524D96E000E6620DA6E4A
:10044800700EDE18D8B42BEF02F02DEF02F09FEFFC
:1004580003F079506524D96E000E6620DA6E500ECE
:10046800DE18D8A43AEF02F03CEF02F03EEF02F0BB
:100478009FEF03F079506524D96E000E6620DA6E7E
:100488002E0EDE18D8A44BEF02F04DEF02F051EF1C
:1004980002F07088792A9FEF03F079506524D96EAD
:1004A800000E6620DA6EDF50696E6950076E086AC2
:1004B800E8EC5AF007500810D8B465EF02F067EF7F
:1004C80002F0D5EF02F0000E6F6ED00E696EFF0ECF
:1004D8006A6E79506524D96E000E6620DA6EDF5098
:1004E8006B6E6C6A69506B266A506C226C5007E11F
:1004F8000A0E6B5CD8B083EF02F085EF02F090EF44
:1005080002F079506524D96E000E6620DA6EDF504D
:10051800D00F6F6EA0EF02F079506524D96E000EEF
:100528006620DA6EDF50696E6950036E046A9BECD0
:1005380060F00350C90F6F6E74BEAEEF02F07450D6
:1005480007E1080E735CD8B0ACEF02F0AEEF02F032
:10055800CDEF02F073500708696ED8906936D890CD
:1005680069366FC06AF06B6A6C6A6D6A692AC2EF95
:1005780002F0D8906A366B366C366D36692EBDEF50
:1005880002F06A5075126B5076126C5077126D50EB
:100598007812734A742A040E7126000E7222DFEF55
:1005A80002F0000E656E000E666E000E676E000E9D
:1005B800686E54EF08F0792A1EEF02F0795065242E
:1005C800D96E000E6620DA6E700EDE18D8B4EFEF22
:1005D80002F0F1EF02F0A6EF03F079506524D96E2E
:1005E800000E6620DA6E500EDE18D8A4FEEF02F078
:1005F80000EF03F002EF03F0A6EF03F07950652453
:10060800D96E000E6620DA6E300EDE18D8A40FEF11
:1006180003F011EF03F020EF03F073507410D8A427
:1006280018EF03F01AEF03F020EF03F0FC0E712629
:10063800FF0E72229EEF03F079506524D96E000EEA
:100648006620DA6EDF50696E6950076E086AE8EC5A
:100658005AF007500810D8B434EF03F036EF03F01F
:100668009EEF03F0000E6F6ED00E696EFF0E6A6E7D
:1006780079506524D96E000E6620DA6EDF506B6EF5
:100688006C6A69506B266A506C226C5007E10A0E3E
:100698006B5CD8B052EF03F054EF03F05FEF03F058
:1006A80079506524D96E000E6620DA6EDF50D00FBF
:1006B8006F6E6FEF03F079506524D96E000E6620D7
:1006C800DA6EDF50696E6950036E046A9BEC60F065
:1006D8000350C90F6F6E74BE7DEF03F0745007E1CD
:1006E800080E735CD8B07BEF03F07DEF03F09CEF4E
:1006F80003F073500708696ED8906936D890693648
:100708006FC06AF06B6A6C6A6D6A692A91EF03F0D0
:10071800D8906A366B366C366D36692E8CEF03F0DE
:100728006A5075126B5076126C5077126D507812B1
:10073800734A742A792A70B8A4EF03F0A6EF03F07D
:10074800E2EF02F079506524D96E000E6620DA6E69
:10075800700EDE18D8B4B3EF03F0B5EF03F0CEEFA8
:1007680003F079506524D96E000E6620DA6E500EBB
:10077800DE18D8B4C2EF03F0C4EF03F0CEEF03F0F5
:10078800000E656E000E666E000E676E000E686ED7
:1007980054EF08F0792A79506524D96E000E662046
:1007A800DA6E2B0EDE18D8A4DCEF03F0DEEF03F0D0
:1007B800E1EF03F0792AF2EF03F079506524D96E5E
:1007C800000E6620DA6E2D0EDE18D8A4EEEF03F0C8
:1007D800F0EF03F0F2EF03F07086792A795065267E
:1007E800000E6622000E796EFBEF03F0792A79502D
:1007F8006524D96E000E6620DA6E300EDE18D8B485
:1008080008EF04F00AEF04F0FAEF03F0000E746E3C
:10081800000E736E3CEF04F07950D8B416EF04F074
:1008280018EF04F026EF04F073C001F074C002F072
:10083800000E046E0A0E036EEBEC63F001C073F059
:1008480002C074F0D00E696EFF0E6A6E795065248E
:10085800D96E000E6620DA6EDF506B6E6C6A6950D6
:100868006B266A506C226B5073266C507422792A5E
:10087800D00E696EFF0E6A6E79506524D96E000E2F
:100888006620DA6EDF506B6E6C6A69506B266A50B0
:100898006C226C5009E10A0E6B5CD8A056EF04F08C
:1008A80058EF04F010EF04F07950D8A45EEF04F08C
:1008B80060EF04F06AEF04F0000E656E000E666EDD
:1008C800000E676E000E686E54EF08F070A66FEFAA
:1008D80004F071EF04F075EF04F0736C741ED8B077
:1008E800742A735071267450722267506810D8B4F5
:1008F80080EF04F082EF04F090EF04F07950652463
:10090800696E000E66206A6E67C0D9FF68C0DAFF9C
:1009180069C0DEFF6AC0DDFF755076107710781069
:10092800D8A499EF04F09BEF04F0A5EF04F0000EB3
:10093800656E000E666E000E676E000E686E54EFF0
:1009480008F0FF0E7514696E000E76146A6E000EBC
:1009580077146B6E000E78146C6E6C506B106A1006
:1009680009E1810E695CD8A0BCEF04F0BEEF04F089
:10097800D0EF04F0000E7526010E7622000E7722C5
:10098800000E7822D0EF04F0D89075367636773698
:1009980078367106D8A0720678AED5EF04F0D7EF96
:1009A80004F0C8EF04F072AEE3EF04F0830E715C5C
:1009B800FF0E7258D8B0E3EF04F0E5EF04F0F1EF62
:1009C80004F0FF0E726E810E716E000E756E000ED1
:1009D800766E000E776E000E786E810E711808E143
:1009E8007228D8B4FAEF04F0FCEF04F004EF05F035
:1009F800D89075367636773678367106D8A072066E
:100A080072BE10EF05F0725009E1800E715CD8A03B
:100A180010EF05F012EF05F01EEF05F0000E756EF1
:100A2800000E766E000E776E000E786E000E726EF7
:100A3800800E716E090E696ED890783277327632F0
:100A48007532692E20EF05F0FF0E7516FF0E76162B
:100A58007F0E7716000E78167F0E7124696E000ED1
:100A680072206A6EFF0E69146B6E6C6A6D6A6E6A2C
:100A7800170ED8906B366C366D366E36E82E3DEF15
:100A880005F06B5075126C5076126D5077126E50DF
:100A9800781233EF08F070B854EF05F056EF05F010
:100AA80068EF05F065C0D9FF66C0DAFF2E0EDE18C4
:100AB800D8A461EF05F063EF05F068EF05F07088E2
:100AC800654A662A4FEF05F0D00E696EFF0E6A6E12
:100AD80065C0D9FF66C0DAFFDF506B6E6C6A69507B
:100AE8006B266A506C226C5009E10A0E6B5CD8A028
:100AF80080EF05F082EF05F084EF05F0D2EF05F006
:100B08007082090E73187410D8B48DEF05F08FEF4A
:100B180005F0C5EF05F070A894EF05F096EF05F025
:100B280099EF05F07106D8A07206734A742A75C049
:100B380001F076C002F077C003F078C004F00A0E26
:100B4800056E000E066E000E076E000E086E58EC5D
:100B58005BF001C075F002C076F003C077F004C006
:100B680078F065C0D9FF66C0DAFFDF50696ED00E35
:100B7800692669507526000E762277227822CEEFF4
:100B880005F070B8CAEF05F0CCEF05F0CEEF05F030
:100B9800714A722A654A662A4FEF05F0000E746E94
:100BA800000E736E65C0D9FF66C0DAFF650EDE18E9
:100BB800D8B4E1EF05F0E3EF05F0F0EF05F065C01C
:100BC800D9FF66C0DAFF450EDE18D8A4EEEF05F0AF
:100BD800F0EF05F0B8EF06F0654A662A65C0D9FF60
:100BE80066C0DAFF2D0EDE18D8A4FDEF05F0FFEF82
:100BF80005F004EF06F07086654A662A13EF06F0E2
:100C080065C0D9FF66C0DAFF2B0EDE18D8A40FEF37
:100C180006F011EF06F013EF06F0654A662A65C084
:100C2800D9FF66C0DAFF300EDE18D8B41EEF06F022
:100C380020EF06F011EF06F0D00E696EFF0E6A6E17
:100C480065C0D9FF66C0DAFFDF506B6E6C6A695009
:100C58006B266A506C226C5007E10A0E6B5CD8B0A8
:100C680038EF06F03AEF06F0ADEF06F065C0D9FFB1
:100C780066C0DAFFDF50696ED00E69266950736E60
:100C8800746A654A662AD00E696EFF0E6A6E65C080
:100C9800D9FF66C0DAFFDF506B6E6C6A69506B264D
:100CA8006A506C226C5007E10A0E6B5CD8B05FEF9B
:100CB80006F061EF06F0ADEF06F065C0D9FF66C03B
:100CC800DAFFDF50696ED00E692673C001F074C078
:100CD80002F0000E046E0A0E036EEBEC63F069502E
:100CE8000124736E000E0220746E654A662AD00EC7
:100CF800696EFF0E6A6E65C0D9FF66C0DAFFDF5005
:100D08006B6E6C6A69506B266A506C226C5007E1F6
:100D18000A0E6B5CD8B093EF06F095EF06F0ADEFD6
:100D280006F065C0D9FF66C0DAFFDF50696ED00EE5
:100D3800692673C001F074C002F0000E046E0A0E3A
:100D4800036EEBEC63F069500124736E000E022011
:100D5800746E70A6B2EF06F0B4EF06F0B8EF06F0C6
:100D6800736C741ED8B0742A735071267450722232
:100D780067506810D8B4C3EF06F0C5EF06F0D4EF9B
:100D880006F070A2CAEF06F0CCEF06F0D4EF06F03A
:100D980067C0D9FF68C0DAFF65C0DEFF66C0DDFF47
:100DA80075C001F076C002F077C003F078C004F097
:100DB800000EF7EC3FF001C075F002C076F003C0FA
:100DC80077F004C078F075C001F076C002F077C003
:100DD80003F078C004F0000E056E000E066E000EDB
:100DE800076E000E086EAEEC55F0D8A0FEEF06F0C8
:100DF80000EF07F00AEF07F0000E656E000E666E52
:100E0800000E676E000E686E54EF08F072BE11EFA8
:100E180007F00FEF07F09FEF07F0716C721ED8B064
:100E2800722A35EF07F075C00FF076C010F077C062
:100E380011F078C012F0F90E136E020E146E150E32
:100E4800156E500E166EE4EC2DF00FC075F010C044
:100E580076F011C077F012C078F0F60E7126FF0E0A
:100E6800722272BE43EF07F0725007E10A0E715CFE
:100E7800D8B041EF07F043EF07F017EF07F062EF44
:100E880007F075C00FF076C010F077C011F078C089
:100E980012F0000E136E000E146E200E156E410E29
:100EA800166EE4EC2DF00FC075F010C076F011C08E
:100EB80077F012C078F07106D8A0720671507210DF
:100EC800D8A469EF07F06BEF07F045EF07F075C09E
:100ED80059F076C05AF077C05BF078C05CF0000E2D
:100EE8005D6E000E5E6E800E5F6E000E606E44ECEE
:100EF8004BF0D8B082EF07F084EF07F033EF08F03B
:100F080070A089EF07F08BEF07F095EF07F0000E60
:100F1800656E000E666E800E676E800E686E54EF0A
:100F280008F0000E656E000E666E800E676E000E8D
:100F3800686E54EF08F072BEAAEF07F0725008E12D
:100F48007104D8A0AAEF07F0ACEF07F033EF08F070
:100F5800CCEF07F075C040F076C041F077C042F0A2
:100F680078C043F0F90E446E020E456E150E466EBB
:100F7800500E476E01EC2AF040C075F041C076F083
:100F880042C077F043C078F0F60E7126FF0E722249
:100F9800725007E10A0E715CD8B0D5EF07F0D7EFB1
:100FA80007F0AEEF07F0F6EF07F075C040F076C037
:100FB80041F077C042F078C043F0000E446E000E56
:100FC800456E200E466E410E476E01EC2AF040C079
:100FD80075F041C076F042C077F043C078F07106F2
:100FE800D8A0720671507210D8A4FDEF07F0FFEF79
:100FF80007F0D9EF07F0FF0E596EFF0E5A6E7F0EFD
:101008005B6E7F0E5C6E75C05DF076C05EF077C07B
:101018005FF078C060F044EC4BF0D8B016EF08F001
:1010280018EF08F033EF08F070A01DEF08F01FEF7D
:1010380008F029EF08F0000E656E000E666E800E4F
:10104800676E800E686E54EF08F0000E656E000E35
:10105800666E800E676E000E686E54EF08F070A022
:1010680038EF08F03AEF08F04CEF08F075C001F0DF
:1010780076C002F077C003F078C004F04BEC62F061
:1010880001C075F002C076F003C077F004C078F0B4
:1010980075C065F076C066F077C067F078C068F014
:1010A8001200000E0301996F000E986F6FC1AAF32A
:1010B80070C1ABF371C1ACF372C1ADF3ADBF69EFF1
:1010C80008F067EF08F07FEF08F0000E996F010E47
:1010D800986FAAC32EF1ABC32FF1ACC330F1ADC3E7
:1010E80031F1BCEC61F02EC1AAF32FC1ABF330C1D2
:1010F800ACF331C1ADF3000E0301B16F000EB06F58
:10110800ABC19CF3ACC19DF398519911D8A48FEF52
:1011180008F091EF08F099EF08F00101AFA597EFFB
:1011280008F099EF08F0B4EF08F00301985199110D
:10113800D8A4A1EF08F0A3EF08F0A9EF08F0000E7B
:10114800856F2B0E846FADEF08F0000E856F2D0EA6
:10115800846F84C36FF2B04BB12B9C07D8A09D0756
:10116800AAC32EF1ABC32FF1ACC330F1ADC331F13B
:10117800C6EC4BF001012E052F11D8A4C6EF08F0DC
:10118800C8EF08F01AEF09F0BF0E746FFF0E756F05
:101198007351766F776B7451762775517723775132
:1011A80007E11A0E765DD8B0DCEF08F0DEEF08F044
:1011B800F0EF08F06F0E0301B02501012E6F020E4B
:1011C8000301B12101012F6FE90E306FFF0E316F5E
:1011D800BEEC5CF000EF09F06F0E0301B0250101D1
:1011E8002E6F020E0301B12101012F6FF10E306F36
:1011F800FF0E316FBEEC5CF00301FD0E9C27FF0E65
:101208009D236DC140F16EC141F16F0E0101426F26
:10121800020E436F9CC344F19DC345F14BEC51F062
:1012280040C16DF141C16EF19DEF0EF0AAC32EF1E0
:10123800ABC32FF1ACC330F1ADC331F1C6EC4BF009
:1012480001012E512F11D8A42CEF09F02EEF09F02F
:1012580068EF09F0BF0E746FFF0E756F7351766FEC
:10126800776B7451762775517723775107E11A0EFA
:10127800765DD8B042EF09F044EF09F056EF09F077
:101288006F0E0301B02501012E6F020E0301B1217B
:1012980001012F6FED0E306FFF0E316FBEEC5CF069
:1012A80000EF09F06F0E0301B02501012E6F020E49
:1012B8000301B12101012F6FF50E306FFF0E316F61
:1012C800BEEC5CF000EF09F0000E0301B26F000EF7
:1012D800B36F800EB46F3F0EB56F000EAF6F000E88
:1012E800AE6FAAC32EF1ABC32FF1ACC330F1ADC3BF
:1012F80031F1000E0101326F000E336F000E346FB2
:10130800000E356F58EC55F00101D8B08EEF09F09A
:1013180090EF09F016EF0AF0AFEF09F0B2C33CF115
:10132800B3C33DF1B4C33EF1B5C33FF1000E406F06
:10133800000E416F200E426F410E436FEBEC27F019
:101348003CC1B2F33DC1B3F33EC1B4F33FC1B5F301
:101358000301AE4BAF2BAAC355F1ABC356F1ACC3D7
:1013680057F1ADC358F1000E0101406F000E416FF7
:10137800200E426F410E436FB2C33CF1B3C33DF13F
:10138800B4C33EF1B5C33FF1EBEC27F03CC159F1D2
:101398003DC15AF13EC15BF13FC15CF13EEC4AF000
:1013A8000101D8B0DAEF09F0DCEF09F092EF09F0AB
:1013B800FCEF09F0B2C33CF1B3C33DF1B4C33EF155
:1013C800B5C33FF1000E406F000E416F200E426F13
:1013D800410E436F16EC2CF03CC1B2F33DC1B3F3A0
:1013E8003EC1B4F33FC1B5F30301AE07D8A0AF07C0
:1013F800AAC355F1ABC356F1ACC357F1ADC358F10D
:10140800B2C359F1B3C35AF1B4C35BF1B5C35CF1CC
:101418003EEC4AF00101D8A014EF0AF016EF0AF0EA
:10142800DEEF09F073C134F1356B81EC5FF0010137
:10143800345103019F6F9FC39EF3670E9F19D8A471
:1014480028EF0AF02AEF0AF052EF0AF00101AD5135
:10145800AE11D8A432EF0AF034EF0AF038EF0AF0F0
:10146800000EAE6F010EAD6FAEBF45EF0AF0AE5184
:1014780006E1AD05D8B043EF0AF045EF0AF04CEFAE
:101488000AF0000E03019B6F060E9A6F5CEF0AF0DC
:10149800ADC19AF3AEC19BF35CEF0AF00101AEBF98
:1014A80058EF0AF05AEF0AF045EF0AF04CEF0AF04D
:1014B800670E03019F19D8A464EF0AF066EF0AF0DB
:1014C8009CEF0AF0AFAF74EF0AF0FC0EAE5DFF0EB2
:1014D800AF59D8A072EF0AF074EF0AF099EF0AF04A
:1014E800FF0E0101746FFF0E756F9AC376F19BC3EF
:1014F80077F174517627755177230301AE510101B5
:10150800765D7751800A786F0301AF51800A010137
:101518007859D8A092EF0AF094EF0AF099EF0AF000
:10152800660E03019E6F9CEF0AF0650E03019E6F25
:101538009AC390F39BC391F3670E9F19D8A4A7EFA2
:101548000AF0A9EF0AF0B9EF0AF0660E9E19D8A4BE
:10155800B0EF0AF0B2EF0AF0BBEF0AF0AFBFB9EF95
:101568000AF0B7EF0AF0BBEF0AF0904B912B660E2A
:101578009E19D8A4C2EF0AF0C4EF0AF0E4EF0AF00B
:10158800AFBFCBEF0AF0C9EF0AF0D7EF0AF0000EB1
:10159800B26F000EB36F800EB46F3F0EB56F000EC2
:1015A800AF6F000EAE6F670E9F19D8B4DEEF0AF06A
:1015B800E0EF0AF0E4EF0AF0AE519027AF51912323
:1015C800000EA96F000EA86FAAC3A0F3ABC3A1F3C6
:1015D800ACC3A2F3ADC3A3F3B2C392F3B3C393F303
:1015E800B4C394F3B5C395F376EF0BF0A0C33CF105
:1015F800A1C33DF1A2C33EF1A3C33FF1B2C340F181
:10160800B3C341F1B4C342F1B5C343F116EC2CF0B6
:101618003CC155F13DC156F13EC157F13FC158F1AA
:1016280038EC3BF055C1A4F356C1A5F357C1A6F356
:1016380058C1A7F3A4C355F1A5C356F1A6C357F1E2
:10164800A7C358F1BAEC49F055C196F356C197F3C0
:10165800A0C365F1A1C366F1A2C367F1A3C368F192
:10166800B2C340F1B3C341F1B4C342F1B5C343F1CE
:10167800A4C33CF1A5C33DF1A6C33EF1A7C33FF106
:10168800EBEC27F03CC169F13DC16AF13EC16BF159
:101698003FC16CF1A5EC5FF065C1A0F366C1A1F391
:1016A80067C1A2F368C1A3F3B2C33CF1B3C33DF170
:1016B800B4C33EF1B5C33FF1000E0101406F000E07
:1016C800416F200E426F410E436F16EC2CF03CC167
:1016D800B2F33DC1B3F33EC1B4F33FC1B5F3030167
:1016E800A84BA92B9051A85DA951800A0101746FDC
:1016F80003019151800A01017459D8A086EF0BF0BB
:1017080088EF0BF0FAEF0AF0B2C33CF1B3C33DF136
:10171800B4C33EF1B5C33FF1000E406F000E416FF8
:10172800A00E426F400E436FEBEC27F03CC1A4F3D0
:101738003DC1A5F33EC1A6F33FC1A7F3A0C355F130
:10174800A1C356F1A2C357F1A3C358F1A4C359F1D9
:10175800A5C35AF1A6C35BF1A7C35CF13EEC4AF0FE
:101768000101D8B0BAEF0BF0BCEF0BF0C7EF0BF0EC
:10177800000E0301A46F000EA56F000EA66F000EE9
:10178800A76FF1EF0BF0A0C32EF1A1C32FF1A2C3F5
:1017980030F1A3C331F1A4C332F1A5C333F1A6C319
:1017A80034F1A7C335F158EC55F00101D8A0DFEFAB
:1017B8000BF0E1EF0BF0F1EF0BF0030196B1E7EF5F
:1017C8000BF0E9EF0BF0F1EF0BF0000EA46F000E39
:1017D800A56F000EA66F000EA76FAAC355F1ABC385
:1017E80056F1ACC357F1ADC358F1A4C359F1A5C321
:1017F8005AF1A6C35BF1A7C35CF12AEC23F055C1EB
:10180800A0F356C1A1F357C1A2F358C1A3F3A0C3D3
:1018180055F1A1C356F1A2C357F1A3C358F1000E65
:101828000101406F000E416F200E426F410E436F61
:1018380092C33CF193C33DF194C33EF195C33FF18C
:10184800EBEC27F03CC159F13DC15AF13EC15BF1C7
:101858003FC15CF13EEC4AF00101D8A036EF0CF034
:1018680038EF0CF062EF0CF00301AE4BAF2B92C3D4
:101878003CF193C33DF194C33EF195C33FF1000E93
:101888000101406F000E416F200E426F410E436F01
:10189800EBEC27F03CC192F33DC193F33EC194F3C6
:1018A8003FC195F3660E03019E19D8A45EEF0CF0B4
:1018B80060EF0CF062EF0CF0904B912B92C3B2F3F7
:1018C80093C3B3F394C3B4F395C3B5F3650E03019F
:1018D8009E19D8B472EF0CF074EF0CF07AEF0CF09C
:1018E800AEC38EF3AFC38FF37EEF0CF0000E8F6F95
:1018F800000E8E6F000E8D6F000E8C6F000E8B6FBA
:10190800000E8A6F000EA96F000EA86F7CEF0DF015
:10191800A0C33CF1A1C33DF1A2C33EF1A3C33FF173
:10192800B2C340F1B3C341F1B4C342F1B5C343F10B
:1019380016EC2CF03CC155F13DC156F13EC157F1B2
:101948003FC158F138EC3BF055C1A4F356C1A5F39B
:1019580057C1A6F358C1A7F3A4C355F1A5C356F1BF
:10196800A6C357F1A7C358F1BAEC49F055C196F38D
:1019780056C197F30101AFB9C4EF0CF0C6EF0CF0F4
:10198800E4EF0CF0030196519711D8A4CEEF0CF0B8
:10199800D0EF0CF0E4EF0CF0670E9F19D8A4D7EF46
:1019A8000CF0D9EF0CF0E4EF0CF08FBFE0EF0CF087
:1019B800DEEF0CF0E4EF0CF08A4B8B2B2FEF0DF0E1
:1019C80003018C518D11D8A4ECEF0CF0EEEF0CF064
:1019D80018EF0DF08FBFF5EF0CF0F3EF0CF018EFE8
:1019E8000DF06F0EB025D96E020EB121DA6E2E0EF3
:1019F800DF6EB04BB12B9C07D8A09D07000E8D6FF2
:101A0800010E8C6F18EF0DF06F0EB025D96E020E17
:101A1800B121DA6E300EDF6EB04BB12B9C07D8A027
:101A28009D078A07D8A08B078A518B11D8A41FEF6E
:101A38000DF021EF0DF008EF0DF06F0EB025D96E07
:101A4800020EB121DA6E9651300FDF6EB04BB12B1A
:101A58009C07D8A09D07A0C365F1A1C366F1A2C3E6
:101A680067F1A3C368F1B2C340F1B3C341F1B4C392
:101A780042F1B5C343F1A4C33CF1A5C33DF1A6C3EC
:101A88003EF1A7C33FF1EBEC27F03CC169F13DC142
:101A98006AF13EC16BF13FC16CF1A5EC5FF065C125
:101AA800A0F366C1A1F367C1A2F368C1A3F3B2C3EF
:101AB8003CF1B3C33DF1B4C33EF1B5C33FF1000EF1
:101AC8000101406F000E416F200E426F410E436FBF
:101AD80016EC2CF03CC1B2F33DC1B3F33EC1B4F3F4
:101AE8003FC1B5F303018E07D8A08F07A84BA92BD8
:101AF8009051A85DA951800A0101746F03019151A9
:101B0800800A01017459D8B08CEF0DF08EEF0DF0FA
:101B18009DEF0DF00301B1BF9BEF0DF0B15109E14D
:101B28004B0EB05DD8A09BEF0DF09DEF0DF08CEF44
:101B38000CF003018C518D11D8A4A5EF0DF0A7EF7F
:101B48000DF0BAEF0DF00101AFA9ADEF0DF0AFEF59
:101B58000DF0BAEF0DF06F0E0301B025D96E020E2D
:101B6800B121DA6E2E0EDF6EB04BB12B6F0E030172
:101B7800B025D96E020EB121DA6E000EDF6E650E49
:101B88009E19D8A4CAEF0DF0CCEF0DF005EF09F0BF
:101B9800000EA96F4F0EA86F6F0EA825D96E020E02
:101BA800A921DA6E000EDF6E000E996F000E986F95
:101BB800AFBFE3EF0DF0E1EF0DF0EBEF0DF0000E2E
:101BC800996F010E986FAE6DAF1FD8B0AF2B000E96
:101BD8009B6F020E9A6F1EEF0EF0A807D8A0A907F8
:101BE8006F0EA825D96E020EA921DA6EAEC32EF1AA
:101BF800AFC32FF1000E0101316F0A0E306FF6EC02
:101C080053F001012E51300FDF6EAEC32EF1AFC37A
:101C18002FF1000E316F0A0E306F15EC52F02EC105
:101C2800AEF32FC1AFF303019A07D8A09B079C0717
:101C3800D8A09D07AE51AF11D8A425EF0EF027EF1D
:101C48000EF0F1EF0DF09BBF34EF0EF09B5106E163
:101C58009A05D8B032EF0EF034EF0EF0F1EF0DF038
:101C6800A807D8A0A90798519911D8A43EEF0EF05B
:101C780040EF0EF046EF0EF0000E876F2B0E866FCA
:101C88004AEF0EF0000E876F2D0E866F6F0EA82597
:101C9800D96E020EA921DA6E86C3DFFF9C07D8A091
:101CA8009D07A807D8A0A907BF0E0101746FFF0EF2
:101CB800756F7351766F776B7451762775517723EB
:101CC800775109E11A0E765DD8A06DEF0EF06FEF2F
:101CD8000EF076EF0EF0000E0301896F650E886F27
:101CE8007BEF0EF0000E0301896F450E886F6F0EB3
:101CF800A825D96E020EA921DA6E88C3DFFF9C07DA
:101D0800D8A09D076F0EB02501012E6F020E0301AA
:101D1800B12101012F6F6F0E0301A8250101306F5A
:101D2800020E0301A9210101316FBEEC5CF005EF41
:101D380009F01200000E0001956F000E946F67C045
:101D4800A6F068C0A7F069C0A8F06AC0A9F0A9BF4A
:101D5800B2EF0EF0B0EF0EF0C8EF0EF0000E956F78
:101D6800010E946FA6C001F0A7C002F0A8C003F04E
:101D7800A9C004F04BEC62F001C0A6F002C0A7F0C5
:101D880003C0A8F004C0A9F0000E0001AD6F000E5A
:101D9800AC6FABC198F0ACC199F094519511D8A42F
:101DA800D8EF0EF0DAEF0EF0E2EF0EF00101AFA57A
:101DB800E0EF0EF0E2EF0EF0FDEF0EF000019451AF
:101DC8009511D8A4EAEF0EF0ECEF0EF0F2EF0EF05A
:101DD800000E816F2B0E806FF6EF0EF0000E816FF4
:101DE8002D0E806F80C06FF2AC4BAD2B9807D8A03A
:101DF8009907A6C001F0A7C002F0A8C003F0A9C0C7
:101E080004F0C6EC4CF001040210D8A40EEF0FF059
:101E180010EF0FF05BEF0FF0BF0E6C6EFF0E6D6EE4
:101E28006B506E6E6F6A6C506E266D506F226F50DD
:101E380007E11A0E6E5CD8B024EF0FF026EF0FF012
:101E480035EF0FF06F0E0001AC25016E020EAD21CB
:101E5800026EE90E036EFF0E046E1EEC5DF042EF9B
:101E68000FF06F0E0001AC25016E020EAD21026E5F
:101E7800F10E036EFF0E046E1EEC5DF00001FD0E08
:101E88009827FF0E992365C013F066C014F06F0EF3
:101E9800156E020E166E98C017F099C018F078ECFF
:101EA80052F013C065F014C066F0AFEF14F0A6C08E
:101EB80001F0A7C002F0A8C003F0A9C004F0C6EC66
:101EC8004CF001500210D8A46CEF0FF06EEF0FF039
:101ED800A2EF0FF0BF0E6C6EFF0E6D6E6B506E6E44
:101EE8006F6A6C506E266D506F226F5007E11A0EA4
:101EF8006E5CD8B082EF0FF084EF0FF093EF0FF025
:101F08006F0E0001AC25016E020EAD21026EED0EC2
:101F1800036EFF0E046E1EEC5DF042EF0FF06F0EC5
:101F28000001AC25016E020EAD21026EF50E036EA6
:101F3800FF0E046E1EEC5DF042EF0FF0000E000184
:101F4800AE6F000EAF6F800EB06F3F0EB16F000E18
:101F5800AB6F000EAA6FA6C001F0A7C002F0A8C020
:101F680003F0A9C004F0000E056E000E066E000E08
:101F7800076E000E086EAEEC55F0D8B0C6EF0FF045
:101F8800C8EF0FF04BEF10F0E7EF0FF0AEC040F0E6
:101F9800AFC041F0B0C042F0B1C043F0000E446E93
:101FA800000E456E200E466E410E476E01EC2AF07B
:101FB80040C0AEF041C0AFF042C0B0F043C0B1F095
:101FC8000001AA4BAB2BA6C059F0A7C05AF0A8C075
:101FD8005BF0A9C05CF0000E446E000E456E200E4A
:101FE800466E410E476EAEC040F0AFC041F0B0C083
:101FF80042F0B1C043F001EC2AF040C05DF041C0AE
:102008005EF042C05FF043C060F044EC4BF0D8B0E3
:1020180010EF10F012EF10F0CAEF0FF032EF10F0DF
:10202800AEC00FF0AFC010F0B0C011F0B1C012F0E8
:10203800000E136E000E146E200E156E410E166EF5
:10204800E4EC2DF00FC0AEF010C0AFF011C0B0F04E
:1020580012C0B1F00001AA07D8A0AB07A6C059F07A
:10206800A7C05AF0A8C05BF0A9C05CF0AEC05DF094
:10207800AFC05EF0B0C05FF0B1C060F044EC4BF0B0
:10208800D8A049EF10F04BEF10F014EF10F06BC030
:1020980003F0046A33EC60F0035000019B6F9BC0AF
:1020A8009AF0670E9B19D8A45CEF10F05EEF10F061
:1020B80086EF10F00101AD51AE11D8A466EF10F013
:1020C80068EF10F06CEF10F0000EAE6F010EAD6F00
:1020D800AEBF79EF10F0AE5106E1AD05D8B077EF9D
:1020E80010F079EF10F080EF10F0000E0001976FFC
:1020F800060E966F90EF10F0ADC196F0AEC197F056
:1021080090EF10F00101AEBF8CEF10F08EEF10F0E1
:1021180079EF10F080EF10F0670E00019B19D8A43A
:1021280098EF10F09AEF10F0C9EF10F0ABAFA8EFEE
:1021380010F0FC0EAA5DFF0EAB59D8A0A6EF10F068
:10214800A8EF10F0C7EF10F0FF0E6C6EFF0E6D6E6B
:1021580096C06EF097C06FF06C506E266D506F226F
:10216800AA516E5C6F50800A706EAB51800A70582D
:10217800D8A0C1EF10F0C3EF10F0C7EF10F0660E53
:102188009A6FC9EF10F0650E9A6F96C08CF097C0E1
:102198008DF0670E9B19D8A4D4EF10F0D6EF10F08D
:1021A800E6EF10F0660E9A19D8A4DDEF10F0DFEF15
:1021B80010F0E8EF10F0ABBFE6EF10F0E4EF10F02E
:1021C800E8EF10F08C4B8D2B660E9A19D8A4EFEF20
:1021D80010F0F1EF10F011EF11F0ABBFF8EF10F0C5
:1021E800F6EF10F004EF11F0000EAE6F000EAF6FB7
:1021F800800EB06F3F0EB16F000EAB6F000EAA6F6E
:10220800670E9B19D8B40BEF11F00DEF11F011EF19
:1022180011F0AA518C27AB518D23000EA56F000E2B
:10222800A46FA6C09CF0A7C09DF0A8C09EF0A9C04E
:102238009FF0AEC08EF0AFC08FF0B0C090F0B1C0CC
:1022480091F0A2EF11F09CC00FF09DC010F09EC05D
:1022580011F09FC012F0AEC013F0AFC014F0B0C0C0
:1022680015F0B1C016F0E4EC2DF00FC028F010C046
:1022780029F011C02AF012C02BF043EC3CF028C022
:10228800A0F029C0A1F02AC0A2F02BC0A3F0A0C0E2
:1022980059F0A1C05AF0A2C05BF0A3C05CF0C1EC39
:1022A8004AF059C092F05AC093F09CC038F09DC0D3
:1022B80039F09EC03AF09FC03BF0AEC044F0AFC0CA
:1022C80045F0B0C046F0B1C047F0A0C040F0A1C092
:1022D80041F0A2C042F0A3C043F001EC2AF040C094
:1022E8003CF041C03DF042C03EF043C03FF056ECE8
:1022F80060F038C09CF039C09DF03AC09EF03BC0F9
:102308009FF0AEC00FF0AFC010F0B0C011F0B1C078
:1023180012F0000E136E000E146E200E156E410E94
:10232800166EE4EC2DF00FC0AEF010C0AFF011C087
:10233800B0F012C0B1F00001A44BA52B8C51A45DE4
:10234800A551800A6C6E8D51800A6C58D8A0AFEFE9
:1023580011F0B1EF11F027EF11F0AEC040F0AFC0AF
:1023680041F0B0C042F0B1C043F0000E446E000E20
:10237800456EA00E466E400E476E01EC2AF040C036
:10238800A0F041C0A1F042C0A2F043C0A3F09CC09D
:1023980059F09DC05AF09EC05BF09FC05CF0A0C091
:1023A8005DF0A1C05EF0A2C05FF0A3C060F044EC95
:1023B8004BF0D8B0E2EF11F0E4EF11F0EFEF11F0CD
:1023C800000E0001A06F000EA16F000EA26F000E9C
:1023D800A36F18EF12F09CC001F09DC002F09EC0E0
:1023E80003F09FC004F0A0C005F0A1C006F0A2C091
:1023F80007F0A3C008F0AEEC55F0D8A006EF12F035
:1024080008EF12F018EF12F0000192B10EEF12F07F
:1024180010EF12F018EF12F0000EA06F000EA16F6F
:10242800000EA26F000EA36FA6C028F0A7C029F067
:10243800A8C02AF0A9C02BF0A0C02CF0A1C02DF094
:10244800A2C02EF0A3C02FF08BEC25F028C09CF082
:1024580029C09DF02AC09EF02BC09FF09CC059F067
:102468009DC05AF09EC05BF09FC05CF0000E446EA9
:10247800000E456E200E466E410E476E8EC040F02F
:102488008FC041F090C042F091C043F001EC2AF0B7
:1024980040C05DF041C05EF042C05FF043C060F0F4
:1024A80044EC4BF0D8A05BEF12F05DEF12F086EF32
:1024B80012F00001AA4BAB2B8EC040F08FC041F048
:1024C80090C042F091C043F0000E446E000E456E7D
:1024D800200E466E410E476E01EC2AF040C08EF089
:1024E80041C08FF042C090F043C091F0660E0001E9
:1024F8009A19D8A482EF12F084EF12F086EF12F046
:102508008C4B8D2B8EC0AEF08FC0AFF090C0B0F06A
:1025180091C0B1F0650E00019A19D8B496EF12F087
:1025280098EF12F09EEF12F0AAC08AF0ABC08BF0C1
:10253800A2EF12F0000E8B6F000E8A6F000E896FEB
:10254800000E886F000E876F000E866F000EA56F55
:10255800000EA46F9FEF13F09CC00FF09DC010F009
:102568009EC011F09FC012F0AEC013F0AFC014F0BF
:10257800B0C015F0B1C016F0E4EC2DF00FC028F093
:1025880010C029F011C02AF012C02BF043EC3CF027
:1025980028C0A0F029C0A1F02AC0A2F02BC0A3F047
:1025A800A0C059F0A1C05AF0A2C05BF0A3C05CF073
:1025B800C1EC4AF059C092F05AC093F00101AFB98A
:1025C800E8EF12F0EAEF12F008EF13F00001925171
:1025D8009311D8A4F2EF12F0F4EF12F008EF13F011
:1025E800670E9B19D8A4FBEF12F0FDEF12F008EF6D
:1025F80013F08BBF04EF13F002EF13F008EF13F0A2
:10260800864B872B53EF13F0000188518911D8A40A
:1026180010EF13F012EF13F03CEF13F08BBF19EF2C
:1026280013F017EF13F03CEF13F06F0EAC25D96ED3
:10263800020EAD21DA6E2E0EDF6EAC4BAD2B980775
:10264800D8A09907000E896F010E886F3CEF13F030
:102658006F0EAC25D96E020EAD21DA6E300EDF6E2C
:10266800AC4BAD2B9807D8A099078607D8A0870749
:1026780086518711D8A443EF13F045EF13F02CEFE0
:1026880013F06F0EAC25D96E020EAD21DA6E9251A1
:10269800300FDF6EAC4BAD2B9807D8A099079CC0C4
:1026A80038F09DC039F09EC03AF09FC03BF0AEC0F4
:1026B80044F0AFC045F0B0C046F0B1C047F0A0C08C
:1026C80040F0A1C041F0A2C042F0A3C043F001EC29
:1026D8002AF040C03CF041C03DF042C03EF043C04B
:1026E8003FF056EC60F038C09CF039C09DF03AC01D
:1026F8009EF03BC09FF0AEC00FF0AFC010F0B0C06E
:1027080011F0B1C012F0000E136E000E146E200E00
:10271800156E410E166EE4EC2DF00FC0AEF010C031
:10272800AFF011C0B0F012C0B1F000018A07D8A014
:102738008B07A44BA52B8C51A45DA551800A6C6E08
:102748008D51800A6C58D8B0ACEF13F0AEEF13F08F
:10275800BCEF13F0ADBFBAEF13F0AD5109E14B0E6A
:10276800AC5DD8A0BAEF13F0BCEF13F0B0EF12F0E5
:1027780088518911D8A4C3EF13F0C5EF13F0D8EF2F
:1027880013F00101AFA9CBEF13F0CDEF13F0D8EFA1
:1027980013F06F0E0001AC25D96E020EAD21DA6E72
:1027A8002E0EDF6EAC4BAD2B6F0E0001AC25D96E33
:1027B800020EAD21DA6E000EDF6E650E9A19D8A4EE
:1027C800E8EF13F0EAEF13F047EF0FF0000EA56FF4
:1027D8004F0EA46F6F0EA425D96E020EA521DA6ED6
:1027E800000EDF6E000E956F000E946FABBF01EF09
:1027F80014F0FFEF13F009EF14F0000E956F010EBF
:10280800946FAA6DAB1FD8B0AB2B000E976F020E5A
:10281800966F3AEF14F0A407D8A0A5076F0EA42569
:10282800D96E020EA521DA6EAAC001F0ABC002F083
:10283800000E046E0A0E036E00EC55F00150300FC6
:10284800DF6EAAC001F0ABC002F0000E046E0A0EE3
:10285800036EDBEC52F001C0AAF002C0ABF000013D
:102868009607D8A097079807D8A09907AA51AB113F
:10287800D8A441EF14F043EF14F00FEF14F097BF12
:1028880050EF14F0975106E19605D8B04EEF14F0CA
:1028980050EF14F00FEF14F0A407D8A0A507945137
:1028A8009511D8A45AEF14F05CEF14F062EF14F00D
:1028B800000E836F2B0E826F66EF14F0000E836F8D
:1028C8002D0E826F6F0EA425D96E020EA521DA6E29
:1028D80082C0DFFF9807D8A09907A407D8A0A5074A
:1028E800BF0E6C6EFF0E6D6E6B506E6E6F6A6C5025
:1028F8006E266D506F226F5009E11A0E6E5CD8A0DB
:1029080088EF14F08AEF14F090EF14F0000E856F42
:10291800650E846F94EF14F0000E856F450E846F7A
:102928006F0EA425D96E020EA521DA6E84C0DFFFD2
:102938009807D8A099076F0EAC25016E020EAD213D
:10294800026E6F0EA425036E020EA521046E1EEC06
:102958005DF047EF0FF01200D3CF6AF19BCF6BF118
:1029680021EE70F00F0EDE6AE806FDE2E00E9B161F
:10297800D3508F0B6009D36E030ED312C8EF14F037
:10298800060EE82EFED700D0D3A4CDEF14F0CFEF7B
:1029980014F0C4EF14F0100E5AEC5CF01A0E01019A
:1029A8005F6FF80EE82EFED75F2FFCD700F08D84FE
:1029B8009694000E0101806FFF0E33EC65F0010163
:1029C800802B090E8065EBEF14F0EDEF14F0E0EFCB
:1029D80014F08D94000E0101316F000E326F000E5D
:1029E800336F000E346F000EA5EC56F0E806D8A43D
:1029F80000EF15F002EF15F0EEEF14F0AA0E01014A
:102A0800316F010E326F000E336F000E346F080EF7
:102A1800A5EC56F001018A6F8D94000E826F700E3E
:102A28008225D96EDA6A010EDA227EEC65F0DF6E55
:102A38000101822B030E826524EF15F026EF15F0B5
:102A480013EF15F08D848AA52CEF15F02EEF15F0F5
:102A58005FEF15F0010E0201006F000E0101316FEA
:102A6800000E326F000E336F000E346F3A0EA5EC75
:102A780056F08D94000E0101836F700E8325D96E78
:102A8800DA6A010EDA227EEC65F0DF6E0101832B33
:102A9800030E836552EF15F054EF15F041EF15F072
:102AA8008D847205D8B45BEF15F05DEF15F07BEF00
:102AB80015F0F4EF18F08A05D8A465EF15F067EF64
:102AC80015F002EF15F07205D8A46DEF15F06FEF51
:102AD80015F0F4EF18F0AA0E7319D8A476EF15F0D4
:102AE80078EF15F0F4EF18F0020E0201006F020102
:102AF8000005D8B482EF15F084EF15F08FEF15F0CC
:102B0800000E0101666F000E676F000E686F400EC1
:102B1800696F98EF15F0000E0101666F000E676F80
:102B2800000E686F000E696F66C138F167C139F130
:102B380068C13AF169C13BF1290E83EC62F00101E9
:102B48008A6F8A51D8B4ABEF15F0ADEF15F0B4EF3A
:102B580015F08AA5B2EF15F0B4EF15F098EF15F05F
:102B68008AA5B9EF15F0BBEF15F0D8EF15F0020103
:102B78000005D8A4C2EF15F0C4EF15F0D4EF15F096
:102B8800020E016F000E0101316F000E326F000E50
:102B9800336F000E346F010EA5EC56F0D8EF15F028
:102BA800000E1C6FF4EF18F0020E02010119D8B4E0
:102BB800E0EF15F0E2EF15F012EF16F0000E01014C
:102BC800316F000E326F000E336F000E346F3A0E05
:102BD800A5EC56F08D947EEC65F0C00BC00AD8A425
:102BE800F8EF15F0FAEF15F0FFEF15F0010E0201FE
:102BF800016F02EF16F0000E0201016F000E0101D5
:102C0800816F7EEC65F00101812B020E81650FEF6B
:102C180016F011EF16F005EF16F08D84000E010185
:102C2800316F020E326F000E336F000E346F100ECC
:102C3800A5EC56F00009D8A424EF16F026EF16F0FC
:102C480012EF16F0020E0201136F000E126F000E43
:102C58000101316F000E326F000E336F000E346FBA
:102C6800090EA5EC56F08D947EEC65F0FE0AD8A40A
:102C780040EF16F042EF16F038EF16F0000E0101A3
:102C8800846F0F0E84654BEF16F04DEF16F04FEF83
:102C980016F05CEF16F0700E8425D96EDA6A010E14
:102CA800DA227EEC65F0DF6E0101842B45EF16F029
:102CB8007EEC65F07EEC65F08D84020E0201001951
:102CC800D8A469EF16F06BEF16F0F0EF16F0010ECE
:102CD800010179256C6F6D6B000E6D236E6B000E14
:102CE8006E236F6B000E6F237851606F5F6B5FC14F
:102CF80061F160C162F1000E62BFFF0E636F646F25
:102D080061516C1362516D1363516E1364516F13EB
:102D180077C15FF13F0E5F175FC160F1616B626B56
:102D2800636B61C163F160C162F1616B606B60519B
:102D38006C1361516D1362516E1363516F136CC143
:102D48002EF16DC12FF16EC130F16FC131F1000E5E
:102D58001BEC3FF02EC13CF12FC13DF130C13EF1DB
:102D680031C13FF1BD0E0101406F370E416F060EB4
:102D7800426F3F0E436FEBEC27F03CC118F23DC1A8
:102D880019F23EC11AF23FC11BF2000E0101406F59
:102D9800000E416F000E426F450E436F18C23CF1A2
:102DA80019C23DF11AC23EF11BC23FF1EBEC27F00C
:102DB8003CC155F13DC156F13EC157F13FC158F1F3
:102DC800BAEC49F055C114F256C115F257C116F2C2
:102DD80058C117F2C9EF17F076C15FF1030E010170
:102DE8005F175FC160F1616B626B636B040ED89013
:102DF8006037613762376337E82EFBEF16F060C142
:102E080086F161C187F162C188F163C189F17751A7
:102E18005F6F606BD8905F376037D8905F376037E7
:102E28005FC161F160C162F1000E62BFFF0E636FA6
:102E3800646F61518613625187136351881364511B
:102E4800891378C15FF1D8905F33D8905F33300E23
:102E58005F17010E5F25606F616B000E6123626B67
:102E6800000E6223636B000E632360518613615169
:102E78008713625188136351891379C15FF1030E77
:102E88005F17606B7AAF01D0602B60315F35616F7F
:102E9800020E612786C162F187C163F188C164F1BE
:102EA80089C165F1612B5EEF17F0D89062376337FF
:102EB80064376537612F59EF17F062C186F163C136
:102EC80087F164C188F165C189F175C15FF10F0EA1
:102ED8005F1786C160F187C161F188C162F189C15C
:102EE80063F15F2B7DEF17F0D89060376137623759
:102EF80063375F2F78EF17F060C186F161C187F102
:102F080062C188F163C189F186C12EF187C12FF1B1
:102F180088C130F189C131F1000E1BEC3FF02EC1A0
:102F280018F22FC119F230C11AF231C11BF212C2C4
:102F38002EF113C22FF10101306B316B000E1BEC27
:102F48003FF02EC140F12FC141F130C142F131C1F2
:102F580043F118C23CF119C23DF11AC23EF11BC23D
:102F68003FF116EC2CF03CC155F13DC156F13EC184
:102F780057F13FC158F1BAEC49F055C114F256C1A6
:102F880015F257C116F258C117F2000E0101316F40
:102F9800000E326F000E336F000E346F0A0EA5EC70
:102FA80056F08D947EEC65F001018A6FFE0E8A1949
:102FB800D8A4E1EF17F0E3EF17F0D6EF17F0000E03
:102FC800856F0F0E8565EBEF17F0EDEF17F0EFEF5C
:102FD80017F0FCEF17F0700E8525D96EDA6A010E2E
:102FE800DA227EEC65F0DF6E0101852BE5EF17F044
:102FF8007EEC65F07EEC65F08D8470C102F2010113
:1030080071515F6F72510201036F5FC104F273C1A6
:1030180009F274C15FF10101606B616B626B5FC1A2
:1030280062F1616B606B5F6B5FC105F260C106F2B4
:1030380061C107F262C108F275C15FF1606B616B33
:10304800626B60C162F15FC161F1606B5F6B5F5180
:1030580002010513010160510201061301016151CA
:1030680002010713010162510201081376C15FF1E1
:103078000101606B616B626B61C162F160C161F1FA
:103088005FC160F15F6B5F5102010513010160517F
:103098000201061301016151020107130101625186
:1030A80002010813010177510201051378C10AF2E0
:1030B80079C15FF10101606B616B626B5FC162F1A5
:1030C800616B606B5F6B5FC10BF260C10CF261C139
:1030D8000DF262C10EF27AC15FF1606B616B626BD7
:1030E80060C162F15FC161F1606B5F6B5F510201AA
:1030F8000B130101605102010C130101615102011E
:103108000D130101625102010E137BC15FF1010130
:10311800606B616B626B61C162F160C161F15FC13B
:1031280060F15F6B5F5102010B13010160510201F5
:103138000C130101615102010D13010162510201D9
:103148000E1301017C5102010B1301017D510F0B7C
:103158005F6F7E5102010F6F5FC110F201017F5155
:10316800FE0B0201116F8D84C69A6AC1D3FF6BC131
:103178009BFFC3EF18F0060EE82EFED700D0D3A4AD
:10318800C8EF18F0CAEF18F0BFEF18F0100E5AEC9D
:103198005CF0010E0201256F000E216F000E226FF8
:1031A800000E236F000E246F000E1D6F000E1E6FA1
:1031B800000E1F6F000E206F010E2E6F000E2A6F7B
:1031C800000E2B6F000E2C6F000E2D6F000E266F59
:1031D800000E276F000E286F000E296F010E1C6F5E
:1031E800120073C0D9FF74C0DAFFDECFF6FFDDCF5F
:1031F800F7FFF86A0800F550250AD8A406EF19F079
:1032080008EF19F0B3EF1CF073C0D9FF74C0DAFFF0
:10321800DE2A000EDD22000E0101AC6F000EAB6F3E
:10322800ABC1AFF1ACC1B0F1AD69AE69000E000140
:10323800C36F000EC26F6DEF19F00101AF8173C04B
:10324800D9FF74C0DAFFDE2A000EDD226DEF19F017
:103258000101AF8323EF19F00101AF8523EF19F0C6
:103268000101AF8723EF19F00101AF8923EF19F0AE
:10327800000EC36F010EC26F6DEF19F073C0D9FF56
:1032880074C0DAFFDECFF6FFDDCFF7FFF86A08007B
:10329800F550776E786A7850000AD8B456EF19F06E
:1032A8003CEF19F07750200AD8B434EF19F0030A2C
:1032B800D8B438EF19F0080AD8B430EF19F0060A74
:1032C800D8B421EF19F01D0AD8B42CEF19F03CEF4F
:1032D80019F00001C251C311D8B475EF19F077EF96
:1032E80019F042EF19F00101AFA17DEF19F07FEF5E
:1032F80019F080EF19F0AF9373C0D9FF74C0DAFFEB
:10330800DECFF6FFDDCFF7FFF86A0800F5502A0A8E
:10331800D8A491EF19F093EF19F0BCEF19F073C02E
:10332800D9FF74C0DAFFDE2A000EDD2275C0D9FF8E
:1033380076C0DAFFDFCF77F0020EDE26DFCF78F037
:10334800000EDD2277C0D9FF78C0DAFFDECFABF1FF
:10335800DDCFACF1ACBFB5EF19F0B3EF19F0F3EF77
:1033680019F0AF81AB6DAC1FD8B0AC2BF3EF19F0EF
:1033780073C0D9FF74C0DAFFDECF07F0DDCF08F0E5
:1033880037EC3EF007C0ABF108C0ACF1D3EF19F051
:1033980073C0D9FF74C0DAFFDE2A000EDD22D00E1A
:1033A800776EFF0E786E73C0D9FF74C0DAFFDECF78
:1033B800F6FFDDCFF7FFF86A0800F550796E7A6AF4
:1033C8007750792678507A227A5009E10A0E795C8A
:1033D800D8A0F1EF19F0F3EF19F0CCEF19F073C0A2
:1033E800D9FF74C0DAFFDECFF6FFDDCFF7FFF86A4A
:1033F8000800F5502E0AD8A404EF1AF006EF1AF0C8
:1034080079EF1AF0000E0101AE6F000EAD6F73C0B8
:10341800D9FF74C0DAFFDE2A000EDD2273C0D9FF9F
:1034280074C0DAFFDECFF6FFDDCFF7FFF86A0800D9
:10343800F5502A0AD8A423EF1AF025EF1AF042EF24
:103448001AF073C0D9FF74C0DAFFDE2A000EDD223D
:1034580075C0D9FF76C0DAFFDFCF77F0020EDE261F
:10346800DFCF78F0000EDD2277C0D9FF78C0DAFF11
:10347800DECFADF1DDCFAEF179EF1AF073C0D9FF31
:1034880074C0DAFFDECF07F0DDCF08F037EC3EF08E
:1034980007C0ADF108C0AEF159EF1AF073C0D9FFFB
:1034A80074C0DAFFDE2A000EDD22D00E776EFF0E22
:1034B800786E73C0D9FF74C0DAFFDECFF6FFDDCFB8
:1034C800F7FFF86A0800F550796E7A6A775079261E
:1034D80078507A227A5009E10A0E795CD8A077EF01
:1034E8001AF079EF1AF052EF1AF073C0D9FF74C0CE
:1034F800DAFFDECFF6FFDDCFF7FFF86A0800F550F8
:10350800036E046A33EC60F003500001C86FC851C1
:10351800D8B491EF1AF093EF1AF0CFEF1AF073C006
:10352800D9FF74C0DAFFDECF77F0DDCF78F0010E77
:103538007726000E782277C0F6FF78C0F7FFF86A82
:103548000800F550036E046A33EC60F00350000184
:10355800C96FC951D8B4B3EF1AF0B5EF1AF0CFEF6D
:103568001AF073C0D9FF74C0DAFFDECF77F0DDCF71
:1035780078F0020E7726000E782277C0F6FF78C022
:10358800F7FFF86A0800F550036E046A33EC60F040
:1035980003500001CA6F73C0D9FF74C0DAFFDECFD1
:1035A800F6FFDDCFF7FFF86A0800F550640AD8B4D3
:1035B800E0EF1AF0E2EF1AF0F5EF1AF073C0D9FF56
:1035C80074C0DAFFDECFF6FFDDCFF7FFF86A080038
:1035D800F550690AD8A4F3EF1AF0F5EF1AF035EFB1
:1035E8001BF073C0D9FF74C0DAFFDE2A000EDD229B
:1035F80075C0D9FF76C0DAFFDFCF77F0020EDE267E
:10360800DFCF78F0000EDD2277C0D9FF78C0DAFF6F
:10361800DECFB2F0DDCFB3F0000EB3BFFF0EB46F54
:10362800B56FB66FB76FB86FB96F71C01EF072C063
:103638001FF0B2C020F0B3C021F0B4C022F0B5C072
:1036480023F0B6C024F0B7C025F0B8C026F0B9C042
:1036580027F012EC36F01EC071F01FC072F0CFEFE9
:103668001CF0660EC819D8A43CEF1BF03EEF1BF007
:103678007FEF1BF073C0D9FF74C0DAFFDECFF6FF0F
:10368800DDCFF7FFF86A0800F5CFCBF073C0D9FF9C
:1036980074C0DAFFDE2A000EDD2275C0D9FF76C0BD
:1036A800DAFFDFCF77F0040EDE26DFCF78F0000EEA
:1036B800DD2277C0D9FF78C0DAFFDECFC4F0DECFD5
:1036C800C5F0DECFC6F0DECFC7F071C065F072C0BE
:1036D80066F0C4C067F0C5C068F0C6C069F0C7C06E
:1036E8006AF0CBC06BF09EEC0EF065C071F066C05E
:1036F80072F0CFEF1CF0C80E056E000E066EF90EC4
:10370800076EFF0E086E000E0A6E020E096E77EC49
:1037180050F005500610D8A494EF1BF096EF1BF05C
:1037280006EF1CF073C0D9FF74C0DAFFDECF77F064
:10373800DDCF78F0010E7726000E782277C0F6FFED
:1037480078C0F7FFF86A0800F5CFCBF0BF0E776EA8
:10375800FF0E786E73C0D9FF74C0DAFFDECFF6FFB4
:10376800DDCFF7FFF86A0800F550796E7A6A77506E
:10377800792678507A227A5007E11A0E795CD8B007
:10378800C8EF1BF0CAEF1BF0E4EF1BF075C0D9FFC0
:1037980076C0DAFFDFCF77F0040EDE26DFCF78F0D1
:1037A800000EDD2277C0D9FF78C0DAFFDECFC4F083
:1037B800DECFC5F0DECFC6F0DECFC7F0FCEF1BF0E2
:1037C80075C0D9FF76C0DAFFDFCF77F0040EDE26AA
:1037D800DFCF78F0000EDD2277C0D9FF78C0DAFF9E
:1037E800DECFC4F0DECFC5F0DECFC6F0DECFC7F047
:1037F800020E73C0D9FF74C0DAFFDE26000EDD2288
:1038080069EF1BF073C0D9FF74C0DAFFDECFF6FF93
:10381800DDCFF7FFF86A0800F550780AD8B417EF3B
:103828001CF019EF1CF02CEF1CF073C0D9FF74C00A
:10383800DAFFDECFF6FFDDCFF7FFF86A0800F550B4
:10384800580AD8A42AEF1CF02CEF1CF07CEF1CF0CF
:1038580073C0D9FF74C0DAFFDECFF6FFDDCFF7FF04
:10386800F86A0800F5CFCBF073C0D9FF74C0DAFF4F
:10387800DE2A000EDD2275C0D9FF76C0DAFFDFCF61
:1038880077F0020EDE26DFCF78F0000EDD2277C05B
:10389800D9FF78C0DAFFDECF79F0DDCF7AF079C0D2
:1038A800BAF07AC0BBF00001BC6BBD6BBE6BBF6BDE
:1038B800C06BC16B71C01EF072C01FF0BAC020F09F
:1038C800BBC021F0BCC022F0BDC023F0BEC024F0B4
:1038D800BFC025F0C0C026F0C1C027F0CBC028F07B
:1038E800D7EC38F01EC071F01FC072F0CFEF1CF09B
:1038F80073C0D9FF74C0DAFFDECFF6FFDDCFF7FF64
:10390800F86A0800F550250AD8A48DEF1CF08FEF4F
:103918001CF0A6EF1CF073C0D9FF74C0DAFFDE2AD2
:10392800000EDD22000E046E250E036E71C005F038
:1039380072C006F0B0EC51F0000E726E010E716E9E
:10394800CFEF1CF073C0D9FF74C0DAFFDE2A000E77
:10395800DD22000E726E000E716ECFEF1CF073C088
:10396800D9FF74C0DAFFDECFF6FFDDCFF7FFF86AC4
:103978000800F550036E046A71C005F072C006F0C5
:10398800B0EC51F073C0D9FF74C0DAFFDE2A000E24
:10399800DD22A0EF1CF012007BC1D9FF7CC1DAFF49
:1039A800DECFF6FFDDCFF7FFF86A0800F550250AED
:1039B800D8A4E1EF1CF0E3EF1CF088EF20F07BC106
:1039C800D9FF7CC1DAFFDE2A000EDD22000E0101DC
:1039D800AC6F000EAB6FABC1AFF1ACC1B0F1AD696C
:1039E800AE69000E946F000E936F42EF1DF0AF8129
:1039F8007BC1D9FF7CC1DAFFDE2A000EDD2242EF4F
:103A08001DF0AF83FCEF1CF0AF85FCEF1CF0AF8717
:103A1800FCEF1CF0AF89FCEF1CF0000E946F010E58
:103A2800936F42EF1DF07BC1D9FF7CC1DAFFDECF77
:103A3800F6FFDDCFF7FFF86A0800F5507F6F806B5F
:103A48008051000AD8B42BEF1DF011EF1DF07F5103
:103A5800200AD8B40BEF1DF0030AD8B40EEF1DF0FE
:103A6800080AD8B408EF1DF0060AD8B4FBEF1CF01A
:103A78001D0AD8B405EF1DF011EF1DF093519411F4
:103A8800D8B449EF1DF04BEF1DF017EF1DF0AFA1B3
:103A980050EF1DF052EF1DF053EF1DF0AF937BC1B7
:103AA800D9FF7CC1DAFFDECFF6FFDDCFF7FFF86A7A
:103AB8000800F5502A0AD8A464EF1DF066EF1DF03F
:103AC8008FEF1DF07BC1D9FF7CC1DAFFDE2A000E23
:103AD800DD227DC1D9FF7EC1DAFFDFCF7FF1020E83
:103AE800DE26DFCF80F1000EDD227FC1D9FF80C145
:103AF800DAFFDECFABF1DDCFACF1ACBF88EF1DF064
:103B080086EF1DF0C7EF1DF0AF81AB6DAC1FD8B0CD
:103B1800AC2BC7EF1DF07BC1D9FF7CC1DAFFDECF2C
:103B280035F1DDCF36F14CEC3DF035C1ABF136C1A6
:103B3800ACF1A6EF1DF07BC1D9FF7CC1DAFFDE2A0C
:103B4800000EDD22D00E01017F6FFF0E806F7BC15A
:103B5800D9FF7CC1DAFFDECFF6FFDDCFF7FFF86AC9
:103B68000800F550816F826B7F5181278051822335
:103B7800825109E10A0E815DD8A0C5EF1DF0C7EF9B
:103B88001DF09FEF1DF07BC1D9FF7CC1DAFFDECFAE
:103B9800F6FFDDCFF7FFF86A0800F5502E0AD8A423
:103BA800D8EF1DF0DAEF1DF04DEF1EF0000EAE6FEE
:103BB800000EAD6F7BC1D9FF7CC1DAFFDE2A000E93
:103BC800DD227BC1D9FF7CC1DAFFDECFF6FFDDCF76
:103BD800F7FFF86A0800F5502A0AD8A4F6EF1DF096
:103BE800F8EF1DF015EF1EF07BC1D9FF7CC1DAFF9D
:103BF800DE2A000EDD227DC1D9FF7EC1DAFFDFCFCC
:103C08007FF1020EDE26DFCF80F1000EDD227FC1BC
:103C1800D9FF80C1DAFFDECFADF1DDCFAEF14DEFD8
:103C28001EF07BC1D9FF7CC1DAFFDECF35F1DDCFD5
:103C380036F14CEC3DF035C1ADF136C1AEF12CEFAB
:103C48001EF07BC1D9FF7CC1DAFFDE2A000EDD221F
:103C5800D00E01017F6FFF0E806F7BC1D9FF7CC141
:103C6800DAFFDECFF6FFDDCFF7FFF86A0800F55080
:103C7800816F826B7F51812780518223825109E1B4
:103C88000A0E815DD8A04BEF1EF04DEF1EF025EF18
:103C98001EF07BC1D9FF7CC1DAFFDECFF6FFDDCF96
:103CA800F7FFF86A0800F550346F356B81EC5FF068
:103CB80001013451996F9951D8B465EF1EF067EF3F
:103CC8001EF0A3EF1EF07BC1D9FF7CC1DAFFDECF67
:103CD8007FF1DDCF80F1010E7F27000E80237FC1A9
:103CE800F6FF80C1F7FFF86A0800F550346F356BAE
:103CF80081EC5FF0010134519A6F9A51D8B487EF83
:103D08001EF089EF1EF0A3EF1EF07BC1D9FF7CC126
:103D1800DAFFDECF7FF1DDCF80F1020E7F27000EC4
:103D280080237FC1F6FF80C1F7FFF86A0800F550CD
:103D3800346F356B81EC5FF0010134519B6F7BC1AF
:103D4800D9FF7CC1DAFFDECFF6FFDDCFF7FFF86AD7
:103D58000800F550640AD8B4B4EF1EF0B6EF1EF0B0
:103D6800C9EF1EF07BC1D9FF7CC1DAFFDECFF6FFB9
:103D7800DDCFF7FFF86A0800F550690AD8A4C7EF45
:103D88001EF0C9EF1EF009EF1FF07BC1D9FF7CC1FF
:103D9800DAFFDE2A000EDD227DC1D9FF7EC1DAFFFF
:103DA800DFCF7FF1020EDE26DFCF80F1000EDD22AD
:103DB8007FC1D9FF80C1DAFFDECF83F1DDCF84F187
:103DC800000E84BFFF0E856F866F876F886F896FBF
:103DD8008A6F79C14BF17AC14CF183C14DF184C12D
:103DE8004EF185C14FF186C150F187C151F188C1AB
:103DF80052F189C153F18AC154F1A0EC34F04BC19E
:103E080079F14CC17AF1A5EF20F0660E9919D8A482
:103E180010EF1FF012EF1FF053EF1FF07BC1D9FF17
:103E28007CC1DAFFDECFF6FFDDCFF7FFF86A0800C6
:103E3800F5CF9CF17BC1D9FF7CC1DAFFDE2A000EE9
:103E4800DD227DC1D9FF7EC1DAFFDFCF7FF1040E0D
:103E5800DE26DFCF80F1000EDD227FC1D9FF80C1D1
:103E6800DAFFDECF95F1DECF96F1DECF97F1DECF28
:103E780098F179C16DF17AC16EF195C16FF196C172
:103E880070F197C171F198C172F19CC173F155EC51
:103E980008F06DC179F16EC17AF1A5EF20F0990EA5
:103EA8002E6F010E2F6FF90E306FFF0E316F000E5F
:103EB800336F020E326F99EC4FF001012E512F1122
:103EC800D8A469EF1FF06BEF1FF0DBEF1FF07BC189
:103ED800D9FF7CC1DAFFDECF7FF1DDCF80F1010EA3
:103EE8007F27000E80237FC1F6FF80C1F7FFF86AA5
:103EF8000800F5CF9CF1BF0E7F6FFF0E806F7BC16E
:103F0800D9FF7CC1DAFFDECFF6FFDDCFF7FFF86A15
:103F18000800F550816F826B7F5181278051822381
:103F2800825107E11A0E815DD8B09DEF1FF09FEF17
:103F38001FF0B9EF1FF07DC1D9FF7EC1DAFFDFCFD7
:103F48007FF1040EDE26DFCF80F1000EDD227FC177
:103F5800D9FF80C1DAFFDECF95F1DECF96F1DECF53
:103F680097F1DECF98F1D1EF1FF07DC1D9FF7EC167
:103F7800DAFFDFCF7FF1040EDE26DFCF80F1000EFF
:103F8800DD227FC1D9FF80C1DAFFDECF95F1DECF18
:103F980096F1DECF97F1DECF98F1020E7BC1D9FF03
:103FA8007CC1DAFFDE26000EDD223DEF1FF07BC16B
:103FB800D9FF7CC1DAFFDECFF6FFDDCFF7FFF86A65
:103FC8000800F550780AD8B4ECEF1FF0EEEF1FF0B8
:103FD80001EF20F07BC1D9FF7CC1DAFFDECFF6FF0D
:103FE800DDCFF7FFF86A0800F550580AD8A4FFEFAC
:103FF8001FF001EF20F050EF20F07BC1D9FF7CC10A
:10400800DAFFDECFF6FFDDCFF7FFF86A0800F5CF5D
:104018009CF17BC1D9FF7CC1DAFFDE2A000EDD22CC
:104028007DC1D9FF7EC1DAFFDFCF7FF1020EDE2628
:10403800DFCF80F1000EDD227FC1D9FF80C1DAFF1A
:10404800DECF81F1DDCF82F181C18BF182C18CF1AC
:104058008D6B8E6B8F6B906B916B926B79C14BF103
:104068007AC14CF18BC14DF18CC14EF18DC14FF12C
:104078008EC150F18FC151F190C152F191C153F1EC
:1040880092C154F19CC155F184EC37F04BC179F1E0
:104098004CC17AF1A5EF20F07BC1D9FF7CC1DAFFD2
:1040A800DECFF6FFDDCFF7FFF86A0800F550250AE6
:1040B800D8A461EF20F063EF20F07BEF20F07BC104
:1040C800D9FF7CC1DAFFDE2A000EDD22000E316F37
:1040D800250E306F79C132F17AC133F1E5EC50F039
:1040E800000E01017A6F010E796FA5EF20F07BC1F8
:1040F800D9FF7CC1DAFFDE2A000EDD22000E7A6FBE
:10410800000E796FA5EF20F07BC1D9FF7CC1DAFFE3
:10411800DECFF6FFDDCFF7FFF86A0800F5500101A2
:10412800306F316B79C132F17AC133F1E5EC50F07F
:104138007BC1D9FF7CC1DAFFDE2A000EDD2274EFD5
:1041480020F01200000E0101696F000E6A6F000E68
:104158006B6F000E6C6FDDEF22F0AC98AC94B896E4
:1041680065C1D9FF66C1DAFFDECF2EF1DECF2FF1B0
:10417800DECF30F1DECF31F1000E1BEC3FF02EC167
:1041880040F12FC141F130C142F131C143F1000E7C
:1041980001013C6F240E3D6F740E3E6F4A0E3F6F57
:1041A80016EC2CF03CC16DF13DC16EF13EC16FF1D2
:1041B8003FC170F1000E0101406F000E416F800E8B
:1041C800426F420E436F6DC13CF16EC13DF16FC14C
:1041D8003EF170C13FF116EC2CF03CC155F13DC1E8
:1041E80056F13EC157F13FC158F1000E0101596F18
:1041F800000E5A6F800E5B6FBF0E5C6F2AEC23F0C7
:1042080055C169F156C16AF157C16BF158C16CF1DA
:1042180008EF23F0AC98AC84B89665C1D9FF66C1A5
:10422800DAFFDECF2EF1DECF2FF1DECF30F1DECF99
:1042380031F1000E1BEC3FF02EC140F12FC141F1CE
:1042480030C142F131C143F1000E01013C6F240E2F
:104258003D6F740E3E6F4A0E3F6F16EC2CF03CC15A
:104268006DF13DC16EF13EC16FF13FC170F1000EBD
:104278000101406F000E416F800E426F410E436F87
:104288006DC13CF16EC13DF16FC13EF170C13FF1AE
:1042980016EC2CF03CC155F13DC156F13EC157F129
:1042A8003FC158F1000E0101596F000E5A6F800E80
:1042B8005B6FBF0E5C6F2AEC23F055C169F156C1E4
:1042C8006AF157C16BF158C16CF108EF23F0AC9853
:1042D800AC94B88665C1D9FF66C1DAFFDECF2EF18E
:1042E800DECF2FF1DECF30F1DECF31F1000E1BEC47
:1042F8003FF02EC140F12FC141F130C142F131C12F
:1043080043F1000E01013C6F240E3D6F740E3E6FA9
:104318004A0E3F6F16EC2CF03CC16DF13DC16EF1B9
:104328003EC16FF13FC170F1000E0101406F000EF8
:10433800416F800E426F410E436F6DC13CF16EC1FB
:104348003DF16FC13EF170C13FF116EC2CF03CC15C
:1043580055F13DC156F13EC157F13FC158F1000E2C
:104368000101596F000E5A6F800E5B6FBF0E5C6FB4
:104378002AEC23F055C169F156C16AF157C16BF1B6
:1043880058C16CF108EF23F0AC98AC84B88665C1CD
:10439800D9FF66C1DAFFDECF2EF1DECF2FF1DECFF7
:1043A80030F1DECF31F1000E1BEC3FF02EC140F1B1
:1043B8002FC141F130C142F131C143F1000E010179
:1043C8003C6F240E3D6F740E3E6F4A0E3F6F16EC25
:1043D8002CF03CC16DF13DC16EF13EC16FF13FC1A2
:1043E80070F1000E0101406F000E416F800E426FA8
:1043F800400E436F6DC13CF16EC13DF16FC13EF19E
:1044080070C13FF116EC2CF03CC155F13DC156F19D
:104418003EC157F13FC158F1000E0101596F000E1E
:104428005A6F800E5B6FBF0E5C6F2AEC23F055C18C
:1044380069F156C16AF157C16BF158C16CF108EFC7
:1044480023F0AC88B89665C1D9FF66C1DAFFDECF24
:104458002EF1DECF2FF1DECF30F1DECF31F1000EBD
:104468001BEC3FF02EC140F12FC141F130C142F1A8
:1044780031C143F1000E01013C6F240E3D6F740EF3
:104488003E6F4A0E3F6F16EC2CF03CC16DF13DC1FA
:104498006EF13EC16FF13FC170F1000E0101406F36
:1044A800000E416F800E426F400E436F6DC13CF1AC
:1044B8006EC13DF16FC13EF170C13FF116EC2CF0B9
:1044C8003CC155F13DC156F13EC157F13FC158F1CC
:1044D800000E0101596F000E5A6F800E5B6FBF0E00
:1044E8005C6F2AEC23F055C169F156C16AF157C1D6
:1044F8006BF158C16CF108EF23F0AC88B88665C140
:10450800D9FF66C1DAFFDECF2EF1DECF2FF1DECF85
:1045180030F1DECF31F1000E1BEC3FF02EC140F13F
:104528002FC141F130C142F131C143F1000E010107
:104538003C6F240E3D6F740E3E6F4A0E3F6F16ECB3
:104548002CF03CC16DF13DC16EF13EC16FF13FC130
:1045580070F1000E0101406F000E416F800E426F36
:10456800400E436F6DC13CF16EC13DF16FC13EF12C
:1045780070C13FF116EC2CF03CC155F13DC156F12C
:104588003EC157F13FC158F1000E0101596F000EAD
:104598005A6F800E5B6FBF0E5C6F2AEC23F055C11B
:1045A80069F156C16AF157C16BF158C16CF108EF56
:1045B80023F020EE04F06551D9266651DA22DF5047
:1045C800676F686B6851000AD8B4EDEF22F008EF06
:1045D80023F06751000AD8B4B1EF20F0010AD8B42B
:1045E8000EEF21F0030AD8B46BEF21F0010AD8B41A
:1045F800C8EF21F0070AD8B425EF22F0010AD8B491
:1046080081EF22F008EF23F069C155F16AC156F134
:104618006BC157F16CC158F1BAEC49F00101555121
:10462800AF6E69C155F16AC156F16BC157F16CC1E2
:1046380058F1BAEC49F0010156C155F157C156F18C
:1046480058C157F1586B5551B06E120001015851BD
:10465800800B616F58515825636F57AF36EF23F0C1
:1046680038EF23F039EF23F063816351D8B43FEF7B
:1046780023F041EF23F056EF23F06329D8A447EF46
:1046880023F049EF23F051EF23F0000E556F000E91
:10469800566F000E576F000E586F578F000E586FE9
:1046A8005EEF23F0000E556F000E566F000E576F29
:1046B800000E586F5C51800B626F61516219D8B45B
:1046C80068EF23F06AEF23F06BEF23F0618D5C5104
:1046D8005C25626F5BAF73EF23F075EF23F076EF25
:1046E80023F062816251D8B47CEF23F07EEF23F08F
:1046F80093EF23F06229D8A484EF23F086EF23F008
:104708008EEF23F0000E596F000E5A6F000E5B6F8C
:10471800000E5C6F5B8F000E5C6F9BEF23F0000E4A
:10472800596F000E5A6F000E5B6F000E5C6F63517D
:10473800625DD8B0A2EF23F0A4EF23F0CBEF23F013
:1047480061ADA9EF23F0ABEF23F0ADEF23F0800EBE
:10475800611B63C164F162C163F164C162F155C157
:1047680064F159C155F164C159F156C164F15AC196
:1047780056F164C15AF157C164F15BC157F164C184
:104788005BF158C164F15CC158F164C15CF1000E81
:10479800646F635162C15DF15E6B5D5F000E5E5BCD
:1047A8005EBFE0EF23F05E5109E11A0E5D5DD8A00F
:1047B800E0EF23F0E2EF23F019EF24F05551561102
:1047C80057115811D8A4EBEF23F0EEEF23F0010EA8
:1047D800EFEF23F0000E646F000E556F000E566F5A
:1047E800000E576F000E586F62C163F122EF24F07C
:1047F80064A101EF24F003EF24F009EF24F0D8902E
:1048080064310109646F0BEF24F0D890643355A12B
:1048180010EF24F012EF24F013EF24F0648F5835D2
:104828005833573356335533632B6251635DD8A0E1
:1048380020EF24F022EF24F0FCEF23F061BD27EFF6
:1048480024F029EF24F069EF24F06351D8A42FEF66
:1048580024F031EF24F03BEF24F0000E556F000EEA
:10486800566F000E576F000E586F8AEF25F059519A
:1048780055275A5156235B5157235C51582358A149
:1048880048EF24F04AEF24F0F6EF24F064A14FEF4C
:1048980024F051EF24F057EF24F0D8906431010947
:1048A800646F59EF24F0D890643355A15EEF24F07B
:1048B80060EF24F061EF24F0648F58355833573394
:1048C80056335533632BF6EF24F05951555D5A5141
:1048D80056595B5157595851800A5D6F5C51800A8F
:1048E8005D59D8B07AEF24F07CEF24F0A7EF24F0DC
:1048F8005551595D5D6F56515A595E6F57515B5905
:104908005F6F58515C59606FFF0E5D25556FFF0E44
:104918005E21566FFF0E5F21576FFF0E6021586FA3
:10492800800E611B646D6451D8A49DEF24F09FEF45
:1049380024F0AFEF24F0010E5527000E562357231D
:104948005823AFEF24F05951555F5A51565B5B51CC
:10495800575B5C51585B5551561157115811D8A4E3
:10496800B8EF24F0BAEF24F0EFEF24F06451D8A4A4
:10497800C0EF24F0C2EF24F0EFEF24F0000E556FE3
:10498800000E566F000E576F000E586F8AEF25F015
:10499800D890553756375737583764AFD6EF24F085
:1049A800D8EF24F0D9EF24F0558164A1DEEF24F08C
:1049B800E0EF24F0E4EF24F0D8806437E6EF24F049
:1049C800D89064376351D8B4ECEF24F0EEEF24F0BC
:1049D800EFEF24F0630757AFF4EF24F0F6EF24F07D
:1049E800CCEF24F0000E626F64AFFDEF24F0FFEF10
:1049F80024F017EF25F064C15DF17F0E5D17D8B480
:104A080008EF25F00AEF25F00EEF25F0010E626F92
:104A180017EF25F055A113EF25F015EF25F017EF47
:104A280025F00AEF25F06251D8B41DEF25F01FEFED
:104A380025F04AEF25F0010E5527000E562357237F
:104A4800582358A12AEF25F02CEF25F04AEF25F03E
:104A580055C15DF156C15EF157C15FF158C160F1B2
:104A6800603560335F335E335D335DC155F15EC1E0
:104A780056F15FC157F160C158F16329D8B447EFC7
:104A880025F049EF25F04AEF25F0632B6329D8B4C8
:104A980050EF25F052EF25F05AEF25F06351D8A4D6
:104AA80058EF25F05AEF25F06CEF25F0000E556F02
:104AB800000E566F000E576F000E586F6351D8A442
:104AC80068EF25F06AEF25F06CEF25F0000E616FB6
:104AD80063A171EF25F073EF25F076EF25F0578F7E
:104AE80077EF25F0579FD8906331586F61AF7FEF0C
:104AF80025F081EF25F082EF25F0588F55C155F14B
:104B080056C156F157C157F158C158F112002B50F0
:104B1800800B346E2B502B24366E2AAE96EF25F080
:104B280098EF25F099EF25F036803650D8B49FEFEE
:104B380025F0A1EF25F0B6EF25F03628D8A4A7EF89
:104B480025F0A9EF25F0B1EF25F0000E286E000E34
:104B5800296E000E2A6E000E2B6E2A8E000E2B6E0A
:104B6800BEEF25F0000E286E000E296E000E2A6E8C
:104B7800000E2B6E2F50800B356E34503518D8B47C
:104B8800C8EF25F0CAEF25F0CBEF25F0348C2F5075
:104B98002F24356E2EAED3EF25F0D5EF25F0D6EFC6
:104BA80025F035803550D8B4DCEF25F0DEEF25F060
:104BB800F3EF25F03528D8A4E4EF25F0E6EF25F04B
:104BC800EEEF25F0000E2C6E000E2D6E000E2E6EF0
:104BD800000E2F6E2E8E000E2F6EFBEF25F0000EAE
:104BE8002C6E000E2D6E000E2E6E000E2F6E36509F
:104BF800355CD8B002EF26F004EF26F02BEF26F054
:104C080034AC09EF26F00BEF26F00DEF26F0800EFE
:104C1800341A36C037F035C036F037C035F028C002
:104C280037F02CC028F037C02CF029C037F02DC041
:104C380029F037C02DF02AC037F02EC02AF037C02F
:104C48002EF02BC037F02FC02BF037C02FF0000EFE
:104C5800376E365035C030F0316A305E000E315A4A
:104C680031BE40EF26F0315009E11A0E305CD8A071
:104C780040EF26F042EF26F079EF26F02850291071
:104C88002A102B10D8A44BEF26F04EEF26F0010E79
:104C98004FEF26F0000E376E000E286E000E296EBC
:104CA800000E2A6E000E2B6E35C036F082EF26F00D
:104CB80037A061EF26F063EF26F069EF26F0D89071
:104CC80037300109376E6BEF26F0D890373228A0BD
:104CD80070EF26F072EF26F073EF26F0378E2B3444
:104CE8002B322A3229322832362A3550365CD8A05F
:104CF80080EF26F082EF26F05CEF26F034BC87EFD9
:104D080026F089EF26F0C9EF26F03650D8A48FEFA9
:104D180026F091EF26F09BEF26F0000E286E000E8D
:104D2800296E000E2A6E000E2B6EEAEF27F02C502B
:104D380028262D5029222E502A222F502B222BA0F4
:104D4800A8EF26F0AAEF26F056EF27F037A0AFEF2E
:104D580026F0B1EF26F0B7EF26F0D89037300109EA
:104D6800376EB9EF26F0D890373228A0BEEF26F07C
:104D7800C0EF26F0C1EF26F0378E2B342B322A32C3
:104D880029322832362A56EF27F02C50285C2D502D
:104D980029582E502A582B50800A306E2F50800ADE
:104DA8003058D8B0DAEF26F0DCEF26F007EF27F01E
:104DB80028502C5C306E29502D58316E2A502E58B0
:104DC800326E2B502F58336EFF0E3024286EFF0E94
:104DD8003120296EFF0E32202A6EFF0E33202B6EF3
:104DE800800E341A376C3750D8A4FDEF26F0FFEF49
:104DF80026F00FEF27F0010E2826000E29222A227E
:104E08002B220FEF27F02C50285E2D50295A2E50B8
:104E18002A5A2F502B5A285029102A102B10D8A460
:104E280018EF27F01AEF27F04FEF27F03750D8A4E4
:104E380020EF27F022EF27F04FEF27F0000E286E23
:104E4800000E296E000E2A6E000E2B6EEAEF27F078
:104E5800D890283629362A362B3637AE36EF27F043
:104E680038EF27F039EF27F0288037A03EEF27F0FA
:104E780040EF27F044EF27F0D880373646EF27F089
:104E8800D89037363650D8B44CEF27F04EEF27F08D
:104E98004FEF27F036062AAE54EF27F056EF27F0EB
:104EA8002CEF27F0000E356E37AE5DEF27F05FEF81
:104EB80027F077EF27F037C030F07F0E3016D8B4E0
:104EC80068EF27F06AEF27F06EEF27F0010E356ED6
:104ED80077EF27F028A073EF27F075EF27F077EF2B
:104EE80027F06AEF27F03550D8B47DEF27F07FEF31
:104EF80027F0AAEF27F0010E2826000E29222A22E1
:104F08002B222BA08AEF27F08CEF27F0AAEF27F0AF
:104F180028C030F029C031F02AC032F02BC033F05D
:104F28003334333232323132303230C028F031C08B
:104F380029F032C02AF033C02BF03628D8B4A7EFB6
:104F480027F0A9EF27F0AAEF27F0362A3628D8B499
:104F5800B0EF27F0B2EF27F0BAEF27F03650D8A419
:104F6800B8EF27F0BAEF27F0CCEF27F0000E286E45
:104F7800000E296E000E2A6E000E2B6E3650D8A435
:104F8800C8EF27F0CAEF27F0CCEF27F0000E346EF9
:104F980036A0D1EF27F0D3EF27F0D6EF27F02A8EEF
:104FA800D7EF27F02A9ED89036302B6E34AEDFEF3D
:104FB80027F0E1EF27F0E2EF27F02B8E28C028F04A
:104FC80029C029F02AC02AF02BC02BF012000101B9
:104FD8003F51800B486F3F513F254E6F3EAFF7EF73
:104FE80027F0F9EF27F0FAEF27F04E814E51D8B4A9
:104FF80000EF28F002EF28F015EF28F04E29D8A48A
:1050080008EF28F00AEF28F012EF28F0000E3C6FA6
:10501800000E3D6F000E3E6F000E3F6F3E8F1DEF7E
:1050280028F0000E3C6F000E3D6F000E3E6F000E24
:105038003F6F4351800B481B43514325496F42AF93
:1050480028EF28F02AEF28F02BEF28F04981495162
:10505800D8B431EF28F033EF28F046EF28F049298B
:10506800D8A439EF28F03BEF28F043EF28F0000EE2
:10507800406F000E416F000E426F000E436F428F6B
:105088004EEF28F0000E406F000E416F000E426F89
:10509800000E436F4951D8B454EF28F056EF28F06A
:1050A8005EEF28F04E51D8A45CEF28F05EEF28F0B0
:1050B80068EF28F0000E3C6F000E3D6F000E3E6F4B
:1050C800000E3F6F00EF2AF042513C03F3CF53F13B
:1050D800F4CF54F153514A6F4B6B4C6B4D6B545199
:1050E8004F6F506B516B526B41513D03F3CF53F1EE
:1050F800F4CF54F153514A27000E4B234C234D2330
:1051080054514F27000E50235123522340513E0340
:10511800F3CF53F1F4CF54F153514A27000E4B23E8
:105128004C234D2354514F27000E50235123522313
:105138004CC14DF14BC14CF14AC14BF14A6B405146
:105148003D03F3CF53F1F4CF54F153514A2754514F
:105158004B23000E4C23000E4D2341513C03F3CF4B
:1051680053F1F4CF54F153514A2754514B23000EB5
:105178004C23000E4D234CC14DF14BC14CF14AC19B
:105188004BF14A6B40513C03F3CF53F1F4CF54F148
:1051980053514A2754514B23000E4C23000E4D23E4
:1051A80042513D03F3CF53F1F4CF54F153514F27FC
:1051B80054515023000E5123000E522341513E03F7
:1051C800F3CF53F1F4CF54F153514F275451502397
:1051D800000E5123000E522342513E03F3CF53F1E8
:1051E800F4CF54F15351446F5451456F466B476B9C
:1051F80046C147F145C146F144C145F1446B4451AC
:105208004F274551502346515123475152234AC1F4
:1052180044F14BC145F14CC146F14DC147F1190E5E
:105228001BEF29F0D8904733463345334433E82EF3
:1052380016EF29F044514F27455150234651512329
:10524800475152234CC14DF14BC14CF14AC14BF16E
:105258004A6B49514EC144F1456B4427000E452322
:10526800820E4425536FFF0E4521546F51EF29F0EC
:10527800D8904F375037513752374DAF46EF29F056
:1052880048EF29F049EF29F04F81D8904A374B373A
:105298004C374D375307D8A0540751AF56EF29F074
:1052A80058EF29F03CEF29F0000E496F4DAF5FEF42
:1052B80029F061EF29F085EF29F0FF0E4A15446FB8
:1052C800FF0E4B15456FFF0E4C15466F7F0E4D15A3
:1052D800476F4451451146114711D8B476EF29F06C
:1052E80078EF29F07CEF29F0010E496F85EF29F05E
:1052F8004FA181EF29F083EF29F085EF29F078EFAE
:1053080029F04951D8B48BEF29F08DEF29F0B1EF8E
:1053180029F0010E4F27000E50235123522352A18A
:1053280098EF29F09AEF29F0B1EF29F04FC144F135
:1053380050C145F151C146F152C147F14735473394
:1053480046334533443344C14FF145C150F146C15A
:1053580051F147C152F1534B542B54BFBCEF29F0C4
:10536800545108E15329D8A0BCEF29F0BEEF29F029
:10537800C8EF29F0000E4F6F000E506F800E516F6E
:105388007F0E526FF6EF29F054BFD5EF29F0545134
:1053980006E15305D8B0D3EF29F0D5EF29F0E1EFB6
:1053A80029F0000E4F6F000E506F000E516F000E67
:1053B800526F000E486FF6EF29F053C14EF1FF0E01
:1053C8004F17FF0E50177F0E5117000E52174EA1A0
:1053D800F0EF29F0F2EF29F0F3EF29F0518FD89090
:1053E8004E31526F485152134FC13CF150C13DF1FB
:1053F80051C13EF152C13FF112004350800B4C6E37
:1054080043504324526E42AE0CEF2AF00EEF2AF0BE
:105418000FEF2AF052805250D8B415EF2AF017EF48
:105428002AF02AEF2AF05228D8A41DEF2AF01FEFFD
:105438002AF027EF2AF0000E406E000E416E000E93
:10544800426E000E436E428E32EF2AF0000E406E1E
:10545800000E416E000E426E000E436E4750800BE8
:105468004C1A475047244D6E46AE3DEF2AF03FEFA9
:105478002AF040EF2AF04D804D50D8B446EF2AF07C
:1054880048EF2AF05BEF2AF04D28D8A44EEF2AF017
:1054980050EF2AF058EF2AF0000E446E000E456EC9
:1054A800000E466E000E476E468E63EF2AF0000E21
:1054B800446E000E456E000E466E000E476E4D504F
:1054C800D8B469EF2AF06BEF2AF073EF2AF0525044
:1054D800D8A471EF2AF073EF2AF07DEF2AF0000EBE
:1054E800406E000E416E000E426E000E436E15EFC8
:1054F8002CF046504002F3CF57F0F4CF58F05750F5
:105508004E6E4F6A506A516A5850536E546A556AC3
:10551800566A45504102F3CF57F0F4CF58F0575030
:105528004E26000E4F225022512258505326000E6C
:1055380054225522562244504202F3CF57F0F4CF5A
:1055480058F057504E26000E4F22502251225850E4
:105558005326000E54225522562250C051F04FC0F7
:1055680050F04EC04FF04E6A44504102F3CF57F00E
:10557800F4CF58F057504E2658504F22000E502264
:10558800000E512245504002F3CF57F0F4CF58F0A7
:1055980057504E2658504F22000E5022000E5122CE
:1055A80050C051F04FC050F04EC04FF04E6A4450BA
:1055B8004002F3CF57F0F4CF58F057504E265850CA
:1055C8004F22000E5022000E512246504102F3CFC6
:1055D80057F0F4CF58F05750532658505422000E25
:1055E8005522000E562245504202F3CF57F0F4CF11
:1055F80058F05750532658505422000E5522000E8A
:10560800562246504202F3CF57F0F4CF58F0575085
:10561800486E5850496E4A6A4B6A4AC04BF049C0B6
:105628004AF048C049F0486A485053264950542225
:105638004A5055224B5056224EC048F04FC049F0B0
:1056480050C04AF051C04BF0190E30EF2BF0D890F3
:105658004B324A3249324832E82E2BEF2BF0485071
:105668005326495054224A5055224B50562250C076
:1056780051F04FC050F04EC04FF04E6A4D5052C0DE
:1056880048F0496A4826000E4922820E4824576E7F
:10569800FF0E4920586E66EF2BF0D89053365436DB
:1056A8005536563651AE5BEF2BF05DEF2BF05EEFC3
:1056B8002BF05380D8904E364F3650365136570619
:1056C800D8A0580655AE6BEF2BF06DEF2BF051EFCD
:1056D8002BF0000E4D6E51AE74EF2BF076EF2BF0E1
:1056E8009AEF2BF0FF0E4E14486EFF0E4F14496EC2
:1056F800FF0E50144A6E7F0E51144B6E48504910DD
:105708004A104B10D8B48BEF2BF08DEF2BF091EFA4
:105718002BF0010E4D6E9AEF2BF053A096EF2BF065
:1057280098EF2BF09AEF2BF08DEF2BF04D50D8B46B
:10573800A0EF2BF0A2EF2BF0C6EF2BF0010E5326B3
:10574800000E54225522562256A0ADEF2BF0AFEF93
:105758002BF0C6EF2BF053C048F054C049F055C0A9
:105768004AF056C04BF04B344B324A324932483239
:1057780048C053F049C054F04AC055F04BC056F0E9
:10578800574A582A58BED1EF2BF0585008E15728ED
:10579800D8A0D1EF2BF0D3EF2BF0DDEF2BF0000EDC
:1057A800536E000E546E800E556E7F0E566E0BEFC4
:1057B8002CF058BEEAEF2BF0585006E15704D8B049
:1057C800E8EF2BF0EAEF2BF0F6EF2BF0000E536E1C
:1057D800000E546E000E556E000E566E000E4C6E86
:1057E8000BEF2CF057C052F0FF0E5316FF0E541655
:1057F8007F0E5516000E561652A005EF2CF007EF37
:105808002CF008EF2CF0558ED8905230566E4C5034
:10581800561253C040F054C041F055C042F056C033
:1058280043F0120001013F51800B4C6F3F513F255F
:10583800536F3EAF22EF2CF024EF2CF025EF2CF025
:1058480053815351D8B42BEF2CF02DEF2CF042EFAD
:105858002CF05329D8A433EF2CF035EF2CF03DEF82
:105868002CF0000E3C6F000E3D6F000E3E6F000ED8
:105878003F6F3E8F000E3F6F4AEF2CF0000E3C6FDB
:10588800000E3D6F000E3E6F000E3F6F4351800BC0
:105898004C1B43514325546F42AF55EF2CF057EF43
:1058A8002CF058EF2CF054815451D8B45EEF2CF002
:1058B80060EF2CF075EF2CF05429D8A466EF2CF08B
:1058C80068EF2CF070EF2CF0000E406F000E416F67
:1058D800000E426F000E436F428F000E436F7DEF44
:1058E8002CF0000E406F000E416F000E426F000E4C
:1058F800436F4051411142114311D8A486EF2CF057
:1059080088EF2CF0A0EF2CF0000E3C6F000E3D6FDE
:10591800000E3E6F000E3F6F800E3E137F0E3F134A
:105928004C513F133CC13CF13DC13DF13EC13EF1FC
:105938003FC13FF1E3EF2DF05351D8A4A6EF2CF06F
:10594800A8EF2CF0B2EF2CF0000E3C6F000E3D6F6C
:10595800000E3E6F000E3F6FE3EF2DF0545153C120
:1059680044F1456B445F000E455B7F0E44254D6F47
:10597800000E45214E6F3CC148F13DC149F13EC181
:105988004AF13FC14BF1000E3C6F000E3D6F000E17
:105998003E6F000E3F6F000E4F6F000E506F000EEF
:1059A800516F000E526F000E546F13EF2DF05451CB
:1059B800D8B4E1EF2CF0E3EF2CF0FAEF2CF0D8900C
:1059C800483749374A374B37D8903C373D373E3709
:1059D8003F3752AFF2EF2CF0F4EF2CF0F5EF2CF04C
:1059E8003C81D8904F375037513752374051485D36
:1059F8004151495942514A5943514B59D8A007EF8F
:105A08002DF009EF2DF012EF2DF0528D4051485F27
:105A18004151495B42514A5B43514B5B542B190E30
:105A2800546519EF2DF01BEF2DF0DBEF2CF04851EA
:105A380049114A114B11D8B424EF2DF026EF2DF05F
:105A48003EEF2DF04F813EEF2DF0D8903C373D379B
:105A58003E373F3752AF33EF2DF035EF2DF036EFAD
:105A68002DF03C81D8904F375037513752374D077A
:105A7800D8A04E073EAF43EF2DF045EF2DF029EFAC
:105A88002DF0000E546F52AF4CEF2DF04EEF2DF06D
:105A980072EF2DF0FF0E4F15446FFF0E5015456F36
:105AA800FF0E5115466F7F0E5215476F4451451131
:105AB80046114711D8B463EF2DF065EF2DF069EF6B
:105AC8002DF0010E546F72EF2DF03CA16EEF2DF00A
:105AD80070EF2DF072EF2DF065EF2DF05451D8B422
