:0400000007EF00F016
:100008007F8228ED51F04FEF5AF067506810D8B44E
:1000180010EF00F012EF00F01EEF00F067C0D9FFFC
:1000280068C0DAFF65C0DEFF66C0DDFF1EEF00F0C6
:10003800654A662A65C0D9FF66C0DAFF200EDE1859
:10004800D8B429EF00F02CEF00F0010E2DEF00F0EE
:10005800000E736E746A73507410D8A436EF00F0F3
:1000680038EF00F01CEF00F0F70E696EFF0E6A6EB5
:1000780065C0D9FF66C0DAFFDF506B6E6B50736ED8
:10008800746A73C06CF074C06DF069506C266A5065
:100098006D226D5009E1050E6C5CD8A056EF00F09A
:1000A80058EF00F01CEF00F0000E706E2D0E731864
:1000B8007410D8A462EF00F064EF00F06AEF00F06B
:1000C800010E706E654A662A76EF00F02B0E7318E3
:1000D8007410D8A472EF00F074EF00F076EF00F01F
:1000E80066EF00F0000E796E7BEF00F0792A795008
:1000F8006524D96E000E6620DA6EDF50D8B487EF1B
:1001080000F089EF00F0BFEF00F079506524D96E58
:10011800000E6620DA6EDF50696EA20E7924F66E44
:10012800F76AFF0EF722F86A000EF8220800F55069
:100138006918D8B4A2EF00F0A4EF00F07AEF00F04D
:1001480079506524D96E000E6620DA6EDF50696E2C
:10015800990E7924F66EF76AFF0EF722F86A000EF8
:10016800F8220800F5506918D8B4BDEF00F0BFEFC9
:1001780000F07AEF00F0020E7964C5EF00F0C7EFE7
:1001880000F0F3EF00F0000E756E000E766E800E34
:10019800776E7F0E786E67506810D8B4D6EF00F08F
:1001A800D8EF00F033EF08F0080E7918D8B4DFEF75
:1001B80000F0E1EF00F0E3EF00F0030E796E795004
:1001C8006524696E000E66206A6E67C0D9FF68C034
:1001D800DAFF69C0DEFF6AC0DDFF33EF08F0000E0A
:1001E800796EF8EF00F0792A79506524D96E000EFF
:1001F8006620DA6EDF50D8B404EF01F006EF01F0A4
:100208003CEF01F079506524D96E000E6620DA6E55
:10021800DF50696EEE0E7924F66EF76AFF0EF7224C
:10022800F86A000EF8220800F5506918D8B41FEFD4
:1002380001F021EF01F0F7EF00F079506524D96E55
:10024800000E6620DA6EDF50696EE60E7924F66ECF
:10025800F76AFF0EF722F86A000EF8220800F55038
:100268006918D8B43AEF01F03CEF01F0F7EF00F06D
:10027800030E7918D8A443EF01F045EF01F0B3EF6E
:1002880001F0CC0E016EFF0E026E86EC67F001C025
:1002980075F002C076F003C077F004C078F06750BC
:1002A8006810D8B45AEF01F05CEF01F033EF08F0B2
:1002B80079506526000E662265C0D9FF66C0DAFF50
:1002C800280EDE18D8A46BEF01F06DEF01F0A9EF4E
:1002D80001F0000E796E72EF01F0792A79506524E9
:1002E800D96E000E6620DA6EDF50D8B47EEF01F0CA
:1002F80080EF01F08FEF01F079506524D96E000E80
:100308006620DA6E290EDE18D8A48DEF01F08FEF83
:1003180001F071EF01F079506524D96E000E662066
:10032800DA6E290EDE18D8A49CEF01F09EEF01F0DA
:10033800A9EF01F07950696E6A6A010E6926000E0C
:100348006A22695065266A50662267C0D9FF68C06C
:10035800DAFF65C0DEFF66C0DDFF33EF08F0000E90
:10036800746E000E736E000E756E000E766E000EC3
:10037800776E000E786E000E726E000E716E000EB3
:10038800796EC8EF01F0792A79506524D96E000E8C
:100398006620DA6E300EDE18D8B4D5EF01F0D7EF4C
:1003A80001F0C7EF01F07950D8B4DDEF01F0DFEFCD
:1003B80001F04FEF05F079506524D96E000E6620E4
:1003C800DA6E780EDE18D8B4ECEF01F0EEEF01F03B
:1003D800FDEF01F079506524D96E000E6620DA6EC3
:1003E800580EDE18D8A4FBEF01F0FDEF01F04FEF37
:1003F80005F07950696E6A6A010E6926000E6A2254
:10040800695065266A506622000E796E0DEF02F07B
:10041800792A79506524D96E000E6620DA6E300E7E
:10042800DE18D8B41AEF02F01CEF02F00CEF02F05D
:10043800000E796E79506524D96E000E6620DA6E4A
:10044800700EDE18D8B42BEF02F02DEF02F09FEFFC
:1004580003F079506524D96E000E6620DA6E500ECE
:10046800DE18D8A43AEF02F03CEF02F03EEF02F0BB
:100478009FEF03F079506524D96E000E6620DA6E7E
:100488002E0EDE18D8A44BEF02F04DEF02F051EF1C
:1004980002F07088792A9FEF03F079506524D96EAD
:1004A800000E6620DA6EDF50696E6950076E086AC2
:1004B80000EC5DF007500810D8B465EF02F067EF64
:1004C80002F0D5EF02F0000E6F6ED00E696EFF0ECF
:1004D8006A6E79506524D96E000E6620DA6EDF5098
:1004E8006B6E6C6A69506B266A506C226C5007E11F
:1004F8000A0E6B5CD8B083EF02F085EF02F090EF44
:1005080002F079506524D96E000E6620DA6EDF504D
:10051800D00F6F6EA0EF02F079506524D96E000EEF
:100528006620DA6EDF50696E6950036E046AD5EC96
:1005380063F00350C90F6F6E74BEAEEF02F07450D3
:1005480007E1080E735CD8B0ACEF02F0AEEF02F032
:10055800CDEF02F073500708696ED8906936D890CD
:1005680069366FC06AF06B6A6C6A6D6A692AC2EF95
:1005780002F0D8906A366B366C366D36692EBDEF50
:1005880002F06A5075126B5076126C5077126D50EB
:100598007812734A742A040E7126000E7222DFEF55
:1005A80002F0000E656E000E666E000E676E000E9D
:1005B800686E54EF08F0792A1EEF02F0795065242E
:1005C800D96E000E6620DA6E700EDE18D8B4EFEF22
:1005D80002F0F1EF02F0A6EF03F079506524D96E2E
:1005E800000E6620DA6E500EDE18D8A4FEEF02F078
:1005F80000EF03F002EF03F0A6EF03F07950652453
:10060800D96E000E6620DA6E300EDE18D8A40FEF11
:1006180003F011EF03F020EF03F073507410D8A427
:1006280018EF03F01AEF03F020EF03F0FC0E712629
:10063800FF0E72229EEF03F079506524D96E000EEA
:100648006620DA6EDF50696E6950076E086A00EC42
:100658005DF007500810D8B434EF03F036EF03F01C
:100668009EEF03F0000E6F6ED00E696EFF0E6A6E7D
:1006780079506524D96E000E6620DA6EDF506B6EF5
:100688006C6A69506B266A506C226C5007E10A0E3E
:100698006B5CD8B052EF03F054EF03F05FEF03F058
:1006A80079506524D96E000E6620DA6EDF50D00FBF
:1006B8006F6E6FEF03F079506524D96E000E6620D7
:1006C800DA6EDF50696E6950036E046AD5EC63F028
:1006D8000350C90F6F6E74BE7DEF03F0745007E1CD
:1006E800080E735CD8B07BEF03F07DEF03F09CEF4E
:1006F80003F073500708696ED8906936D890693648
:100708006FC06AF06B6A6C6A6D6A692A91EF03F0D0
:10071800D8906A366B366C366D36692E8CEF03F0DE
:100728006A5075126B5076126C5077126D507812B1
:10073800734A742A792A70B8A4EF03F0A6EF03F07D
:10074800E2EF02F079506524D96E000E6620DA6E69
:10075800700EDE18D8B4B3EF03F0B5EF03F0CEEFA8
:1007680003F079506524D96E000E6620DA6E500EBB
:10077800DE18D8B4C2EF03F0C4EF03F0CEEF03F0F5
:10078800000E656E000E666E000E676E000E686ED7
:1007980054EF08F0792A79506524D96E000E662046
:1007A800DA6E2B0EDE18D8A4DCEF03F0DEEF03F0D0
:1007B800E1EF03F0792AF2EF03F079506524D96E5E
:1007C800000E6620DA6E2D0EDE18D8A4EEEF03F0C8
:1007D800F0EF03F0F2EF03F07086792A795065267E
:1007E800000E6622000E796EFBEF03F0792A79502D
:1007F8006524D96E000E6620DA6E300EDE18D8B485
:1008080008EF04F00AEF04F0FAEF03F0000E746E3C
:10081800000E736E3CEF04F07950D8B416EF04F074
:1008280018EF04F026EF04F073C001F074C002F072
:10083800000E046E0A0E036E2EEC67F001C073F012
:1008480002C074F0D00E696EFF0E6A6E795065248E
:10085800D96E000E6620DA6EDF506B6E6C6A6950D6
:100868006B266A506C226B5073266C507422792A5E
:10087800D00E696EFF0E6A6E79506524D96E000E2F
:100888006620DA6EDF506B6E6C6A69506B266A50B0
:100898006C226C5009E10A0E6B5CD8A056EF04F08C
:1008A80058EF04F010EF04F07950D8A45EEF04F08C
:1008B80060EF04F06AEF04F0000E656E000E666EDD
:1008C800000E676E000E686E54EF08F070A66FEFAA
:1008D80004F071EF04F075EF04F0736C741ED8B077
:1008E800742A735071267450722267506810D8B4F5
:1008F80080EF04F082EF04F090EF04F07950652463
:10090800696E000E66206A6E67C0D9FF68C0DAFF9C
:1009180069C0DEFF6AC0DDFF755076107710781069
:10092800D8A499EF04F09BEF04F0A5EF04F0000EB3
:10093800656E000E666E000E676E000E686E54EFF0
:1009480008F0FF0E7514696E000E76146A6E000EBC
:1009580077146B6E000E78146C6E6C506B106A1006
:1009680009E1810E695CD8A0BCEF04F0BEEF04F089
:10097800D0EF04F0000E7526010E7622000E7722C5
:10098800000E7822D0EF04F0D89075367636773698
:1009980078367106D8A0720678AED5EF04F0D7EF96
:1009A80004F0C8EF04F072AEE3EF04F0830E715C5C
:1009B800FF0E7258D8B0E3EF04F0E5EF04F0F1EF62
:1009C80004F0FF0E726E810E716E000E756E000ED1
:1009D800766E000E776E000E786E810E711808E143
:1009E8007228D8B4FAEF04F0FCEF04F004EF05F035
:1009F800D89075367636773678367106D8A072066E
:100A080072BE10EF05F0725009E1800E715CD8A03B
:100A180010EF05F012EF05F01EEF05F0000E756EF1
:100A2800000E766E000E776E000E786E000E726EF7
:100A3800800E716E090E696ED890783277327632F0
:100A48007532692E20EF05F0FF0E7516FF0E76162B
:100A58007F0E7716000E78167F0E7124696E000ED1
:100A680072206A6EFF0E69146B6E6C6A6D6A6E6A2C
:100A7800170ED8906B366C366D366E36E82E3DEF15
:100A880005F06B5075126C5076126D5077126E50DF
:100A9800781233EF08F070B854EF05F056EF05F010
:100AA80068EF05F065C0D9FF66C0DAFF2E0EDE18C4
:100AB800D8A461EF05F063EF05F068EF05F07088E2
:100AC800654A662A4FEF05F0D00E696EFF0E6A6E12
:100AD80065C0D9FF66C0DAFFDF506B6E6C6A69507B
:100AE8006B266A506C226C5009E10A0E6B5CD8A028
:100AF80080EF05F082EF05F084EF05F0D2EF05F006
:100B08007082090E73187410D8B48DEF05F08FEF4A
:100B180005F0C5EF05F070A894EF05F096EF05F025
:100B280099EF05F07106D8A07206734A742A75C049
:100B380001F076C002F077C003F078C004F00A0E26
:100B4800056E000E066E000E076E000E086EDEECD7
:100B58005DF001C075F002C076F003C077F004C004
:100B680078F065C0D9FF66C0DAFFDF50696ED00E35
:100B7800692669507526000E762277227822CEEFF4
:100B880005F070B8CAEF05F0CCEF05F0CEEF05F030
:100B9800714A722A654A662A4FEF05F0000E746E94
:100BA800000E736E65C0D9FF66C0DAFF650EDE18E9
:100BB800D8B4E1EF05F0E3EF05F0F0EF05F065C01C
:100BC800D9FF66C0DAFF450EDE18D8A4EEEF05F0AF
:100BD800F0EF05F0B8EF06F0654A662A65C0D9FF60
:100BE80066C0DAFF2D0EDE18D8A4FDEF05F0FFEF82
:100BF80005F004EF06F07086654A662A13EF06F0E2
:100C080065C0D9FF66C0DAFF2B0EDE18D8A40FEF37
:100C180006F011EF06F013EF06F0654A662A65C084
:100C2800D9FF66C0DAFF300EDE18D8B41EEF06F022
:100C380020EF06F011EF06F0D00E696EFF0E6A6E17
:100C480065C0D9FF66C0DAFFDF506B6E6C6A695009
:100C58006B266A506C226C5007E10A0E6B5CD8B0A8
:100C680038EF06F03AEF06F0ADEF06F065C0D9FFB1
:100C780066C0DAFFDF50696ED00E69266950736E60
:100C8800746A654A662AD00E696EFF0E6A6E65C080
:100C9800D9FF66C0DAFFDF506B6E6C6A69506B264D
:100CA8006A506C226C5007E10A0E6B5CD8B05FEF9B
:100CB80006F061EF06F0ADEF06F065C0D9FF66C03B
:100CC800DAFFDF50696ED00E692673C001F074C078
:100CD80002F0000E046E0A0E036E2EEC67F06950E7
:100CE8000124736E000E0220746E654A662AD00EC7
:100CF800696EFF0E6A6E65C0D9FF66C0DAFFDF5005
:100D08006B6E6C6A69506B266A506C226C5007E1F6
:100D18000A0E6B5CD8B093EF06F095EF06F0ADEFD6
:100D280006F065C0D9FF66C0DAFFDF50696ED00EE5
:100D3800692673C001F074C002F0000E046E0A0E3A
:100D4800036E2EEC67F069500124736E000E0220CA
:100D5800746E70A6B2EF06F0B4EF06F0B8EF06F0C6
:100D6800736C741ED8B0742A735071267450722232
:100D780067506810D8B4C3EF06F0C5EF06F0D4EF9B
:100D880006F070A2CAEF06F0CCEF06F0D4EF06F03A
:100D980067C0D9FF68C0DAFF65C0DEFF66C0DDFF47
:100DA80075C001F076C002F077C003F078C004F097
:100DB800000E01EC41F001C075F002C076F003C0EE
:100DC80077F004C078F075C001F076C002F077C003
:100DD80003F078C004F0000E056E000E066E000EDB
:100DE800076E000E086E0EEC59F0D8A0FEEF06F064
:100DF80000EF07F00AEF07F0000E656E000E666E52
:100E0800000E676E000E686E54EF08F072BE11EFA8
:100E180007F00FEF07F09FEF07F0716C721ED8B064
:100E2800722A35EF07F075C00FF076C010F077C062
:100E380011F078C012F0F90E136E020E146E150E32
:100E4800156E500E166E6AEC30F00FC075F010C0BB
:100E580076F011C077F012C078F0F60E7126FF0E0A
:100E6800722272BE43EF07F0725007E10A0E715CFE
:100E7800D8B041EF07F043EF07F017EF07F062EF44
:100E880007F075C00FF076C010F077C011F078C089
:100E980012F0000E136E000E146E200E156E410E29
:100EA800166E6AEC30F00FC075F010C076F011C005
:100EB80077F012C078F07106D8A0720671507210DF
:100EC800D8A469EF07F06BEF07F045EF07F075C09E
:100ED80059F076C05AF077C05BF078C05CF0000E2D
:100EE8005D6E000E5E6E800E5F6E000E606E28EC0A
:100EF8004FF0D8B082EF07F084EF07F033EF08F037
:100F080070A089EF07F08BEF07F095EF07F0000E60
:100F1800656E000E666E800E676E800E686E54EF0A
:100F280008F0000E656E000E666E800E676E000E8D
:100F3800686E54EF08F072BEAAEF07F0725008E12D
:100F48007104D8A0AAEF07F0ACEF07F033EF08F070
:100F5800CCEF07F075C040F076C041F077C042F0A2
:100F680078C043F0F90E446E020E456E150E466EBB
:100F7800500E476E87EC2CF040C075F041C076F0FB
:100F880042C077F043C078F0F60E7126FF0E722249
:100F9800725007E10A0E715CD8B0D5EF07F0D7EFB1
:100FA80007F0AEEF07F0F6EF07F075C040F076C037
:100FB80041F077C042F078C043F0000E446E000E56
:100FC800456E200E466E410E476E87EC2CF040C0F1
:100FD80075F041C076F042C077F043C078F07106F2
:100FE800D8A0720671507210D8A4FDEF07F0FFEF79
:100FF80007F0D9EF07F0FF0E596EFF0E5A6E7F0EFD
:101008005B6E7F0E5C6E75C05DF076C05EF077C07B
:101018005FF078C060F028EC4FF0D8B016EF08F019
:1010280018EF08F033EF08F070A01DEF08F01FEF7D
:1010380008F029EF08F0000E656E000E666E800E4F
:10104800676E800E686E54EF08F0000E656E000E35
:10105800666E800E676E000E686E54EF08F070A022
:1010680038EF08F03AEF08F04CEF08F075C001F0DF
:1010780076C002F077C003F078C004F0A6EC65F003
:1010880001C075F002C076F003C077F004C078F0B4
:1010980075C065F076C066F077C067F078C068F014
:1010A8001200000E0201606F000E5F6F41C271F204
:1010B80042C272F243C273F244C274F274BF69EF5F
:1010C80008F067EF08F07FEF08F0000E606F010E80
:1010D8005F6F71C200F272C201F273C202F274C28F
:1010E80003F216EC65F000C271F201C272F202C29C
:1010F80073F203C274F2000E0201786F000E776F6C
:1011080092C163F293C164F25F516011D8A48FEF6A
:1011180008F091EF08F099EF08F0010196A597EF14
:1011280008F099EF08F0B4EF08F002015F51601180
:10113800D8A4A1EF08F0A3EF08F0A9EF08F0000E7B
:101148004C6F2B0E4B6FADEF08F0000E4C6F2D0E51
:101158004B6F4BC274F3774B782B6307D8A06407A7
:1011680071C200F272C201F273C202F274C203F2D7
:10117800AAEC4FF0020100050111D8A4C6EF08F04F
:10118800C8EF08F012EF09F0BF0E466FFF0E476F69
:101198004551486F496B46514827475149234951A2
:1011A80007E11A0E485DD8B0DCEF08F0DEEF08F072
:1011B800ECEF08F0740E7725006F030E7821016FAD
:1011C800E20E026FFF0E036F45EC5FF0F8EF08F0D8
:1011D800740E7725006F030E7821016FEA0E026FF7
:1011E800FF0E036F45EC5FF00201FD0E6327FF0E53
:1011F80064233FC212F240C213F2740E0201146F4C
:10120800030E156F63C216F264C217F242EC54F073
:1012180012C23FF213C240F26AEF0EF071C200F23E
:1012280072C201F273C202F274C203F2AAEC4FF066
:10123800020100510111D8A424EF09F026EF09F0AA
:1012480058EF09F0BF0E466FFF0E476F4551486FC4
:10125800496B4651482747514923495107E11A0E1E
:10126800485DD8B03AEF09F03CEF09F04AEF09F0D1
:10127800740E7725006F030E7821016FE60E026F5A
:10128800FF0E036F45EC5FF0F8EF08F0740E77255A
:10129800006F030E7821016FEE0E026FFF0E036FD1
:1012A80045EC5FF0F8EF08F0000E796F000E7A6FEA
:1012B800800E7B6F3F0E7C6F000E766F000E756F91
:1012C80071C200F272C201F273C202F274C203F276
:1012D800000E046F000E056F000E066F000E076FFC
:1012E800B8EC58F00201D8B07CEF09F07EEF09F0B5
:1012F80003EF0AF09DEF09F079C200F27AC201F219
:101308007BC202F27CC203F2000E046F000E056F6E
:10131800200E066F410E076F71EC2AF000C279F2B9
:1013280001C27AF202C27BF203C27CF20201754B5F
:10133800762B71C219F272C21AF273C21BF274C20E
:101348001CF2000E046F000E056F200E066F410E92
:10135800076F79C200F27AC201F27BC202F27CC244
:1013680003F271EC2AF000C21DF201C21EF202C2A1
:101378001FF203C220F222EC4EF00201D8B0C7EFF0
:1013880009F0C9EF09F080EF09F0E9EF09F079C237
:101398000EF27AC20FF27BC210F27CC211F2000E7A
:1013A800126F000E136F200E146F410E156F9CEC18
:1013B8002EF00EC279F20FC27AF210C27BF211C27D
:1013C8007CF202017507D8A0760771C219F272C2C1
:1013D8001AF273C21BF274C21CF279C21DF27AC2ED
:1013E8001EF27BC21FF27CC220F222EC4EF00201F8
:1013F800D8A001EF0AF003EF0AF0CBEF09F045C2DD
:1014080006F2076B99EC62F002010651666F66C23C
:1014180065F2670E6619D8A414EF0AF016EF0AF001
:101428003EEF0AF0010194519511D8A41EEF0AF07D
:1014380020EF0AF024EF0AF0000E956F010E946F6A
:1014480095BF31EF0AF0955106E19405D8B02FEF1A
:101458000AF031EF0AF038EF0AF0000E0201626F6D
:10146800060E616F48EF0AF094C161F295C162F20D
:1014780048EF0AF0010195BF44EF0AF046EF0AF081
:1014880031EF0AF038EF0AF0670E02016619D8A4A6
:1014980050EF0AF052EF0AF081EF0AF076AF60EFF2
:1014A8000AF0FC0E755DFF0E7659D8A05EEF0AF0C3
:1014B80060EF0AF07FEF0AF0FF0E466FFF0E476FEE
:1014C80061C248F262C249F246514827475149234E
:1014D8007551485D4951800A4A6F7651800A4A59C8
:1014E800D8A079EF0AF07BEF0AF07FEF0AF0660EDA
:1014F800656F81EF0AF0650E656F61C257F262C2CF
:1015080058F2670E6619D8A48CEF0AF08EEF0AF02D
:101518009EEF0AF0660E6519D8A495EF0AF097EFCA
:101528000AF0A0EF0AF076BF9EEF0AF09CEF0AF0EF
:10153800A0EF0AF0574B582B660E6519D8A4A7EFF1
:101548000AF0A9EF0AF0C9EF0AF076BFB0EF0AF087
:10155800AEEF0AF0BCEF0AF0000E796F000E7A6F5A
:10156800800E7B6F3F0E7C6F000E766F000E756FDE
:10157800670E6619D8B4C3EF0AF0C5EF0AF0C9EFD1
:101588000AF07551572776515823000E706F000ED8
:101598006F6F71C267F272C268F273C269F274C285
:1015A8006AF279C259F27AC25AF27BC25BF27CC201
:1015B8005CF25BEF0BF067C20EF268C20FF269C211
:1015C80010F26AC211F279C212F27AC213F27BC225
:1015D80014F27CC215F29CEC2EF00EC227F20FC258
:1015E80028F210C229F211C22AF242EC3CF027C2BA
:1015F8006BF228C26CF229C26DF22AC26EF26BC27B
:1016080000F26CC201F26DC202F26EC203F29EECED
:101618004DF000C25DF201C25EF267C237F268C2E5
:1016280038F269C239F26AC23AF279C204F27AC26D
:1016380005F27BC206F27CC207F26BC200F26CC2F2
:1016480001F26DC202F26EC203F271EC2AF000C21E
:101658003BF201C23CF202C23DF203C23EF2BDECD3
:1016680062F037C267F238C268F239C269F23AC228
:101678006AF279C20EF27AC20FF27BC210F27CC211
:1016880011F2000E0201126F000E136F200E146F7C
:10169800410E156F9CEC2EF00EC279F20FC27AF251
:1016A80010C27BF211C27CF202016F4B702B5751B2
:1016B8006F5D7051800A466F5851800A4659D8A00C
:1016C80068EF0BF06AEF0BF0DFEF0AF079C200F277
:1016D8007AC201F27BC202F27CC203F2000E046FEE
:1016E800000E056FA00E066F400E076F71EC2AF012
:1016F80000C26BF201C26CF202C26DF203C26EF25A
:1017080067C219F268C21AF269C21BF26AC21CF2F5
:101718006BC21DF26CC21EF26DC21FF26EC220F2C5
:1017280022EC4EF00201D8B09CEF0BF09EEF0BF0CC
:10173800A8EF0BF0000E6B6F000E6C6F000E6D6F54
:10174800000E6E6FD1EF0BF067C200F268C201F2B3
:1017580069C202F26AC203F26BC204F26CC205F2F9
:101768006DC206F26EC207F2B8EC58F00201D8A0BA
:10177800C0EF0BF0C2EF0BF0D1EF0BF05DB1C7EF8C
:101788000BF0C9EF0BF0D1EF0BF0000E6B6F000EF2
:101798006C6F000E6D6F000E6E6F71C227F272C211
:1017A80028F273C229F274C22AF26BC22BF26CC2FD
:1017B8002CF26DC22DF26EC22EF2B0EC25F027C2CB
:1017C80067F228C268F229C269F22AC26AF267C2BD
:1017D80019F268C21AF269C21BF26AC21CF2000E40
:1017E8000201046F000E056F200E066F410E076F91
:1017F80059C200F25AC201F25BC202F25CC203F2A1
:1018080071EC2AF000C21DF201C21EF202C21FF2E0
:1018180003C220F222EC4EF00201D8A016EF0CF021
:1018280018EF0CF040EF0CF0754B762B59C200F214
:101838005AC201F25BC202F25CC203F2000E046FEC
:10184800000E056F200E066F410E076F71EC2AF02F
:1018580000C259F201C25AF202C25BF203C25CF240
:10186800660E02016519D8A43CEF0CF03EEF0CF0AF
:1018780040EF0CF0574B582B59C279F25AC27AF202
:101888005BC27BF25CC27CF2650E6519D8B44FEF7F
:101898000CF051EF0CF057EF0CF075C255F276C210
:1018A80056F25BEF0CF0000E566F000E556F000EEF
:1018B800546F000E536F000E526F000E516F000EE2
:1018C800706F000E6F6F59EF0DF067C20EF268C2AD
:1018D8000FF269C210F26AC211F279C212F27AC228
:1018E80013F27BC214F27CC215F29CEC2EF00EC2ED
:1018F80027F20FC228F210C229F211C22AF242ECD2
:101908003CF027C26BF228C26CF229C26DF22AC2DF
:101918006EF26BC200F26CC201F26DC202F26EC2CC
:1019280003F29EEC4DF000C25DF201C25EF20101CD
:1019380096B9A1EF0CF0A3EF0CF0C1EF0CF0020187
:101948005D515E11D8A4ABEF0CF0ADEF0CF0C1EF18
:101958000CF0670E6619D8A4B4EF0CF0B6EF0CF0D3
:10196800C1EF0CF056BFBDEF0CF0BBEF0CF0C1EFB0
:101978000CF0514B522B0CEF0DF002015351541146
:10198800D8A4C9EF0CF0CBEF0CF0F5EF0CF056BF74
:10199800D2EF0CF0D0EF0CF0F5EF0CF0740E7725C9
:1019A800D96E030E7821DA6E2E0EDF6E774B782B08
:1019B8006307D8A06407000E546F010E536FF5EF4C
:1019C8000CF0740E7725D96E030E7821DA6E300E7E
:1019D800DF6E774B782B6307D8A064075107D8A030
:1019E800520751515211D8A4FCEF0CF0FEEF0CF045
:1019F800E5EF0CF0740E7725D96E030E7821DA6EB8
:101A08005D51300FDF6E774B782B6307D8A06407E2
:101A180067C237F268C238F269C239F26AC23AF26A
:101A280079C204F27AC205F27BC206F27CC207F2DE
:101A38006BC200F26CC201F26DC202F26EC203F216
:101A480071EC2AF000C23BF201C23CF202C23DF244
:101A580003C23EF2BDEC62F037C267F238C268F2E8
:101A680039C269F23AC26AF279C20EF27AC20FF248
:101A78007BC210F27CC211F2000E0201126F000E3E
:101A8800136F200E146F410E156F9CEC2EF00EC2D2
:101A980079F20FC27AF210C27BF211C27CF2020113
:101AA8005507D8A056076F4B702B57516F5D705173
:101AB800800A466F5851800A4659D8B066EF0DF033
:101AC80068EF0DF076EF0DF078BF74EF0DF07851F8
:101AD80009E14B0E775DD8A074EF0DF076EF0DF0AD
:101AE80069EF0CF053515411D8A47DEF0DF07FEF3E
:101AF8000DF092EF0DF0010196A985EF0DF087EF3B
:101B08000DF092EF0DF0740E02017725D96E030ED9
:101B18007821DA6E2E0EDF6E774B782B740E020169
:101B28007725D96E030E7821DA6E000EDF6E650E0A
:101B38006519D8A4A2EF0DF0A4EF0DF0FDEF08F0A1
:101B4800000E706F4F0E6F6F740E6F25D96E030EF7
:101B58007021DA6E000EDF6E000E606F000E5F6F90
:101B680076BFBBEF0DF0B9EF0DF0C3EF0DF0000E2F
:101B7800606F010E5F6F756D761FD8B0762B000E03
:101B8800626F020E616FF5EF0DF06F07D8A0700756
:101B9800740E6F25D96E030E7021DA6E75C200F2CD
:101BA80076C201F2000E036F0A0E026FAEEC57F018
:101BB80002010051300FDF6E75C200F276C201F2E9
:101BC800000E036F0A0E026F73EC55F000C275F237
:101BD80001C276F202016107D8A062076307D8A0A4
:101BE800640775517611D8A4FCEF0DF0FEEF0DF0E7
:101BF800C9EF0DF062BF0BEF0EF0625106E161050F
:101C0800D8B009EF0EF00BEF0EF0C9EF0DF06F072B
:101C1800D8A070075F516011D8A415EF0EF017EF28
:101C28000EF01DEF0EF0000E4E6F2B0E4D6F21EFD4
:101C38000EF0000E4E6F2D0E4D6F740E6F25D96E7F
:101C4800030E7021DA6E4DC2DFFF6307D8A0640768
:101C58006F07D8A07007BF0E466FFF0E476F45513C
:101C6800486F496B4651482747514923495109E173
:101C78001A0E485DD8A043EF0EF045EF0EF04BEF7B
:101C88000EF0000E506F650E4F6F4FEF0EF0000E06
:101C9800506F450E4F6F740E6F25D96E030E70216D
:101CA800DA6E4FC2DFFF6307D8A06407740E77258A
:101CB800006F030E7821016F740E6F25026F030EFB
:101CC8007021036F45EC5FF0FDEF08F01200000E85
:101CD8000001956F000E946F67C0A6F068C0A7F06A
:101CE80069C0A8F06AC0A9F0A9BF7FEF0EF07DEF28
:101CF8000EF095EF0EF0000E956F010E946FA6C0D2
:101D080001F0A7C002F0A8C003F0A9C004F0A6EC37
:101D180065F001C0A6F002C0A7F003C0A8F004C097
:101D2800A9F0000E0001AD6F000EAC6F92C198F0E3
:101D380093C199F094519511D8A4A5EF0EF0A7EF8F
:101D48000EF0AFEF0EF0010196A5ADEF0EF0AFEF7C
:101D58000EF0CAEF0EF0000194519511D8A4B7EF18
:101D68000EF0B9EF0EF0BFEF0EF0000E816F2B0EE4
:101D7800806FC3EF0EF0000E816F2D0E806F80C054
:101D880074F3AC4BAD2B9807D8A09907A6C001F007
:101D9800A7C002F0A8C003F0A9C004F0A9EC50F055
:101DA80001040210D8A4DBEF0EF0DDEF0EF028EFEF
:101DB8000FF0BF0E6C6EFF0E6D6E6B506E6E6F6A1D
:101DC8006C506E266D506F226F5007E11A0E6E5CD4
:101DD800D8B0F1EF0EF0F3EF0EF002EF0FF0740E43
:101DE8000001AC25016E030EAD21026EE20E036EFA
:101DF800FF0E046E05EC60F00FEF0FF0740E00019B
:101E0800AC25016E030EAD21026EEA0E036EFF0EC5
:101E1800046E05EC60F00001FD0E9827FF0E992373
:101E280065C013F066C014F0740E156E030E166EBE
:101E380098C017F099C018F0D6EC55F013C065F0AB
:101E480014C066F07CEF14F0A6C001F0A7C002F041
:101E5800A8C003F0A9C004F0A9EC50F0015002108A
:101E6800D8A439EF0FF03BEF0FF06FEF0FF0BF0E74
:101E78006C6EFF0E6D6E6B506E6E6F6A6C506E26D8
:101E88006D506F226F5007E11A0E6E5CD8B04FEF9D
:101E98000FF051EF0FF060EF0FF0740E0001AC255A
:101EA800016E030EAD21026EE60E036EFF0E046E88
:101EB80005EC60F00FEF0FF0740E0001AC25016E19
:101EC800030EAD21026EEE0E036EFF0E046E05ECDE
:101ED80060F00FEF0FF0000E0001AE6F000EAF6F55
:101EE800800EB06F3F0EB16F000EAB6F000EAA6F81
:101EF800A6C001F0A7C002F0A8C003F0A9C004F072
:101F0800000E056E000E066E000E076E000E086EBF
:101F18000EEC59F0D8B093EF0FF095EF0FF018EFE3
:101F280010F0B4EF0FF0AEC040F0AFC041F0B0C059
:101F380042F0B1C043F0000E446E000E456E200E14
:101F4800466E410E476E87EC2CF040C0AEF041C0A3
:101F5800AFF042C0B0F043C0B1F00001AA4BAB2BC8
:101F6800A6C059F0A7C05AF0A8C05BF0A9C05CF0A1
:101F7800000E446E000E456E200E466E410E476EF2
:101F8800AEC040F0AFC041F0B0C042F0B1C043F0C5
:101F980087EC2CF040C05DF041C05EF042C05FF0BD
:101FA80043C060F028EC4FF0D8B0DDEF0FF0DFEF62
:101FB8000FF097EF0FF0FFEF0FF0AEC00FF0AFC0CC
:101FC80010F0B0C011F0B1C012F0000E136E000E88
:101FD800146E200E156E410E166E6AEC30F00FC0AE
:101FE800AEF010C0AFF011C0B0F012C0B1F00001F7
:101FF800AA07D8A0AB07A6C059F0A7C05AF0A8C036
:102008005BF0A9C05CF0AEC05DF0AFC05EF0B0C0E0
:102018005FF0B1C060F028EC4FF0D8A016EF10F0D8
:1020280018EF10F0E1EF0FF06BC003F0046A4BEC0F
:1020380063F0035000019B6F9BC09AF0670E9B19D9
:10204800D8A429EF10F02BEF10F053EF10F0010196
:1020580094519511D8A433EF10F035EF10F039EF03
:1020680010F0000E956F010E946F95BF46EF10F0BB
:10207800955106E19405D8B044EF10F046EF10F002
:102088004DEF10F0000E0001976F060E966F5DEF92
:1020980010F094C196F095C197F05DEF10F0010132
:1020A80095BF59EF10F05BEF10F046EF10F04DEFD1
:1020B80010F0670E00019B19D8A465EF10F067EFC8
:1020C80010F096EF10F0ABAF75EF10F0FC0EAA5DB4
:1020D800FF0EAB59D8A073EF10F075EF10F094EF26
:1020E80010F0FF0E6C6EFF0E6D6E96C06EF097C00E
:1020F8006FF06C506E266D506F22AA516E5C6F5057
:10210800800A706EAB51800A7058D8A08EEF10F01C
:1021180090EF10F094EF10F0660E9A6F96EF10F0B3
:10212800650E9A6F96C08CF097C08DF0670E9B195C
:10213800D8A4A1EF10F0A3EF10F0B3EF10F0660EE3
:102148009A19D8A4AAEF10F0ACEF10F0B5EF10F080
:10215800ABBFB3EF10F0B1EF10F0B5EF10F08C4B50
:102168008D2B660E9A19D8A4BCEF10F0BEEF10F0B4
:10217800DEEF10F0ABBFC5EF10F0C3EF10F0D1EFFA
:1021880010F0000EAE6F000EAF6F800EB06F3F0EF6
:10219800B16F000EAB6F000EAA6F670E9B19D8B413
:1021A800D8EF10F0DAEF10F0DEEF10F0AA518C271C
:1021B800AB518D23000EA56F000EA46FA6C09CF036
:1021C800A7C09DF0A8C09EF0A9C09FF0AEC08EF039
:1021D800AFC08FF0B0C090F0B1C091F06FEF11F0C8
:1021E8009CC00FF09DC010F09EC011F09FC012F06F
:1021F800AEC013F0AFC014F0B0C015F0B1C016F007
:102208006AEC30F00FC028F010C029F011C02AF095
:1022180012C02BF04DEC3DF028C0A0F029C0A1F071
:102228002AC0A2F02BC0A3F0A0C059F0A1C05AF058
:10223800A2C05BF0A3C05CF0A5EC4EF059C092F0D0
:102248005AC093F09CC038F09DC039F09EC03AF057
:102258009FC03BF0AEC044F0AFC045F0B0C046F000
:10226800B1C047F0A0C040F0A1C041F0A2C042F008
:10227800A3C043F087EC2CF040C03CF041C03DF0D7
:1022880042C03EF043C03FF06EEC63F038C09CF0B3
:1022980039C09DF03AC09EF03BC09FF0AEC00FF031
:1022A800AFC010F0B0C011F0B1C012F0000E136E44
:1022B800000E146E200E156E410E166E6AEC30F08C
:1022C8000FC0AEF010C0AFF011C0B0F012C0B1F046
:1022D8000001A44BA52B8C51A45DA551800A6C6EFE
:1022E8008D51800A6C58D8A07CEF11F07EEF11F068
:1022F800F4EF10F0AEC040F0AFC041F0B0C042F013
:10230800B1C043F0000E446E000E456EA00E466E3E
:10231800400E476E87EC2CF040C0A0F041C0A1F001
:1023280042C0A2F043C0A3F09CC059F09DC05AF02F
:102338009EC05BF09FC05CF0A0C05DF0A1C05EF0E5
:10234800A2C05FF0A3C060F028EC4FF0D8B0AFEFA8
:1023580011F0B1EF11F0BCEF11F0000E0001A06F09
:10236800000EA16F000EA26F000EA36FE5EF11F033
:102378009CC001F09DC002F09EC003F09FC004F015
:10238800A0C005F0A1C006F0A2C007F0A3C008F0E5
:102398000EEC59F0D8A0D3EF11F0D5EF11F0E5EF1E
:1023A80011F0000192B1DBEF11F0DDEF11F0E5EF74
:1023B80011F0000EA06F000EA16F000EA26F000EAC
:1023C800A36FA6C028F0A7C029F0A8C02AF0A9C00A
:1023D8002BF0A0C02CF0A1C02DF0A2C02EF0A3C0FD
:1023E8002FF011EC28F028C09CF029C09DF02AC0DD
:1023F8009EF02BC09FF09CC059F09DC05AF09EC023
:102408005BF09FC05CF0000E446E000E456E200E1F
:10241800466E410E476E8EC040F08FC041F090C0AE
:1024280042F091C043F087EC2CF040C05DF041C011
:102438005EF042C05FF043C060F028EC4FF0D8A0D7
:1024480028EF12F02AEF12F053EF12F00001AA4B16
:10245800AB2B8EC040F08FC041F090C042F091C0CD
:1024680043F0000E446E000E456E200E466E410E7F
:10247800476E87EC2CF040C08EF041C08FF042C010
:1024880090F043C091F0660E00019A19D8A44FEF5E
:1024980012F051EF12F053EF12F08C4B8D2B8EC0CF
:1024A800AEF08FC0AFF090C0B0F091C0B1F0650E43
:1024B80000019A19D8B463EF12F065EF12F06BEFD0
:1024C80012F0AAC08AF0ABC08BF06FEF12F0000ECA
:1024D8008B6F000E8A6F000E896F000E886F000EDA
:1024E800876F000E866F000EA56F000EA46F6CEF4D
:1024F80013F09CC00FF09DC010F09EC011F09FC05B
:1025080012F0AEC013F0AFC014F0B0C015F0B1C0F7
:1025180016F06AEC30F00FC028F010C029F011C096
:102528002AF012C02BF04DEC3DF028C0A0F029C0D5
:10253800A1F02AC0A2F02BC0A3F0A0C059F0A1C0FE
:102548005AF0A2C05BF0A3C05CF0A5EC4EF059C0F5
:1025580092F05AC093F0010196B9B5EF12F0B7EFB7
:1025680012F0D5EF12F0000192519311D8A4BFEFE9
:1025780012F0C1EF12F0D5EF12F0670E9B19D8A434
:10258800C8EF12F0CAEF12F0D5EF12F08BBFD1EFFF
:1025980012F0CFEF12F0D5EF12F0864B872B20EF19
:1025A80013F0000188518911D8A4DDEF12F0DFEF94
:1025B80012F009EF13F08BBFE6EF12F0E4EF12F020
:1025C80009EF13F0740EAC25D96E030EAD21DA6E47
:1025D8002E0EDF6EAC4BAD2B9807D8A09907000ED6
:1025E800896F010E886F09EF13F0740EAC25D96E50
:1025F800030EAD21DA6E300EDF6EAC4BAD2B9807B3
:10260800D8A099078607D8A0870786518711D8A42C
:1026180010EF13F012EF13F0F9EF12F0740EAC256F
:10262800D96E030EAD21DA6E9251300FDF6EAC4BCE
:10263800AD2B9807D8A099079CC038F09DC039F0F9
:102648009EC03AF09FC03BF0AEC044F0AFC045F02A
:10265800B0C046F0B1C047F0A0C040F0A1C041F002
:10266800A2C042F0A3C043F087EC2CF040C03CF07D
:1026780041C03DF042C03EF043C03FF06EEC63F015
:1026880038C09CF039C09DF03AC09EF03BC09FF026
:10269800AEC00FF0AFC010F0B0C011F0B1C012F072
:1026A800000E136E000E146E200E156E410E166E7F
:1026B8006AEC30F00FC0AEF010C0AFF011C0B0F04F
:1026C80012C0B1F000018A07D8A08B07A44BA52B34
:1026D8008C51A45DA551800A6C6E8D51800A6C588E
:1026E800D8B079EF13F07BEF13F089EF13F0ADBF9B
:1026F80087EF13F0AD5109E14B0EAC5DD8A087EF21
:1027080013F089EF13F07DEF12F088518911D8A4E6
:1027180090EF13F092EF13F0A5EF13F0010196A9D3
:1027280098EF13F09AEF13F0A5EF13F0740E000171
:10273800AC25D96E030EAD21DA6E2E0EDF6EAC4BD2
:10274800AD2B740E0001AC25D96E030EAD21DA6EE7
:10275800000EDF6E650E9A19D8A4B5EF13F0B7EF27
:1027680013F014EF0FF0000EA56F4F0EA46F740E48
:10277800A425D96E030EA521DA6E000EDF6E000EB9
:10278800956F000E946FABBFCEEF13F0CCEF13F044
:10279800D6EF13F0000E956F010E946FAA6DAB1F64
:1027A800D8B0AB2B000E976F020E966F07EF14F0A0
:1027B800A407D8A0A507740EA425D96E030EA521D9
:1027C800DA6EAAC001F0ABC002F0000E046E0A0E69
:1027D800036E60EC58F00150300FDF6EAAC001F0B4
:1027E800ABC002F0000E046E0A0E036E39EC56F010
:1027F80001C0AAF002C0ABF000019607D8A0970765
:102808009807D8A09907AA51AB11D8A40EEF14F0D5
:1028180010EF14F0DCEF13F097BF1DEF14F0975191
:1028280006E19605D8B01BEF14F01DEF14F0DCEFAD
:1028380013F0A407D8A0A50794519511D8A427EFA1
:1028480014F029EF14F02FEF14F0000E836F2B0E05
:10285800826F33EF14F0000E836F2D0E826F740EAB
:10286800A425D96E030EA521DA6E82C0DFFF980772
:10287800D8A09907A407D8A0A507BF0E6C6EFF0EB5
:102888006D6E6B506E6E6F6A6C506E266D506F2257
:102898006F5009E11A0E6E5CD8A055EF14F057EF8F
:1028A80014F05DEF14F0000E856F650E846F61EF14
:1028B80014F0000E856F450E846F740EA425D96E32
:1028C800030EA521DA6E84C0DFFF9807D8A0990708
:1028D800740EAC25016E030EAD21026E740EA42594
:1028E800036E030EA521046E05EC60F014EF0FF0E3
:1028F8001200D3CF84F09BCF85F022EEB5F010EE16
:102908008AF00F0EDBCFE3FFE806FCE290EF14F04D
:10291800350EE82EFED700F0D3A495EF14F097EF0C
:1029280014F08CEF14F0100E75EC5FF0D00E636E9F
:10293800CA0EE82EFED7632EFCD78D849694000E1F
:1029480000019A6FFF0ED4EC68F000019A2B090E73
:102958009A65B1EF14F0B3EF14F0A6EF14F08D946C
:10296800000E046E000E056E000E066E000E076E59
:10297800000E09EC5AF0E806D8A4C5EF14F0C7EF2A
:1029880014F0B4EF14F0AA0E046E010E056E000EDA
:10299800066E000E076E080E09EC5AF00001A46FCF
:1029A8008D94000E9C6F8A0E9C25D96EDA6A000EF3
:1029B800DA22EBEC68F0DF6E00019C2B030E9C65BD
:1029C800E8EF14F0EAEF14F0D7EF14F08D84A4A523
:1029D800F0EF14F0F2EF14F022EF15F0010E010100
:1029E8005F6F000E046E000E056E000E066E000E80
:1029F800076E3A0E09EC5AF08D94000E00019D6F97
:102A08008A0E9D25D96EDA6A000EDA22EBEC68F0A0
:102A1800DF6E00019D2B030E9D6515EF15F017EF76
:102A280015F004EF15F08D848C05D8B41EEF15F061
:102A380020EF15F03EEF15F08FEF18F0A405D8A49D
:102A480028EF15F02AEF15F0C7EF14F08C05D8A47D
:102A580030EF15F032EF15F08FEF18F0AA0E8D1940
:102A6800D8A439EF15F03BEF15F08FEF18F0020EF0
:102A780001015F6F01015F05D8B445EF15F047EF1D
:102A880015F052EF15F0000E0001806F000E816FF7
:102A9800000E826F400E836F5BEF15F0000E000191
:102AA800806F000E816F000E826F000E836F80C0F2
:102AB8000BF081C00CF082C00DF083C00EF0290E1F
:102AC8005DEC66F00001A46FA451D8B46EEF15F068
:102AD80070EF15F077EF15F0A4A575EF15F077EF07
:102AE80015F05BEF15F0A4A57CEF15F07EEF15F05F
:102AF8009AEF15F001015F05D8A485EF15F087EF6F
:102B080015F096EF15F0020E606F000E046E000EC1
:102B1800056E000E066E000E076E010E09EC5AF0E7
:102B28009AEF15F0000E7B6F8FEF18F0020E01017F
:102B38006019D8B4A2EF15F0A4EF15F0D3EF15F093
:102B4800000E046E000E056E000E066E000E076E77
:102B58003A0E09EC5AF08D94EBEC68F0C00BC00A01
:102B6800D8A4B9EF15F0BBEF15F0C0EF15F0010EC2
:102B78000101606FC3EF15F0000E0101606F000ED8
:102B880000019B6FEBEC68F000019B2B020E9B652C
:102B9800D0EF15F0D2EF15F0C6EF15F08D84000ECA
:102BA800046E020E056E000E066E000E076E100E05
:102BB80009EC5AF00009D8A4E4EF15F0E6EF15F097
:102BC800D3EF15F0020E0101726F000E716F000E47
:102BD800046E000E056E000E066E000E076E090EDE
:102BE80009EC5AF08D94EBEC68F0FE0AD8A4FFEFDC
:102BF80015F001EF16F0F7EF15F0000E00019E6FCB
:102C08000F0E9E650AEF16F00CEF16F00EEF16F099
:102C18001BEF16F08A0E9E25D96EDA6A000EDA22AC
:102C2800EBEC68F0DF6E00019E2B04EF16F0EBEC86
:102C380068F0EBEC68F08D84020E01015F19D8A4EE
:102C480028EF16F02AEF16F0ADEF16F0010E00018E
:102C58009325866F876B000E8723886B000E882369
:102C6800896B000E89239251646E636A63C065F0B4
:102C780064C066F0000E66BEFF0E676E686E655033
:102C8800861366508713675088136850891391C05C
:102C980063F03F0E631663C064F0656A666A676A2C
:102CA80065C067F064C066F0656A646A645086133C
:102CB80065508713665088136750891386C001F0E2
:102CC80087C002F088C003F089C004F0000E01EC50
:102CD80041F001C040F002C041F003C042F004C01E
:102CE80043F0BD0E446E370E456E060E466E3F0E1F
:102CF800476E87EC2CF040C077F141C078F142C0B4
:102D080079F143C07AF1000E446E000E456E000E54
:102D1800466E450E476E77C140F078C141F079C1E3
:102D280042F07AC143F087EC2CF040C059F041C022
:102D38005AF042C05BF043C05CF0A5EC4EF059C0BD
:102D480073F15AC074F15BC075F15CC076F185EF20
:102D580017F090C063F0030E631663C064F0656AF1
:102D6800666A676A040ED8906436653666366736D2
:102D7800E82EB7EF16F064C0A0F065C0A1F066C0F9
:102D8800A2F067C0A3F000019151636E646AD89005
:102D980063366436D8906336643663C065F064C0C1
:102DA80066F0000E66BEFF0E676E686E6550A01373
:102DB8006650A1136750A2136850A31392C063F022
:102DC800D8906332D8906332300E6316010E6324B4
:102DD800646E656A000E6522666A000E6622676A7E
:102DE800000E67226450A0136550A1136650A21309
:102DF8006750A31393C063F0030E6316646A94AF1D
:102E080001D0642A64306334656E020E6526A0C062
:102E180066F0A1C067F0A2C068F0A3C069F0652A97
:102E28001BEF17F0D8906636673668366936652E18
:102E380016EF17F066C0A0F067C0A1F068C0A2F056
:102E480069C0A3F08FC063F00F0E6316A0C064F0D2
:102E5800A1C065F0A2C066F0A3C067F0632A3AEF8C
:102E680017F0D8906436653666366736632E35EFC8
:102E780017F064C0A0F065C0A1F066C0A2F067C0FA
:102E8800A3F0A0C001F0A1C002F0A2C003F0A3C04B
:102E980004F0000E01EC41F001C077F102C078F1B6
:102EA80003C079F104C07AF171C101F072C102F076
:102EB800036A046A000E01EC41F001C013F002C07D
:102EC80014F003C015F004C016F077C10FF078C1F4
:102ED80010F079C111F07AC112F06AEC30F00FC02D
:102EE80059F010C05AF011C05BF012C05CF0A5ECAC
:102EF8004EF059C073F15AC074F15BC075F15CC0F3
:102F080076F1000E046E000E056E000E066E000EC1
:102F1800076E0A0E09EC5AF08D94EBEC68F000018C
:102F2800A46FFE0EA419D8A49CEF17F09EEF17F01B
:102F380091EF17F0000E9F6F0F0E9F65A6EF17F029
:102F4800A8EF17F0AAEF17F0B7EF17F08A0E9F2532
:102F5800D96EDA6A000EDA22EBEC68F0DF6E000157
:102F68009F2BA0EF17F0EBEC68F0EBEC68F08D848A
:102F78008AC061F100018B51636E8C510101626F4F
:102F880063C063F18DC068F18EC063F0646A656ADE
:102F9800666A63C066F0656A646A636A63C064F1FE
:102FA80064C065F165C066F166C067F18FC063F003
:102FB800646A656A666A64C066F063C065F0646ADC
:102FC800636A6350641364506513655066136650F2
:102FD800671390C063F0646A656A666A65C066F0E4
:102FE80064C065F063C064F0636A6350641364503E
:102FF800651365506613665067130001915101010E
:10300800641392C069F193C063F0646A656A666A82
:1030180063C066F0656A646A636A63C06AF164C023
:103028006BF165C06CF166C06DF194C063F0646AC1
:10303800656A666A64C066F063C065F0646A636A5C
:1030480063506A1364506B1365506C1366506D13AC
:1030580095C063F0646A656A666A65C066F064C0B4
:1030680065F063C064F0636A63506A1364506B135D
:1030780065506C1366506D130001965101016A1377
:10308800000197510F0B636E985101016E6F63C079
:103098006FF100019951FE0B0101706F8D84C69A82
:1030A80084C0D3FF85C09BFF5EEF18F0350EE82E75
:1030B800FED700F0D3A463EF18F065EF18F05AEFCD
:1030C80018F0100E75EC5FF0010E0101846F000E10
:1030D800806F000E816F000E826F000E836F000EEE
:1030E8007C6F000E7D6F000E7E6F000E7F6F010EED
:1030F8008D6F000E896F000E8A6F000E8B6F000EA9
:103108008C6F000E856F000E866F000E876F000EA5
:10311800886F010E7B6F12007FC2D9FF80C2DAFF71
:10312800DECFF6FFDDCFF7FFF86A0800F550250A75
:10313800D8A4A1EF18F0A3EF18F05AEF1CF07FC243
:10314800D9FF80C2DAFFDE2A000EDD22000E01015F
:10315800936F000E926F92C196F193C197F19469A3
:103168009569000E0301D96F000ED86F08EF19F0AA
:10317800010196817FC2D9FF80C2DAFFDE2A000EE4
:10318800DD2208EF19F001019683BEEF18F0010166
:103198009685BEEF18F001019687BEEF18F0010181
:1031A8009689BEEF18F0000ED96F010ED86F08EFA0
:1031B80019F07FC2D9FF80C2DAFFDECFF6FFDDCF7C
:1031C800F7FFF86A0800F550C46FC56BC551000ACF
:1031D800D8B4F1EF18F0D7EF18F0C451200AD8B4DA
:1031E800CFEF18F0030AD8B4D3EF18F0080AD8B410
:1031F800CBEF18F0060AD8B4BCEF18F01D0AD8B403
:10320800C7EF18F0D7EF18F00301D851D911D8B487
:1032180010EF19F012EF19F0DDEF18F0010196A187
:1032280018EF19F01AEF19F01BEF19F096937FC2F7
:10323800D9FF80C2DAFFDECFF6FFDDCFF7FFF86AED
:103248000800F5502A0AD8A42CEF19F02EEF19F02F
:1032580057EF19F07FC2D9FF80C2DAFFDE2A000ECD
:10326800DD2281C2D9FF82C2DAFFDFCFC4F3020EAA
:10327800DE26DFCFC5F3000EDD22C4C3D9FFC5C3E8
:10328800DAFFDECF92F1DDCF93F193BF50EF19F063
:103298004EEF19F08FEF19F09681926D931FD8B009
:1032A800932B8FEF19F07FC2D9FF80C2DAFFDECFF0
:1032B80007F2DDCF08F256EC3EF007C292F108C2E1
:1032C80093F16EEF19F07FC2D9FF80C2DAFFDE2AD0
:1032D800000EDD22D00E0301C46FFF0EC56F7FC242
:1032E800D9FF80C2DAFFDECFF6FFDDCFF7FFF86A3D
:1032F8000800F550C66FC76BC451C627C551C72310
:10330800C75109E10A0EC65DD8A08DEF19F08FEFFD
:1033180019F067EF19F07FC2D9FF80C2DAFFDECF5C
:10332800F6FFDDCFF7FFF86A0800F5502E0AD8A49B
:10333800A0EF19F0A2EF19F016EF1AF0000E010134
:10334800956F000E946F7FC2D9FF80C2DAFFDE2A24
:10335800000EDD227FC2D9FF80C2DAFFDECFF6FF82
:10336800DDCFF7FFF86A0800F5502A0AD8A4BFEFA6
:1033780019F0C1EF19F0DEEF19F07FC2D9FF80C252
:10338800DAFFDE2A000EDD2281C2D9FF82C2DAFF0F
:10339800DFCFC4F3020EDE26DFCFC5F3000EDD2239
:1033A800C4C3D9FFC5C3DAFFDECF94F1DDCF95F1F1
:1033B80016EF1AF07FC2D9FF80C2DAFFDECF07F21C
:1033C800DDCF08F256EC3EF007C294F108C295F141
:1033D800F5EF19F07FC2D9FF80C2DAFFDE2A000EAE
:1033E800DD22D00E0301C46FFF0EC56F7FC2D9FF67
:1033F80080C2DAFFDECFF6FFDDCFF7FFF86A0800FC
:10340800F550C66FC76BC451C627C551C723C751EE
:1034180009E10A0EC65DD8A014EF1AF016EF1AF0EB
:10342800EEEF19F07FC2D9FF80C2DAFFDECFF6FFD8
:10343800DDCFF7FFF86A0800F5500201066F076B49
:1034480099EC62F0020106510301DE6FDE51D8B437
:1034580030EF1AF032EF1AF072EF1AF07FC2D9FF8C
:1034680080C2DAFFDECFC4F3DDCFC5F3010EC42777
:10347800000EC523C4C3F6FFC5C3F7FFF86A0800EA
:10348800F5500201066F076B99EC62F002010651D4
:103498000301DF6FDF51D8B454EF1AF056EF1AF07A
:1034A80072EF1AF07FC2D9FF80C2DAFFDECFC4F311
:1034B800DDCFC5F3020EC427000EC523C4C3F6FF33
:1034C800C5C3F7FFF86A0800F5500201066F076BDD
:1034D80099EC62F0020106510301E06F7FC2D9FF47
:1034E80080C2DAFFDECFF6FFDDCFF7FFF86A08000B
:1034F800F550640AD8B483EF1AF085EF1AF098EF04
:103508001AF07FC2D9FF80C2DAFFDECFF6FFDDCF27
:10351800F7FFF86A0800F550690AD8A496EF1AF080
:1035280098EF1AF0D8EF1AF07FC2D9FF80C2DAFFFD
:10353800DE2A000EDD2281C2D9FF82C2DAFFDFCF88
:10354800C4F3020EDE26DFCFC5F3000EDD22C4C3AE
:10355800D9FFC5C3DAFFDECFC8F3DDCFC9F3000E4C
:10356800C9BFFF0ECA6FCB6FCC6FCD6FCE6FCF6F59
:103578007DC21DF27EC21EF2C8C31FF2C9C320F26B
:10358800CAC321F2CBC322F2CCC323F2CDC324F2A7
:10359800CEC325F2CFC326F27EEC35F01DC27DF2F4
:1035A8001EC27EF277EF1CF0660EDE19D8A4DFEF9C
:1035B8001AF0E1EF1AF022EF1BF07FC2D9FF80C2A8
:1035C800DAFFDECFF6FFDDCFF7FFF86A0800F5CFA8
:1035D800E1F37FC2D9FF80C2DAFFDE2A000EDD22C6
:1035E80081C2D9FF82C2DAFFDFCFC4F3040EDE2620
:1035F800DFCFC5F3000EDD22C4C3D9FFC5C3DAFF90
:10360800DECFDAF3DECFDBF3DECFDCF3DECFDDF3C4
:103618007DC23FF27EC240F2DAC341F2DBC342F21E
:10362800DCC343F2DDC344F2E1C345F255EC08F0D4
:103638003FC27DF240C27EF277EF1CF0DE0E02013F
:10364800006F030E016FFA0E026FFF0E036F000E7C
:10365800056F020E046F8DEC52F00201005101114A
:10366800D8A439EF1BF03BEF1BF0ACEF1BF07FC287
:10367800D9FF80C2DAFFDECFC4F3DDCFC5F3010E78
:103688000301C427000EC523C4C3F6FFC5C3F7FF53
:10369800F86A0800F5CFE1F3BF0EC46FFF0EC56FDF
:1036A8007FC2D9FF80C2DAFFDECFF6FFDDCFF7FF9A
:1036B800F86A0800F550C66FC76BC451C627C551D4
:1036C800C723C75107E11A0EC65DD8B06EEF1BF0CD
:1036D80070EF1BF08AEF1BF081C2D9FF82C2DAFFBC
:1036E800DFCFC4F3040EDE26DFCFC5F3000EDD22E4
:1036F800C4C3D9FFC5C3DAFFDECFDAF3DECFDBF30D
:10370800DECFDCF3DECFDDF3A2EF1BF081C2D9FF01
:1037180082C2DAFFDFCFC4F3040EDE26DFCFC5F3A3
:10372800000EDD22C4C3D9FFC5C3DAFFDECFDAF34A
:10373800DECFDBF3DECFDCF3DECFDDF3020E7FC2BC
:10374800D9FF80C2DAFFDE26000EDD220CEF1BF067
:103758007FC2D9FF80C2DAFFDECFF6FFDDCFF7FFE9
:10376800F86A0800F550780AD8B4BDEF1BF0BFEF2F
:103778001BF0D2EF1BF07FC2D9FF80C2DAFFDECF89
:10378800F6FFDDCFF7FFF86A0800F550580AD8A40D
:10379800D0EF1BF0D2EF1BF022EF1CF07FC2D9FF55
:1037A80080C2DAFFDECFF6FFDDCFF7FFF86A080048
:1037B800F5CFE1F37FC2D9FF80C2DAFFDE2A000E1F
:1037C800DD2281C2D9FF82C2DAFFDFCFC4F3020E45
:1037D800DE26DFCFC5F3000EDD22C4C3D9FFC5C383
:1037E800DAFFDECFC6F3DDCFC7F3C6C3D0F3C7C356
:1037F800D1F30301D26BD36BD46BD56BD66BD76B7C
:103808007DC21DF27EC21EF2D0C31FF2D1C320F2C8
:10381800D2C321F2D3C322F2D4C323F2D5C324F2F4
:10382800D6C325F2D7C326F2E1C327F26EEC38F0EF
:103838001DC27DF21EC27EF277EF1CF07FC2D9FF57
:1038480080C2DAFFDECFF6FFDDCFF7FFF86A0800A7
:10385800F550250AD8A433EF1CF035EF1CF04DEFD6
:103868001CF07FC2D9FF80C2DAFFDE2A000EDD22FB
:10387800000E036F250E026F7DC204F27EC205F2B0
:10388800A8EC54F0000E02017E6F010E7D6F77EFF9
:103898001CF07FC2D9FF80C2DAFFDE2A000EDD22CB
:1038A800000E7E6F000E7D6F77EF1CF07FC2D9FF90
:1038B80080C2DAFFDECFF6FFDDCFF7FFF86A080037
:1038C800F5500201026F036B7DC204F27EC205F25D
:1038D800A8EC54F07FC2D9FF80C2DAFFDE2A000EBE
:1038E800DD2246EF1CF0120073C0D9FF74C0DAFF66
:1038F800DECFF6FFDDCFF7FFF86A0800F550250A9E
:10390800D8A489EF1CF08BEF1CF036EF20F073C0C1
:10391800D9FF74C0DAFFDE2A000EDD22000E010195
:10392800936F000E926F92C196F193C197F19469CB
:103938009569000E0001C36F000EC26FF0EF1CF016
:103948000101968173C0D9FF74C0DAFFDE2A000E28
:10395800DD22F0EF1CF001019683A6EF1CF00101B7
:103968009685A6EF1CF001019687A6EF1CF00101D1
:103978009689A6EF1CF0000EC36F010EC26FF0EF20
:103988001CF073C0D9FF74C0DAFFDECFF6FFDDCFBD
:10399800F7FFF86A0800F550776E786A7850000AE1
:1039A800D8B4D9EF1CF0BFEF1CF07750200AD8B478
:1039B800B7EF1CF0030AD8B4BBEF1CF0080AD8B460
:1039C800B3EF1CF0060AD8B4A4EF1CF01D0AD8B453
:1039D800AFEF1CF0BFEF1CF00001C251C311D8B407
:1039E800F8EF1CF0FAEF1CF0C5EF1CF0010196A1EE
:1039F80000EF1DF002EF1DF003EF1DF0969373C06A
:103A0800D9FF74C0DAFFDECFF6FFDDCFF7FFF86A23
:103A18000800F5502A0AD8A414EF1DF016EF1DF07F
:103A28003FEF1DF073C0D9FF74C0DAFFDE2A000E25
:103A3800DD2275C0D9FF76C0DAFFDFCF77F0020E3E
:103A4800DE26DFCF78F0000EDD2277C0D9FF78C000
:103A5800DAFFDECF92F1DDCF93F193BF38EF1DF09F
:103A680036EF1DF076EF1DF09681926D931FD8B05A
:103A7800932B76EF1DF073C0D9FF74C0DAFFDECF49
:103A880007F0DDCF08F041EC3FF007C092F108C025
:103A980093F156EF1DF073C0D9FF74C0DAFFDE2A28
:103AA800000EDD22D00E776EFF0E786E73C0D9FF40
:103AB80074C0DAFFDECFF6FFDDCFF7FFF86A080043
:103AC800F550796E7A6A7750792678507A227A504A
:103AD80009E10A0E795CD8A074EF1DF076EF1DF0AD
:103AE8004FEF1DF073C0D9FF74C0DAFFDECFF6FFC9
:103AF800DDCFF7FFF86A0800F5502E0AD8A487EF43
:103B08001DF089EF1DF0FCEF1DF0000E0101956F0F
:103B1800000E946F73C0D9FF74C0DAFFDE2A000E5E
:103B2800DD2273C0D9FF74C0DAFFDECFF6FFDDCF28
:103B3800F7FFF86A0800F5502A0AD8A4A6EF1DF086
:103B4800A8EF1DF0C5EF1DF073C0D9FF74C0DAFFF0
:103B5800DE2A000EDD2275C0D9FF76C0DAFFDFCF7E
:103B680077F0020EDE26DFCF78F0000EDD2277C078
:103B7800D9FF78C0DAFFDECF94F1DDCF95F1FCEF05
:103B88001DF073C0D9FF74C0DAFFDECF07F0DDCFB8
:103B980008F041EC3FF007C094F108C095F1DCEF64
:103BA8001DF073C0D9FF74C0DAFFDE2A000EDD22D3
:103BB800D00E776EFF0E786E73C0D9FF74C0DAFF2F
:103BC800DECFF6FFDDCFF7FFF86A0800F550796E13
:103BD8007A6A7750792678507A227A5009E10A0E63
:103BE800795CD8A0FAEF1DF0FCEF1DF0D5EF1DF0C1
:103BF80073C0D9FF74C0DAFFDECFF6FFDDCFF7FF61
:103C0800F86A0800F550036E046A4BEC63F0035041
:103C18000001C86FC851D8B414EF1EF016EF1EF09B
:103C280052EF1EF073C0D9FF74C0DAFFDECF77F011
:103C3800DDCF78F0010E7726000E782277C0F6FFE8
:103C480078C0F7FFF86A0800F550036E046A4BEC79
:103C580063F003500001C96FC951D8B436EF1EF0A4
:103C680038EF1EF052EF1EF073C0D9FF74C0DAFFB0
:103C7800DECF77F0DDCF78F0020E7726000E7822BF
:103C880077C0F6FF78C0F7FFF86A0800F550036EB2
:103C9800046A4BEC63F003500001CA6F73C0D9FF8C
:103CA80074C0DAFFDECFF6FFDDCFF7FFF86A080051
:103CB800F550640AD8B463EF1EF065EF1EF078EF94
:103CC8001EF073C0D9FF74C0DAFFDECFF6FFDDCF78
:103CD800F7FFF86A0800F550690AD8A476EF1EF0D5
:103CE80078EF1EF0B8EF1EF073C0D9FF74C0DAFF8A
:103CF800DE2A000EDD2275C0D9FF76C0DAFFDFCFDD
:103D080077F0020EDE26DFCF78F0000EDD2277C0D6
:103D1800D9FF78C0DAFFDECFB2F0DDCFB3F0000E06
:103D2800B3BFFF0EB46FB56FB66FB76FB86FB96F2B
:103D380071C01EF072C01FF0B2C020F0B3C021F0F5
:103D4800B4C022F0B5C023F0B6C024F0B7C025F047
:103D5800B8C026F0B9C027F0FCEC36F01EC071F0F0
:103D68001FC072F052EF20F0660EC819D8A4BFEF3A
:103D78001EF0C1EF1EF002EF1FF073C0D9FF74C030
:103D8800DAFFDECFF6FFDDCFF7FFF86A0800F5CFE0
:103D9800CBF073C0D9FF74C0DAFFDE2A000EDD2233
:103DA80075C0D9FF76C0DAFFDFCF77F0040EDE26C4
:103DB800DFCF78F0000EDD2277C0D9FF78C0DAFFB8
:103DC800DECFC4F0DECFC5F0DECFC6F0DECFC7F061
:103DD80071C065F072C066F0C4C067F0C5C068F015
:103DE800C6C069F0C7C06AF0CBC06BF06BEC0EF0D0
:103DF80065C071F066C072F052EF20F0C80E056E13
:103E0800000E066EFA0E076EFF0E086E000E0A6EA2
:103E1800020E096E6BEC53F005500610D8A417EF8C
:103E28001FF019EF1FF089EF1FF073C0D9FF74C09E
:103E3800DAFFDECF77F0DDCF78F0010E7726000EBF
:103E4800782277C0F6FF78C0F7FFF86A0800F5CF48
:103E5800CBF0BF0E776EFF0E786E73C0D9FF74C0BB
:103E6800DAFFDECFF6FFDDCFF7FFF86A0800F5507E
:103E7800796E7A6A7750792678507A227A5007E1F3
:103E88001A0E795CD8B04BEF1FF04DEF1FF067EFBB
:103E98001FF075C0D9FF76C0DAFFDFCF77F0040EC8
:103EA800DE26DFCF78F0000EDD2277C0D9FF78C09C
:103EB800DAFFDECFC4F0DECFC5F0DECFC6F0DECF4E
:103EC800C7F07FEF1FF075C0D9FF76C0DAFFDFCFEC
:103ED80077F0040EDE26DFCF78F0000EDD2277C003
:103EE800D9FF78C0DAFFDECFC4F0DECFC5F0DECF71
:103EF800C6F0DECFC7F0020E73C0D9FF74C0DAFF78
:103F0800DE26000EDD22ECEF1EF073C0D9FF74C070
:103F1800DAFFDECFF6FFDDCFF7FFF86A0800F550CD
:103F2800780AD8B49AEF1FF09CEF1FF0AFEF1FF09C
:103F380073C0D9FF74C0DAFFDECFF6FFDDCFF7FF1D
:103F4800F86A0800F550580AD8A4ADEF1FF0AFEF93
:103F58001FF0FFEF1FF073C0D9FF74C0DAFFDECF88
:103F6800F6FFDDCFF7FFF86A0800F5CFCBF073C096
:103F7800D9FF74C0DAFFDE2A000EDD2275C0D9FF32
:103F880076C0DAFFDFCF77F0020EDE26DFCF78F0DB
:103F9800000EDD2277C0D9FF78C0DAFFDECF79F0D6
:103FA800DDCF7AF079C0BAF07AC0BBF00001BC6B03
:103FB800BD6BBE6BBF6BC06BC16B71C01EF072C0B6
:103FC8001FF0BAC020F0BBC021F0BCC022F0BDC0B9
:103FD80023F0BEC024F0BFC025F0C0C026F0C1C089
:103FE80027F0CBC028F0CAEC39F01EC071F01FC012
:103FF80072F052EF20F073C0D9FF74C0DAFFDECF41
:10400800F6FFDDCFF7FFF86A0800F550250AD8A4B7
:1040180010EF20F012EF20F029EF20F073C0D9FF45
:1040280074C0DAFFDE2A000EDD22000E046E250EB3
:10403800036E71C005F072C006F00EEC55F0000E6C
:10404800726E010E716E52EF20F073C0D9FF74C00A
:10405800DAFFDE2A000EDD22000E726E000E716E8F
:1040680052EF20F073C0D9FF74C0DAFFDECFF6FF3D
:10407800DDCFF7FFF86A0800F550036E046A71C0D7
:1040880005F072C006F00EEC55F073C0D9FF74C08D
:10409800DAFFDE2A000EDD2223EF20F01200F4C042
:1040A80001F0F5C002F0000E046E190E036E2EEC3E
:1040B80067F001C03FF102C040F101013F51006FBC
:1040C8004051016F026B036B00518E5D456F0151CA
:1040D8008F59466F02519059476F03519159486F54
:1040E80090EC68F0010E096E010E13EC5EF0300ED4
:1040F8000001D26F010ED36FDB0ED46FFE0ED56FA9
:1041080086EC61F0300E096E010E0A6E7DEC64F0EB
:10411800010E096E020E13EC5EF0300E0001D26F34
:10412800010ED36FCE0ED46FFE0ED56F86EC61F004
:10413800300E096E010E0A6E7DEC64F0A30E0101CB
:10414800016F570E006F020EE82EFED7002FFCD726
:10415800012FFAD700F07DEC14F0010148BFB9EF48
:1041680020F0B7EF20F0C1EF20F0000E456F000EF1
:10417800466F000E476F000E486F000E416F000E2D
:10418800426F000E436F000E446F0F0E4125D96E2B
:10419800040E4221DA6E000EDF6E010E4127000E7A
:1041A8004223432344234451431109E1020E425D53
:1041B800D8A0E1EF20F0E3EF20F0C9EF20F045C1EF
:1041C8000BF046C10CF047C10DF048C10EF052EC9F
:1041D8005CF0280E0001D26FFE0ED36FE1EC66F0A2
:1041E800380E0001D26FFF0ED36F45C1D4F046C11F
:1041F800D5F047C1D6F048C1D7F001013F51452558
:10420800006F40514621016F000E4721026F000EDA
:104218004821036FFF0E00250001D86FFF0E010132
:1042280001210001D96FFF0E010102210001DA6F9F
:10423800FF0E010103210001DB6FE1EC66F0000EC7
:104248000101416F000E426F000E436F000E446F74
:10425800F7EF22F00F0E046E040E056E54EC57F0C3
:10426800000E01014A6F000E496F340E0001D26F33
:10427800FD0ED36F49C100F14AC101F10101003BB4
:10428800013BF00E011700510F0B0113F00E001740
:104298000F0E0025D96E040E0121DA6EDF50026F71
:1042A80002510001D46FD56B49C103F14AC104F131
:1042B8000101033B043BF00E041703510F0B0413D9
:1042C800F00E0317100E0325D96E040E0421DA6EC2
:1042D800DF50056F05510001D66FD76B49C106F154
:1042E8004AC107F10101063B073BF00E07170651CB
:1042F8000F0B0713F00E0617110E0625D96E040EC4
:104308000721DA6EDF50086F08510001D86FD96BAA
:1043180049C109F14AC10AF10101093B0A3BF00E02
:104328000A1709510F0B0A13F00E0917120E092567
:10433800D96E040E0A21DA6EDF500B6F0B510001A3
:10434800DA6FDB6B49C10CF14AC10DF101010C3B7D
:104358000D3BF00E0D170C510F0B0D13F00E0C1733
:10436800130E0C25D96E040E0D21DA6EDF500E6F78
:104378000E510001DC6FDD6B49C10FF14AC110F12C
:1043880001010F3B103BF00E10170F510F0B1013CC
:10439800F00E0F17140E0F25D96E040E1021DA6EC9
:1043A800DF50116F11510001DE6FDF6B49C112F14F
:1043B8004AC113F10101123B133BF00E13171251BE
:1043C8000F0B1313F00E1217150E1225D96E040ECB
:1043D8001321DA6EDF50146F14510001E06FE16BA6
:1043E80049C115F14AC116F10101153B163BF00E02
:1043F800161715510F0B1613F00E1517160E152557
:10440800D96E040E1621DA6EDF50176F17510001AE
:10441800E26FE36B49C118F14AC119F10101183B78
:10442800193BF00E191718510F0B1913F00E181726
:10443800170E1825D96E040E1921DA6EDF501A6F7F
:104448001A510001E46FE56B49C11BF14AC11CF127
:1044580001011B3B1C3BF00E1C171B510F0B1C13BF
:10446800F00E1B17180E1B25D96E040E1C21DA6ED0
:10447800DF501D6F1D510001E66FE76B49C11EF14A
:104488004AC11FF101011E3B1F3BF00E1F171E51B1
:104498000F0B1F13F00E1E17190E1E25D96E040ED2
:1044A8001F21DA6EDF50206F20510001E86FE96BA1
:1044B80049C121F14AC122F10101213B223BF00E01
:1044C800221721510F0B2213F00E21171A0E212546
:1044D800D96E040E2221DA6EDF50236F23510001BA
:1044E800EA6FEB6B49C124F14AC125F10101243B74
:1044F800253BF00E251724510F0B2513F00E24171A
:104508001B0E2425D96E040E2521DA6EDF50266F86
:1045180026510001EC6FED6B49C127F14AC128F122
:104528000101273B283BF00E281727510F0B2813B2
:10453800F00E27171C0E2725D96E040E2821DA6ED7
:10454800DF50296F29510001EE6FEF6B49C12AF145
:104558004AC12BF101012A3B2B3BF00E2B172A51A4
:104568000F0B2B13F00E2A171D0E2A25D96E040ED9
:104578002B21DA6EDF502C6F2C510001F06FF16B9C
:1045880049C12DF14AC12EF101012D3B2E3BF00E00
:104598002E172D510F0B2E13F00E2D171E0E2D2535
:1045A800D96E040E2E21DA6EDF502F6F2F510001C5
:1045B800F26FF36BE1EC66F00101494B4A2B4ABFFD
:1045C800EFEF22F04A5109E1200E495DD8A0EFEF44
:1045D80022F0F1EF22F039EF21F0010E4127000E11
:1045E8004223432344233F51006F4051016F026B24
:1045F800036B0051415D0151425902514359035126
:104608004459D8A00AEF23F00CEF23F02EEF21F045
:10461800C7EC67F08D84C69A340E0001D26FFF0E86
:10462800D36F45C1D4F046C1D5F0010145513F25AE
:10463800006F46514021016FFF0E00250001D66F23
:10464800FF0E010101210001D76FE1EC66F01200B5
:10465800000E02013B6F000E3C6F000E3D6F000E16
:104668003E6F63EF25F0AC98AC94B89637C2D9FF8B
:1046780038C2DAFFDECF00F2DECF01F2DECF02F27F
:10468800DECF03F2000E25EC40F000C212F201C2A8
:1046980013F202C214F203C215F2000E02010E6FE9
:1046A800240E0F6FF40E106F4B0E116F9CEC2EF052
:1046B8000EC23FF20FC240F210C241F211C242F2E2
:1046C800000E0201126F000E136F800E146F420E5F
:1046D800156F3FC20EF240C20FF241C210F242C241
:1046E80011F29CEC2EF00EC227F20FC228F210C273
:1046F80029F211C22AF2000E02012B6F000E2C6F54
:10470800800E2D6FBF0E2E6FB0EC25F027C23BF246
:1047180028C23CF229C23DF22AC23EF28EEF25F0B1
:10472800AC98AC84B89637C2D9FF38C2DAFFDECF6E
:1047380000F2DECF01F2DECF02F2DECF03F2000E8E
:1047480025EC40F000C212F201C213F202C214F2C8
:1047580003C215F2000E02010E6F240E0F6FF40E45
:10476800106F4B0E116F9CEC2EF00EC23FF20FC271
:1047780040F210C241F211C242F2000E0201126F61
:10478800000E136F800E146F410E156F3FC20EF2AC
:1047980040C20FF241C210F242C211F29CEC2EF05C
:1047A8000EC227F20FC228F210C229F211C22AF251
:1047B800000E02012B6F000E2C6F800E2D6FBF0EA6
:1047C8002E6FB0EC25F027C23BF228C23CF229C27A
:1047D8003DF22AC23EF28EEF25F0AC98AC94B88632
:1047E80037C2D9FF38C2DAFFDECF00F2DECF01F2DE
:1047F800DECF02F2DECF03F2000E25EC40F000C25D
:1048080012F201C213F202C214F203C215F2000E30
:1048180002010E6F240E0F6FF40E106F4B0E116F06
:104828009CEC2EF00EC23FF20FC240F210C241F2D1
:1048380011C242F2000E0201126F000E136F800EB9
:10484800146F410E156F3FC20EF240C20FF241C203
:1048580010F242C211F29CEC2EF00EC227F20FC2E7
:1048680028F210C229F211C22AF2000E02012B6F9F
:10487800000E2C6F800E2D6FBF0E2E6FB0EC25F042
:1048880027C23BF228C23CF229C23DF22AC23EF2BC
:104898008EEF25F0AC98AC84B88637C2D9FF38C201
:1048A800DAFFDECF00F2DECF01F2DECF02F2DECF9A
:1048B80003F2000E25EC40F000C212F201C213F21E
:1048C80002C214F203C215F2000E02010E6F240E8A
:1048D8000F6FF40E106F4B0E116F9CEC2EF00EC282
:1048E8003FF20FC240F210C241F211C242F2000E72
:1048F8000201126F000E136F800E146F400E156FB9
:104908003FC20EF240C20FF241C210F242C211F28F
:104918009CEC2EF00EC227F20FC228F210C229F228
:1049280011C22AF2000E02012B6F000E2C6F800EAE
:104938002D6FBF0E2E6FB0EC25F027C23BF228C2B8
:104948003CF229C23DF22AC23EF28EEF25F0AC8835
:10495800B89637C2D9FF38C2DAFFDECF00F2DECF11
:1049680001F2DECF02F2DECF03F2000E25EC40F0BA
:1049780000C212F201C213F202C214F203C215F20B
:10498800000E02010E6F240E0F6FF40E106F4B0E07
:10499800116F9CEC2EF00EC23FF20FC240F210C213
:1049A80041F211C242F2000E0201126F000E136FA3
:1049B800800E146F400E156F3FC20EF240C20FF208
:1049C80041C210F242C211F29CEC2EF00EC227F244
:1049D8000FC228F210C229F211C22AF2000E0201F7
:1049E8002B6F000E2C6F800E2D6FBF0E2E6FB0EC4C
:1049F80025F027C23BF228C23CF229C23DF22AC266
:104A08003EF28EEF25F0AC88B88637C2D9FF38C29F
:104A1800DAFFDECF00F2DECF01F2DECF02F2DECF28
:104A280003F2000E25EC40F000C212F201C213F2AC
:104A380002C214F203C215F2000E02010E6F240E18
:104A48000F6FF40E106F4B0E116F9CEC2EF00EC210
:104A58003FF20FC240F210C241F211C242F2000E00
:104A68000201126F000E136F800E146F400E156F47
:104A78003FC20EF240C20FF241C210F242C211F21E
:104A88009CEC2EF00EC227F20FC228F210C229F2B7
:104A980011C22AF2000E02012B6F000E2C6F800E3D
:104AA8002D6FBF0E2E6FB0EC25F027C23BF228C247
:104AB8003CF229C23DF22AC23EF28EEF25F020EEEA
:104AC80004F03751D9263851DA22DF50396F3A6B62
:104AD8003A51000AD8B473EF25F08EEF25F039511A
:104AE800000AD8B437EF23F0010AD8B494EF23F0C2
:104AF800030AD8B4F1EF23F0010AD8B44EEF24F03A
:104B0800070AD8B4ABEF24F0010AD8B407EF25F0B0
:104B18008EEF25F03BC200F23CC201F23DC202F228
:104B28003EC203F29EEC4DF002010051AF6E3BC253
:104B380000F23CC201F23DC202F23EC203F29EEC18
:104B48004DF0020101C200F202C201F203C202F2F8
:104B5800036B0051B06E120002012A51800B336FB3
:104B68002A512A25356F29AFBCEF25F0BEEF25F075
:104B7800BFEF25F035813551D8B4C5EF25F0C7EF23
:104B880025F0DCEF25F03529D8A4CDEF25F0CFEFBF
:104B980025F0D7EF25F0000E276F000E286F000EC6
:104BA800296F000E2A6F298F000E2A6FE4EF25F077
:104BB800000E276F000E286F000E296F000E2A6F57
:104BC8002E51800B346F33513419D8B4EEEF25F0E1
:104BD800F0EF25F0F1EF25F0338D2E512E25346FAF
:104BE8002DAFF9EF25F0FBEF25F0FCEF25F0348130
:104BF8003451D8B402EF26F004EF26F019EF26F06E
:104C08003429D8A40AEF26F00CEF26F014EF26F08A
:104C1800000E2B6F000E2C6F000E2D6F000E2E6FE6
:104C28002D8F000E2E6F21EF26F0000E2B6F000E39
:104C38002C6F000E2D6F000E2E6F3551345DD8B0DD
:104C480028EF26F02AEF26F051EF26F033AD2FEFAC
:104C580026F031EF26F033EF26F0800E331B35C2F5
:104C680036F234C235F236C234F227C236F22BC2DB
:104C780027F236C22BF228C236F22CC228F236C2EC
:104C88002CF229C236F22DC229F236C22DF22AC2DE
:104C980036F22EC22AF236C22EF2000E366F355187
:104CA80034C22FF2306B2F5F000E305B30BF66EFDF
:104CB80026F0305109E11A0E2F5DD8A066EF26F0D4
:104CC80068EF26F09FEF26F02751281129112A11A5
:104CD800D8A471EF26F074EF26F0010E75EF26F0D8
:104CE800000E366F000E276F000E286F000E296F1A
:104CF800000E2A6F34C235F2A8EF26F036A187EFEE
:104D080026F089EF26F08FEF26F0D890363101098A
:104D1800366F91EF26F0D890363327A196EF26F01C
:104D280098EF26F099EF26F0368F2A352A33293363
:104D380028332733352B3451355DD8A0A6EF26F01C
:104D4800A8EF26F082EF26F033BDADEF26F0AFEFE7
:104D580026F0EFEF26F03551D8A4B5EF26F0B7EFDF
:104D680026F0C1EF26F0000E276F000E286F000E08
:104D7800296F000E2A6F10EF28F02B5127272C518E
:104D880028232D5129232E512A232AA1CEEF26F09C
:104D9800D0EF26F07CEF27F036A1D5EF26F0D7EF3D
:104DA80026F0DDEF26F0D89036310109366FDFEFB7
:104DB80026F0D890363327A1E4EF26F0E6EF26F068
:104DC800E7EF26F0368F2A352A332933283327335D
:104DD800352B7CEF27F02B51275D2C5128592D516D
:104DE80029592A51800A2F6F2E51800A2F59D8B07D
:104DF80000EF27F002EF27F02DEF27F027512B5D6A
:104E08002F6F28512C59306F29512D59316F2A5144
:104E18002E59326FFF0E2F25276FFF0E3021286F76
:104E2800FF0E3121296FFF0E32212A6F800E331BAE
:104E3800366D3651D8A423EF27F025EF27F035EF4C
:104E480027F0010E2727000E282329232A2335EFD0
:104E580027F02B51275F2C51285B2D51295B2E51B0
:104E68002A5B2751281129112A11D8A43EEF27F0CF
:104E780040EF27F075EF27F03651D8A446EF27F01A
:104E880048EF27F075EF27F0000E276F000E286F08
:104E9800000E296F000E2A6F10EF28F0D8902737E0
:104EA800283729372A3736AF5CEF27F05EEF27F02F
:104EB8005FEF27F0278136A164EF27F066EF27F030
:104EC8006AEF27F0D88036376CEF27F0D89036375E
:104ED8003551D8B472EF27F074EF27F075EF27F04B
:104EE800350729AF7AEF27F07CEF27F052EF27F04C
:104EF800000E346F36AF83EF27F085EF27F09DEF74
:104F080027F036C22FF27F0E2F17D8B48EEF27F076
:104F180090EF27F094EF27F0010E346F9DEF27F004
:104F280027A199EF27F09BEF27F09DEF27F090EF4F
:104F380027F03451D8B4A3EF27F0A5EF27F0D0EF2E
:104F480027F0010E2727000E282329232A232AA128
:104F5800B0EF27F0B2EF27F0D0EF27F027C22FF2FB
:104F680028C230F229C231F22AC232F23235323343
:104F7800313330332F332FC227F230C228F231C2F7
:104F880029F232C22AF23529D8B4CDEF27F0CFEF73
:104F980027F0D0EF27F0352B3529D8B4D6EF27F0F6
:104FA800D8EF27F0E0EF27F03551D8A4DEEF27F04F
:104FB800E0EF27F0F2EF27F0000E276F000E286FC2
:104FC800000E296F000E2A6F3551D8A4EEEF27F096
:104FD800F0EF27F0F2EF27F0000E336F35A1F7EF6F
:104FE80027F0F9EF27F0FCEF27F0298FFDEF27F0E6
:104FF800299FD89035312A6F33AF05EF28F007EF96
:1050080028F008EF28F02A8F27C227F228C228F2B2
:1050180029C229F22AC22AF212002B50800B346EC0
:105028002B502B24366E2AAE1CEF28F01EEF28F0EA
:105038001FEF28F036803650D8B425EF28F027EF38
:1050480028F03CEF28F03628D8A42DEF28F02FEFD1
:1050580028F037EF28F0000E286E000E296E000E9B
:105068002A6E000E2B6E2A8E000E2B6E44EF28F04F
:10507800000E286E000E296E000E2A6E000E2B6E92
:105088002F50800B356E34503518D8B44EEF28F0B9
:1050980050EF28F051EF28F0348C2F502F24356E24
:1050A8002EAE59EF28F05BEF28F05CEF28F0358042
:1050B8003550D8B462EF28F064EF28F079EF28F083
:1050C8003528D8A46AEF28F06CEF28F074EF28F0A0
:1050D800000E2C6E000E2D6E000E2E6E000E2F6E22
:1050E8002E8E000E2F6E81EF28F0000E2C6E000E13
:1050F8002D6E000E2E6E000E2F6E3650355CD8B019
:1051080088EF28F08AEF28F0B1EF28F034AC8FEF61
:1051180028F091EF28F093EF28F0800E341A36C06B
:1051280037F035C036F037C035F028C037F02CC01E
:1051380028F037C02CF029C037F02DC029F037C02F
:105148002DF02AC037F02EC02AF037C02EF02BC021
:1051580037F02FC02BF037C02FF0000E376E3650C7
:1051680035C030F0316A305E000E315A31BEC6EFBC
:1051780028F0315009E11A0E305CD8A0C6EF28F0AB
:10518800C8EF28F0FFEF28F0285029102A102B101C
:10519800D8A4D1EF28F0D4EF28F0010ED5EF28F0ED
:1051A800000E376E000E286E000E296E000E2A6E55
:1051B800000E2B6E35C036F008EF29F037A0E7EF68
:1051C80028F0E9EF28F0EFEF28F0D8903730010900
:1051D800376EF1EF28F0D890373228A0F6EF28F094
:1051E800F8EF28F0F9EF28F0378E2B342B322A32DB
:1051F80029322832362A3550365CD8A006EF29F0F5
:1052080008EF29F0E2EF28F034BC0DEF29F00FEF9A
:1052180029F04FEF29F03650D8A415EF29F017EFF1
:1052280029F021EF29F0000E286E000E296E000EDD
:105238002A6E000E2B6E70EF2AF02C5028262D5067
:1052480029222E502A222F502B222BA02EEF29F074
:1052580030EF29F0DCEF29F037A035EF29F037EFF0
:1052680029F03DEF29F0D89037300109376E3FEF2C
:1052780029F0D890373228A044EF29F046EF29F0DA
:1052880047EF29F0378E2B342B322A322932283235
:10529800362ADCEF29F02C50285C2D5029582E5046
:1052A8002A582B50800A306E2F50800A3058D8B0B8
:1052B80060EF29F062EF29F08DEF29F028502C5C7F
:1052C800306E29502D58316E2A502E58326E2B5080
:1052D8002F58336EFF0E3024286EFF0E3120296EB2
:1052E800FF0E32202A6EFF0E33202B6E800E341AEA
:1052F800376C3750D8A483EF29F085EF29F095EF64
:1053080029F0010E2826000E29222A222B2295EFA9
:1053180029F02C50285E2D50295A2E502A5A2F50E9
:105328002B5A285029102A102B10D8A49EEF29F0A8
:10533800A0EF29F0D5EF29F03750D8A4A6EF29F02F
:10534800A8EF29F0D5EF29F0000E286E000E296E7F
:10535800000E2A6E000E2B6E70EF2AF0D8902836B9
:1053680029362A362B3637AEBCEF29F0BEEF29F0A6
:10537800BFEF29F0288037A0C4EF29F0C6EF29F045
:10538800CAEF29F0D8803736CCEF29F0D8903736D5
:105398003650D8B4D2EF29F0D4EF29F0D5EF29F060
:1053A80036062AAEDAEF29F0DCEF29F0B2EF29F061
:1053B800000E356E37AEE3EF29F0E5EF29F0FDEF8B
:1053C80029F037C030F07F0E3016D8B4EEEF29F050
:1053D800F0EF29F0F4EF29F0010E356EFDEF29F01A
:1053E80028A0F9EF29F0FBEF29F0FDEF29F0F0EF05
:1053F80029F03550D8B403EF2AF005EF2AF030EF42
:105408002AF0010E2826000E29222A222B222BA060
:1054180010EF2AF012EF2AF030EF2AF028C030F00F
:1054280029C031F02AC032F02BC033F03334333284
:1054380032323132303230C028F031C029F032C037
:105448002AF033C02BF03628D8B42DEF2AF02FEFEE
:105458002AF030EF2AF0362A3628D8B436EF2AF068
:1054680038EF2AF040EF2AF03650D8A43EEF2AF061
:1054780040EF2AF052EF2AF0000E286E000E296E37
:10548800000E2A6E000E2B6E3650D8A44EEF2AF06E
:1054980050EF2AF052EF2AF0000E346E36A057EF84
:1054A8002AF059EF2AF05CEF2AF02A8E5DEF2AF0F5
:1054B8002A9ED89036302B6E34AE65EF2AF067EF0F
:1054C8002AF068EF2AF02B8E28C028F029C029F08E
:1054D8002AC02AF02BC02BF0120002010351800BC6
:1054E8000C6F03510325126F02AF7DEF2AF07FEF97
:1054F8002AF080EF2AF012811251D8B486EF2AF0F0
:1055080088EF2AF09BEF2AF01229D8A48EEF2AF010
:1055180090EF2AF098EF2AF0000E006F000E016F4E
:10552800000E026F000E036F028FA3EF2AF0000E29
:10553800006F000E016F000E026F000E036F07511F
:10554800800B0C1B075107250D6F06AFAEEF2AF035
:10555800B0EF2AF0B1EF2AF00D810D51D8B4B7EFB2
:105568002AF0B9EF2AF0CCEF2AF00D29D8A4BFEF22
:105578002AF0C1EF2AF0C9EF2AF0000E046F000EDE
:10558800056F000E066F000E076F068FD4EF2AF026
:10559800000E046F000E056F000E066F000E076FF9
:1055A8000D51D8B4DAEF2AF0DCEF2AF0E4EF2AF054
:1055B8001251D8A4E2EF2AF0E4EF2AF0EEEF2AF035
:1055C800000E006F000E016F000E026F000E036FD9
:1055D80086EF2CF006510003F3CF17F2F4CF18F240
:1055E80017510E6F0F6B106B116B1851136F146BF3
:1055F800156B166B05510103F3CF17F2F4CF18F2B0
:1056080017510E27000E0F231023112318511327AB
:10561800000E14231523162304510203F3CF17F2A7
:10562800F4CF18F217510E27000E0F231023112361
:1056380018511327000E14231523162310C211F234
:105648000FC210F20EC20FF20E6B04510103F3CF1A
:1056580017F2F4CF18F217510E2718510F23000E26
:105668001023000E112305510003F3CF17F2F4CFD6
:1056780018F217510E2718510F23000E1023000E91
:10568800112310C211F20FC210F20EC20FF20E6BEC
:1056980004510003F3CF17F2F4CF18F217510E2775
:1056A80018510F23000E1023000E11230651010379
:1056B800F3CF17F2F4CF18F2175113271851142308
:1056C800000E1523000E162305510203F3CF17F21F
:1056D800F4CF18F21751132718511423000E15236D
:1056E800000E162306510203F3CF17F2F4CF18F277
:1056F8001751086F1851096F0A6B0B6B0AC20BF22E
:1057080009C20AF208C209F2086B085113270951A5
:1057180014230A5115230B5116230EC208F20FC287
:1057280009F210C20AF211C20BF2190EA1EF2BF006
:10573800D8900B330A3309330833E82E9CEF2BF04B
:1057480008511327095114230A5115230B51162305
:1057580010C211F20FC210F20EC20FF20E6B0D51F1
:1057680012C208F2096B0827000E0923820E0825C9
:10577800176FFF0E0921186FD7EF2BF0D89013374A
:1057880014371537163711AFCCEF2BF0CEEF2BF0BF
:10579800CFEF2BF01381D8900E370F371037113712
:1057A8001707D8A0180715AFDCEF2BF0DEEF2BF0AA
:1057B800C2EF2BF0000E0D6F11AFE5EF2BF0E7EF06
:1057C8002BF00BEF2CF0FF0E0E15086FFF0E0F15C8
:1057D800096FFF0E10150A6F7F0E11150B6F085118
:1057E80009110A110B11D8B4FCEF2BF0FEEF2BF0C6
:1057F80002EF2CF0010E0D6F0BEF2CF013A107EF49
:105808002CF009EF2CF00BEF2CF0FEEF2BF00D51E4
:10581800D8B411EF2CF013EF2CF037EF2CF0010E69
:105828001327000E14231523162316A11EEF2CF0A0
:1058380020EF2CF037EF2CF013C208F214C209F253
:1058480015C20AF216C20BF20B350B330A330933B1
:10585800083308C213F209C214F20AC215F20BC2C5
:1058680016F2174B182B18BF42EF2CF0185108E10D
:105878001729D8A042EF2CF044EF2CF04EEF2CF073
:10588800000E136F000E146F800E156F7F0E166FCB
:105898007CEF2CF018BF5BEF2CF0185106E11705D0
:1058A800D8B059EF2CF05BEF2CF067EF2CF0000E1E
:1058B800136F000E146F000E156F000E166F000E9A
:1058C8000C6F7CEF2CF017C212F2FF0E1317FF0EAD
:1058D80014177F0E1517000E161712A176EF2CF06D
:1058E80078EF2CF079EF2CF0158FD8901231166FD5
:1058F8000C51161313C200F214C201F215C202F2BF
:1059080016C203F212004350800B4C6E43504324DE
:10591800526E42AE92EF2CF094EF2CF095EF2CF0F3
:1059280052805250D8B49BEF2CF09DEF2CF0B0EF82
:105938002CF05228D8A4A3EF2CF0A5EF2CF0ADEF53
:105948002CF0000E406E000E416E000E426E000EEE
:10595800436E428EB8EF2CF0000E406E000E416E82
:10596800000E426E000E436E4750800B4C1A475093
:1059780047244D6E46AEC3EF2CF0C5EF2CF0C6EFB2
:105988002CF04D804D50D8B4CCEF2CF0CEEF2CF04D
:10599800E1EF2CF04D28D8A4D4EF2CF0D6EF2CF062
:1059A800DEEF2CF0000E446E000E456E000E466EC3
:1059B800000E476E468EE9EF2CF0000E446E000E86
:1059C800456E000E466E000E476E4D50D8B4EFEF90
:1059D8002CF0F1EF2CF0F9EF2CF05250D8A4F7EF9F
:1059E8002CF0F9EF2CF003EF2DF0000E406E000EB6
:1059F800416E000E426E000E436E9BEF2EF0465035
:105A08004002F3CF57F0F4CF58F057504E6E4F6A1C
:105A1800506A516A5850536E546A556A566A4550CE
:105A28004102F3CF57F0F4CF58F057504E26000EEE
:105A38004F225022512258505326000E54225522EC
:105A4800562244504202F3CF57F0F4CF58F0575043
:105A58004E26000E4F225022512258505326000E37
:105A680054225522562250C051F04FC050F04EC01B
:105A78004FF04E6A44504102F3CF57F0F4CF58F03C
:105A880057504E2658504F22000E5022000E5122D9
:105A980045504002F3CF57F0F4CF58F057504E26F8
:105AA80058504F22000E5022000E512250C051F083
:105AB8004FC050F04EC04FF04E6A44504002F3CFF2
:105AC80057F0F4CF58F057504E2658504F22000E3A
:105AD8005022000E512246504102F3CF57F0F4CF26
