:0400000007EF00F016
:100008007F826AED3AF0DAEF45F0000E01017B6F6E
:10001800000E7A6F5CC18CF15DC18DF15EC18EF10D
:100028005FC18FF18FBF1DEF00F01BEF00F033EFC2
:1000380000F0000E7B6F010E7A6F8CC10EF18DC13E
:100048000FF18EC110F18FC111F17CEC4CF00EC193
:100058008CF10FC18DF110C18EF111C18FF1000E1D
:100068000101936F000E926FD5C17EF1D6C17FF169
:100078007A517B11D8A443EF00F045EF00F04CEF24
:1000880000F0D9A54AEF00F04CEF00F066EF00F061
:100098007A517B11D8A453EF00F055EF00F05BEFD5
:1000A80000F0000E676F2B0E666F5FEF00F0000E1A
:1000B800676F2D0E666F66C13FF2924B932B7E07DA
:1000C800D8A07F078CC10EF18DC10FF18EC110F140
:1000D8008FC111F16BEC39F001010E050F11D8A495
:1000E80078EF00F07AEF00F0C4EF00F0BF0E616F18
:1000F800FF0E626F6051636F646B615163276251D9
:100108006423645107E11A0E635DD8B08EEF00F0E6
:1001180090EF00F09EEF00F03F0E92250E6F020E5A
:1001280093210F6FE90E106FFF0E116FF4EC47F07B
:10013800AAEF00F03F0E92250E6F020E93210F6F6B
:10014800F10E106FFF0E116FF4EC47F00101FD0E78
:100158007E27FF0E7F235AC120F15BC121F13F0E9C
:100168000101226F020E236F7EC124F17FC125F1A8
:10017800BCEC3FF020C15AF121C15BF113EF06F04E
:100188008CC10EF18DC10FF18EC110F18FC111F12B
:100198006BEC39F001010E510F11D8A4D6EF00F025
:1001A800D8EF00F00AEF01F0BF0E616FFF0E626F2B
:1001B8006051636F646B61516327625164236451BA
:1001C80007E11A0E635DD8B0ECEF00F0EEEF00F037
:1001D800FCEF00F03F0E92250E6F020E93210F6F79
:1001E800ED0E106FFF0E116FF4EC47F0AAEF00F060
:1001F8003F0E92250E6F020E93210F6FF50E106FB2
:10020800FF0E116FF4EC47F0AAEF00F0000E946FA8
:10021800000E956F800E966F3F0E976F000E916FD0
:10022800000E906F8CC10EF18DC10FF18EC110F1CF
:100238008FC111F1000E126F000E136F000E146FB4
:10024800000E156FCDEC43F00101D8B02EEF01F090
:1002580030EF01F0B5EF01F04FEF01F094C135F147
:1002680095C136F196C137F197C138F1000E396F53
:10027800000E3A6F200E3B6F410E3C6F29EC1FF0C9
:1002880035C194F136C195F137C196F138C197F16E
:100298000101904B912B8CC14EF18DC14FF18EC154
:1002A80050F18FC151F1000E396F000E3A6F200ED8
:1002B8003B6F410E3C6F94C135F195C136F196C143
:1002C80037F197C138F129EC1FF035C152F136C129
:1002D80053F137C154F138C155F1E3EC37F001015E
:1002E800D8B079EF01F07BEF01F032EF01F09BEF2E
:1002F80001F094C11CF195C11DF196C11EF197C181
:100308001FF1000E206F000E216F200E226F410E8C
:10031800236F54EC23F01CC194F11DC195F11EC14B
:1003280096F11FC197F101019007D8A091078CC1E0
:100338004EF18DC14FF18EC150F18FC151F194C171
:1003480052F195C153F196C154F197C155F1E3ECBF
:1003580037F00101D8A0B3EF01F0B5EF01F07DEF60
:1003680001F060C114F1156B4BEC4AF00101145116
:10037800816F81C180F1670E8119D8A4C6EF01F0A1
:10038800C8EF01F0EEEF01F0D751D811D8A4CFEFA4
:1003980001F0D1EF01F0D5EF01F0000ED86F010E9A
:1003A800D76FD8BFE2EF01F0D85106E1D705D8B032
:1003B800E0EF01F0E2EF01F0E8EF01F0000E7D6FF1
:1003C800060E7C6FF7EF01F0D7C17CF1D8C17DF143
:1003D800F7EF01F0D8BFF3EF01F0F5EF01F0E2EF2E
:1003E80001F0E8EF01F0670E8119D8A4FEEF01F0E3
:1003F80000EF02F02FEF02F091AF0EEF02F0FC0ECB
:10040800905DFF0E9159D8A00CEF02F00EEF02F0AC
:100418002DEF02F0FF0E616FFF0E626F7CC163F17A
:100428007DC164F161516327625164239051635D1A
:100438006451800A656F9151800A6559D8A027EFE9
:1004480002F029EF02F02DEF02F0660E806F2FEF19
:1004580002F0650E806F7CC172F17DC173F1670E89
:100468008119D8A43AEF02F03CEF02F04CEF02F009
:10047800660E8019D8A443EF02F045EF02F04EEF64
:1004880002F091BF4CEF02F04AEF02F04EEF02F09B
:10049800724B732B660E8019D8A455EF02F057EFF4
:1004A80002F077EF02F091BF5EEF02F05CEF02F02E
:1004B8006AEF02F0000E946F000E956F800E966F33
:1004C8003F0E976F000E916F000E906F670E8119A7
:1004D800D8B471EF02F073EF02F077EF02F09051A9
:1004E800722791517323000E8B6F000E8A6F8CC197
:1004F80082F18DC183F18EC184F18FC185F194C1E0
:1005080074F195C175F196C176F197C177F109EF4C
:1005180003F082C11CF183C11DF184C11EF185C1A4
:100528001FF194C120F195C121F196C122F197C123
:1005380023F154EC23F01CC135F11DC136F11EC165
:1005480037F11FC138F1EAEC2CF035C186F136C11C
:1005580087F137C188F138C189F186C14EF187C169
:100568004FF188C150F189C151F15FEC37F04EC1AC
:1005780078F14FC179F182C14EF183C14FF184C145
:1005880050F185C151F194C139F195C13AF196C143
:100598003BF197C13CF186C135F187C136F188C17D
:1005A80037F189C138F129EC1FF035C152F136C154
:1005B80053F137C154F138C155F193EC4AF04EC1AB
:1005C80082F14FC183F150C184F151C185F194C1C9
:1005D8001CF195C11DF196C11EF197C11FF1000EC6
:1005E8000101206F000E216F200E226F410E236F34
:1005F80054EC23F01CC194F11DC195F11EC196F174
:100608001FC197F101018A4B8B2B72518A5D8B5167
:10061800800A616F7351800A6159D8A016EF03F000
:1006280018EF03F08DEF02F094C135F195C136F162
:1006380096C137F197C138F1000E396F000E3A6F45
:10064800A00E3B6F400E3C6F29EC1FF035C186F1C0
:1006580036C187F137C188F138C189F182C14EF1BD
:1006680083C14FF184C150F185C151F186C152F166
:1006780087C153F188C154F189C155F1E3EC37F0D2
:100688000101D8B04AEF03F04CEF03F056EF03F046
:10069800000E866F000E876F000E886F000E896F40
:1006A8007FEF03F082C10EF183C10FF184C110F115
:1006B80085C111F186C112F187C113F188C114F106
:1006C80089C115F1CDEC43F00101D8A06EEF03F01C
:1006D80070EF03F07FEF03F078B175EF03F077EF79
:1006E80003F07FEF03F0000E866F000E876F000E99
:1006F800886F000E896F8CC135F18DC136F18EC1BE
:1007080037F18FC138F186C139F187C13AF188C113
:100718003BF189C13CF168EC1AF035C182F136C170
:1007280083F137C184F138C185F182C14EF183C1AB
:100738004FF184C150F185C151F1000E0101396FAB
:10074800000E3A6F200E3B6F410E3C6F74C135F1BD
:1007580075C136F176C137F177C138F129EC1FF050
:1007680035C152F136C153F137C154F138C155F191
:10077800E3EC37F00101D8A0C4EF03F0C6EF03F0B3
:10078800EEEF03F0904B912B74C135F175C136F142
:1007980076C137F177C138F1000E396F000E3A6F24
:1007A800200E3B6F410E3C6F29EC1FF035C174F1F0
:1007B80036C175F137C176F138C177F1660E01019E
:1007C8008019D8A4EAEF03F0ECEF03F0EEEF03F0A2
:1007D800724B732B74C194F175C195F176C196F182
:1007E80077C197F1650E8019D8B4FDEF03F0FFEFDC
:1007F80003F005EF04F090C170F191C171F109EFB8
:1008080004F0000E716F000E706F000E6F6F000E17
:100818006E6F000E6D6F000E6C6F000E8B6F000E0A
:100828008A6F05EF05F082C11CF183C11DF184C1F7
:100838001EF185C11FF194C120F195C121F196C126
:1008480022F197C123F154EC23F01CC135F11DC1ED
:1008580036F11EC137F11FC138F1EAEC2CF035C171
:1008680086F136C187F137C188F138C189F186C16F
:100878004EF187C14FF188C150F189C151F15FEC48
:1008880037F04EC178F14FC179F10101D9B94FEF75
:1008980004F051EF04F06EEF04F078517911D8A408
:1008A80058EF04F05AEF04F06EEF04F0670E811968
:1008B800D8A461EF04F063EF04F06EEF04F071BFA9
:1008C8006AEF04F068EF04F06EEF04F06C4B6D2BE8
:1008D800B8EF04F06E516F11D8A475EF04F077EFFC
:1008E80004F0A1EF04F071BF7EEF04F07CEF04F098
:1008F800A1EF04F03F0E9225D96E020E9321DA6E15
:100908002E0EDF6E924B932B7E07D8A07F07000E2A
:100918006F6F010E6E6FA1EF04F03F0E9225D96E36
:10092800020E9321DA6E300EDF6E924B932B7E0708
:10093800D8A07F076C07D8A06D076C516D11D8A49B
:10094800A8EF04F0AAEF04F091EF04F03F0E92250F
:10095800D96E020E9321DA6E7851300FDF6E924B0A
:10096800932B7E07D8A07F0782C14EF183C14FF138
:1009780084C150F185C151F194C139F195C13AF161
:1009880096C13BF197C13CF186C135F187C136F17B
:1009980088C137F189C138F129EC1FF035C152F10E
:1009A80036C153F137C154F138C155F193EC4AF0CF
:1009B8004EC182F14FC183F150C184F151C185F11B
:1009C80094C11CF195C11DF196C11EF197C11FF18B
:1009D800000E0101206F000E216F200E226F410EC4
:1009E800236F54EC23F01CC194F11DC195F11EC175
:1009F80096F11FC197F101017007D8A071078A4BC2
:100A08008B2B72518A5D8B51800A616F7351800AFA
:100A18006159D8B012EF05F014EF05F022EF05F098
:100A280093BF20EF05F0935109E14B0E925DD8A0DA
:100A380020EF05F022EF05F017EF04F06E516F116B
:100A4800D8A429EF05F02BEF05F03CEF05F0D9A964
:100A580030EF05F032EF05F03CEF05F03F0E922540
:100A6800D96E020E9321DA6E2E0EDF6E924B932B07
:100A78003F0E9225D96E020E9321DA6E000EDF6EBC
:100A8800650E8019D8A44BEF05F04DEF05F0AFEFD8
:100A980000F0000E8B6F4F0E8A6F3F0E8A25D96EBD
:100AA800020E8B21DA6E000EDF6E000E7B6F000ED9
:100AB8007A6F91BF64EF05F062EF05F06CEF05F017
:100AC800000E7B6F010E7A6F906D911FD8B0912B3D
:100AD800000E7D6F020E7C6F9EEF05F08A07D8A08E
:100AE8008B073F0E8A25D96E020E8B21DA6E90C1D4
:100AF8000EF191C10FF1000E116F0A0E106FC3ECC9
:100B080042F001010E51300FDF6E90C10EF191C11C
:100B18000FF1000E116F0A0E106F86EC40F00EC137
:100B280090F10FC191F101017C07D8A07D077E07E4
:100B3800D8A07F0790519111D8A4A5EF05F0A7EF91
:100B480005F072EF05F07DBFB4EF05F07D5106E1C9
:100B58007C05D8B0B2EF05F0B4EF05F072EF05F000
:100B68008A07D8A08B077A517B11D8A4BEEF05F06D
:100B7800C0EF05F0C6EF05F0000E696F2B0E686F29
:100B8800CAEF05F0000E696F2D0E686F3F0E8A25BB
:100B9800D96E020E8B21DA6E68C1DFFF7E07D8A0FE
:100BA8007F078A07D8A08B07BF0E616FFF0E626FA1
:100BB8006051636F646B61516327625164236451B0
:100BC80009E11A0E635DD8A0ECEF05F0EEEF05F031
:100BD800F4EF05F0000E6B6F650E6A6FF8EF05F025
:100BE800000E6B6F450E6A6F3F0E8A25D96E020E96
:100BF8008B21DA6E6AC1DFFF7E07D8A07F073F0E20
:100C080092250E6F020E93210F6F3F0E8A25106FEB
:100C1800020E8B21116FF4EC47F0AFEF00F01200D9
:100C2800000E5F6E000E5E6E40C070F041C071F045
:100C380042C072F043C073F073BE27EF06F025EF91
:100C480006F03DEF06F0000E5F6E010E5E6E70C09E
:100C580001F071C002F072C003F073C004F00BEC35
:100C68004DF001C070F002C071F003C072F004C012
:100C780073F0000E776E000E766ED5C162F0D6C1A5
:100C880063F05E505F10D8A44CEF06F04EEF06F00C
:100C980056EF06F00101D9A554EF06F056EF06F01D
:100CA80070EF06F05E505F10D8A45DEF06F05FEFBE
:100CB80006F065EF06F0000E4B6E2B0E4A6E69EFDC
:100CC80006F0000E4B6E2D0E4A6E4AC03FF2764A71
:100CD800772A6206D8A0630670C001F071C002F0DE
:100CE80072C003F073C004F0EBEC39F00104021099
:100CF800D8A481EF06F083EF06F0CBEF06F0BF0E25
:100D0800456EFF0E466E4450476E486A455047266A
:100D180046504822485007E11A0E475CD8B097EF72
:100D280006F099EF06F0A7EF06F03F0E7624016E65
:100D3800020E7720026EE90E036EFF0E046E84EC3D
:100D480048F0B3EF06F03F0E7624016E020E7720CE
:100D5800026EF10E036EFF0E046E84EC48F0FD0E79
:100D68006226FF0E63223EC013F03FC014F03F0E10
:100D7800156E020E166E62C017F063C018F0E9EC2B
:100D880040F013C03EF014C03FF00BEF0CF070C001
:100D980001F071C002F072C003F073C004F0EBEC14
:100DA80039F001500210D8A4DCEF06F0DEEF06F0AF
:100DB80010EF07F0BF0E456EFF0E466E4450476EAB
:100DC800486A4550472646504822485007E11A0EBF
:100DD800475CD8B0F2EF06F0F4EF06F002EF07F048
:100DE8003F0E7624016E020E7720026EED0E036E22
:100DF800FF0E046E84EC48F0B3EF06F03F0E762445
:100E0800016E020E7720026EF50E036EFF0E046E61
:100E180084EC48F0B3EF06F0000E786E000E796EA1
:100E2800800E7A6E3F0E7B6E000E756E000E746E2D
:100E380070C001F071C002F072C003F073C004F01A
:100E4800000E056E000E066E000E076E000E086E90
:100E580023EC44F0D8B033EF07F035EF07F0B6EFE6
:100E680007F053EF07F078C019F079C01AF07AC08C
:100E78001BF07BC01CF0000E1D6E000E1E6E200EB7
:100E88001F6E410E206E3FEC21F019C078F01AC099
:100E980079F01BC07AF01CC07BF0744A752A70C0C8
:100EA80032F071C033F072C034F073C035F0000E08
:100EB8001D6E000E1E6E200E1F6E410E206E78C035
:100EC80019F079C01AF07AC01BF07BC01CF03FEC17
:100ED80021F019C036F01AC037F01BC038F01CC01A
:100EE80039F0E9EC38F0D8B07CEF07F07EEF07F086
:100EF80037EF07F09DEF07F078C001F079C002F0F6
:100F08007AC003F07BC004F0000E056E000E066E7A
:100F1800200E076E410E086E22EC25F001C078F015
:100F280002C079F003C07AF004C07BF07406D8A040
:100F3800750670C032F071C033F072C034F073C0FF
:100F480035F078C036F079C037F07AC038F07BC019
:100F580039F0E9EC38F0D8A0B4EF07F0B6EF07F0B5
:100F680080EF07F044C003F0046ADAEC4AF003505B
:100F7800656E65C064F0670E6518D8A4C6EF07F003
:100F8800C8EF07F0EFEF07F00101D751D811D8A447
:100F9800D0EF07F0D2EF07F0D6EF07F0000ED86FCA
:100FA800010ED76FD8BFE3EF07F0D85106E1D70598
:100FB800D8B0E1EF07F0E3EF07F0E9EF07F0000E34
:100FC800616E060E606EF9EF07F0D7C160F0D8C108
:100FD80061F0F9EF07F00101D8BFF5EF07F0F7EF7F
:100FE80007F0E3EF07F0E9EF07F0670E6518D8A4FC
:100FF80000EF08F002EF08F031EF08F075AE10EFDF
:1010080008F0FC0E745CFF0E7558D8A00EEF08F0BF
:1010180010EF08F02FEF08F0FF0E456EFF0E466E3A
:1010280060C047F061C048F0455047264650482206
:101038007450475C4850800A496E7550800A495878
:10104800D8A029EF08F02BEF08F02FEF08F0660E74
:10105800646E31EF08F0650E646E60C056F061C0D2
:1010680057F0670E6518D8A43CEF08F03EEF08F07B
:101078004EEF08F0660E6418D8A445EF08F047EF65
:1010880008F050EF08F075BE4EEF08F04CEF08F08E
:1010980050EF08F0564A572A660E6418D8A457EF3E
:1010A80008F059EF08F079EF08F075BE60EF08F026
:1010B8005EEF08F06CEF08F0000E786E000E796EA7
:1010C800800E7A6E3F0E7B6E000E756E000E746E8B
:1010D800670E6518D8B473EF08F075EF08F079EF6C
:1010E80008F07450562675505722000E6F6E000E89
:1010F8006E6E70C066F071C067F072C068F073C041
:1011080069F078C058F079C059F07AC05AF07BC0BD
:101118005BF009EF09F066C001F067C002F068C033
:1011280003F069C004F078C005F079C006F07AC011
:1011380007F07BC008F022EC25F001C01AF002C0CD
:101148001BF003C01CF004C01DF0F5EC2DF01AC014
:101158006AF01BC06BF01CC06CF01DC06DF06AC05B
:1011680032F06BC033F06CC034F06DC035F066EC13
:1011780038F032C05CF033C05DF066C011F067C073
:1011880012F068C013F069C014F078C01DF079C07F
:101198001EF07AC01FF07BC020F06AC019F06BC047
:1011A8001AF06CC01BF06DC01CF03FEC21F019C0A8
:1011B80015F01AC016F01BC017F01CC018F0FDEC93
:1011C8004AF011C066F012C067F013C068F014C08E
:1011D80069F078C001F079C002F07AC003F07BC0F2
:1011E80004F0000E056E000E066E200E076E410E0E
:1011F800086E22EC25F001C078F002C079F003C037
:101208007AF004C07BF06E4A6F2A56506E5C6F50BD
:10121800800A456E5750800A4558D8A016EF09F045
:1012280018EF09F08FEF08F078C019F079C01AF0BC
:101238007AC01BF07BC01CF0000E1D6E000E1E6EE7
:10124800A00E1F6E400E206E3FEC21F019C06AF010
:101258001AC06BF01BC06CF01CC06DF066C032F099
:1012680067C033F068C034F069C035F06AC036F042
:101278006BC037F06CC038F06DC039F0E9EC38F06D
:10128800D8B049EF09F04BEF09F055EF09F0000E1F
:101298006A6E000E6B6E000E6C6E000E6D6E7DEF4A
:1012A80009F066C001F067C002F068C003F069C0C9
:1012B80004F06AC005F06BC006F06CC007F06DC0A2
:1012C80008F023EC44F0D8A06CEF09F06EEF09F0B9
:1012D8007DEF09F05CB073EF09F075EF09F07DEF71
:1012E80009F0000E6A6E000E6B6E000E6C6E000E3A
:1012F8006D6E70C001F071C002F072C003F073C06F
:1013080004F06AC005F06BC006F06CC007F06DC051
:1013180008F0C9EC1CF001C066F002C067F003C019
:1013280068F004C069F066C032F067C033F068C086
:1013380034F069C035F0000E1D6E000E1E6E200ED2
:101348001F6E410E206E58C019F059C01AF05AC0CD
:101358001BF05BC01CF03FEC21F019C036F01AC03E
:1013680037F01BC038F01CC039F0E9EC38F0D8A0D1
:10137800C0EF09F0C2EF09F0E9EF09F0744A752AE5
:1013880058C019F059C01AF05AC01BF05BC01CF0C5
:10139800000E1D6E000E1E6E200E1F6E410E206E7A
:1013A8003FEC21F019C058F01AC059F01BC05AF090
:1013B8001CC05BF0660E6418D8A4E5EF09F0E7EFEF
:1013C80009F0E9EF09F0564A572A58C078F059C091
:1013D80079F05AC07AF05BC07BF0650E6418D8B417
:1013E800F8EF09F0FAEF09F000EF0AF074C054F0D2
:1013F80075C055F004EF0AF0000E556E000E546EDD
:10140800000E536E000E526E000E516E000E506E9E
:10141800000E6F6E000E6E6EFEEF0AF066C001F0F1
:1014280067C002F068C003F069C004F078C005F036
:1014380079C006F07AC007F07BC008F022EC25F0EE
:1014480001C01AF002C01BF003C01CF004C01DF05C
:10145800F5EC2DF01AC06AF01BC06BF01CC06CF0E4
:101468001DC06DF06AC032F06BC033F06CC034F050
:101478006DC035F066EC38F032C05CF033C05DF01A
:101488000101D9B94AEF0AF04CEF0AF069EF0AF006
:101498005C505D10D8A453EF0AF055EF0AF069EFDD
:1014A8000AF0670E6518D8A45CEF0AF05EEF0AF040
:1014B80069EF0AF055BE65EF0AF063EF0AF069EFCD
:1014C8000AF0504A512AB3EF0AF052505310D8A4E8
:1014D80070EF0AF072EF0AF09CEF0AF055BE79EF50
:1014E8000AF077EF0AF09CEF0AF03F0E7624D96EE7
:1014F800020E7720DA6E2E0EDF6E764A772A6206A3
:10150800D8A06306000E536E010E526E9CEF0AF0CF
:101518003F0E7624D96E020E7720DA6E300EDF6E1B
:10152800764A772A6206D8A063065006D8A05106E4
:1015380050505110D8A4A3EF0AF0A5EF0AF08CEF91
:101548000AF03F0E7624D96E020E7720DA6E5C50D0
:10155800300FDF6E764A772A6206D8A0630666C027
:1015680011F067C012F068C013F069C014F078C0B9
:101578001DF079C01EF07AC01FF07BC020F06AC051
:1015880019F06BC01AF06CC01BF06DC01CF03FEC7A
:1015980021F019C015F01AC016F01BC017F01CC0B6
:1015A80018F0FDEC4AF011C066F012C067F013C0E5
:1015B80068F014C069F078C001F079C002F07AC010
:1015C80003F07BC004F0000E056E000E066E200EC0
:1015D800076E410E086E22EC25F001C078F002C0BB
:1015E80079F003C07AF004C07BF05406D8A0550601
:1015F8006E4A6F2A56506E5C6F50800A456E57507F
:10160800800A4558D8B00BEF0BF00DEF0BF01BEF2D
:101618000BF077BE19EF0BF0775009E14B0E765CB3
:10162800D8A019EF0BF01BEF0BF012EF0AF0525095
:101638005310D8A422EF0BF024EF0BF036EF0BF089
:101648000101D9A92AEF0BF02CEF0BF036EF0BF0C4
:101658003F0E7624D96E020E7720DA6E2E0EDF6EDC
:10166800764A772A3F0E7624D96E020E7720DA6EF4
:10167800000EDF6E650E6418D8A445EF0BF047EF37
:101688000BF0B7EF06F0000E6F6E4F0E6E6E3F0E4A
:101698006E24D96E020E6F20DA6E000EDF6E000E19
:1016A8005F6E000E5E6E75BE5EEF0BF05CEF0BF0CA
:1016B80066EF0BF0000E5F6E010E5E6E746C751EA9
:1016C800D8B0752A000E616E020E606E96EF0BF0B0
:1016D8006E06D8A06F063F0E6E24D96E020E6F20DC
:1016E800DA6E74C001F075C002F0000E046E0A0EC6
:1016F800036E75EC43F00150300FDF6E74C001F0DB
:1017080075C002F0000E046E0A0E036E4CEC41F038
:1017180001C074F002C075F06006D8A061066206C8
:10172800D8A0630674507510D8A49DEF0BF09FEFF6
:101738000BF06CEF0BF061BEACEF0BF0615006E103
:101748006004D8B0AAEF0BF0ACEF0BF06CEF0BF025
:101758006E06D8A06F065E505F10D8A4B6EF0BF0E7
:10176800B8EF0BF0BEEF0BF0000E4D6E2B0E4C6E6B
:10177800C2EF0BF0000E4D6E2D0E4C6E3F0E6E2418
:10178800D96E020E6F20DA6E4CC0DFFF6206D8A059
:1017980063066E06D8A06F06BF0E456EFF0E466E36
:1017A8004450476E486A455047264650482248509C
:1017B80009E11A0E475CD8A0E4EF0BF0E6EF0BF056
:1017C800ECEF0BF0000E4F6E650E4E6EF0EF0BF067
:1017D800000E4F6E450E4E6E3F0E6E24D96E020EF1
:1017E8006F20DA6E4EC0DFFF6206D8A063063F0E98
:1017F8007624016E020E7720026E3F0E6E24036E71
:10180800020E6F20046E84EC48F0B7EF06F0120069
:10181800D3CF63F19BCF64F121EE69F00F0EDE6A3E
:10182800E806FDE2E00E9B16D3508F0B6009D36EDD
:10183800030ED31224EF0CF0060EE82EFED700D0CC
:10184800D3A429EF0CF02BEF0CF020EF0CF0100EC6
:1018580090EC47F01A0E0101586FF80EE82EFED7EB
:10186800582FFCD700F08D849694000E0101796FF3
:10187800FF0E72EC4FF00101792B090E796547EFE5
:101888000CF049EF0CF03CEF0CF08D94000E0101C8
:10189800116F000E126F000E136F000E146F000E02
:1018A800CAEC44F0E806D8A45CEF0CF05EEF0CF04C
:1018B8004AEF0CF0AA0E0101116F010E126F000E13
:1018C800136F000E146F080ECAEC44F00101836F09
:1018D8008D94000E7B6F690E7B25D96EDA6A010E36
:1018E800DA22BFEC4FF0DF6E01017B2B030E7B6524
:1018F80080EF0CF082EF0CF06FEF0CF08D8483A575
:1019080088EF0CF08AEF0CF0BBEF0CF0010E02012F
:10191800006F000E0101116F000E126F000E136FA1
:10192800000E146F3A0ECAEC44F08D94000E0101BB
:101938007C6F690E7C25D96EDA6A010EDA22BFEC5B
:101948004FF0DF6E01017C2B030E7C65AEEF0CF0CF
:10195800B0EF0CF09DEF0CF08D846B05D8B4B7EFA9
:101968000CF0B9EF0CF0D7EF0CF050EF10F0830546
:10197800D8A4C1EF0CF0C3EF0CF05EEF0CF06B05D0
:10198800D8A4C9EF0CF0CBEF0CF050EF10F0AA0E72
:101998006C19D8A4D2EF0CF0D4EF0CF050EF10F083
:1019A800020E0201006F02010005D8B4DEEF0CF050
:1019B800E0EF0CF0EBEF0CF0000E01015F6F000E92
:1019C800606F000E616F400E626FF4EF0CF0000E56
:1019D80001015F6F000E606F000E616F000E626F95
:1019E8005FC118F160C119F161C11AF162C11BF13F
:1019F800290E27EC4DF00101836F8351D8B407EF0E
:101A08000DF009EF0DF010EF0DF083A50EEF0DF0BE
:101A180010EF0DF0F4EF0CF083A515EF0DF017EFB4
:101A28000DF034EF0DF002010005D8A41EEF0DF003
:101A380020EF0DF030EF0DF0020E016F000E0101E6
:101A4800116F000E126F000E136F000E146F010E4F
:101A5800CAEC44F034EF0DF0000E1C6F50EF10F09C
:101A6800020E02010119D8B43CEF0DF03EEF0DF063
:101A78006EEF0DF0000E0101116F000E126F000ED7
:101A8800136F000E146F3A0ECAEC44F08D94BFEC3D
:101A98004FF0C00BC00AD8A454EF0DF056EF0DF06C
:101AA8005BEF0DF0010E0201016F5EEF0DF0000E0D
:101AB8000201016F000E01017A6FBFEC4FF00101C6
:101AC8007A2B020E7A656BEF0DF06DEF0DF061EF7A
:101AD8000DF08D84000E0101116F020E126F000EC1
:101AE800136F000E146F100ECAEC44F00009D8A44E
:101AF80080EF0DF082EF0DF06EEF0DF0020E020197
:101B0800136F000E126F000E0101116F000E126F9D
:101B1800000E136F000E146F090ECAEC44F08D947A
:101B2800BFEC4FF0FE0AD8A49CEF0DF09EEF0DF02D
:101B380094EF0DF0000E01017D6F0F0E7D65A7EF8C
:101B48000DF0A9EF0DF0ABEF0DF0B8EF0DF0690E49
:101B58007D25D96EDA6A010EDA22BFEC4FF0DF6E0E
:101B680001017D2BA1EF0DF0BFEC4FF0BFEC4FF062
:101B78008D84020E02010019D8A4C5EF0DF0C7EF3D
:101B88000DF04CEF0EF0010E01017225656F666BCA
:101B9800000E6623676B000E6723686B000E6823D0
:101BA8007151596F586B58C15AF159C15BF1000E08
:101BB8005BBFFF0E5C6F5D6F5A5165135B51661317
:101BC8005C5167135D51681370C158F13F0E581787
:101BD80058C159F15A6B5B6B5C6B5AC15CF159C1C6
:101BE8005BF15A6B596B595165135A5166135B5126
:101BF80067135C51681365C10EF166C10FF167C1C7
:101C080010F168C111F1000E03EC31F00EC135F18D
:101C18000FC136F110C137F111C138F1BD0E010104
:101C2800396F370E3A6F060E3B6F3F0E3C6F29EC4B
:101C38001FF035C118F236C119F237C11AF238C18E
:101C48001BF2000E0101396F000E3A6F000E3B6F58
:101C5800450E3C6F18C235F119C236F11AC237F178
:101C68001BC238F129EC1FF035C14EF136C14FF1D6
:101C780037C150F138C151F15FEC37F04EC114F261
:101C88004FC115F250C116F251C117F225EF0FF0EE
:101C98006FC158F1030E0101581758C159F15A6B19
:101CA8005B6B5C6B040ED89059375A375B375C37DF
:101CB800E82E57EF0EF059C17FF15AC180F15BC190
:101CC80081F15CC182F17051586F596BD8905837C7
:101CD8005937D8905837593758C15AF159C15BF11B
:101CE800000E5BBFFF0E5C6F5D6F5A517F135B5137
:101CF80080135C5181135D51821371C158F1D890E2
:101D08005833D8905833300E5817010E5825596F4C
:101D18005A6B000E5A235B6B000E5B235C6B000E44
:101D28005C2359517F135A5180135B5181135C51C5
:101D3800821372C158F1030E5817596B73AF01D053
:101D4800592B593158355A6F020E5A277FC15BF10A
:101D580080C15CF181C15DF182C15EF15A2BBAEF9D
:101D68000EF0D8905B375C375D375E375A2FB5EF8A
:101D78000EF05BC17FF15CC180F15DC181F15EC194
:101D880082F16EC158F10F0E58177FC159F180C109
:101D98005AF181C15BF182C15CF1582BD9EF0EF089
:101DA800D89059375A375B375C37582FD4EF0EF035
:101DB80059C17FF15AC180F15BC181F15CC182F1E7
:101DC8007FC10EF180C10FF181C110F182C111F103
:101DD800000E03EC31F00EC118F20FC119F210C158
:101DE8001AF211C11BF212C20EF113C20FF1010156
:101DF800106B116B000E03EC31F00EC120F10FC116
:101E080021F110C122F111C123F118C21CF119C22C
:101E18001DF11AC21EF11BC21FF154EC23F01CC1A4
:101E28004EF11DC14FF11EC150F11FC151F15FECC0
:101E380037F04EC114F24FC115F250C116F251C11C
:101E480017F2000E0101116F000E126F000E136FD2
:101E5800000E146F0A0ECAEC44F08D94BFEC4FF0DC
:101E68000101836FFE0E8319D8A43DEF0FF03FEFF9
:101E78000FF032EF0FF0000E7E6F0F0E7E6547EF0A
:101E88000FF049EF0FF04BEF0FF058EF0FF0690E1E
:101E98007E25D96EDA6A010EDA22BFEC4FF0DF6ECA
:101EA80001017E2B41EF0FF0BFEC4FF0BFEC4FF07C
:101EB8008D8469C102F201016A51586F6B510201A8
:101EC800036F58C104F26CC109F26DC158F10101E8
:101ED800596B5A6B5B6B58C15BF15A6B596B586BFA
:101EE80058C105F259C106F25AC107F25BC108F29E
:101EF8006EC158F1596B5A6B5B6B59C15BF158C194
:101F08005AF1596B586B5851020105130101595187
:101F18000201061301015A510201071301015B5125
:101F2800020108136FC158F10101596B5A6B5B6BC1
:101F38005AC15BF159C15AF158C159F1586B5851FE
:101F480002010513010159510201061301015A51F9
:101F58000201071301015B510201081301017051CD
:101F68000201051371C10AF272C158F10101596BDE
:101F78005A6B5B6B58C15BF15A6B596B586B58C104
:101F88000BF259C10CF25AC10DF25BC10EF273C1CA
:101F980058F1596B5A6B5B6B59C15BF158C15AF1D7
:101FA800596B586B585102010B1301015951020129
:101FB8000C1301015A5102010D1301015B51020179
:101FC8000E1374C158F10101596B5A6B5B6B5AC1FE
:101FD8005BF159C15AF158C159F1586B5851020176
:101FE8000B130101595102010C1301015A5102014D
:101FF8000D1301015B5102010E130101755102011C
:102008000B13010176510F0B586F775102010F6FB7
:1020180058C110F201017851FE0B0201116F8D8435
:10202800C69A63C1D3FF64C19BFF1FEF10F0060E71
:10203800E82EFED700D0D3A424EF10F026EF10F03E
:102048001BEF10F0100E90EC47F0010E0201256F07
:10205800000E216F000E226F000E236F000E246FFA
:10206800000E1D6F000E1E6F000E1F6F000E206FFA
:10207800010E2E6F000E2A6F000E2B6F000E2C6FB4
:10208800000E2D6F000E266F000E276F000E286FB2
:10209800000E296F010E1C6F120082C0D9FF83C089
:1020A800DAFFDECFF6FFDDCFF7FFF86A0800F5505C
:1020B800250AD8A462EF10F064EF10F003EF14F0D3
:1020C80082C0D9FF83C0DAFFDE2A000EDD22000EAF
:1020D8000101D66F000ED56FD5C1D9F1D6C1DAF19D
:1020E800D769D869000E00018B6F000E8A6FC9EF9F
:1020F80010F00101D98182C0D9FF83C0DAFFDE2A3E
:10210800000EDD22C9EF10F00101D9837FEF10F036
:102118000101D9857FEF10F00101D9877FEF10F019
:102128000101D9897FEF10F0000E8B6F010E8A6FC5
:10213800C9EF10F082C0D9FF83C0DAFFDECFF6FF07
:10214800DDCFF7FFF86A0800F550866F876B875177
:10215800000AD8B4B2EF10F098EF10F08651200AB8
:10216800D8B490EF10F0030AD8B494EF10F0080A2E
:10217800D8B48CEF10F0060AD8B47DEF10F01D0A21
:10218800D8B488EF10F098EF10F000018A518B1145
:10219800D8B4D1EF10F0D3EF10F09EEF10F001019A
:1021A800D9A1D9EF10F0DBEF10F0DCEF10F0D993E4
:1021B80082C0D9FF83C0DAFFDECFF6FFDDCFF7FF9D
:1021C800F86A0800F5502A0AD8A4EDEF10F0EFEFEE
:1021D80010F018EF11F082C0D9FF83C0DAFFDE2AB1
:1021E800000EDD2284C0D9FF85C0DAFFDFCF86F07C
:1021F800020EDE26DFCF87F0000EDD2286C0D9FF73
:1022080087C0DAFFDECFD5F1DDCFD6F1D6BF11EF2B
:1022180011F00FEF11F050EF11F0D981D56DD61FE5
:10222800D8B0D62B50EF11F082C0D9FF83C0DAFFA7
:10223800DECF07F0DDCF08F0EBEC34F007C0D5F1C6
:1022480008C0D6F12FEF11F082C0D9FF83C0DAFFA2
:10225800DE2A000EDD22D00E0001866FFF0E876F8A
:1022680082C0D9FF83C0DAFFDECFF6FFDDCFF7FFEC
:10227800F86A0800F550886F896B8651882787515E
:102288008923895109E10A0E885DD8A04EEF11F023
:1022980050EF11F028EF11F082C0D9FF83C0DAFFA8
:1022A800DECFF6FFDDCFF7FFF86A0800F5502E0AFB
:1022B800D8A461EF11F063EF11F0D7EF11F0000E21
:1022C8000101D86F000ED76F82C0D9FF83C0DAFF33
:1022D800DE2A000EDD2282C0D9FF83C0DAFFDECFFE
:1022E800F6FFDDCFF7FFF86A0800F5502A0AD8A4F0
:1022F80080EF11F082EF11F09FEF11F082C0D9FF4B
:1023080083C0DAFFDE2A000EDD2284C0D9FF85C033
:10231800DAFFDFCF86F0020EDE26DFCF87F0000E71
:10232800DD2286C0D9FF87C0DAFFDECFD7F1DDCF47
:10233800D8F1D7EF11F082C0D9FF83C0DAFFDECF22
:1023480007F0DDCF08F0EBEC34F007C0D7F108C098
:10235800D8F1B6EF11F082C0D9FF83C0DAFFDE2AC8
:10236800000EDD22D00E0001866FFF0E876F82C03F
:10237800D9FF83C0DAFFDECFF6FFDDCFF7FFF86ABB
:102388000800F550886F896B865188278751892303
:10239800895109E10A0E885DD8A0D5EF11F0D7EF71
:1023A80011F0AFEF11F082C0D9FF83C0DAFFDECFA2
:1023B800F6FFDDCFF7FFF86A0800F550036E046AF0
:1023C800DAEC4AF003500001986F9851D8B4EFEF57
:1023D80011F0F1EF11F02DEF12F082C0D9FF83C098
:1023E800DAFFDECF86F0DDCF87F0010E8627000EFC
:1023F800872386C0F6FF87C0F7FFF86A0800F55004
:10240800036E046ADAEC4AF003500001996F99519F
:10241800D8B411EF12F013EF12F02DEF12F082C0C2
:10242800D9FF83C0DAFFDECF86F0DDCF87F0020E5A
:102438008627000E872386C0F6FF87C0F7FFF86A55
:102448000800F550036E046ADAEC4AF00350000104
:102458009A6F660E9819D8A434EF12F036EF12F07E
:1024680077EF12F082C0D9FF83C0DAFFDECFF6FF24
:10247800DDCFF7FFF86A0800F5CF9BF082C0D9FFDF
:1024880083C0DAFFDE2A000EDD2284C0D9FF85C0B2
:10249800DAFFDFCF86F0040EDE26DFCF87F0000EEE
:1024A800DD2286C0D9FF87C0DAFFDECF94F0DECF09
:1024B80095F0DECF96F0DECF97F080C03EF081C079
:1024C8003FF094C040F095C041F096C042F097C0EC
:1024D80043F09BC044F014EC06F03EC080F03FC0CF
:1024E80081F01FEF14F0980E016E000E026EF90EC7
:1024F800036EFF0E046E000E066E020E056E17ECDC
:102508003EF001500210D8A48CEF12F08EEF12F0BA
:10251800FFEF12F082C0D9FF83C0DAFFDECF86F06A
:10252800DDCF87F0010E00018627000E872386C0C5
:10253800F6FF87C0F7FFF86A0800F5CF9BF0BF0EDB
:10254800866FFF0E876F82C0D9FF83C0DAFFDECFA8
:10255800F6FFDDCFF7FFF86A0800F550886F896B42
:102568008651882787518923895107E11A0E885D8A
:10257800D8B0C1EF12F0C3EF12F0DDEF12F084C053
:10258800D9FF85C0DAFFDFCF86F0040EDE26DFCF65
:1025980087F0000EDD2286C0D9FF87C0DAFFDECFC4
:1025A80094F0DECF95F0DECF96F0DECF97F0F5EF22
:1025B80012F084C0D9FF85C0DAFFDFCF86F0040EA1
:1025C800DE26DFCF87F0000EDD2286C0D9FF87C068
:1025D800DAFFDECF94F0DECF95F0DECF96F0DECFD7
:1025E80097F0020E82C0D9FF83C0DAFFDE26000E04
:1025F800DD2261EF12F082C0D9FF83C0DAFFDECF9F
:10260800F6FFDDCFF7FFF86A0800F550750AD8A481
:1026180010EF13F012EF13F054EF13F082C0D9FF4C
:1026280083C0DAFFDE2A000EDD2284C0D9FF85C010
:10263800DAFFDFCF86F0020EDE26DFCF87F0000E4E
:10264800DD2286C0D9FF87C0DAFFDECF88F0DDCF74
:1026580089F088C08CF089C08DF000018E6B8F6B7B
:10266800906B916B926B936B80C01EF081C01FF0D2
:102678008CC020F08DC021F08EC022F08FC023F0D6
:1026880090C024F091C025F092C026F093C027F0A6
:1026980001EC30F01EC080F01FC081F01FEF14F075
:1026A80082C0D9FF83C0DAFFDECFF6FFDDCFF7FFA8
:1026B800F86A0800F550780AD8B465EF13F067EFA8
:1026C80013F07AEF13F082C0D9FF83C0DAFFDECFB0
:1026D800F6FFDDCFF7FFF86A0800F550580AD8A4CE
:1026E80078EF13F07AEF13F0CAEF13F082C0D9FF36
:1026F80083C0DAFFDECFF6FFDDCFF7FFF86A080008
:10270800F5CF9BF082C0D9FF83C0DAFFDE2A000E26
:10271800DD2284C0D9FF85C0DAFFDFCF86F0020E44
:10272800DE26DFCF87F0000EDD2286C0D9FF87C006
:10273800DAFFDECF88F0DDCF89F088C08CF089C061
:102748008DF000018E6B8F6B906B916B926B936B1E
:1027580080C01EF081C01FF08CC020F08DC021F019
:102768008EC022F08FC023F090C024F091C025F0D5
:1027780092C026F093C027F09BC028F097EC2BF06E
:102788001EC080F01FC081F01FEF14F082C0D9FF77
:1027980083C0DAFFDECFF6FFDDCFF7FFF86A080067
:1027A800F550250AD8A4DBEF13F0DDEF13F0F5EFB1
:1027B80013F082C0D9FF83C0DAFFDE2A000EDD22C3
:1027C800000E046E250E036E80C005F081C006F071
:1027D80021EC40F0000E0001816F010E806F1FEFA9
:1027E80014F082C0D9FF83C0DAFFDE2A000EDD2292
:1027F800000E0001816F000E806F1FEF14F082C081
:10280800D9FF83C0DAFFDECFF6FFDDCFF7FFF86A26
:102818000800F550036E046A80C005F081C006F018
:1028280021EC40F082C0D9FF83C0DAFFDE2A000E17
:10283800DD22EEEF13F012009AC1D9FF9BC1DAFF37
:10284800DECFF6FFDDCFF7FFF86A0800F550250A5E
:10285800D8A431EF14F033EF14F0C6EF17F09AC193
:10286800D9FF9BC1DAFFDE2A000EDD22000E01012E
:10287800D66F000ED56FD5C1D9F1D6C1DAF1D769B7
:10288800D869000EA36F000EA26F92EF14F0D981E1
:102898009AC1D9FF9BC1DAFFDE2A000EDD2292EF32
:1028A80014F0D9834CEF14F0D9854CEF14F0D98784
:1028B8004CEF14F0D9894CEF14F0000EA36F010E01
:1028C800A26F92EF14F09AC1D9FF9BC1DAFFDECF55
:1028D800F6FFDDCFF7FFF86A0800F5509E6F9F6B93
:1028E8009F51000AD8B47BEF14F061EF14F09E51A9
:1028F800200AD8B45BEF14F0030AD8B45EEF14F0E2
:10290800080AD8B458EF14F0060AD8B44BEF14F0FC
:102918001D0AD8B455EF14F061EF14F0A251A311B9
:10292800D8B499EF14F09BEF14F067EF14F0D9A125
:10293800A0EF14F0A2EF14F0A3EF14F0D9939AC10A
:10294800D9FF9BC1DAFFDECFF6FFDDCFF7FFF86ACC
:102958000800F5502A0AD8A4B4EF14F0B6EF14F022
:10296800DFEF14F09AC1D9FF9BC1DAFFDE2A000E0F
:10297800DD229CC1D9FF9DC1DAFFDFCF9EF1020E97
:10298800DE26DFCF9FF1000EDD229EC1D9FF9FC159
:10299800DAFFDECFD5F1DDCFD6F1D6BFD8EF14F010
:1029A800D6EF14F017EF15F0D981D56DD61FD8B032
:1029B800D62B17EF15F09AC1D9FF9BC1DAFFDECFEE
:1029C80015F1DDCF16F139EC34F015C1D5F116C18A
:1029D800D6F1F6EF14F09AC1D9FF9BC1DAFFDE2ACF
:1029E800000EDD22D00E01019E6FFF0E9F6F9AC16F
:1029F800D9FF9BC1DAFFDECFF6FFDDCFF7FFF86A1C
:102A08000800F550A06FA16B9E51A0279F51A123EC
:102A1800A15109E10A0EA05DD8A015EF15F017EF36
:102A280015F0EFEF14F09AC1D9FF9BC1DAFFDECFA2
:102A3800F6FFDDCFF7FFF86A0800F5502E0AD8A494
:102A480028EF15F02AEF15F09DEF15F0000ED86F5E
:102A5800000ED76F9AC1D9FF9BC1DAFFDE2A000E9C
:102A6800DD229AC1D9FF9BC1DAFFDECFF6FFDDCFA9
:102A7800F7FFF86A0800F5502A0AD8A446EF15F0BF
:102A880048EF15F065EF15F09AC1D9FF9BC1DAFF41
:102A9800DE2A000EDD229CC1D9FF9DC1DAFFDFCFFF
:102AA8009EF1020EDE26DFCF9FF1000EDD229EC1D1
:102AB800D9FF9FC1DAFFDECFD7F1DDCFD8F19DEF87
:102AC80015F09AC1D9FF9BC1DAFFDECF15F1DDCF32
:102AD80016F139EC34F015C1D7F116C1D8F17CEFF5
:102AE80015F09AC1D9FF9BC1DAFFDE2A000EDD225C
:102AF800D00E01019E6FFF0E9F6F9AC1D9FF9BC137
:102B0800DAFFDECFF6FFDDCFF7FFF86A0800F550F1
:102B1800A06FA16B9E51A0279F51A123A15109E14C
:102B28000A0EA05DD8A09BEF15F09DEF15F075EF8C
:102B380015F09AC1D9FF9BC1DAFFDECFF6FFDDCFD2
:102B4800F7FFF86A0800F550146F156B4BEC4AF064
:102B580001011451B06FB051D8B4B5EF15F0B7EF0B
:102B680015F0F3EF15F09AC1D9FF9BC1DAFFDECF5C
:102B78009EF1DDCF9FF1010E9E27000E9F239EC17F
:102B8800F6FF9FC1F7FFF86A0800F550146F156B40
:102B98004BEC4AF001011451B16FB151D8B4D7EFE1
:102BA80015F0D9EF15F0F3EF15F09AC1D9FF9BC1D5
:102BB800DAFFDECF9EF1DDCF9FF1020E9E27000ED9
:102BC8009F239EC1F6FF9FC1F7FFF86A0800F550E2
:102BD800146F156B4BEC4AF001011451B26F660E7D
:102BE800B019D8A4FAEF15F0FCEF15F03DEF16F088
:102BF8009AC1D9FF9BC1DAFFDECFF6FFDDCFF7FF21
:102C0800F86A0800F5CFB3F19AC1D9FF9BC1DAFF82
:102C1800DE2A000EDD229CC1D9FF9DC1DAFFDFCF7D
:102C28009EF1040EDE26DFCF9FF1000EDD229EC14D
:102C3800D9FF9FC1DAFFDECFACF1DECFADF1DECF39
:102C4800AEF1DECFAFF198C15AF199C15BF1ACC1D9
:102C58005CF1ADC15DF1AEC15EF1AFC15FF1B3C171
:102C680060F109EC00F05AC198F15BC199F1E3EF0A
:102C780017F0B00E0E6F010E0F6FF90E106FFF0EEA
:102C8800116F000E136F020E126FA8EC3DF00101D8
:102C98000E510F11D8A453EF16F055EF16F0C5EFEB
:102CA80016F09AC1D9FF9BC1DAFFDECF9EF1DDCFC6
:102CB8009FF1010E9E27000E9F239EC1F6FF9FC124
:102CC800F7FFF86A0800F5CFB3F1BF0E9E6FFF0E4D
:102CD8009F6F9AC1D9FF9BC1DAFFDECFF6FFDDCF28
:102CE800F7FFF86A0800F550A06FA16B9E51A02766
:102CF8009F51A123A15107E11A0EA05DD8B087EF1B
:102D080016F089EF16F0A3EF16F09CC1D9FF9DC10C
:102D1800DAFFDFCF9EF1040EDE26DFCF9FF1000E33
:102D2800DD229EC1D9FF9FC1DAFFDECFACF1DECF35
:102D3800ADF1DECFAEF1DECFAFF1BBEF16F09CC147
:102D4800D9FF9DC1DAFFDFCF9EF1040EDE26DFCF6B
:102D58009FF1000EDD229EC1D9FF9FC1DAFFDECFB1
:102D6800ACF1DECFADF1DECFAEF1DECFAFF1020ECA
:102D78009AC1D9FF9BC1DAFFDE26000EDD2227EFBC
:102D880016F09AC1D9FF9BC1DAFFDECFF6FFDDCF7F
:102D9800F7FFF86A0800F550750AD8A4D6EF16F0C0
:102DA800D8EF16F019EF17F09AC1D9FF9BC1DAFFD7
:102DB800DE2A000EDD229CC1D9FF9DC1DAFFDFCFDC
:102DC8009EF1020EDE26DFCF9FF1000EDD229EC1AE
:102DD800D9FF9FC1DAFFDECFA0F1DDCFA1F1A0C1FD
:102DE800A4F1A1C1A5F1A66BA76BA86BA96BAA6BEF
:102DF800AB6B98C12BF199C12CF1A4C12DF1A5C1E0
:102E08002EF1A6C12FF1A7C130F1A8C131F1A9C196
:102E180032F1AAC133F1ABC134F1FEEC2EF02BC173
:102E280098F12CC199F1E3EF17F09AC1D9FF9BC132
:102E3800DAFFDECFF6FFDDCFF7FFF86A0800F550BE
:102E4800780AD8B42AEF17F02CEF17F03FEF17F0F5
:102E58009AC1D9FF9BC1DAFFDECFF6FFDDCFF7FFBE
:102E6800F86A0800F550580AD8A43DEF17F03FEF6C
:102E780017F08EEF17F09AC1D9FF9BC1DAFFDECFAA
:102E8800F6FFDDCFF7FFF86A0800F5CFB3F19AC176
:102E9800D9FF9BC1DAFFDE2A000EDD229CC1D9FFD3
:102EA8009DC1DAFFDFCF9EF1020EDE26DFCF9FF154
:102EB800000EDD229EC1D9FF9FC1DAFFDECFA0F14F
:102EC800DDCFA1F1A0C1A4F1A1C1A5F1A66BA76BAB
:102ED800A86BA96BAA6BAB6B98C12BF199C12CF1AC
:102EE800A4C12DF1A5C12EF1A6C12FF1A7C130F1C2
:102EF800A8C131F1A9C132F1AAC133F1ABC134F192
:102F0800B3C135F144EC2AF02BC198F12CC199F1E9
:102F1800E3EF17F09AC1D9FF9BC1DAFFDECFF6FFC6
:102F2800DDCFF7FFF86A0800F550250AD8A49FEF0F
:102F380017F0A1EF17F0B9EF17F09AC1D9FF9BC1AD
:102F4800DAFFDE2A000EDD22000E116F250E106F4B
:102F580098C112F199C113F156EC3FF0000E01012E
:102F6800996F010E986FE3EF17F09AC1D9FF9BC1D3
:102F7800DAFFDE2A000EDD22000E996F000E986F30
:102F8800E3EF17F09AC1D9FF9BC1DAFFDECFF6FF56
:102F9800DDCFF7FFF86A0800F5500101106F116BDB
:102FA80098C112F199C113F156EC3FF09AC1D9FFBB
:102FB8009BC1DAFFDE2A000EDD22B2EF17F0120005
:102FC800000E01015C6F000E5D6F000E5E6F000E5B
:102FD8005F6F1BEF1AF0AC98AC94B89658C1D9FF44
:102FE80059C1DAFFDECF0EF1DECF0FF1DECF10F1DF
:102FF800DECF11F1000E03EC31F00EC120F10FC14C
:1030080021F110C122F111C123F1000E01011C6F41
:10301800240E1D6F740E1E6F4A0E1F6F54EC23F0A2
:103028001CC160F11DC161F11EC162F11FC163F1D4
:10303800000E0101206F000E216F800E226F420EDC
:10304800236F60C11CF161C11DF162C11EF163C132
:103058001FF154EC23F01CC135F11DC136F11EC11E
:1030680037F11FC138F1000E0101396F000E3A6FB8
:10307800800E3B6FBF0E3C6F68EC1AF035C15CF1F7
:1030880036C15DF137C15EF138C15FF146EF1AF024
:10309800AC98AC84B89658C1D9FF59C1DAFFDECFD5
:1030A8000EF1DECF0FF1DECF10F1DECF11F1000E01
:1030B80003EC31F00EC120F10FC121F110C122F152
:1030C80011C123F1000E01011C6F240E1D6F740E37
:1030D8001E6F4A0E1F6F54EC23F01CC160F11DC116
:1030E80061F11EC162F11FC163F1000E0101206F81
:1030F800000E216F800E226F410E236F60C11CF1FC
:1031080061C11DF162C11EF163C11FF154EC23F0CE
:103118001CC135F11DC136F11EC137F11FC138F18F
:10312800000E0101396F000E3A6F800E3B6FBF0E23
:103138003C6F68EC1AF035C15CF136C15DF137C1FE
:103148005EF138C15FF146EF1AF0AC98AC94B886DE
:1031580058C1D9FF59C1DAFFDECF0EF1DECF0FF12A
:10316800DECF10F1DECF11F1000E03EC31F00EC10D
:1031780020F10FC121F110C122F111C123F1000E7C
:1031880001011C6F240E1D6F740E1E6F4A0E1F6FF7
:1031980054EC23F01CC160F11DC161F11EC162F144
:1031A8001FC163F1000E0101206F000E216F800E18
:1031B800226F410E236F60C11CF161C11DF162C114
:1031C8001EF163C11FF154EC23F01CC135F11DC180
:1031D80036F11EC137F11FC138F1000E0101396FF8
:1031E800000E3A6F800E3B6FBF0E3C6F68EC1AF012
:1031F80035C15CF136C15DF137C15EF138C15FF1AF
:1032080046EF1AF0AC98AC84B88658C1D9FF59C1BA
:10321800DAFFDECF0EF1DECF0FF1DECF10F1DECF19
:1032280011F1000E03EC31F00EC120F10FC121F1B4
:1032380010C122F111C123F1000E01011C6F240EEF
:103248001D6F740E1E6F4A0E1F6F54EC23F01CC1C5
:1032580060F11DC161F11EC162F11FC163F1000E71
:103268000101206F000E216F800E226F400E236F28
:1032780060C11CF161C11DF162C11EF163C11FF182
:1032880054EC23F01CC135F11DC136F11EC137F1D4
:103298001FC138F1000E0101396F000E3A6F800E20
:1032A8003B6FBF0E3C6F68EC1AF035C15CF136C15C
:1032B8005DF137C15EF138C15FF146EF1AF0AC88B5
:1032C800B89658C1D9FF59C1DAFFDECF0EF1DECF6B
:1032D8000FF1DECF10F1DECF11F1000E03EC31F06B
:1032E8000EC120F10FC121F110C122F111C123F14A
:1032F800000E01011C6F240E1D6F740E1E6F4A0E06
:103308001F6F54EC23F01CC160F11DC161F11EC197
:1033180062F11FC163F1000E0101206F000E216FE1
:10332800800E226F400E236F60C11CF161C11DF138
:1033380062C11EF163C11FF154EC23F01CC135F1C9
:103348001DC136F11EC137F11FC138F1000E010150
:10335800396F000E3A6F800E3B6FBF0E3C6F68EC02
:103368001AF035C15CF136C15DF137C15EF138C183
:103378005FF146EF1AF0AC88B88658C1D9FF59C139
:10338800DAFFDECF0EF1DECF0FF1DECF10F1DECFA8
:1033980011F1000E03EC31F00EC120F10FC121F143
:1033A80010C122F111C123F1000E01011C6F240E7E
:1033B8001D6F740E1E6F4A0E1F6F54EC23F01CC154
:1033C80060F11DC161F11EC162F11FC163F1000E00
:1033D8000101206F000E216F800E226F400E236FB7
:1033E80060C11CF161C11DF162C11EF163C11FF111
:1033F80054EC23F01CC135F11DC136F11EC137F163
:103408001FC138F1000E0101396F000E3A6F800EAE
:103418003B6FBF0E3C6F68EC1AF035C15CF136C1EA
:103428005DF137C15EF138C15FF146EF1AF020EE69
:1034380004F05851D9265951DA22DF505A6F5B6B84
:103448005B51000AD8B42BEF1AF046EF1AF05A5124
:10345800000AD8B4EFEF17F0010AD8B44CEF18F00F
:10346800030AD8B4A9EF18F0010AD8B406EF19F086
:10347800070AD8B463EF19F0010AD8B4BFEF19F0FE
:1034880046EF1AF05CC14EF15DC14FF15EC150F1DB
:103498005FC151F15FEC37F001014E51AF6E5CC175
:1034A8004EF15DC14FF15EC150F15FC151F15FEC6A
:1034B80037F001014FC14EF150C14FF151C150F1E8
:1034C800516B4E51B06E120001013851800B416FA3
:1034D80038513825436F37AF74EF1AF076EF1AF08A
:1034E80077EF1AF043814351D8B47DEF1AF07FEF9C
:1034F8001AF094EF1AF04329D8A485EF1AF087EF51
:103508001AF08FEF1AF0000E356F000E366F000EAE
:10351800376F000E386F378F000E386F9CEF1AF038
:10352800000E356F000E366F000E376F000E386FC5
:103538003C51800B426F41514219D8B4A6EF1AF0A2
:10354800A8EF1AF0A9EF1AF0418D3C513C25426FC3
:103558003BAFB1EF1AF0B3EF1AF0B4EF1AF04281B3
:103568004251D8B4BAEF1AF0BCEF1AF0D1EF1AF002
:103578004229D8A4C2EF1AF0C4EF1AF0CCEF1AF01F
:10358800000E396F000E3A6F000E3B6F000E3C6F55
:103598003B8F000E3C6FD9EF1AF0000E396F000E0A
:1035A8003A6F000E3B6F000E3C6F4351425DD8B03E
:1035B800E0EF1AF0E2EF1AF009EF1BF041ADE7EF88
:1035C8001AF0E9EF1AF0EBEF1AF0800E411B43C135
:1035D80044F142C143F144C142F135C144F139C11A
:1035E80035F144C139F136C144F13AC136F144C12B
:1035F8003AF137C144F13BC137F144C13BF138C11D
:1036080044F13CC138F144C13CF1000E446F4351D0
:1036180042C13DF13E6B3D5F000E3E5B3EBF1EEF7B
:103628001BF03E5109E11A0E3D5DD8A01EEF1BF0BC
:1036380020EF1BF057EF1BF03551361137113811B9
:10364800D8A429EF1BF02CEF1BF0010E2DEF1BF077
:10365800000E446F000E356F000E366F000E376F88
:10366800000E386F42C143F160EF1BF044A13FEFF9
:103678001BF041EF1BF047EF1BF0D89044310109D4
:10368800446F49EF1BF0D890443335A14EEF1BF03F
:1036980050EF1BF051EF1BF0448F38353833373378
:1036A80036333533432B4251435DD8A05EEF1BF0D0
:1036B80060EF1BF03AEF1BF041BD65EF1BF067EFC1
:1036C8001BF0A7EF1BF04351D8A46DEF1BF06FEF71
:1036D8001BF079EF1BF0000E356F000E366F000EF1
:1036E800376F000E386FC8EF1CF0395135273A5143
:1036F80036233B5137233C51382338A186EF1BF042
:1037080088EF1BF034EF1CF044A18DEF1BF08FEF16
:103718001BF095EF1BF0D89044310109446F97EFE7
:103728001BF0D890443335A19CEF1BF09EEF1BF0A3
:103738009FEF1BF0448F3835383337333633353302
:10374800432B34EF1CF03951355D3A5136593B5112
:1037580037593851800A3D6F3C51800A3D59D8B0DD
:10376800B8EF1BF0BAEF1BF0E5EF1BF03551395DF0
:103778003D6F36513A593E6F37513B593F6F38517B
:103788003C59406FFF0E3D25356FFF0E3E21366FC9
:10379800FF0E3F21376FFF0E4021386F800E411B0F
:1037A800446D4451D8A4DBEF1BF0DDEF1BF0EDEFC7
:1037B8001BF0010E3527000E362337233823EDEF93
:1037C8001BF03951355F3A51365B3B51375B3C5101
:1037D800385B3551361137113811D8A4F6EF1BF084
:1037E800F8EF1BF02DEF1CF04451D8A4FEEF1BF0AE
:1037F80000EF1CF02DEF1CF0000E356F000E366F39
:10380800000E376F000E386FC8EF1CF0D8903537B0
:1038180036373737383744AF14EF1CF016EF1CF043
:1038280017EF1CF0358144A11CEF1CF01EEF1CF0B3
:1038380022EF1CF0D880443724EF1CF0D89044378E
:103848004351D8B42AEF1CF02CEF1CF02DEF1CF0DC
:10385800430737AF32EF1CF034EF1CF00AEF1CF0CF
:10386800000E426F44AF3BEF1CF03DEF1CF055EFEC
:103878001CF044C13DF17F0E3D17D8B446EF1CF053
:1038880048EF1CF04CEF1CF0010E426F55EF1CF096
:1038980035A151EF1CF053EF1CF055EF1CF048EF29
:1038A8001CF04251D8B45BEF1CF05DEF1CF088EFC0
:1038B8001CF0010E3527000E36233723382338A194
:1038C80068EF1CF06AEF1CF088EF1CF035C13DF181
:1038D80036C13EF137C13FF138C140F14035403380
:1038E8003F333E333D333DC135F13EC136F13FC133
:1038F80037F140C138F14329D8B485EF1CF087EF80
:103908001CF088EF1CF0432B4329D8B48EEF1CF031
:1039180090EF1CF098EF1CF04351D8A496EF1CF0E0
:1039280098EF1CF0AAEF1CF0000E356F000E366FF2
:10393800000E376F000E386F4351D8A4A6EF1CF065
:10394800A8EF1CF0AAEF1CF0000E416F43A1AFEFE7
:103958001CF0B1EF1CF0B4EF1CF0378FB5EF1CF082
:10396800379FD8904331386F41AFBDEF1CF0BFEFA0
:103978001CF0C0EF1CF0388F35C135F136C136F177
:1039880037C137F138C138F112000450800B0D6E81
:10399800045004240F6E03AED4EF1CF0D6EF1CF0D5
:1039A800D7EF1CF00F800F50D8B4DDEF1CF0DFEF1D
:1039B8001CF0F4EF1CF00F28D8A4E5EF1CF0E7EF9B
:1039C8001CF0EFEF1CF0000E016E000E026E000EF0
:1039D800036E000E046E038E000E046EFCEF1CF0E6
:1039E800000E016E000E026E000E036E000E046ED5
:1039F8000850800B0E6E0D500E18D8B406EF1DF04F
:103A080008EF1DF009EF1DF00D8C085008240E6E0C
:103A180007AE11EF1DF013EF1DF014EF1DF00E802F
:103A28000E50D8B41AEF1DF01CEF1DF031EF1DF049
:103A38000E28D8A422EF1DF024EF1DF02CEF1DF066
:103A4800000E056E000E066E000E076E000E086E64
:103A5800078E000E086E39EF1DF0000E056E000E81
:103A6800066E000E076E000E086E0F500E5CD8B082
:103A780040EF1DF042EF1DF069EF1DF00DAC47EF70
:103A88001DF049EF1DF04BEF1DF0800E0D1A0FC011
:103A980010F00EC00FF010C00EF001C010F005C0FD
:103AA80001F010C005F002C010F006C002F010C00E
:103AB80006F003C010F007C003F010C007F004C000
:103AC80010F008C004F010C008F0000E106E0F507F
:103AD8000EC009F00A6A095E000E0A5A0ABE7EEF95
:103AE8001DF00A5009E11A0E095CD8A07EEF1DF0FE
:103AF80080EF1DF0B7EF1DF0015002100310041005
:103B0800D8A489EF1DF08CEF1DF0010E8DEF1DF08C
:103B1800000E106E000E016E000E026E000E036E97
:103B2800000E046E0EC00FF0C0EF1DF010A09FEF46
:103B38001DF0A1EF1DF0A7EF1DF0D890103001097E
:103B4800106EA9EF1DF0D890103201A0AEEF1DF055
:103B5800B0EF1DF0B1EF1DF0108E043404320332C3
:103B6800023201320F2A0E500F5CD8A0BEEF1DF0B2
:103B7800C0EF1DF09AEF1DF00DBCC5EF1DF0C7EFAB
:103B88001DF007EF1EF00F50D8A4CDEF1DF0CFEFBA
:103B98001DF0D9EF1DF0000E016E000E026E000E32
:103BA800036E000E046E28EF1FF005500126065024
:103BB8000222075003220850042204A0E6EF1DF059
:103BC800E8EF1DF094EF1EF010A0EDEF1DF0EFEF01
:103BD8001DF0F5EF1DF0D89010300109106EF7EFC9
:103BE8001DF0D890103201A0FCEF1DF0FEEF1DF083
:103BF800FFEF1DF0108E043404320332023201321A
:103C08000F2A94EF1EF00550015C06500258075029
:103C180003580450800A096E0850800A0958D8B021
:103C280018EF1EF01AEF1EF045EF1EF00150055C6C
:103C3800096E025006580A6E035007580B6E04505E
:103C480008580C6EFF0E0924016EFF0E0A20026E42
:103C5800FF0E0B20036EFF0E0C20046E800E0D1A53
:103C6800106C1050D8A43BEF1EF03DEF1EF04DEF46
:103C78001EF0010E0126000E0222032204224DEF3F
:103C88001EF00550015E0650025A0750035A0850AC
:103C9800045A0150021003100410D8A456EF1EF065
:103CA80058EF1EF08DEF1EF01050D8A45EEF1EF0F6
:103CB80060EF1EF08DEF1EF0000E016E000E026E1A
:103CC800000E036E000E046E28EF1FF0D890013628
:103CD80002360336043610AE74EF1EF076EF1EF08F
:103CE80077EF1EF0018010A07CEF1EF07EEF1EF033
:103CF80082EF1EF0D880103684EF1EF0D890103670
:103D08000F50D8B48AEF1EF08CEF1EF08DEF1EF026
:103D18000F0603AE92EF1EF094EF1EF06AEF1EF04E
:103D2800000E0E6E10AE9BEF1EF09DEF1EF0B5EF6D
:103D38001EF010C009F07F0E0916D8B4A6EF1EF0C9
:103D4800A8EF1EF0ACEF1EF0010E0E6EB5EF1EF0E0
:103D580001A0B1EF1EF0B3EF1EF0B5EF1EF0A8EF13
:103D68001EF00E50D8B4BBEF1EF0BDEF1EF0E8EF0A
:103D78001EF0010E0126000E02220322042204A0D6
:103D8800C8EF1EF0CAEF1EF0E8EF1EF001C009F000
:103D980002C00AF003C00BF004C00CF00C340C3263
:103DA8000B320A32093209C001F00AC002F00BC016
:103DB80003F00CC004F00F28D8B4E5EF1EF0E7EFCD
:103DC8001EF0E8EF1EF00F2A0F28D8B4EEEF1EF011
:103DD800F0EF1EF0F8EF1EF00F50D8A4F6EF1EF02B
:103DE800F8EF1EF00AEF1FF0000E016E000E026ED3
:103DF800000E036E000E046E0F50D8A406EF1FF0DD
:103E080008EF1FF00AEF1FF0000E0D6E0FA00FEF66
:103E18001FF011EF1FF014EF1FF0038E15EF1FF0C6
:103E2800039ED8900F30046E0DAE1DEF1FF01FEFEC
:103E38001FF020EF1FF0048E01C001F002C002F055
:103E480003C003F004C004F0120001013851800BD4
:103E5800416F38513825476F37AF35EF1FF037EFCF
:103E68001FF038EF1FF047814751D8B43EEF1FF0DD
:103E780040EF1FF053EF1FF04729D8A446EF1FF07B
:103E880048EF1FF050EF1FF0000E356F000E366F31
:103E9800000E376F000E386F378F5BEF1FF0000E84
:103EA800356F000E366F000E376F000E386F3C51BD
:103EB800800B411B3C513C25426F3BAF66EF1FF026
:103EC80068EF1FF069EF1FF042814251D8B46FEFDD
:103ED8001FF071EF1FF084EF1FF04229D8A477EF8D
:103EE8001FF079EF1FF081EF1FF0000E396F000E01
:103EF8003A6F000E3B6F000E3C6F3B8F8CEF1FF04C
:103F0800000E396F000E3A6F000E3B6F000E3C6FCB
:103F18004251D8B492EF1FF094EF1FF09CEF1FF0BE
:103F28004751D8A49AEF1FF09CEF1FF0A6EF1FF09F
:103F3800000E356F000E366F000E376F000E386FAB
:103F48003EEF21F03B513503F3CF4CF1F4CF4DF167
:103F58004C51436F446B456B466B4D51486F496BF1
:103F68004A6B4B6B3A513603F3CF4CF1F4CF4DF11A
:103F78004C514327000E4423452346234D514827DF
:103F8800000E49234A234B2339513703F3CF4CF111
:103F9800F4CF4DF14C514327000E442345234623CB
:103FA8004D514827000E49234A234B2345C146F16A
:103FB80044C145F143C144F1436B39513603F3CF52
:103FC8004CF1F4CF4DF14C5143274D514423000E91
:103FD8004523000E46233A513503F3CF4CF1F4CF75
:103FE8004DF14C5143274D514423000E4523000EFB
:103FF800462345C146F144C145F143C144F1436BF1
:1040080039513503F3CF4CF1F4CF4DF14C514327DF
:104018004D514423000E4523000E46233B513603E1
:10402800F3CF4CF1F4CF4DF14C5148274D51492372
:10403800000E4A23000E4B233A513703F3CF4CF1BD
:10404800F4CF4DF14C5148274D514923000E4A23D6
:10405800000E4B233B513703F3CF4CF1F4CF4DF116
:104068004C513D6F4D513E6F3F6B406B3FC140F12E
:104078003EC13FF13DC13EF13D6B3D5148273E51A8
:1040880049233F514A2340514B2343C13DF144C189
:104098003EF145C13FF146C140F1190E59EF20F0FC
:1040A800D89040333F333E333D33E82E54EF20F071
:1040B8003D5148273E5149233F514A2340514B2304
:1040C80045C146F144C145F143C144F1436B4251F6
:1040D80047C13DF13E6B3D27000E3E23820E3D2534
:1040E8004C6FFF0E3E214D6F8FEF20F0D890483770
:1040F80049374A374B3746AF84EF20F086EF20F038
:1041080087EF20F04881D890433744374537463702
:104118004C07D8A04D074AAF94EF20F096EF20F057
:104128007AEF20F0000E426F46AF9DEF20F09FEF30
:1041380020F0C3EF20F0FF0E43153D6FFF0E44152E
:104148003E6FFF0E45153F6F7F0E4615406F3D5180
:104158003E113F114011D8B4B4EF20F0B6EF20F073
:10416800BAEF20F0010E426FC3EF20F048A1BFEF75
:1041780020F0C1EF20F0C3EF20F0B6EF20F042515D
:10418800D8B4C9EF20F0CBEF20F0EFEF20F0010E0C
:104198004827000E49234A234B234BA1D6EF20F092
:1041A800D8EF20F0EFEF20F048C13DF149C13EF1D2
:1041B8004AC13FF14BC140F1403540333F333E33B4
:1041C8003D333DC148F13EC149F13FC14AF140C1CB
:1041D8004BF14C4B4D2B4DBFFAEF20F04D5108E100
:1041E8004C29D8A0FAEF20F0FCEF20F006EF21F0E0
:1041F800000E486F000E496F800E4A6F7F0E4B6F9E
:1042080034EF21F04DBF13EF21F04D5106E14C057D
:10421800D8B011EF21F013EF21F01FEF21F0000EBD
:10422800486F000E496F000E4A6F000E4B6F000E6C
:10423800416F34EF21F04CC147F1FF0E4817FF0ED4
:1042480049177F0E4A17000E4B1747A12EEF21F092
:1042580030EF21F031EF21F04A8FD89047314B6F82
:1042680041514B1348C135F149C136F14AC137F1C3
:104278004BC138F112001C50800B256E1C501C24B9
:104288002B6E1BAE4AEF21F04CEF21F04DEF21F0E1
:104298002B802B50D8B453EF21F055EF21F068EF65
:1042A80021F02B28D8A45BEF21F05DEF21F065EF1A
:1042B80021F0000E196E000E1A6E000E1B6E000E15
:1042C8001C6E1B8E70EF21F0000E196E000E1A6E18
:1042D800000E1B6E000E1C6E2050800B251A2050FD
:1042E80020242A6E1FAE7BEF21F07DEF21F07EEFB8
:1042F80021F02A802A50D8B484EF21F086EF21F0EB
:1043080099EF21F02A28D8A48CEF21F08EEF21F024
:1043180096EF21F0000E1D6E000E1E6E000E1F6E31
:10432800000E206E1F8EA1EF21F0000E1D6E000EF4
:104338001E6E000E1F6E000E206E2A50D8B4A7EF16
:1043480021F0A9EF21F0B1EF21F02B50D8A4AFEF65
:1043580021F0B1EF21F0BBEF21F0000E196E000E35
:104368001A6E000E1B6E000E1C6E53EF23F01F50CA
:104378001902F3CF30F0F4CF31F03050266E276AAF
:10438800286A296A31502C6E2D6A2E6A2F6A1E50AF
:104398001A02F3CF30F0F4CF31F030502626000E59
:1043A80027222822292231502C26000E2D222E22A7
:1043B8002F221D501B02F3CF30F0F4CF31F03050D4
:1043C8002626000E27222822292231502C26000ECC
:1043D8002D222E222F2228C029F027C028F026C0FF
:1043E80027F0266A1D501A02F3CF30F0F4CF31F0CF
:1043F8003050262631502722000E2822000E29226E
:104408001E501902F3CF30F0F4CF31F03050262689
:1044180031502722000E2822000E292228C029F018
:1044280027C028F026C027F0266A1D501902F3CFAE
:1044380030F0F4CF31F03050262631502722000ECC
:104448002822000E29221F501A02F3CF30F0F4CF91
:1044580031F030502C2631502D22000E2E22000E25
:104468002F221E501B02F3CF30F0F4CF31F0305022
:104478002C2631502D22000E2E22000E2F221F50E6
:104488001B02F3CF30F0F4CF31F03050216E3150B1
:10449800226E236A246A23C024F022C023F021C09C
:1044A80022F0216A21502C2622502D2223502E2220
:1044B80024502F2226C021F027C022F028C023F044
:1044C80029C024F0190E6EEF22F0D890243223323E
:1044D80022322132E82E69EF22F021502C26225078
:1044E8002D2223502E2224502F2228C029F027C005
:1044F80028F026C027F0266A2A502BC021F0226A0D
:104508002126000E2222820E2124306EFF0E222048
:10451800316EA4EF22F0D8902C362D362E362F3659
:1045280029AE99EF22F09BEF22F09CEF22F02C802D
:10453800D89026362736283629363006D8A03106B0
:104548002EAEA9EF22F0ABEF22F08FEF22F0000E93
:104558002A6E29AEB2EF22F0B4EF22F0D8EF22F0A3
:10456800FF0E2614216EFF0E2714226EFF0E28144C
:10457800236E7F0E2914246E21502210231024103C
:10458800D8B4C9EF22F0CBEF22F0CFEF22F0010E22
:104598002A6ED8EF22F02CA0D4EF22F0D6EF22F02A
:1045A800D8EF22F0CBEF22F02A50D8B4DEEF22F079
:1045B800E0EF22F004EF23F0010E2C26000E2D224E
:1045C8002E222F222FA0EBEF22F0EDEF22F004EFA6
:1045D80023F02CC021F02DC022F02EC023F02FC0D4
:1045E80024F02434243223322232213221C02CF008
:1045F80022C02DF023C02EF024C02FF0304A312ADB
:1046080031BE0FEF23F0315008E13028D8A00FEF6A
:1046180023F011EF23F01BEF23F0000E2C6E000E99
:104628002D6E800E2E6E7F0E2F6E49EF23F031BE59
:1046380028EF23F0315006E13004D8B026EF23F0FC
:1046480028EF23F034EF23F0000E2C6E000E2D6EB1
:10465800000E2E6E000E2F6E000E256E49EF23F011
:1046680030C02BF0FF0E2C16FF0E2D167F0E2E16C7
:10467800000E2F162BA043EF23F045EF23F046EF53
:1046880023F02E8ED8902B302F6E25502F122CC051
:1046980019F02DC01AF02EC01BF02FC01CF012000C
:1046A80001011F51800B2C6F1F511F25336F1EAF47
:1046B80060EF23F062EF23F063EF23F0338133518F
:1046C800D8B469EF23F06BEF23F080EF23F03329A0
:1046D800D8A471EF23F073EF23F07BEF23F0000EE3
:1046E8001C6F000E1D6F000E1E6F000E1F6F1E8FB9
:1046F800000E1F6F88EF23F0000E1C6F000E1D6F59
:10470800000E1E6F000E1F6F2351800B2C1B2351B0
:104718002325346F22AF93EF23F095EF23F096EF24
:1047280023F034813451D8B49CEF23F09EEF23F06A
:10473800B3EF23F03429D8A4A4EF23F0A6EF23F095
:10474800AEEF23F0000E206F000E216F000E226FD7
:10475800000E236F228F000E236FBBEF23F0000E95
:10476800206F000E216F000E226F000E236F205164
:10477800211122112311D8A4C4EF23F0C6EF23F08E
:10478800DEEF23F0000E1C6F000E1D6F000E1E6F73
:10479800000E1F6F800E1E137F0E1F132C511F1348
:1047A8001CC11CF11DC11DF11EC11EF11FC11FF14D
:1047B80021EF25F03351D8A4E4EF23F0E6EF23F0FE
:1047C800F0EF23F0000E1C6F000E1D6F000E1E6F21
:1047D800000E1F6F21EF25F0345133C124F1256BF2
:1047E800245F000E255B7F0E24252D6F000E2521EA
:1047F8002E6F1CC128F11DC129F11EC12AF11FC14C
:104808002BF1000E1C6F000E1D6F000E1E6F000EA8
:104818001F6F000E2F6F000E306F000E316F000EED
:10482800326F000E346F51EF24F03451D8B41FEFBB
:1048380024F021EF24F038EF24F0D89028372937D6
:104848002A372B37D8901C371D371E371F3732AF02
:1048580030EF24F032EF24F033EF24F01C81D890AD
:104868002F373037313732372051285D21512959B8
:1048780022512A5923512B59D8A045EF24F047EF4C
:1048880024F050EF24F0328D2051285F2151295B0C
:1048980022512A5B23512B5B342B190E346557EFB9
:1048A80024F059EF24F019EF24F0285129112A1186
:1048B8002B11D8B462EF24F064EF24F07CEF24F0DD
:1048C8002F817CEF24F0D8901C371D371E371F37F7
:1048D80032AF71EF24F073EF24F074EF24F01C81F1
:1048E800D8902F373037313732372D07D8A02E07D9
:1048F8001EAF81EF24F083EF24F067EF24F0000E61
:10490800346F32AF8AEF24F08CEF24F0B0EF24F04C
:10491800FF0E2F15246FFF0E3015256FFF0E311572
:10492800266F7F0E3215276F245125112611271166
:10493800D8B4A1EF24F0A3EF24F0A7EF24F0010EE0
:10494800346FB0EF24F01CA1ACEF24F0AEEF24F0EC
:10495800B0EF24F0A3EF24F03451D8B4B6EF24F02C
:10496800B8EF24F0DCEF24F0010E1C27000E1D2305
:104978001E231F231FA1C3EF24F0C5EF24F0DCEF93
:1049880024F01CC124F11DC125F11EC126F11FC14F
:1049980027F12735273326332533243324C11CF147
:1049A80025C11DF126C11EF127C11FF12D4B2E2B4C
:1049B8002EBFE7EF24F02E5108E12D29D8A0E7EF0C
:1049C80024F0E9EF24F0F4EF24F0000E2E6F2D69A7
:1049D800000E1C6F000E1D6F000E1E6F000E1F6F65
:1049E8002EBF01EF25F02E5106E12D05D8B0FFEFBF
:1049F80024F001EF25F00FEF25F0000E2E6F000ECA
:104A08002D6F000E1C6F000E1D6F000E1E6F000E26
:104A18001F6F000E2C6F2DC133F133A116EF25F057
:104A280018EF25F01BEF25F01E8F1CEF25F01E9FB9
:104A3800D89033311F6FD2EF23F012000450800B4F
:104A4800116E04500424186E03AE2DEF25F02FEFDD
:104A580025F030EF25F018801850D8B436EF25F03F
:104A680038EF25F04DEF25F01828D8A43EEF25F0B3
:104A780040EF25F048EF25F0000E016E000E026EA3
:104A8800000E036E000E046E038E000E046E55EFCA
:104A980025F0000E016E000E026E000E036E000E71
:104AA800046E0850800B111A08500824196E07AEBE
:104AB80060EF25F062EF25F063EF25F019801950BB
:104AC800D8B469EF25F06BEF25F080EF25F01928B1
:104AD800D8A471EF25F073EF25F07BEF25F0000ED9
:104AE800056E000E066E000E076E000E086E078E2D
:104AF800000E086E88EF25F0000E056E000E066E9B
:104B0800000E076E000E086E0550061007100810FC
:104B1800D8A491EF25F093EF25F0ABEF25F0000E28
:104B2800016E000E026E000E036E000E046E800E03
:104B380003127F0E04121150041201C001F002C0CA
:104B480002F003C003F004C004F0EEEF26F01850A2
:104B5800D8A4B1EF25F0B3EF25F0BDEF25F0000E96
:104B6800016E000E026E000E036E000E046EEEEF74
:104B780026F0195018C009F00A6A095E000E0A5A90
:104B88007F0E0924126E000E0A20136E01C00DF06C
:104B980002C00EF003C00FF004C010F0000E016E4A
:104BA800000E026E000E036E000E046E000E146EF0
:104BB800000E156E000E166E000E176E000E196EA2
:104BC8001EEF26F01950D8B4ECEF25F0EEEF25F0E3
:104BD80005EF26F0D8900D360E360F361036D890E1
:104BE800013602360336043617AEFDEF25F0FFEF27
:104BF80025F000EF26F00180D890143615361636C9
:104C0800173605500D5C06500E5807500F580850BF
:104C18001058D8A012EF26F014EF26F01DEF26F05A
:104C2800178C05500D5E06500E5A07500F5A085043
:104C3800105A192A190E196424EF26F026EF26F0C7
:104C4800E6EF25F00D500E100F101010D8B42FEF0E
:104C580026F031EF26F049EF26F0148049EF26F0D0
:104C6800D890013602360336043617AE3EEF26F0EA
:104C780040EF26F041EF26F00180D8901436153623
:104C8800163617361206D8A0130603AE4EEF26F0D6
:104C980050EF26F034EF26F0000E196E17AE57EFDE
:104CA80026F059EF26F07DEF26F0FF0E1414096E5A
:104CB800FF0E15140A6EFF0E16140B6E7F0E1714D6
:104CC8000C6E09500A100B100C10D8B46EEF26F0B9
:104CD80070EF26F074EF26F0010E196E7DEF26F0C6
:104CE80001A079EF26F07BEF26F07DEF26F070EF3C
:104CF80026F01950D8B483EF26F085EF26F0A9EFF7
:104D080026F0010E0126000E02220322042204A02E
:104D180090EF26F092EF26F0A9EF26F001C009F0F7
:104D280002C00AF003C00BF004C00CF00C340C32C3
:104D38000B320A32093209C001F00AC002F00BC076
:104D480003F00CC004F0124A132A13BEB4EF26F085
:104D5800135008E11228D8A0B4EF26F0B6EF26F0D9
:104D6800C1EF26F0000E136E1268000E016E000EE1
:104D7800026E000E036E000E046E13BECEEF26F018
:104D8800135006E11204D8B0CCEF26F0CEEF26F08F
:104D9800DCEF26F0000E136E000E126E000E016E90
:104DA800000E026E000E036E000E046E000E116EF1
:104DB80012C018F018A0E3EF26F0E5EF26F0E8EFB0
:104DC80026F0038EE9EF26F0039ED8901830046E83
:104DD8009FEF25F012000CEC0CF002011C51D8B426
:104DE800F8EF26F0FAEF26F0A6EF28F0020E9F6FF4
:104DF800FE0EA06F07EC4EF026EF27F03A0E0201E8
:104E08009F6FFE0EA06F07EC4EF041EF27F02B0EC0
:104E180002019F6FFF0EA06F07EC4EF041EF27F0E5
:104E2800780E02019F6FFF0EA06F07EC4EF041EF66
:104E380027F0C30E02019F6FFE0EA06F07EC4EF025
:104E480041EF27F0020101510101BE6FBF6BBF5155
:104E5800000AD8B432EF27F01DEF27F0BE51000A40
:104E6800D8B40BEF27F0010AD8B402EF27F0030AF1
:104E7800D8B414EF27F01DEF27F00B0E0101BF6F18
:104E8800260EBE6F5D0EE82EFED7BE2FFCD7BF2FB5
:104E9800FAD700D0B30E02019F6FFE0EA06F12C2A8
:104EA800A1F213C2A2F207EC4EF0520E02019F6F5C
:104EB800FF0EA06F14C2A1F215C2A2F216C2A3F28D
:104EC80017C2A4F207EC4EF00B0E0101BF6F260EBD
:104ED800BE6F5D0EE82EFED7BE2FFCD7BF2FFAD7C8
:104EE80000D0810E02019F6FFE0EA06F00C2A1F2DA
:104EF800A26B07EC4EF0000E02019F6FFF0EA06F31
:104F080002C2A1F2A26B07EC4EF00B0E0101BF6FBB
:104F1800260EBE6F5D0EE82EFED7BE2FFCD7BF2F24
:104F2800FAD700D0E20E02019F6FFE0EA06F045167
:104F3800A16FA26B0351A36FA46B07EC4EF005C2DF
:104F4800B4F206C2B5F207C2B6F208C2B7F209C295
:104F5800B8F24C0E02019F6FFE0EA06FB8C2A1F20C
:104F6800A26BB7C2A3F2A46BB6C2A5F2A66BB5C278
:104F7800A7F2A86BB4C2A9F2AA6B07EC4EF00B0E0D
:104F88000101BF6F260EBE6F5D0EE82EFED7BE2F45
:104F9800FCD7BF2FFAD700D0380E02019F6FFF0E43
:104FA800A06F0AC2BEF10101BE3B0F0EBE170F0E65
:104FB800BE17BE510201A16FA26B0AC2BFF10F0E4C
:104FC8000101BF17BF510201A36FA46B07EC4EF09C
:104FD8009C0E02019F6FFF0EA06F0DC2A1F20EC2C0
:104FE800A2F2A36BA46B07EC4EF00A0E02019F6FAE
:104FF800FF0EA06F22EE0BF0FF0EDE14A16FFF0E66
:10500800DE14A26F000EDE14A36F000EDE14A46F70
:1050180007EC4EF00B0E0101BF6F260EBE6F5D0E42
:10502800E82EFED7BE2FFCD7BF2FFAD700D0D00E60
:105038000101BE6F070EBF6F22EE0FF0DECFC0F189
:10504800DDCFC1F1040EC26FD890C133C033C22F77
:1050580028EF28F0C051BE250201B16F000E0101F2
:10506800BF210201B26F0F510F0BB36F450E9F6F37
:10507800FF0EA06FB3C2A1F2A26BB1C2A3F2B2C27B
:10508800A4F207EC4EF0B30E02019F6FFF0EA06F63
:1050980011C2A1F2A26B07EC4EF00B0E0101BF6F1B
:1050A800260EBE6F5D0EE82EFED7BE2FFCD7BF2F93
:1050B800FAD700D01D0E02019F6FFF0EA06F07ECFC
:1050C8004EF0D30E02019F6FFF0EA06F18C2A1F21F
:1050D80019C2A2F21AC2A3F21BC2A4F207EC4EF044
:1050E8000B0E0101BF6F260EBE6F5D0EE82EFED7B8
:1050F800BE2FFCD7BF2FFAD700D05E0E02019F6FDC
:10510800FE0EA06F07EC4EF0DB0E02019F6FFF0E44
:10511800A06F14C2A1F215C2A2F216C2A3F217C25E
:10512800A4F207EC4EF00B0E0101BF6F260EBE6F06
:105138005D0EE82EFED7BE2FFCD7BF2FFAD700D0C2
:10514800ACEF28F0280E9F6FFE0EA06F07EC4EF014
:1051580012001E6E200E9AEC4EF0010E9AEC4EF0E4
:105168001F0E1E64BAEF28F0BCEF28F0C4EF28F039
:105178007E0E1E64C2EF28F0C4EF28F0C6EF28F0B8
:105188003F0E1E6E0950D8B4CCEF28F0CEEF28F0B1
:10519800D6EF28F0040E0964D4EF28F0D6EF28F0F3
:1051A800D8EF28F0010E096E000E176EEBEF28F00D
:1051B80009C001F07E5078EC4DF0E806D8B4E7EF6E
:1051C80028F0E9EF28F008EF29F07E2A172AFF0EC9
:1051D8000A6EFF0E0B6E09500C6E0D6A0A500C26F3
:1051E8000B500D2217500E6E0F6A0C500E5C0F50AC
:1051F800800A106E0D50800A1058D8A006EF29F0CA
:1052080008EF29F0DCEF28F0150E7E640EEF29F088
:1052180010EF29F01DEF29F0010E7E6E0101EE510D
:10522800D8B419EF29F01BEF29F01DEF29F0095028
:10523800EF27210E9AEC4EF07E04060DF3509AECFF
:105248004EF00950050DF3CF0AF07E50060DF350CD
:105258000A24F90F9AEC4EF0220E9AEC4EF0010156
:10526800EF059AEC4EF009500101EF25FE0F9AEC7C
:105278004EF0B9EC4EF00101E3512FEC4FF0400E27
:1052880036EC49F0000E1D6ED5C011F0D6C012F0F4
:10529800D7C013F0D8C014F0530E1E6056EF29F093
:1052A80058EF29F073EF29F01E50E00F050DF3CFEA
:1052B8001AF0CF0E0A6EFB0E0B6E1A500A26000E5D
:1052C8000B221D500A26000E0B220AC0F6FF0BC047
:1052D800F7FFF86A0800F5CF19F08CEF29F01E5097
:1052E800AD0F050DF3CF1AF0CE0E0A6EFC0E0B6E45
:1052F8001A500A26000E0B221D500A26000E0B22F9
:105308000AC0F6FF0BC0F7FFF86A0800F5CF19F0DE
:105318000904D8A492EF29F094EF29F099EF29F025
:10532800195036EC49F01BEF2AF0000E1F6E1FC013
:105338000AF0010E0B6E0A2AA4EF29F0D8900B365A
:105348000A2EA2EF29F00B5019140009D8B4AFEFB8
:1053580029F0B1EF29F0EDEF29F0000E1C6EE4EF13
:1053680029F01F500902F3501C24070B156E1F501B
:105378000902F3CF0AF0F4CF0BF01C500A24016E97
:10538800000E0B20026E000E046E080E036E4CEC2D
:1053980041F00150166E15C00AF0010E0B6E0A2A74
:1053A800D8EF29F0D8900B360A2ED6EF29F0110E37
:1053B8001624D96EDA6A000EDA220B50DF121C2A84
:1053C80009501C5CD8A0EBEF29F0EDEF29F0B5EF00
:1053D80029F01F2A070E1F64F4EF29F0F6EF29F0D1
:1053E8009BEF29F0000E186E12EF2AF0000E1B6ECC
:1053F80008EF2AF0110E1B24D96EDA6A000EDA22A1
:10540800DF5036EC49F01B2A09501B5CD8A00FEF7F
:105418002AF011EF2AF0FEEF29F0182A0950185C3B
:10542800D8A019EF2AF01BEF2AF0FAEF29F01D2A6D
:10543800040E1D6422EF2AF024EF2AF048EF29F029
:1054480079EC4EF009507E26150E7E642EEF2AF078
:1054580030EF2AF03DEF2AF0010E7E6E0101EE5189
:10546800D8B439EF2AF03BEF2AF03DEF2AF0095083
:10547800EF27200E9AEC4EF0000E9AEC4EF0120038
:105488000101D8BF4AEF2AF04CEF2AF04DEF2AF07D
:10549800D993D8BF5AEF2AF0D85106E1D705D8B02A
:1054A80058EF2AF05AEF2AF060EF2AF0000E3F6F0B
:1054B800010E3E6F64EF2AF0D7C13EF1D8C13FF12B
:1054C800D5C140F1D6C141F1D9A96DEF2AF06FEFEE
:1054D8002AF073EF2AF0FE0E4027FF0E41232DC15C
:1054E80042F12EC143F12FC144F130C145F131C120
:1054F80046F132C147F133C148F134C149F1000ED8
:105508004B6F4F0E4A6F000E02018E6F26EF2BF085
:105518004A07D8A04B070F0E42154C6F4D6B4DBF75
:105528009FEF2AF04D5109E10A0E4C5DD8A09FEF7C
:105538002AF0A1EF2AF0A9EF2AF0570E4C254C6F5C
:10554800000E4D214D6FAFEF2AF0300E4C254C6FF9
:10555800000E4D214D6FBF0E366FFF0E376F355160
:10556800386F396B3651382737513923395107E1AC
:105578001A0E385DD8B0C3EF2AF0C5EF2AF0E8EF6D
:105588002AF09F0E366FFF0E376F200E4C11386FC2
:10559800000E4D11396F365138273751392339519B
:1055A80007E11A0E385DD8B0DCEF2AF0DEEF2AF0FA
:1055B800E8EF2AF04CC114F14DC115F1B7EC4AF0EF
:1055C80014C14CF115C14DF13F0E01014A25D96EA8
:1055D800020E4B21DA6E4CC1DFFF3E07D8A03F0711
:1055E8004007D8A0410742C136F143C137F144C151
:1055F80038F145C139F146C13AF147C13BF148C1DB
:105608003CF149C13DF1050E13EF2BF0D8903D3325
:105618003C333B333A333933383337333633E82E78
:105628000AEF2BF036C142F137C143F138C144F1DA
:1056380039C145F13AC146F13BC147F13CC148F196
:105648003DC149F101014BBF33EF2BF04B5109E14B
:10565800020E4A5DD8A033EF2BF035EF2BF065EF43
:105668002BF042514311441145114611471148117D
:105678004911D8A442EF2BF044EF2BF08CEF2AF01D
:105688003FBF51EF2BF03F5106E13E05D8B04FEF39
:105698002BF051EF2BF08CEF2AF041BF5CEF2BF091
:1056A800415108E14005D8A05CEF2BF05EEF2BF0EC
:1056B80065EF2BF0D9B363EF2BF065EF2BF08CEF90
:1056C8002AF0D9A96AEF2BF06CEF2BF082EF2BF0C0
:1056D8004A07D8A04B073F0E4A25D96E020E4B2128
:1056E800DA6E35C1DFFF4A07D8A04B073F0E4A25BF
:1056F800D96E020E4B21DA6E300EDF6E2BC120F10F
:105708002CC121F13F0E4A25226F020E4B21236F37
:1057180040C124F141C125F1BCEC3FF020C12BF17F
:1057280021C12CF112000101D8BF9DEF2BF09FEF92
:105738002BF0A0EF2BF0D993D8BFADEF2BF0D851B9
:1057480006E1D705D8B0ABEF2BF0ADEF2BF0B3EFF8
:105758002BF0000E326E010E316EB7EF2BF0D7C171
:1057680031F0D8C132F0D5C133F0D6C134F0D9A95F
:10577800C0EF2BF0C2EF2BF0C6EF2BF0FE0E332656
:10578800FF0E342220C035F021C036F022C037F099
:1057980023C038F024C039F025C03AF026C03BF0C9
:1057A80027C03CF0000E3E6E4F0E3D6E000E02010B
:1057B8008E6F78EF2CF03D06D8A03E060F0E3514FC
:1057C8003F6E406A40BEF2EF2BF0405009E10A0EEE
:1057D8003F5CD8A0F2EF2BF0F4EF2BF0FCEF2BF0AE
:1057E800570E3F243F6E000E4020406E02EF2CF013
:1057F800300E3F243F6E000E4020406EBF0E296ED3
:10580800FF0E2A6E28502B6E2C6A29502B262A5000
:105818002C222C5007E11A0E2B5CD8B016EF2CF076
:1058280018EF2CF03BEF2CF09F0E296EFF0E2A6E1E
:10583800200E3F102B6E000E40102C6E29502B2688
:105848002A502C222C5007E11A0E2B5CD8B02FEFCF
:105858002CF031EF2CF03BEF2CF03FC003F040C0B0
:1058680004F042EC4BF003C03FF004C040F03F0EA0
:105878003D24D96E020E3E20DA6E3FC0DFFF3106AE
:10588800D8A032063306D8A0340635C029F036C071
:105898002AF037C02BF038C02CF039C02DF03AC0B0
:1058A8002EF03BC02FF03CC030F0050E65EF2CF019
:1058B800D89030322F322E322D322C322B322A32DF
:1058C8002932E82E5CEF2CF029C035F02AC036F0DA
:1058D8002BC037F02CC038F02DC039F02EC03AF06C
:1058E8002FC03BF030C03CF03EBE84EF2CF03E5061
:1058F80009E1020E3D5CD8A084EF2CF086EF2CF075
:10590800B7EF2CF0355036103710381039103A10E0
:105918003B103C10D8A493EF2CF095EF2CF0DFEF60
:105928002BF032BEA2EF2CF0325006E13104D8B091
:10593800A0EF2CF0A2EF2CF0DFEF2BF034BEADEF90
:105948002CF0345008E13304D8A0ADEF2CF0AFEFC1
:105958002CF0B7EF2CF00101D9B3B5EF2CF0B7EF6D
:105968002CF0DFEF2BF00101D9A9BDEF2CF0BFEF30
:105978002CF0D5EF2CF03D06D8A03E063F0E3D2476
:10598800D96E020E3E20DA6E28C0DFFF3D06D8A091
:105998003E063F0E3D24D96E020E3E20DA6E300ED2
:1059A800DF6E1EC013F01FC014F03F0E3D24156EAD
:1059B800020E3E20166E33C017F034C018F0E9EC22
:1059C80040F013C01EF014C01FF01200CBC145F107
:1059D800CCC146F1CDC147F1CEC148F135C145F141
:1059E80036C146F137C147F138C148F1810E01018E
:1059F800396FFF0E3A6F45C13BF146C13CF147C1D3
:105A08003DF148C13EF1180E0FEF2DF0D8903E330E
:105A18003D333C333B33E82E0AEF2DF03B5139251B
:105A2800436F000E3A21446F44BF24EF2DF04451D8
:105A380009E1170E435DD8A024EF2DF026EF2DF0D5
:105A480030EF2DF035C135F136C136F137C137F1B8
:105A580038C138F1F4EF2DF044BF35EF2DF037EFB2
:105A68002DF0A8EF2DF043C139F1FF0E3A6FFF0E6C
:105A78003B6F7F0E3C6F000E3D6F396746EF2DF090
:105A88004EEF2DF03D353D333C333B333A33392F20
:105A980041EF2DF03AC13FF13BC140F13CC141F12A
:105AA8003DC142F101013F514515396F405146153D
:105AB8003A6F415147153B6F425148153C6F395178
:105AC8003A113B113C11D8A46CEF2DF06EEF2DF07C
:105AD80070EF2DF026EF2DF045C139F146C13AF1AE
