:0400000007EF00F016
:100008007E82E9ED48F0B8EF51F0000E726E000EF6
:10001800716E67506810D8B414EF00F016EF00F056
:1000280022EF00F067C0D9FF68C0DAFF65C0DEFFC5
:1000380066C0DDFF22EF00F0654A662A65C0D9FF79
:1000480066C0DAFF200EDE18D8B42DEF00F030EFCE
:1000580000F0010E31EF00F0000E776E786A7750ED
:100068007810D8A43AEF00F03CEF00F020EF00F051
:1000780065C0D9FF66C0DAFFDF50696E6950776ED8
:10008800786A77C06AF0F70E6A26040E6A644FEF42
:1000980000F051EF00F020EF00F0000E746E2D0E0E
:1000A80077187810D8A45BEF00F05DEF00F063EFED
:1000B80000F0010E746E654A662A6FEF00F02B0E91
:1000C80077187810D8A46BEF00F06DEF00F06FEFA1
:1000D80000F05FEF00F0000E7D6E74EF00F07D2AF7
:1000E8007D506524D96E000E6620DA6EDF50D8B4D4
:1000F80080EF00F082EF00F0B8EF00F07D5065244B
:10010800D96E000E6620DA6EDF50696EAA0E7D2465
:10011800F66EF76AFF0EF722F86A000EF82208005A
:10012800F5506918D8B49BEF00F09DEF00F073EF1D
:1001380000F07D506524D96E000E6620DA6EDF501F
:10014800696EA10E7D24F66EF76AFF0EF722F86A33
:10015800000EF8220800F5506918D8B4B6EF00F080
:10016800B8EF00F073EF00F0020E7D64BEEF00F010
:10017800C0EF00F0ECEF00F0000E796E000E7A6E22
:10018800800E7B6E7F0E7C6E67506810D8B4CFEF00
:1001980000F0D1EF00F004EF08F0080E7D18D8B495
:1001A800D8EF00F0DAEF00F0DCEF00F0030E7D6E20
:1001B8007D506524696E000E66206A6E67C0D9FF9F
:1001C80068C0DAFF69C0DEFF6AC0DDFF04EF08F02F
:1001D800000E7D6EF1EF00F07D2A7D506524D96E0A
:1001E800000E6620DA6EDF50D8B4FDEF00F0FFEFA6
:1001F80000F035EF01F07D506524D96E000E6620C1
:10020800DA6EDF50696EF00E7D24F66EF76AFF0E27
:10021800F722F86A000EF8220800F5506918D8B4D9
:1002280018EF01F01AEF01F0F0EF00F07D506524AF
:10023800D96E000E6620DA6EDF50696EE80E7D24F6
:10024800F66EF76AFF0EF722F86A000EF822080029
:10025800F5506918D8B433EF01F035EF01F0F0EF3D
:1002680000F0030E7D18D8A43CEF01F03EEF01F03A
:10027800ACEF01F0CC0E016EFF0E026ED7EC5EF013
:1002880001C079F002C07AF003C07BF004C07CF0B2
:1002980067506810D8B453EF01F055EF01F004EF40
:1002A80008F07D506526000E662265C0D9FF66C03D
:1002B800DAFF280EDE18D8A464EF01F066EF01F02B
:1002C800A2EF01F0000E7D6E6BEF01F07D2A7D50EC
:1002D8006524D96E000E6620DA6EDF50D8B477EF49
:1002E80001F079EF01F088EF01F07D506524D96EB7
:1002F800000E6620DA6E290EDE18D8A486EF01F00B
:1003080088EF01F06AEF01F07D506524D96E000E88
:100318006620DA6E290EDE18D8A495EF01F097EF63
:1003280001F0A2EF01F07D50696E6A6A010E69263C
:10033800000E6A22695065266A50662267C0D9FF96
:1003480068C0DAFF65C0DEFF66C0DDFF04EF08F0B5
:10035800000E786E000E776E000E796E000E7A6EC3
:10036800000E7B6E000E7C6E000E6F6E000E706EBF
:10037800000E766E000E756E000E7D6EC5EF01F0F4
:100388007D2A7D506524D96E000E6620DA6E300E07
:10039800DE18D8B4D2EF01F0D4EF01F0C4EF01F0C9
:1003A8007D50D8B4DAEF01F0DCEF01F07DEF05F015
:1003B8007D506524D96E000E6620DA6E780EDE1840
:1003C800D8B4E9EF01F0EBEF01F0FAEF01F07D505E
:1003D8006524D96E000E6620DA6E580EDE18D8A491
:1003E800F8EF01F0FAEF01F07DEF05F07D5065249C
:1003F800696E000E66206A6E010E6924D96E000EC1
:100408006A20DA6EDF506B6E6B50016E026A19EC6F
:1004180058F001500210D8A414EF02F016EF02F0C1
:100428002DEF02F07D506524696E000E66206A6E1D
:10043800010E6924D96E000E6A20DA6E2E0EDE18BF
:10044800D8B429EF02F02BEF02F02DEF02F0A1EF64
:1004580004F07DC06FF07D2A7D506524D96E000EB2
:100468006620DA6E300EDE18D8B43DEF02F03FEFAA
:1004780002F02FEF02F07D506524D96E000E662041
:10048800DA6E700EDE18D8B44CEF02F04EEF02F0C0
:10049800BCEF03F07D506524D96E000E6620DA6E3D
:1004A800500EDE18D8A45BEF02F05DEF02F05FEFAC
:1004B80002F0BCEF03F07D506524D96E000E662073
:1004C800DA6E2E0EDE18D8A46CEF02F06EEF02F092
:1004D80074EF02F074887DC070F07D2ABCEF03F0E1
:1004E8007D506524D96E000E6620DA6EDF50696E85
:1004F8006950016E026A19EC58F001500210D8B424
:1005080088EF02F08AEF02F0A1EF04F0000E736E9C
:100518007D506524D96E000E6620DA6EDF50696E54
:100528006950016E026A17EC5EF001500210D8B4EF
:10053800A0EF02F0A2EF02F0ADEF02F07D506524CB
:10054800D96E000E6620DA6EDF50D00F736EBDEFE5
:1005580002F07D506524D96E000E6620DA6EDF50F9
:10056800696E6950016E026AE9EC5DF00150C90FCD
:10057800736E78BECBEF02F0785007E1080E775C17
:10058800D8B0C9EF02F0CBEF02F0EAEF02F07750F3
:100598000708696ED8906936D890693673C06AF0D2
:1005A8006B6A6C6A6D6A692ADFEF02F0D8906A3666
:1005B8006B366C366D36692EDAEF02F06A507912B6
:1005C8006B507A126C507B126D507C12774A782AE5
:1005D800040E7526000E76227D2A3FEF02F07D502C
:1005E8006524D96E000E6620DA6E300EDE18D8A4A7
:1005F80000EF03F002EF03F011EF03F077507810EB
:10060800D8A409EF03F00BEF03F011EF03F0FC0E91
:100618007526FF0E7622BBEF03F07D506524D96E58
:10062800000E6620DA6EDF50696E6950016E026A4C
:1006380019EC58F001500210D8B425EF03F027EF59
:1006480003F08BEF03F0000E736E7D506524D96EB6
:10065800000E6620DA6EDF50696E6950016E026A1C
:1006680017EC5EF001500210D8B43DEF03F03FEFF5
:1006780003F04AEF03F07D506524D96E000E662022
:10068800DA6EDF50D00F736E5AEF03F07D50652499
:10069800D96E000E6620DA6EDF50696E6950016E01
:1006A800026AE9EC5DF00150C90F736E78BE68EF1D
:1006B80003F0785007E1080E775CD8B066EF03F0D6
:1006C80068EF03F087EF03F077500708696ED8905A
:1006D8006936D890693673C06AF06B6A6C6A6D6A5D
:1006E800692A7CEF03F0D8906A366B366C366D3623
:1006F800692E77EF03F06A5079126B507A126C50BA
:100708007B126D507C12774A782ABBEF03F07D503C
:10071800696E6A6A70506B6E6C6A010E6B26000E09
:100728006C2269506B1807E16A506C18D8A49FEFC7
:1007380003F0A1EF03F0C3EF03F07050696E6A6A2B
:100748006F506B6E6C6A010E6B26000E6C2269503E
:100758006B1807E16A506C18D8A4B5EF03F0B7EF2F
:1007680003F0C3EF03F06FC07DF0A1EF04F07D2A22
:1007780074B8C1EF03F0C3EF03F0F3EF02F07D505C
:100788006526000E6622000E7D6E65C0D9FF66C024
:10079800DAFF700EDE18D8B4D4EF03F0D6EF03F00A
:1007A800E5EF03F065C0D9FF66C0DAFF500EDE182A
:1007B800D8B4E1EF03F0E3EF03F0E5EF03F0A1EFC6
:1007C80004F07D2A20EE01F06550D9266650DA2221
:1007D8002B0EDE18D8A4F3EF03F0F5EF03F0F8EFD3
:1007E80003F07D2A09EF04F020EE01F06550D926C8
:1007F8006650DA222D0EDE18D8A405EF04F007EFB4
:1008080004F009EF04F074867D2A7D506524D96EC2
:10081800000E6620DA6EDF50696E6950016E026A5A
:1008280017EC5EF001500210D8A41DEF04F01FEF82
:1008380004F023EF04F0000E7D6EA1EF04F07D506C
:100848006526000E6622000E7D6E2CEF04F07D2AD0
:100858007D506524D96E000E6620DA6E300EDE18E3
:10086800D8B439EF04F03BEF04F02BEF04F0000E9E
:10087800786E000E776E6AEF04F07D50D8B447EFBB
:1008880004F049EF04F057EF04F077C001F078C0A6
:1008980002F0000E046E0A0E036E8FEC5EF001C0CB
:1008A80077F002C078F07D506524D96E000E66207E
:1008B800DA6EDF50696ED00E69246A6E6B6AFF0EBD
:1008C8006B226A5077266B5078227D2A7D506524EA
:1008D800D96E000E6620DA6EDF50696E6950016EBF
:1008E800026A17EC5EF001500210D8A47EEF04F003
:1008F80080EF04F041EF04F07D50D8A486EF04F0B7
:1009080088EF04F092EF04F0000E656E000E666E3C
:10091800000E676E000E686E3AEF08F074A697EF47
:1009280004F099EF04F09DEF04F0776C781ED8B0CE
:10093800782A775075267850762267506810D8B490
:10094800A8EF04F0AAEF04F0B8EF04F07D50652496
:10095800696E000E66206A6E67C0D9FF68C0DAFF4C
:1009680069C0DEFF6AC0DDFF79507A107B107C1009
:10097800D8A4C1EF04F0C3EF04F0CDEF04F0000EEB
:10098800656E000E666E000E676E000E686E3AEFBA
:1009980008F0FF0E7914696E000E7A146A6E000E64
:1009A8007B146B6E000E7C146C6E6C506B106A10AE
:1009B80009E1810E695CD8A0E4EF04F0E6EF04F0E9
:1009C800F8EF04F0000E7926010E7A22000E7B2241
:1009D800000E7C22F8EF04F0D89079367A367B3610
:1009E8007C367506D8A076067CAEFDEF04F0FFEFE6
:1009F80004F0F0EF04F076AE0BEF05F0830E755CB3
:100A0800FF0E7658D8B00BEF05F00DEF05F019EF93
:100A180005F0FF0E766E810E756E000E796E000E73
:100A28007A6E000E7B6E000E7C6E810E751808E1E2
:100A38007628D8B422EF05F024EF05F02CEF05F066
:100A4800D89079367A367B367C367506D8A0760605
:100A580076BE38EF05F0765009E1800E755CD8A0B7
:100A680038EF05F03AEF05F04CEF05F0000E796E1F
:100A7800000E7A6E000E7B6E000E7C6E000E766E97
:100A8800800E756E000E726E220E716E04EF08F005
:100A9800090E696ED8907C327B327A327932692EAF
:100AA8004EEF05F0FF0E7916FF0E7A167F0E7B16B5
:100AB800000E7C167F0E7524696E000E76206A6E15
:100AC800FF0E69146B6E6C6A6D6A6E6A170ED890A9
:100AD8006B366C366D366E36E82E6BEF05F06B5064
:100AE80079126C507A126D507B126E507C1204EFA2
:100AF80008F074B882EF05F084EF05F096EF05F082
:100B080065C0D9FF66C0DAFF2E0EDE18D8A48FEFB5
:100B180005F091EF05F096EF05F07488654A662AAE
:100B28007DEF05F065C0D9FF66C0DAFFDF50696E5A
:100B38006950016E026A17EC5EF001500210D8A4E9
:100B4800A8EF05F0AAEF05F0ACEF05F0FAEF05F015
:100B58007482090E77187810D8B4B5EF05F0B7EF9E
:100B680005F0EDEF05F074A8BCEF05F0BEEF05F059
:100B7800C1EF05F07506D8A07606774A782A79C0BD
:100B880001F07AC002F07BC003F07CC004F00A0ECA
:100B9800056E000E066E000E076E000E086E97ECCE
:100BA80056F001C079F002C07AF003C07BF004C0AF
:100BB8007CF065C0D9FF66C0DAFFDF50696ED00EE1
:100BC800692669507926000E7A227B227C22F6EF6C
:100BD80005F074B8F2EF05F0F4EF05F0F6EF05F064
:100BE800754A762A654A662A7DEF05F0000E786E0A
:100BF800000E776E65C0D9FF66C0DAFF650EDE1895
:100C0800D8B409EF06F00BEF06F018EF06F065C050
:100C1800D9FF66C0DAFF450EDE18D8A416EF06F035
:100C280018EF06F0A0EF06F0654A662A65C0D9FFFE
:100C380066C0DAFF2D0EDE18D8A425EF06F027EFE0
:100C480006F02CEF06F07486654A662A3BEF06F03C
:100C580065C0D9FF66C0DAFF2B0EDE18D8A437EFBF
:100C680006F039EF06F03BEF06F0654A662A65C0E4
:100C7800D9FF66C0DAFF300EDE18D8B446EF06F0AA
:100C880048EF06F039EF06F0000E736E67EF06F0D6
:100C980065C0D9FF66C0DAFFDF50696ED00E6926DD
:100CA80077C001F078C002F0000E046E0A0E036EE1
:100CB8008FEC5EF069500124776E000E0220786E8A
:100CC800654A662A732A65C0D9FF66C0DAFFDF5015
:100CD800696E6950016E026A17EC5EF001500210ED
:100CE800D8A479EF06F07BEF06F04CEF06F07350CE
:100CF800D8A481EF06F083EF06F095EF06F02FEE0B
:100D0800FFF06550D9266650DA22300EDE18D8B4C6
:100D180090EF06F092EF06F095EF06F06506D8A082
:100D2800660674A69AEF06F09CEF06F0A0EF06F0B0
:100D3800776C781ED8B0782A775075267850762246
:100D480067506810D8B4ABEF06F0ADEF06F0BCEF13
:100D580006F074A2B2EF06F0B4EF06F0BCEF06F0AE
:100D680067C0D9FF68C0DAFF65C0DEFF66C0DDFF77
:100D780079C001F07AC002F07BC003F07CC004F0B7
:100D8800000E73EC3BF001C079F002C07AF003C0AA
:100D98007BF004C07CF079C001F07AC002F07BC01F
:100DA80003F07CC004F0000E056E000E066E000E07
:100DB800076E000E086E0FEC51F0D8A0E6EF06F0B3
:100DC800E8EF06F0F2EF06F0000E656E000E666EB4
:100DD800000E676E000E686E3AEF08F076BEF9EF07
:100DE80006F0F7EF06F087EF07F0756C761ED8B0BF
:100DF800762A1DEF07F079C00FF07AC010F07BC09B
:100E080011F07CC012F0F90E136E020E146E150E5E
:100E1800156E500E166E8FEC2FF00FC079F010C0C3
:100E28007AF011C07BF012C07CF0F60E7526FF0E2A
:100E3800762276BE2BEF07F0765007E10A0E755C36
:100E4800D8B029EF07F02BEF07F0FFEF06F04AEFD5
:100E580007F079C00FF07AC010F07BC011F07CC0A9
:100E680012F0000E136E000E146E200E156E410E59
:100E7800166E8FEC2FF00FC079F010C07AF011C009
:100E88007BF012C07CF07506D8A0760675507610F7
:100E9800D8A451EF07F053EF07F02DEF07F079C012
:100EA80059F07AC05AF07BC05BF07CC05CF0000E51
:100EB8005D6E000E5E6E800E5F6E000E606EEBEC77
:100EC80046F0D8B06AEF07F06CEF07F004EF08F0CF
:100ED80074A071EF07F073EF07F07DEF07F0000ED5
:100EE800656E000E666E800E676E800E686E3AEF55
:100EF80008F0000E656E000E666E800E676E000EBE
:100F0800686E3AEF08F076BE92EF07F0765008E187
:100F18007504D8A092EF07F094EF07F004EF08F0FB
:100F2800B4EF07F079C040F07AC041F07BC042F0DE
:100F38007CC043F0F90E446E020E456E150E466EE7
:100F4800500E476EACEC2BF040C079F041C07AF0FF
:100F580042C07BF043C07CF0F60E7526FF0E762269
:100F6800765007E10A0E755CD8B0BDEF07F0BFEF09
:100F780007F096EF07F0DEEF07F079C040F07AC08F
:100F880041F07BC042F07CC043F0000E446E000E7E
:100F9800456E200E466E410E476EACEC2BF040C0FD
:100FA80079F041C07AF042C07BF043C07CF075060E
:100FB800D8A0760675507610D8A4E5EF07F0E7EFCD
:100FC80007F0C1EF07F0FF0E596EFF0E5A6E7F0E45
:100FD8005B6E7F0E5C6E79C05DF07AC05EF07BC0A0
:100FE8005FF07CC060F0EBEC46F0D8B0FEEF07F0A5
:100FF80000EF08F004EF08F0000E726E220E716E1A
:1010080071507210D8B40BEF08F00DEF08F019EF1B
:1010180008F071C04EF272C04FF2000E796E000EE9
:101028007A6E800E7B6E7F0E7C6E74A01EEF08F0C9
:1010380020EF08F032EF08F079C001F07AC002F032
:101048007BC003F07CC004F0D1EC5CF001C079F007
:1010580002C07AF003C07BF004C07CF079C065F070
:101068007AC066F07BC067F07CC068F01200000EA2
:101078000301A56FD1C2A6F3D2C2A7F3D3C2A8F3C6
:10108800D4C2A9F3A9BF4DEF08F04BEF08F061EF08
:1010980008F0010EA56FA6C340F1A7C341F1A8C38C
:1010A80042F1A9C343F126EC5CF040C1A6F341C16B
:1010B800A7F342C1A8F343C1A9F3000E0301AB6F24
:1010C800000EAA6FB2C199F3B3C19AF3A551D8B46F
:1010D80070EF08F072EF08F086EF08F0A551D8A479
:1010E80078EF08F07AEF08F080EF08F0000E8B6FC9
:1010F8002B0E8A6F84EF08F0000E8B6F2D0E8A6F0F
:101108008AC3A5F3A6C340F1A7C341F1A8C342F11E
:10111800A9C343F16DEC47F0010140054111D8A482
:1011280098EF08F09AEF08F0D5EF08F00301A55101
:10113800D8B4A1EF08F0A3EF08F0ACEF08F0A5C30E
:101148006AF29907D8A09A07000EAB6F010EAA6F32
:101158006A0EAA250101406F020E0301AB210101AD
:10116800416FEC0E426FFF0E436F08EC5CF0030119
:10117800FD0E9927FF0E9A23CFC252F1D0C253F128
:101188006A0E0101546F020E556F99C356F19AC346
:1011980057F12AEC4DF052C1CFF253C1D0F2C1EF52
:1011A8000DF0A6C340F1A7C341F1A8C342F1A9C3FA
:1011B80043F16DEC47F0010140514111D8A4E7EF2C
:1011C80008F0E9EF08F00CEF09F00301A551D8B4D5
:1011D800F0EF08F0F2EF08F0FBEF08F0A5C36AF2B1
:1011E8009907D8A09A07000EAB6F010EAA6F6A0E76
:1011F800AA250101406F020E0301AB210101416FD5
:10120800F00E426FFF0E436F08EC5CF0BBEF08F086
:10121800000E0301AC6F000EAD6F800EAE6F3F0E77
:10122800AF6F000E946F000E936FA6C340F1A7C373
:1012380041F1A8C342F1A9C343F1000E0101446F73
:10124800000E456F000E466F000E476FB9EC50F068
:101258000101D8B032EF09F034EF09F02EEF0AF0AF
:1012680041EF09F095C3ACF396C3ADF397C3AEF362
:1012780098C3AFF30301934B942BACC34EF1ADC3AA
:101288004FF1AEC350F1AFC351F1000E0101526FDF
:10129800000E536F200E546F410E556F96EC29F0D7
:1012A8004EC195F34FC196F350C197F351C198F3CE
:1012B80003019551A65D0101406F03019651A7599D
:1012C8000101416F03019751A8590101426F0301C0
:1012D8009851A9590101436FEDEC57F0010143BF43
:1012E80081EF09F043514211411109E1020E405DBD
:1012F800D8A081EF09F083EF09F036EF09F095C324
:1013080067F196C368F197C369F198C36AF1A6C3F8
:101318006BF1A7C36CF1A8C36DF1A9C36EF1E5EC3D
:1013280045F00101D8A09BEF09F09DEF09F036EFD9
:1013380009F00301AC51A65D0101406F0301AD51F5
:10134800A7590101416F0301AE51A8590101426F2C
:101358000301AF51A9590101436FEDEC57F00101A9
:1013680043BFC4EF09F043514211411107E1020E96
:10137800405DD8B0C2EF09F0C4EF09F014EF0AF0ED
:10138800ACC3A6F3ADC3A7F3AEC3A8F3AFC3A9F329
:101398002EEF0AF0ACC34EF1ADC34FF1AEC350F11E
:1013A800AFC351F1000E526F000E536F200E546FF1
:1013B800410E556FC1EC2DF04EC1ACF34FC1ADF3EA
:1013C80050C1AEF351C1AFF303019307D8A09407FE
:1013D800AC51A65D0101406F0301AD51A759010150
:1013E800416F0301AE51A8590101426F0301AF518A
:1013F800A9590101436FEDEC57F0010143BF12EF0A
:101408000AF043514211411107E1020E405DD8B084
:1014180010EF0AF012EF0AF014EF0AF0C4EF09F027
:10142800A6C367F1A7C368F1A8C369F1A9C36AF1A4
:10143800ACC36BF1ADC36CF1AEC36DF1AFC36EF16C
:10144800E5EC45F00101D8A02CEF0AF02EEF0AF0E8
:10145800CEEF09F0D5C28DF38DC38EF3B5BF37EF4C
:101468000AF039EF0AF03FEF0AF0B4C186F3B5C1CC
:1014780087F344EF0AF0000E0301876F060E866FAC
:1014880086C391F387C392F30301914B922B660EA7
:101498008E19D8A452EF0AF054EF0AF074EF0AF04C
:1014A80094BF5BEF0AF059EF0AF067EF0AF0000EFD
:1014B800AC6F000EAD6F800EAE6F3F0EAF6F000EBB
:1014C800946F000E936F670E8D19D8B46EEF0AF003
:1014D80070EF0AF074EF0AF0935191279451922318
:1014E800000EA46F000EA36FA6C39BF3A7C39CF3C3
:1014F800A8C39DF3A9C39EF3ACC395F3ADC396F3FC
:10150800AEC397F3AFC398F306EF0BF09BC34EF14E
:101518009CC34FF19DC350F19EC351F1ACC352F12E
:10152800ADC353F1AEC354F1AFC355F1C1EC2DF0C7
:101538004EC167F14FC168F150C169F151C16AF1FB
:10154800DBEC35F067C19FF368C1A0F369C1A1F373
:101558006AC1A2F39FC367F1A0C368F1A1C369F18F
:10156800A2C36AF161EC45F067C18FF368C190F3DB
:101578009BC377F19CC378F19DC379F19EC37AF13F
:101588009FC352F1A0C353F1A1C354F1A2C355F1B3
:10159800ACC34EF1ADC34FF1AEC350F1AFC351F17F
:1015A80096EC29F04EC17BF14FC17CF150C17DF121
:1015B80051C17EF115EC5BF077C19BF378C19CF3C8
:1015C80079C19DF37AC19EF3ACC34EF1ADC34FF11F
:1015D800AEC350F1AFC351F1000E0101526F000EBE
:1015E800536F200E546F410E556FC1EC2DF04EC154
:1015F800ACF34FC1ADF350C1AEF351C1AFF303012A
:10160800A34BA42B9151A35DA451800A01017F6FC4
:1016180003019251800A01017F59D8A016EF0BF0FF
:1016280018EF0BF08AEF0AF0ACC34EF1ADC34FF1DF
:10163800AEC350F1AFC351F1000E526F000E536F9D
:10164800A00E546F400E556F96EC29F04EC19FF3D3
:101658004FC1A0F350C1A1F351C1A2F39BC367F1DD
:101668009CC368F19DC369F19EC36AF19FC36BF186
:10167800A0C36CF1A1C36DF1A2C36EF1E5EC45F016
:101688000101D8B04AEF0BF04CEF0BF057EF0BF01D
:10169800000E03019F6F000EA06F000EA16F000ED9
:1016A800A26F81EF0BF09BC340F19CC341F19DC336
:1016B80042F19EC343F19FC344F1A0C345F1A1C3C6
:1016C80046F1A2C347F1B9EC50F00101D8A06FEF81
:1016D8000BF071EF0BF081EF0BF003018FB177EF97
:1016E8000BF079EF0BF081EF0BF0000E9F6F000EFF
:1016F800A06F000EA16F000EA26FA6C367F1A7C36B
:1017080068F1A8C369F1A9C36AF19FC36BF1A0C3CB
:101718006CF1A1C36DF1A2C36EF18CEC20F067C12E
:101728009BF368C19CF369C19DF36AC19EF39BC397
:1017380067F19CC368F19DC369F19EC36AF1000E0D
:101748000101526F000E536F200E546F410E556FFA
:1017580095C34EF196C34FF197C350F198C351F119
:1017680096EC29F04EC16BF14FC16CF150C16DF18F
:1017780051C16EF1E5EC45F00101D8A0C6EF0BF0C0
:10178800C8EF0BF0F2EF0BF00301934B942B95C3CA
:101798004EF196C34FF197C350F198C351F1000E23
:1017A8000101526F000E536F200E546F410E556F9A
:1017B80096EC29F04EC195F34FC196F350C197F3BB
:1017C80051C198F3660E03018E19D8A4EEEF0BF001
:1017D800F0EF0BF0F2EF0BF0914B922B95C3ACF3BB
:1017E80096C3ADF397C3AEF398C3AFF393C384F333
:1017F80094C385F3000E03018C6F000E896F000EF1
:10180800886F000EA46F000EA36FF2EF0CF09BC35D
:101818004EF19CC34FF19DC350F19EC351F1ACC32F
:1018280052F1ADC353F1AEC354F1AFC355F1C1EC9E
:101838002DF04EC167F14FC168F150C169F151C136
:101848006AF1DBEC35F067C19FF368C1A0F369C1A9
:10185800A1F36AC1A2F39FC367F1A0C368F1A1C352
:1018680069F1A2C36AF161EC45F0010168BF48EF74
:101878000CF0685107E10A0E675DD8B046EF0CF02E
:1018880048EF0CF058EF0CF09FC367F1A0C368F164
:10189800A1C369F1A2C36AF161EC45F067C18FF396
:1018A80068C190F35DEF0CF0000E0301906F090E14
:1018B8008F6F03018C51D8A464EF0CF066EF0CF025
:1018C8008EEF0CF085BF6DEF0CF06BEF0CF08EEF28
:1018D8000CF06A0EAA25D96E020EAB21DA6E2E0E16
:1018E800DF6EAA4BAB2B9907D8A09A07010E8C6F15
:1018F8008EEF0CF06A0EAA25D96E020EAB21DA6EB5
:10190800300EDF6EAA4BAB2B9907D8A09A07880731
:10191800D8A0890788518911D8A495EF0CF097EFC2
:101928000CF07EEF0CF06A0EAA25D96E020EAB21E0
:10193800DA6E8F51300FDF6EAA4BAB2B9907D8A008
:101948009A079BC377F19CC378F19DC379F19EC335
:101958007AF19FC352F1A0C353F1A1C354F1A2C3BA
:1019680055F1ACC34EF1ADC34FF1AEC350F1AFC3A7
:1019780051F196EC29F04EC17BF14FC17CF150C179
:101988007DF151C17EF115EC5BF077C19BF378C115
:101998009CF379C19DF37AC19EF3ACC34EF1ADC3FC
:1019A8004FF1AEC350F1AFC351F1000E0101526FB8
:1019B800000E536F200E546F410E556FC1EC2DF081
:1019C8004EC1ACF34FC1ADF350C1AEF351C1AFF34B
:1019D80003018407D8A08507A34BA42B9151A35DCD
:1019E800A451800A01017F6F03019251800A01010D
:1019F8007F59D8B002EF0DF004EF0DF013EF0DF0A2
:101A08000301ABBF11EF0DF0AB5109E14B0EAA5D1D
:101A1800D8A011EF0DF013EF0DF00BEF0CF0000E46
:101A28000301A46F4F0EA36F6A0EA325D96E020E91
:101A3800A421DA6EDF6A6A0E01017F6F020E806FE1
:101A48000301AA5101017F5F0301AB510101805BD2
:101A58000301A35101017F25406F0301A451010136
:101A68008021416F6A0E426F020E436FAAC344F190
:101A7800ABC345F117EC59F00301AA51A35DAA6F56
:101A8800AB51A459AB6FA551D8A44DEF0DF050EF51
:101A98000DF0010E51EF0DF0000EA36FA46B0101C4
:101AA800B6A359EF0DF05BEF0DF092EF0DF06CEF70
:101AB8000DF00301AA07D8A0AB076A0EAA25D96EB4
:101AC800020EAB21DA6E300EDF6E9907D8A09A07A6
:101AD80003019951A35DA451800A01017F6F03019D
:101AE8009A51800A01017F59D8B07DEF0DF07FEF40
:101AF8000DF092EF0DF00301AA51A35DA451800AE5
:101B080001017F6F0301AB51800A01017F59D8A001
:101B180090EF0DF092EF0DF05DEF0DF00301A55180
:101B2800D8B499EF0DF09BEF0DF0A6EF0DF0AA07D2
:101B3800D8A0AB076A0EAA25D96E020EAB21DA6EC1
:101B4800A5C3DFFFA351995FA4519A5BCFC252F19D
:101B5800D0C253F16A0EAA250101546F020E030187
:101B6800AB210101556F99C356F19AC357F12AEC7D
:101B78004DF052C1CFF253C1D0F21200000E000155
:101B8800A16F67C0A2F068C0A3F069C0A4F06AC0E2
:101B9800A5F0A5BFD4EF0DF0D2EF0DF0E8EF0DF0F2
:101BA800010EA16FA2C001F0A3C002F0A4C003F00F
:101BB800A5C004F0D1EC5CF001C0A2F002C0A3F013
:101BC80003C0A4F004C0A5F0000E0001A76F000E2A
:101BD800A66FB2C195F0B3C196F0A151D8B4F7EF92
:101BE8000DF0F9EF0DF00DEF0EF0A151D8A4FFEFB5
:101BF8000DF001EF0EF007EF0EF0000E876F2B0EC1
:101C0800866F0BEF0EF0000E876F2D0E866F86C065
:101C1800A1F0A2C001F0A3C002F0A4C003F0A5C0C7
:101C280004F0EDEC47F001040210D8A41EEF0EF00A
:101C380020EF0EF057EF0EF00001A151D8B427EFB6
:101C48000EF029EF0EF032EF0EF0A1C06AF2950700
:101C5800D8A09607000EA76F010EA66F6A0EA625DC
:101C6800016E020EA721026EEC0E036EFF0E046ECB
:101C780060EC5CF00001FD0E9527FF0E962365C011
:101C880013F066C014F06A0E156E020E166E95C03B
:101C980017F096C018F0E7EC4DF013C065F014C0CB
:101CA80066F0FFEF12F0A2C001F0A3C002F0A4C0DA
:101CB80003F0A5C004F0EDEC47F001500210D8A4E1
:101CC80068EF0EF06AEF0EF08AEF0EF00001A151F6
:101CD800D8B471EF0EF073EF0EF07CEF0EF0A1C0E8
:101CE8006AF29507D8A09607000EA76F010EA66F97
:101CF8006A0EA625016E020EA721026EF00E036E73
:101D0800FF0E046E60EC5CF03EEF0EF0000E00017A
:101D1800A86F000EA96F800EAA6F3F0EAB6F000E62
:101D2800906F000E8F6FA2C001F0A3C002F0A4C094
:101D380003F0A5C004F0000E056E000E066E000E3E
:101D4800076E000E086E0FEC51F0D8B0AEEF0EF033
:101D5800B0EF0EF08FEF0FF0BDEF0EF091C0A8F0CE
:101D680092C0A9F093C0AAF094C0ABF000018F4BC9
:101D7800902BA8C040F0A9C041F0AAC042F0ABC067
:101D880043F0000E446E000E456E200E466E410E66
:101D9800476EACEC2BF040C091F041C092F042C0CD
:101DA80093F043C094F000019151A25D016E9251ED
:101DB800A359026E9351A459036E9451A559046E08
:101DC80044EC58F004BEF4EF0EF004500310021077
:101DD80009E1020E015CD8A0F4EF0EF0F6EF0EF068
:101DE800B2EF0EF091C059F092C05AF093C05BF078
:101DF80094C05CF0A2C05DF0A3C05EF0A4C05FF028
:101E0800A5C060F0EBEC46F0D8A00DEF0FF00FEF97
:101E18000FF0B2EF0EF00001A851A25D016EA951BA
:101E2800A359026EAA51A459036EAB51A559046E69
:101E380044EC58F004BE2EEF0FF0045003100210CB
:101E480007E1020E015CD8B02CEF0FF02EEF0FF077
:101E580076EF0FF0A8C0A2F0A9C0A3F0AAC0A4F022
:101E6800ABC0A5F08FEF0FF0A8C00FF0A9C010F01D
:101E7800AAC011F0ABC012F0000E136E000E146E63
:101E8800200E156E410E166E8FEC2FF00FC0A8F0C5
:101E980010C0A9F011C0AAF012C0ABF000018F0762
:101EA800D8A09007A851A25D016EA951A359026E4E
:101EB800AA51A459036EAB51A559046E44EC58F0CD
:101EC80004BE74EF0FF004500310021007E1020E75
:101ED800015CD8B072EF0FF074EF0FF076EF0FF0EF
:101EE8002EEF0FF0A2C059F0A3C05AF0A4C05BF0C7
:101EF800A5C05CF0A8C05DF0A9C05EF0AAC05FF004
:101F0800ABC060F0EBEC46F0D8A08DEF0FF08FEF90
:101F18000FF038EF0FF06BC089F089C08AF001012B
:101F2800B5BF99EF0FF09BEF0FF0A1EF0FF0B4C121
:101F380082F0B5C183F0A6EF0FF0000E0001836FA9
:101F4800060E826F82C08DF083C08EF000018D4B2B
:101F58008E2B660E8A19D8A4B4EF0FF0B6EF0FF0E7
:101F6800D6EF0FF090BFBDEF0FF0BBEF0FF0C9EF4A
:101F78000FF0000EA86F000EA96F800EAA6F3F0E1B
:101F8800AB6F000E906F000E8F6F670E8919D8B473
:101F9800D0EF0FF0D2EF0FF0D6EF0FF08F518D2763
:101FA80090518E23000EA06F000E9F6FA2C097F075
:101FB800A3C098F0A4C099F0A5C09AF0A8C091F069
:101FC800A9C092F0AAC093F0ABC094F067EF10F0EC
:101FD80097C00FF098C010F099C011F09AC012F095
:101FE800A8C013F0A9C014F0AAC015F0ABC016F031
:101FF8008FEC2FF00FC028F010C029F011C02AF084
:1020080012C02BF0E6EC36F028C09BF029C09CF0FB
:102018002AC09DF02BC09EF09BC059F09CC05AF07E
:102028009DC05BF09EC05CF068EC46F059C08BF038
:102038005AC08CF097C038F098C039F099C03AF07F
:102048009AC03BF09BC044F09CC045F09DC046F050
:102058009EC047F0A8C040F0A9C041F0AAC042F015
:10206800ABC043F0ACEC2BF040C03CF041C03DF0BD
:1020780042C03EF043C03FF080EC5BF038C097F0C0
:1020880039C098F03AC099F03BC09AF0A8C00FF058
:10209800A9C010F0AAC011F0ABC012F0000E136E68
:1020A800000E146E200E156E410E166E8FEC2FF07A
:1020B8000FC0A8F010C0A9F011C0AAF012C0ABF070
:1020C80000019F4BA02B8D519F5DA051800A6C6E23
:1020D8008E51800A6C58D8A074EF10F076EF10F08B
:1020E800ECEF0FF0A8C040F0A9C041F0AAC042F040
:1020F800ABC043F0000E446E000E456EA00E466E57
:10210800400E476EACEC2BF040C09BF041C09CF0F9
:1021180042C09DF043C09EF097C059F098C05AF055
:1021280099C05BF09AC05CF09BC05DF09CC05EF00B
:102138009DC05FF09EC060F0EBEC46F0D8B0A7EF12
:1021480010F0A9EF10F0B4EF10F0000E00019B6F33
:10215800000E9C6F000E9D6F000E9E6FDDEF10F05D
:1021680097C001F098C002F099C003F09AC004F03B
:102178009BC005F09CC006F09DC007F09EC008F00B
:102188000FEC51F0D8A0CBEF10F0CDEF10F0DDEF51
:1021980010F000018BB1D3EF10F0D5EF10F0DDEFA8
:1021A80010F0000E9B6F000E9C6F000E9D6F000ECE
:1021B8009E6FA2C028F0A3C029F0A4C02AF0A5C031
:1021C8002BF09BC02CF09CC02DF09DC02EF09EC023
:1021D8002FF0EDEC22F028C097F029C098F02AC023
:1021E80099F02BC09AF097C059F098C05AF099C04E
:1021F8005BF09AC05CF0000E446E000E456E200E37
:10220800466E410E476E91C040F092C041F093C0B7
:1022180042F094C043F0ACEC2BF040C05DF041C0FC
:102228005EF042C05FF043C060F0EBEC46F0D8A02F
:1022380020EF11F022EF11F04BEF11F000018F4B5E
:10224800902B91C040F092C041F093C042F094C0EE
:1022580043F0000E446E000E456E200E466E410E91
:10226800476EACEC2BF040C091F041C092F042C0F8
:1022780093F043C094F0660E00018A19D8A447EF82
:1022880011F049EF11F04BEF11F08D4B8E2B91C0EF
:10229800A8F092C0A9F093C0AAF094C0ABF08FC088
:1022A80080F090C081F0000E0001886F000E856FED
:1022B800000E846F000EA06F000E9F6F49EF12F0A2
:1022C80097C00FF098C010F099C011F09AC012F0A2
:1022D800A8C013F0A9C014F0AAC015F0ABC016F03E
:1022E8008FEC2FF00FC028F010C029F011C02AF091
:1022F80012C02BF0E6EC36F028C09BF029C09CF009
:102308002AC09DF02BC09EF09BC059F09CC05AF08B
:102318009DC05BF09EC05CF068EC46F05ABEA0EF32
:1023280011F05A5007E10A0E595CD8B09EEF11F02F
:10233800A0EF11F0B0EF11F09BC059F09CC05AF01B
:102348009DC05BF09EC05CF068EC46F059C08BF015
:102358005AC08CF0B5EF11F0000E00018C6F090E19
:102368008B6F00018851D8A4BCEF11F0BEEF11F0BB
:10237800E6EF11F081BFC5EF11F0C3EF11F0E6EF02
:1023880011F06A0EA625D96E020EA721DA6E2E0E5E
:10239800DF6EA64BA72B9507D8A09607010E886F6E
:1023A800E6EF11F06A0EA625D96E020EA721DA6EA5
:1023B800300EDF6EA64BA72B9507D8A0960784078B
:1023C800D8A0850784518511D8A4EDEF11F0EFEF5F
:1023D80011F0D6EF11F06A0EA625D96E020EA721CC
:1023E800DA6E8B51300FDF6EA64BA72B9507D8A05E
:1023F800960797C038F098C039F099C03AF09AC05B
:102408003BF09BC044F09CC045F09DC046F09EC088
:1024180047F0A8C040F0A9C041F0AAC042F0ABC044
:1024280043F0ACEC2BF040C03CF041C03DF042C062
:102438003EF043C03FF080EC5BF038C097F039C005
:1024480098F03AC099F03BC09AF0A8C00FF0A9C024
:1024580010F0AAC011F0ABC012F0000E136E000EFF
:10246800146E200E156E410E166E8FEC2FF00FC0F5
:10247800A8F010C0A9F011C0AAF012C0ABF000017A
:102488008007D8A081079F4BA02B8D519F5DA0513D
:10249800800A6C6E8E51800A6C58D8B056EF12F0D4
:1024A80058EF12F066EF12F0A7BF64EF12F0A751D1
:1024B80009E14B0EA65DD8A064EF12F066EF12F0AA
:1024C80064EF11F0000EA06F4F0E9F6F6A0E9F25EC
:1024D800D96E020EA021DA6EDF6A6A0E6C6E020EE9
:1024E8006D6EA6516C5EA7516D5A9F516C24016E9A
:1024F800A0516D20026E6A0E036E020E046EA6C015
:1025080005F0A7C006F0E2EC59F00001A6519F5D66
:10251800A66FA751A059A76FA151D8A496EF12F0A2
:1025280099EF12F0010E9AEF12F0000E9F6FA06B58
:102538000101B6A3A2EF12F0A4EF12F0D3EF12F04C
:10254800B4EF12F0A607D8A0A7076A0EA625D96E81
:10255800020EA721DA6E300EDF6E9507D8A0960717
:10256800000195519F5DA051800A6C6E9651800ABA
:102578006C58D8B0C2EF12F0C4EF12F0D3EF12F0DB
:10258800A6519F5DA051800A6C6EA751800A6C58B5
:10259800D8A0D1EF12F0D3EF12F0A6EF12F000019D
:1025A800A151D8B4DAEF12F0DCEF12F0E7EF12F035
:1025B800A607D8A0A7076A0EA625D96E020EA721DE
:1025C800DA6EA1C0DFFF9F51955FA051965B65C091
:1025D80013F066C014F06A0EA625156E020EA72128
:1025E800166E95C017F096C018F0E7EC4DF013C0C2
:1025F80065F014C066F01200D3CFD3F29BCFD4F2AB
:1026080022EE20F012EED9F00F0EDBCFE3FFE80642
:10261800FCE213EF13F0350EE82EFED70000D3A42A
:1026280018EF13F01AEF13F00FEF13F0100EBAECC7
:1026380059F0D00E0101716FC90EE82EFED7712F27
:10264800FCD700D08D849694000E0201E96FFF0E2E
:10265800F8EC5FF00201E92B090EE96536EF13F09B
:1026680038EF13F02BEF13F08D94000E0101436F38
:10267800000E446F000E456F000E466F000EADEC65
:1026880052F0E806D8A44BEF13F04DEF13F039EFF2
:1026980013F0AA0E0101436F010E446F000E456F3F
:1026A800000E466F080EADEC52F00201F36F8D94E8
:1026B800000EEB6FD90EEB25D96EDA6A020EDA221C
:1026C80041EC60F0DF6E0201EB2B030EEB656FEF60
:1026D80013F071EF13F05EEF13F08D84F3A577EF2D
:1026E80013F079EF13F0A9EF13F0010E0101836FD6
:1026F800000E436F000E446F000E456F000E466FCC
:102708003A0EADEC52F08D94000E0201EC6FD90E2A
:10271800EC25D96EDA6A020EDA2241EC60F0DF6E3F
:102728000201EC2B030EEC659CEF13F09EEF13F007
:102738008BEF13F08D84DB05D8B4A5EF13F0A7EF6A
:1027480013F0C5EF13F040EF17F0F305D8A4AFEF7F
:1027580013F0B1EF13F04DEF13F0DB05D8A4B7EF8A
:1027680013F0B9EF13F040EF17F0AA0EDC19D8A454
:10277800C0EF13F0C2EF13F040EF17F0020E0101A3
:10278800836F01018305D8B4CCEF13F0CEEF13F0BB
:10279800D9EF13F0000E0201CF6F000ED06F000EBC
:1027A800D16F400ED26FE2EF13F0000E0201CF6F2F
:1027B800000ED06F000ED16F000ED26FCFC24AF15B
:1027C800D0C24BF1D1C24CF1D2C24DF1290E08EC66
:1027D8005DF00201F36FF351D8B4F5EF13F0F7EFA2
:1027E80013F0FEEF13F0F3A5FCEF13F0FEEF13F078
:1027F800E2EF13F0F3A503EF14F005EF14F021EF67
:1028080014F001018305D8A40CEF14F00EEF14F0B6
:102818001DEF14F0020E846F000E436F000E446F1C
:10282800000E456F000E466F010EADEC52F021EF21
:1028380014F0000E9F6F40EF17F0020E010184198B
:10284800D8B429EF14F02BEF14F05AEF14F0000E5F
:10285800436F000E446F000E456F000E466F3A0E30
:10286800ADEC52F08D9441EC60F0C00BC00AD8A4D6
:1028780040EF14F042EF14F047EF14F0010E01019D
:10288800846F4AEF14F0000E0101846F000E0201FC
:10289800EA6F41EC60F00201EA2B020EEA6557EF9D
:1028A80014F059EF14F04DEF14F08D84000E01016F
:1028B800436F020E446F000E456F000E466F100EF8
:1028C800ADEC52F00009D8A46CEF14F06EEF14F0E0
:1028D8005AEF14F0020E0101966F000E956F000E6C
:1028E800436F000E446F000E456F000E466F090ED1
:1028F800ADEC52F08D9441EC60F0FE0AD8A487EF5D
:1029080014F089EF14F07FEF14F0000E0201ED6F60
:102918000F0EED6592EF14F094EF14F096EF14F0AB
:10292800A3EF14F0D90EED25D96EDA6A020EDA2279
:1029380041EC60F0DF6E0201ED2B8CEF14F041ECFE
:1029480060F041EC60F08D84020E01018319D8A477
:10295800B0EF14F0B2EF14F047EF15F0010E0201DA
:10296800E225D56FD66B000ED623D76B000ED72382
:10297800D86B000ED823E1510101726F716B71C1E0
:1029880073F172C174F1000E74BFFF0E756F766F2C
:1029980073510201D513010174510201D6130101CB
:1029A80075510201D713010176510201D813E0C213
:1029B80071F13F0E0101711771C172F1736B746B84
:1029C800756B73C175F172C174F1736B726B72516F
:1029D8000201D513010173510201D613010174518B
:1029E8000201D713010175510201D813D5C240F174
:1029F800D6C241F1D7C242F1D8C243F1000E97ECDA
:102A08003AF040C14EF141C14FF142C150F143C1CA
:102A180051F1BD0E0101526F370E536F060E546F00
:102A28003F0E556F96EC29F04EC19BF14FC19CF1BA
:102A380050C19DF151C19EF1000E0101526F000E6F
:102A4800536F000E546F450E556F9BC14EF19CC1DC
:102A58004FF19DC150F19EC151F196EC29F04EC144
:102A680067F14FC168F150C169F151C16AF161EC78
:102A780045F067C197F168C198F169C199F16AC1D8
:102A88009AF131EF16F0DFC271F1030E711771C1BF
:102A980072F1736B746B756B040ED8907237733761
:102AA80074377537E82E51EF15F072C1EFF273C124
:102AB800F0F274C1F1F275C1F2F20201E0510101C4
:102AC800716F726BD89071377237D89071377237CF
:102AD80071C173F172C174F1000E74BFFF0E756F8E
:102AE800766F73510201EF13010174510201F01363
:102AF800010175510201F113010176510201F2132E
:102B0800E1C271F10101D8907133D8907133300E60
:102B18007117010E7125726F736B000E7323746B3E
:102B2800000E7423756B000E752372510201EF13AA
:102B3800010173510201F013010174510201F113F3
:102B4800010175510201F213E2C271F1030E010194
:102B58007117726BE3AF01D0722B72317135736FDD
:102B6800020E7327EFC274F1F0C275F1F1C276F16B
:102B7800F2C277F1732BC6EF15F0D890743775371A
:102B880076377737732FC1EF15F074C1EFF275C13F
:102B9800F0F276C1F1F277C1F2F2DEC271F10F0EF6
:102BA8007117EFC272F1F0C273F1F1C274F1F2C29F
:102BB80075F1712BE5EF15F0D890723773377437CC
:102BC8007537712FE0EF15F072C1EFF273C1F0F2B3
:102BD80074C1F1F275C1F2F2EFC240F1F0C241F1F5
:102BE800F1C242F1F2C243F1000E97EC3AF040C153
:102BF8009BF141C19CF142C19DF143C19EF195C138
:102C080040F196C141F10101426B436B000E97EC14
:102C18003AF040C152F141C153F142C154F143C1AC
:102C280055F19BC14EF19CC14FF19DC150F19EC120
:102C380051F1C1EC2DF04EC167F14FC168F150C19F
:102C480069F151C16AF161EC45F067C197F168C15A
:102C580098F169C199F16AC19AF1000E0101436FB7
:102C6800000E446F000E456F000E466F0A0EADEC65
:102C780052F08D9441EC60F00201F36FFE0EF319EF
:102C8800D8A449EF16F04BEF16F03EEF16F0000E01
:102C9800EE6F0F0EEE6553EF16F055EF16F057EF87
:102CA80016F064EF16F0D90EEE25D96EDA6A020E28
:102CB800DA2241EC60F0DF6E0201EE2B4DEF16F0E8
:102CC80041EC60F041EC60F08D84D9C285F10201DD
:102CD800DA510101716F0201DB510101866F71C187
:102CE80087F1DCC28CF1DDC271F1726B736B746BAE
:102CF80071C174F1736B726B716B71C188F172C1C0
:102D080089F173C18AF174C18BF1DEC271F1726B02
:102D1800736B746B72C174F171C173F1726B716B07
:102D2800715188137251891373518A1374518B131B
:102D3800DFC271F1726B736B746B73C174F172C122
:102D480073F171C172F1716B7151881372518913EA
:102D580073518A1374518B130201E05101018813D6
:102D6800E1C28DF1E2C271F1726B736B746B71C168
:102D780074F1736B726B716B71C18EF172C18FF1EB
:102D880073C190F174C191F1E3C271F1726B736B0D
:102D9800746B72C174F171C173F1726B716B7151A3
:102DA8008E1372518F137351901374519113E4C29F
:102DB80071F1726B736B746B73C174F172C173F1DF
:102DC80071C172F1716B71518E1372518F137351FE
:102DD8009013745191130201E55101018E13020100
:102DE800E6510F0B0101716F0201E7510101926F6A
:102DF80071C193F10201E851FE0B0101946F8D84BA
:102E0800C69AD3C2D3FFD4C29BFF0FEF17F0350E7B
:102E1800E82EFED70000D3A414EF17F016EF17F032
:102E28000BEF17F0100EBAEC59F0010E0101A86F64
:102E3800000EA46F000EA56F000EA66F000EA76F00
:102E4800000EA06F000EA16F000EA26F000EA36F00
:102E5800010EB16F000EAD6F000EAE6F000EAF6FBA
:102E6800000EB06F000EA96F000EAA6F000EAB6FB8
:102E7800000EAC6F010E9F6F1200D3CF84F09BCF72
:102E880085F022EE20F010EE8AF00F0EDBCFE3FF84
:102E9800E806FCE254EF17F0350EE82EFED70000E6
:102EA800D3A459EF17F05BEF17F050EF17F0100E9F
:102EB8007EEC5AF0D00E636ECA0EE82EFED7632E53
:102EC800FCD78D849694000E00019A6FFF0E32ECA9
:102ED80060F000019A2B090E9A6575EF17F077EFED
:102EE80017F06AEF17F08D94000E046E000E056E51
:102EF800000E066E000E076E000EFCEC52F0E8069F
:102F0800D8A489EF17F08BEF17F078EF17F0AA0E17
:102F1800046E010E056E000E066E000E076E080E9A
:102F2800FCEC52F00001A46F8D94000E9C6F9C5134
:102F38008A0FD96EDA6A4DEC60F0DF6E00019C2BC7
:102F4800030E9C65AAEF17F0ACEF17F09BEF17F094
:102F58008D84A4A5B2EF17F0B4EF17F0E2EF17F0E5
:102F6800010E0101836F000E046E000E056E000E47
:102F7800066E000E076E3A0EFCEC52F08D94000EB1
:102F880000019D6F9D518A0FD96EDA6A4DEC60F091
:102F9800DF6E00019D2B030E9D65D5EF17F0D7EF6F
:102FA80017F0C6EF17F08D848C05D8B4DEEF17F054
:102FB800E0EF17F0FEEF17F04BEF1BF0A405D8A4D5
:102FC800E8EF17F0EAEF17F08BEF17F08C05D8A4AD
:102FD800F0EF17F0F2EF17F04BEF1BF0AA0E8D1978
:102FE800D8A4F9EF17F0FBEF17F04BEF1BF0020E28
:102FF8000101836F01018305D8B405EF18F007EFCD
:1030080018F012EF18F0000E0001806F000E816FAB
:10301800000E826F400E836F1BEF18F0000E000148
:10302800806F000E816F000E826F000E836F80C06C
:103038000BF081C00CF082C00DF083C00EF0290E99
:10304800A2EC5DF00001A46FA451D8B42EEF18F0E3
:1030580030EF18F037EF18F0A4A535EF18F037EF78
:1030680018F01BEF18F0A4A53CEF18F03EEF18F08D
:103078005AEF18F001018305D8A445EF18F047EF7F
:1030880018F056EF18F0020E846F000E046E000E52
:10309800056E000E066E000E076E010EFCEC52F077
:1030A8005AEF18F0000E9F6F4BEF1BF0020E010154
:1030B8008419D8B462EF18F064EF18F093EF18F0A1
:1030C800000E046E000E056E000E066E000E076EF2
:1030D8003A0EFCEC52F08D944DEC60F0C00BC00A37
:1030E800D8A479EF18F07BEF18F080EF18F0010EF4
:1030F8000101846F83EF18F0000E0101846F000E48
:1031080000019B6F4DEC60F000019B2B020E9B654C
:1031180090EF18F092EF18F086EF18F08D84000EFB
:10312800046E020E056E000E066E000E076E100E7F
:10313800FCEC52F00009D8A4A4EF18F0A6EF18F0A0
:1031480093EF18F0020E0101966F000E956F000EB6
:10315800046E000E056E000E066E000E076E090E58
:10316800FCEC52F08D944DEC60F0FE0AD8A4BFEF51
:1031780018F0C1EF18F0B7EF18F0000E00019E6FBD
:103188000F0E9E65CAEF18F0CCEF18F0CEEF18F0CE
:10319800D9EF18F09E518A0FD96EDA6A4DEC60F0BB
:1031A800DF6E00019E2BC4EF18F04DEC60F04DEC83
:1031B80060F08D84020E01018319D8A4E6EF18F09F
:1031C800E8EF18F06BEF19F0010E00019325866FF8
:1031D800876B000E8723886B000E8823896B000E8F
:1031E80089239251646E636A63C065F064C066F0B7
:1031F800000E66BEFF0E676E686E655086136650D9
:103208008713675088136850891391C063F03F0E85
:10321800631663C064F0656A666A676A65C067F0CA
:1032280064C066F0656A646A6450861365508713E3
:10323800665088136750891386C001F087C002F072
:1032480088C003F089C004F0000E73EC3BF001C0A5
:1032580040F002C041F003C042F004C043F0BD0E8C
:10326800446E370E456E060E466E3F0E476EACEC4A
:103278002BF040C09BF141C09CF142C09DF143C07E
:103288009EF1000E446E000E456E000E466E450E11
:10329800476E9BC140F09CC141F09DC142F09EC168
:1032A80043F0ACEC2BF040C059F041C05AF042C09A
:1032B8005BF043C05CF068EC46F059C097F15AC027
:1032C80098F15BC099F15CC09AF143EF1AF090C095
:1032D80063F0030E631663C064F0656A666A676A22
:1032E800040ED8906436653666366736E82E75EF74
:1032F80019F064C0A0F065C0A1F066C0A2F067C074
:10330800A3F000019151636E646AD8906336643605
:10331800D8906336643663C065F064C066F0000E0A
:1033280066BEFF0E676E686E6550A0136650A113E7
:103338006750A2136850A31392C063F0D890633209
:10334800D8906332300E6316010E6324646E656A8A
:10335800000E6522666A000E6622676A000E672202
:103368006450A0136550A1136650A2136750A313AD
:1033780093C063F0030E6316646A94AF01D0642AA5
:1033880064306334656E020E6526A0C066F0A1C085
:1033980067F0A2C068F0A3C069F0652AD9EF19F0F8
:1033A800D8906636673668366936652ED4EF19F0D8
:1033B80066C0A0F067C0A1F068C0A2F069C0A3F021
:1033C8008FC063F00F0E6316A0C064F0A1C065F053
:1033D800A2C066F0A3C067F0632AF8EF19F0D8908E
:1033E8006436653666366736632EF3EF19F064C0C7
:1033F800A0F065C0A1F066C0A2F067C0A3F0A0C0AD
:1034080001F0A1C002F0A2C003F0A3C004F0000EB6
:1034180073EC3BF001C09BF102C09CF103C09DF12D
:1034280004C09EF195C101F096C102F0036A046AD6
:10343800000E73EC3BF001C013F002C014F003C09F
:1034480015F004C016F09BC10FF09CC110F09DC18F
:1034580011F09EC112F08FEC2FF00FC059F010C080
:103468005AF011C05BF012C05CF068EC46F059C02D
:1034780097F15AC098F15BC099F15CC09AF1000EBF
:10348800046E000E056E000E066E000E076E0A0E24
:10349800FCEC52F08D944DEC60F00001A46FFE0E30
:1034A800A419D8A45AEF1AF05CEF1AF04FEF1AF0EB
:1034B800000E9F6F0F0E9F6564EF1AF066EF1AF00B
:1034C80068EF1AF073EF1AF09F518A0FD96EDA6A13
:1034D8004DEC60F0DF6E00019F2B5EEF1AF04DECB3
:1034E80060F04DEC60F08D848AC085F100018B514D
:1034F800636E8C510101866F63C087F18DC08CF1BA
:103508008EC063F0646A656A666A63C066F0656A5D
:10351800646A636A63C088F164C089F165C08AF12E
:1035280066C08BF18FC063F0646A656A666A64C0BE
:1035380066F063C065F0646A636A63508813645018
:10354800891365508A1366508B1390C063F0646AC0
:10355800656A666A65C066F064C065F063C064F059
:10356800636A635088136450891365508A136650E0
:103578008B13000191510101881392C08DF193C002
:1035880063F0646A656A666A63C066F0656A646A5D
:10359800636A63C08EF164C08FF165C090F166C044
:1035A80091F194C063F0646A656A666A64C066F003
:1035B80063C065F0646A636A63508E1364508F1346
:1035C800655090136650911395C063F0646A656AFC
:1035D800666A65C066F064C065F063C064F0636ADB
:1035E80063508E1364508F13655090136650911377
:1035F8000001965101018E13000197510F0B636E64
:1036080098510101926F63C093F100019951FE0B2B
:103618000101946F8D84C69A84C0D3FF85C09BFF37
:103628001AEF1BF0350EE82EFED70000D3A41FEFCB
:103638001BF021EF1BF016EF1BF0100E7EEC5AF07A
:10364800010E0101A86F000EA46F000EA56F000EF9
:10365800A66F000EA76F000EA06F000EA16F000EE0
:10366800A26F000EA36F010EB16F000EAD6F000EBA
:10367800AE6F000EAF6F000EB06F000EA96F000E98
:10368800AA6F000EAB6F000EAC6F010E9F6F120099
:10369800D8C001F0D9C002F0000E046E190E036EF6
:1036A8008FEC5EF001C0DAF002C0DBF00001DA5105
:1036B8000101006F0001DB510101016F026B036B17
:1036C80000510201385D0001E06F01010151020162
:1036D80039590001E16F0101025102013A59000113
:1036E800E26F0101035102013B590001E36F41EC14
:1036F80017F00001E3BF85EF1BF083EF1BF08DEFA0
:103708001BF0000EE06F000EE16F000EE26F000E7E
:10371800E36F000EDC6F000EDD6F000EDE6F000E33
:10372800DF6FBD0EDC25D96E030EDD21DA6EDF6A90
:10373800010EDC27000EDD23DE23DF23DF51DE113F
:1037480009E1020EDD5DD8A0ACEF1BF0AEEF1BF077
:1037580095EF1BF0E0C00BF0E1C00CF0E2C00DF0FB
:10376800E3C00EF041EC55F06D0E0001B46FFE0E93
:10377800B56FB4EC5EF0560E0001B46FFF0EB56F76
:10378800E0C0B6F0E1C0B7F0E2C0B8F0E3C0B9F00D
:10379800DA51E0250101006F0001DB51E12101014F
:1037A800016F000E0001E2210101026F000E00010D
:1037B800E3210101036FFF0E00250001BA6FFF0E20
:1037C800010101210001BB6FFF0E0101022100016F
:1037D800BC6FFF0E010103210001BD6FB4EC5EF068
:1037E800000E0001DC6F000EDD6F000EDE6F000EB4
:1037F800DF6FC7EF1DF0BD0E046E030E056E5DECA6
:1038080052F0000E0001E56F000EE46F520EB46F27
:10381800FD0EB56FE4C000F1E5C001F10101003B08
:10382800013BF00E011700510F0B0113F00E0017AA
:10383800BD0E0025D96E030E0121DA6EDF50026F2E
:1038480002510001B66FB76BE4C003F1E5C004F1A3
:103858000101033B043BF00E041703510F0B041343
:10386800F00E0317BE0E0325D96E030E0421DA6E7F
:10387800DF50056F05510001B86FB96BE4C006F160
:10388800E5C007F10101063B073BF00E071706519B
:103898000F0B0713F00E0617BF0E0625D96E030E81
:1038A8000721DA6EDF50086F08510001BA6FBB6B51
:1038B800E4C009F1E5C00AF10101093B0A3BF00E39
:1038C8000A1709510F0B0A13F00E0917C00E092524
:1038D800D96E030E0A21DA6EDF500B6F0B5100010F
:1038E800BC6FBD6BE4C00CF1E5C00DF101010C3BF0
:1038F8000D3BF00E0D170C510F0B0D13F00E0C179E
:10390800C10E0C25D96E030E0D21DA6EDF500E6F35
:103918000E510001BE6FBF6BE4C00FF1E5C010F19E
:1039280001010F3B103BF00E10170F510F0B101336
:10393800F00E0F17C20E0F25D96E030E1021DA6E86
:10394800DF50116F11510001C06FC16BE4C012F15B
:10395800E5C013F10101123B133BF00E131712518E
:103968000F0B1313F00E1217C30E1225D96E030E88
:103978001321DA6EDF50146F14510001C26FC36B4C
:10398800E4C015F1E5C016F10101153B163BF00E38
:10399800161715510F0B1613F00E1517C40E152513
:1039A800D96E030E1621DA6EDF50176F175100011A
:1039B800C46FC56BE4C018F1E5C019F10101183BEB
:1039C800193BF00E191718510F0B1913F00E181791
:1039D800C50E1825D96E030E1921DA6EDF501A6F3D
:1039E8001A510001C66FC76BE4C01BF1E5C01CF19A
:1039F80001011B3B1C3BF00E1C171B510F0B1C132A
:103A0800F00E1B17C60E1B25D96E030E1C21DA6E8D
:103A1800DF501D6F1D510001C86FC96BE4C01EF156
:103A2800E5C01FF101011E3B1F3BF00E1F171E5181
:103A38000F0B1F13F00E1E17C70E1E25D96E030E8F
:103A48001F21DA6EDF50206F20510001CA6FCB6B47
:103A5800E4C021F1E5C022F10101213B223BF00E37
:103A6800221721510F0B2213F00E2117C80E212502
:103A7800D96E030E2221DA6EDF50236F2351000125
:103A8800CC6FCD6BE4C024F1E5C025F10101243BE6
:103A9800253BF00E251724510F0B2513F00E241784
:103AA800C90E2425D96E030E2521DA6EDF50266F44
:103AB80026510001CE6FCF6BE4C027F1E5C028F195
:103AC8000101273B283BF00E281727510F0B28131D
:103AD800F00E2717CA0E2725D96E030E2821DA6E95
:103AE800DF50296F29510001D06FD16BE4C02AF152
:103AF800E5C02BF101012A3B2B3BF00E2B172A5175
:103B08000F0B2B13F00E2A17CB0E2A25D96E030E96
:103B18002B21DA6EDF502C6F2C510001D26FD36B42
:103B2800E4C02DF1E5C02EF101012D3B2E3BF00E36
:103B38002E172D510F0B2E13F00E2D17CC0E2D25F1
:103B4800D96E030E2E21DA6EDF502F6F2F51000130
:103B5800D46FD56BB4EC5EF00001E44BE52BE5BF08
:103B6800BFEF1DF0E55109E1200EE45DD8A0BFEFDD
:103B78001DF0C1EF1DF00AEF1CF0010EDC27000E4E
:103B8800DD23DE23DF23DA510101006F0001DB5161
:103B98000101016F026B036B00510001DC5D010143
:103BA80001510001DD59010102510001DE590101F5
:103BB80003510001DF59D8A0E4EF1DF0E6EF1DF036
:103BC800FFEF1BF028EC5FF08D84C69A520E0001BF
:103BD800B46FFF0EB56FE0C0B6F0E1C0B7F0E051CA
:103BE800DA250101006F0001E151DB210101016FBC
:103BF800FF0E00250001B86FFF0E01010121000131
:103C0800B96FB4EC5EF01200000E01017B6F000E7C
:103C18007C6F000E7D6F000E7E6F3FEF20F0AC983A
:103C2800AC94B89677C1D9FF78C1DAFFDECF40F1FE
:103C3800DECF41F1DECF42F1DECF43F1000E97EC4B
:103C48003AF040C152F141C153F142C154F143C16C
:103C580055F1000E01014E6F240E4F6FF40E506F98
:103C68004B0E516FC1EC2DF04EC17FF14FC180F169
:103C780050C181F151C182F1000E0101526F000E55
:103C8800536F800E546F420E556F7FC14EF180C145
:103C98004FF181C150F182C151F1C1EC2DF04EC1FB
:103CA80067F14FC168F150C169F151C16AF1000E65
:103CB80001016B6F000E6C6F800E6D6FBF0E6E6F23
:103CC8008CEC20F067C17BF168C17CF169C17DF1A2
:103CD8006AC17EF16AEF20F0AC98AC84B89677C1DF
:103CE800D9FF78C1DAFFDECF40F1DECF41F1DECF78
:103CF80042F1DECF43F1000E97EC3AF040C152F1A9
:103D080041C153F142C154F143C155F1000E0101C3
:103D18004E6F240E4F6FF40E506F4B0E516FC1EC67
:103D28002DF04EC17FF14FC180F150C181F151C1D9
:103D380082F1000E0101526F000E536F800E546F16
:103D4800410E556F7FC14EF180C14FF181C150F1D5
:103D580082C151F1C1EC2DF04EC167F14FC168F13C
:103D680050C169F151C16AF1000E01016B6F000E7B
:103D78006C6F800E6D6FBF0E6E6F8CEC20F067C19C
:103D88007BF168C17CF169C17DF16AC17EF16AEF9E
:103D980020F0AC98AC94B88677C1D9FF78C1DAFF27
:103DA800DECF40F1DECF41F1DECF42F1DECF43F18D
:103DB800000E97EC3AF040C152F141C153F142C1B3
:103DC80054F143C155F1000E01014E6F240E4F6F9F
:103DD800F40E506F4B0E516FC1EC2DF04EC17FF1B8
:103DE8004FC180F150C181F151C182F1000E010132
:103DF800526F000E536F800E546F410E556F7FC186
:103E08004EF180C14FF181C150F182C151F1C1EC35
:103E18002DF04EC167F14FC168F150C169F151C130
:103E28006AF1000E01016B6F000E6C6F800E6D6FF2
:103E3800BF0E6E6F8CEC20F067C17BF168C17CF11E
:103E480069C17DF16AC17EF16AEF20F0AC98AC845B
:103E5800B88677C1D9FF78C1DAFFDECF40F1DECF6F
:103E680041F1DECF42F1DECF43F1000E97EC3AF09C
:103E780040C152F141C153F142C154F143C155F11E
:103E8800000E01014E6F240E4F6FF40E506F4B0E53
:103E9800516FC1EC2DF04EC17FF14FC180F150C17F
:103EA80081F151C182F1000E0101526F000E536F72
:103EB800800E546F400E556F7FC14EF180C14FF197
:103EC80081C150F182C151F1C1EC2DF04EC167F1B1
:103ED8004FC168F150C169F151C16AF1000E010189
:103EE8006B6F000E6C6F800E6D6FBF0E6E6F8CEC7B
:103EF80020F067C17BF168C17CF169C17DF16AC1BD
:103F08007EF16AEF20F0AC88B89677C1D9FF78C106
:103F1800DAFFDECF40F1DECF41F1DECF42F1DECF76
:103F280043F1000E97EC3AF040C152F141C153F110
:103F380042C154F143C155F1000E01014E6F240EE8
:103F48004F6FF40E506F4B0E516FC1EC2DF04EC1F8
:103F58007FF14FC180F150C181F151C182F1000E52
:103F68000101526F000E536F800E546F400E556F53
:103F78007FC14EF180C14FF181C150F182C151F131
:103F8800C1EC2DF04EC167F14FC168F150C169F124
:103F980051C16AF1000E01016B6F000E6C6F800E4B
:103FA8006D6FBF0E6E6F8CEC20F067C17BF168C13E
:103FB8007CF169C17DF16AC17EF16AEF20F0AC88BD
:103FC800B88677C1D9FF78C1DAFFDECF40F1DECFFE
:103FD80041F1DECF42F1DECF43F1000E97EC3AF02B
:103FE80040C152F141C153F142C154F143C155F1AD
:103FF800000E01014E6F240E4F6FF40E506F4B0EE2
:10400800516FC1EC2DF04EC17FF14FC180F150C10D
:1040180081F151C182F1000E0101526F000E536F00
:10402800800E546F400E556F7FC14EF180C14FF125
:1040380081C150F182C151F1C1EC2DF04EC167F13F
:104048004FC168F150C169F151C16AF1000E010117
:104058006B6F000E6C6F800E6D6FBF0E6E6F8CEC09
:1040680020F067C17BF168C17CF169C17DF16AC14B
:104078007EF16AEF20F020EE04F07751D9267851CE
:10408800DA22DF50796F7A6B7A51000AD8B44FEF91
:1040980020F06AEF20F07951000AD8B413EF1EF02F
:1040A800010AD8B470EF1EF0030AD8B4CDEF1EF0A1
:1040B800010AD8B42AEF1FF0070AD8B487EF1FF017
:1040C800010AD8B4E3EF1FF06AEF20F07BC167F173
:1040D8007CC168F17DC169F17EC16AF161EC45F08E
:1040E80001016751AF6E7BC167F17CC168F17DC189
:1040F80069F17EC16AF161EC45F0010168C167F1BF
:1041080069C168F16AC169F16A6B6751B06E1200E2
:1041180001016A51800B736F6A516A25756F69AF27
:1041280098EF20F09AEF20F09BEF20F07581755101
:10413800D8B4A1EF20F0A3EF20F0B8EF20F0752954
:10414800D8A4A9EF20F0ABEF20F0B3EF20F0000ED9
:10415800676F000E686F000E696F000E6A6F698FD7
:10416800000E6A6FC0EF20F0000E676F000E686FD8
:10417800000E696F000E6A6F6E51800B746F735179
:104188007419D8B4CAEF20F0CCEF20F0CDEF20F0AE
:10419800738D6E516E25746F6DAFD5EF20F0D7EF2C
:1041A80020F0D8EF20F074817451D8B4DEEF20F0FD
:1041B800E0EF20F0F5EF20F07429D8A4E6EF20F026
:1041C800E8EF20F0F0EF20F0000E6B6F000E6C6F40
:1041D800000E6D6F000E6E6F6D8F000E6E6FFDEF2F
:1041E80020F0000E6B6F000E6C6F000E6D6F000EEE
:1041F8006E6F7551745DD8B004EF21F006EF21F0B1
:104208002DEF21F073AD0BEF21F00DEF21F00FEF43
:1042180021F0800E731B75C176F174C175F176C1FA
:1042280074F167C176F16BC167F176C16BF168C152
:1042380076F16CC168F176C16CF169C176F16DC136
:1042480069F176C16DF16AC176F16EC16AF176C124
:104258006EF1000E766F755174C16FF1706B6F5F00
:10426800000E705B70BF42EF21F0705109E11A0E29
:104278006F5DD8A042EF21F044EF21F07BEF21F0F1
:104288006751681169116A11D8A44DEF21F050EFF8
:1042980021F0010E51EF21F0000E766F000E676FCE
:1042A800000E686F000E696F000E6A6F74C175F1B9
:1042B80084EF21F076A163EF21F065EF21F06BEF39
:1042C80021F0D89076310109766F6DEF21F0D89002
:1042D800763367A172EF21F074EF21F075EF21F0CA
:1042E800768F6A356A33693368336733752B74514F
:1042F800755DD8A082EF21F084EF21F05EEF21F008
:1043080073BD89EF21F08BEF21F0CBEF21F07551D0
:10431800D8A491EF21F093EF21F09DEF21F0000E4A
:10432800676F000E686F000E696F000E6A6FECEF22
:1043380022F06B5167276C5168236D5169236E51C8
:104348006A236AA1AAEF21F0ACEF21F058EF22F01E
:1043580076A1B1EF21F0B3EF21F0B9EF21F0D890B9
:1043680076310109766FBBEF21F0D890763367A1DB
:10437800C0EF21F0C2EF21F0C3EF21F0768F6A354C
:104388006A33693368336733752B58EF22F06B5102
:10439800675D6C5168596D5169596A51800A6F6F30
:1043A8006E51800A6F59D8B0DCEF21F0DEEF21F0B2
:1043B80009EF22F067516B5D6F6F68516C59706F30
:1043C80069516D59716F6A516E59726FFF0E6F2581
:1043D800676FFF0E7021686FFF0E7121696FFF0E06
:1043E80072216A6F800E731B766D7651D8A4FFEF29
:1043F80021F001EF22F011EF22F0010E6727000EE5
:10440800682369236A2311EF22F06B51675F6C51AF
:10441800685B6D51695B6E516A5B67516811691120
:104428006A11D8A41AEF22F01CEF22F051EF22F003
:104438007651D8A422EF22F024EF22F051EF22F097
:10444800000E676F000E686F000E696F000E6A6FCE
:10445800ECEF22F0D8906737683769376A3776AF5C
:1044680038EF22F03AEF22F03BEF22F0678176A195
:1044780040EF22F042EF22F046EF22F0D880763764
:1044880048EF22F0D89076377551D8B44EEF22F025
:1044980050EF22F051EF22F0750769AF56EF22F086
:1044A80058EF22F02EEF22F0000E746F76AF5FEF18
:1044B80022F061EF22F079EF22F076C16FF17F0EE2
:1044C8006F17D8B46AEF22F06CEF22F070EF22F089
:1044D800010E746F79EF22F067A175EF22F077EF84
:1044E80022F079EF22F06CEF22F07451D8B47FEF0C
:1044F80022F081EF22F0ACEF22F0010E6727000EC8
:10450800682369236A236AA18CEF22F08EEF22F0D8
:10451800ACEF22F067C16FF168C170F169C171F148
:104528006AC172F172357233713370336F336FC190
:1045380067F170C168F171C169F172C16AF17529D9
:10454800D8B4A9EF22F0ABEF22F0ACEF22F0752B34
:104558007529D8B4B2EF22F0B4EF22F0BCEF22F004
:104568007551D8A4BAEF22F0BCEF22F0CEEF22F0BA
:10457800000E676F000E686F000E696F000E6A6F9D
:104588007551D8A4CAEF22F0CCEF22F0CEEF22F07A
:10459800000E736F75A1D3EF22F0D5EF22F0D8EF9C
:1045A80022F0698FD9EF22F0699FD89075316A6F30
:1045B80073AFE1EF22F0E3EF22F0E4EF22F06A8F2D
:1045C80067C167F168C168F169C169F16AC16AF1D7
:1045D80012002B50800B346E2B502B24366E2AAED3
:1045E800F8EF22F0FAEF22F0FBEF22F03680365097
:1045F800D8B401EF23F003EF23F018EF23F03628A7
:10460800D8A409EF23F00BEF23F013EF23F0000EEB
:10461800286E000E296E000E2A6E000E2B6E2A8E52
:10462800000E2B6E20EF23F0000E286E000E296E70
:10463800000E2A6E000E2B6E2F50800B356E3450F4
:104648003518D8B42AEF23F02CEF23F02DEF23F000
:10465800348C2F502F24356E2EAE35EF23F037EFE4
:1046680023F038EF23F035803550D8B43EEF23F0EF
:1046780040EF23F055EF23F03528D8A446EF23F078
:1046880048EF23F050EF23F0000E2C6E000E2D6E35
:10469800000E2E6E000E2F6E2E8E000E2F6E5DEF0A
:1046A80023F0000E2C6E000E2D6E000E2E6E000EE6
:1046B8002F6E3650355CD8B064EF23F066EF23F0E8
:1046C8008DEF23F034AC6BEF23F06DEF23F06FEF39
:1046D80023F0800E341A36C037F035C036F037C0B4
:1046E80035F028C037F02CC028F037C02CF029C08E
:1046F80037F02DC029F037C02DF02AC037F02EC072
:104708002AF037C02EF02BC037F02FC02BF037C05F
:104718002FF0000E376E365035C030F0316A305EFB
:10472800000E315A31BEA2EF23F0315009E11A0EC2
:10473800305CD8A0A2EF23F0A4EF23F0DBEF23F046
:10474800285029102A102B10D8A4ADEF23F0B0EF71
:1047580023F0010EB1EF23F0000E376E000E286E25
:10476800000E296E000E2A6E000E2B6E35C036F034
:10477800E4EF23F037A0C3EF23F0C5EF23F0CBEF2E
:1047880023F0D89037300109376ECDEF23F0D89059
:10479800373228A0D2EF23F0D4EF23F0D5EF23F05F
:1047A800378E2B342B322A3229322832362A35508A
:1047B800365CD8A0E2EF23F0E4EF23F0BEEF23F05D
:1047C80034BCE9EF23F0EBEF23F02BEF24F0365065
:1047D800D8A4F1EF23F0F3EF23F0FDEF23F0000E60
:1047E800286E000E296E000E2A6E000E2B6E4CEFFE
:1047F80025F02C5028262D5029222E502A222F50C1
:104808002B222BA00AEF24F00CEF24F0B8EF24F0B1
:1048180037A011EF24F013EF24F019EF24F0D8900B
:1048280037300109376E1BEF24F0D890373228A0B3
:1048380020EF24F022EF24F023EF24F0378E2B34DE
:104848002B322A3229322832362AB8EF24F02C505B
:10485800285C2D5029582E502A582B50800A306E2B
:104868002F50800A3058D8B03CEF24F03EEF24F0A7
:1048780069EF24F028502C5C306E29502D58316E89
:104888002A502E58326E2B502F58336EFF0E30247C
:10489800286EFF0E3120296EFF0E32202A6EFF0E81
:1048A80033202B6E800E341A376C3750D8A45FEF44
:1048B80024F061EF24F071EF24F0010E2826000E99
:1048C80029222A222B2271EF24F02C50285E2D5009
:1048D800295A2E502A5A2F502B5A285029102A105C
:1048E8002B10D8A47AEF24F07CEF24F0B1EF24F059
:1048F8003750D8A482EF24F084EF24F0B1EF24F0ED
:10490800000E286E000E296E000E2A6E000E2B6E09
:104918004CEF25F0D890283629362A362B3637AE74
:1049280098EF24F09AEF24F09BEF24F0288037A02A
:10493800A0EF24F0A2EF24F0A6EF24F0D8803736B9
:10494800A8EF24F0D89037363650D8B4AEEF24F01C
:10495800B0EF24F0B1EF24F036062AAEB6EF24F01B
:10496800B8EF24F08EEF24F0000E356E37AEBFEFAF
:1049780024F0C1EF24F0D9EF24F037C030F07F0ED7
:104988003016D8B4CAEF24F0CCEF24F0D0EF24F0DE
:10499800010E356ED9EF24F028A0D5EF24F0D7EF1B
:1049A80024F0D9EF24F0CCEF24F03550D8B4DFEF61
:1049B80024F0E1EF24F00CEF25F0010E2826000E7C
:1049C80029222A222B222BA0ECEF24F0EEEF24F050
:1049D8000CEF25F028C030F029C031F02AC032F0A1
:1049E8002BC033F03334333232323132303230C0CC
:1049F80028F031C029F032C02AF033C02BF0362815
:104A0800D8B409EF25F00BEF25F00CEF25F0362A86
:104A18003628D8B412EF25F014EF25F01CEF25F056
:104A28003650D8A41AEF25F01CEF25F02EEF25F00C
:104A3800000E286E000E296E000E2A6E000E2B6ED8
:104A48003650D8A42AEF25F02CEF25F02EEF25F0CC
:104A5800000E346E36A033EF25F035EF25F038EF31
:104A680025F02A8E39EF25F02A9ED89036302B6E05
:104A780034AE41EF25F043EF25F044EF25F02B8EBF
:104A880028C028F029C029F02AC02AF02BC02BF012
:104A98001200D8C2D9FFD9C2DAFFDECFF6FFDDCFC8
:104AA800F7FFF86A0800F550250AD8A45EEF25F04C
:104AB80060EF25F059EF27F0D8C2D9FFD9C2DAFF45
:104AC800DE2A000EDD22000E0101B36F000EB26F68
:104AD800B2C1B6F1B469B569000E0201DC6F95EF99
:104AE80025F00101B683D8C2D9FFD9C2DAFFDE2A80
:104AF800000EDD2295EF25F0010EDC6F95EF25F015
:104B0800D8C2D9FFD9C2DAFFDECFF6FFDDCFF7FF73
:104B1800F86A0800F550300AD8B475EF25F080EF30
:104B280025F00201DC51D8B49CEF25F09EEF25F06A
:104B380084EF25F0D8C246F1D9C247F1DAC248F16C
:104B4800DBC249F133EC4BF046C1B2F147C1B3F1D6
:104B58000101B3BFB4EF25F0B2EF25F0B9EF25F0AE
:104B6800B681B26DB31FD8B0B32BD8C2D9FFD9C2A2
:104B7800DAFFDECFF6FFDDCFF7FFF86A0800F55061
:104B88002E0AD8A4CAEF25F0CCEF25F0E1EF25F0E6
:104B9800D8C2D9FFD9C2DAFFDE2A000EDD22D8C278
:104BA80046F1D9C247F1DAC248F1DBC249F133EC28
:104BB8004BF046C1B4F147C1B5F1D8C2D9FFD9C24B
:104BC800DAFFDECFE2F2DDCFE3F2E2C2F6FFE3C2C4
:104BD800F7FFF86A0800F550640AD8B4F6EF25F034
:104BE800F8EF25F007EF26F0E2C2F6FFE3C2F7FF81
:104BF800F86A0800F550690AD8A405EF26F007EF0F
:104C080026F03DEF26F0DAC2D9FFDBC2DAFFDFCFAC
:104C180081F1020EDE26DFCF82F1000EDD2281C196
:104C2800D9FF82C1DAFFDECFDEF2DDCFDFF2010E7F
:104C38000201E2250101816F000E0201E321010159
:104C4800826FD8C2D9FFD9C2DAFF81C1DEFF82C123
:104C5800DDFFD6C25BF1D7C25CF1DEC25DF1DFC217
:104C68005EF1D6EC38F05BC1D6F25CC1D7F279EFD1
:104C780027F0E2C2F6FFE3C2F7FFF86A0800F55032
:104C8800780AD8A44AEF26F04CEF26F091EF26F0E8
:104C9800DAC2D9FFDBC2DAFFDFCF81F1020EDE26EE
:104CA800DFCF82F1000EDD2281C1D9FF82C1DAFF98
:104CB800DECFDEF2DDCFDFF2010E0201E2250101D7
:104CC800816F000E0201E3210101826FD8C2D9FF72
:104CD800D9C2DAFF81C1DEFF82C1DDFF84EF26F091
:104CE800D6C25BF1D7C25CF1DEC25DF1DFC25EF114
:104CF800E6EC3FF05BC1D6F25CC1D7F279EF27F062
:104D0800E2C2F6FFE3C2F7FFF86A0800F550780A36
:104D1800D8B474EF26F091EF26F0D8C2D9FFD9C2E3
:104D2800DAFFDECFE2F2DDCFE3F2E2C2F6FFE3C262
:104D3800F7FFF86A0800F5CFDDF2AFEF26F0E24B97
:104D4800E32BBFEF26F06C0EDD6FBFEF26F0000EF1
:104D5800DD6FBFEF26F00201DD514C0AD8B4A3EF96
:104D680026F02A0AD8B4A7EF26F00A0AD8B4A3EF87
:104D780026F0ABEF26F0E2C2F6FFE3C2F7FFF86ACF
:104D88000800F550660AD8A4CCEF26F0CEEF26F03E
:104D98004BEF27F004EF27F0DAC2D9FFDBC2DAFFC6
:104DA800DFCF81F1040EDE26DFCF82F1000EDD2297
:104DB80081C1D9FF82C1DAFFDECFDEF2DECFDFF2BA
:104DC800DECFE0F2DECFE1F20FEF27F0DAC2D9FF53
:104DD800DBC2DAFFDFCF81F1040EDE26DFCF82F1FE
:104DE800000EDD2281C1D9FF82C1DAFFDECFDEF2FB
:104DF800DECFDFF2DECFE0F2DECFE1F20FEF27F019
:104E0800DD514C0AD8B4EAEF26F0200AD8B4D0EF26
:104E180026F00FEF27F0010EE2250101816F000E49
:104E28000201E3210101826FD8C2D9FFD9C2DAFF9A
:104E380081C1DEFF82C1DDFF3EEF27F0D6C2CFF28F
:104E4800D7C2D0F2DEC2D1F2DFC2D2F2E0C2D3F2D0
:104E5800E1C2D4F2E2C2F6FFE3C2F7FFF86A080043
:104E6800F5CFD5F23BEC08F0CFC2D6F2D0C2D7F2DC
:104E780079EF27F0E2C2F6FFE3C2F7FFF86A08000D
:104E8800F550660AD8B422EF27F04BEF27F0D8C2C6
:104E9800D9FFD9C2DAFFDE2A000EDD22000E020198
:104EA800D76F000ED66F79EF27F0D8C2D9FFD9C2D5
:104EB800DAFFDECFF6FFDDCFF7FFF86A0800F5501E
:104EC8000101426F436BD6C244F1D7C245F189EC68
:104ED8004DF0D8C2D9FFD9C2DAFFDE2A000EDD2292
:104EE800000E0201D76F010ED66F120070C0D9FFF5
:104EF80071C0DAFFDECFF6FFDDCFF7FFF86A0800F2
:104F0800F550250AD8A48BEF27F08DEF27F077EF1F
:104F180029F070C0D9FF71C0DAFFDE2A000EDD2249
:104F2800000E0101B36F000EB26FB2C1B6F1B469E1
:104F3800B569000E766EC1EF27F00101B68370C027
:104F4800D9FF71C0DAFFDE2A000EDD22C1EF27F09B
:104F5800010E766EC1EF27F070C0D9FF71C0DAFF7D
:104F6800DECFF6FFDDCFF7FFF86A0800F550300A0C
:104F7800D8B4A1EF27F0ACEF27F07650D8B4C7EF3C
:104F880027F0C9EF27F0B0EF27F070C007F071C025
:104F980008F072C009F073C00AF000EC4CF007C0CA
:104FA800B2F108C0B3F10101B3BFDFEF27F0DDEFC5
:104FB80027F0E4EF27F0B681B26DB31FD8B0B32B5A
:104FC80070C0D9FF71C0DAFFDECFF6FFDDCFF7FF83
:104FD800F86A0800F5502E0AD8A4F5EF27F0F7EF85
:104FE80027F00CEF28F070C0D9FF71C0DAFFDE2A75
:104FF800000EDD2270C007F071C008F072C009F021
:1050080073C00AF000EC4CF007C0B4F108C0B5F169
:1050180070C0D9FF71C0DAFFDECF7CF0DDCF7DF044
:105028007CC0F6FF7DC0F7FFF86A0800F550640AF7
:10503800D8B421EF28F023EF28F032EF28F07CC015
:10504800F6FF7DC0F7FFF86A0800F550690AD8A492
:1050580030EF28F032EF28F064EF28F072C0D9FF63
:1050680073C0DAFFDFCF74F0020EDE26DFCF75F0F3
:10507800000EDD2274C0D9FF75C0DAFFDECF78F0EC
:10508800DDCF79F0010E7C24746E000E7D20756EE4
:1050980070C0D9FF71C0DAFF74C0DEFF75C0DDFFD4
:1050A8006EC01CF06FC01DF078C01EF079C01FF0F4
:1050B800B7EC39F01CC06EF01DC06FF095EF29F009
:1050C8007CC0F6FF7DC0F7FFF86A0800F550780A43
:1050D800D8A471EF28F073EF28F0B4EF28F072C06D
:1050E800D9FF73C0DAFFDFCF74F0020EDE26DFCF00
:1050F80075F0000EDD2274C0D9FF75C0DAFFDECF6F
:1051080078F0DDCF79F0010E7C24746E000E7D20DE
:10511800756E70C0D9FF71C0DAFF74C0DEFF75C04C
:10512800DDFFA7EF28F06EC01CF06FC01DF078C03F
:105138001EF079C01FF034EC41F01CC06EF01DC0A9
:105148006FF095EF29F07CC0F6FF7DC0F7FFF86A95
:105158000800F550780AD8B497EF28F0B4EF28F093
:1051680070C0D9FF71C0DAFFDECF7CF0DDCF7DF0F3
:105178007CC0F6FF7DC0F7FFF86A0800F5CF77F02E
:10518800D2EF28F07C4A7D2AE1EF28F06C0E776E8A
:10519800E1EF28F0000E776EE1EF28F077504C0A27
:1051A800D8B4C6EF28F02A0AD8B4CAEF28F00A0AF9
:1051B800D8B4C6EF28F0CEEF28F07CC0F6FF7DC04B
:1051C800F7FFF86A0800F550660AD8A4EEEF28F051
:1051D800F0EF28F06AEF29F026EF29F072C0D9FF26
:1051E80073C0DAFFDFCF74F0040EDE26DFCF75F070
:1051F800000EDD2274C0D9FF75C0DAFFDECF78F06B
:10520800DECF79F0DECF7AF0DECF7BF031EF29F018
:1052180072C0D9FF73C0DAFFDFCF74F0040EDE2648
:10522800DFCF75F0000EDD2274C0D9FF75C0DAFF3C
:10523800DECF78F0DECF79F0DECF7AF0DECF7BF00C
:1052480031EF29F077504C0AD8B40CEF29F0200A36
:10525800D8B4F2EF28F031EF29F0010E7C24746EF7
:10526800000E7D20756E70C0D9FF71C0DAFF74C062
:10527800DEFF75C0DDFF5DEF29F06EC065F06FC021
:1052880066F078C067F079C068F07AC069F07BC0D2
:105298006AF07CC0F6FF7DC0F7FFF86A0800F5CF1A
:1052A8006BF0C2EC0DF065C06EF066C06FF095EF64
:1052B80029F07CC0F6FF7DC0F7FFF86A0800F550BA
:1052C800660AD8B441EF29F06AEF29F070C0D9FF17
:1052D80071C0DAFFDE2A000EDD22000E6F6E000EAE
:1052E8006E6E95EF29F070C0D9FF71C0DAFFDECF7E
:1052F800F6FFDDCFF7FFF86A0800F550036E046A81
:105308006EC005F06FC006F044EC4EF070C0D9FFD7
:1053180071C0DAFFDE2A000EDD22000E6F6E010E6C
:105328006E6E120001015151800B5A6F5151512577
:10533800606F50AFA2EF29F0A4EF29F0A5EF29F094
:1053480060816051D8B4ABEF29F0ADEF29F0C0EF20
:1053580029F06029D8A4B3EF29F0B5EF29F0BDEF03
:1053680029F0000E4E6F000E4F6F000E506F000EAA
:10537800516F508FC8EF29F0000E4E6F000E4F6F1F
:10538800000E506F000E516F5551800B5A1B55512E
:1053980055255B6F54AFD3EF29F0D5EF29F0D6EF41
:1053A80029F05B815B51D8B4DCEF29F0DEEF29F0FE
:1053B800F1EF29F05B29D8A4E4EF29F0E6EF29F012
:1053C800EEEF29F0000E526F000E536F000E546F6F
:1053D800000E556F548FF9EF29F0000E526F000E32
:1053E800536F000E546F000E556F5B51D8B4FFEF2A
:1053F80029F001EF2AF009EF2AF06051D8A407EF4D
:105408002AF009EF2AF013EF2AF0000E4E6F000E73
:105418004F6F000E506F000E516FABEF2BF05451D1
:105428004E03F3CF65F1F4CF66F165515C6F5D6BA8
:105438005E6B5F6B6651616F626B636B646B53513C
:105448004F03F3CF65F1F4CF66F165515C27000E89
:105458005D235E235F2366516127000E6223632369
:10546800642352515003F3CF65F1F4CF66F16551CF
:105478005C27000E5D235E235F2366516127000EC3
:105488006223632364235EC15FF15DC15EF15CC189
:105498005DF15C6B52514F03F3CF65F1F4CF66F1C8
:1054A80065515C2766515D23000E5E23000E5F2365
:1054B80053514E03F3CF65F1F4CF66F165515C2784
:1054C80066515D23000E5E23000E5F235EC15FF10F
:1054D8005DC15EF15CC15DF15C6B52514E03F3CF6F
:1054E80065F1F4CF66F165515C2766515D23000EC6
:1054F8005E23000E5F2354514F03F3CF65F1F4CFC1
:1055080066F16551612766516223000E6323000E20
:10551800642353515003F3CF65F1F4CF66F165511D
:10552800612766516223000E6323000E64235451E1
:105538005003F3CF65F1F4CF66F16551566F6651AC
:10554800576F586B596B58C159F157C158F156C12B
:1055580057F1566B565161275751622358516323AF
:10556800595164235CC156F15DC157F15EC158F1D0
:105578005FC159F1190EC6EF2AF0D8905933583344
:1055880057335633E82EC1EF2AF056516127575149
:10559800622358516323595164235EC15FF15DC191
:1055A8005EF15CC15DF15C6B5B5160C156F1576B9C
:1055B8005627000E5723820E5625656FFF0E57217A
:1055C800666FFCEF2AF0D89061376237633764372B
:1055D8005FAFF1EF2AF0F3EF2AF0F4EF2AF06181E0
:1055E800D8905C375D375E375F376507D8A06607A8
:1055F80063AF01EF2BF003EF2BF0E7EF2AF0000E7B
:105608005B6F5FAF0AEF2BF00CEF2BF030EF2BF056
:10561800FF0E5C15566FFF0E5D15576FFF0E5E157A
:10562800586F7F0E5F15596F565157115811591100
:10563800D8B421EF2BF023EF2BF027EF2BF0010E3E
:105648005B6F30EF2BF061A12CEF2BF02EEF2BF0DE
:1056580030EF2BF023EF2BF05B51D8B436EF2BF063
:1056680038EF2BF05CEF2BF0010E6127000E622360
:105678006323642364A143EF2BF045EF2BF05CEF29
:105688002BF061C156F162C157F163C158F164C191
:1056980059F15935593358335733563356C161F197
:1056A80057C162F158C163F159C164F1654B662B6A
:1056B80066BF67EF2BF0665108E16529D8A067EF50
:1056C8002BF069EF2BF073EF2BF0000E616F000EDB
:1056D800626F800E636F7F0E646FA1EF2BF066BF61
:1056E80080EF2BF0665106E16505D8B07EEF2BF010
:1056F80080EF2BF08CEF2BF0000E616F000E626FC5
:10570800000E636F000E646F000E5A6FA1EF2BF04E
:1057180065C160F1FF0E6117FF0E62177F0E6317F8
:10572800000E641760A19BEF2BF09DEF2BF09EEF0E
:105738002BF0638FD8906031646F5A51641361C144
:105748004EF162C14FF163C150F164C151F11200D1
:105758004350800B4C6E43504324526E42AEB7EF19
:105768002BF0B9EF2BF0BAEF2BF052805250D8B48F
:10577800C0EF2BF0C2EF2BF0D5EF2BF05228D8A4B6
:10578800C8EF2BF0CAEF2BF0D2EF2BF0000E406ED3
:10579800000E416E000E426E000E436E428EDDEF2B
:1057A8002BF0000E406E000E416E000E426E000E91
:1057B800436E4750800B4C1A475047244D6E46AEF7
:1057C800E8EF2BF0EAEF2BF0EBEF2BF04D804D508C
:1057D800D8B4F1EF2BF0F3EF2BF006EF2CF04D28B7
:1057E800D8A4F9EF2BF0FBEF2BF003EF2CF0000E11
:1057F800446E000E456E000E466E000E476E468ED5
:105808000EEF2CF0000E446E000E456E000E466E34
:10581800000E476E4D50D8B414EF2CF016EF2CF054
:105828001EEF2CF05250D8A41CEF2CF01EEF2CF0D9
:1058380028EF2CF0000E406E000E416E000E426EF6
:10584800000E436EC0EF2DF046504002F3CF57F0E4
:10585800F4CF58F057504E6E4F6A506A516A5850FC
:10586800536E546A556A566A45504102F3CF57F051
:10587800F4CF58F057504E26000E4F225022512296
:1058880058505326000E54225522562244504202A4
:10589800F3CF57F0F4CF58F057504E26000E4F2252
:1058A8005022512258505326000E54225522562277
:1058B80050C051F04FC050F04EC04FF04E6A4450A7
:1058C8004102F3CF57F0F4CF58F057504E265850B6
:1058D8004F22000E5022000E512245504002F3CFB5
:1058E80057F0F4CF58F057504E2658504F22000E1C
:1058F8005022000E512250C051F04FC050F04EC0FF
:105908004FF04E6A44504002F3CF57F0F4CF58F0AE
:1059180057504E2658504F22000E5022000E51224A
:1059280046504102F3CF57F0F4CF58F05750532662
:1059380058505422000E5522000E5622455042025D
:10594800F3CF57F0F4CF58F05750532658505422FD
:10595800000E5522000E562246504202F3CF57F051
:10596800F4CF58F05750486E5850496E4A6A4B6AFF
:105978004AC04BF049C04AF048C049F0486A48500C
:105988005326495054224A5055224B5056224EC055
:1059980048F04FC049F050C04AF051C04BF0190EC2
:1059A800DBEF2CF0D8904B324A3249324832E82E9D
:1059B800D6EF2CF048505326495054224A505522CD
:1059C8004B50562250C051F04FC050F04EC04FF0CF
:1059D8004E6A4D5052C048F0496A4826000E492286
:1059E800820E4824576EFF0E4920586E11EF2DF095
:1059F800D890533654365536563651AE06EF2DF0FC
:105A080008EF2DF009EF2DF05380D8904E364F3621
:105A1800503651365706D8A0580655AE16EF2DF019
:105A280018EF2DF0FCEF2CF0000E4D6E51AE1FEF6D
:105A38002DF021EF2DF045EF2DF0FF0E4E14486E9E
:105A4800FF0E4F14496EFF0E50144A6E7F0E51140C
:105A58004B6E485049104A104B10D8B436EF2DF011
:105A680038EF2DF03CEF2DF0010E4D6E45EF2DF087
:105A780053A041EF2DF043EF2DF045EF2DF038EF17
:105A88002DF04D50D8B44BEF2DF04DEF2DF071EFB8
:105A98002DF0010E5326000E54225522562256A0F0
:105AA80058EF2DF05AEF2DF071EF2DF053C048F05C
:105AB80054C049F055C04AF056C04BF04B344B32F5
:105AC8004A324932483248C053F049C054F04AC0BB
:105AD80055F04BC056F0574A582A58BE7CEF2DF067
