:0400000007EF00F016
:100008007F8289ED4EF054EF5CF067506810D8B4E9
:1000180010EF00F012EF00F01EEF00F067C0D9FFFC
:1000280068C0DAFF65C0DEFF66C0DDFF1EEF00F0C6
:10003800654A662A65C0D9FF66C0DAFF200EDE1859
:10004800D8B429EF00F02CEF00F0010E2DEF00F0EE
:10005800000E736E746A73507410D8A436EF00F0F3
:1000680038EF00F01CEF00F0F70E696EFF0E6A6EB5
:1000780065C0D9FF66C0DAFFDF506B6E6B50736ED8
:10008800746A73C06CF074C06DF069506C266A5065
:100098006D226D5009E1050E6C5CD8A056EF00F09A
:1000A80058EF00F01CEF00F0000E706E2D0E731864
:1000B8007410D8A462EF00F064EF00F06AEF00F06B
:1000C800010E706E654A662A76EF00F02B0E7318E3
:1000D8007410D8A472EF00F074EF00F076EF00F01F
:1000E80066EF00F0000E796E7BEF00F0792A795008
:1000F8006524D96E000E6620DA6EDF50D8B487EF1B
:1001080000F089EF00F0BFEF00F079506524D96E58
:10011800000E6620DA6EDF50696EA30E7924F66E43
:10012800F76AFF0EF722F86A000EF8220800F55069
:100138006918D8B4A2EF00F0A4EF00F07AEF00F04D
:1001480079506524D96E000E6620DA6EDF50696E2C
:100158009A0E7924F66EF76AFF0EF722F86A000EF7
:10016800F8220800F5506918D8B4BDEF00F0BFEFC9
:1001780000F07AEF00F0020E7964C5EF00F0C7EFE7
:1001880000F0F3EF00F0000E756E000E766E800E34
:10019800776E7F0E786E67506810D8B4D6EF00F08F
:1001A800D8EF00F033EF08F0080E7918D8B4DFEF75
:1001B80000F0E1EF00F0E3EF00F0030E796E795004
:1001C8006524696E000E66206A6E67C0D9FF68C034
:1001D800DAFF69C0DEFF6AC0DDFF33EF08F0000E0A
:1001E800796EF8EF00F0792A79506524D96E000EFF
:1001F8006620DA6EDF50D8B404EF01F006EF01F0A4
:100208003CEF01F079506524D96E000E6620DA6E55
:10021800DF50696EF50E7924F66EF76AFF0EF72245
:10022800F86A000EF8220800F5506918D8B41FEFD4
:1002380001F021EF01F0F7EF00F079506524D96E55
:10024800000E6620DA6EDF50696EED0E7924F66EC8
:10025800F76AFF0EF722F86A000EF8220800F55038
:100268006918D8B43AEF01F03CEF01F0F7EF00F06D
:10027800030E7918D8A443EF01F045EF01F0B3EF6E
:1002880001F0CD0E016EFF0E026E21EC65F001C08B
:1002980075F002C076F003C077F004C078F06750BC
:1002A8006810D8B45AEF01F05CEF01F033EF08F0B2
:1002B80079506526000E662265C0D9FF66C0DAFF50
:1002C800280EDE18D8A46BEF01F06DEF01F0A9EF4E
:1002D80001F0000E796E72EF01F0792A79506524E9
:1002E800D96E000E6620DA6EDF50D8B47EEF01F0CA
:1002F80080EF01F08FEF01F079506524D96E000E80
:100308006620DA6E290EDE18D8A48DEF01F08FEF83
:1003180001F071EF01F079506524D96E000E662066
:10032800DA6E290EDE18D8A49CEF01F09EEF01F0DA
:10033800A9EF01F07950696E6A6A010E6926000E0C
:100348006A22695065266A50662267C0D9FF68C06C
:10035800DAFF65C0DEFF66C0DDFF33EF08F0000E90
:10036800746E000E736E000E756E000E766E000EC3
:10037800776E000E786E000E726E000E716E000EB3
:10038800796EC8EF01F0792A79506524D96E000E8C
:100398006620DA6E300EDE18D8B4D5EF01F0D7EF4C
:1003A80001F0C7EF01F07950D8B4DDEF01F0DFEFCD
:1003B80001F04FEF05F079506524D96E000E6620E4
:1003C800DA6E780EDE18D8B4ECEF01F0EEEF01F03B
:1003D800FDEF01F079506524D96E000E6620DA6EC3
:1003E800580EDE18D8A4FBEF01F0FDEF01F04FEF37
:1003F80005F07950696E6A6A010E6926000E6A2254
:10040800695065266A506622000E796E0DEF02F07B
:10041800792A79506524D96E000E6620DA6E300E7E
:10042800DE18D8B41AEF02F01CEF02F00CEF02F05D
:10043800000E796E79506524D96E000E6620DA6E4A
:10044800700EDE18D8B42BEF02F02DEF02F09FEFFC
:1004580003F079506524D96E000E6620DA6E500ECE
:10046800DE18D8A43AEF02F03CEF02F03EEF02F0BB
:100478009FEF03F079506524D96E000E6620DA6E7E
:100488002E0EDE18D8A44BEF02F04DEF02F051EF1C
:1004980002F07088792A9FEF03F079506524D96EAD
:1004A800000E6620DA6EDF50696E6950076E086AC2
:1004B800AEEC5BF007500810D8B465EF02F067EFB8
:1004C80002F0D5EF02F0000E6F6ED00E696EFF0ECF
:1004D8006A6E79506524D96E000E6620DA6EDF5098
:1004E8006B6E6C6A69506B266A506C226C5007E11F
:1004F8000A0E6B5CD8B083EF02F085EF02F090EF44
:1005080002F079506524D96E000E6620DA6EDF504D
:10051800D00F6F6EA0EF02F079506524D96E000EEF
:100528006620DA6EDF50696E6950036E046ABDECAE
:1005380061F00350C90F6F6E74BEAEEF02F07450D5
:1005480007E1080E735CD8B0ACEF02F0AEEF02F032
:10055800CDEF02F073500708696ED8906936D890CD
:1005680069366FC06AF06B6A6C6A6D6A692AC2EF95
:1005780002F0D8906A366B366C366D36692EBDEF50
:1005880002F06A5075126B5076126C5077126D50EB
:100598007812734A742A040E7126000E7222DFEF55
:1005A80002F0000E656E000E666E000E676E000E9D
:1005B800686E54EF08F0792A1EEF02F0795065242E
:1005C800D96E000E6620DA6E700EDE18D8B4EFEF22
:1005D80002F0F1EF02F0A6EF03F079506524D96E2E
:1005E800000E6620DA6E500EDE18D8A4FEEF02F078
:1005F80000EF03F002EF03F0A6EF03F07950652453
:10060800D96E000E6620DA6E300EDE18D8A40FEF11
:1006180003F011EF03F020EF03F073507410D8A427
:1006280018EF03F01AEF03F020EF03F0FC0E712629
:10063800FF0E72229EEF03F079506524D96E000EEA
:100648006620DA6EDF50696E6950076E086AAEEC94
:100658005BF007500810D8B434EF03F036EF03F01E
:100668009EEF03F0000E6F6ED00E696EFF0E6A6E7D
:1006780079506524D96E000E6620DA6EDF506B6EF5
:100688006C6A69506B266A506C226C5007E10A0E3E
:100698006B5CD8B052EF03F054EF03F05FEF03F058
:1006A80079506524D96E000E6620DA6EDF50D00FBF
:1006B8006F6E6FEF03F079506524D96E000E6620D7
:1006C800DA6EDF50696E6950036E046ABDEC61F042
:1006D8000350C90F6F6E74BE7DEF03F0745007E1CD
:1006E800080E735CD8B07BEF03F07DEF03F09CEF4E
:1006F80003F073500708696ED8906936D890693648
:100708006FC06AF06B6A6C6A6D6A692A91EF03F0D0
:10071800D8906A366B366C366D36692E8CEF03F0DE
:100728006A5075126B5076126C5077126D507812B1
:10073800734A742A792A70B8A4EF03F0A6EF03F07D
:10074800E2EF02F079506524D96E000E6620DA6E69
:10075800700EDE18D8B4B3EF03F0B5EF03F0CEEFA8
:1007680003F079506524D96E000E6620DA6E500EBB
:10077800DE18D8B4C2EF03F0C4EF03F0CEEF03F0F5
:10078800000E656E000E666E000E676E000E686ED7
:1007980054EF08F0792A79506524D96E000E662046
:1007A800DA6E2B0EDE18D8A4DCEF03F0DEEF03F0D0
:1007B800E1EF03F0792AF2EF03F079506524D96E5E
:1007C800000E6620DA6E2D0EDE18D8A4EEEF03F0C8
:1007D800F0EF03F0F2EF03F07086792A795065267E
:1007E800000E6622000E796EFBEF03F0792A79502D
:1007F8006524D96E000E6620DA6E300EDE18D8B485
:1008080008EF04F00AEF04F0FAEF03F0000E746E3C
:10081800000E736E3CEF04F07950D8B416EF04F074
:1008280018EF04F026EF04F073C001F074C002F072
:10083800000E046E0A0E036EEBEC64F001C073F058
:1008480002C074F0D00E696EFF0E6A6E795065248E
:10085800D96E000E6620DA6EDF506B6E6C6A6950D6
:100868006B266A506C226B5073266C507422792A5E
:10087800D00E696EFF0E6A6E79506524D96E000E2F
:100888006620DA6EDF506B6E6C6A69506B266A50B0
:100898006C226C5009E10A0E6B5CD8A056EF04F08C
:1008A80058EF04F010EF04F07950D8A45EEF04F08C
:1008B80060EF04F06AEF04F0000E656E000E666EDD
:1008C800000E676E000E686E54EF08F070A66FEFAA
:1008D80004F071EF04F075EF04F0736C741ED8B077
:1008E800742A735071267450722267506810D8B4F5
:1008F80080EF04F082EF04F090EF04F07950652463
:10090800696E000E66206A6E67C0D9FF68C0DAFF9C
:1009180069C0DEFF6AC0DDFF755076107710781069
:10092800D8A499EF04F09BEF04F0A5EF04F0000EB3
:10093800656E000E666E000E676E000E686E54EFF0
:1009480008F0FF0E7514696E000E76146A6E000EBC
:1009580077146B6E000E78146C6E6C506B106A1006
:1009680009E1810E695CD8A0BCEF04F0BEEF04F089
:10097800D0EF04F0000E7526010E7622000E7722C5
:10098800000E7822D0EF04F0D89075367636773698
:1009980078367106D8A0720678AED5EF04F0D7EF96
:1009A80004F0C8EF04F072AEE3EF04F0830E715C5C
:1009B800FF0E7258D8B0E3EF04F0E5EF04F0F1EF62
:1009C80004F0FF0E726E810E716E000E756E000ED1
:1009D800766E000E776E000E786E810E711808E143
:1009E8007228D8B4FAEF04F0FCEF04F004EF05F035
:1009F800D89075367636773678367106D8A072066E
:100A080072BE10EF05F0725009E1800E715CD8A03B
:100A180010EF05F012EF05F01EEF05F0000E756EF1
:100A2800000E766E000E776E000E786E000E726EF7
:100A3800800E716E090E696ED890783277327632F0
:100A48007532692E20EF05F0FF0E7516FF0E76162B
:100A58007F0E7716000E78167F0E7124696E000ED1
:100A680072206A6EFF0E69146B6E6C6A6D6A6E6A2C
:100A7800170ED8906B366C366D366E36E82E3DEF15
:100A880005F06B5075126C5076126D5077126E50DF
:100A9800781233EF08F070B854EF05F056EF05F010
:100AA80068EF05F065C0D9FF66C0DAFF2E0EDE18C4
:100AB800D8A461EF05F063EF05F068EF05F07088E2
:100AC800654A662A4FEF05F0D00E696EFF0E6A6E12
:100AD80065C0D9FF66C0DAFFDF506B6E6C6A69507B
:100AE8006B266A506C226C5009E10A0E6B5CD8A028
:100AF80080EF05F082EF05F084EF05F0D2EF05F006
:100B08007082090E73187410D8B48DEF05F08FEF4A
:100B180005F0C5EF05F070A894EF05F096EF05F025
:100B280099EF05F07106D8A07206734A742A75C049
:100B380001F076C002F077C003F078C004F00A0E26
:100B4800056E000E066E000E076E000E086E89EC2C
:100B58005CF001C075F002C076F003C077F004C005
:100B680078F065C0D9FF66C0DAFFDF50696ED00E35
:100B7800692669507526000E762277227822CEEFF4
:100B880005F070B8CAEF05F0CCEF05F0CEEF05F030
:100B9800714A722A654A662A4FEF05F0000E746E94
:100BA800000E736E65C0D9FF66C0DAFF650EDE18E9
:100BB800D8B4E1EF05F0E3EF05F0F0EF05F065C01C
:100BC800D9FF66C0DAFF450EDE18D8A4EEEF05F0AF
:100BD800F0EF05F0B8EF06F0654A662A65C0D9FF60
:100BE80066C0DAFF2D0EDE18D8A4FDEF05F0FFEF82
:100BF80005F004EF06F07086654A662A13EF06F0E2
:100C080065C0D9FF66C0DAFF2B0EDE18D8A40FEF37
:100C180006F011EF06F013EF06F0654A662A65C084
:100C2800D9FF66C0DAFF300EDE18D8B41EEF06F022
:100C380020EF06F011EF06F0D00E696EFF0E6A6E17
:100C480065C0D9FF66C0DAFFDF506B6E6C6A695009
:100C58006B266A506C226C5007E10A0E6B5CD8B0A8
:100C680038EF06F03AEF06F0ADEF06F065C0D9FFB1
:100C780066C0DAFFDF50696ED00E69266950736E60
:100C8800746A654A662AD00E696EFF0E6A6E65C080
:100C9800D9FF66C0DAFFDF506B6E6C6A69506B264D
:100CA8006A506C226C5007E10A0E6B5CD8B05FEF9B
:100CB80006F061EF06F0ADEF06F065C0D9FF66C03B
:100CC800DAFFDF50696ED00E692673C001F074C078
:100CD80002F0000E046E0A0E036EEBEC64F069502D
:100CE8000124736E000E0220746E654A662AD00EC7
:100CF800696EFF0E6A6E65C0D9FF66C0DAFFDF5005
:100D08006B6E6C6A69506B266A506C226C5007E1F6
:100D18000A0E6B5CD8B093EF06F095EF06F0ADEFD6
:100D280006F065C0D9FF66C0DAFFDF50696ED00EE5
:100D3800692673C001F074C002F0000E046E0A0E3A
:100D4800036EEBEC64F069500124736E000E022010
:100D5800746E70A6B2EF06F0B4EF06F0B8EF06F0C6
:100D6800736C741ED8B0742A735071267450722232
:100D780067506810D8B4C3EF06F0C5EF06F0D4EF9B
:100D880006F070A2CAEF06F0CCEF06F0D4EF06F03A
:100D980067C0D9FF68C0DAFF65C0DEFF66C0DDFF47
:100DA80075C001F076C002F077C003F078C004F097
:100DB800000E22EC41F001C075F002C076F003C0CD
:100DC80077F004C078F075C001F076C002F077C003
:100DD80003F078C004F0000E056E000E066E000EDB
:100DE800076E000E086EF9EC56F0D8A0FEEF06F07C
:100DF80000EF07F00AEF07F0000E656E000E666E52
:100E0800000E676E000E686E54EF08F072BE11EFA8
:100E180007F00FEF07F09FEF07F0716C721ED8B064
:100E2800722A35EF07F075C00FF076C010F077C062
:100E380011F078C012F0F90E136E020E146E150E32
:100E4800156E500E166E93EC30F00FC075F010C092
:100E580076F011C077F012C078F0F60E7126FF0E0A
:100E6800722272BE43EF07F0725007E10A0E715CFE
:100E7800D8B041EF07F043EF07F017EF07F062EF44
:100E880007F075C00FF076C010F077C011F078C089
:100E980012F0000E136E000E146E200E156E410E29
:100EA800166E93EC30F00FC075F010C076F011C0DC
:100EB80077F012C078F07106D8A0720671507210DF
:100EC800D8A469EF07F06BEF07F045EF07F075C09E
:100ED80059F076C05AF077C05BF078C05CF0000E2D
:100EE8005D6E000E5E6E800E5F6E000E606E88ECAA
:100EF8004CF0D8B082EF07F084EF07F033EF08F03A
:100F080070A089EF07F08BEF07F095EF07F0000E60
:100F1800656E000E666E800E676E800E686E54EF0A
:100F280008F0000E656E000E666E800E676E000E8D
:100F3800686E54EF08F072BEAAEF07F0725008E12D
:100F48007104D8A0AAEF07F0ACEF07F033EF08F070
:100F5800CCEF07F075C040F076C041F077C042F0A2
:100F680078C043F0F90E446E020E456E150E466EBB
:100F7800500E476EA1EC2CF040C075F041C076F0E1
:100F880042C077F043C078F0F60E7126FF0E722249
:100F9800725007E10A0E715CD8B0D5EF07F0D7EFB1
:100FA80007F0AEEF07F0F6EF07F075C040F076C037
:100FB80041F077C042F078C043F0000E446E000E56
:100FC800456E200E466E410E476EA1EC2CF040C0D7
:100FD80075F041C076F042C077F043C078F07106F2
:100FE800D8A0720671507210D8A4FDEF07F0FFEF79
:100FF80007F0D9EF07F0FF0E596EFF0E5A6E7F0EFD
:101008005B6E7F0E5C6E75C05DF076C05EF077C07B
:101018005FF078C060F088EC4CF0D8B016EF08F0BC
:1010280018EF08F033EF08F070A01DEF08F01FEF7D
:1010380008F029EF08F0000E656E000E666E800E4F
:10104800676E800E686E54EF08F0000E656E000E35
:10105800666E800E676E000E686E54EF08F070A022
:1010680038EF08F03AEF08F04CEF08F075C001F0DF
:1010780076C002F077C003F078C004F04CEC63F05F
:1010880001C075F002C076F003C077F004C078F0B4
:1010980075C065F076C066F077C067F078C068F014
:1010A8001200000E0301B96F000EB86FC7C2CAF371
:1010B800C8C2CBF3C9C2CCF3CAC2CDF3CDBF69EF66
:1010C80008F067EF08F07FEF08F0000EB96F010E27
:1010D800B86FCAC350F1CBC351F1CCC352F1CDC3E1
:1010E80053F1BDEC62F050C1CAF351C1CBF352C108
:1010F800CCF353C1CDF3000E0301D16F000ED06FB6
:101108007BC1BCF37CC1BDF3B851B911D8A48FEF32
:1011180008F091EF08F099EF08F001017FA597EF2B
:1011280008F099EF08F0B4EF08F00301B851B911CD
:10113800D8A4A1EF08F0A3EF08F0A9EF08F0000E7B
:10114800A56F2B0EA46FADEF08F0000EA56F2D0E46
:10115800A46FA4C337F2D04BD12BBC07D8A0BD07CE
:10116800CAC350F1CBC351F1CCC352F1CDC353F133
:101178000AEC4DF0010150055111D8A4C6EF08F052
:10118800C8EF08F01BEF09F0BF0E0201CC6FFF0E8D
:10119800CD6FCB51CE6FCF6BCC51CE27CD51CF2356
:1011A800CF5107E11A0ECE5DD8B0DDEF08F0DFEFC2
:1011B80008F0F1EF08F0370E0301D0250101506F58
:1011C800020E0301D1210101516FE90E526FFF0E8A
:1011D800536FBDEC5DF001EF09F0370E0301D02528
:1011E8000101506F020E0301D1210101516FF10E6F
:1011F800526FFF0E536FBDEC5DF00301FD0EBC276F
:10120800FF0EBD23C5C298F2C6C299F2370E02017D
:101218009A6F020E9B6FBCC39CF2BDC39DF229EC72
:1012280052F098C2C5F299C2C6F2A0EF0EF0CAC336
:1012380050F1CBC351F1CCC352F1CDC353F10AECF9
:101248004DF0010150515111D8A42DEF09F02FEFA5
:1012580009F06AEF09F0BF0E0201CC6FFF0ECD6FE7
:10126800CB51CE6FCF6BCC51CE27CD51CF23CF51A1
:1012780007E11A0ECE5DD8B044EF09F046EF09F049
:1012880058EF09F0370E0301D0250101506F020E07
:101298000301D1210101516FED0E526FFF0E536F03
:1012A800BDEC5DF001EF09F0370E0301D025010117
:1012B800506F020E0301D1210101516FF50E526FDB
:1012C800FF0E536FBDEC5DF001EF09F0000E030156
:1012D800D26F000ED36F800ED46F3F0ED56F000E05
:1012E800CF6F000ECE6FCAC350F1CBC351F1CCC340
:1012F80052F1CDC353F1000E0101546F000E556F2A
:10130800000E566F000E576FA3EC56F00101D8B0CF
:1013180090EF09F092EF09F018EF0AF0B1EF09F039
:10132800D2C398F2D3C399F2D4C39AF2D5C39BF22D
:10133800000E9C6F000E9D6F200E9E6F410E9F6FDA
:101348006AEC2AF098C2D2F399C2D3F39AC2D4F3C2
:101358009BC2D5F30301CE4BCF2BCAC3ADF2CBC38F
:10136800AEF2CCC3AFF2CDC3B0F2000E02019C6F57
:10137800000E9D6F200E9E6F410E9F6FD2C398F294
:10138800D3C399F2D4C39AF2D5C39BF26AEC2AF07C
:1013980098C2B1F299C2B2F29AC2B3F29BC2B4F245
:1013A80082EC4BF00201D8B0DCEF09F0DEEF09F077
:1013B80094EF09F0FEEF09F0D2C398F2D3C399F283
:1013C800D4C39AF2D5C39BF2000E9C6F000E9D6F9A
:1013D800200E9E6F410E9F6FB6EC2EF098C2D2F38E
:1013E80099C2D3F39AC2D4F39BC2D5F30301CE07B3
:1013F800D8A0CF07CAC3ADF2CBC3AEF2CCC3AFF20D
:10140800CDC3B0F2D2C3B1F2D3C3B2F2D4C3B3F2F4
:10141800D5C3B4F282EC4BF00201D8A016EF0AF063
:1014280018EF0AF0E0EF09F0CBC256F10101576B53
:1014380081EC60F0010156510301BF6FBFC3BEF3D9
:10144800670EBF19D8A42BEF0AF02DEF0AF055EF5D
:101458000AF001017D517E11D8A435EF0AF037EF6B
:101468000AF03BEF0AF0000E7E6F010E7D6F7EBF23
:1014780048EF0AF07E5106E17D05D8B046EF0AF044
:1014880048EF0AF04FEF0AF0000E0301BB6F060E9B
:10149800BA6F5FEF0AF07DC1BAF37EC1BBF35FEFAD
:1014A8000AF001017EBF5BEF0AF05DEF0AF048EF3A
:1014B8000AF04FEF0AF0670E0301BF19D8A467EFCF
:1014C8000AF069EF0AF09FEF0AF0CFAF77EF0AF062
:1014D800FC0ECE5DFF0ECF59D8A075EF0AF077EF5E
:1014E8000AF09CEF0AF0FF0E0201CC6FFF0ECD6FE1
:1014F800BAC3CEF2BBC3CFF2CC51CE27CD51CF2346
:101508000301CE510201CE5DCF51800AD06F030195
:10151800CF51800A0201D059D8A095EF0AF097EF71
:101528000AF09CEF0AF0660E0301BE6F9FEF0AF007
:10153800650E0301BE6FBAC3B0F3BBC3B1F3670E48
:10154800BF19D8A4AAEF0AF0ACEF0AF0BCEF0AF072
:10155800660EBE19D8A4B3EF0AF0B5EF0AF0BEEFD5
:101568000AF0CFBFBCEF0AF0BAEF0AF0BEEF0AF0FC
:10157800B04BB12B660EBE19D8A4C5EF0AF0C7EF61
:101588000AF0E7EF0AF0CFBFCEEF0AF0CCEF0AF08F
:10159800DAEF0AF0000ED26F000ED36F800ED46F10
:1015A8003F0ED56F000ECF6F000ECE6F670EBF19BE
:1015B800D8B4E1EF0AF0E3EF0AF0E7EF0AF0CE5112
:1015C800B027CF51B123000EC96F000EC86FCAC330
:1015D800C0F3CBC3C1F3CCC3C2F3CDC3C3F3D2C3EF
:1015E800B2F3D3C3B3F3D4C3B4F3D5C3B5F379EF2C
:1015F8000BF0C0C398F2C1C399F2C2C39AF2C3C335
:101608009BF2D2C39CF2D3C39DF2D4C39EF2D5C33E
:101618009FF2B6EC2EF098C2ADF299C2AEF29AC221
:10162800AFF29BC2B0F263EC3CF0ADC2C4F3AEC201
:10163800C5F3AFC2C6F3B0C2C7F3C4C3ADF2C5C3E6
:10164800AEF2C6C3AFF2C7C3B0F268EC4AF0ADC29F
:10165800B6F3AEC2B7F3C0C3BDF2C1C3BEF2C2C3D4
:10166800BFF2C3C3C0F2D2C39CF2D3C39DF2D4C3AA
:101678009EF2D5C39FF2C4C398F2C5C399F2C6C3FC
:101688009AF2C7C39BF26AEC2AF098C2C1F299C2D7
:10169800C2F29AC2C3F29BC2C4F2A5EC60F0BDC20A
:1016A800C0F3BEC2C1F3BFC2C2F3C0C2C3F3D2C348
:1016B80098F2D3C399F2D4C39AF2D5C39BF2000E21
:1016C80002019C6F000E9D6F200E9E6F410E9F6F52
:1016D800B6EC2EF098C2D2F399C2D3F39AC2D4F3DF
:1016E8009BC2D5F30301C84BC92BB051C85DC95182
:1016F800800A0201CC6F0301B151800A0201CC5962
:10170800D8A089EF0BF08BEF0BF0FDEF0AF0D2C3F6
:1017180098F2D3C399F2D4C39AF2D5C39BF2000EC0
:101728009C6F000E9D6FA00E9E6F400E9F6F6AEC1F
:101738002AF098C2C4F399C2C5F39AC2C6F39BC2F1
:10174800C7F3C0C3ADF2C1C3AEF2C2C3AFF2C3C3E5
:10175800B0F2C4C3B1F2C5C3B2F2C6C3B3F2C7C3D1
:10176800B4F282EC4BF00201D8B0BDEF0BF0BFEF42
:101778000BF0CAEF0BF0000E0301C46F000EC56F2B
:10178800000EC66F000EC76FF4EF0BF0C0C350F128
:10179800C1C351F1C2C352F1C3C353F1C4C354F11D
:1017A800C5C355F1C6C356F1C7C357F1A3EC56F0EC
:1017B8000101D8A0E2EF0BF0E4EF0BF0F4EF0BF02F
:1017C8000301B6B1EAEF0BF0ECEF0BF0F4EF0BF01E
:1017D800000EC46F000EC56F000EC66F000EC76FF7
:1017E800CAC3ADF2CBC3AEF2CCC3AFF2CDC3B0F235
:1017F800C4C3B1F2C5C3B2F2C6C3B3F2C7C3B4F22D
:10180800A9EC25F0ADC2C0F3AEC2C1F3AFC2C2F3BA
:10181800B0C2C3F3C0C3ADF2C1C3AEF2C2C3AFF22C
:10182800C3C3B0F2000E02019C6F000E9D6F200E24
:101838009E6F410E9F6FB2C398F2B3C399F2B4C3BF
:101848009AF2B5C39BF26AEC2AF098C2B1F299C237
:10185800B2F29AC2B3F29BC2B4F282EC4BF002012C
:10186800D8A039EF0CF03BEF0CF065EF0CF003015A
:10187800CE4BCF2BB2C398F2B3C399F2B4C39AF24A
:10188800B5C39BF2000E02019C6F000E9D6F200EE7
:101898009E6F410E9F6F6AEC2AF098C2B2F399C20C
:1018A800B3F39AC2B4F39BC2B5F3660E0301BE1933
:1018B800D8A461EF0CF063EF0CF065EF0CF0B04BBF
:1018C800B12BB2C3D2F3B3C3D3F3B4C3D4F3B5C308
:1018D800D5F3650E0301BE19D8B475EF0CF077EF98
:1018E8000CF07DEF0CF0CEC3AEF3CFC3AFF381EFB6
:1018F8000CF0000EAF6F000EAE6F000EAD6F000E55
:10190800AC6F000EAB6F000EAA6F000EC96F000E11
:10191800C86F7FEF0DF0C0C398F2C1C399F2C2C37C
:101928009AF2C3C39BF2D2C39CF2D3C39DF2D4C331
:101938009EF2D5C39FF2B6EC2EF098C2ADF299C2D2
:10194800AEF29AC2AFF29BC2B0F263EC3CF0ADC209
:10195800C4F3AEC2C5F3AFC2C6F3B0C2C7F3C4C3C3
:10196800ADF2C5C3AEF2C6C3AFF2C7C3B0F268ECFE
:101978004AF0ADC2B6F3AEC2B7F301017FB9C7EF03
:101988000CF0C9EF0CF0E7EF0CF00301B651B711FA
:10199800D8A4D1EF0CF0D3EF0CF0E7EF0CF0670E02
:1019A800BF19D8A4DAEF0CF0DCEF0CF0E7EF0CF07D
:1019B800AFBFE3EF0CF0E1EF0CF0E7EF0CF0AA4B50
:1019C800AB2B32EF0DF00301AC51AD11D8A4EFEF02
:1019D8000CF0F1EF0CF01BEF0DF0AFBFF8EF0CF0CF
:1019E800F6EF0CF01BEF0DF0370ED025D96E020E76
:1019F800D121DA6E2E0EDF6ED04BD12BBC07D8A0CA
:101A0800BD07000EAD6F010EAC6F1BEF0DF0370E6A
:101A1800D025D96E020ED121DA6E300EDF6ED04B92
:101A2800D12BBC07D8A0BD07AA07D8A0AB07AA51DD
:101A3800AB11D8A422EF0DF024EF0DF00BEF0DF051
:101A4800370ED025D96E020ED121DA6EB651300F7D
:101A5800DF6ED04BD12BBC07D8A0BD07C0C3BDF2E9
:101A6800C1C3BEF2C2C3BFF2C3C3C0F2D2C39CF2A9
:101A7800D3C39DF2D4C39EF2D5C39FF2C4C398F2D8
:101A8800C5C399F2C6C39AF2C7C39BF26AEC2AF09F
:101A980098C2C1F299C2C2F29AC2C3F29BC2C4F2FE
:101AA800A5EC60F0BDC2C0F3BEC2C1F3BFC2C2F3B1
:101AB800C0C2C3F3D2C398F2D3C399F2D4C39AF283
:101AC800D5C39BF2000E02019C6F000E9D6F200E85
:101AD8009E6F410E9F6FB6EC2EF098C2D2F399C25A
:101AE800D3F39AC2D4F39BC2D5F30301AE07D8A0AF
:101AF800AF07C84BC92BB051C85DC951800A020154
:101B0800CC6F0301B151800A0201CC59D8B08FEFD4
:101B18000DF091EF0DF0A0EF0DF00301D1BF9EEF96
:101B28000DF0D15109E14B0ED05DD8A09EEF0DF01C
:101B3800A0EF0DF08FEF0CF00301AC51AD11D8A45C
:101B4800A8EF0DF0AAEF0DF0BDEF0DF001017FA990
:101B5800B0EF0DF0B2EF0DF0BDEF0DF0370E030151
:101B6800D025D96E020ED121DA6E2E0EDF6ED04B43
:101B7800D12B370E0301D025D96E020ED121DA6E92
:101B8800000EDF6E650EBE19D8A4CDEF0DF0CFEFB5
:101B98000DF006EF09F0000EC96F4F0EC86F370E33
:101BA800C825D96E020EC921DA6E000EDF6E000E4E
:101BB800B96F000EB86FCFBFE6EF0DF0E4EF0DF090
:101BC800EEEF0DF0000EB96F010EB86FCE6DCF1F9E
:101BD800D8B0CF2B000EBB6F020EBA6F21EF0EF0FC
:101BE800C807D8A0C907370EC825D96E020EC92163
:101BF800DA6ECEC350F1CFC351F1000E0101536F1D
:101C08000A0E526F41EC55F001015051300FDF6E52
:101C1800CEC350F1CFC351F1000E536F0A0E526F6D
:101C280060EC53F050C1CEF351C1CFF30301BA07B2
:101C3800D8A0BB07BC07D8A0BD07CE51CF11D8A4E8
:101C480028EF0EF02AEF0EF0F4EF0DF0BBBF37EFE0
:101C58000EF0BB5106E1BA05D8B035EF0EF037EFFC
:101C68000EF0F4EF0DF0C807D8A0C907B851B911A4
:101C7800D8A441EF0EF043EF0EF049EF0EF0000E3E
:101C8800A76F2B0EA66F4DEF0EF0000EA76F2D0E4F
:101C9800A66F370EC825D96E020EC921DA6EA6C303
:101CA800DFFFBC07D8A0BD07C807D8A0C907BF0E6B
:101CB8000201CC6FFF0ECD6FCB51CE6FCF6BCC51E5
:101CC800CE27CD51CF23CF5109E11A0ECE5DD8A032
:101CD80070EF0EF072EF0EF079EF0EF0000E0301C8
:101CE800A96F650EA86F7EEF0EF0000E0301A96FB5
:101CF800450EA86F370EC825D96E020EC921DA6EB7
:101D0800A8C3DFFFBC07D8A0BD07370ED025010147
:101D1800506F020E0301D1210101516F370E0301EB
:101D2800C8250101526F020E0301C9210101536F39
:101D3800BDEC5DF006EF09F01200000E0001956F92
:101D4800000E946F67C0A6F068C0A7F069C0A8F03D
:101D58006AC0A9F0A9BFB5EF0EF0B3EF0EF0CBEF54
:101D68000EF0000E956F010E946FA6C001F0A7C08B
:101D780002F0A8C003F0A9C004F04CEC63F001C065
:101D8800A6F002C0A7F003C0A8F004C0A9F0000E96
:101D98000001AD6F000EAC6F7BC198F07CC199F06B
:101DA80094519511D8A4DBEF0EF0DDEF0EF0E5EFBE
:101DB8000EF001017FA5E3EF0EF0E5EF0EF000EF66
:101DC8000FF0000194519511D8A4EDEF0EF0EFEF4C
:101DD8000EF0F5EF0EF0000E816F2B0E806FF9EF0D
:101DE8000EF0000E816F2D0E806F80C037F2AC4B65
:101DF800AD2B9807D8A09907A6C001F0A7C002F09C
:101E0800A8C003F0A9C004F00AEC4EF001040210C7
:101E1800D8A411EF0FF013EF0FF05EEF0FF0BF0E25
:101E28006C6EFF0E6D6E6B506E6E6F6A6C506E2628
:101E38006D506F226F5007E11A0E6E5CD8B027EF15
:101E48000FF029EF0FF038EF0FF0370E0001AC2537
:101E5800016E020EAD21026EE90E036EFF0E046ED6
:101E68001DEC5EF045EF0FF0370E0001AC25016E5A
:101E7800020EAD21026EF10E036EFF0E046E1DEC14
:101E88005EF00001FD0E9827FF0E992365C013F040
:101E980066C014F0370E156E020E166E98C017F055
:101EA80099C018F0C3EC53F013C065F014C066F085
:101EB800B2EF14F0A6C001F0A7C002F0A8C003F06A
:101EC800A9C004F00AEC4EF001500210D8A46FEF3C
:101ED8000FF071EF0FF0A5EF0FF0BF0E6C6EFF0E55
:101EE8006D6E6B506E6E6F6A6C506E266D506F2201
:101EF8006F5007E11A0E6E5CD8B085EF0FF087EFD0
:101F08000FF096EF0FF0370E0001AC25016E020EB0
:101F1800AD21026EED0E036EFF0E046E1DEC5EF039
:101F280045EF0FF0370E0001AC25016E020EAD2112
:101F3800026EF50E036EFF0E046E1DEC5EF045EFAB
:101F48000FF0000E0001AE6F000EAF6F800EB06F85
:101F58003F0EB16F000EAB6F000EAA6FA6C001F066
:101F6800A7C002F0A8C003F0A9C004F0000E056ED7
:101F7800000E066E000E076E000E086EF9EC56F0A5
:101F8800D8B0C9EF0FF0CBEF0FF04EEF10F0EAEF3B
:101F98000FF0AEC040F0AFC041F0B0C042F0B1C0E9
:101FA80043F0000E446E000E456E200E466E410E44
:101FB800476EA1EC2CF040C0AEF041C0AFF042C07B
:101FC800B0F043C0B1F00001AA4BAB2BA6C059F04A
:101FD800A7C05AF0A8C05BF0A9C05CF0000E446E20
:101FE800000E456E200E466E410E476EAEC040F0A4
:101FF800AFC041F0B0C042F0B1C043F0A1EC2CF04A
:1020080040C05DF041C05EF042C05FF043C060F088
:1020180088EC4CF0D8B013EF10F015EF10F0CDEFBE
:102028000FF035EF10F0AEC00FF0AFC010F0B0C039
:1020380011F0B1C012F0000E136E000E146E200ED7
:10204800156E410E166E93EC30F00FC0AEF010C056
:10205800AFF011C0B0F012C0B1F00001AA07D8A0CB
:10206800AB07A6C059F0A7C05AF0A8C05BF0A9C03A
:102078005CF0AEC05DF0AFC05EF0B0C05FF0B1C064
:1020880060F088EC4CF0D8A04CEF10F04EEF10F058
:1020980017EF10F06BC003F0046A33EC61F00350E3
:1020A80000019B6F9BC09AF0670E9B19D8A45FEF45
:1020B80010F061EF10F089EF10F001017D517E11F1
:1020C800D8A469EF10F06BEF10F06FEF10F0000E6E
:1020D8007E6F010E7D6F7EBF7CEF10F07E5106E1B2
:1020E8007D05D8B07AEF10F07CEF10F083EF10F098
:1020F800000E0001976F060E966F93EF10F07DC1EA
:1021080096F07EC197F093EF10F001017EBF8FEF3C
:1021180010F091EF10F07CEF10F083EF10F0670EE5
:1021280000019B19D8A49BEF10F09DEF10F0CCEFA5
:1021380010F0ABAFABEF10F0FC0EAA5DFF0EAB5981
:10214800D8A0A9EF10F0ABEF10F0CAEF10F0FF0E17
:102158006C6EFF0E6D6E96C06EF097C06FF06C508F
:102168006E266D506F22AA516E5C6F50800A706E99
:10217800AB51800A7058D8A0C4EF10F0C6EF10F029
:10218800CAEF10F0660E9A6FCCEF10F0650E9A6FDA
:1021980096C08CF097C08DF0670E9B19D8A4D7EF26
:1021A80010F0D9EF10F0E9EF10F0660E9A19D8A4E4
:1021B800E0EF10F0E2EF10F0EBEF10F0ABBFE9EF5B
:1021C80010F0E7EF10F0EBEF10F08C4B8D2B660E54
:1021D8009A19D8A4F2EF10F0F4EF10F014EF11F000
:1021E800ABBFFBEF10F0F9EF10F007EF11F0000EA6
:1021F800AE6F000EAF6F800EB06F3F0EB16F000E66
:10220800AB6F000EAA6F670E9B19D8B40EEF11F0D2
:1022180010EF11F014EF11F0AA518C27AB518D2358
:10222800000EA56F000EA46FA6C09CF0A7C09DF07D
:10223800A8C09EF0A9C09FF0AEC08EF0AFC08FF0CE
:10224800B0C090F0B1C091F0A5EF11F09CC00FF0B4
:102258009DC010F09EC011F09FC012F0AEC013F0E8
:10226800AFC014F0B0C015F0B1C016F093EC30F068
:102278000FC028F010C029F011C02AF012C02BF0AE
:102288006EEC3DF028C0A0F029C0A1F02AC0A2F051
:102298002BC0A3F0A0C059F0A1C05AF0A2C05BF0B7
:1022A800A3C05CF005EC4CF059C092F05AC093F012
:1022B8009CC038F09DC039F09EC03AF09FC03BF0FA
:1022C800AEC044F0AFC045F0B0C046F0B1C047F072
:1022D800A0C040F0A1C041F0A2C042F0A3C043F0AA
:1022E800A1EC2CF040C03CF041C03DF042C03EF0B3
:1022F80043C03FF056EC61F038C09CF039C09DF007
:102308003AC09EF03BC09FF0AEC00FF0AFC010F0D7
:10231800B0C011F0B1C012F0000E136E000E146EB2
:10232800200E156E410E166E93EC30F00FC0AEF015
:1023380010C0AFF011C0B0F012C0B1F00001A44B52
:10234800A52B8C51A45DA551800A6C6E8D51800A15
:102358006C58D8A0B2EF11F0B4EF11F02AEF11F0D9
:10236800AEC040F0AFC041F0B0C042F0B1C043F0E1
:10237800000E446E000E456EA00E466E400E476E6F
:10238800A1EC2CF040C0A0F041C0A1F042C0A2F0E6
:1023980043C0A3F09CC059F09DC05AF09EC05BF0AA
:1023A8009FC05CF0A0C05DF0A1C05EF0A2C05FF06D
:1023B800A3C060F088EC4CF0D8B0E5EF11F0E7EF7F
:1023C80011F0F2EF11F0000E0001A06F000EA16FE6
:1023D800000EA26F000EA36F1BEF12F09CC001F05D
:1023E8009DC002F09EC003F09FC004F0A0C005F09D
:1023F800A1C006F0A2C007F0A3C008F0F9EC56F09F
:10240800D8A009EF12F00BEF12F01BEF12F0000149
:1024180092B111EF12F013EF12F01BEF12F0000E51
:10242800A06F000EA16F000EA26F000EA36FA6C0D2
:1024380028F0A7C029F0A8C02AF0A9C02BF0A0C096
:102448002CF0A1C02DF0A2C02EF0A3C02FF00AECF2
:1024580028F028C09CF029C09DF02AC09EF02BC00F
:102468009FF09CC059F09DC05AF09EC05BF09FC081
:102478005CF0000E446E000E456E200E466E410E56
:10248800476E8EC040F08FC041F090C042F091C0BE
:1024980043F0A1EC2CF040C05DF041C05EF042C0BA
:1024A8005FF043C060F088EC4CF0D8A05EEF12F00B
:1024B80060EF12F089EF12F00001AA4BAB2B8EC02F
:1024C80040F08FC041F090C042F091C043F0000E40
:1024D800446E000E456E200E466E410E476EA1EC0E
:1024E8002CF040C08EF041C08FF042C090F043C045
:1024F80091F0660E00019A19D8A485EF12F087EFC3
:1025080012F089EF12F08C4B8D2B8EC0AEF08FC07D
:10251800AFF090C0B0F091C0B1F0650E00019A190B
:10252800D8B499EF12F09BEF12F0A1EF12F0AAC005
:102538008AF0ABC08BF0A5EF12F0000E8B6F000E87
:102548008A6F000E896F000E886F000E876F000E6D
:10255800866F000EA56F000EA46FA2EF13F09CC04B
:102568000FF09DC010F09EC011F09FC012F0AEC0D9
:1025780013F0AFC014F0B0C015F0B1C016F093EC72
:1025880030F00FC028F010C029F011C02AF012C096
:102598002BF06EEC3DF028C0A0F029C0A1F02AC0B5
:1025A800A2F02BC0A3F0A0C059F0A1C05AF0A2C05D
:1025B8005BF0A3C05CF005EC4CF059C092F05AC037
:1025C80093F001017FB9EBEF12F0EDEF12F00BEF92
:1025D80013F0000192519311D8A4F5EF12F0F7EF20
:1025E80012F00BEF13F0670E9B19D8A4FEEF12F050
:1025F80000EF13F00BEF13F08BBF07EF13F005EFAD
:1026080013F00BEF13F0864B872B56EF13F00001F6
:1026180088518911D8A413EF13F015EF13F03FEF89
:1026280013F08BBF1CEF13F01AEF13F03FEF13F00A
:10263800370EAC25D96E020EAD21DA6E2E0EDF6E86
:10264800AC4BAD2B9807D8A09907000E896F010EE7
:10265800886F3FEF13F0370EAC25D96E020EAD210F
:10266800DA6E300EDF6EAC4BAD2B9807D8A0990709
:102678008607D8A0870786518711D8A446EF13F09C
:1026880048EF13F02FEF13F0370EAC25D96E020E7A
:10269800AD21DA6E9251300FDF6EAC4BAD2B98073F
:1026A800D8A099079CC038F09DC039F09EC03AF078
:1026B8009FC03BF0AEC044F0AFC045F0B0C046F09C
:1026C800B1C047F0A0C040F0A1C041F0A2C042F0A4
:1026D800A3C043F0A1EC2CF040C03CF041C03DF059
:1026E80042C03EF043C03FF056EC61F038C09CF069
:1026F80039C09DF03AC09EF03BC09FF0AEC00FF0CD
:10270800AFC010F0B0C011F0B1C012F0000E136EDF
:10271800000E146E200E156E410E166E93EC30F0FE
:102728000FC0AEF010C0AFF011C0B0F012C0B1F0E1
:1027380000018A07D8A08B07A44BA52B8C51A45D58
:10274800A551800A6C6E8D51800A6C58D8B0AFEFD5
:1027580013F0B1EF13F0BFEF13F0ADBFBDEF13F0FF
:10276800AD5109E14B0EAC5DD8A0BDEF13F0BFEF42
:1027780013F0B3EF12F088518911D8A4C6EF13F003
:10278800C8EF13F0DBEF13F001017FA9CEEF13F0D0
:10279800D0EF13F0DBEF13F0370E0001AC25D96E44
:1027A800020EAD21DA6E2E0EDF6EAC4BAD2B370E5E
:1027B8000001AC25D96E020EAD21DA6E000EDF6E77
:1027C800650E9A19D8A4EBEF13F0EDEF13F04AEF6A
:1027D8000FF0000EA56F4F0EA46F370EA425D96E0B
:1027E800020EA521DA6E000EDF6E000E956F000E48
:1027F800946FABBF04EF14F002EF14F00CEF14F079
:10280800000E956F010E946FAA6DAB1FD8B0AB2B5D
:10281800000E976F020E966F3DEF14F0A407D8A034
:10282800A507370EA425D96E020EA521DA6EAAC017
:1028380001F0ABC002F0000E046E0A0E036E4BEC02
:1028480056F00150300FDF6EAAC001F0ABC002F0A5
:10285800000E046E0A0E036E26EC54F001C0AAF0B6
:1028680002C0ABF000019607D8A097079807D8A038
:102878009907AA51AB11D8A444EF14F046EF14F00D
:1028880012EF14F097BF53EF14F0975106E1960535
:10289800D8B051EF14F053EF14F012EF14F0A4076E
:1028A800D8A0A50794519511D8A45DEF14F05FEF57
:1028B80014F065EF14F0000E836F2B0E826F69EF32
:1028C80014F0000E836F2D0E826F370EA425D96E7B
:1028D800020EA521DA6E82C0DFFF9807D8A09907FB
:1028E800A407D8A0A507BF0E6C6EFF0E6D6E6B50C7
:1028F8006E6E6F6A6C506E266D506F226F5009E1D4
:102908001A0E6E5CD8A08BEF14F08DEF14F093EFD5
:1029180014F0000E856F650E846F97EF14F0000EAB
:10292800856F450E846F370EA425D96E020EA5213A
:10293800DA6E84C0DFFF9807D8A09907370EAC2558
:10294800016E020EAD21026E370EA425036E020E33
:10295800A521046E1DEC5EF04AEF0FF01200D3CFF4
:10296800C0F29BCFC1F222EEC6F00F0EDE6AE80677
:10297800FDE2E00E9B16D3508F0B6009D36E030E59
:10298800D312CBEF14F0060EE82EFED700D0D3A456
:10299800D0EF14F0D2EF14F0C7EF14F0100E59EC8A
:1029A8005DF01A0E0201B56FF80EE82EFED7B52FAE
:1029B800FCD700F08D849694000E0201D66FFF0EAE
:1029C80033EC66F00201D62B090ED665EEEF14F053
:1029D800F0EF14F0E3EF14F08D94000E0101536F43
:1029E800000E546F000E556F000E566F000EF0EC7F
:1029F80057F0E806D8A403EF15F005EF15F0F1EF4E
:102A080014F0AA0E0101536F010E546F000E556F9A
:102A1800000E566F080EF0EC57F00201E06F8D942F
:102A2800000ED86FC60ED825D96EDA6A020EDA22E1
:102A380084EC66F0DF6E0201D82B030ED86527EF11
:102A480015F029EF15F016EF15F08D84E0A52FEF9E
:102A580015F031EF15F061EF15F0010E006F000E63
:102A68000101536F000E546F000E556F000E566F24
:102A78003A0EF0EC57F08D94000E0201D96FC60E95
:102A8800D925D96EDA6A020EDA2284EC66F0DF6E96
:102A98000201D92B030ED96554EF15F056EF15F046
:102AA80043EF15F08D84C805D8B45DEF15F05FEFDE
:102AB80015F07CEF15F0C5EF18F0E005D8A467EF26
:102AC80015F069EF15F005EF15F0C805D8A46FEFFC
:102AD80015F071EF15F0C5EF18F0AA0EC919D8A4B2
:102AE80078EF15F07AEF15F0C5EF18F0020E006FC9
:102AF8000005D8B482EF15F084EF15F08EEF15F0CD
:102B0800000EBC6F000EBD6F000EBE6F400EBF6F93
:102B180096EF15F0000EBC6F000EBD6F000EBE6F75
:102B2800000EBF6FBCC25AF1BDC25BF1BEC25CF100
:102B3800BFC25DF1290E84EC63F00201E06FE05141
:102B4800D8B4A9EF15F0ABEF15F0B2EF15F0E0A58A
:102B5800B0EF15F0B2EF15F096EF15F0E0A5B7EF6E
:102B680015F0B9EF15F0D5EF15F00005D8A4BFEFB3
:102B780015F0C1EF15F0D1EF15F0020E016F000E40
:102B88000101536F000E546F000E556F000E566F03
:102B9800010EF0EC57F0D5EF15F0000E1C6FC5EFE5
:102BA80018F0020E02010119D8B4DDEF15F0DFEFBD
:102BB80015F00EEF16F0000E0101536F000E546F62
:102BC800000E556F000E566F3A0EF0EC57F08D94CC
:102BD80084EC66F0C00BC00AD8A4F5EF15F0F7EF47
:102BE80015F0FCEF15F0010E0201016FFFEF15F073
:102BF800000E0201016F000ED76F84EC66F002012F
:102C0800D72B020ED7650BEF16F00DEF16F001EF7C
:102C180016F08D84000E0101536F020E546F000EE2
:102C2800556F000E566F100EF0EC57F00009D8A43F
:102C380020EF16F022EF16F00EEF16F0020E02014A
:102C4800136F000E126F000E0101536F000E546FC8
:102C5800000E556F000E566F090EF0EC57F08D946C
:102C680084EC66F0FE0AD8A43CEF16F03EEF16F0AE
:102C780034EF16F0000E0201DA6F0F0EDA6547EF37
:102C880016F049EF16F04BEF16F058EF16F0C60E97
:102C9800DA25D96EDA6A020EDA2284EC66F0DF6E83
:102CA8000201DA2B41EF16F084EC66F084EC66F052
:102CB8008D84020E02010019D8A465EF16F067EFA3
:102CC80016F0EBEF16F0010ECF25C26FC36B000EA6
:102CD800C323C46B000EC423C56B000EC523CE519D
:102CE800B66FB56BB5C2B7F2B6C2B8F2000EB8BFD0
:102CF800FF0EB96FBA6FB751C213B851C313B951A8
:102D0800C413BA51C513CDC2B5F23F0EB517B5C23B
:102D1800B6F2B76BB86BB96BB7C2B9F2B6C2B8F254
:102D2800B76BB66BB651C213B751C313B851C413BE
:102D3800B951C513C2C250F1C3C251F1C4C252F154
:102D4800C5C253F1000E46EC40F050C198F251C193
:102D580099F252C19AF253C19BF2BD0E02019C6FC7
:102D6800370E9D6F060E9E6F3F0E9F6F6AEC2AF01E
:102D780098C218F299C219F29AC21AF29BC21BF2AF
:102D8800000E02019C6F000E9D6F000E9E6F450E97
:102D98009F6F18C298F219C299F21AC29AF21BC20E
:102DA8009BF26AEC2AF098C2ADF299C2AEF29AC2CE
:102DB800AFF29BC2B0F268EC4AF0ADC214F2AEC2F8
:102DC80015F2AFC216F2B0C217F2C3EF17F0CCC2B9
:102DD800B5F2030EB517B5C2B6F2B76BB86BB96BDF
:102DE800040ED890B637B737B837B937E82EF5EFAD
:102DF80016F0B6C2DCF2B7C2DDF2B8C2DEF2B9C272
:102E0800DFF2CD51B56FB66BD890B537B637D890DD
:102E1800B537B637B5C2B7F2B6C2B8F2000EB8BF0A
:102E2800FF0EB96FBA6FB751DC13B851DD13B95142
:102E3800DE13BA51DF13CEC2B5F2D890B533D890AD
:102E4800B533300EB517010EB525B66FB76B000E4A
:102E5800B723B86B000EB823B96B000EB923B6516F
:102E6800DC13B751DD13B851DE13B951DF13CFC2EC
:102E7800B5F2030EB517B66BD0AF01D0B62BB6318D
:102E8800B535B76F020EB727DCC2B8F2DDC2B9F2AA
:102E9800DEC2BAF2DFC2BBF2B72B58EF17F0D890F8
:102EA800B837B937BA37BB37B72F53EF17F0B8C2AF
:102EB800DCF2B9C2DDF2BAC2DEF2BBC2DFF2CBC2CB
:102EC800B5F20F0EB517DCC2B6F2DDC2B7F2DEC23C
:102ED800B8F2DFC2B9F2B52B77EF17F0D890B63752
:102EE800B737B837B937B52F72EF17F0B6C2DCF27B
:102EF800B7C2DDF2B8C2DEF2B9C2DFF2DCC250F10D
:102F0800DDC251F1DEC252F1DFC253F1000E46ECD0
:102F180040F050C118F251C119F252C11AF253C10E
:102F28001BF212C250F113C251F10101526B536BE3
:102F3800000E46EC40F050C19CF251C19DF252C1C6
:102F48009EF253C19FF218C298F219C299F21AC29E
:102F58009AF21BC29BF2B6EC2EF098C2ADF299C25F
:102F6800AEF29AC2AFF29BC2B0F268EC4AF0ADC2C0
:102F780014F2AEC215F2AFC216F2B0C217F2000ECA
:102F88000101536F000E546F000E556F000E566FFF
:102F98000A0EF0EC57F08D9484EC66F00201E06FB5
:102FA800FE0EE019D8A4DBEF17F0DDEF17F0D0EF35
:102FB80017F0000EDB6F0F0EDB65E5EF17F0E7EF9C
:102FC80017F0E9EF17F0F6EF17F0C60EDB25D96E0C
:102FD800DA6A020EDA2284EC66F0DF6E0201DB2B7D
:102FE800DFEF17F084EC66F084EC66F08D84C6C2DF
:102FF80002F20201C751B56FC851036FB5C204F29E
:10300800C9C209F2CAC2B5F2B66BB76BB86BB5C222
:10301800B8F2B76BB66BB56BB5C205F2B6C206F2BD
:10302800B7C207F2B8C208F2CBC2B5F2B66BB76B3B
:10303800B86BB6C2B8F2B5C2B7F2B66BB56BB551DC
:103048000513B6510613B7510713B8510813CCC26C
:10305800B5F2B66BB76BB86BB7C2B8F2B6C2B7F217
:10306800B5C2B6F2B56BB5510513B6510613B751D3
:103078000713B8510813CD510513CEC20AF2CFC2B7
:10308800B5F2B66BB76BB86BB5C2B8F2B76BB66BC7
:10309800B56BB5C20BF2B6C20CF2B7C20DF2B8C22C
:1030A8000EF2D0C2B5F2B66BB76BB86BB6C2B8F257
:1030B800B5C2B7F2B66BB56BB5510B13B6510C135D
:1030C800B7510D13B8510E13D1C2B5F2B66BB76B29
:1030D800B86BB7C2B8F2B6C2B7F2B5C2B6F2B56B42
:1030E800B5510B13B6510C13B7510D13B8510E133C
:1030F800D2510B13D3510F0BB56FD4510F6FB5C20B
:1031080010F2D551FE0B116F8D84C69AC0C2D3FF41
:10311800C1C29BFF94EF18F0060EE82EFED700D030
:10312800D3A499EF18F09BEF18F090EF18F0100E59
:1031380059EC5DF0010E0201256F000E216F000EA3
:10314800226F000E236F000E246F000E1D6F000EFD
:103158001E6F000E1F6F000E206F010E2E6F000EE7
:103168002A6F000E2B6F000E2C6F000E2D6F000EB5
:10317800266F000E276F000E286F000E296F010EB4
:103188001C6F1200D3C2D9FFD4C2DAFFDECFF6FF1C
:10319800DDCFF7FFF86A0800F550250AD8A4D7EF65
:1031A80018F0D9EF18F091EF1CF0D3C2D9FFD4C2B0
:1031B800DAFFDE2A000EDD22000E01017C6F000E10
:1031C8007B6F7BC17FF17CC180F17D697E69000ED8
:1031D8000201EC6F000EEB6F3EEF19F001017F81E9
:1031E800D3C2D9FFD4C2DAFFDE2A000EDD223EEFB9
:1031F80019F001017F83F4EF18F001017F85F4EFE6
:1032080018F001017F87F4EF18F001017F89F4EFCE
:1032180018F0000EEC6F010EEB6F3EEF19F0D3C201
:10322800D9FFD4C2DAFFDECFF6FFDDCFF7FFF86AA9
:103238000800F550D76FD86BD851000AD8B427EFDB
:1032480019F00DEF19F0D751200AD8B405EF19F08D
:10325800030AD8B409EF19F0080AD8B401EF19F035
:10326800060AD8B4F2EF18F01D0AD8B4FDEF18F02A
:103278000DEF19F00201EB51EC11D8B446EF19F03B
:1032880048EF19F013EF19F001017FA14EEF19F083
:1032980050EF19F051EF19F07F93D3C2D9FFD4C280
:1032A800DAFFDECFF6FFDDCFF7FFF86A0800F5504A
:1032B8002A0AD8A462EF19F064EF19F08DEF19F01B
:1032C800D3C2D9FFD4C2DAFFDE2A000EDD22D5C26E
:1032D800D9FFD6C2DAFFDFCFD7F2020EDE26DFCF64
:1032E800D8F2000EDD22D7C2D9FFD8C2DAFFDECF6E
:1032F8007BF1DDCF7CF17CBF86EF19F084EF19F00C
:10330800C5EF19F07F817B6D7C1FD8B07C2BC5EF92
:1033180019F0D3C2D9FFD4C2DAFFDECF57F1DDCF1F
:1033280058F177EC3EF057C17BF158C17CF1A4EF1E
:1033380019F0D3C2D9FFD4C2DAFFDE2A000EDD228B
:10334800D00E0201D76FFF0ED86FD3C2D9FFD4C2F7
:10335800DAFFDECFF6FFDDCFF7FFF86A0800F55099
:10336800D96FDA6BD751D927D851DA23DA5109E165
:103378000A0ED95DD8A0C3EF19F0C5EF19F09DEF7B
:1033880019F0D3C2D9FFD4C2DAFFDECFF6FFDDCF02
:10339800F7FFF86A0800F5502E0AD8A4D6EF19F0FE
:1033A800D8EF19F04CEF1AF0000E01017E6F000EF5
:1033B8007D6FD3C2D9FFD4C2DAFFDE2A000EDD2228
:1033C800D3C2D9FFD4C2DAFFDECFF6FFDDCFF7FFD5
:1033D800F86A0800F5502A0AD8A4F5EF19F0F7EFB3
:1033E80019F014EF1AF0D3C2D9FFD4C2DAFFDE2ADB
:1033F800000EDD22D5C2D9FFD6C2DAFFDFCFD7F261
:10340800020EDE26DFCFD8F2000EDD22D7C2D9FFAA
:10341800D8C2DAFFDECF7DF1DDCF7EF14CEF1AF0B6
:10342800D3C2D9FFD4C2DAFFDECF57F1DDCF58F1CE
:1034380077EC3EF057C17DF158C17EF12BEF1AF0C1
:10344800D3C2D9FFD4C2DAFFDE2A000EDD22D00EA5
:103458000201D76FFF0ED86FD3C2D9FFD4C2DAFFEB
:10346800DECFF6FFDDCFF7FFF86A0800F550D96F19
:10347800DA6BD751D927D851DA23DA5109E10A0E84
:10348800D95DD8A04AEF1AF04CEF1AF024EF1AF0E1
:10349800D3C2D9FFD4C2DAFFDECFF6FFDDCFF7FF04
:1034A800F86A0800F5500101566F576B81EC60F01F
:1034B800010156510201F16FF151D8B466EF1AF0CB
:1034C80068EF1AF0A8EF1AF0D3C2D9FFD4C2DAFF16
:1034D800DECFD7F2DDCFD8F2010ED727000ED823E2
:1034E800D7C2F6FFD8C2F7FFF86A0800F550010105
:1034F800566F576B81EC60F0010156510201F26F73
:10350800F251D8B48AEF1AF08CEF1AF0A8EF1AF03B
:10351800D3C2D9FFD4C2DAFFDECFD7F2DDCFD8F2DB
:10352800020ED727000ED823D7C2F6FFD8C2F7FF5E
:10353800F86A0800F5500101566F576B81EC60F08E
:10354800010156510201F36FD3C2D9FFD4C2DAFF89
:10355800DECFF6FFDDCFF7FFF86A0800F550640A02
:10356800D8B4B9EF1AF0BBEF1AF0CEEF1AF0D3C205
:10357800D9FFD4C2DAFFDECFF6FFDDCFF7FFF86A56
:103588000800F550690AD8A4CCEF1AF0CEEF1AF06B
:103598000EEF1BF0D3C2D9FFD4C2DAFFDE2A000E29
:1035A800DD22D5C2D9FFD6C2DAFFDFCFD7F2020EAD
:1035B800DE26DFCFD8F2000EDD22D7C2D9FFD8C26F
:1035C800DAFFDECFDBF2DDCFDCF2000EDCBFFF0E70
:1035D800DD6FDE6FDF6FE06FE16FE26FD1C2A2F2E5
:1035E800D2C2A3F2DBC2A4F2DCC2A5F2DDC2A6F20B
:1035F800DEC2A7F2DFC2A8F2E0C2A9F2E1C2AAF2D3
:10360800E2C2ABF2B6EC35F0A2C2D1F2A3C2D2F25A
:10361800AEEF1CF0660EF119D8A415EF1BF017EFEA
:103628001BF058EF1BF0D3C2D9FFD4C2DAFFDECFAC
:10363800F6FFDDCFF7FFF86A0800F5CFF4F2D3C242
:10364800D9FFD4C2DAFFDE2A000EDD22D5C2D9FFA7
:10365800D6C2DAFFDFCFD7F2040EDE26DFCFD8F2EC
:10366800000EDD22D7C2D9FFD8C2DAFFDECFEDF2D5
:10367800DECFEEF2DECFEFF2DECFF0F2D1C2C5F24E
:10368800D2C2C6F2EDC2C7F2EEC2C8F2EFC2C9F2A8
:10369800F0C2CAF2F4C2CBF255EC08F0C5C2D1F2BE
:1036A800C6C2D2F2AEEF1CF0F10E0101506F020E4D
:1036B800516FF90E526FFF0E536F000E556F020EC9
:1036C800546FDDEC50F0010150515111D8A46FEF47
:1036D8001BF071EF1BF0E2EF1BF0D3C2D9FFD4C28D
:1036E800DAFFDECFD7F2DDCFD8F2010E0201D727FD
:1036F800000ED823D7C2F6FFD8C2F7FFF86A080031
:10370800F5CFF4F2BF0ED76FFF0ED86FD3C2D9FF33
:10371800D4C2DAFFDECFF6FFDDCFF7FFF86A080084
:10372800F550D96FDA6BD751D927D851DA23DA5146
:1037380007E11A0ED95DD8B0A4EF1BF0A6EF1BF075
:10374800C0EF1BF0D5C2D9FFD6C2DAFFDFCFD7F260
:10375800040EDE26DFCFD8F2000EDD22D7C2D9FF55
:10376800D8C2DAFFDECFEDF2DECFEEF2DECFEFF237
:10377800DECFF0F2D8EF1BF0D5C2D9FFD6C2DAFF00
:10378800DFCFD7F2040EDE26DFCFD8F2000EDD221F
:10379800D7C2D9FFD8C2DAFFDECFEDF2DECFEEF224
:1037A800DECFEFF2DECFF0F2020ED3C2D9FFD4C2E1
:1037B800DAFFDE26000EDD2242EF1BF0D3C2D9FF6E
:1037C800D4C2DAFFDECFF6FFDDCFF7FFF86A0800D4
:1037D800F550780AD8B4F3EF1BF0F5EF1BF008EFBB
:1037E8001CF0D3C2D9FFD4C2DAFFDECFF6FFDDCF9B
:1037F800F7FFF86A0800F550580AD8A406EF1CF03D
:1038080008EF1CF058EF1CF0D3C2D9FFD4C2DAFF7E
:10381800DECFF6FFDDCFF7FFF86A0800F5CFF4F248
:10382800D3C2D9FFD4C2DAFFDE2A000EDD22D5C208
:10383800D9FFD6C2DAFFDFCFD7F2020EDE26DFCFFE
:10384800D8F2000EDD22D7C2D9FFD8C2DAFFDECF08
:10385800D9F2DDCFDAF2D9C2E3F2DAC2E4F2020138
:10386800E56BE66BE76BE86BE96BEA6BD1C2A2F23A
:10387800D2C2A3F2E3C2A4F2E4C2A5F2E5C2A6F260
:10388800E6C2A7F2E7C2A8F2E8C2A9F2E9C2AAF220
:10389800EAC2ABF2F4C2ACF2A8EC38F0A2C2D1F2A0
:1038A800A3C2D2F2AEEF1CF0D3C2D9FFD4C2DAFF62
:1038B800DECFF6FFDDCFF7FFF86A0800F550250ADE
:1038C800D8A469EF1CF06BEF1CF083EF1CF0D3C297
:1038D800D9FFD4C2DAFFDE2A000EDD22000E536FB4
:1038E800250E526FD1C254F1D2C255F195EC52F067
:1038F800000E0201D26F010ED16FAEEF1CF0D3C2E1
:10390800D9FFD4C2DAFFDE2A000EDD22000E020142
:10391800D26F000ED16FAEEF1CF0D3C2D9FFD4C264
:10392800DAFFDECFF6FFDDCFF7FFF86A0800F550C3
:103938000101526F536BD1C254F1D2C255F195ECCB
:1039480052F0D3C2D9FFD4C2DAFFDE2A000EDD223C
:103958007CEF1CF0120073C0D9FF74C0DAFFDECF11
:10396800F6FFDDCFF7FFF86A0800F550250AD8A45E
:10397800C0EF1CF0C2EF1CF06DEF20F073C0D9FF50
:1039880074C0DAFFDE2A000EDD22000E01017C6F12
:10399800000E7B6F7BC17FF17CC180F17D697E6900
:1039A800000E0001C36F000EC26F27EF1DF001016A
:1039B8007F8173C0D9FF74C0DAFFDE2A000EDD22D2
:1039C80027EF1DF001017F83DDEF1CF001017F85EA
:1039D800DDEF1CF001017F87DDEF1CF001017F891D
:1039E800DDEF1CF0000EC36F010EC26F27EF1DF054
:1039F80073C0D9FF74C0DAFFDECFF6FFDDCFF7FF63
:103A0800F86A0800F550776E786A7850000AD8B4DA
:103A180010EF1DF0F6EF1CF07750200AD8B4EEEF47
:103A28001CF0030AD8B4F2EF1CF0080AD8B4EAEF85
:103A38001CF0060AD8B4DBEF1CF01D0AD8B4E6EF78
:103A48001CF0F6EF1CF00001C251C311D8B42FEFDF
:103A58001DF031EF1DF0FCEF1CF001017FA137EFE5
:103A68001DF039EF1DF03AEF1DF07F9373C0D9FFB9
:103A780074C0DAFFDECFF6FFDDCFF7FFF86A080083
:103A8800F5502A0AD8A44BEF1DF04DEF1DF076EF44
:103A98001DF073C0D9FF74C0DAFFDE2A000EDD22E4
:103AA80075C0D9FF76C0DAFFDFCF77F0020EDE26C9
:103AB800DFCF78F0000EDD2277C0D9FF78C0DAFFBB
:103AC800DECF7BF1DDCF7CF17CBF6FEF1DF06DEFBA
:103AD8001DF0ADEF1DF07F817B6D7C1FD8B07C2B76
:103AE800ADEF1DF073C0D9FF74C0DAFFDECF07F069
:103AF800DDCF08F062EC3FF007C07BF108C07CF135
:103B08008DEF1DF073C0D9FF74C0DAFFDE2A000EF6
:103B1800DD22D00E776EFF0E786E73C0D9FF74C0A9
:103B2800DAFFDECFF6FFDDCFF7FFF86A0800F550C1
:103B3800796E7A6A7750792678507A227A5009E134
:103B48000A0E795CD8A0ABEF1DF0ADEF1DF086EF43
:103B58001DF073C0D9FF74C0DAFFDECFF6FFDDCFEA
:103B6800F7FFF86A0800F5502E0AD8A4BEEF1DF03A
:103B7800C0EF1DF033EF1EF0000E01017E6F000E46
:103B88007D6F73C0D9FF74C0DAFFDE2A000EDD2214
:103B980073C0D9FF74C0DAFFDECFF6FFDDCFF7FFC1
:103BA800F86A0800F5502A0AD8A4DDEF1DF0DFEF07
:103BB8001DF0FCEF1DF073C0D9FF74C0DAFFDE2AD8
:103BC800000EDD2275C0D9FF76C0DAFFDFCF77F0AF
:103BD800020EDE26DFCF78F0000EDD2277C0D9FF97
:103BE80078C0DAFFDECF7DF1DDCF7EF133EF1EF056
:103BF80073C0D9FF74C0DAFFDECF07F0DDCF08F05D
:103C080062EC3FF007C07DF108C07EF113EF1EF0B3
:103C180073C0D9FF74C0DAFFDE2A000EDD22D00E91
:103C2800776EFF0E786E73C0D9FF74C0DAFFDECFEF
:103C3800F6FFDDCFF7FFF86A0800F550796E7A6A6B
:103C48007750792678507A227A5009E10A0E795C01
:103C5800D8A031EF1EF033EF1EF00CEF1EF073C04A
:103C6800D9FF74C0DAFFDECFF6FFDDCFF7FFF86AC1
:103C78000800F550036E046A33EC61F0035000014C
:103C8800C86FC851D8B44BEF1EF04DEF1EF089EF46
:103C98001EF073C0D9FF74C0DAFFDECF77F0DDCF36
:103CA80078F0010E7726000E782277C0F6FF78C0EC
:103CB800F7FFF86A0800F550036E046A33EC61F008
:103CC80003500001C96FC951D8B46DEF1EF06FEFF2
:103CD8001EF089EF1EF073C0D9FF74C0DAFFDECF83
:103CE80077F0DDCF78F0020E7726000E782277C0C5
:103CF800F6FF78C0F7FFF86A0800F550036E046A0B
:103D080033EC61F003500001CA6F73C0D9FF74C06F
:103D1800DAFFDECFF6FFDDCFF7FFF86A0800F550CF
:103D2800640AD8B49AEF1EF09CEF1EF0AFEF1EF0B5
:103D380073C0D9FF74C0DAFFDECFF6FFDDCFF7FF1F
:103D4800F86A0800F550690AD8A4ADEF1EF0AFEF85
:103D58001EF0EFEF1EF073C0D9FF74C0DAFFDE2A41
:103D6800000EDD2275C0D9FF76C0DAFFDFCF77F00D
:103D7800020EDE26DFCF78F0000EDD2277C0D9FFF5
:103D880078C0DAFFDECFB2F0DDCFB3F0000EB3BFFC
:103D9800FF0EB46FB56FB66FB76FB86FB96F71C0FC
:103DA8001EF072C01FF0B2C020F0B3C021F0B4C042
:103DB80022F0B5C023F0B6C024F0B7C025F0B8C0D3
:103DC80026F0B9C027F036EC37F01EC071F01FC0DE
:103DD80072F089EF20F0660EC819D8A4F6EF1EF02D
:103DE800F8EF1EF039EF1FF073C0D9FF74C0DAFF87
:103DF800DECFF6FFDDCFF7FFF86A0800F5CFCBF08E
:103E080073C0D9FF74C0DAFFDE2A000EDD2275C048
:103E1800D9FF76C0DAFFDFCF77F0040EDE26DFCFDA
:103E280078F0000EDD2277C0D9FF78C0DAFFDECF48
:103E3800C4F0DECFC5F0DECFC6F0DECFC7F071C06C
:103E480065F072C066F0C4C067F0C5C068F0C6C04F
:103E580069F0C7C06AF0CBC06BF0A1EC0EF065C08A
:103E680071F066C072F089EF20F0C80E056E000E82
:103E7800066EF90E076EFF0E086E000E0A6E020E31
:103E8800096EBBEC51F005500610D8A44EEF1FF098
:103E980050EF1FF0C0EF1FF073C0D9FF74C0DAFFF6
:103EA800DECF77F0DDCF78F0010E7726000E78228E
:103EB80077C0F6FF78C0F7FFF86A0800F5CFCBF0B7
:103EC800BF0E776EFF0E786E73C0D9FF74C0DAFF2D
:103ED800DECFF6FFDDCFF7FFF86A0800F550796E00
:103EE8007A6A7750792678507A227A5007E11A0E42
:103EF800795CD8B082EF1FF084EF1FF09EEF1FF0BF
:103F080075C0D9FF76C0DAFFDFCF77F0040EDE2662
:103F1800DFCF78F0000EDD2277C0D9FF78C0DAFF56
:103F2800DECFC4F0DECFC5F0DECFC6F0DECFC7F0FF
:103F3800B6EF1FF075C0D9FF76C0DAFFDFCF77F094
:103F4800040EDE26DFCF78F0000EDD2277C0D9FF21
:103F580078C0DAFFDECFC4F0DECFC5F0DECFC6F022
:103F6800DECFC7F0020E73C0D9FF74C0DAFFDE26B9
:103F7800000EDD2223EF1FF073C0D9FF74C0DAFFF3
:103F8800DECFF6FFDDCFF7FFF86A0800F550780AB4
:103F9800D8B4D1EF1FF0D3EF1FF0E6EF1FF073C0D6
:103FA800D9FF74C0DAFFDECFF6FFDDCFF7FFF86A7E
:103FB8000800F550580AD8A4E4EF1FF0E6EF1FF008
:103FC80036EF20F073C0D9FF74C0DAFFDECFF6FFFA
:103FD800DDCFF7FFF86A0800F5CFCBF073C0D9FF43
:103FE80074C0DAFFDE2A000EDD2275C0D9FF76C064
:103FF800DAFFDFCF77F0020EDE26DFCF78F0000E93
:10400800DD2277C0D9FF78C0DAFFDECF79F0DDCFC7
:104018007AF079C0BAF07AC0BBF00001BC6BBD6B16
:10402800BE6BBF6BC06BC16B71C01EF072C01FF05E
:10403800BAC020F0BBC021F0BCC022F0BDC023F044
:10404800BEC024F0BFC025F0C0C026F0C1C027F014
:10405800CBC028F002EC3AF01EC071F01FC072F01D
:1040680089EF20F073C0D9FF74C0DAFFDECFF6FF06
:10407800DDCFF7FFF86A0800F550250AD8A447EF06
:1040880020F049EF20F060EF20F073C0D9FF74C032
:10409800DAFFDE2A000EDD22000E046E250E036E06
:1040A80071C005F072C006F0FBEC52F0000E726EA3
:1040B800010E716E89EF20F073C0D9FF74C0DAFF6A
:1040C800DE2A000EDD22000E726E000E716E89EF80
:1040D80020F073C0D9FF74C0DAFFDECFF6FFDDCF62
:1040E800F7FFF86A0800F550036E046A71C005F01E
:1040F80072C006F0FBEC52F073C0D9FF74C0DAFF4F
:10410800DE2A000EDD225AEF20F01200F4C001F082
:10411800F5C002F0000E046E5A0E036EEBEC64F06C
:1041280001C030F102C031F101013051006F31514D
:10413800016F026B036B00516D5D366F01516E5953
:10414800376F02516F59386F03517059396F39BF42
:10415800B2EF20F0B0EF20F0BAEF20F0000E366F8B
:10416800000E376F000E386F000E396F000E326F79
:10417800000E336F000E346F000E356FEF0E3225D0
:10418800D96E030E3321DA6E000EDF6E010E322770
:10419800000E3323342335233551341109E1020E3F
:1041A800335DD8A0DAEF20F0DCEF20F0C2EF20F08A
:1041B80036C10BF037C10CF038C10DF039C10EF023
:1041C8008CEC5AF0590E0001D26FFE0ED36F8BECB7
:1041D80064F04F0E0001D26FFF0ED36F36C1D4F0DA
:1041E80037C1D5F038C1D6F039C1D7F00101305107
:1041F8003625006F31513721016F000E3821026FCB
:10420800000E3921036FFF0E00250001D86FFF0E45
:10421800010101210001D96FFF0E010102210001F6
:10422800DA6FFF0E010103210001DB6F8BEC64F0F4
:10423800000E0101326F000E336F000E346F000E56
:10424800356FF0EF22F0EF0E046E030E056EA0EC52
:1042580057F0000E01013B6F000E3A6F3E0E000151
:10426800D26FFD0ED36F3AC100F13BC101F10101DC
:10427800003B013BF00E011700510F0B0113F00E2C
:104288000017EF0E0025D96E030E0121DA6EDF50FC
:10429800026F02510001D46FD56B3AC103F13BC1E3
:1042A80004F10101033B043BF00E041703510F0B0B
:1042B8000413F00E0317F00E0325D96E030E042124
:1042C800DA6EDF50056F05510001D66FD76B3AC122
:1042D80006F13BC107F10101063B073BF00E07174A
:1042E80006510F0B0713F00E0617F10E0625D96EAF
:1042F800030E0721DA6EDF50086F08510001D86FEE
:10430800D96B3AC109F13BC10AF10101093B0A3BEA
:10431800F00E0A1709510F0B0A13F00E0917F20EC7
:104328000925D96E030E0A21DA6EDF500B6F0B5187
:104338000001DA6FDB6B3AC10CF13BC10DF10101F1
:104348000C3B0D3BF00E0D170C510F0B0D13F00E1F
:104358000C17F30E0C25D96E030E0D21DA6EDF5003
:104368000E6F0E510001DC6FDD6B3AC10FF13BC1DE
:1043780010F101010F3B103BF00E10170F510F0BFE
:104388001013F00E0F17F40E0F25D96E030E10211F
:10439800DA6EDF50116F11510001DE6FDF6B3AC129
:1043A80012F13BC113F10101123B133BF00E13173D
:1043B80012510F0B1313F00E1217F50E1225D96EAA
:1043C800030E1321DA6EDF50146F14510001E06FF1
:1043D800E16B3AC115F13BC116F10101153B163BE2
:1043E800F00E161715510F0B1613F00E1517F60EC3
:1043F8001525D96E030E1621DA6EDF50176F175187
:104408000001E26FE36B3AC118F13BC119F10101F8
:10441800183B193BF00E191718510F0B1913F00E12
:104428001817F70E1825D96E030E1921DA6EDF500A
:104438001A6F1A510001E46FE56B3AC11BF13BC1D9
:104448001CF101011B3B1C3BF00E1C171B510F0BF1
:104458001C13F00E1B17F80E1B25D96E030E1C211A
:10446800DA6EDF501D6F1D510001E66FE76B3AC130
:104478001EF13BC11FF101011E3B1F3BF00E1F1730
:104488001E510F0B1F13F00E1E17F90E1E25D96EA5
:10449800030E1F21DA6EDF50206F20510001E86FF4
:1044A800E96B3AC121F13BC122F10101213B223BD9
:1044B800F00E221721510F0B2213F00E2117FA0EBE
:1044C8002125D96E030E2221DA6EDF50236F235186
:1044D8000001EA6FEB6B3AC124F13BC125F1010100
:1044E800243B253BF00E251724510F0B2513F00E06
:1044F8002417FB0E2425D96E030E2521DA6EDF5012
:10450800266F26510001EC6FED6B3AC127F13BC1D4
:1045180028F10101273B283BF00E281727510F0BE4
:104528002813F00E2717FC0E2725D96E030E282115
:10453800DA6EDF50296F29510001EE6FEF6B3AC137
:104548002AF13BC12BF101012A3B2B3BF00E2B1723
:104558002A510F0B2B13F00E2A17FD0E2A25D96EA0
:10456800030E2B21DA6EDF502C6F2C510001F06FF7
:10457800F16B3AC12DF13BC12EF101012D3B2E3BD0
:10458800F00E2E172D510F0B2E13F00E2D17FE0EB9
:104598002D25D96E030E2E21DA6EDF502F6F2F5185
:1045A8000001F26FF36B8BEC64F001013A4B3B2B8B
:1045B8003BBFE8EF22F03B5109E1200E3A5DD8A05D
:1045C800E8EF22F0EAEF22F032EF21F0010E322775
:1045D800000E3323342335233051006F3151016FDE
:1045E800026B036B0051325D01513359025134594A
:1045F80003513559D8A003EF23F005EF23F027EF37
:1046080021F072EC65F08D84C69A4B0E0001D26FD2
:10461800FF0ED36F36C1D4F037C1D5F00101365142
:104628003025006F37513121016FFF0E0025000141
:10463800D66FFF0E010101210001D76F8BEC64F0EA
:104648001200000E0201C16F000EC26F000EC36F90
:10465800000EC46F5CEF25F0AC98AC94B896BDC260
:10466800D9FFBEC2DAFFDECF50F1DECF51F1DECF87
:1046780052F1DECF53F1000E46EC40F050C19CF2EF
:1046880051C19DF252C19EF253C19FF2000E020128
:10469800986F240E996F740E9A6F4A0E9B6FB6EC42
:1046A8002EF098C2C5F299C2C6F29AC2C7F29BC24E
:1046B800C8F2000E02019C6F000E9D6F800E9E6F67
:1046C800420E9F6FC5C298F2C6C299F2C7C29AF24B
:1046D800C8C29BF2B6EC2EF098C2ADF299C2AEF207
:1046E8009AC2AFF29BC2B0F2000E0201B16F000E87
:1046F800B26F800EB36FBF0EB46FA9EC25F0ADC2D8
:10470800C1F2AEC2C2F2AFC2C3F2B0C2C4F287EF06
:1047180025F0AC98AC84B896BDC2D9FFBEC2DAFF0A
:10472800DECF50F1DECF51F1DECF52F1DECF53F1C3
:10473800000E46EC40F050C19CF251C19DF252C1AE
:104748009EF253C19FF2000E0201986F240E996FDA
:10475800740E9A6F4A0E9B6FB6EC2EF098C2C5F293
:1047680099C2C6F29AC2C7F29BC2C8F2000E0201F1
:104778009C6F000E9D6F800E9E6F410E9F6FC5C28D
:1047880098F2C6C299F2C7C29AF2C8C29BF2B6ECB6
:104798002EF098C2ADF299C2AEF29AC2AFF29BC2A5
:1047A800B0F2000E0201B16F000EB26F800EB36F4F
:1047B800BF0EB46FA9EC25F0ADC2C1F2AEC2C2F211
:1047C800AFC2C3F2B0C2C4F287EF25F0AC98AC9484
:1047D800B886BDC2D9FFBEC2DAFFDECF50F1DECF48
:1047E80051F1DECF52F1DECF53F1000E46EC40F02E
:1047F80050C19CF251C19DF252C19EF253C19FF229
:10480800000E0201986F240E996F740E9A6F4A0E6B
:104818009B6FB6EC2EF098C2C5F299C2C6F29AC246
:10482800C7F29BC2C8F2000E02019C6F000E9D6F7A
:10483800800E9E6F410E9F6FC5C298F2C6C299F254
:10484800C7C29AF2C8C29BF2B6EC2EF098C2ADF27B
:1048580099C2AEF29AC2AFF29BC2B0F2000E020148
:10486800B16F000EB26F800EB36FBF0EB46FA9ECBC
:1048780025F0ADC2C1F2AEC2C2F2AFC2C3F2B0C23D
:10488800C4F287EF25F0AC98AC84B886BDC2D9FFD6
:10489800BEC2DAFFDECF50F1DECF51F1DECF52F1EA
:1048A800DECF53F1000E46EC40F050C19CF251C1EE
:1048B8009DF252C19EF253C19FF2000E0201986F01
:1048C800240E996F740E9A6F4A0E9B6FB6EC2EF0F9
:1048D80098C2C5F299C2C6F29AC2C7F29BC2C8F280
:1048E800000E02019C6F000E9D6F800E9E6F400EA1
:1048F8009F6FC5C298F2C6C299F2C7C29AF2C8C2DF
:104908009BF2B6EC2EF098C2ADF299C2AEF29AC202
:10491800AFF29BC2B0F2000E0201B16F000EB26F8F
:10492800800EB36FBF0EB46FA9EC25F0ADC2C1F213
:10493800AEC2C2F2AFC2C3F2B0C2C4F287EF25F072
:10494800AC88B896BDC2D9FFBEC2DAFFDECF50F13F
:10495800DECF51F1DECF52F1DECF53F1000E46EC3F
:1049680040F050C19CF251C19DF252C19EF253C118
:104978009FF2000E0201986F240E996F740E9A6FC1
:104988004A0E9B6FB6EC2EF098C2C5F299C2C6F2D9
:104998009AC2C7F29BC2C8F2000E02019C6F000EB9
:1049A8009D6F800E9E6F400E9F6FC5C298F2C6C263
:1049B80099F2C7C29AF2C8C29BF2B6EC2EF098C21E
:1049C800ADF299C2AEF29AC2AFF29BC2B0F2000E3B
:1049D8000201B16F000EB26F800EB36FBF0EB46FDD
:1049E800A9EC25F0ADC2C1F2AEC2C2F2AFC2C3F2A9
:1049F800B0C2C4F287EF25F0AC88B886BDC2D9FF33
:104A0800BEC2DAFFDECF50F1DECF51F1DECF52F178
:104A1800DECF53F1000E46EC40F050C19CF251C17C
:104A28009DF252C19EF253C19FF2000E0201986F8F
:104A3800240E996F740E9A6F4A0E9B6FB6EC2EF087
:104A480098C2C5F299C2C6F29AC2C7F29BC2C8F20E
:104A5800000E02019C6F000E9D6F800E9E6F400E2F
:104A68009F6FC5C298F2C6C299F2C7C29AF2C8C26D
:104A78009BF2B6EC2EF098C2ADF299C2AEF29AC291
:104A8800AFF29BC2B0F2000E0201B16F000EB26F1E
:104A9800800EB36FBF0EB46FA9EC25F0ADC2C1F2A2
:104AA800AEC2C2F2AFC2C3F2B0C2C4F287EF25F001
:104AB80020EE04F0BD51D926BE51DA22DF50BF6F77
:104AC800C06BC051000AD8B46CEF25F087EF25F011
:104AD800BF51000AD8B430EF23F0010AD8B48DEFE3
:104AE80023F0030AD8B4EAEF23F0010AD8B447EF59
:104AF80024F0070AD8B4A4EF24F0010AD8B400EFD0
:104B080025F087EF25F0C1C2ADF2C2C2AEF2C3C232
:104B1800AFF2C4C2B0F268EC4AF00201AD51AF6E18
:104B2800C1C2ADF2C2C2AEF2C3C2AFF2C4C2B0F2E9
:104B380068EC4AF00201AEC2ADF2AFC2AEF2B0C24A
:104B4800AFF2B06BAD51B06E12000201B051800BE4
:104B5800B96FB051B025BB6FAFAFB5EF25F0B7EF68
:104B680025F0B8EF25F0BB81BB51D8B4BEEF25F0D6
:104B7800C0EF25F0D5EF25F0BB29D8A4C6EF25F066
:104B8800C8EF25F0D0EF25F0000EAD6F000EAE6F28
:104B9800000EAF6F000EB06FAF8F000EB06FDDEF7D
:104BA80025F0000EAD6F000EAE6F000EAF6F000E59
:104BB800B06FB451800BBA6FB951BA19D8B4E7EFD6
:104BC80025F0E9EF25F0EAEF25F0B98DB451B425C9
:104BD800BA6FB3AFF2EF25F0F4EF25F0F5EF25F05B
:104BE800BA81BA51D8B4FBEF25F0FDEF25F012EFEA
:104BF80026F0BA29D8A403EF26F005EF26F00DEF2A
:104C080026F0000EB16F000EB26F000EB36F000EEB
:104C1800B46FB38F000EB46F1AEF26F0000EB16FA9
:104C2800000EB26F000EB36F000EB46FBB51BA5DC9
:104C3800D8B021EF26F023EF26F04AEF26F0B9ADE1
:104C480028EF26F02AEF26F02CEF26F0800EB91B6D
:104C5800BBC2BCF2BAC2BBF2BCC2BAF2ADC2BCF2B1
:104C6800B1C2ADF2BCC2B1F2AEC2BCF2B2C2AEF2D7
:104C7800BCC2B2F2AFC2BCF2B3C2AFF2BCC2B3F2B2
:104C8800B0C2BCF2B4C2B0F2BCC2B4F2000EBC6F87
:104C9800BB51BAC2B5F2B66BB55F000EB65BB6BF14
:104CA8005FEF26F0B65109E11A0EB55DD8A05FEFA7
:104CB80026F061EF26F098EF26F0AD51AE11AF1156
:104CC800B011D8A46AEF26F06DEF26F0010E6EEF52
:104CD80026F0000EBC6F000EAD6F000EAE6F000E1A
:104CE800AF6F000EB06FBAC2BBF2A1EF26F0BCA145
:104CF80080EF26F082EF26F088EF26F0D890BC31BE
:104D08000109BC6F8AEF26F0D890BC33ADA18FEFB4
:104D180026F091EF26F092EF26F0BC8FB035B03335
:104D2800AF33AE33AD33BB2BBA51BB5DD8A09FEFC9
:104D380026F0A1EF26F07BEF26F0B9BDA6EF26F00E
:104D4800A8EF26F0E8EF26F0BB51D8A4AEEF26F086
:104D5800B0EF26F0BAEF26F0000EAD6F000EAE6F82
:104D6800000EAF6F000EB06F09EF28F0B151AD27FC
:104D7800B251AE23B351AF23B451B023B0A1C7EFA2
:104D880026F0C9EF26F075EF27F0BCA1CEEF26F08C
:104D9800D0EF26F0D6EF26F0D890BC310109BC6FD1
:104DA800D8EF26F0D890BC33ADA1DDEF26F0DFEFC9
:104DB80026F0E0EF26F0BC8FB035B033AF33AE331A
:104DC800AD33BB2B75EF27F0B151AD5DB251AE5984
:104DD800B351AF59B051800AB56FB451800AB55973
:104DE800D8B0F9EF26F0FBEF26F026EF27F0AD510B
:104DF800B15DB56FAE51B259B66FAF51B359B76F18
:104E0800B051B459B86FFF0EB525AD6FFF0EB6217E
:104E1800AE6FFF0EB721AF6FFF0EB821B06F800ED7
:104E2800B91BBC6DBC51D8A41CEF27F01EEF27F0AE
:104E38002EEF27F0010EAD27000EAE23AF23B023CF
:104E48002EEF27F0B151AD5FB251AE5BB351AF5BFE
:104E5800B451B05BAD51AE11AF11B011D8A437EF5A
:104E680027F039EF27F06EEF27F0BC51D8A43FEFB9
:104E780027F041EF27F06EEF27F0000EAD6F000E20
:104E8800AE6F000EAF6F000EB06F09EF28F0D8902C
:104E9800AD37AE37AF37B037BCAF55EF27F057EF68
:104EA80027F058EF27F0AD81BCA15DEF27F05FEF49
:104EB80027F063EF27F0D880BC3765EF27F0D8904C
:104EC800BC37BB51D8B46BEF27F06DEF27F06EEF0E
:104ED80027F0BB07AFAF73EF27F075EF27F04BEF65
:104EE80027F0000EBA6FBCAF7CEF27F07EEF27F0FB
:104EF80096EF27F0BCC2B5F27F0EB517D8B487EF8E
:104F080027F089EF27F08DEF27F0010EBA6F96EFA3
:104F180027F0ADA192EF27F094EF27F096EF27F056
:104F280089EF27F0BA51D8B49CEF27F09EEF27F00D
:104F3800C9EF27F0010EAD27000EAE23AF23B02333
:104F4800B0A1A9EF27F0ABEF27F0C9EF27F0ADC26A
:104F5800B5F2AEC2B6F2AFC2B7F2B0C2B8F2B83567
:104F6800B833B733B633B533B5C2ADF2B6C2AEF265
:104F7800B7C2AFF2B8C2B0F2BB29D8B4C6EF27F0B7
:104F8800C8EF27F0C9EF27F0BB2BBB29D8B4CFEF68
:104F980027F0D1EF27F0D9EF27F0BB51D8A4D7EFEE
:104FA80027F0D9EF27F0EBEF27F0000EAD6F000EDA
:104FB800AE6F000EAF6F000EB06FBB51D8A4E7EF15
:104FC80027F0E9EF27F0EBEF27F0000EB96FBBA150
:104FD800F0EF27F0F2EF27F0F5EF27F0AF8FF6EFBD
:104FE80027F0AF9FD890BB31B06FB9AFFEEF27F075
:104FF80000EF28F001EF28F0B08FADC2ADF2AEC2DD
:10500800AEF2AFC2AFF2B0C2B0F212002B50800BBA
:10501800346E2B502B24366E2AAE15EF28F017EF7E
:1050280028F018EF28F036803650D8B41EEF28F054
:1050380020EF28F035EF28F03628D8A426EF28F0FE
:1050480028EF28F030EF28F0000E286E000E296EA9
:10505800000E2A6E000E2B6E2A8E000E2B6E3DEF70
:1050680028F0000E286E000E296E000E2A6E000E23
:105078002B6E2F50800B356E34503518D8B447EF4F
:1050880028F049EF28F04AEF28F0348C2F502F24CD
:10509800356E2EAE52EF28F054EF28F055EF28F079
:1050A80035803550D8B45BEF28F05DEF28F072EF0B
:1050B80028F03528D8A463EF28F065EF28F06DEFC5
:1050C80028F0000E2C6E000E2D6E000E2E6E000EB7
:1050D8002F6E2E8E000E2F6E7AEF28F0000E2C6E9B
:1050E800000E2D6E000E2E6E000E2F6E3650355CA3
:1050F800D8B081EF28F083EF28F0AAEF28F034AC7D
:1051080088EF28F08AEF28F08CEF28F0800E341A08
:1051180036C037F035C036F037C035F028C037F024
:105128002CC028F037C02CF029C037F02DC029F04A
:1051380037C02DF02AC037F02EC02AF037C02EF025
:105148002BC037F02FC02BF037C02FF0000E376E72
:10515800365035C030F0316A305E000E315A31BEFB
:10516800BFEF28F0315009E11A0E305CD8A0BFEF2C
:1051780028F0C1EF28F0F8EF28F0285029102A105D
:105188002B10D8A4CAEF28F0CDEF28F0010ECEEFEF
:1051980028F0000E376E000E286E000E296E000EE5
:1051A8002A6E000E2B6E35C036F001EF29F037A0BD
:1051B800E0EF28F0E2EF28F0E8EF28F0D890373059
:1051C8000109376EEAEF28F0D890373228A0EFEFC0
:1051D80028F0F1EF28F0F2EF28F0378E2B342B323D
:1051E8002A3229322832362A3550365CD8A0FFEFC9
:1051F80028F001EF29F0DBEF28F034BC06EF29F0A6
:1052080008EF29F048EF29F03650D8A40EEF29F01E
:1052180010EF29F01AEF29F0000E286E000E296E03
:10522800000E2A6E000E2B6E69EF2AF02C502826ED
:105238002D5029222E502A222F502B222BA027EF27
:1052480029F029EF29F0D5EF29F037A02EEF29F022
:1052580030EF29F036EF29F0D89037300109376E52
:1052680038EF29F0D890373228A03DEF29F03FEFEA
:1052780029F040EF29F0378E2B342B322A3229328D
:105288002832362AD5EF29F02C50285C2D50295881
:105298002E502A582B50800A306E2F50800A3058D2
:1052A800D8B059EF29F05BEF29F086EF29F02850A4
:1052B8002C5C306E29502D58316E2A502E58326E83
:1052C8002B502F58336EFF0E3024286EFF0E3120DE
:1052D800296EFF0E32202A6EFF0E33202B6E800EB1
:1052E800341A376C3750D8A47CEF29F07EEF29F0B8
:1052F8008EEF29F0010E2826000E29222A222B22C1
:105308008EEF29F02C50285E2D50295A2E502A5AFB
:105318002F502B5A285029102A102B10D8A497EF59
:1053280029F099EF29F0CEEF29F03750D8A49FEF54
:1053380029F0A1EF29F0CEEF29F0000E286E000E1B
:10534800296E000E2A6E000E2B6E69EF2AF0D89097
:10535800283629362A362B3637AEB5EF29F0B7EF7F
:1053680029F0B8EF29F0288037A0BDEF29F0BFEF6A
:1053780029F0C3EF29F0D8803736C5EF29F0D89047
:1053880037363650D8B4CBEF29F0CDEF29F0CEEF31
:1053980029F036062AAED3EF29F0D5EF29F0ABEF86
:1053A80029F0000E356E37AEDCEF29F0DEEF29F07C
:1053B800F6EF29F037C030F07F0E3016D8B4E7EF9B
:1053C80029F0E9EF29F0EDEF29F0010E356EF6EF3F
:1053D80029F028A0F2EF29F0F4EF29F0F6EF29F0F0
:1053E800E9EF29F03550D8B4FCEF29F0FEEF29F0A9
:1053F80029EF2AF0010E2826000E29222A222B2224
:105408002BA009EF2AF00BEF2AF029EF2AF028C089
:1054180030F029C031F02AC032F02BC033F03334D9
:10542800333232323132303230C028F031C029F0D4
:1054380032C02AF033C02BF03628D8B426EF2AF031
:1054480028EF2AF029EF2AF0362A3628D8B42FEF89
:105458002AF031EF2AF039EF2AF03650D8A437EF86
:105468002AF039EF2AF04BEF2AF0000E286E000ED2
:10547800296E000E2A6E000E2B6E3650D8A447EF08
:105488002AF049EF2AF04BEF2AF0000E346E36A0CE
:1054980050EF2AF052EF2AF055EF2AF02A8E56EFF5
:1054A8002AF02A9ED89036302B6E34AE5EEF2AF062
:1054B80060EF2AF061EF2AF02B8E28C028F029C06F
:1054C80029F02AC02AF02BC02BF0120002019B51B0
:1054D800800BA06F9B519B25A66F9AAF76EF2AF0A1
:1054E80078EF2AF079EF2AF0A681A651D8B47FEF99
:1054F8002AF081EF2AF094EF2AF0A629D8A487EFA2
:105508002AF089EF2AF091EF2AF0000E986F000E2A
:10551800996F000E9A6F000E9B6F9A8F9CEF2AF07E
:10552800000E986F000E996F000E9A6F000E9B6F19
:105538009F51800BA01B9F519F25A16F9EAFA7EF86
:105548002AF0A9EF2AF0AAEF2AF0A181A151D8B434
:10555800B0EF2AF0B2EF2AF0C5EF2AF0A129D8A4BB
:10556800B8EF2AF0BAEF2AF0C2EF2AF0000E9C6FCB
:10557800000E9D6F000E9E6F000E9F6F9E8FCDEFE9
:105588002AF0000E9C6F000E9D6F000E9E6F000E9D
:105598009F6FA151D8B4D3EF2AF0D5EF2AF0DDEFF1
:1055A8002AF0A651D8A4DBEF2AF0DDEF2AF0E7EFC6
:1055B8002AF0000E986F000E996F000E9A6F000E79
:1055C8009B6FA0EF2CF09E519803F3CFABF2F4CF72
:1055D800ACF2AB51A26FA36BA46BA56BAC51A76FD8
:1055E800A86BA96BAA6B9D519903F3CFABF2F4CFCB
:1055F800ACF2AB51A227000EA323A423A523AC51E0
:10560800A727000EA823A923AA239C519A03F3CF06
:10561800ABF2F4CFACF2AB51A227000EA323A42324
:10562800A523AC51A727000EA823A923AA23A4C207
:10563800A5F2A3C2A4F2A2C2A3F2A26B9C51990341
:10564800F3CFABF2F4CFACF2AB51A227AC51A3230A
:10565800000EA423000EA5239D519803F3CFABF2AF
:10566800F4CFACF2AB51A227AC51A323000EA42374
:10567800000EA523A4C2A5F2A3C2A4F2A2C2A3F25B
:10568800A26B9C519803F3CFABF2F4CFACF2AB51C1
:10569800A227AC51A323000EA423000EA5239E51DC
:1056A8009903F3CFABF2F4CFACF2AB51A727AC51CF
:1056B800A823000EA923000EAA239D519A03F3CF15
:1056C800ABF2F4CFACF2AB51A727AC51A823000E34
:1056D800A923000EAA239E519A03F3CFABF2F4CF6D
:1056E800ACF2AB5101015E6F0201AC5101015F6F79
:1056F800606B616B60C161F15FC160F15EC15FF1B8
:105708005E6B5E510201A72701015F510201A823C8
:10571800010160510201A923010161510201AA237B
:10572800A2C25EF1A3C25FF1A4C260F1A5C261F199
:10573800190EA5EF2BF00101D890613360335F3368
:105748005E33E82E9FEF2BF05E510201A72701017F
:105758005F510201A823010160510201A92301013F
:1057680061510201AA23A4C2A5F2A3C2A4F2A2C253
:10577800A3F2A26BA151A6C25EF101015F6B5E2785
:10578800000E5F23820E5E250201AB6FFF0E010142
:105798005F210201AC6FE6EF2BF0D890A737A8374E
:1057A800A937AA37A5AFDBEF2BF0DDEF2BF0DEEF43
:1057B8002BF0A781D890A237A337A437A537AB071A
:1057C800D8A0AC07A9AFEBEF2BF0EDEF2BF0D1EFA2
:1057D8002BF0000EA16FA5AFF4EF2BF0F6EF2BF036
:1057E80023EF2CF0FF0EA21501015E6FFF0E0201E0
:1057F800A31501015F6FFF0E0201A4150101606F7F
:105808007F0E0201A5150101616F5E515F116011E4
:105818006111D8B412EF2CF014EF2CF019EF2CF022
:10582800010E0201A16F23EF2CF00201A7A11FEFC7
:105838002CF021EF2CF023EF2CF014EF2CF0A151D9
:10584800D8B429EF2CF02BEF2CF051EF2CF0010EEF
:10585800A727000EA823A923AA23AAA136EF2CF074
:1058680038EF2CF051EF2CF0A7C25EF1A8C25FF11F
:10587800A9C260F1AAC261F10101613561336033E7
:105888005F335E335EC1A7F25FC1A8F260C1A9F2BF
:1058980061C1AAF20201AB4BAC2BACBF5CEF2CF0A0
:1058A800AC5108E1AB29D8A05CEF2CF05EEF2CF0EE
:1058B80068EF2CF0000EA76F000EA86F800EA96F7E
:1058C8007F0EAA6F96EF2CF0ACBF75EF2CF0AC51A1
:1058D80006E1AB05D8B073EF2CF075EF2CF081EF33
:1058E8002CF0000EA76F000EA86F000EA96F000E17
:1058F800AA6F000EA06F96EF2CF0ABC2A6F2FF0EB7
:10590800A717FF0EA8177F0EA917000EAA17A6A1A2
:1059180090EF2CF092EF2CF093EF2CF0A98FD89009
:10592800A631AA6FA051AA13A7C298F2A8C299F2E9
:10593800A9C29AF2AAC29BF212004350800B4C6E85
:1059480043504324526E42AEACEF2CF0AEEF2CF035
:10595800AFEF2CF052805250D8B4B5EF2CF0B7EF1F
:105968002CF0CAEF2CF05228D8A4BDEF2CF0BFEFD2
:105978002CF0C7EF2CF0000E406E000E416E000EAA
:10598800426E000E436E428ED2EF2CF0000E406E37
:10599800000E416E000E426E000E436E4750800BA3
:1059A8004C1A475047244D6E46AEDDEF2CF0DFEF22
:1059B8002CF0E0EF2CF04D804D50D8B4E6EF2CF0F1
:1059C800E8EF2CF0FBEF2CF04D28D8A4EEEF2CF0EC
:1059D800F0EF2CF0F8EF2CF0000E446E000E456E40
:1059E800000E466E000E476E468E03EF2DF0000E39
:1059F800446E000E456E000E466E000E476E4D500A
:105A0800D8B409EF2DF00BEF2DF013EF2DF0525015
:105A1800D8A411EF2DF013EF2DF01DEF2DF0000E8F
:105A2800406E000E416E000E426E000E436EB5EFE2
:105A38002EF046504002F3CF57F0F4CF58F05750AD
:105A48004E6E4F6A506A516A5850536E546A556A7E
:105A5800566A45504102F3CF57F0F4CF58F05750EB
:105A68004E26000E4F225022512258505326000E27
:105A780054225522562244504202F3CF57F0F4CF15
:105A880058F057504E26000E4F225022512258509F
:105A98005326000E54225522562250C051F04FC0B2
:105AA80050F04EC04FF04E6A44504102F3CF57F0C9
:105AB800F4CF58F057504E2658504F22000E50221F
:105AC800000E512245504002F3CF57F0F4CF58F062
:105AD80057504E2658504F22000E5022000E512289
