:0400000007EF00F016
:100008007F82A9ED41F073EF4DF0000E01017B6F87
:10001800000E7A6F5CC18CF15DC18DF15EC18EF10D
:100028005FC18FF18FBF1DEF00F01BEF00F033EFC2
:1000380000F0000E7B6F010E7A6F8CC10EF18DC13E
:100048000FF18EC110F18FC111F1D7EC55F00EC12F
:100058008CF10FC18DF110C18EF111C18FF1000E1D
:100068000101936F000E926FD5C17EF1D6C17FF169
:100078007A517B11D8A443EF00F045EF00F04CEF24
:1000880000F0D9A54AEF00F04CEF00F066EF00F061
:100098007A517B11D8A453EF00F055EF00F05BEFD5
:1000A80000F0000E676F2B0E666F5FEF00F0000E1A
:1000B800676F2D0E666F66C18FF2924B932B7E078A
:1000C800D8A07F078CC10EF18DC10FF18EC110F140
:1000D8008FC111F12AEC40F001010E050F11D8A4CF
:1000E80078EF00F07AEF00F0C4EF00F0BF0E616F18
:1000F800FF0E626F6051636F646B615163276251D9
:100108006423645107E11A0E635DD8B08EEF00F0E6
:1001180090EF00F09EEF00F08F0E92250E6F020E0A
:1001280093210F6FE90E106FFF0E116F24EC51F041
:10013800AAEF00F08F0E92250E6F020E93210F6F1B
:10014800F10E106FFF0E116F24EC51F00101FD0E3E
:100158007E27FF0E7F235AC120F15BC121F18F0E4C
:100168000101226F020E236F7EC124F17FC125F1A8
:1001780076EC47F020C15AF121C15BF113EF06F08C
:100188008CC10EF18DC10FF18EC110F18FC111F12B
:100198002AEC40F001010E510F11D8A4D6EF00F05F
:1001A800D8EF00F00AEF01F0BF0E616FFF0E626F2B
:1001B8006051636F646B61516327625164236451BA
:1001C80007E11A0E635DD8B0ECEF00F0EEEF00F037
:1001D800FCEF00F08F0E92250E6F020E93210F6F29
:1001E800ED0E106FFF0E116F24EC51F0AAEF00F026
:1001F8008F0E92250E6F020E93210F6FF50E106F62
:10020800FF0E116F24EC51F0AAEF00F0000E946F6E
:10021800000E956F800E966F3F0E976F000E916FD0
:10022800000E906F8CC10EF18DC10FF18EC110F1CF
:100238008FC111F1000E126F000E136F000E146FB4
:10024800000E156F83EC4BF00101D8B02EEF01F0D2
:1002580030EF01F0B5EF01F04FEF01F094C135F147
:1002680095C136F196C137F197C138F1000E396F53
:10027800000E3A6F200E3B6F410E3C6FF5EC1FF0FD
:1002880035C194F136C195F137C196F138C197F16E
:100298000101904B912B8CC14EF18DC14FF18EC154
:1002A80050F18FC151F1000E396F000E3A6F200ED8
:1002B8003B6F410E3C6F94C135F195C136F196C143
:1002C80037F197C138F1F5EC1FF035C152F136C15D
:1002D80053F137C154F138C155F1A2EC3EF0010198
:1002E800D8B079EF01F07BEF01F032EF01F09BEF2E
:1002F80001F094C11CF195C11DF196C11EF197C181
:100308001FF1000E206F000E216F200E226F410E8C
:10031800236F20EC24F01CC194F11DC195F11EC17E
:1003280096F11FC197F101019007D8A091078CC1E0
:100338004EF18DC14FF18EC150F18FC151F194C171
:1003480052F195C153F196C154F197C155F1A2EC00
:100358003EF00101D8A0B3EF01F0B5EF01F07DEF59
:1003680001F060C114F1156BBFEC53F00101145199
:10037800816F81C180F1670E8119D8A4C6EF01F0A1
:10038800C8EF01F0EEEF01F0D751D811D8A4CFEFA4
:1003980001F0D1EF01F0D5EF01F0000ED86F010E9A
:1003A800D76FD8BFE2EF01F0D85106E1D705D8B032
:1003B800E0EF01F0E2EF01F0E8EF01F0000E7D6FF1
:1003C800060E7C6FF7EF01F0D7C17CF1D8C17DF143
:1003D800F7EF01F0D8BFF3EF01F0F5EF01F0E2EF2E
:1003E80001F0E8EF01F0670E8119D8A4FEEF01F0E3
:1003F80000EF02F02FEF02F091AF0EEF02F0FC0ECB
:10040800905DFF0E9159D8A00CEF02F00EEF02F0AC
:100418002DEF02F0FF0E616FFF0E626F7CC163F17A
:100428007DC164F161516327625164239051635D1A
:100438006451800A656F9151800A6559D8A027EFE9
:1004480002F029EF02F02DEF02F0660E806F2FEF19
:1004580002F0650E806F7CC172F17DC173F1670E89
:100468008119D8A43AEF02F03CEF02F04CEF02F009
:10047800660E8019D8A443EF02F045EF02F04EEF64
:1004880002F091BF4CEF02F04AEF02F04EEF02F09B
:10049800724B732B660E8019D8A455EF02F057EFF4
:1004A80002F077EF02F091BF5EEF02F05CEF02F02E
:1004B8006AEF02F0000E946F000E956F800E966F33
:1004C8003F0E976F000E916F000E906F670E8119A7
:1004D800D8B471EF02F073EF02F077EF02F09051A9
:1004E800722791517323000E8B6F000E8A6F8CC197
:1004F80082F18DC183F18EC184F18FC185F194C1E0
:1005080074F195C175F196C176F197C177F109EF4C
:1005180003F082C11CF183C11DF184C11EF185C1A4
:100528001FF194C120F195C121F196C122F197C123
:1005380023F120EC24F01CC135F11DC136F11EC198
:1005480037F11FC138F1A0EC30F035C186F136C162
:1005580087F137C188F138C189F186C14EF187C169
:100568004FF188C150F189C151F11EEC3EF04EC1E6
:1005780078F14FC179F182C14EF183C14FF184C145
:1005880050F185C151F194C139F195C13AF196C143
:100598003BF197C13CF186C135F187C136F188C17D
:1005A80037F189C138F1F5EC1FF035C152F136C188
:1005B80053F137C154F138C155F1E3EC53F04EC152
:1005C80082F14FC183F150C184F151C185F194C1C9
:1005D8001CF195C11DF196C11EF197C11FF1000EC6
:1005E8000101206F000E216F200E226F410E236F34
:1005F80020EC24F01CC194F11DC195F11EC196F1A7
:100608001FC197F101018A4B8B2B72518A5D8B5167
:10061800800A616F7351800A6159D8A016EF03F000
:1006280018EF03F08DEF02F094C135F195C136F162
:1006380096C137F197C138F1000E396F000E3A6F45
:10064800A00E3B6F400E3C6FF5EC1FF035C186F1F4
:1006580036C187F137C188F138C189F182C14EF1BD
:1006680083C14FF184C150F185C151F186C152F166
:1006780087C153F188C154F189C155F1A2EC3EF00C
:100688000101D8B04AEF03F04CEF03F056EF03F046
:10069800000E866F000E876F000E886F000E896F40
:1006A8007FEF03F082C10EF183C10FF184C110F115
:1006B80085C111F186C112F187C113F188C114F106
:1006C80089C115F183EC4BF00101D8A06EEF03F05E
:1006D80070EF03F07FEF03F078B175EF03F077EF79
:1006E80003F07FEF03F0000E866F000E876F000E99
:1006F800886F000E896F8CC135F18DC136F18EC1BE
:1007080037F18FC138F186C139F187C13AF188C113
:100718003BF189C13CF134EC1BF035C182F136C1A3
:1007280083F137C184F138C185F182C14EF183C1AB
:100738004FF184C150F185C151F1000E0101396FAB
:10074800000E3A6F200E3B6F410E3C6F74C135F1BD
:1007580075C136F176C137F177C138F1F5EC1FF084
:1007680035C152F136C153F137C154F138C155F191
:10077800A2EC3EF00101D8A0C4EF03F0C6EF03F0ED
:10078800EEEF03F0904B912B74C135F175C136F142
:1007980076C137F177C138F1000E396F000E3A6F24
:1007A800200E3B6F410E3C6FF5EC1FF035C174F124
:1007B80036C175F137C176F138C177F1660E01019E
:1007C8008019D8A4EAEF03F0ECEF03F0EEEF03F0A2
:1007D800724B732B74C194F175C195F176C196F182
:1007E80077C197F1650E8019D8B4FDEF03F0FFEFDC
:1007F80003F005EF04F090C170F191C171F109EFB8
:1008080004F0000E716F000E706F000E6F6F000E17
:100818006E6F000E6D6F000E6C6F000E8B6F000E0A
:100828008A6F05EF05F082C11CF183C11DF184C1F7
:100838001EF185C11FF194C120F195C121F196C126
:1008480022F197C123F120EC24F01CC135F11DC120
:1008580036F11EC137F11FC138F1A0EC30F035C1B7
:1008680086F136C187F137C188F138C189F186C16F
:100878004EF187C14FF188C150F189C151F11EEC89
:100888003EF04EC178F14FC179F10101D9B94FEF6E
:1008980004F051EF04F06EEF04F078517911D8A408
:1008A80058EF04F05AEF04F06EEF04F0670E811968
:1008B800D8A461EF04F063EF04F06EEF04F071BFA9
:1008C8006AEF04F068EF04F06EEF04F06C4B6D2BE8
:1008D800B8EF04F06E516F11D8A475EF04F077EFFC
:1008E80004F0A1EF04F071BF7EEF04F07CEF04F098
:1008F800A1EF04F08F0E9225D96E020E9321DA6EC5
:100908002E0EDF6E924B932B7E07D8A07F07000E2A
:100918006F6F010E6E6FA1EF04F08F0E9225D96EE6
:10092800020E9321DA6E300EDF6E924B932B7E0708
:10093800D8A07F076C07D8A06D076C516D11D8A49B
:10094800A8EF04F0AAEF04F091EF04F08F0E9225BF
:10095800D96E020E9321DA6E7851300FDF6E924B0A
:10096800932B7E07D8A07F0782C14EF183C14FF138
:1009780084C150F185C151F194C139F195C13AF161
:1009880096C13BF197C13CF186C135F187C136F17B
:1009980088C137F189C138F1F5EC1FF035C152F142
:1009A80036C153F137C154F138C155F1E3EC53F076
:1009B8004EC182F14FC183F150C184F151C185F11B
:1009C80094C11CF195C11DF196C11EF197C11FF18B
:1009D800000E0101206F000E216F200E226F410EC4
:1009E800236F20EC24F01CC194F11DC195F11EC1A8
:1009F80096F11FC197F101017007D8A071078A4BC2
:100A08008B2B72518A5D8B51800A616F7351800AFA
:100A18006159D8B012EF05F014EF05F022EF05F098
:100A280093BF20EF05F0935109E14B0E925DD8A0DA
:100A380020EF05F022EF05F017EF04F06E516F116B
:100A4800D8A429EF05F02BEF05F03CEF05F0D9A964
:100A580030EF05F032EF05F03CEF05F08F0E9225F0
:100A6800D96E020E9321DA6E2E0EDF6E924B932B07
:100A78008F0E9225D96E020E9321DA6E000EDF6E6C
:100A8800650E8019D8A44BEF05F04DEF05F0AFEFD8
:100A980000F0000E8B6F4F0E8A6F8F0E8A25D96E6D
:100AA800020E8B21DA6E000EDF6E000E7B6F000ED9
:100AB8007A6F91BF64EF05F062EF05F06CEF05F017
:100AC800000E7B6F010E7A6F906D911FD8B0912B3D
:100AD800000E7D6F020E7C6F9EEF05F08A07D8A08E
:100AE8008B078F0E8A25D96E020E8B21DA6E90C184
:100AF8000EF191C10FF1000E116F0A0E106F21EC6B
:100B08004AF001010E51300FDF6E90C10EF191C114
:100B18000FF1000E116F0A0E106F40EC48F00EC175
:100B280090F10FC191F101017C07D8A07D077E07E4
:100B3800D8A07F0790519111D8A4A5EF05F0A7EF91
:100B480005F072EF05F07DBFB4EF05F07D5106E1C9
:100B58007C05D8B0B2EF05F0B4EF05F072EF05F000
:100B68008A07D8A08B077A517B11D8A4BEEF05F06D
:100B7800C0EF05F0C6EF05F0000E696F2B0E686F29
:100B8800CAEF05F0000E696F2D0E686F8F0E8A256B
:100B9800D96E020E8B21DA6E68C1DFFF7E07D8A0FE
:100BA8007F078A07D8A08B07BF0E616FFF0E626FA1
:100BB8006051636F646B61516327625164236451B0
:100BC80009E11A0E635DD8A0ECEF05F0EEEF05F031
:100BD800F4EF05F0000E6B6F650E6A6FF8EF05F025
:100BE800000E6B6F450E6A6F8F0E8A25D96E020E46
:100BF8008B21DA6E6AC1DFFF7E07D8A07F078F0ED0
:100C080092250E6F020E93210F6F8F0E8A25106F9B
:100C1800020E8B21116F24EC51F0AFEF00F012009F
:100C2800000E5F6E000E5E6E40C070F041C071F045
:100C380042C072F043C073F073BE27EF06F025EF91
:100C480006F03DEF06F0000E5F6E010E5E6E70C09E
:100C580001F071C002F072C003F073C004F083ECBD
:100C680056F001C070F002C071F003C072F004C009
:100C780073F0000E776E000E766ED5C162F0D6C1A5
:100C880063F05E505F10D8A44CEF06F04EEF06F00C
:100C980056EF06F00101D9A554EF06F056EF06F01D
:100CA80070EF06F05E505F10D8A45DEF06F05FEFBE
:100CB80006F065EF06F0000E4B6E2B0E4A6E69EFDC
:100CC80006F0000E4B6E2D0E4A6E4AC08FF2764A21
:100CD800772A6206D8A0630670C001F071C002F0DE
:100CE80072C003F073C004F02AEC41F00104021052
:100CF800D8A481EF06F083EF06F0CBEF06F0BF0E25
:100D0800456EFF0E466E4450476E486A455047266A
:100D180046504822485007E11A0E475CD8B097EF72
:100D280006F099EF06F0A7EF06F08F0E7624016E15
:100D3800020E7720026EE90E036EFF0E046E84EC3D
:100D480051F0B3EF06F08F0E7624016E020E772075
:100D5800026EF10E036EFF0E046E84EC51F0FD0E70
:100D68006226FF0E63223EC013F03FC014F08F0EC0
:100D7800156E020E166E62C017F063C018F0A3EC71
:100D880048F013C03EF014C03FF00BEF0CF070C0F9
:100D980001F071C002F072C003F073C004F02AECD5
:100DA80041F001500210D8A4DCEF06F0DEEF06F0A7
:100DB80010EF07F0BF0E456EFF0E466E4450476EAB
:100DC800486A4550472646504822485007E11A0EBF
:100DD800475CD8B0F2EF06F0F4EF06F002EF07F048
:100DE8008F0E7624016E020E7720026EED0E036ED2
:100DF800FF0E046E84EC51F0B3EF06F08F0E7624EC
:100E0800016E020E7720026EF50E036EFF0E046E61
:100E180084EC51F0B3EF06F0000E786E000E796E98
:100E2800800E7A6E3F0E7B6E000E756E000E746E2D
:100E380070C001F071C002F072C003F073C004F01A
:100E4800000E056E000E066E000E076E000E086E90
:100E5800D9EC4BF0D8B033EF07F035EF07F0B6EF29
:100E680007F053EF07F078C019F079C01AF07AC08C
:100E78001BF07BC01CF0000E1D6E000E1E6E200EB7
:100E88001F6E410E206E0BEC22F019C078F01AC0CC
:100E980079F01BC07AF01CC07BF0744A752A70C0C8
:100EA80032F071C033F072C034F073C035F0000E08
:100EB8001D6E000E1E6E200E1F6E410E206E78C035
:100EC80019F079C01AF07AC01BF07BC01CF00BEC4B
:100ED80022F019C036F01AC037F01BC038F01CC019
:100EE80039F0A8EC3FF0D8B07CEF07F07EEF07F0C0
:100EF80037EF07F09DEF07F078C001F079C002F0F6
:100F08007AC003F07BC004F0000E056E000E066E7A
:100F1800200E076E410E086EEEEC25F001C078F049
:100F280002C079F003C07AF004C07BF07406D8A040
:100F3800750670C032F071C033F072C034F073C0FF
:100F480035F078C036F079C037F07AC038F07BC019
:100F580039F0A8EC3FF0D8A0B4EF07F0B6EF07F0EF
:100F680080EF07F044C003F0046A4EEC54F00350DD
:100F7800656E65C064F0670E6518D8A4C6EF07F003
:100F8800C8EF07F0EFEF07F00101D751D811D8A447
:100F9800D0EF07F0D2EF07F0D6EF07F0000ED86FCA
:100FA800010ED76FD8BFE3EF07F0D85106E1D70598
:100FB800D8B0E1EF07F0E3EF07F0E9EF07F0000E34
:100FC800616E060E606EF9EF07F0D7C160F0D8C108
:100FD80061F0F9EF07F00101D8BFF5EF07F0F7EF7F
:100FE80007F0E3EF07F0E9EF07F0670E6518D8A4FC
:100FF80000EF08F002EF08F031EF08F075AE10EFDF
:1010080008F0FC0E745CFF0E7558D8A00EEF08F0BF
:1010180010EF08F02FEF08F0FF0E456EFF0E466E3A
:1010280060C047F061C048F0455047264650482206
:101038007450475C4850800A496E7550800A495878
:10104800D8A029EF08F02BEF08F02FEF08F0660E74
:10105800646E31EF08F0650E646E60C056F061C0D2
:1010680057F0670E6518D8A43CEF08F03EEF08F07B
:101078004EEF08F0660E6418D8A445EF08F047EF65
:1010880008F050EF08F075BE4EEF08F04CEF08F08E
:1010980050EF08F0564A572A660E6418D8A457EF3E
:1010A80008F059EF08F079EF08F075BE60EF08F026
:1010B8005EEF08F06CEF08F0000E786E000E796EA7
:1010C800800E7A6E3F0E7B6E000E756E000E746E8B
:1010D800670E6518D8B473EF08F075EF08F079EF6C
:1010E80008F07450562675505722000E6F6E000E89
:1010F8006E6E70C066F071C067F072C068F073C041
:1011080069F078C058F079C059F07AC05AF07BC0BD
:101118005BF009EF09F066C001F067C002F068C033
:1011280003F069C004F078C005F079C006F07AC011
:1011380007F07BC008F0EEEC25F001C01AF002C001
:101148001BF003C01CF004C01DF0ABEC31F01AC05A
:101158006AF01BC06BF01CC06CF01DC06DF06AC05B
:1011680032F06BC033F06CC034F06DC035F025EC54
:101178003FF032C05CF033C05DF066C011F067C06C
:1011880012F068C013F069C014F078C01DF079C07F
:101198001EF07AC01FF07BC020F06AC019F06BC047
:1011A8001AF06CC01BF06DC01CF00BEC22F019C0DB
:1011B80015F01AC016F01BC017F01CC018F071EC1F
:1011C80054F011C066F012C067F013C068F014C084
:1011D80069F078C001F079C002F07AC003F07BC0F2
:1011E80004F0000E056E000E066E200E076E410E0E
:1011F800086EEEEC25F001C078F002C079F003C06B
:101208007AF004C07BF06E4A6F2A56506E5C6F50BD
:10121800800A456E5750800A4558D8A016EF09F045
:1012280018EF09F08FEF08F078C019F079C01AF0BC
:101238007AC01BF07BC01CF0000E1D6E000E1E6EE7
:10124800A00E1F6E400E206E0BEC22F019C06AF043
:101258001AC06BF01BC06CF01CC06DF066C032F099
:1012680067C033F068C034F069C035F06AC036F042
:101278006BC037F06CC038F06DC039F0A8EC3FF0A7
:10128800D8B049EF09F04BEF09F055EF09F0000E1F
:101298006A6E000E6B6E000E6C6E000E6D6E7DEF4A
:1012A80009F066C001F067C002F068C003F069C0C9
:1012B80004F06AC005F06BC006F06CC007F06DC0A2
:1012C80008F0D9EC4BF0D8A06CEF09F06EEF09F0FC
:1012D8007DEF09F05CB073EF09F075EF09F07DEF71
:1012E80009F0000E6A6E000E6B6E000E6C6E000E3A
:1012F8006D6E70C001F071C002F072C003F073C06F
:1013080004F06AC005F06BC006F06CC007F06DC051
:1013180008F095EC1DF001C066F002C067F003C04C
:1013280068F004C069F066C032F067C033F068C086
:1013380034F069C035F0000E1D6E000E1E6E200ED2
:101348001F6E410E206E58C019F059C01AF05AC0CD
:101358001BF05BC01CF00BEC22F019C036F01AC071
:1013680037F01BC038F01CC039F0A8EC3FF0D8A00B
:10137800C0EF09F0C2EF09F0E9EF09F0744A752AE5
:1013880058C019F059C01AF05AC01BF05BC01CF0C5
:10139800000E1D6E000E1E6E200E1F6E410E206E7A
:1013A8000BEC22F019C058F01AC059F01BC05AF0C3
:1013B8001CC05BF0660E6418D8A4E5EF09F0E7EFEF
:1013C80009F0E9EF09F0564A572A58C078F059C091
:1013D80079F05AC07AF05BC07BF0650E6418D8B417
:1013E800F8EF09F0FAEF09F000EF0AF074C054F0D2
:1013F80075C055F004EF0AF0000E556E000E546EDD
:10140800000E536E000E526E000E516E000E506E9E
:10141800000E6F6E000E6E6EFEEF0AF066C001F0F1
:1014280067C002F068C003F069C004F078C005F036
:1014380079C006F07AC007F07BC008F0EEEC25F022
:1014480001C01AF002C01BF003C01CF004C01DF05C
:10145800ABEC31F01AC06AF01BC06BF01CC06CF02A
:101468001DC06DF06AC032F06BC033F06CC034F050
:101478006DC035F025EC3FF032C05CF033C05DF054
:101488000101D9B94AEF0AF04CEF0AF069EF0AF006
:101498005C505D10D8A453EF0AF055EF0AF069EFDD
:1014A8000AF0670E6518D8A45CEF0AF05EEF0AF040
:1014B80069EF0AF055BE65EF0AF063EF0AF069EFCD
:1014C8000AF0504A512AB3EF0AF052505310D8A4E8
:1014D80070EF0AF072EF0AF09CEF0AF055BE79EF50
:1014E8000AF077EF0AF09CEF0AF08F0E7624D96E97
:1014F800020E7720DA6E2E0EDF6E764A772A6206A3
:10150800D8A06306000E536E010E526E9CEF0AF0CF
:101518008F0E7624D96E020E7720DA6E300EDF6ECB
:10152800764A772A6206D8A063065006D8A05106E4
:1015380050505110D8A4A3EF0AF0A5EF0AF08CEF91
:101548000AF08F0E7624D96E020E7720DA6E5C5080
:10155800300FDF6E764A772A6206D8A0630666C027
:1015680011F067C012F068C013F069C014F078C0B9
:101578001DF079C01EF07AC01FF07BC020F06AC051
:1015880019F06BC01AF06CC01BF06DC01CF00BECAE
:1015980022F019C015F01AC016F01BC017F01CC0B5
:1015A80018F071EC54F011C066F012C067F013C067
:1015B80068F014C069F078C001F079C002F07AC010
:1015C80003F07BC004F0000E056E000E066E200EC0
:1015D800076E410E086EEEEC25F001C078F002C0EF
:1015E80079F003C07AF004C07BF05406D8A0550601
:1015F8006E4A6F2A56506E5C6F50800A456E57507F
:10160800800A4558D8B00BEF0BF00DEF0BF01BEF2D
:101618000BF077BE19EF0BF0775009E14B0E765CB3
:10162800D8A019EF0BF01BEF0BF012EF0AF0525095
:101638005310D8A422EF0BF024EF0BF036EF0BF089
:101648000101D9A92AEF0BF02CEF0BF036EF0BF0C4
:101658008F0E7624D96E020E7720DA6E2E0EDF6E8C
:10166800764A772A8F0E7624D96E020E7720DA6EA4
:10167800000EDF6E650E6418D8A445EF0BF047EF37
:101688000BF0B7EF06F0000E6F6E4F0E6E6E8F0EFA
:101698006E24D96E020E6F20DA6E000EDF6E000E19
:1016A8005F6E000E5E6E75BE5EEF0BF05CEF0BF0CA
:1016B80066EF0BF0000E5F6E010E5E6E746C751EA9
:1016C800D8B0752A000E616E020E606E96EF0BF0B0
:1016D8006E06D8A06F068F0E6E24D96E020E6F208C
:1016E800DA6E74C001F075C002F0000E046E0A0EC6
:1016F800036E2BEC4BF00150300FDF6E74C001F01D
:1017080075C002F0000E046E0A0E036E06EC49F076
:1017180001C074F002C075F06006D8A061066206C8
:10172800D8A0630674507510D8A49DEF0BF09FEFF6
:101738000BF06CEF0BF061BEACEF0BF0615006E103
:101748006004D8B0AAEF0BF0ACEF0BF06CEF0BF025
:101758006E06D8A06F065E505F10D8A4B6EF0BF0E7
:10176800B8EF0BF0BEEF0BF0000E4D6E2B0E4C6E6B
:10177800C2EF0BF0000E4D6E2D0E4C6E8F0E6E24C8
:10178800D96E020E6F20DA6E4CC0DFFF6206D8A059
:1017980063066E06D8A06F06BF0E456EFF0E466E36
:1017A8004450476E486A455047264650482248509C
:1017B80009E11A0E475CD8A0E4EF0BF0E6EF0BF056
:1017C800ECEF0BF0000E4F6E650E4E6EF0EF0BF067
:1017D800000E4F6E450E4E6E8F0E6E24D96E020EA1
:1017E8006F20DA6E4EC0DFFF6206D8A063068F0E48
:1017F8007624016E020E7720026E8F0E6E24036E21
:10180800020E6F20046E84EC51F0B7EF06F0120060
:10181800D3CF63F19BCF64F121EE69F00F0EDE6A3E
:10182800E806FDE2E00E9B16D3508F0B6009D36EDD
:10183800030ED31224EF0CF0060EE82EFED700D0CC
:10184800D3A429EF0CF02BEF0CF020EF0CF0100EC6
:10185800C0EC50F01A0E0101586FF80EE82EFED7B2
:10186800582FFCD700F08D849694000E0101796FF3
:10187800FF0E2AEC59F00101792B090E796547EF23
:101888000CF049EF0CF03CEF0CF08D94000E0101C8
:10189800116F000E126F000E136F000E146F000E02
:1018A80024EC4DF0E806D8A45CEF0CF05EEF0CF0E9
:1018B8004AEF0CF0AA0E0101116F010E126F000E13
:1018C800136F000E146F080E24EC4DF00101836FA6
:1018D8008D94000E7B6F690E7B25D96EDA6A010E36
:1018E800DA227CEC59F0DF6E01017B2B030E7B655D
:1018F80080EF0CF082EF0CF06FEF0CF08D8483A575
:1019080088EF0CF08AEF0CF0BBEF0CF0010E02012F
:10191800006F000E0101116F000E126F000E136FA1
:10192800000E146F3A0E24EC4DF08D94000E010158
:101938007C6F690E7C25D96EDA6A010EDA227CEC9E
:1019480059F0DF6E01017C2B030E7C65AEEF0CF0C5
:10195800B0EF0CF09DEF0CF08D846B05D8B4B7EFA9
:101968000CF0B9EF0CF0D7EF0CF050EF10F0830546
:10197800D8A4C1EF0CF0C3EF0CF05EEF0CF06B05D0
:10198800D8A4C9EF0CF0CBEF0CF050EF10F0AA0E72
:101998006C19D8A4D2EF0CF0D4EF0CF050EF10F083
:1019A800020E0201006F02010005D8B4DEEF0CF050
:1019B800E0EF0CF0EBEF0CF0000E01015F6F000E92
:1019C800606F000E616F400E626FF4EF0CF0000E56
:1019D80001015F6F000E606F000E616F000E626F95
:1019E8005FC118F160C119F161C11AF162C11BF13F
:1019F800290E9FEC56F00101836F8351D8B407EF8D
:101A08000DF009EF0DF010EF0DF083A50EEF0DF0BE
:101A180010EF0DF0F4EF0CF083A515EF0DF017EFB4
:101A28000DF034EF0DF002010005D8A41EEF0DF003
:101A380020EF0DF030EF0DF0020E016F000E0101E6
:101A4800116F000E126F000E136F000E146F010E4F
:101A580024EC4DF034EF0DF0000E1C6F50EF10F039
:101A6800020E02010119D8B43CEF0DF03EEF0DF063
:101A78006EEF0DF0000E0101116F000E126F000ED7
:101A8800136F000E146F3A0E24EC4DF08D947CEC1D
:101A980059F0C00BC00AD8A454EF0DF056EF0DF062
:101AA8005BEF0DF0010E0201016F5EEF0DF0000E0D
:101AB8000201016F000E01017A6F7CEC59F00101FF
:101AC8007A2B020E7A656BEF0DF06DEF0DF061EF7A
:101AD8000DF08D84000E0101116F020E126F000EC1
:101AE800136F000E146F100E24EC4DF00009D8A4EB
:101AF80080EF0DF082EF0DF06EEF0DF0020E020197
:101B0800136F000E126F000E0101116F000E126F9D
:101B1800000E136F000E146F090E24EC4DF08D9417
:101B28007CEC59F0FE0AD8A49CEF0DF09EEF0DF066
:101B380094EF0DF0000E01017D6F0F0E7D65A7EF8C
:101B48000DF0A9EF0DF0ABEF0DF0B8EF0DF0690E49
:101B58007D25D96EDA6A010EDA227CEC59F0DF6E47
:101B680001017D2BA1EF0DF07CEC59F07CEC59F0D4
:101B78008D84020E02010019D8A4C5EF0DF0C7EF3D
:101B88000DF04CEF0EF0010E01017225656F666BCA
:101B9800000E6623676B000E6723686B000E6823D0
:101BA8007151596F586B58C15AF159C15BF1000E08
:101BB8005BBFFF0E5C6F5D6F5A5165135B51661317
:101BC8005C5167135D51681370C158F13F0E581787
:101BD80058C159F15A6B5B6B5C6B5AC15CF159C1C6
:101BE8005BF15A6B596B595165135A5166135B5126
:101BF80067135C51681365C10EF166C10FF167C1C7
:101C080010F168C111F1000EB9EC34F00EC135F1D4
:101C18000FC136F110C137F111C138F1BD0E010104
:101C2800396F370E3A6F060E3B6F3F0E3C6FF5EC7F
:101C38001FF035C118F236C119F237C11AF238C18E
:101C48001BF2000E0101396F000E3A6F000E3B6F58
:101C5800450E3C6F18C235F119C236F11AC237F178
:101C68001BC238F1F5EC1FF035C14EF136C14FF10A
:101C780037C150F138C151F11EEC3EF04EC114F29B
:101C88004FC115F250C116F251C117F225EF0FF0EE
:101C98006FC158F1030E0101581758C159F15A6B19
:101CA8005B6B5C6B040ED89059375A375B375C37DF
:101CB800E82E57EF0EF059C17FF15AC180F15BC190
:101CC80081F15CC182F17051586F596BD8905837C7
:101CD8005937D8905837593758C15AF159C15BF11B
:101CE800000E5BBFFF0E5C6F5D6F5A517F135B5137
:101CF80080135C5181135D51821371C158F1D890E2
:101D08005833D8905833300E5817010E5825596F4C
:101D18005A6B000E5A235B6B000E5B235C6B000E44
:101D28005C2359517F135A5180135B5181135C51C5
:101D3800821372C158F1030E5817596B73AF01D053
:101D4800592B593158355A6F020E5A277FC15BF10A
:101D580080C15CF181C15DF182C15EF15A2BBAEF9D
:101D68000EF0D8905B375C375D375E375A2FB5EF8A
:101D78000EF05BC17FF15CC180F15DC181F15EC194
:101D880082F16EC158F10F0E58177FC159F180C109
:101D98005AF181C15BF182C15CF1582BD9EF0EF089
:101DA800D89059375A375B375C37582FD4EF0EF035
:101DB80059C17FF15AC180F15BC181F15CC182F1E7
:101DC8007FC10EF180C10FF181C110F182C111F103
:101DD800000EB9EC34F00EC118F20FC119F210C19F
:101DE8001AF211C11BF212C20EF113C20FF1010156
:101DF800106B116B000EB9EC34F00EC120F10FC15D
:101E080021F110C122F111C123F118C21CF119C22C
:101E18001DF11AC21EF11BC21FF120EC24F01CC1D7
:101E28004EF11DC14FF11EC150F11FC151F11EEC01
:101E38003EF04EC114F24FC115F250C116F251C115
:101E480017F2000E0101116F000E126F000E136FD2
:101E5800000E146F0A0E24EC4DF08D947CEC59F0B2
:101E68000101836FFE0E8319D8A43DEF0FF03FEFF9
:101E78000FF032EF0FF0000E7E6F0F0E7E6547EF0A
:101E88000FF049EF0FF04BEF0FF058EF0FF0690E1E
:101E98007E25D96EDA6A010EDA227CEC59F0DF6E03
:101EA80001017E2B41EF0FF07CEC59F07CEC59F0EE
:101EB8008D8469C102F201016A51586F6B510201A8
:101EC800036F58C104F26CC109F26DC158F10101E8
:101ED800596B5A6B5B6B58C15BF15A6B596B586BFA
:101EE80058C105F259C106F25AC107F25BC108F29E
:101EF8006EC158F1596B5A6B5B6B59C15BF158C194
:101F08005AF1596B586B5851020105130101595187
:101F18000201061301015A510201071301015B5125
:101F2800020108136FC158F10101596B5A6B5B6BC1
:101F38005AC15BF159C15AF158C159F1586B5851FE
:101F480002010513010159510201061301015A51F9
:101F58000201071301015B510201081301017051CD
:101F68000201051371C10AF272C158F10101596BDE
:101F78005A6B5B6B58C15BF15A6B596B586B58C104
:101F88000BF259C10CF25AC10DF25BC10EF273C1CA
:101F980058F1596B5A6B5B6B59C15BF158C15AF1D7
:101FA800596B586B585102010B1301015951020129
:101FB8000C1301015A5102010D1301015B51020179
:101FC8000E1374C158F10101596B5A6B5B6B5AC1FE
:101FD8005BF159C15AF158C159F1586B5851020176
:101FE8000B130101595102010C1301015A5102014D
:101FF8000D1301015B5102010E130101755102011C
:102008000B13010176510F0B586F775102010F6FB7
:1020180058C110F201017851FE0B0201116F8D8435
:10202800C69A63C1D3FF64C19BFF1FEF10F0060E71
:10203800E82EFED700D0D3A424EF10F026EF10F03E
:102048001BEF10F0100EC0EC50F0010E0201256FCE
:10205800000E216F000E226F000E236F000E246FFA
:10206800000E1D6F000E1E6F000E1F6F000E206FFA
:10207800010E2E6F000E2A6F000E2B6F000E2C6FB4
:10208800000E2D6F000E266F000E276F000E286FB2
:10209800000E296F010E1C6F120082C0D9FF83C089
:1020A800DAFFDECFF6FFDDCFF7FFF86A0800F5505C
:1020B800250AD8A462EF10F064EF10F069EF14F06D
:1020C80082C0D9FF83C0DAFFDE2A000EDD22000EAF
:1020D8000101D66F000ED56FD5C1D9F1D6C1DAF19D
:1020E800D769D869000E0001936F000E926FC9EF8F
:1020F80010F00101D98182C0D9FF83C0DAFFDE2A3E
:10210800000EDD22C9EF10F00101D9837FEF10F036
:102118000101D9857FEF10F00101D9877FEF10F019
:102128000101D9897FEF10F0000E936F010E926FB5
:10213800C9EF10F082C0D9FF83C0DAFFDECFF6FF07
:10214800DDCFF7FFF86A0800F550866F876B875177
:10215800000AD8B4B2EF10F098EF10F08651200AB8
:10216800D8B490EF10F0030AD8B494EF10F0080A2E
:10217800D8B48CEF10F0060AD8B47DEF10F01D0A21
:10218800D8B488EF10F098EF10F000019251931135
:10219800D8B4D1EF10F0D3EF10F09EEF10F001019A
:1021A800D9A1D9EF10F0DBEF10F0DCEF10F0D993E4
:1021B80082C0D9FF83C0DAFFDECFF6FFDDCFF7FF9D
:1021C800F86A0800F5502A0AD8A4EDEF10F0EFEFEE
:1021D80010F018EF11F082C0D9FF83C0DAFFDE2AB1
:1021E800000EDD2284C0D9FF85C0DAFFDFCF86F07C
:1021F800020EDE26DFCF87F0000EDD2286C0D9FF73
:1022080087C0DAFFDECFD5F1DDCFD6F1D6BF11EF2B
:1022180011F00FEF11F050EF11F0D981D56DD61FE5
:10222800D8B0D62B50EF11F082C0D9FF83C0DAFFA7
:10223800DECF07F0DDCF08F08FEC3BF007C0D5F11B
:1022480008C0D6F12FEF11F082C0D9FF83C0DAFFA2
:10225800DE2A000EDD22D00E0001866FFF0E876F8A
:1022680082C0D9FF83C0DAFFDECFF6FFDDCFF7FFEC
:10227800F86A0800F550886F896B8651882787515E
:102288008923895109E10A0E885DD8A04EEF11F023
:1022980050EF11F028EF11F082C0D9FF83C0DAFFA8
:1022A800DECFF6FFDDCFF7FFF86A0800F5502E0AFB
:1022B800D8A461EF11F063EF11F0D7EF11F0000E21
:1022C8000101D86F000ED76F82C0D9FF83C0DAFF33
:1022D800DE2A000EDD2282C0D9FF83C0DAFFDECFFE
:1022E800F6FFDDCFF7FFF86A0800F5502A0AD8A4F0
:1022F80080EF11F082EF11F09FEF11F082C0D9FF4B
:1023080083C0DAFFDE2A000EDD2284C0D9FF85C033
:10231800DAFFDFCF86F0020EDE26DFCF87F0000E71
:10232800DD2286C0D9FF87C0DAFFDECFD7F1DDCF47
:10233800D8F1D7EF11F082C0D9FF83C0DAFFDECF22
:1023480007F0DDCF08F08FEC3BF007C0D7F108C0ED
:10235800D8F1B6EF11F082C0D9FF83C0DAFFDE2AC8
:10236800000EDD22D00E0001866FFF0E876F82C03F
:10237800D9FF83C0DAFFDECFF6FFDDCFF7FFF86ABB
:102388000800F550886F896B865188278751892303
:10239800895109E10A0E885DD8A0D5EF11F0D7EF71
:1023A80011F0AFEF11F082C0D9FF83C0DAFFDECFA2
:1023B800F6FFDDCFF7FFF86A0800F550036E046AF0
:1023C8004EEC54F003500001A06FA051D8B4EFEFC9
:1023D80011F0F1EF11F02DEF12F082C0D9FF83C098
:1023E800DAFFDECF86F0DDCF87F0010E8627000EFC
:1023F800872386C0F6FF87C0F7FFF86A0800F55004
:10240800036E046A4EEC54F003500001A16FA15111
:10241800D8B411EF12F013EF12F02DEF12F082C0C2
:10242800D9FF83C0DAFFDECF86F0DDCF87F0020E5A
:102438008627000E872386C0F6FF87C0F7FFF86A55
:102448000800F550036E046A4EEC54F00350000186
:10245800A26F82C0D9FF83C0DAFFDECFF6FFDDCFDF
:10246800F7FFF86A0800F550640AD8B43EEF12F096
:1024780040EF12F053EF12F082C0D9FF83C0DAFFA9
:10248800DECFF6FFDDCFF7FFF86A0800F550690ADE
:10249800D8A451EF12F053EF12F093EF12F082C06C
:1024A800D9FF83C0DAFFDE2A000EDD2284C0D9FFFF
:1024B80085C0DAFFDFCF86F0020EDE26DFCF87F099
:1024C800000EDD2286C0D9FF87C0DAFFDECF8AF092
:1024D800DDCF8BF0000E8BBFFF0E8C6F8D6F8E6F74
:1024E8008F6F906F916F80C01EF081C01FF08AC0FF
:1024F80020F08BC021F08CC022F08DC023F08EC05C
:1025080024F08FC025F090C026F091C027F088EC09
:102518002CF01EC080F01FC081F085EF14F0660E0D
:10252800A019D8A49AEF12F09CEF12F0DDEF12F088
:1025380082C0D9FF83C0DAFFDECFF6FFDDCFF7FF19
:10254800F86A0800F5CFA3F082C0D9FF83C0DAFF8C
:10255800DE2A000EDD2284C0D9FF85C0DAFFDFCF76
:1025680086F0040EDE26DFCF87F0000EDD2286C05F
:10257800D9FF87C0DAFFDECF9CF0DECF9DF0DECF3B
:102588009EF0DECF9FF080C03EF081C03FF09CC03F
:1025980040F09DC041F09EC042F09FC043F0A3C0F0
:1025A80044F014EC06F03EC080F03FC081F085EFA7
:1025B80014F0A00E016E000E026EF90E036EFF0EEF
:1025C800046E000E066E020E056ED1EC45F0015049
:1025D8000210D8A4F2EF12F0F4EF12F065EF13F046
:1025E80082C0D9FF83C0DAFFDECF86F0DDCF87F067
:1025F800010E00018627000E872386C0F6FF87C0DC
:10260800F7FFF86A0800F5CFA3F0BF0E866FFF0E3C
:10261800876F82C0D9FF83C0DAFFDECFF6FFDDCF38
:10262800F7FFF86A0800F550886F896B865188278C
:1026380087518923895107E11A0E885DD8B027EFA1
:1026480013F029EF13F043EF13F084C0D9FF85C0CE
:10265800DAFFDFCF86F0040EDE26DFCF87F0000E2C
:10266800DD2286C0D9FF87C0DAFFDECF9CF0DECF3F
:102678009DF0DECF9EF0DECF9FF05BEF13F084C0BD
:10268800D9FF85C0DAFFDFCF86F0040EDE26DFCF64
:1026980087F0000EDD2286C0D9FF87C0DAFFDECFC3
:1026A8009CF0DECF9DF0DECF9EF0DECF9FF0020ED5
:1026B80082C0D9FF83C0DAFFDE26000EDD22C7EF15
:1026C80012F082C0D9FF83C0DAFFDECFF6FFDDCF7C
:1026D800F7FFF86A0800F550750AD8A476EF13F0EA
:1026E80078EF13F0BAEF13F082C0D9FF83C0DAFF96
:1026F800DE2A000EDD2284C0D9FF85C0DAFFDFCFD5
:1027080086F0020EDE26DFCF87F0000EDD2286C0BF
:10271800D9FF87C0DAFFDECF88F0DDCF89F088C027
:1027280094F089C095F00001966B976B986B996B44
:102738009A6B9B6B80C01EF081C01FF094C020F084
:1027480095C021F096C022F097C023F098C024F0DD
:1027580099C025F09AC026F09BC027F0B7EC33F05B
:102768001EC080F01FC081F085EF14F082C0D9FF31
:1027780083C0DAFFDECFF6FFDDCFF7FFF86A080087
:10278800F550780AD8B4CBEF13F0CDEF13F0E0EFA3
:1027980013F082C0D9FF83C0DAFFDECFF6FFDDCFAA
:1027A800F7FFF86A0800F550580AD8A4DEEF13F0CE
:1027B800E0EF13F030EF14F082C0D9FF83C0DAFFE6
:1027C800DECFF6FFDDCFF7FFF86A0800F5CFA3F0FC
:1027D80082C0D9FF83C0DAFFDE2A000EDD2284C062
:1027E800D9FF85C0DAFFDFCF86F0020EDE26DFCF05
:1027F80087F0000EDD2286C0D9FF87C0DAFFDECF62
:1028080088F0DDCF89F088C094F089C095F0000188
:10281800966B976B986B996B9A6B9B6B80C01EF04D
:1028280081C01FF094C020F095C021F096C022F01E
:1028380097C023F098C024F099C025F09AC026F0DC
:102848009BC027F0A3C028F04DEC2FF01EC080F0ED
:102858001FC081F085EF14F082C0D9FF83C0DAFF72
:10286800DECFF6FFDDCFF7FFF86A0800F550250A3E
:10287800D8A441EF14F043EF14F05BEF14F082C0DA
:10288800D9FF83C0DAFFDE2A000EDD22000E046EB7
:10289800250E036E80C005F081C006F0DBEC47F022
:1028A800000E0001816F010E806F85EF14F082C069
:1028B800D9FF83C0DAFFDE2A000EDD22000E0001F8
:1028C800816F000E806F85EF14F082C0D9FF83C03E
:1028D800DAFFDECFF6FFDDCFF7FFF86A0800F55024
:1028E800036E046A80C005F081C006F0DBEC47F097
:1028F80082C0D9FF83C0DAFFDE2A000EDD2254EF42
:1029080014F012009AC1D9FF9BC1DAFFDECFF6FF9F
:10291800DDCFF7FFF86A0800F550250AD8A497EF2D
:1029280014F099EF14F092EF18F09AC1D9FF9BC1F7
:10293800DAFFDE2A000EDD22000E0101D66F000E3E
:10294800D56FD5C1D9F1D6C1DAF1D769D869000EEA
:10295800AB6F000EAA6FF8EF14F0D9819AC1D9FFB6
:102968009BC1DAFFDE2A000EDD22F8EF14F0D983CE
:10297800B2EF14F0D985B2EF14F0D987B2EF14F0A2
:10298800D989B2EF14F0000EAB6F010EAA6FF8EF01
:1029980014F09AC1D9FF9BC1DAFFDECFF6FFDDCF75
:1029A800F7FFF86A0800F5509E6F9F6B9F51000A69
:1029B800D8B4E1EF14F0C7EF14F09E51200AD8B450
:1029C800C1EF14F0030AD8B4C4EF14F0080AD8B45D
:1029D800BEEF14F0060AD8B4B1EF14F01D0AD8B44B
:1029E800BBEF14F0C7EF14F0AA51AB11D8B4FFEF46
:1029F80014F001EF15F0CDEF14F0D9A106EF15F0A2
:102A080008EF15F009EF15F0D9939AC1D9FF9BC1CA
:102A1800DAFFDECFF6FFDDCFF7FFF86A0800F550E2
:102A28002A0AD8A41AEF15F01CEF15F045EF15F097
:102A38009AC1D9FF9BC1DAFFDE2A000EDD229CC1B4
:102A4800D9FF9DC1DAFFDFCF9EF1020EDE26DFCF70
:102A58009FF1000EDD229EC1D9FF9FC1DAFFDECFB4
:102A6800D5F1DDCFD6F1D6BF3EEF15F03CEF15F02E
:102A78007DEF15F0D981D56DD61FD8B0D62B7DEF57
:102A880015F09AC1D9FF9BC1DAFFDECF15F1DDCF72
:102A980016F12BEC3AF015C1D5F116C1D6F15CEF61
:102AA80015F09AC1D9FF9BC1DAFFDE2A000EDD229C
:102AB800D00E01019E6FFF0E9F6F9AC1D9FF9BC177
:102AC800DAFFDECFF6FFDDCFF7FFF86A0800F55032
:102AD800A06FA16B9E51A0279F51A123A15109E18D
:102AE8000A0EA05DD8A07BEF15F07DEF15F055EF2D
:102AF80015F09AC1D9FF9BC1DAFFDECFF6FFDDCF13
:102B0800F7FFF86A0800F5502E0AD8A48EEF15F0E2
:102B180090EF15F003EF16F0000ED86F000ED76F88
:102B28009AC1D9FF9BC1DAFFDE2A000EDD229AC1C5
:102B3800D9FF9BC1DAFFDECFF6FFDDCFF7FFF86ADA
:102B48000800F5502A0AD8A4ACEF15F0AEEF15F03E
:102B5800CBEF15F09AC1D9FF9BC1DAFFDE2A000E30
:102B6800DD229CC1D9FF9DC1DAFFDFCF9EF1020EA5
:102B7800DE26DFCF9FF1000EDD229EC1D9FF9FC167
:102B8800DAFFDECFD7F1DDCFD8F103EF16F09AC127
:102B9800D9FF9BC1DAFFDECF15F1DDCF16F12BECA3
:102BA8003AF015C1D7F116C1D8F1E2EF15F09AC184
:102BB800D9FF9BC1DAFFDE2A000EDD22D00E01010B
:102BC8009E6FFF0E9F6F9AC1D9FF9BC1DAFFDECFC0
:102BD800F6FFDDCFF7FFF86A0800F550A06FA16B8C
:102BE8009E51A0279F51A123A15109E10A0EA05D82
:102BF800D8A001EF16F003EF16F0DBEF15F09AC13D
:102C0800D9FF9BC1DAFFDECFF6FFDDCFF7FFF86A09
:102C18000800F550146F156BBFEC53F00101145107
:102C2800B86FB851D8B41BEF16F01DEF16F059EF76
:102C380016F09AC1D9FF9BC1DAFFDECF9EF1DDCF36
:102C48009FF1010E9E27000E9F239EC1F6FF9FC194
:102C5800F7FFF86A0800F550146F156BBFEC53F0D6
:102C680001011451B96FB951D8B43DEF16F03FEFD7
:102C780016F059EF16F09AC1D9FF9BC1DAFFDECFE3
:102C88009EF1DDCF9FF1020E9E27000E9F239EC16D
:102C9800F6FF9FC1F7FFF86A0800F550146F156B2F
:102CA800BFEC53F001011451BA6F9AC1D9FF9BC10F
:102CB800DAFFDECFF6FFDDCFF7FFF86A0800F55040
:102CC800640AD8B46AEF16F06CEF16F07FEF16F0CE
:102CD8009AC1D9FF9BC1DAFFDECFF6FFDDCFF7FF40
:102CE800F86A0800F550690AD8A47DEF16F07FEF5E
:102CF80016F0BFEF16F09AC1D9FF9BC1DAFFDE2AA2
:102D0800000EDD229CC1D9FF9DC1DAFFDFCF9EF105
:102D1800020EDE26DFCF9FF1000EDD229EC1D9FF15
:102D28009FC1DAFFDECFA2F1DDCFA3F1000EA3BF72
:102D3800FF0EA46FA56FA66FA76FA86FA96F98C1A4
:102D48002BF199C12CF1A2C12DF1A3C12EF1A4C17F
:102D58002FF1A5C130F1A6C131F1A7C132F1A8C147
:102D680033F1A9C134F116EC2BF02BC198F12CC129
:102D780099F1AFEF18F0660EB819D8A4C6EF16F09F
:102D8800C8EF16F009EF17F09AC1D9FF9BC1DAFF17
:102D9800DECFF6FFDDCFF7FFF86A0800F5CFBBF10D
:102DA8009AC1D9FF9BC1DAFFDE2A000EDD229CC141
:102DB800D9FF9DC1DAFFDFCF9EF1040EDE26DFCFFB
:102DC8009FF1000EDD229EC1D9FF9FC1DAFFDECF41
:102DD800B4F1DECFB5F1DECFB6F1DECFB7F198C1F1
:102DE8005AF199C15BF1B4C15CF1B5C15DF1B6C1ED
:102DF8005EF1B7C15FF1BBC160F109EC00F05AC1E7
:102E080098F15BC199F1AFEF18F0B80E0E6F010E93
:102E18000F6FF90E106FFF0E116F000E136F020E79
:102E2800126F62EC45F001010E510F11D8A41FEF8B
:102E380017F021EF17F091EF17F09AC1D9FF9BC156
:102E4800DAFFDECF9EF1DDCF9FF1010E9E27000E47
:102E58009F239EC1F6FF9FC1F7FFF86A0800F5CFD0
:102E6800BBF1BF0E9E6FFF0E9F6F9AC1D9FF9BC12A
:102E7800DAFFDECFF6FFDDCFF7FFF86A0800F5507E
:102E8800A06FA16B9E51A0279F51A123A15107E1DB
:102E98001A0EA05DD8B053EF17F055EF17F06FEF8B
:102EA80017F09CC1D9FF9DC1DAFFDFCF9EF1040E58
:102EB800DE26DFCF9FF1000EDD229EC1D9FF9FC124
:102EC800DAFFDECFB4F1DECFB5F1DECFB6F1DECF7B
:102ED800B7F187EF17F09CC1D9FF9DC1DAFFDFCFAB
:102EE8009EF1040EDE26DFCF9FF1000EDD229EC18B
:102EF800D9FF9FC1DAFFDECFB4F1DECFB5F1DECF67
:102F0800B6F1DECFB7F1020E9AC1D9FF9BC1DAFF45
:102F1800DE26000EDD22F3EF16F09AC1D9FF9BC121
:102F2800DAFFDECFF6FFDDCFF7FFF86A0800F550CD
:102F3800750AD8A4A2EF17F0A4EF17F0E5EF17F081
:102F48009AC1D9FF9BC1DAFFDE2A000EDD229CC19F
:102F5800D9FF9DC1DAFFDFCF9EF1020EDE26DFCF5B
:102F68009FF1000EDD229EC1D9FF9FC1DAFFDECF9F
:102F7800A0F1DDCFA1F1A0C1ACF1A1C1ADF1AE6B63
:102F8800AF6BB06BB16BB26BB36B98C12BF199C1DE
:102F98002CF1ACC12DF1ADC12EF1AEC12FF1AFC1F5
:102FA80030F1B0C131F1B1C132F1B2C133F1B3C1C5
:102FB80034F1B4EC32F02BC198F12CC199F1AFEF98
:102FC80018F09AC1D9FF9BC1DAFFDECFF6FFDDCF3B
:102FD800F7FFF86A0800F550780AD8B4F6EF17F04A
:102FE800F8EF17F00BEF18F09AC1D9FF9BC1DAFF81
:102FF800DECFF6FFDDCFF7FFF86A0800F550580A74
:10300800D8A409EF18F00BEF18F05AEF18F09AC18E
:10301800D9FF9BC1DAFFDECFF6FFDDCFF7FFF86AF5
:103028000800F5CFBBF19AC1D9FF9BC1DAFFDE2AB0
:10303800000EDD229CC1D9FF9DC1DAFFDFCF9EF1D2
:10304800020EDE26DFCF9FF1000EDD229EC1D9FFE2
:103058009FC1DAFFDECFA0F1DDCFA1F1A0C1ACF1B5
:10306800A1C1ADF1AE6BAF6BB06BB16BB26BB36BB3
:1030780098C12BF199C12CF1ACC12DF1ADC12EF144
:10308800AEC12FF1AFC130F1B0C131F1B1C132F1F0
:10309800B2C133F1B3C134F1BBC135F1FAEC2DF053
:1030A8002BC198F12CC199F1AFEF18F09AC1D9FF53
:1030B8009BC1DAFFDECFF6FFDDCFF7FFF86A080025
:1030C800F550250AD8A46BEF18F06DEF18F085EFCE
:1030D80018F09AC1D9FF9BC1DAFFDE2A000EDD2263
:1030E800000E116F250E106F98C112F199C113F1DE
:1030F80010EC47F0000E0101996F010E986FAFEFC9
:1031080018F09AC1D9FF9BC1DAFFDE2A000EDD2232
:10311800000E996F000E986FAFEF18F09AC1D9FFA3
:103128009BC1DAFFDECFF6FFDDCFF7FFF86A0800B4
:10313800F5500101106F116B98C112F199C113F18B
:1031480010EC47F09AC1D9FF9BC1DAFFDE2A000EC6
:10315800DD227EEF18F01200000E01015C6F000EF8
:103168005D6F000E5E6F000E5F6FE7EF1AF0AC98B0
:10317800AC94B89658C1D9FF59C1DAFFDECF0EF129
:10318800DECF0FF1DECF10F1DECF11F1000EB9EC7A
:1031980034F00EC120F10FC121F110C122F111C18B
:1031A80023F1000E01011C6F240E1D6F740E1E6F9B
:1031B8004A0E1F6F20EC24F01CC160F11DC161F1A3
:1031C8001EC162F11FC163F1000E0101206F000EE4
:1031D800216F800E226F420E236F60C11CF161C106
:1031E8001DF162C11EF163C11FF120EC24F01CC166
:1031F80035F11DC136F11EC137F11FC138F1000E7E
:103208000101396F000E3A6F800E3B6FBF0E3C6FA5
:1032180034EC1BF035C15CF136C15DF137C15EF1AC
:1032280038C15FF112EF1BF0AC98AC84B89658C166
:10323800D9FF59C1DAFFDECF0EF1DECF0FF1DECFB5
:1032480010F1DECF11F1000EB9EC34F00EC120F10F
:103258000FC121F110C122F111C123F1000E0101AA
:103268001C6F240E1D6F740E1E6F4A0E1F6F20EC0C
:1032780024F01CC160F11DC161F11EC162F11FC1C2
:1032880063F1000E0101206F000E216F800E226F86
:10329800410E236F60C11CF161C11DF162C11EF1B5
:1032A80063C11FF120EC24F01CC135F11DC136F1BA
:1032B8001EC137F11FC138F1000E0101396F000E30
:1032C8003A6F800E3B6FBF0E3C6F34EC1BF035C17C
:1032D8005CF136C15DF137C15EF138C15FF112EFC3
:1032E8001BF0AC98AC94B88658C1D9FF59C1DAFF25
:1032F800DECF0EF1DECF0FF1DECF10F1DECF11F110
:10330800000EB9EC34F00EC120F10FC121F110C14B
:1033180022F111C123F1000E01011C6F240E1D6F53
:10332800740E1E6F4A0E1F6F20EC24F01CC160F152
:103338001DC161F11EC162F11FC163F1000E0101DF
:10334800206F000E216F800E226F410E236F60C127
:103358001CF161C11DF162C11EF163C11FF120ECB6
:1033680024F01CC135F11DC136F11EC137F11FC152
:1033780038F1000E0101396F000E3A6F800E3B6F75
:10338800BF0E3C6F34EC1BF035C15CF136C15DF10A
:1033980037C15EF138C15FF112EF1BF0AC98AC8415
:1033A800B88658C1D9FF59C1DAFFDECF0EF1DECF9A
:1033B8000FF1DECF10F1DECF11F1000EB9EC34F0D1
:1033C8000EC120F10FC121F110C122F111C123F169
:1033D800000E01011C6F240E1D6F740E1E6F4A0E25
:1033E8001F6F20EC24F01CC160F11DC161F11EC1EA
:1033F80062F11FC163F1000E0101206F000E216F01
:10340800800E226F400E236F60C11CF161C11DF157
:1034180062C11EF163C11FF120EC24F01CC135F11B
:103428001DC136F11EC137F11FC138F1000E01016F
:10343800396F000E3A6F800E3B6FBF0E3C6F34EC55
:103448001BF035C15CF136C15DF137C15EF138C1A1
:103458005FF112EF1BF0AC88B89658C1D9FF59C17B
:10346800DAFFDECF0EF1DECF0FF1DECF10F1DECFC7
:1034780011F1000EB9EC34F00EC120F10FC121F1A9
:1034880010C122F111C123F1000E01011C6F240E9D
:103498001D6F740E1E6F4A0E1F6F20EC24F01CC1A6
:1034A80060F11DC161F11EC162F11FC163F1000E1F
:1034B8000101206F000E216F800E226F400E236FD6
:1034C80060C11CF161C11DF162C11EF163C11FF130
:1034D80020EC24F01CC135F11DC136F11EC137F1B5
:1034E8001FC138F1000E0101396F000E3A6F800ECE
:1034F8003B6FBF0E3C6F34EC1BF035C15CF136C13D
:103508005DF137C15EF138C15FF112EF1BF0AC8895
:10351800B88658C1D9FF59C1DAFFDECF0EF1DECF28
:103528000FF1DECF10F1DECF11F1000EB9EC34F05F
:103538000EC120F10FC121F110C122F111C123F1F7
:10354800000E01011C6F240E1D6F740E1E6F4A0EB3
:103558001F6F20EC24F01CC160F11DC161F11EC178
:1035680062F11FC163F1000E0101206F000E216F8F
:10357800800E226F400E236F60C11CF161C11DF1E6
:1035880062C11EF163C11FF120EC24F01CC135F1AA
:103598001DC136F11EC137F11FC138F1000E0101FE
:1035A800396F000E3A6F800E3B6FBF0E3C6F34ECE4
:1035B8001BF035C15CF136C15DF137C15EF138C130
:1035C8005FF112EF1BF020EE04F05851D926595143
:1035D800DA22DF505A6F5B6B5B51000AD8B4F7EF01
:1035E8001AF012EF1BF05A51000AD8B4BBEF18F0CA
:1035F800010AD8B418EF19F0030AD8B475EF19F016
:10360800010AD8B4D2EF19F0070AD8B42FEF1AF08C
:10361800010AD8B48BEF1AF012EF1BF05CC14EF11F
:103628005DC14FF15EC150F15FC151F11EEC3EF03A
:1036380001014E51AF6E5CC14EF15DC14FF15EC1EB
:1036480050F15FC151F11EEC3EF001014FC14EF146
:1036580050C14FF151C150F1516B4E51B06E120033
:1036680001013851800B416F38513825436F37AF0E
:1036780040EF1BF042EF1BF043EF1BF04381435137
:10368800D8B449EF1BF04BEF1BF060EF1BF0432958
:10369800D8A451EF1BF053EF1BF05BEF1BF0000EAB
:1036A800356F000E366F000E376F000E386F378F8C
:1036B800000E386F68EF1BF0000E356F000E366F86
:1036C800000E376F000E386F3C51800B426F41512E
:1036D8004219D8B472EF1BF074EF1BF075EF1BF0B2
:1036E800418D3C513C25426F3BAF7DEF1BF07FEF96
:1036F8001BF080EF1BF042814251D8B486EF1BF0DB
:1037080088EF1BF09DEF1BF04229D8A48EEF1BF029
:1037180090EF1BF098EF1BF0000E396F000E3A6F18
:10372800000E3B6F000E3C6F3B8F000E3C6FA5EF09
:103738001BF0000E396F000E3A6F000E3B6F000E43
:103748003C6F4351425DD8B0ACEF1BF0AEEF1BF0BD
:10375800D5EF1BF041ADB3EF1BF0B5EF1BF0B7EFA2
:103768001BF0800E411B43C144F142C143F144C1E7
:1037780042F135C144F139C135F144C139F136C19D
:1037880044F13AC136F144C13AF137C144F13BC181
:1037980037F144C13BF138C144F13CC138F144C16F
:1037A8003CF1000E446F435142C13DF13E6B3D5F19
:1037B800000E3E5B3EBFEAEF1BF03E5109E11A0ED8
:1037C8003D5DD8A0EAEF1BF0ECEF1BF023EF1CF0F7
:1037D8003551361137113811D8A4F5EF1BF0F8EF31
:1037E8001BF0010EF9EF1BF0000E446F000E356F51
:1037F800000E366F000E376F000E386F42C143F16E
:103808002CEF1CF044A10BEF1CF00DEF1CF013EF94
:103818001CF0D89044310109446F15EF1CF0D89082
:10382800443335A11AEF1CF01CEF1CF01DEF1CF0FF
:10383800448F38353833373336333533432B425199
:10384800435DD8A02AEF1CF02CEF1CF006EF1CF00B
:1038580041BD31EF1CF033EF1CF073EF1CF0435106
:10386800D8A439EF1CF03BEF1CF045EF1CF0000E1C
:10387800356F000E366F000E376F000E386F94EFFD
:103888001DF0395135273A5136233B5137233C51E6
:10389800382338A152EF1CF054EF1CF000EF1DF054
:1038A80044A159EF1CF05BEF1CF061EF1CF0D890BD
:1038B80044310109446F63EF1CF0D890443335A1BB
:1038C80068EF1CF06AEF1CF06BEF1CF0448F383582
:1038D8003833373336333533432B00EF1DF0395146
:1038E800355D3A5136593B5137593851800A3D6F49
:1038F8003C51800A3D59D8B084EF1CF086EF1CF08B
:10390800B1EF1CF03551395D3D6F36513A593E6F74
:1039180037513B593F6F38513C59406FFF0E3D2599
:10392800356FFF0E3E21366FFF0E3F21376FFF0EBA
:103938004021386F800E411B446D4451D8A4A7EF35
:103948001CF0A9EF1CF0B9EF1CF0010E3527000E92
:10395800362337233823B9EF1CF03951355F3A51F4
:10396800365B3B51375B3C51385B3551361137116B
:103978003811D8A4C2EF1CF0C4EF1CF0F9EF1CF00A
:103988004451D8A4CAEF1CF0CCEF1CF0F9EF1CF09E
:10399800000E356F000E366F000E376F000E386F51
:1039A80094EF1DF0D890353736373737383744AF6E
:1039B800E0EF1CF0E2EF1CF0E3EF1CF0358144A1CE
:1039C800E8EF1CF0EAEF1CF0EEEF1CF0D88044376B
:1039D800F0EF1CF0D89044374351D8B4F6EF1CF000
:1039E800F8EF1CF0F9EF1CF0430737AFFEEF1CF0BF
:1039F80000EF1DF0D6EF1CF0000E426F44AF07EF4A
:103A08001DF009EF1DF021EF1DF044C13DF17F0EBF
:103A18003D17D8B412EF1DF014EF1DF018EF1DF08C
:103A2800010E426F21EF1DF035A11DEF1DF01FEFB4
:103A38001DF021EF1DF014EF1DF04251D8B427EF0F
:103A48001DF029EF1DF054EF1DF0010E3527000E73
:103A580036233723382338A134EF1DF036EF1DF015
:103A680054EF1DF035C13DF136C13EF137C13FF18C
:103A780038C140F1403540333F333E333D333DC1DB
:103A880035F13EC136F13FC137F140C138F1432924
:103A9800D8B451EF1DF053EF1DF054EF1DF0432B38
:103AA8004329D8B45AEF1DF05CEF1DF064EF1DF008
:103AB8004351D8A462EF1DF064EF1DF076EF1DF0BE
:103AC800000E356F000E366F000E376F000E386F20
:103AD8004351D8A472EF1DF074EF1DF076EF1DF07E
:103AE800000E416F43A17BEF1DF07DEF1DF080EFCD
:103AF8001DF0378F81EF1DF0379FD8904331386F15
:103B080041AF89EF1DF08BEF1DF08CEF1DF0388F62
:103B180035C135F136C136F137C137F138C138F121
:103B280012000450800B0D6E045004240F6E03AE77
:103B3800A0EF1DF0A2EF1DF0A3EF1DF00F800F50B6
:103B4800D8B4A9EF1DF0ABEF1DF0C0EF1DF00F28A2
:103B5800D8A4B1EF1DF0B3EF1DF0BBEF1DF0000EC0
:103B6800016E000E026E000E036E000E046E038ED0
:103B7800000E046EC8EF1DF0000E016E000E026EFE
:103B8800000E036E000E046E0850800B0E6E0D5072
:103B98000E18D8B4D2EF1DF0D4EF1DF0D5EF1DF0FC
:103BA8000D8C085008240E6E07AEDDEF1DF0DFEF18
:103BB8001DF0E0EF1DF00E800E50D8B4E6EF1DF0BA
:103BC800E8EF1DF0FDEF1DF00E28D8A4EEEF1DF074
:103BD800F0EF1DF0F8EF1DF0000E056E000E066EFA
:103BE800000E076E000E086E078E000E086E05EFB9
:103BF8001EF0000E056E000E066E000E076E000E1B
:103C0800086E0F500E5CD8B00CEF1EF00EEF1EF0D1
:103C180035EF1EF00DAC13EF1EF015EF1EF017EF89
:103C28001EF0800E0D1A0FC010F00EC00FF010C05D
:103C38000EF001C010F005C001F010C005F002C080
:103C480010F006C002F010C006F003C010F007C064
:103C580003F010C007F004C010F008C004F010C052
:103C680008F0000E106E0F500EC009F00A6A095EC7
:103C7800000E0A5A0ABE4AEF1EF00A5009E11A0E4F
:103C8800095CD8A04AEF1EF04CEF1EF083EF1EF03F
:103C98000150021003100410D8A455EF1EF058EF7D
:103CA8001EF0010E59EF1EF0000E106E000E016E90
:103CB800000E026E000E036E000E046E0EC00FF0B2
:103CC8008CEF1EF010A06BEF1EF06DEF1EF073EF7F
:103CD8001EF0D89010300109106E75EF1EF0D890C4
:103CE800103201A07AEF1EF07CEF1EF07DEF1EF07F
:103CF800108E043404320332023201320F2A0E507D
:103D08000F5CD8A08AEF1EF08CEF1EF066EF1EF055
:103D18000DBC91EF1EF093EF1EF0D3EF1EF00F5085
:103D2800D8A499EF1EF09BEF1EF0A5EF1EF0000E31
:103D3800016E000E026E000E036E000E046EF4EFAC
:103D48001FF0055001260650022207500322085092
:103D5800042204A0B2EF1EF0B4EF1EF060EF1FF0D3
:103D680010A0B9EF1EF0BBEF1EF0C1EF1EF0D89007
:103D780010300109106EC3EF1EF0D890103201A068
:103D8800C8EF1EF0CAEF1EF0CBEF1EF0108E043401
:103D980004320332023201320F2A60EF1FF005505D
:103DA800015C06500258075003580450800A096EF7
:103DB8000850800A0958D8B0E4EF1EF0E6EF1EF06C
:103DC80011EF1FF00150055C096E025006580A6E8B
:103DD800035007580B6E045008580C6EFF0E092448
:103DE800016EFF0E0A20026EFF0E0B20036EFF0EFF
:103DF8000C20046E800E0D1A106C1050D8A407EF1A
:103E08001FF009EF1FF019EF1FF0010E0126000E39
:103E180002220322042219EF1FF00550015E06500A
:103E2800025A0750035A0850045A0150021003104E
:103E38000410D8A422EF1FF024EF1FF059EF1FF051
:103E48001050D8A42AEF1FF02CEF1FF059EF1FF0E5
:103E5800000E016E000E026E000E036E000E046E60
:103E6800F4EF1FF0D890013602360336043610AE50
:103E780040EF1FF042EF1FF043EF1FF0018010A04A
:103E880048EF1FF04AEF1FF04EEF1FF0D8801036B2
:103E980050EF1FF0D89010360F50D8B456EF1FF0DF
:103EA80058EF1FF059EF1FF00F0603AE5EEF1FF03B
:103EB80060EF1FF036EF1FF0000E0E6E10AE67EFCA
:103EC8001FF069EF1FF081EF1FF010C009F07F0E9F
:103ED8000916D8B472EF1FF074EF1FF078EF1FF0D7
:103EE800010E0E6E81EF1FF001A07DEF1FF07FEF36
:103EF8001FF081EF1FF074EF1FF00E50D8B487EF5A
:103F08001FF089EF1FF0B4EF1FF0010E0126000E1D
:103F180002220322042204A094EF1FF096EF1FF060
:103F2800B4EF1FF001C009F002C00AF003C00BF0A3
:103F380004C00CF00C340C320B320A32093209C0BE
:103F480001F00AC002F00BC003F00CC004F00F2807
:103F5800D8B4B1EF1FF0B3EF1FF0B4EF1FF00F2A82
:103F68000F28D8B4BAEF1FF0BCEF1FF0C4EF1FF052
:103F78000F50D8A4C2EF1FF0C4EF1FF0D6EF1FF008
:103F8800000E016E000E026E000E036E000E046E2F
:103F98000F50D8A4D2EF1FF0D4EF1FF0D6EF1FF0C8
:103FA800000E0D6E0FA0DBEF1FF0DDEF1FF0E0EF4E
:103FB8001FF0038EE1EF1FF0039ED8900F30046EC0
:103FC8000DAEE9EF1FF0EBEF1FF0ECEF1FF0048EE2
:103FD80001C001F002C002F003C003F004C004F005
:103FE800120001013851800B416F38513825476F55
:103FF80037AF01EF20F003EF20F004EF20F0478106
:104008004751D8B40AEF20F00CEF20F01FEF20F052
:104018004729D8A412EF20F014EF20F01CEF20F06D
:10402800000E356F000E366F000E376F000E386FBA
:10403800378F27EF20F0000E356F000E366F000E19
:10404800376F000E386F3C51800B411B3C513C25AB
:10405800466F3BAF32EF20F034EF20F035EF20F021
:1040680046814651D8B43BEF20F03DEF20F050EFA9
:1040780020F04629D8A443EF20F045EF20F04DEF7B
:1040880020F0000E396F000E3A6F000E3B6F000EE5
:104098003C6F3B8F58EF20F0000E396F000E3A6FDF
:1040A800000E3B6F000E3C6F4651D8B45EEF20F017
:1040B80060EF20F068EF20F04751D8A466EF20F0B9
:1040C80068EF20F072EF20F0000E356F000E366FAB
:1040D800000E376F000E386F0AEF22F03B513503A0
:1040E800F3CF4CF1F4CF4DF14C51426F436B446B1D
:1040F800456B4D51486F496B4A6B4B6B3A513603D0
:10410800F3CF4CF1F4CF4DF14C514227000E43232D
:10411800442345234D514827000E49234A234B2366
:1041280039513703F3CF4CF1F4CF4DF14C514227BD
:10413800000E4323442345234D514827000E4923AD
:104148004A234B2344C145F143C144F142C143F1E1
:10415800426B39513603F3CF4CF1F4CF4DF14C514A
:1041680042274D514323000E4423000E45233A5164
:104178003503F3CF4CF1F4CF4DF14C5142274D515B
:104188004323000E4423000E452344C145F143C197
:1041980044F142C143F1426B39513503F3CF4CF13D
:1041A800F4CF4DF14C5142274D514323000E442387
:1041B800000E45233B513603F3CF4CF1F4CF4DF1BC
:1041C8004C5148274D514923000E4A23000E4B23DA
:1041D8003A513703F3CF4CF1F4CF4DF14C51482706
:1041E8004D514923000E4A23000E4B233B51370300
:1041F800F3CF4CF1F4CF4DF14C513D6F4D513E6F23
:104208003F6B406B3FC140F13EC13FF13DC13EF1C4
:104218003D6B3D5148273E5149233F514A23405168
:104228004B2342C13DF143C13EF144C13FF145C179
:1042380040F1190E25EF21F0D89040333F333E333B
:104248003D33E82E20EF21F03D5148273E514923C8
:104258003F514A2340514B2344C145F143C144F1E6
:1042680042C143F1426B465147C13DF13E6B3D2788
:10427800000E3E23820E3D254C6FFF0E3E214D6FF2
:104288005BEF21F0D890483749374A374B3745AF6D
:1042980050EF21F052EF21F053EF21F04881D890F0
:1042A80042374337443745374C07D8A04D074AAF04
:1042B80060EF21F062EF21F046EF21F0000E466F2B
:1042C80045AF69EF21F06BEF21F08FEF21F0FF0E82
:1042D80042153D6FFF0E43153E6FFF0E44153F6FAD
:1042E8007F0E4515406F3D513E113F114011D8B426
:1042F80080EF21F082EF21F086EF21F0010E466F6A
:104308008FEF21F048A18BEF21F08DEF21F08FEF97
:1043180021F082EF21F04651D8B495EF21F097EFC4
:1043280021F0BBEF21F0010E4827000E49234A2354
:104338004B234BA1A2EF21F0A4EF21F0BBEF21F01A
:1043480048C13DF149C13EF14AC13FF14BC140F17D
:10435800403540333F333E333D333DC148F13EC1E4
:1043680049F13FC14AF140C14BF14C4B4D2B4DBF78
:10437800C6EF21F04D5108E14C29D8A0C6EF21F035
:10438800C8EF21F0D2EF21F0000E486F000E496F00
:10439800800E4A6F7F0E4B6F00EF22F04DBFDFEFAC
:1043A80021F04D5106E14C05D8B0DDEF21F0DFEFEB
:1043B80021F0EBEF21F0000E486F000E496F000E60
:1043C8004A6F000E4B6F000E416F00EF22F04CC198
:1043D80047F1FF0E4817FF0E49177F0E4A17000EC8
:1043E8004B1747A1FAEF21F0FCEF21F0FDEF21F088
:1043F8004A8FD89047314B6F41514B1348C135F123
:1044080049C136F14AC137F14BC138F112001C508D
:10441800800B256E1C501C242B6E1BAE16EF22F051
:1044280018EF22F019EF22F02B802B50D8B41FEF91
:1044380022F021EF22F034EF22F02B28D8A427EF26
:1044480022F029EF22F031EF22F0000E196E000E53
:104458001A6E000E1B6E000E1C6E1B8E3CEF22F0B7
:10446800000E196E000E1A6E000E1B6E000E1C6EEA
:104478002050800B251A205020242A6E1FAE47EFAB
:1044880022F049EF22F04AEF22F02A802A50D8B4CD
:1044980050EF22F052EF22F065EF22F02A28D8A43C
:1044A80058EF22F05AEF22F062EF22F0000E1D6E54
:1044B800000E1E6E000E1F6E000E206E1F8E6DEF1A
:1044C80022F0000E1D6E000E1E6E000E1F6E000EF6
:1044D800206E2A50D8B473EF22F075EF22F07DEFEA
:1044E80022F02B50D8A47BEF22F07DEF22F087EF4B
:1044F80022F0000E196E000E1A6E000E1B6E000ED2
:104508001C6E1FEF24F01F501902F3CF30F0F4CFC8
:1045180031F03050266E276A286A296A31502C6E8D
:104528002D6A2E6A2F6A1E501A02F3CF30F0F4CF8C
:1045380031F030502626000E272228222922315019
:104548002C26000E2D222E222F221D501B02F3CFC7
:1045580030F0F4CF31F030502626000E27222822E2
:10456800292231502C26000E2D222E222F2228C03F
:1045780029F027C028F026C027F0266A1D501A0205
:10458800F3CF30F0F4CF31F03050262631502722C7
:10459800000E2822000E29221E501902F3CF30F0F7
:1045A800F4CF31F03050262631502722000E282231
:1045B800000E292228C029F027C028F026C027F09D
:1045C800266A1D501902F3CF30F0F4CF31F0305085
:1045D800262631502722000E2822000E29221F509D
:1045E8001A02F3CF30F0F4CF31F030502C2631508E
:1045F8002D22000E2E22000E2F221E501B02F3CF5A
:1046080030F0F4CF31F030502C2631502D22000EEE
:104618002E22000E2F221F501B02F3CF30F0F4CFB2
:1046280031F03050216E3150226E236A246A23C043
:1046380024F022C023F021C022F0216A21502C2628
:1046480022502D2223502E2224502F2226C021F022
:1046580027C022F028C023F029C024F0190E3AEF11
:1046680023F0D8902432233222322132E82E35EF3B
:1046780023F021502C2622502D2223502E22245064
:104688002F2228C029F027C028F026C027F0266A44
:104698002A502BC021F0226A2126000E2222820EE7
:1046A8002124306EFF0E2220316E70EF23F0D89057
:1046B8002C362D362E362F3629AE65EF23F067EFD0
:1046C80023F068EF23F02C80D8902636273628363A
:1046D80029363006D8A031062EAE75EF23F077EFD5
:1046E80023F05BEF23F0000E2A6E29AE7EEF23F055
:1046F80080EF23F0A4EF23F0FF0E2614216EFF0EA7
:104708002714226EFF0E2814236E7F0E2914246EA0
:104718002150221023102410D8B495EF23F097EFDE
:1047280023F09BEF23F0010E2A6EA4EF23F02CA0B8
:10473800A0EF23F0A2EF23F0A4EF23F097EF23F0EC
:104748002A50D8B4AAEF23F0ACEF23F0D0EF23F02F
:10475800010E2C26000E2D222E222F222FA0B7EF7D
:1047680023F0B9EF23F0D0EF23F02CC021F02DC0B7
:1047780022F02EC023F02FC024F024342432233218
:104788002232213221C02CF022C02DF023C02EF07D
:1047980024C02FF0304A312A31BEDBEF23F03150EC
:1047A80008E13028D8A0DBEF23F0DDEF23F0E7EFB6
:1047B80023F0000E2C6E000E2D6E800E2E6E7F0ED6
:1047C8002F6E15EF24F031BEF4EF23F0315006E1DF
:1047D8003004D8B0F2EF23F0F4EF23F000EF24F028
:1047E800000E2C6E000E2D6E000E2E6E000E2F6E1B
:1047F800000E256E15EF24F030C02BF0FF0E2C169E
:10480800FF0E2D167F0E2E16000E2F162BA00FEF63
:1048180024F011EF24F012EF24F02E8ED8902B30D4
:104828002F6E25502F122CC019F02DC01AF02EC053
:104838001BF02FC01CF0120001011F51800B2C6FC0
:104848001F511F25336F1EAF2CEF24F02EEF24F0DD
:104858002FEF24F033813351D8B435EF24F037EFFC
:1048680024F04CEF24F03329D8A43DEF24F03FEF97
:1048780024F047EF24F0000E1C6F000E1D6F000E91
:104888001E6F000E1F6F1E8F000E1F6F54EF24F057
:10489800000E1C6F000E1D6F000E1E6F000E1F6FA6
:1048A8002351800B2C1B23512325346F22AF5FEF3C
:1048B80024F061EF24F062EF24F034813451D8B44D
:1048C80068EF24F06AEF24F07FEF24F03429D8A4AD
:1048D80070EF24F072EF24F07AEF24F0000E206FCE
:1048E800000E216F000E226F000E236F228F000E24
:1048F800236F87EF24F0000E206F000E216F000E4B
:10490800226F000E236F2051211122112311D8A4E8
:1049180090EF24F092EF24F0AAEF24F0000E1C6F21
:10492800000E1D6F000E1E6F000E1F6F800E1E13EF
:104938007F0E1F132C511F131CC11CF11DC11DF12B
:104948001EC11EF11FC11FF1EDEF25F03351D8A490
:10495800B0EF24F0B2EF24F0BCEF24F0000E1C6F8F
:10496800000E1D6F000E1E6F000E1F6FEDEF25F07D
:10497800345133C124F1256B245F000E255B7F0E73
:1049880024252D6F000E25212E6F1CC128F11DC175
:1049980029F11EC12AF11FC12BF1000E1C6F000E58
:1049A8001D6F000E1E6F000E1F6F000E2F6F000E82
:1049B800306F000E316F000E326F000E346F1DEF36
:1049C80025F03451D8B4EBEF24F0EDEF24F004EFE8
:1049D80025F0D890283729372A372B37D8901C3715
:1049E8001D371E371F3732AFFCEF24F0FEEF24F0DF
:1049F800FFEF24F01C81D8902F373037313732370A
:104A08002051285D2151295922512A5923512B59C6
:104A1800D8A011EF25F013EF25F01CEF25F0328D0B
:104A28002051285F2151295B22512A5B23512B5B9E
:104A3800342B190E346523EF25F025EF25F0E5EF2B
:104A480024F0285129112A112B11D8B42EEF25F062
:104A580030EF25F048EF25F02F8148EF25F0D8906A
:104A68001C371D371E371F3732AF3DEF25F03FEF9C
:104A780025F040EF25F01C81D8902F37303731379B
:104A880032372D07D8A02E071EAF4DEF25F04FEF78
:104A980025F033EF25F0000E346F32AF56EF25F0D6
:104AA80058EF25F07CEF25F0FF0E2F15246FFF0E31
:104AB8003015256FFF0E3115266F7F0E3215276FC3
:104AC8002451251126112711D8B46DEF25F06FEF69
:104AD80025F073EF25F0010E346F7CEF25F01CA153
:104AE80078EF25F07AEF25F07CEF25F06FEF25F0D1
:104AF8003451D8B482EF25F084EF25F0A8EF25F0E3
:104B0800010E1C27000E1D231E231F231FA18FEF3C
:104B180025F091EF25F0A8EF25F01CC124F11DC167
:104B280025F11EC126F11FC127F12735273326336A
:104B38002533243324C11CF125C11DF126C11EF1E2
:104B480027C11FF12D4B2E2B2EBFB3EF25F02E5171
:104B580008E12D29D8A0B3EF25F0B5EF25F0C0EF77
:104B680025F0000E2E6F2D69000E1C6F000E1D6FB4
:104B7800000E1E6F000E1F6F2EBFCDEF25F02E51B9
:104B880006E12D05D8B0CBEF25F0CDEF25F0DBEF12
:104B980025F0000E2E6F000E2D6F000E1C6F000EFC
:104BA8001D6F000E1E6F000E1F6F000E2C6F2DC1A3
:104BB80033F133A1E2EF25F0E4EF25F0E7EF25F03C
:104BC8001E8FE8EF25F01E9FD89033311F6F9EEFA0
:104BD80024F012000450800B116E04500424186E47
:104BE80003AEF9EF25F0FBEF25F0FCEF25F0188078
:104BF8001850D8B402EF26F004EF26F019EF26F08B
:104C08001828D8A40AEF26F00CEF26F014EF26F0A7
:104C1800000E016E000E026E000E036E000E046E92
:104C2800038E000E046E21EF26F0000E016E000EBA
:104C3800026E000E036E000E046E0850800B111AEF
:104C480008500824196E07AE2CEF26F02EEF26F038
:104C58002FEF26F019801950D8B435EF26F037EF2A
:104C680026F04CEF26F01928D8A43DEF26F03FEFA8
:104C780026F047EF26F0000E056E000E066E000EB9
:104C8800076E000E086E078E000E086E54EF26F0B1
:104C9800000E056E000E066E000E076E000E086E02
:104CA8000550061007100810D8A45DEF26F05FEF36
:104CB80026F077EF26F0000E016E000E026E000E51
:104CC800036E000E046E800E03127F0E0412115044
:104CD800041201C001F002C002F003C003F004C0D6
:104CE80004F0BAEF27F01850D8A47DEF26F07FEF34
:104CF80026F089EF26F0000E016E000E026E000EFF
:104D0800036E000E046EBAEF27F0195018C009F0B0
:104D18000A6A095E000E0A5A7F0E0924126E000EF6
:104D28000A20136E01C00DF002C00EF003C00FF090
:104D380004C010F0000E016E000E026E000E036E2D
:104D4800000E046E000E146E000E156E000E166E28
:104D5800000E176E000E196EEAEF26F01950D8B43F
:104D6800B8EF26F0BAEF26F0D1EF26F0D8900D363E
:104D78000E360F361036D890013602360336043612
:104D880017AEC9EF26F0CBEF26F0CCEF26F0018066
:104D9800D890143615361636173605500D5C065061
:104DA8000E5807500F5808501058D8A0DEEF26F0BC
:104DB800E0EF26F0E9EF26F0178C05500D5E06505F
:104DC8000E5A07500F5A0850105A192A190E19640A
:104DD800F0EF26F0F2EF26F0B2EF26F00D500E10AD
:104DE8000F101010D8B4FBEF26F0FDEF26F015EFEA
:104DF80027F0148015EF27F0D890013602360336D5
:104E0800043617AE0AEF27F00CEF27F00DEF27F066
:104E18000180D89014361536163617361206D8A0E3
:104E2800130603AE1AEF27F01CEF27F000EF27F068
:104E3800000E196E17AE23EF27F025EF27F049EF84
:104E480027F0FF0E1414096EFF0E15140A6EFF0EDC
:104E580016140B6E7F0E17140C6E09500A100B10E7
:104E68000C10D8B43AEF27F03CEF27F040EF27F0CA
:104E7800010E196E49EF27F001A045EF27F047EF23
:104E880027F049EF27F03CEF27F01950D8B44FEF3F
:104E980027F051EF27F075EF27F0010E0126000EDD
:104EA80002220322042204A05CEF27F05EEF27F021
:104EB80075EF27F001C009F002C00AF003C00BF03B
:104EC80004C00CF00C340C320B320A32093209C01F
:104ED80001F00AC002F00BC003F00CC004F0124A43
:104EE800132A13BE80EF27F0135008E11228D8A028
:104EF80080EF27F082EF27F08DEF27F0000E136E7A
:104F08001268000E016E000E026E000E036E000E97
:104F1800046E13BE9AEF27F0135006E11204D8B0BE
:104F280098EF27F09AEF27F0A8EF27F0000E136EFE
:104F3800000E126E000E016E000E026E000E036E61
:104F4800000E046E000E116E12C018F018A0AFEF1C
:104F580027F0B1EF27F0B4EF27F0038EB5EF27F075
:104F6800039ED8901830046E6BEF26F012000CECFC
:104F78000CF002011C51D8B4C4EF27F0C6EF27F09B
:104F880077EF29F00D0E0301006FFE0E016F99EC0B
:104F980057F0F3EF27F0450E0301006FFE0E016F87
:104FA80099EC57F00EEF28F0250E0301006FFF0E65
:104FB800016F99EC57F00EEF28F0720E0301006FA5
:104FC800FF0E016F99EC57F00EEF28F0BD0E0301AC
:104FD800006FFE0E016F99EC57F00EEF28F00201FA
:104FE80001510101C66FC76BC751000AD8B4FFEF62
:104FF80027F0EAEF27F0C651000AD8B4D8EF27F017
:10500800010AD8B4CFEF27F0030AD8B4E1EF27F0AC
:10501800EAEF27F00B0E0101C76F260EC66F5D0E73
:10502800E82EFED7C62FFCD7C72FFAD700D0AD0E73
:105038000301006FFE0E016F12C202F313C203F3E5
:1050480099EC57F04C0E0301006FFF0E016F14C26C
:1050580002F315C203F316C204F317C205F399EC61
:1050680057F00B0E0101C76F260EC66F5D0EE82EB6
:10507800FED7C62FFCD7C72FFAD700D07B0E030167
:10508800006FFE0E016F00C202F3036B99EC57F03C
:10509800FA0E0301006FFE0E016F02C202F3036BEA
:1050A80099EC57F00B0E0101C76F260EC66F5D0E07
:1050B800E82EFED7C62FFCD7C72FFAD700D0DC0EB4
:1050C8000301006FFE0E016F020104510301026F1C
:1050D800036B020103510301046F056B99EC57F050
:1050E80005C2CEF106C2CFF107C2D0F108C2D1F194
:1050F80009C2D2F1570E0301006FFE0E016FD2C133
:1051080002F3036BD1C104F3056BD0C106F3076B3F
:10511800CFC108F3096BCEC10AF30B6B99EC57F0BA
:105128000B0E0101C76F260EC66F5D0EE82EFED767
:10513800C62FFCD7C72FFAD700D0320E0301006F55
:10514800FF0E016F0AC2C6F10101C63B0F0EC6175A
:105158000F0EC617C6510301026F036B0AC2C7F1CF
:105168000F0E0101C717C7510301046F056B99ECB6
:1051780057F0960E0301006FFF0E016F0DC202F388
:105188000EC203F3046B056B99EC57F0040E030190
:10519800006FFF0E016F22EE0BF0FF0EDE14026FA0
:1051A800FF0EDE14036F000EDE14046F000EDE1413
:1051B800056F99EC57F00B0E0101C76F260EC66FED
:1051C8005D0EE82EFED7C62FFCD7C72FFAD700D022
:1051D800D00E0101C66F070EC76F22EE0FF0DECFAB
:1051E800C8F1DDCFC9F1040ECA6FD890C933C833EE
:1051F800CA2FF9EF28F0C851C625CB6F000EC7217A
:10520800CC6F02010F510F0B0101CD6F3F0E03014F
:10521800006FFF0E016FCDC102F3036BCBC104F326
:10522800CCC105F399EC57F0AD0E0301006FFF0EEA
:10523800016F11C202F3036B99EC57F00B0E0101D9
:10524800C76F260EC66F5D0EE82EFED7C62FFCD799
:10525800C72FFAD700D0170E0301006FFF0E016F9A
:1052680099EC57F0CD0E0301006FFF0E016F18C2C5
:1052780002F319C203F31AC204F31BC205F399EC33
:1052880057F00B0E0101C76F260EC66F5D0EE82E94
:10529800FED7C62FFCD7C72FFAD700D0690E030157
:1052A800006FFE0E016F99EC57F0D50E0301006FE9
:1052B800FF0E016F14C202F315C203F316C204F302
:1052C80017C205F399EC57F00B0E0101C76F260EB4
:1052D800C66F5D0EE82EFED7C62FFCD7C72FFAD7AC
:1052E80000D07EEF29F0330E0301006FFE0E016F30
:1052F80099EC57F012001E6E200E52EC58F0010E79
:1053080052EC58F01F0E1E648CEF29F08EEF29F036
:1053180096EF29F07E0E1E6494EF29F096EF29F09F
:1053280098EF29F03F0E1E6E0950D8B49EEF29F071
:10533800A0EF29F0A8EF29F0040E0964A6EF29F0E0
:10534800A8EF29F0AAEF29F0010E096E000E176EDA
:10535800BDEF29F009C001F07E50F0EC56F0E806E8
:10536800D8B4B9EF29F0BBEF29F0DAEF29F07E2A9B
:10537800172AFF0E0A6EFF0E0B6E09500C6E0D6A8F
:105388000A500C260B500D2217500E6E0F6A0C5047
:105398000E5C0F50800A106E0D50800A1058D8A06D
:1053A800D8EF29F0DAEF29F0AEEF29F0150E7E6478
:1053B800E0EF29F0E2EF29F0EFEF29F0010E7E6E21
:1053C8000101E951D8B4EBEF29F0EDEF29F0EFEF47
:1053D80029F00950EA27210E52EC58F07E04060DF8
:1053E800F35052EC58F00950050DF3CF0AF07E50F7
:1053F800060DF3500A24F90F52EC58F0220E52EC25
:1054080058F00101EA0552EC58F009500101EA256B
:10541800FE0F52EC58F071EC58F00101E451E7EC42
:1054280058F0400E61EC52F0000E1D6E7FC211F074
:1054380080C212F081C213F082C214F0530E1E60B3
:1054480028EF2AF02AEF2AF045EF2AF01E50E00F45
:10545800050DF3CF1AF0250E0A6EFB0E0B6E1A50CF
:105468000A26000E0B221D500A26000E0B220AC027
:10547800F6FF0BC0F7FFF86A0800F5CF19F05EEFEA
:105488002AF01E50AD0F050DF3CF1AF0240E0A6E48
:10549800FC0E0B6E1A500A26000E0B221D500A260F
:1054A800000E0B220AC0F6FF0BC0F7FFF86A0800CF
:1054B800F5CF19F00904D8A464EF2AF066EF2AF0B2
:1054C8006BEF2AF0195061EC52F0EDEF2AF0000E64
:1054D8001F6E1FC00AF0010E0B6E0A2A76EF2AF023
:1054E800D8900B360A2E74EF2AF00B5019140009C5
:1054F800D8B481EF2AF083EF2AF0BFEF2AF0000E2C
:105508001C6EB6EF2AF01F500902F3501C24070B3B
:10551800156E1F500902F3CF0AF0F4CF0BF01C50A0
:105528000A24016E000E0B20026E000E046E080E97
:10553800036E06EC49F00150166E15C00AF0010E14
:105548000B6E0A2AAAEF2AF0D8900B360A2EA8EF7B
:105558002AF0110E1624D96EDA6A000EDA220B50E0
:10556800DF121C2A09501C5CD8A0BDEF2AF0BFEF3F
:105578002AF087EF2AF01F2A070E1F64C6EF2AF0C9
:10558800C8EF2AF06DEF2AF0000E186EE4EF2AF04B
:10559800000E1B6EDAEF2AF0110E1B24D96EDA6AA0
:1055A800000EDA22DF5061EC52F01B2A09501B5C16
:1055B800D8A0E1EF2AF0E3EF2AF0D0EF2AF0182A7A
:1055C8000950185CD8A0EBEF2AF0EDEF2AF0CCEFE9
:1055D8002AF01D2A040E1D64F4EF2AF0F6EF2AF0D3
:1055E8001AEF2AF031EC58F009507E26150E7E6429
:1055F80000EF2BF002EF2BF00FEF2BF0010E7E6E79
:105608000101E951D8B40BEF2BF00DEF2BF00FEFA0
:105618002BF00950EA27200E52EC58F0000E52ECFD
:1056280058F012002DC145F12EC146F12FC147F1A6
:1056380030C148F131C149F132C14AF133C14BF1AE
:1056480034C14CF101014CBF2CEF2BF02FEF2BF0A4
:10565800010E30EF2BF0000E436F446B43514411A1
:10566800D8B439EF2BF03BEF2BF04BEF2BF04C1F5E
:105678004B1F4A1F491F481F471F461F456D000EF5
:1056880046234723482349234A234B234C23D8BF87
:1056980050EF2BF052EF2BF053EF2BF0D993D8BFEC
:1056A80060EF2BF0D85106E1D705D8B05EEF2BF0AC
:1056B80060EF2BF066EF2BF0000E406F010E3F6F8E
:1056C8006AEF2BF0D7C13FF1D8C140F1D5C141F104
:1056D800D6C142F143514411D8A475EF2BF077EFAE
:1056E8002BF07EEF2BF0D9A57CEF2BF07EEF2BF083
:1056F80081EF2BF04107D8A04207000E4E6F4F0EE6
:105708004D6F000E0201DE6F07EF2CF04D07D8A099
:105718004E078F0E4D25D96E020E4E21DA6E45C109
:105728000EF146C10FF147C110F148C111F149C14D
:1057380012F14AC113F14BC114F14CC115F10A0E13
:10574800166F000E176F000E186F000E196F000EFF
:105758001A6F000E1B6F000E1C6F000E1D6F78EC89
:1057680039F00EC135F10FC136F110C137F111C151
:1057780038F112C139F113C13AF114C13BF115C125
:105788003CF135C120F137C121F13DEC55F0010163
:105798002051300FDF6E3F07D8A040074107D8A03F
:1057A800420745C10EF146C10FF147C110F148C18A
:1057B80011F149C112F14AC113F14BC114F14CC1A5
:1057C80015F10A0E166F000E176F000E186F000EF7
:1057D800196F000E1A6F000E1B6F000E1C6F000E63
:1057E8001D6F6FEC36F00EC145F10FC146F110C1C7
:1057F80047F111C148F112C149F113C14AF114C16D
:105808004BF115C14CF101014EBF13EF2CF04E5175
:1058180008E14D05D8A013EF2CF015EF2CF045EF5B
:105828002CF0455146114711481149114A114B11A5
:105838004C11D8A422EF2CF024EF2CF08AEF2BF097
:1058480040BF31EF2CF0405106E13F05D8B02FEFB3
:105858002CF031EF2CF08AEF2BF042BF3CEF2CF00C
:10586800425108E14105D8A03CEF2CF03EEF2CF066
:1058780045EF2CF0D9B343EF2CF045EF2CF08AEF2D
:105888002BF043514411D8A44CEF2CF04EEF2CF0E0
:1058980055EF2CF0D9A553EF2CF055EF2CF073EF02
:1058A8002CF04D07D8A04E0743514411D8A45FEF00
:1058B8002CF061EF2CF067EF2CF0000E3E6F2B0EF2
:1058C8003D6F6BEF2CF0000E3E6F2D0E3D6F8F0E6F
:1058D8004D25D96E020E4E21DA6E3DC1DFFF2BC178
:1058E80020F12CC121F18F0E4D25226F020E4E2181
:1058F800236F41C124F142C125F176EC47F020C164
:105908002BF121C12CF1120020C038F021C039F050
:1059180022C03AF023C03BF024C03CF025C03DF043
:1059280026C03EF027C03FF03FBE9DEF2CF0A0EF11
:105938002CF0010EA1EF2CF0000E366E376A3650AF
:105948003710D8B4AAEF2CF0ACEF2CF0BCEF2CF049
:105958003F1E3E1E3D1E3C1E3B1E3A1E391E386C25
:10596800000E39223A223B223C223D223E223F228F
:105978000101D8BFC2EF2CF0C4EF2CF0C5EF2CF01A
:10598800D993D8BFD2EF2CF0D85106E1D705D8B0BB
:10599800D0EF2CF0D2EF2CF0D8EF2CF0000E336EB5
:1059A800010E326EDCEF2CF0D7C132F0D8C133F0E3
:1059B800D5C134F0D6C135F036503710D8A4E7EF4A
:1059C8002CF0E9EF2CF0F0EF2CF0D9A5EEEF2CF04D
:1059D800F0EF2CF0F3EF2CF03406D8A03506000ECB
:1059E800416E4F0E406E000E0201DE6F78EF2DF013
:1059F8004006D8A041068F0E4024D96E020E4120E1
:105A0800DA6E38C001F039C002F03AC003F03BC08A
:105A180004F03CC005F03DC006F03EC007F03FC0B2
:105A280008F00A0E096E000E0A6E000E0B6E000ECC
:105A38000C6E000E0D6E000E0E6E000E0F6E000E38
:105A4800106EDDEC3AF001C028F002C029F003C066
:105A58002AF004C02BF005C02CF006C02DF007C0BA
:105A68002EF008C02FF028C013F02AC014F05EEC06
:105A780055F01350300FDF6E3206D8A033063406C7
:105A8800D8A0350638C001F039C002F03AC003F09A
:105A98003BC004F03CC005F03DC006F03EC007F036
:105AA8003FC008F00A0E096E000E0A6E000E0B6E5B
:105AB800000E0C6E000E0D6E000E0E6E000E0F6EB8
:105AC800000E106E34EC37F001C038F002C039F027
:105AD80003C03AF004C03BF005C03CF006C03DF0FE
