:0400000007EF00F016
:100008007E8284ED42F0B4EF4CF0000E726E000E6A
:10001800716E67506810D8B414EF00F016EF00F056
:1000280022EF00F067C0D9FF68C0DAFF65C0DEFFC5
:1000380066C0DDFF22EF00F0654A662A65C0D9FF79
:1000480066C0DAFF200EDE18D8B42DEF00F030EFCE
:1000580000F0010E31EF00F0000E776E786A7750ED
:100068007810D8A43AEF00F03CEF00F020EF00F051
:1000780065C0D9FF66C0DAFFDF50696E6950776ED8
:10008800786A77C06AF0F70E6A26040E6A644FEF42
:1000980000F051EF00F020EF00F0000E746E2D0E0E
:1000A80077187810D8A45BEF00F05DEF00F063EFED
:1000B80000F0010E746E654A662A6FEF00F02B0E91
:1000C80077187810D8A46BEF00F06DEF00F06FEFA1
:1000D80000F05FEF00F0000E7D6E74EF00F07D2AF7
:1000E8007D506524D96E000E6620DA6EDF50D8B4D4
:1000F80080EF00F082EF00F0B8EF00F07D5065244B
:10010800D96E000E6620DA6EDF50696EA20E7D246D
:10011800F66EF76AFF0EF722F86A000EF82208005A
:10012800F5506918D8B49BEF00F09DEF00F073EF1D
:1001380000F07D506524D96E000E6620DA6EDF501F
:10014800696E990E7D24F66EF76AFF0EF722F86A3B
:10015800000EF8220800F5506918D8B4B6EF00F080
:10016800B8EF00F073EF00F0020E7D64BEEF00F010
:10017800C0EF00F0ECEF00F0000E796E000E7A6E22
:10018800800E7B6E7F0E7C6E67506810D8B4CFEF00
:1001980000F0D1EF00F004EF08F0080E7D18D8B495
:1001A800D8EF00F0DAEF00F0DCEF00F0030E7D6E20
:1001B8007D506524696E000E66206A6E67C0D9FF9F
:1001C80068C0DAFF69C0DEFF6AC0DDFF04EF08F02F
:1001D800000E7D6EF1EF00F07D2A7D506524D96E0A
:1001E800000E6620DA6EDF50D8B4FDEF00F0FFEFA6
:1001F80000F035EF01F07D506524D96E000E6620C1
:10020800DA6EDF50696EF00E7D24F66EF76AFF0E27
:10021800F722F86A000EF8220800F5506918D8B4D9
:1002280018EF01F01AEF01F0F0EF00F07D506524AF
:10023800D96E000E6620DA6EDF50696EE80E7D24F6
:10024800F66EF76AFF0EF722F86A000EF822080029
:10025800F5506918D8B433EF01F035EF01F0F0EF3D
:1002680000F0030E7D18D8A43CEF01F03EEF01F03A
:10027800ACEF01F0CC0E016EFF0E026E32EC58F0BE
:1002880001C079F002C07AF003C07BF004C07CF0B2
:1002980067506810D8B453EF01F055EF01F004EF40
:1002A80008F07D506526000E662265C0D9FF66C03D
:1002B800DAFF280EDE18D8A464EF01F066EF01F02B
:1002C800A2EF01F0000E7D6E6BEF01F07D2A7D50EC
:1002D8006524D96E000E6620DA6EDF50D8B477EF49
:1002E80001F079EF01F088EF01F07D506524D96EB7
:1002F800000E6620DA6E290EDE18D8A486EF01F00B
:1003080088EF01F06AEF01F07D506524D96E000E88
:100318006620DA6E290EDE18D8A495EF01F097EF63
:1003280001F0A2EF01F07D50696E6A6A010E69263C
:10033800000E6A22695065266A50662267C0D9FF96
:1003480068C0DAFF65C0DEFF66C0DDFF04EF08F0B5
:10035800000E786E000E776E000E796E000E7A6EC3
:10036800000E7B6E000E7C6E000E6F6E000E706EBF
:10037800000E766E000E756E000E7D6EC5EF01F0F4
:100388007D2A7D506524D96E000E6620DA6E300E07
:10039800DE18D8B4D2EF01F0D4EF01F0C4EF01F0C9
:1003A8007D50D8B4DAEF01F0DCEF01F07DEF05F015
:1003B8007D506524D96E000E6620DA6E780EDE1840
:1003C800D8B4E9EF01F0EBEF01F0FAEF01F07D505E
:1003D8006524D96E000E6620DA6E580EDE18D8A491
:1003E800F8EF01F0FAEF01F07DEF05F07D5065249C
:1003F800696E000E66206A6E010E6924D96E000EC1
:100408006A20DA6EDF506B6E6B50016E026AB1ECD7
:1004180051F001500210D8A414EF02F016EF02F0C8
:100428002DEF02F07D506524696E000E66206A6E1D
:10043800010E6924D96E000E6A20DA6E2E0EDE18BF
:10044800D8B429EF02F02BEF02F02DEF02F0A1EF64
:1004580004F07DC06FF07D2A7D506524D96E000EB2
:100468006620DA6E300EDE18D8B43DEF02F03FEFAA
:1004780002F02FEF02F07D506524D96E000E662041
:10048800DA6E700EDE18D8B44CEF02F04EEF02F0C0
:10049800BCEF03F07D506524D96E000E6620DA6E3D
:1004A800500EDE18D8A45BEF02F05DEF02F05FEFAC
:1004B80002F0BCEF03F07D506524D96E000E662073
:1004C800DA6E2E0EDE18D8A46CEF02F06EEF02F092
:1004D80074EF02F074887DC070F07D2ABCEF03F0E1
:1004E8007D506524D96E000E6620DA6EDF50696E85
:1004F8006950016E026AB1EC51F001500210D8B493
:1005080088EF02F08AEF02F0A1EF04F0000E736E9C
:100518007D506524D96E000E6620DA6EDF50696E54
:100528006950016E026A72EC57F001500210D8B49B
:10053800A0EF02F0A2EF02F0ADEF02F07D506524CB
:10054800D96E000E6620DA6EDF50D00F736EBDEFE5
:1005580002F07D506524D96E000E6620DA6EDF50F9
:10056800696E6950016E026A44EC57F00150C90F78
:10057800736E78BECBEF02F0785007E1080E775C17
:10058800D8B0C9EF02F0CBEF02F0EAEF02F07750F3
:100598000708696ED8906936D890693673C06AF0D2
:1005A8006B6A6C6A6D6A692ADFEF02F0D8906A3666
:1005B8006B366C366D36692EDAEF02F06A507912B6
:1005C8006B507A126C507B126D507C12774A782AE5
:1005D800040E7526000E76227D2A3FEF02F07D502C
:1005E8006524D96E000E6620DA6E300EDE18D8A4A7
:1005F80000EF03F002EF03F011EF03F077507810EB
:10060800D8A409EF03F00BEF03F011EF03F0FC0E91
:100618007526FF0E7622BBEF03F07D506524D96E58
:10062800000E6620DA6EDF50696E6950016E026A4C
:10063800B1EC51F001500210D8B425EF03F027EFC8
:1006480003F08BEF03F0000E736E7D506524D96EB6
:10065800000E6620DA6EDF50696E6950016E026A1C
:1006680072EC57F001500210D8B43DEF03F03FEFA1
:1006780003F04AEF03F07D506524D96E000E662022
:10068800DA6EDF50D00F736E5AEF03F07D50652499
:10069800D96E000E6620DA6EDF50696E6950016E01
:1006A800026A44EC57F00150C90F736E78BE68EFC8
:1006B80003F0785007E1080E775CD8B066EF03F0D6
:1006C80068EF03F087EF03F077500708696ED8905A
:1006D8006936D890693673C06AF06B6A6C6A6D6A5D
:1006E800692A7CEF03F0D8906A366B366C366D3623
:1006F800692E77EF03F06A5079126B507A126C50BA
:100708007B126D507C12774A782ABBEF03F07D503C
:10071800696E6A6A70506B6E6C6A010E6B26000E09
:100728006C2269506B1807E16A506C18D8A49FEFC7
:1007380003F0A1EF03F0C3EF03F07050696E6A6A2B
:100748006F506B6E6C6A010E6B26000E6C2269503E
:100758006B1807E16A506C18D8A4B5EF03F0B7EF2F
:1007680003F0C3EF03F06FC07DF0A1EF04F07D2A22
:1007780074B8C1EF03F0C3EF03F0F3EF02F07D505C
:100788006526000E6622000E7D6E65C0D9FF66C024
:10079800DAFF700EDE18D8B4D4EF03F0D6EF03F00A
:1007A800E5EF03F065C0D9FF66C0DAFF500EDE182A
:1007B800D8B4E1EF03F0E3EF03F0E5EF03F0A1EFC6
:1007C80004F07D2A20EE01F06550D9266650DA2221
:1007D8002B0EDE18D8A4F3EF03F0F5EF03F0F8EFD3
:1007E80003F07D2A09EF04F020EE01F06550D926C8
:1007F8006650DA222D0EDE18D8A405EF04F007EFB4
:1008080004F009EF04F074867D2A7D506524D96EC2
:10081800000E6620DA6EDF50696E6950016E026A5A
:1008280072EC57F001500210D8A41DEF04F01FEF2E
:1008380004F023EF04F0000E7D6EA1EF04F07D506C
:100848006526000E6622000E7D6E2CEF04F07D2AD0
:100858007D506524D96E000E6620DA6E300EDE18E3
:10086800D8B439EF04F03BEF04F02BEF04F0000E9E
:10087800786E000E776E6AEF04F07D50D8B447EFBB
:1008880004F049EF04F057EF04F077C001F078C0A6
:1008980002F0000E046E0A0E036EEAEC57F001C077
:1008A80077F002C078F07D506524D96E000E66207E
:1008B800DA6EDF50696ED00E69246A6E6B6AFF0EBD
:1008C8006B226A5077266B5078227D2A7D506524EA
:1008D800D96E000E6620DA6EDF50696E6950016EBF
:1008E800026A72EC57F001500210D8A47EEF04F0AF
:1008F80080EF04F041EF04F07D50D8A486EF04F0B7
:1009080088EF04F092EF04F0000E656E000E666E3C
:10091800000E676E000E686E3AEF08F074A697EF47
:1009280004F099EF04F09DEF04F0776C781ED8B0CE
:10093800782A775075267850762267506810D8B490
:10094800A8EF04F0AAEF04F0B8EF04F07D50652496
:10095800696E000E66206A6E67C0D9FF68C0DAFF4C
:1009680069C0DEFF6AC0DDFF79507A107B107C1009
:10097800D8A4C1EF04F0C3EF04F0CDEF04F0000EEB
:10098800656E000E666E000E676E000E686E3AEFBA
:1009980008F0FF0E7914696E000E7A146A6E000E64
:1009A8007B146B6E000E7C146C6E6C506B106A10AE
:1009B80009E1810E695CD8A0E4EF04F0E6EF04F0E9
:1009C800F8EF04F0000E7926010E7A22000E7B2241
:1009D800000E7C22F8EF04F0D89079367A367B3610
:1009E8007C367506D8A076067CAEFDEF04F0FFEFE6
:1009F80004F0F0EF04F076AE0BEF05F0830E755CB3
:100A0800FF0E7658D8B00BEF05F00DEF05F019EF93
:100A180005F0FF0E766E810E756E000E796E000E73
:100A28007A6E000E7B6E000E7C6E810E751808E1E2
:100A38007628D8B422EF05F024EF05F02CEF05F066
:100A4800D89079367A367B367C367506D8A0760605
:100A580076BE38EF05F0765009E1800E755CD8A0B7
:100A680038EF05F03AEF05F04CEF05F0000E796E1F
:100A7800000E7A6E000E7B6E000E7C6E000E766E97
:100A8800800E756E000E726E220E716E04EF08F005
:100A9800090E696ED8907C327B327A327932692EAF
:100AA8004EEF05F0FF0E7916FF0E7A167F0E7B16B5
:100AB800000E7C167F0E7524696E000E76206A6E15
:100AC800FF0E69146B6E6C6A6D6A6E6A170ED890A9
:100AD8006B366C366D366E36E82E6BEF05F06B5064
:100AE80079126C507A126D507B126E507C1204EFA2
:100AF80008F074B882EF05F084EF05F096EF05F082
:100B080065C0D9FF66C0DAFF2E0EDE18D8A48FEFB5
:100B180005F091EF05F096EF05F07488654A662AAE
:100B28007DEF05F065C0D9FF66C0DAFFDF50696E5A
:100B38006950016E026A72EC57F001500210D8A495
:100B4800A8EF05F0AAEF05F0ACEF05F0FAEF05F015
:100B58007482090E77187810D8B4B5EF05F0B7EF9E
:100B680005F0EDEF05F074A8BCEF05F0BEEF05F059
:100B7800C1EF05F07506D8A07606774A782A79C0BD
:100B880001F07AC002F07BC003F07CC004F00A0ECA
:100B9800056E000E066E000E076E000E086E5DEC08
:100BA80050F001C079F002C07AF003C07BF004C0B5
:100BB8007CF065C0D9FF66C0DAFFDF50696ED00EE1
:100BC800692669507926000E7A227B227C22F6EF6C
:100BD80005F074B8F2EF05F0F4EF05F0F6EF05F064
:100BE800754A762A654A662A7DEF05F0000E786E0A
:100BF800000E776E65C0D9FF66C0DAFF650EDE1895
:100C0800D8B409EF06F00BEF06F018EF06F065C050
:100C1800D9FF66C0DAFF450EDE18D8A416EF06F035
:100C280018EF06F0A0EF06F0654A662A65C0D9FFFE
:100C380066C0DAFF2D0EDE18D8A425EF06F027EFE0
:100C480006F02CEF06F07486654A662A3BEF06F03C
:100C580065C0D9FF66C0DAFF2B0EDE18D8A437EFBF
:100C680006F039EF06F03BEF06F0654A662A65C0E4
:100C7800D9FF66C0DAFF300EDE18D8B446EF06F0AA
:100C880048EF06F039EF06F0000E736E67EF06F0D6
:100C980065C0D9FF66C0DAFFDF50696ED00E6926DD
:100CA80077C001F078C002F0000E046E0A0E036EE1
:100CB800EAEC57F069500124776E000E0220786E36
:100CC800654A662A732A65C0D9FF66C0DAFFDF5015
:100CD800696E6950016E026A72EC57F00150021099
:100CE800D8A479EF06F07BEF06F04CEF06F07350CE
:100CF800D8A481EF06F083EF06F095EF06F02FEE0B
:100D0800FFF06550D9266650DA22300EDE18D8B4C6
:100D180090EF06F092EF06F095EF06F06506D8A082
:100D2800660674A69AEF06F09CEF06F0A0EF06F0B0
:100D3800776C781ED8B0782A775075267850762246
:100D480067506810D8B4ABEF06F0ADEF06F0BCEF13
:100D580006F074A2B2EF06F0B4EF06F0BCEF06F0AE
:100D680067C0D9FF68C0DAFF65C0DEFF66C0DDFF77
:100D780079C001F07AC002F07BC003F07CC004F0B7
:100D8800000E62EC36F001C079F002C07AF003C0C0
:100D98007BF004C07CF079C001F07AC002F07BC01F
:100DA80003F07CC004F0000E056E000E066E000E07
:100DB800076E000E086E21EC4BF0D8A0E6EF06F0A7
:100DC800E8EF06F0F2EF06F0000E656E000E666EB4
:100DD800000E676E000E686E3AEF08F076BEF9EF07
:100DE80006F0F7EF06F087EF07F0756C761ED8B0BF
:100DF800762A1DEF07F079C00FF07AC010F07BC09B
:100E080011F07CC012F0F90E136E020E146E150E5E
:100E1800156E500E166E87EC2BF00FC079F010C0CF
:100E28007AF011C07BF012C07CF0F60E7526FF0E2A
:100E3800762276BE2BEF07F0765007E10A0E755C36
:100E4800D8B029EF07F02BEF07F0FFEF06F04AEFD5
:100E580007F079C00FF07AC010F07BC011F07CC0A9
:100E680012F0000E136E000E146E200E156E410E59
:100E7800166E87EC2BF00FC079F010C07AF011C015
:100E88007BF012C07CF07506D8A0760675507610F7
:100E9800D8A451EF07F053EF07F02DEF07F079C012
:100EA80059F07AC05AF07BC05BF07CC05CF0000E51
:100EB8005D6E000E5E6E800E5F6E000E606E86ECDC
:100EC80040F0D8B06AEF07F06CEF07F004EF08F0D5
:100ED80074A071EF07F073EF07F07DEF07F0000ED5
:100EE800656E000E666E800E676E800E686E3AEF55
:100EF80008F0000E656E000E666E800E676E000EBE
:100F0800686E3AEF08F076BE92EF07F0765008E187
:100F18007504D8A092EF07F094EF07F004EF08F0FB
:100F2800B4EF07F079C040F07AC041F07BC042F0DE
:100F38007CC043F0F90E446E020E456E150E466EE7
:100F4800500E476EA4EC27F040C079F041C07AF00B
:100F580042C07BF043C07CF0F60E7526FF0E762269
:100F6800765007E10A0E755CD8B0BDEF07F0BFEF09
:100F780007F096EF07F0DEEF07F079C040F07AC08F
:100F880041F07BC042F07CC043F0000E446E000E7E
:100F9800456E200E466E410E476EA4EC27F040C009
:100FA80079F041C07AF042C07BF043C07CF075060E
:100FB800D8A0760675507610D8A4E5EF07F0E7EFCD
:100FC80007F0C1EF07F0FF0E596EFF0E5A6E7F0E45
:100FD8005B6E7F0E5C6E79C05DF07AC05EF07BC0A0
:100FE8005FF07CC060F086EC40F0D8B0FEEF07F010
:100FF80000EF08F004EF08F0000E726E220E716E1A
:1010080071507210D8B40BEF08F00DEF08F019EF1B
:1010180008F071C09AF172C09BF1000E796E000E53
:101028007A6E800E7B6E7F0E7C6E74A01EEF08F0C9
:1010380020EF08F032EF08F079C001F07AC002F032
:101048007BC003F07CC004F044EC56F001C079F09A
:1010580002C07AF003C07BF004C07CF079C065F070
:101068007AC066F07BC067F07CC068F01200000EA2
:101078000301956F81C196F382C197F383C198F3F9
:1010880084C199F399BF4DEF08F04BEF08F061EF79
:1010980008F0010E956F96C340F197C341F198C3CC
:1010A80042F199C343F199EC55F040C196F341C11F
:1010B80097F342C198F343C199F3000E03019B6F64
:1010C800000E9A6F96C189F397C18AF39551D8B4E7
:1010D80070EF08F072EF08F086EF08F09551D8A489
:1010E80078EF08F07AEF08F080EF08F0000E7B6FD9
:1010F8002B0E7A6F84EF08F0000E7B6F2D0E7A6F3F
:101108007AC395F396C340F197C341F198C342F16E
:1011180099C343F108EC41F0010140054111D8A4FD
:1011280098EF08F09AEF08F0D5EF08F00301955111
:10113800D8B4A1EF08F0A3EF08F0ACEF08F095C31E
:101148006DF28907D8A08A07000E9B6F010E9A6F6F
:101158006D0E9A250101406F020E03019B210101CA
:10116800416FEC0E426FFF0E436F7BEC55F00301AD
:10117800FD0E8927FF0E8A237FC152F180C153F1EA
:101188006D0E0101546F020E556F89C356F18AC363
:1011980057F13CEC47F052C17FF153C180F1C4EFE5
:1011A8000DF096C340F197C341F198C342F199C33A
:1011B80043F108EC41F0010140514111D8A4E7EF97
:1011C80008F0E9EF08F00CEF09F003019551D8B4E5
:1011D800F0EF08F0F2EF08F0FBEF08F095C36DF2BE
:1011E8008907D8A08A07000E9B6F010E9A6F6D0EB3
:1011F8009A250101406F020E03019B210101416FF5
:10120800F00E426FFF0E436F7BEC55F0BBEF08F01A
:10121800000E03019C6F000E9D6F800E9E6F3F0EA7
:101228009F6F000E846F000E836F96C340F197C3C3
:1012380041F198C342F199C343F1000E0101446F93
:10124800000E456F000E466F000E476FCBEC4AF05C
:101258000101D8B032EF09F034EF09F02EEF0AF0AF
:1012680041EF09F085C39CF386C39DF387C39EF3C2
:1012780088C39FF30301834B842B9CC34EF19DC30A
:101288004FF19EC350F19FC351F1000E0101526FFF
:10129800000E536F200E546F410E556F8EEC25F0E3
:1012A8004EC185F34FC186F350C187F351C188F30E
:1012B80003018551965D0101406F030186519759DD
:1012C8000101416F0301875198590101426F0301E0
:1012D800885199590101436F85EC51F0010143BFD1
:1012E80081EF09F043514211411109E1020E405DBD
:1012F800D8A081EF09F083EF09F036EF09F085C334
:1013080067F186C368F187C369F188C36AF196C338
:101318006BF197C36CF198C36DF199C36EF180ECD2
:101328003FF00101D8A09BEF09F09DEF09F036EFDF
:1013380009F003019C51965D0101406F03019D5125
:1013480097590101416F03019E5198590101426F5C
:1013580003019F5199590101436F85EC51F0010137
:1013680043BFC4EF09F043514211411107E1020E96
:10137800405DD8B0C2EF09F0C4EF09F014EF0AF0ED
:101388009CC396F39DC397F39EC398F39FC399F3A9
:101398002EEF0AF09CC34EF19DC34FF19EC350F14E
:1013A8009FC351F1000E526F000E536F200E546F01
:1013B800410E556FB9EC29F04EC19CF34FC19DF316
:1013C80050C19EF351C19FF303018307D8A084073E
:1013D8009C51965D0101406F03019D519759010190
:1013E800416F03019E5198590101426F03019F51BA
:1013F80099590101436F85EC51F0010143BF12EF88
:101408000AF043514211411107E1020E405DD8B084
:1014180010EF0AF012EF0AF014EF0AF0C4EF09F027
:1014280096C367F197C368F198C369F199C36AF1E4
:101438009CC36BF19DC36CF19EC36DF19FC36EF1AC
:1014480080EC3FF00101D8A02CEF0AF02EEF0AF053
:10145800CEEF09F085C17DF37DC37EF399BF37EFE9
:101468000AF039EF0AF03FEF0AF098C176F399C114
:1014780077F344EF0AF0000E0301776F060E766FDC
:1014880076C381F377C382F30301814B822B660E07
:101498007E19D8A452EF0AF054EF0AF074EF0AF05C
:1014A80084BF5BEF0AF059EF0AF067EF0AF0000E0D
:1014B8009C6F000E9D6F800E9E6F3F0E9F6F000EFB
:1014C800846F000E836F670E7D19D8B46EEF0AF033
:1014D80070EF0AF074EF0AF0835181278451822358
:1014E800000E946F000E936F96C38BF397C38CF323
:1014F80098C38DF399C38EF39CC385F39DC386F37C
:101508009EC387F39FC388F306EF0BF08BC34EF19E
:101518008CC34FF18DC350F18EC351F19CC352F16E
:101528009DC353F19EC354F19FC355F1B9EC29F003
:101538004EC167F14FC168F150C169F151C16AF1FB
:10154800B1EC31F067C18FF368C190F369C191F3D1
:101558006AC192F38FC367F190C368F191C369F1CF
:1015680092C36AF1FCEC3EF067C17FF368C180F377
:101578008BC377F18CC378F18DC379F18EC37AF17F
:101588008FC352F190C353F191C354F192C355F1F3
:101598009CC34EF19DC34FF19EC350F19FC351F1BF
:1015A8008EEC25F04EC17BF14FC17CF150C17DF12D
:1015B80051C17EF188EC54F077C18BF378C18CF37C
:1015C80079C18DF37AC18EF39CC34EF19DC34FF15F
:1015D8009EC350F19FC351F1000E0101526F000EDE
:1015E800536F200E546F410E556FB9EC29F04EC160
:1015F8009CF34FC19DF350C19EF351C19FF303016A
:10160800934B942B8151935D9451800A0201CE6FC4
:1016180003018251800A0201CE59D8A016EF0BF0BF
:1016280018EF0BF08AEF0AF09CC34EF19DC34FF1FF
:101638009EC350F19FC351F1000E0101526F000E7D
:10164800536FA00E546F400E556F8EEC25F04EC1AF
:101658008FF34FC190F350C191F351C192F38BC3F3
:1016680067F18CC368F18DC369F18EC36AF18FC3CA
:101678006BF190C36CF191C36DF192C36EF180EC84
:101688003FF00101D8B04BEF0BF04DEF0BF058EFE6
:101698000BF0000E03018F6F000E906F000E916F1C
:1016A800000E926F82EF0BF08BC340F18CC341F1B7
:1016B8008DC342F18EC343F18FC344F190C345F10A
:1016C80091C346F192C347F1CBEC4AF00101D8A08F
:1016D80070EF0BF072EF0BF082EF0BF003017FB1AC
:1016E80078EF0BF07AEF0BF082EF0BF0000E8F6FB4
:1016F800000E906F000E916F000E926F96C367F107
:1017080097C368F198C369F199C36AF18FC36BF104
:1017180090C36CF191C36DF192C36EF18EEC1CF025
:1017280067C18BF368C18CF369C18DF36AC18EF30D
:101738008BC367F18CC368F18DC369F18EC36AF1FD
:10174800000E0101526F000E536F200E546F410EB0
:10175800556F85C34EF186C34FF187C350F188C3D7
:1017680051F18EEC25F04EC16BF14FC16CF150C1B7
:101778006DF151C16EF180EC3FF00101D8A0C7EFC7
:101788000BF0C9EF0BF0F3EF0BF00301834B842B45
:1017980085C34EF186C34FF187C350F188C351F119
:1017A800000E0101526F000E536F200E546F410E50
:1017B800556F8EEC25F04EC185F34FC186F350C1AD
:1017C80087F351C188F3660E03017E19D8A4EFEFA1
:1017D8000BF0F1EF0BF0F3EF0BF0814B822B85C38D
:1017E8009CF386C39DF387C39EF388C39FF383C38B
:1017F80074F384C375F3000E03017C6F000E796FD8
:10180800000E786F000E946F000E936FF3EF0CF0DC
:101818008BC34EF18CC34FF18DC350F18EC351F180
:101828009CC352F19DC353F19EC354F19FC355F11C
:10183800B9EC29F04EC167F14FC168F150C169F1A7
:1018480051C16AF1B1EC31F067C18FF368C190F30F
:1018580069C191F36AC192F38FC367F190C368F1CC
:1018680091C369F192C36AF1FCEC3EF0010168BFD3
:1018780049EF0CF0685107E10A0E675DD8B047EFF1
:101888000CF049EF0CF059EF0CF08FC367F190C3DF
:1018980068F191C369F192C36AF1FCEC3EF067C14B
:1018A8007FF368C180F35EEF0CF0000E0301806FD8
:1018B800090E7F6F03017C51D8A465EF0CF067EF28
:1018C8000CF08FEF0CF075BF6EEF0CF06CEF0CF0B6
:1018D8008FEF0CF06D0E9A25D96E020E9B21DA6EF1
:1018E8002E0EDF6E9A4B9B2B8907D8A08A07010E14
:1018F8007C6F8FEF0CF06D0E9A25D96E020E9B212E
:10190800DA6E300EDF6E9A4B9B2B8907D8A08A07B8
:101918007807D8A0790778517911D8A496EF0CF0F8
:1019280098EF0CF07FEF0CF06D0E9A25D96E020E31
:101938009B21DA6E7F51300FDF6E9A4B9B2B890704
:10194800D8A08A078BC377F18CC378F18DC379F15E
:101958008EC37AF18FC352F190C353F191C354F1FE
:1019680092C355F19CC34EF19DC34FF19EC350F1F4
:101978009FC351F18EEC25F04EC17BF14FC17CF134
:1019880050C17DF151C17EF188EC54F077C18BF3E1
:1019980078C18CF379C18DF37AC18EF39CC34EF173
:1019A8009DC34FF19EC350F19FC351F1000E010139
:1019B800526F000E536F200E546F410E556FB9ECE5
:1019C80029F04EC19CF34FC19DF350C19EF351C104
:1019D8009FF303017407D8A07507934B942B81518B
:1019E800935D9451800A0201CE6F03018251800AEF
:1019F8000201CE59D8B003EF0DF005EF0DF014EF4A
:101A08000DF003019BBF12EF0DF09B5109E14B0E46
:101A18009A5DD8A012EF0DF014EF0DF00CEF0CF05A
:101A2800000E0301946F4F0E936F6D0E9325D96EC0
:101A3800020E9421DA6EDF6A6D0E0201CE6F020E7D
:101A4800CF6F03019A510201CE5F03019B5102013E
:101A5800CF5B030193510201CE250101406F0301C1
:101A680094510201CF210101416F6D0E426F020EA8
:101A7800436F9AC344F19BC345F1D8EC52F003017C
:101A88009A51935D9A6F9B5194599B6F9551D8A425
:101A980050EF0DF053EF0DF0010E54EF0DF0000E66
:101AA800936F946B0101B2A35CEF0DF05EEF0DF044
:101AB80095EF0DF06FEF0DF003019A07D8A09B0783
:101AC8006D0E9A25D96E020E9B21DA6E300EDF6EEE
:101AD8008907D8A08A0703018951935D9451800A28
:101AE8000201CE6F03018A51800A0201CE59D8B093
:101AF80080EF0DF082EF0DF095EF0DF003019A5194
:101B0800935D9451800A0201CE6F03019B51800AB4
:101B18000201CE59D8A093EF0DF095EF0DF060EFCC
:101B28000DF003019551D8B49CEF0DF09EEF0DF028
:101B3800A9EF0DF09A07D8A09B076D0E9A25D96ECC
:101B4800020E9B21DA6E95C3DFFF9351895F945192
:101B58008A5B7FC152F180C153F16D0E9A25010154
:101B6800546F020E03019B210101556F89C356F181
:101B78008AC357F13CEC47F052C17FF153C180F161
:101B88001200000E0001A16F67C0A2F068C0A3F0A8
:101B980069C0A4F06AC0A5F0A5BFD7EF0DF0D5EFD6
:101BA8000DF0EBEF0DF0010EA16FA2C001F0A3C084
:101BB80002F0A4C003F0A5C004F044EC56F001C044
:101BC800A2F002C0A3F003C0A4F004C0A5F0000E68
:101BD8000001A76F000EA66F96C195F097C196F009
:101BE800A151D8B4FAEF0DF0FCEF0DF010EF0EF0A4
:101BF800A151D8A402EF0EF004EF0EF00AEF0EF098
:101C0800000E876F2B0E866F0EEF0EF0000E876F9B
:101C18002D0E866F86C0A1F0A2C001F0A3C002F00D
:101C2800A4C003F0A5C004F088EC41F00104021040
:101C3800D8A421EF0EF023EF0EF05AEF0EF00001BA
:101C4800A151D8B42AEF0EF02CEF0EF035EF0EF0BC
:101C5800A1C06DF29507D8A09607000EA76F010ED8
:101C6800A66F6D0EA625016E020EA721026EEC0E60
:101C7800036EFF0E046ED3EC55F00001FD0E9527A0
:101C8800FF0E962365C013F066C014F06D0E156E36
:101C9800020E166E95C017F096C018F0F9EC47F0D2
:101CA80013C065F014C066F002EF13F0A2C001F093
:101CB800A3C002F0A4C003F0A5C004F088EC41F072
:101CC80001500210D8A46BEF0EF06DEF0EF08DEFFF
:101CD8000EF00001A151D8B474EF0EF076EF0EF0BB
:101CE8007FEF0EF0A1C06DF29507D8A09607000E01
:101CF800A76F010EA66F6D0EA625016E020EA72115
:101D0800026EF00E036EFF0E046ED3EC55F041EF39
:101D18000EF0000E0001A86F000EA96F800EAA6FCA
:101D28003F0EAB6F000E906F000E8F6FA2C001F0D8
:101D3800A3C002F0A4C003F0A5C004F0000E056E15
:101D4800000E066E000E076E000E086E21EC4BF0BA
:101D5800D8B0B1EF0EF0B3EF0EF092EF0FF0C0EF86
:101D68000EF091C0A8F092C0A9F093C0AAF094C058
:101D7800ABF000018F4B902BA8C040F0A9C041F0F8
:101D8800AAC042F0ABC043F0000E446E000E456E90
:101D9800200E466E410E476EA4EC27F040C091F02D
:101DA80041C092F042C093F043C094F000019151B9
:101DB800A25D016E9251A359026E9351A459036E0C
:101DC8009451A559046EDCEC51F004BEF7EF0EF007
:101DD80004500310021009E1020E015CD8A0F7EFCD
:101DE8000EF0F9EF0EF0B5EF0EF091C059F092C079
:101DF8005AF093C05BF094C05CF0A2C05DF0A3C041
:101E08005EF0A4C05FF0A5C060F086EC40F0D8A0FA
:101E180010EF0FF012EF0FF0B5EF0EF00001A85120
:101E2800A25D016EA951A359026EAA51A459036E6D
:101E3800AB51A559046EDCEC51F004BE31EF0FF044
:101E480004500310021007E1020E015CD8B02FEF16
:101E58000FF031EF0FF079EF0FF0A8C0A2F0A9C092
:101E6800A3F0AAC0A4F0ABC0A5F092EF0FF0A8C0F1
:101E78000FF0A9C010F0AAC011F0ABC012F0000E0C
:101E8800136E000E146E200E156E410E166E87EC42
:101E98002BF00FC0A8F010C0A9F011C0AAF012C012
:101EA800ABF000018F07D8A09007A851A25D016E82
:101EB800A951A359026EAA51A459036EAB51A55951
:101EC800046EDCEC51F004BE77EF0FF00450031001
:101ED800021007E1020E015CD8B075EF0FF077EF42
:101EE8000FF079EF0FF031EF0FF0A2C059F0A3C057
:101EF8005AF0A4C05BF0A5C05CF0A8C05DF0A9C012
:101F08005EF0AAC05FF0ABC060F086EC40F0D8A0ED
:101F180090EF0FF092EF0FF03BEF0FF06BC089F0EE
:101F280089C08AF0010199BF9CEF0FF09EEF0FF076
:101F3800A4EF0FF098C182F099C183F0A9EF0FF0D8
:101F4800000E0001836F060E826F82C08DF083C081
:101F58008EF000018D4B8E2B660E8A19D8A4B7EF30
:101F68000FF0B9EF0FF0D9EF0FF090BFC0EF0FF0FF
:101F7800BEEF0FF0CCEF0FF0000EA86F000EA96FA8
:101F8800800EAA6F3F0EAB6F000E906F000E8F6F22
:101F9800670E8919D8B4D3EF0FF0D5EF0FF0D9EF4A
:101FA8000FF08F518D2790518E23000EA06F000ED9
:101FB8009F6FA2C097F0A3C098F0A4C099F0A5C0E5
:101FC8009AF0A8C091F0A9C092F0AAC093F0ABC053
:101FD80094F06AEF10F097C00FF098C010F099C015
:101FE80011F09AC012F0A8C013F0A9C014F0AAC04A
:101FF80015F0ABC016F087EC2BF00FC028F010C01E
:1020080029F011C02AF012C02BF0BCEC32F028C025
:102018009BF029C09CF02AC09DF02BC09EF09BC06D
:1020280059F09CC05AF09DC05BF09EC05CF003EC78
:1020380040F059C08BF05AC08CF097C038F098C067
:1020480039F099C03AF09AC03BF09BC044F09CC06C
:1020580045F09DC046F09EC047F0A8C040F0A9C01A
:1020680041F0AAC042F0ABC043F0A4EC27F040C056
:102078003CF041C03DF042C03EF043C03FF0F3ECBD
:1020880054F038C097F039C098F03AC099F03BC086
:102098009AF0A8C00FF0A9C010F0AAC011F0ABC008
:1020A80012F0000E136E000E146E200E156E410E07
:1020B800166E87EC2BF00FC0A8F010C0A9F011C065
:1020C800AAF012C0ABF000019F4BA02B8D519F5D71
:1020D800A051800A6C6E8E51800A6C58D8A077EF98
:1020E80010F079EF10F0EFEF0FF0A8C040F0A9C0A2
:1020F80041F0AAC042F0ABC043F0000E446E000E9F
:10210800456EA00E466E400E476EA4EC27F040C008
:102118009BF041C09CF042C09DF043C09EF097C028
:1021280059F098C05AF099C05BF09AC05CF09BC017
:102138005DF09CC05EF09DC05FF09EC060F086ECD4
:1021480040F0D8B0AAEF10F0ACEF10F0B7EF10F0F5
:10215800000E00019B6F000E9C6F000E9D6F000E1D
:102168009E6FE0EF10F097C001F098C002F099C0A0
:1021780003F09AC004F09BC005F09CC006F09DC017
:1021880007F09EC008F021EC4BF0D8A0CEEF10F07D
:10219800D0EF10F0E0EF10F000018BB1D6EF10F0A7
:1021A800D8EF10F0E0EF10F0000E9B6F000E9C6F60
:1021B800000E9D6F000E9E6FA2C028F0A3C029F0EC
:1021C800A4C02AF0A5C02BF09BC02CF09CC02DF019
:1021D8009DC02EF09EC02FF0EFEC1EF028C097F0A7
:1021E80029C098F02AC099F02BC09AF097C059F0EE
:1021F80098C05AF099C05BF09AC05CF0000E446E2B
:10220800000E456E200E466E410E476E91C040F09E
:1022180092C041F093C042F094C043F0A4EC27F080
:1022280040C05DF041C05EF042C05FF043C060F066
:1022380086EC40F0D8A023EF11F025EF11F04EEF17
:1022480011F000018F4B902B91C040F092C041F0EB
:1022580093C042F094C043F0000E446E000E456EE9
:10226800200E466E410E476EA4EC27F040C091F058
:1022780041C092F042C093F043C094F0660E000152
:102288008A19D8A44AEF11F04CEF11F04EEF11F073
:102298008D4B8E2B91C0A8F092C0A9F093C0AAF0E4
:1022A80094C0ABF08FC080F090C081F0000E0001A8
:1022B800886F000E856F000E846F000EA06F000EF1
:1022C8009F6F4CEF12F097C00FF098C010F099C0B4
:1022D80011F09AC012F0A8C013F0A9C014F0AAC057
:1022E80015F0ABC016F087EC2BF00FC028F010C02B
:1022F80029F011C02AF012C02BF0BCEC32F028C033
:102308009BF029C09CF02AC09DF02BC09EF09BC07A
:1023180059F09CC05AF09DC05BF09EC05CF003EC85
:1023280040F05ABEA3EF11F05A5007E10A0E595C6B
:10233800D8B0A1EF11F0A3EF11F0B3EF11F09BC0EB
:1023480059F09CC05AF09DC05BF09EC05CF003EC55
:1023580040F059C08BF05AC08CF0B8EF11F0000E65
:1023680000018C6F090E8B6F00018851D8A4BFEF54
:1023780011F0C1EF11F0E9EF11F081BFC8EF11F0D2
:10238800C6EF11F0E9EF11F06D0EA625D96E020E19
:10239800A721DA6E2E0EDF6EA64BA72B9507D8A0C5
:1023A8009607010E886FE9EF11F06D0EA625D96E1C
:1023B800020EA721DA6E300EDF6EA64BA72B95070B
:1023C800D8A096078407D8A0850784518511D8A47A
:1023D800F0EF11F0F2EF11F0D9EF11F06D0EA62524
:1023E800D96E020EA721DA6E8B51300FDF6EA64B25
:1023F800A72B9507D8A0960797C038F098C039F052
:1024080099C03AF09AC03BF09BC044F09CC045F09C
:102418009DC046F09EC047F0A8C040F0A9C041F05A
:10242800AAC042F0ABC043F0A4EC27F040C03CF097
:1024380041C03DF042C03EF043C03FF0F3EC54F0E1
:1024480038C097F039C098F03AC099F03BC09AF07C
:10245800A8C00FF0A9C010F0AAC011F0ABC012F0CC
:10246800000E136E000E146E200E156E410E166EC1
:1024780087EC2BF00FC0A8F010C0A9F011C0AAF08B
:1024880012C0ABF000018007D8A081079F4BA02B9A
:102498008D519F5DA051800A6C6E8E51800A6C58D8
:1024A800D8B059EF12F05BEF12F069EF12F0A7BF46
:1024B80067EF12F0A75109E14B0EA65DD8A067EFB0
:1024C80012F069EF12F067EF11F0000EA06F4F0ED7
:1024D8009F6F6D0E9F25D96E020EA021DA6EDF6AFE
:1024E8006D0E6C6E020E6D6EA6516C5EA7516D5A24
:1024F8009F516C24016EA0516D20026E6D0E036E0B
:10250800020E046EA6C005F0A7C006F07BEC53F0DF
:102518000001A6519F5DA66FA751A059A76FA151B1
:10252800D8A499EF12F09CEF12F0010E9DEF12F073
:10253800000E9F6FA06B0101B2A3A5EF12F0A7EFE9
:1025480012F0D6EF12F0B7EF12F0A607D8A0A7073F
:102558006D0EA625D96E020EA721DA6E300EDF6E3B
:102568009507D8A09607000195519F5DA051800A54
:102578006C6E9651800A6C58D8B0C5EF12F0C7EF50
:1025880012F0D6EF12F0A6519F5DA051800A6C6E32
:10259800A751800A6C58D8A0D4EF12F0D6EF12F0E9
:1025A800A9EF12F00001A151D8B4DDEF12F0DFEF6E
:1025B80012F0EAEF12F0A607D8A0A7076D0EA6251D
:1025C800D96E020EA721DA6EA1C0DFFF9F51955F79
:1025D800A051965B65C013F066C014F06D0EA62579
:1025E800156E020EA721166E95C017F096C018F04A
:1025F800F9EC47F013C065F014C066F01200D3CFB1
:10260800D2F29BCFD3F222EED8F00F0EDE6AE806A4
:10261800FDE213EF13F0350EE82EFED70000D3A429
:1026280018EF13F01AEF13F00FEF13F0100E53EC2E
:1026380053F0D00E0101716FC90EE82EFED7712F2D
:10264800FCD700D08D849694000E0201E86FFF0E2F
:1026580044EC59F00201E82B090EE86536EF13F057
:1026680038EF13F02BEF13F08D94000E0101436F38
:10267800000E446F000E456F000E466F000E18ECFA
:102688004CF0E806D8A44BEF13F04DEF13F039EFF8
:1026980013F0AA0E0101436F010E446F000E456F3F
:1026A800000E466F080E18EC4CF00201F26F8D9484
:1026B800000EEA6FD80EEA25D96EDA6A020EDA221F
:1026C8008DEC59F0DF6E0201EA2B030EEA656FEF1D
:1026D80013F071EF13F05EEF13F08D84F2A577EF2E
:1026E80013F079EF13F0A9EF13F0010E006F000E4D
:1026F8000101436F000E446F000E456F000E466FD8
:102708003A0E18EC4CF08D94000E0201EB6FD80EC7
:10271800EB25D96EDA6A020EDA228DEC59F0DF6EFB
:102728000201EB2B030EEB659CEF13F09EEF13F009
:102738008BEF13F08D84DA05D8B4A5EF13F0A7EF6B
:1027480013F0C4EF13F054EF17F0F205D8A4AFEF6D
:1027580013F0B1EF13F04DEF13F0DA05D8A4B7EF8B
:1027680013F0B9EF13F054EF17F0AA0EDB19D8A441
:10277800C0EF13F0C2EF13F054EF17F0020E006F22
:102788000005D8B4CAEF13F0CCEF13F0D6EF13F06E
:10279800000ECE6F000ECF6F000ED06F400ED16FBF
:1027A800DEEF13F0000ECE6F000ECF6F000ED06F6D
:1027B800000ED16FCEC24AF1CFC24BF1D0C24CF15C
:1027C800D1C24DF1290E7BEC56F00201F26FF251A5
:1027D800D8B4F1EF13F0F3EF13F0FAEF13F0F2A51A
:1027E800F8EF13F0FAEF13F0DEEF13F0F2A5FFEFB6
:1027F80013F001EF14F01DEF14F00005D8A407EF53
:1028080014F009EF14F019EF14F0020E016F000E26
:102818000101436F000E446F000E456F000E466FB6
:10282800010E18EC4CF01DEF14F0000E1C6F54EF65
:1028380017F0020E02010119D8B425EF14F027EFA2
:1028480014F056EF14F0000E0101436F000E446FB0
:10285800000E456F000E466F3A0E18EC4CF08D9442
:102868008DEC59F0C00BC00AD8A43DEF14F03FEF2F
:1028780014F044EF14F0010E0201016F47EF14F059
:10288800000E0201016F000EE96F8DEC59F0020194
:10289800E92B020EE96553EF14F055EF14F049EFF8
:1028A80014F08D84000E0101436F020E446F000E78
:1028B800456F000E466F100E18EC4CF00009D8A4B6
:1028C80068EF14F06AEF14F056EF14F0020E0201EC
:1028D800136F000E126F000E0101436F000E446F5C
:1028E800000E456F000E466F090E18EC4CF08D94E3
:1028F8008DEC59F0FE0AD8A484EF14F086EF14F09A
:102908007CEF14F0000E0201EC6F0F0EEC658FEFF8
:1029180014F091EF14F093EF14F0A0EF14F0D80E28
:10292800EC25D96EDA6A020EDA228DEC59F0DF6EE8
:102938000201EC2B89EF14F08DEC59F08DEC59F075
:102948008D84020E02010019D8A4ADEF14F0AFEF88
:1029580014F043EF15F0010EE125D46FD56B000E8E
:10296800D523D66B000ED623D76B000ED723E051A4
:102978000101726F716B71C173F172C174F1000E54
:1029880074BFFF0E756F766F73510201D413010186
:1029980074510201D513010175510201D6130101C9
:1029A80076510201D713DFC271F13F0E0101711791
:1029B80071C172F1736B746B756B73C175F172C110
:1029C80074F1736B726B72510201D413010173516C
:1029D8000201D513010174510201D6130101755189
:1029E8000201D713D4C240F1D5C241F1D6C242F197
:1029F800D7C243F1000E86EC35F040C14EF141C11B
:102A08004FF142C150F143C151F1BD0E0101526F66
:102A1800370E536F060E546F3F0E556F8EEC25F030
:102A28004EC118F24FC119F250C11AF251C11BF22E
:102A3800000E0101526F000E536F000E546F450EC9
:102A4800556F18C24EF119C24FF11AC250F11BC28C
:102A580051F18EEC25F04EC167F14FC168F150C1BC
:102A680069F151C16AF1FCEC3EF067C114F268C12A
:102A780015F269C116F26AC117F22EEF16F0DEC21E
:102A880071F1030E0101711771C172F1736B746BEF
:102A9800756B040ED8907237733774377537E82E14
:102AA8004EEF15F072C1EEF273C1EFF274C1F0F29D
:102AB80075C1F1F20201DF510101716F726BD8909B
:102AC80071377237D8907137723771C173F172C12B
:102AD80074F1000E74BFFF0E756F766F73510201AB
:102AE800EE13010174510201EF1301017551020146
:102AF800F013010176510201F113E0C271F10101F5
:102B0800D8907133D8907133300E7117010E71253A
:102B1800726F736B000E7323746B000E7423756BE6
:102B2800000E752372510201EE1301017351020167
:102B3800EF13010174510201F013010175510201F3
:102B4800F113E1C271F1030E01017117726BE2AF6B
:102B580001D0722B72317135736F020E7327EEC27A
:102B680074F1EFC275F1F0C276F1F1C277F1732B0F
:102B7800C3EF15F0D8907437753776377737732FDA
:102B8800BEEF15F074C1EEF275C1EFF276C1F0F246
:102B980077C1F1F2DDC271F10F0E7117EEC272F159
:102BA800EFC273F1F0C274F1F1C275F1712BE2EF6B
:102BB80015F0D8907237733774377537712FDDEF8A
:102BC80015F072C1EEF273C1EFF274C1F0F275C183
:102BD800F1F2EEC240F1EFC241F1F0C242F1F1C2AE
:102BE80043F1000E86EC35F040C118F241C119F2EC
:102BF80042C11AF243C11BF212C240F113C241F1A1
:102C08000101426B436B000E86EC35F040C152F176
:102C180041C153F142C154F143C155F118C24EF1BB
:102C280019C24FF11AC250F11BC251F1B9EC29F087
:102C38004EC167F14FC168F150C169F151C16AF1E4
:102C4800FCEC3EF067C114F268C115F269C116F2D6
:102C58006AC117F2000E0101436F000E446F000EA7
:102C6800456F000E466F0A0E18EC4CF08D948DECF3
:102C780059F00201F26FFE0EF219D8A446EF16F0D1
:102C880048EF16F03BEF16F0000EED6F0F0EED65F6
:102C980050EF16F052EF16F054EF16F061EF16F001
:102CA800D80EED25D96EDA6A020EDA228DEC59F0CB
:102CB800DF6E0201ED2B4AEF16F08DEC59F08DEC2A
:102CC80059F08D84D8C202F20201D9510101716F05
:102CD8000201DA51036F71C104F2DBC209F2DCC2EE
:102CE80071F10101726B736B746B71C174F1736B69
:102CF800726B716B71C105F272C106F273C107F292
:102D080074C108F2DDC271F1726B736B746B72C1BE
:102D180074F171C173F1726B716B7151020105131A
:102D280001017251020106130101735102010713D7
:102D38000101745102010813DEC271F10101726BC5
:102D4800736B746B73C174F172C173F171C172F1F9
:102D5800716B7151020105130101725102010613D1
:102D68000101735102010713010174510201081393
:102D7800DF510513E0C20AF2E1C271F10101726B81
:102D8800736B746B71C174F1736B726B716B71C11E
:102D98000BF272C10CF273C10DF274C10EF2E2C2F1
:102DA80071F1726B736B746B72C174F171C173F1F1
:102DB800726B716B715102010B13010172510201A7
:102DC8000C130101735102010D1301017451020129
:102DD8000E13E3C271F10101726B736B746B73C1F3
:102DE80074F172C173F171C172F1716B71510201A9
:102DF8000B130101725102010C13010173510201FD
:102E08000D130101745102010E13E4510B13E55126
:102E18000F0B0101716F0201E6510F6F71C110F2C2
:102E2800E751FE0B116F8D84C69AD2C2D3FFD3C26D
:102E38009BFF23EF17F0350EE82EFED70000D3A432
:102E480028EF17F02AEF17F01FEF17F0100E53ECCA
:102E580053F0010E0201256F000E216F000E226F44
:102E6800000E236F000E246F000E1D6F000E1E6FE4
:102E7800000E1F6F000E206F010E2E6F000E2A6FBE
:102E8800000E2B6F000E2C6F000E2D6F000E266F9C
:102E9800000E276F000E286F000E296F010E1C6FA1
:102EA8001200D8C001F0D9C002F0000E046E5A0E0C
:102EB800036EEAEC57F001C0DAF002C0DBF0000163
:102EC800DA510101006F0001DB510101016F026B52
:102ED800036B00518E5D0001E06F010101518F59B4
:102EE8000001E16F0101025190590001E26F0101F7
:102EF800035191590001E36FE3BF87EF17F085EFA6
:102F080017F08FEF17F0000EE06F000EE16F000E64
:102F1800E26F000EE36F000EDC6F000EDD6F000E37
:102F2800DE6F000EDF6FAD0EDC25D96E030EDD21DE
:102F3800DA6EDF6A010EDC27000EDD23DE23DF23D5
:102F4800DF51DE1109E1020EDD5DD8A0AEEF17F00A
:102F5800B0EF17F097EF17F0E0C00BF0E1C00CF0FE
:102F6800E2C00DF0E3C00EF03EEC4FF0650E00013C
:102F7800B46FFE0EB56F0FEC58F04E0E0001B46F33
:102F8800FF0EB56FE0C0B6F0E1C0B7F0E2C0B8F030
:102F9800E3C0B9F0DA51E0250101006F0001DB510F
:102FA800E1210101016F000E0001E2210101026F20
:102FB800000E0001E3210101036FFF0E002500014F
:102FC800BA6FFF0E010101210001BB6FFF0E010165
:102FD80002210001BC6FFF0E010103210001BD6F3A
:102FE8000FEC58F0000E0001DC6F000EDD6F000ED4
:102FF800DE6F000EDF6FC9EF19F0AD0E046E030E21
:10300800056EC8EC4BF0000E0001E56F000EE46F92
:103018004A0EB46FFD0EB56FE4C000F1E5C001F1D2
:103028000101003B013BF00E011700510F0B01138A
:10303800F00E0017AD0E0025D96E030E0121DA6ED1
:10304800DF50026F02510001B66FB76BE4C003F1A5
:10305800E5C004F10101033B043BF00E04170351E2
:103068000F0B0413F00E0317AE0E0325D96E030ED3
:103078000421DA6EDF50056F05510001B86FB96B96
:10308800E4C006F1E5C007F10101063B073BF00E7D
:10309800071706510F0B0713F00E0617AF0E06257C
:1030A800D96E030E0721DA6EDF50086F0851000150
:1030B800BA6FBB6BE4C009F1E5C00AF10101093B35
:1030C8000A3BF00E0A1709510F0B0A13F00E0917E5
:1030D800B00E0925D96E030E0A21DA6EDF500B6F88
:1030E8000B510001BC6FBD6BE4C00CF1E5C00DF1E4
:1030F80001010C3B0D3BF00E0D170C510F0B0D137E
:10310800F00E0C17B10E0C25D96E030E0D21DA6ED8
:10311800DF500E6F0E510001BE6FBF6BE4C00FF1A0
:10312800E5C010F101010F3B103BF00E10170F51D5
:103138000F0B1013F00E0F17B20E0F25D96E030EDA
:103148001021DA6EDF50116F11510001C06FC16B91
:10315800E4C012F1E5C013F10101123B133BF00E7C
:10316800131712510F0B1313F00E1217B30E12256B
:10317800D96E030E1321DA6EDF50146F145100015B
:10318800C26FC36BE4C015F1E5C016F10101153B30
:10319800163BF00E161715510F0B1613F00E1517D8
:1031A800B40E1525D96E030E1621DA6EDF50176F8F
:1031B80017510001C46FC56BE4C018F1E5C019F1DF
:1031C8000101183B193BF00E191718510F0B191371
:1031D800F00E1817B50E1825D96E030E1921DA6EE0
:1031E800DF501A6F1A510001C66FC76BE4C01BF19C
:1031F800E5C01CF101011B3B1C3BF00E1C171B51C9
:103208000F0B1C13F00E1B17B60E1B25D96E030EE1
:103218001C21DA6EDF501D6F1D510001C86FC96B8C
:10322800E4C01EF1E5C01FF101011E3B1F3BF00E7B
:103238001F171E510F0B1F13F00E1E17B70E1E255A
:10324800D96E030E1F21DA6EDF50206F2051000166
:10325800CA6FCB6BE4C021F1E5C022F10101213B2B
:10326800223BF00E221721510F0B2213F00E2117CB
:10327800B80E2125D96E030E2221DA6EDF50236F96
:1032880023510001CC6FCD6BE4C024F1E5C025F1DA
:103298000101243B253BF00E251724510F0B251364
:1032A800F00E2417B90E2425D96E030E2521DA6EE7
:1032B800DF50266F26510001CE6FCF6BE4C027F197
:1032C800E5C028F10101273B283BF00E28172751BC
:1032D8000F0B2813F00E2717BA0E2725D96E030EE9
:1032E8002821DA6EDF50296F29510001D06FD16B88
:1032F800E4C02AF1E5C02BF101012A3B2B3BF00E7B
:103308002B172A510F0B2B13F00E2A17BB0E2A2549
:10331800D96E030E2B21DA6EDF502C6F2C51000171
:10332800D26FD36BE4C02DF1E5C02EF101012D3B26
:103338002E3BF00E2E172D510F0B2E13F00E2D17BE
:10334800BC0E2D25D96E030E2E21DA6EDF502F6F9D
:103358002F510001D46FD56B0FEC58F00001E44BEE
:10336800E52BE5BFC1EF19F0E55109E1200EE45D59
:10337800D8A0C1EF19F0C3EF19F00CEF18F0010E47
:10338800DC27000EDD23DE23DF23DA510101006F85
:103398000001DB510101016F026B036B0051000159
:1033A800DC5D010101510001DD59010102510001FB
:1033B800DE59010103510001DF59D8A0E6EF19F0E9
:1033C800E8EF19F001EF18F083EC58F08D84C69AF5
:1033D8004A0E0001B46FFF0EB56FE0C0B6F0E1C051
:1033E800B7F0E051DA250101006F0001E151DB215E
:1033F8000101016FFF0E00250001B86FFF0E0101EA
:1034080001210001B96F0FEC58F01200000E010104
:103418007B6F000E7C6F000E7D6F000E7E6F41EF9C
:103428001CF0AC98AC94B89677C1D9FF78C1DAFF94
:10343800DECF40F1DECF41F1DECF42F1DECF43F106
:10344800000E86EC35F040C152F141C153F142C142
:1034580054F143C155F1000E01014E6F240E4F6F18
:10346800F40E506F4B0E516FB9EC29F04EC17FF13D
:103478004FC180F150C181F151C182F1000E0101AB
:10348800526F000E536F800E546F420E556F7FC1FE
:103498004EF180C14FF181C150F182C151F1B9ECB7
:1034A80029F04EC167F14FC168F150C169F151C1AE
:1034B8006AF1000E01016B6F000E6C6F800E6D6F6C
:1034C800BF0E6E6F8EEC1CF067C17BF168C17CF19A
:1034D80069C17DF16AC17EF16CEF1CF0AC98AC84D7
:1034E800B89677C1D9FF78C1DAFFDECF40F1DECFD9
:1034F80041F1DECF42F1DECF43F1000E86EC35F02C
:1035080040C152F141C153F142C154F143C155F197
:10351800000E01014E6F240E4F6FF40E506F4B0ECC
:10352800516FB9EC29F04EC17FF14FC180F150C104
:1035380081F151C182F1000E0101526F000E536FEB
:10354800800E546F410E556F7FC14EF180C14FF10F
:1035580081C150F182C151F1B9EC29F04EC167F136
:103568004FC168F150C169F151C16AF1000E010102
:103578006B6F000E6C6F800E6D6FBF0E6E6F8EECF2
:103588001CF067C17BF168C17CF169C17DF16AC13A
:103598007EF16CEF1CF0AC98AC94B88677C1D9FF7B
:1035A80078C1DAFFDECF40F1DECF41F1DECF42F164
:1035B800DECF43F1000E86EC35F040C152F141C137
:1035C80053F142C154F143C155F1000E01014E6F50
:1035D800240E4F6FF40E506F4B0E516FB9EC29F05B
:1035E8004EC17FF14FC180F150C181F151C182F1CB
:1035F800000E0101526F000E536F800E546F410E82
:10360800556F7FC14EF180C14FF181C150F182C128
:1036180051F1B9EC29F04EC167F14FC168F150C1C1
:1036280069F151C16AF1000E01016B6F000E6C6FF8
:10363800800E6D6FBF0E6E6F8EEC1CF067C17BF154
:1036480068C17CF169C17DF16AC17EF16CEF1CF043
:10365800AC98AC84B88677C1D9FF78C1DAFFDECFE1
:1036680040F1DECF41F1DECF42F1DECF43F1000E73
:1036780086EC35F040C152F141C153F142C154F1D9
:1036880043C155F1000E01014E6F240E4F6FF40E29
:10369800506F4B0E516FB9EC29F04EC17FF14FC1FD
:1036A80080F150C181F151C182F1000E0101526FC8
:1036B800000E536F800E546F400E556F7FC14EF150
:1036C80080C14FF181C150F182C151F1B9EC29F0AB
:1036D8004EC167F14FC168F150C169F151C16AF13A
:1036E800000E01016B6F000E6C6F800E6D6FBF0EC8
:1036F8006E6F8EEC1CF067C17BF168C17CF169C10B
:103708007DF16AC17EF16CEF1CF0AC88B89677C188
:10371800D9FF78C1DAFFDECF40F1DECF41F1DECF4D
:1037280042F1DECF43F1000E86EC35F040C152F194
:1037380041C153F142C154F143C155F1000E010199
:103748004E6F240E4F6FF40E506F4B0E516FB9EC45
:1037580029F04EC17FF14FC180F150C181F151C1B3
:1037680082F1000E0101526F000E536F800E546FEC
:10377800400E556F7FC14EF180C14FF181C150F1AC
:1037880082C151F1B9EC29F04EC167F14FC168F11E
:1037980050C169F151C16AF1000E01016B6F000E51
:1037A8006C6F800E6D6FBF0E6E6F8EEC1CF067C174
:1037B8007BF168C17CF169C17DF16AC17EF16CEF72
:1037C8001CF0AC88B88677C1D9FF78C1DAFFDECFA4
:1037D80040F1DECF41F1DECF42F1DECF43F1000E02
:1037E80086EC35F040C152F141C153F142C154F168
:1037F80043C155F1000E01014E6F240E4F6FF40EB8
:10380800506F4B0E516FB9EC29F04EC17FF14FC18B
:1038180080F150C181F151C182F1000E0101526F56
:10382800000E536F800E546F400E556F7FC14EF1DE
:1038380080C14FF181C150F182C151F1B9EC29F039
:103848004EC167F14FC168F150C169F151C16AF1C8
:10385800000E01016B6F000E6C6F800E6D6FBF0E56
:103868006E6F8EEC1CF067C17BF168C17CF169C199
:103878007DF16AC17EF16CEF1CF020EE04F0775107
:10388800D9267851DA22DF50796F7A6B7A51000A9B
:10389800D8B451EF1CF06CEF1CF07951000AD8B481
:1038A80015EF1AF0010AD8B472EF1AF0030AD8B467
:1038B800CFEF1AF0010AD8B42CEF1BF0070AD8B4DE
:1038C80089EF1BF0010AD8B4E5EF1BF06CEF1CF090
:1038D8007BC167F17CC168F17DC169F17EC16AF184
:1038E800FCEC3EF001016751AF6E7BC167F17CC112
:1038F80068F17DC169F17EC16AF1FCEC3EF001011D
:1039080068C167F169C168F16AC169F16A6B675199
:10391800B06E120001016A51800B736F6A516A25FB
:10392800756F69AF9AEF1CF09CEF1CF09DEF1CF0CF
:1039380075817551D8B4A3EF1CF0A5EF1CF0BAEF50
:103948001CF07529D8A4ABEF1CF0ADEF1CF0B5EF57
:103958001CF0000E676F000E686F000E696F000E96
:103968006A6F698F000E6A6FC2EF1CF0000E676FF6
:10397800000E686F000E696F000E6A6F6E51800B43
:10398800746F73517419D8B4CCEF1CF0CEEF1CF0DF
:10399800CFEF1CF0738D6E516E25746F6DAFD7EF3E
:1039A8001CF0D9EF1CF0DAEF1CF074817451D8B414
:1039B800E0EF1CF0E2EF1CF0F7EF1CF07429D8A43C
:1039C800E8EF1CF0EAEF1CF0F2EF1CF0000E6B6F52
:1039D800000E6C6F000E6D6F000E6E6F6D8F000E17
:1039E8006E6FFFEF1CF0000E6B6F000E6C6F000E19
:1039F8006D6F000E6E6F7551745DD8B006EF1DF0D7
:103A080008EF1DF02FEF1DF073AD0DEF1DF00FEF58
:103A18001DF011EF1DF0800E731B75C176F174C196
:103A280075F176C174F167C176F16BC167F176C142
:103A38006BF168C176F16CC168F176C16CF169C14E
:103A480076F16DC169F176C16DF16AC176F16EC129
:103A58006AF176C16EF1000E766F755174C16FF11F
:103A6800706B6F5F000E705B70BF44EF1DF070519C
:103A780009E11A0E6F5DD8A044EF1DF046EF1DF066
:103A88007DEF1DF06751681169116A11D8A44FEFD5
:103A98001DF052EF1DF0010E53EF1DF0000E766F72
:103AA800000E676F000E686F000E696F000E6A6F78
:103AB80074C175F186EF1DF076A165EF1DF067EF13
:103AC8001DF06DEF1DF0D89076310109766F6FEF1C
:103AD8001DF0D890763367A174EF1DF076EF1DF0D6
:103AE80077EF1DF0768F6A356A3369336833673349
:103AF800752B7451755DD8A084EF1DF086EF1DF00D
:103B080060EF1DF073BD8BEF1DF08DEF1DF0CDEF55
:103B18001DF07551D8A493EF1DF095EF1DF09FEFA0
:103B28001DF0000E676F000E686F000E696F000EC3
:103B38006A6FEEEF1EF06B5167276C5168236D5169
:103B480069236E516A236AA1ACEF1DF0AEEF1DF038
:103B58005AEF1EF076A1B3EF1DF0B5EF1DF0BBEFE5
:103B68001DF0D89076310109766FBDEF1DF0D89021
:103B7800763367A1C2EF1DF0C4EF1DF0C5EF1DF04D
:103B8800768F6A356A33693368336733752B5AEF32
:103B98001EF06B51675D6C5168596D5169596A51D6
:103BA800800A6F6F6E51800A6F59D8B0DEEF1DF032
:103BB800E0EF1DF00BEF1EF067516B5D6F6F685102
:103BC8006C59706F69516D59716F6A516E59726F86
:103BD800FF0E6F25676FFF0E7021686FFF0E712152
:103BE800696FFF0E72216A6F800E731B766D7651B6
:103BF800D8A401EF1EF003EF1EF013EF1EF0010E24
:103C08006727000E682369236A2313EF1EF06B51A0
:103C1800675F6C51685B6D51695B6E516A5B675198
:103C2800681169116A11D8A41CEF1EF01EEF1EF06E
:103C380053EF1EF07651D8A424EF1EF026EF1EF0A5
:103C480053EF1EF0000E676F000E686F000E696F6D
:103C5800000E6A6FEEEF1EF0D89067376837693745
:103C68006A3776AF3AEF1EF03CEF1EF03DEF1EF0DC
:103C7800678176A142EF1EF044EF1EF048EF1EF078
:103C8800D88076374AEF1EF0D89076377551D8B479
:103C980050EF1EF052EF1EF053EF1EF0750769AF9C
:103CA80058EF1EF05AEF1EF030EF1EF0000E746F42
:103CB80076AF61EF1EF063EF1EF07BEF1EF076C16A
:103CC8006FF17F0E6F17D8B46CEF1EF06EEF1EF019
:103CD80072EF1EF0010E746F7BEF1EF067A177EF95
:103CE8001EF079EF1EF07BEF1EF06EEF1EF07451A0
:103CF800D8B481EF1EF083EF1EF0AEEF1EF0010E78
:103D08006727000E682369236A236AA18EEF1EF0D5
:103D180090EF1EF0AEEF1EF067C16FF168C170F151
:103D280069C171F16AC172F17235723371337033DE
:103D38006F336FC167F170C168F171C169F172C108
:103D48006AF17529D8B4ABEF1EF0ADEF1EF0AEEFF7
:103D58001EF0752B7529D8B4B4EF1EF0B6EF1EF01F
:103D6800BEEF1EF07551D8A4BCEF1EF0BEEF1EF0DA
:103D7800D0EF1EF0000E676F000E686F000E696FBF
:103D8800000E6A6F7551D8A4CCEF1EF0CEEF1EF06E
:103D9800D0EF1EF0000E736F75A1D5EF1EF0D7EFB0
:103DA8001EF0DAEF1EF0698FDBEF1EF0699FD890E6
:103DB80075316A6F73AFE3EF1EF0E5EF1EF0E6EFC3
:103DC8001EF06A8F67C167F168C168F169C169F15E
:103DD8006AC16AF112002B50800B346E2B502B24D1
:103DE800366E2AAEFAEF1EF0FCEF1EF0FDEF1EF065
:103DF80036803650D8B403EF1FF005EF1FF01AEFE6
:103E08001FF03628D8A40BEF1FF00DEF1FF015EFA9
:103E18001FF0000E286E000E296E000E2A6E000E8E
:103E28002B6E2A8E000E2B6E22EF1FF0000E286ECE
:103E3800000E296E000E2A6E000E2B6E2F50800B7E
:103E4800356E34503518D8B42CEF1FF02EEF1FF014
:103E58002FEF1FF0348C2F502F24356E2EAE37EFF6
:103E68001FF039EF1FF03AEF1FF035803550D8B406
:103E780040EF1FF042EF1FF057EF1FF03528D8A48E
:103E880048EF1FF04AEF1FF052EF1FF0000E2C6EA4
:103E9800000E2D6E000E2E6E000E2F6E2E8E000E52
:103EA8002F6E5FEF1FF0000E2C6E000E2D6E000EB1
:103EB8002E6E000E2F6E3650355CD8B066EF1FF0B0
:103EC80068EF1FF08FEF1FF034AC6DEF1FF06FEF4E
:103ED8001FF071EF1FF0800E341A36C037F035C06E
:103EE80036F037C035F028C037F02CC028F037C07E
:103EF8002CF029C037F02DC029F037C02DF02AC08A
:103F080037F02EC02AF037C02EF02BC037F02FC064
:103F18002BF037C02FF0000E376E365035C030F01A
:103F2800316A305E000E315A31BEA4EF1FF03150B5
:103F380009E11A0E305CD8A0A4EF1FF0A6EF1FF01D
:103F4800DDEF1FF0285029102A102B10D8A4AFEF4E
:103F58001FF0B2EF1FF0010EB3EF1FF0000E376E27
:103F6800000E286E000E296E000E2A6E000E2B6EB3
:103F780035C036F0E6EF1FF037A0C5EF1FF0C7EFEA
:103F88001FF0CDEF1FF0D89037300109376ECFEF13
:103F98001FF0D890373228A0D4EF1FF0D6EF1FF0CB
:103FA800D7EF1FF0378E2B342B322A3229322832A2
:103FB800362A3550365CD8A0E4EF1FF0E6EF1FF044
:103FC800C0EF1FF034BCEBEF1FF0EDEF1FF02DEF4B
:103FD80020F03650D8A4F3EF1FF0F5EF1FF0FFEFF5
:103FE8001FF0000E286E000E296E000E2A6E000EBD
:103FF8002B6E4EEF21F02C5028262D5029222E50C2
:104008002A222F502B222BA00CEF20F00EEF20F0AD
:10401800BAEF20F037A013EF20F015EF20F01BEFD8
:1040280020F0D89037300109376E1DEF20F0D89076
:10403800373228A022EF20F024EF20F025EF20F0DF
:10404800378E2B342B322A3229322832362ABAEFCD
:1040580020F02C50285C2D5029582E502A582B50CF
:10406800800A306E2F50800A3058D8B03EEF20F0CA
:1040780040EF20F06BEF20F028502C5C306E295078
:104088002D58316E2A502E58326E2B502F58336EC1
:10409800FF0E3024286EFF0E3120296EFF0E3220CD
:1040A8002A6EFF0E33202B6E800E341A376C375071
:1040B800D8A461EF20F063EF20F073EF20F0010E39
:1040C8002826000E29222A222B2273EF20F02C50BA
:1040D800285E2D50295A2E502A5A2F502B5A2850D4
:1040E80029102A102B10D8A47CEF20F07EEF20F0A6
:1040F800B3EF20F03750D8A484EF20F086EF20F0FB
:10410800B3EF20F0000E286E000E296E000E2A6E06
:10411800000E2B6E4EEF21F0D890283629362A361D
:104128002B3637AE9AEF20F09CEF20F09DEF20F071
:10413800288037A0A2EF20F0A4EF20F0A8EF20F00D
:10414800D8803736AAEF20F0D89037363650D8B412
:10415800B0EF20F0B2EF20F0B3EF20F036062AAE31
:10416800B8EF20F0BAEF20F090EF20F0000E356E97
:1041780037AEC1EF20F0C3EF20F0DBEF20F037C0FF
:1041880030F07F0E3016D8B4CCEF20F0CEEF20F010
:10419800D2EF20F0010E356EDBEF20F028A0D7EF2C
:1041A80020F0D9EF20F0DBEF20F0CEEF20F03550F3
:1041B800D8B4E1EF20F0E3EF20F00EEF21F0010E8C
:1041C8002826000E29222A222B222BA0EEEF20F0EF
:1041D800F0EF20F00EEF21F028C030F029C031F0C8
:1041E8002AC032F02BC033F033343332323231321A
:1041F800303230C028F031C029F032C02AF033C044
:104208002BF03628D8B40BEF21F00DEF21F00EEF8C
:1042180021F0362A3628D8B414EF21F016EF21F011
:104228001EEF21F03650D8A41CEF21F01EEF21F02C
:1042380030EF21F0000E286E000E296E000E2A6E57
:10424800000E2B6E3650D8A42CEF21F02EEF21F063
:1042580030EF21F0000E346E36A035EF21F037EF45
:1042680021F03AEF21F02A8E3BEF21F02A9ED890D8
:1042780036302B6E34AE43EF21F045EF21F046EF98
:1042880021F02B8E28C028F029C029F02AC02AF056
:104298002BC02BF01200D2C2D9FFD3C2DAFFDECF77
:1042A800F6FFDDCFF7FFF86A0800F550250AD8A415
:1042B80060EF21F062EF21F051EF23F0D2C2D9FF75
:1042C800D3C2DAFFDE2A000EDD22000E0101976F4D
:1042D800000E966F96C1B2F198699969000E0201B5
:1042E800D86F97EF21F00101B283D2C2D9FFD3C2B0
:1042F800DAFFDE2A000EDD2297EF21F0010ED86FDB
:1043080097EF21F0D2C2D9FFD3C2DAFFDECFF6FF92
:10431800DDCFF7FFF86A0800F550300AD8B477EF18
:1043280021F082EF21F00201D851D8B49EEF21F09C
:10433800A0EF21F086EF21F0D2C246F1D3C247F1B7
:10434800D4C248F1D5C249F145EC45F046C196F1D1
:1043580047C197F1010197BFB6EF21F0B4EF21F003
:10436800BBEF21F0B281966D971FD8B0972BD2C2C0
:10437800D9FFD3C2DAFFDECFF6FFDDCFF7FFF86A49
:104388000800F5502E0AD8A4CCEF21F0CEEF21F08A
:10439800E3EF21F0D2C2D9FFD3C2DAFFDE2A000E42
:1043A800DD22D2C246F1D3C247F1D4C248F1D5C208
:1043B80049F145EC45F046C198F147C199F1D2C29F
:1043C800D9FFD3C2DAFFDECFDEF2DDCFDFF2DEC205
:1043D800F6FFDFC2F7FFF86A0800F550640AD8B4A0
:1043E800F8EF21F0FAEF21F009EF22F0DEC2F6FF34
:1043F800DFC2F7FFF86A0800F550690AD8A407EF8A
:1044080022F009EF22F03CEF22F0D4C2D9FFD5C246
:10441800DAFFDFCFD6F2020EDE26DFCFD7F2000EAC
:10442800DD22D6C2D9FFD7C2DAFFDECFDAF2DDCF7E
:10443800DBF2010E0201DE25D66F000EDF21D76FF9
:10444800D2C2D9FFD3C2DAFFD6C2DEFFD7C2DDFFA0
:10445800D0C25BF1D1C25CF1DAC25DF1DBC25EF1C0
:10446800C5EC33F05BC1D0F25CC1D1F271EF23F03F
:10447800DEC2F6FFDFC2F7FFF86A0800F550780AD7
:10448800D8A449EF22F04BEF22F08DEF22F0D4C2EE
:10449800D9FFD5C2DAFFDFCFD6F2020EDE26DFCF94
:1044A800D7F2000EDD22D6C2D9FFD7C2DAFFDECF9F
:1044B800DAF2DDCFDBF2010E0201DE25D66F000E47
:1044C800DF21D76FD2C2D9FFD3C2DAFFD6C2DEFF4F
:1044D800D7C2DDFF80EF22F0D0C25BF1D1C25CF120
:1044E800DAC25DF1DBC25EF123EC3AF05BC1D0F2D7
:1044F8005CC1D1F271EF23F0DEC2F6FFDFC2F7FF35
:10450800F86A0800F550780AD8B470EF22F08DEFF9
:1045180022F0D2C2D9FFD3C2DAFFDECFDEF2DDCF7E
:10452800DFF2DEC2F6FFDFC2F7FFF86A0800F5CF58
:10453800D9F2ABEF22F0DE4BDF2BBBEF22F06C0E93
:10454800D96FBBEF22F0000ED96FBBEF22F002014A
:10455800D9514C0AD8B49FEF22F02A0AD8B4A3EF55
:1045680022F00A0AD8B49FEF22F0A7EF22F0DEC2A9
:10457800F6FFDFC2F7FFF86A0800F550660AD8A40C
:10458800C8EF22F0CAEF22F044EF23F000EF23F047
:10459800D4C2D9FFD5C2DAFFDFCFD6F2040EDE26A9
:1045A800DFCFD7F2000EDD22D6C2D9FFD7C2DAFF9D
:1045B800DECFDAF2DECFDBF2DECFDCF2DECFDDF209
:1045C8000BEF23F0D4C2D9FFD5C2DAFFDFCFD6F282
:1045D800040EDE26DFCFD7F2000EDD22D6C2D9FFC9
:1045E800D7C2DAFFDECFDAF2DECFDBF2DECFDCF2E3
:1045F800DECFDDF20BEF23F0D9514C0AD8B4E6EF49
:1046080022F0200AD8B4CCEF22F00BEF23F0010EF1
:10461800DE25D66F000EDF21D76FD2C2D9FFD3C2F5
:10462800DAFFD6C2DEFFD7C2DDFF37EF23F0D0C2F4
:104638007FF1D1C280F1DAC281F1DBC282F1DCC242
:1046480083F1DDC284F1DEC2F6FFDFC2F7FFF86A4C
:104658000800F5CF85F13BEC08F07FC1D0F280C1AE
:10466800D1F271EF23F0DEC2F6FFDFC2F7FFF86A7E
:104678000800F550660AD8B41BEF23F044EF23F086
:10468800D2C2D9FFD3C2DAFFDE2A000EDD22000E25
:10469800D16F000ED06F71EF23F0D2C2D9FFD3C211
:1046A800DAFFDECFF6FFDDCFF7FFF86A0800F55036
:1046B8000101426F436BD0C244F1D1C245F19BEC7A
:1046C80047F0D2C2D9FFD3C2DAFFDE2A000EDD22BC
:1046D800000E0201D16F010ED06F120070C0D9FF19
:1046E80071C0DAFFDECFF6FFDDCFF7FFF86A08000A
:1046F800F550250AD8A483EF23F085EF23F06FEF58
:1047080025F070C0D9FF71C0DAFFDE2A000EDD2265
:10471800000E0101976F000E966F96C1B2F198696D
:104728009969000E766EB9EF23F00101B28370C06B
:10473800D9FF71C0DAFFDE2A000EDD22B9EF23F0BF
:10474800010E766EB9EF23F070C0D9FF71C0DAFFA1
:10475800DECFF6FFDDCFF7FFF86A0800F550300A24
:10476800D8B499EF23F0A4EF23F07650D8B4BFEF74
:1047780023F0C1EF23F0A8EF23F070C007F071C059
:1047880008F072C009F073C00AF012EC46F007C0D6
:1047980096F108C097F1010197BFD7EF23F0D5EF45
:1047A80023F0DCEF23F0B281966D971FD8B0972BDA
:1047B80070C0D9FF71C0DAFFDECFF6FFDDCFF7FF9B
:1047C800F86A0800F5502E0AD8A4EDEF23F0EFEFB1
:1047D80023F004EF24F070C0D9FF71C0DAFFDE2A9D
:1047E800000EDD2270C007F071C008F072C009F039
:1047F80073C00AF012EC46F007C098F108C099F1AE
:1048080070C0D9FF71C0DAFFDECF7CF0DDCF7DF05C
:104818007CC0F6FF7DC0F7FFF86A0800F550640A0F
:10482800D8B419EF24F01BEF24F02AEF24F07CC051
:10483800F6FF7DC0F7FFF86A0800F550690AD8A4AA
:1048480028EF24F02AEF24F05CEF24F072C0D9FF9F
:1048580073C0DAFFDFCF74F0020EDE26DFCF75F00B
:10486800000EDD2274C0D9FF75C0DAFFDECF78F004
:10487800DDCF79F0010E7C24746E000E7D20756EFC
:1048880070C0D9FF71C0DAFF74C0DEFF75C0DDFFEC
:104898006EC01CF06FC01DF078C01EF079C01FF00C
:1048A800A6EC34F01CC06EF01DC06FF08DEF25F043
:1048B8007CC0F6FF7DC0F7FFF86A0800F550780A5B
:1048C800D8A469EF24F06BEF24F0ACEF24F072C0A9
:1048D800D9FF73C0DAFFDFCF74F0020EDE26DFCF18
:1048E80075F0000EDD2274C0D9FF75C0DAFFDECF87
:1048F80078F0DDCF79F0010E7C24746E000E7D20F7
:10490800756E70C0D9FF71C0DAFF74C0DEFF75C064
:10491800DDFF9FEF24F06EC01CF06FC01DF078C063
:104928001EF079C01FF0CAEC3AF01CC06EF01DC032
:104938006FF08DEF25F07CC0F6FF7DC0F7FFF86AB9
:104948000800F550780AD8B48FEF24F0ACEF24F0C3
:1049580070C0D9FF71C0DAFFDECF7CF0DDCF7DF00B
:104968007CC0F6FF7DC0F7FFF86A0800F5CF77F046
:10497800CAEF24F07C4A7D2AD9EF24F06C0E776EBA
:10498800D9EF24F0000E776ED9EF24F077504C0A57
:10499800D8B4BEEF24F02A0AD8B4C2EF24F00A0A29
:1049A800D8B4BEEF24F0C6EF24F07CC0F6FF7DC07B
:1049B800F7FFF86A0800F550660AD8A4E6EF24F075
:1049C800E8EF24F062EF25F01EEF25F072C0D9FF62
:1049D80073C0DAFFDFCF74F0040EDE26DFCF75F088
:1049E800000EDD2274C0D9FF75C0DAFFDECF78F083
:1049F800DECF79F0DECF7AF0DECF7BF029EF25F03D
:104A080072C0D9FF73C0DAFFDFCF74F0040EDE2660
:104A1800DFCF75F0000EDD2274C0D9FF75C0DAFF54
:104A2800DECF78F0DECF79F0DECF7AF0DECF7BF024
:104A380029EF25F077504C0AD8B404EF25F0200A66
:104A4800D8B4EAEF24F029EF25F0010E7C24746E27
:104A5800000E7D20756E70C0D9FF71C0DAFF74C07A
:104A6800DEFF75C0DDFF55EF25F06EC065F06FC045
:104A780066F078C067F079C068F07AC069F07BC0EA
:104A88006AF07CC0F6FF7DC0F7FFF86A0800F5CF32
:104A98006BF0C5EC0DF065C06EF066C06FF08DEF81
:104AA80025F07CC0F6FF7DC0F7FFF86A0800F550D6
:104AB800660AD8B439EF25F062EF25F070C0D9FF47
:104AC80071C0DAFFDE2A000EDD22000E6F6E000EC6
:104AD8006E6E8DEF25F070C0D9FF71C0DAFFDECFA2
:104AE800F6FFDDCFF7FFF86A0800F550036E046A99
:104AF8006EC005F06FC006F056EC48F070C0D9FFE4
:104B080071C0DAFFDE2A000EDD22000E6F6E010E84
:104B18006E6E120001015151800B5A6F515151258F
:104B2800606F50AF9AEF25F09CEF25F09DEF25F0D0
:104B380060816051D8B4A3EF25F0A5EF25F0B8EF58
:104B480025F06029D8A4ABEF25F0ADEF25F0B5EF3F
:104B580025F0000E4E6F000E4F6F000E506F000EC6
:104B6800516F508FC0EF25F0000E4E6F000E4F6F43
:104B7800000E506F000E516F5551800B5A1B555146
:104B880055255B6F54AFCBEF25F0CDEF25F0CEEF79
:104B980025F05B815B51D8B4D4EF25F0D6EF25F032
:104BA800E9EF25F05B29D8A4DCEF25F0DEEF25F04E
:104BB800E6EF25F0000E526F000E536F000E546F93
:104BC800000E556F548FF1EF25F0000E526F000E56
:104BD800536F000E546F000E556F5B51D8B4F7EF4A
:104BE80025F0F9EF25F001EF26F06051D8A4FFEF8A
:104BF80025F001EF26F00BEF26F0000E4E6F000EA9
:104C08004F6F000E506F000E516FA3EF27F05451F5
:104C18004E03F3CF65F1F4CF66F165515C6F5D6BC0
:104C28005E6B5F6B6651616F626B636B646B535154
:104C38004F03F3CF65F1F4CF66F165515C27000EA1
:104C48005D235E235F2366516127000E6223632381
:104C5800642352515003F3CF65F1F4CF66F16551E7
:104C68005C27000E5D235E235F2366516127000EDB
:104C78006223632364235EC15FF15DC15EF15CC1A1
:104C88005DF15C6B52514F03F3CF65F1F4CF66F1E0
:104C980065515C2766515D23000E5E23000E5F237D
:104CA80053514E03F3CF65F1F4CF66F165515C279C
:104CB80066515D23000E5E23000E5F235EC15FF127
:104CC8005DC15EF15CC15DF15C6B52514E03F3CF87
:104CD80065F1F4CF66F165515C2766515D23000EDE
:104CE8005E23000E5F2354514F03F3CF65F1F4CFD9
:104CF80066F16551612766516223000E6323000E39
:104D0800642353515003F3CF65F1F4CF66F1655135
:104D1800612766516223000E6323000E64235451F9
:104D28005003F3CF65F1F4CF66F16551566F6651C4
:104D3800576F586B596B58C159F157C158F156C143
:104D480057F1566B565161275751622358516323C7
:104D5800595164235CC156F15DC157F15EC158F1E8
:104D68005FC159F1190EBEEF26F0D8905933583368
:104D780057335633E82EB9EF26F05651612757516D
:104D8800622358516323595164235EC15FF15DC1A9
:104D98005EF15CC15DF15C6B5B5160C156F1576BB4
:104DA8005627000E5723820E5625656FFF0E572192
:104DB800666FF4EF26F0D89061376237633764374F
:104DC8005FAFE9EF26F0EBEF26F0ECEF26F061811C
:104DD800D8905C375D375E375F376507D8A06607C0
:104DE80063AFF9EF26F0FBEF26F0DFEF26F0000EB9
:104DF8005B6F5FAF02EF27F004EF27F028EF27F093
:104E0800FF0E5C15566FFF0E5D15576FFF0E5E1592
:104E1800586F7F0E5F15596F565157115811591118
:104E2800D8B419EF27F01BEF27F01FEF27F0010E7A
:104E38005B6F28EF27F061A124EF27F026EF27F01A
:104E480028EF27F01BEF27F05B51D8B42EEF27F09F
:104E580030EF27F054EF27F0010E6127000E622390
:104E68006323642364A13BEF27F03DEF27F054EF61
:104E780027F061C156F162C157F163C158F164C1AD
:104E880059F15935593358335733563356C161F1AF
:104E980057C162F158C163F159C164F1654B662B82
:104EA80066BF5FEF27F0665108E16529D8A05FEF7C
:104EB80027F061EF27F06BEF27F0000E616F000E0F
:104EC800626F800E636F7F0E646F99EF27F066BF85
:104ED80078EF27F0665106E16505D8B076EF27F040
:104EE80078EF27F084EF27F0000E616F000E626FF5
:104EF800000E636F000E646F000E5A6F99EF27F073
:104F080065C160F1FF0E6117FF0E62177F0E631710
:104F1800000E641760A193EF27F095EF27F096EF46
:104F280027F0638FD8906031646F5A51641361C160
:104F38004EF162C14FF163C150F164C151F11200E9
:104F48004350800B4C6E43504324526E42AEAFEF39
:104F580027F0B1EF27F0B2EF27F052805250D8B4C3
:104F6800B8EF27F0BAEF27F0CDEF27F05228D8A4F2
:104F7800C0EF27F0C2EF27F0CAEF27F0000E406E0F
:104F8800000E416E000E426E000E436E428ED5EF4B
:104F980027F0000E406E000E416E000E426E000EAD
:104FA800436E4750800B4C1A475047244D6E46AE0F
:104FB800E0EF27F0E2EF27F0E3EF27F04D804D50C8
:104FC800D8B4E9EF27F0EBEF27F0FEEF27F04D28F4
:104FD800D8A4F1EF27F0F3EF27F0FBEF27F0000E4E
:104FE800446E000E456E000E466E000E476E468EED
:104FF80006EF28F0000E446E000E456E000E466E59
:10500800000E476E4D50D8B40CEF28F00EEF28F084
:1050180016EF28F05250D8A414EF28F016EF28F015
:1050280020EF28F0000E406E000E416E000E426E1A
:10503800000E436EB8EF29F046504002F3CF57F008
:10504800F4CF58F057504E6E4F6A506A516A585014
:10505800536E546A556A566A45504102F3CF57F069
:10506800F4CF58F057504E26000E4F2250225122AE
:1050780058505326000E54225522562244504202BC
:10508800F3CF57F0F4CF58F057504E26000E4F226A
:105098005022512258505326000E5422552256228F
:1050A80050C051F04FC050F04EC04FF04E6A4450BF
:1050B8004102F3CF57F0F4CF58F057504E265850CE
:1050C8004F22000E5022000E512245504002F3CFCD
:1050D80057F0F4CF58F057504E2658504F22000E34
:1050E8005022000E512250C051F04FC050F04EC017
:1050F8004FF04E6A44504002F3CF57F0F4CF58F0C7
:1051080057504E2658504F22000E5022000E512262
:1051180046504102F3CF57F0F4CF58F0575053267A
:1051280058505422000E5522000E56224550420275
:10513800F3CF57F0F4CF58F0575053265850542215
:10514800000E5522000E562246504202F3CF57F069
:10515800F4CF58F05750486E5850496E4A6A4B6A17
:105168004AC04BF049C04AF048C049F0486A485024
:105178005326495054224A5055224B5056224EC06D
:1051880048F04FC049F050C04AF051C04BF0190EDA
:10519800D3EF28F0D8904B324A3249324832E82EC1
:1051A800CEEF28F048505326495054224A505522F1
:1051B8004B50562250C051F04FC050F04EC04FF0E7
:1051C8004E6A4D5052C048F0496A4826000E49229E
:1051D800820E4824576EFF0E4920586E09EF29F0B9
:1051E800D890533654365536563651AEFEEF28F021
:1051F80000EF29F001EF29F05380D8904E364F3652
:10520800503651365706D8A0580655AE0EEF29F03D
:1052180010EF29F0F4EF28F0000E4D6E51AE17EFA5
:1052280029F019EF29F03DEF29F0FF0E4E14486ED2
:10523800FF0E4F14496EFF0E50144A6E7F0E511424
:105248004B6E485049104A104B10D8B42EEF29F035
:1052580030EF29F034EF29F0010E4D6E3DEF29F0C3
:1052680053A039EF29F03BEF29F03DEF29F030EF5B
:1052780029F04D50D8B443EF29F045EF29F069EFF4
:1052880029F0010E5326000E54225522562256A00C
:1052980050EF29F052EF29F069EF29F053C048F098
:1052A80054C049F055C04AF056C04BF04B344B320D
:1052B8004A324932483248C053F049C054F04AC0D3
:1052C80055F04BC056F0574A582A58BE74EF29F08B
:1052D800585008E15728D8A074EF29F076EF29F044
:1052E80080EF29F0000E536E000E546E800E556E3E
:1052F8007F0E566EAEEF29F058BE8DEF29F058504C
:1053080006E15704D8B08BEF29F08DEF29F099EF1B
:1053180029F0000E536E000E546E000E556E000EEE
:10532800566E000E4C6EAEEF29F057C052F0FF0ECD
:105338005316FF0E54167F0E5516000E561652A021
:10534800A8EF29F0AAEF29F0ABEF29F0558ED890F5
:105358005230566E4C50561253C040F054C041F073
:1053680055C042F056C043F0120001015151800B64
:105378005E6F51515125656F50AFC5EF29F0C7EFEA
:1053880029F0C8EF29F065816551D8B4CEEF29F02E
:10539800D0EF29F0E5EF29F06529D8A4D6EF29F058
:1053A800D8EF29F0E0EF29F0000E4E6F000E4F6F96
:1053B800000E506F000E516F508F000E516FEDEFC1
:1053C80029F0000E4E6F000E4F6F000E506F000E4A
:1053D800516F5551800B5E1B55515525666F54AF63
:1053E800F8EF29F0FAEF29F0FBEF29F06681665112
:1053F800D8B401EF2AF003EF2AF018EF2AF0662953
:10540800D8A409EF2AF00BEF2AF013EF2AF0000EC8
:10541800526F000E536F000E546F000E556F548F6D
:10542800000E556F20EF2AF0000E526F000E536FDA
:10543800000E546F000E556F5251531154115511EF
:10544800D8A429EF2AF02BEF2AF043EF2AF0000E18
:105458004E6F000E4F6F000E506F000E516F800E92
:1054680050137F0E51135E5151134EC14EF14FC16F
:105478004FF150C150F151C151F186EF2BF06551F8
:10548800D8A449EF2AF04BEF2AF055EF2AF0000E86
:105498004E6F000E4F6F000E506F000E516F86EF6B
:1054A8002BF0665165C156F1576B565F000E575B7E
:1054B8007F0E56255F6F000E5721606F4EC15AF15F
:1054C8004FC15BF150C15CF151C15DF1000E4E6FEF
:1054D800000E4F6F000E506F000E516F000E616F7F
:1054E800000E626F000E636F000E646F000E666F31
:1054F800B6EF2AF06651D8B484EF2AF086EF2AF086
:105508009DEF2AF0D8905A375B375C375D37D890D3
:105518004E374F375037513764AF95EF2AF097EF32
:105528002AF098EF2AF04E81D890613762376337B6
:10553800643752515A5D53515B5954515C59555116
:105548005D59D8A0AAEF2AF0ACEF2AF0B5EF2AF0FF
:10555800648D52515A5F53515B5B54515C5B55519A
:105568005D5B662B190E6665BCEF2AF0BEEF2AF06C
:105578007EEF2AF05A515B115C115D11D8B4C7EF68
:105588002AF0C9EF2AF0E1EF2AF06181E1EF2AF071
:10559800D8904E374F375037513764AFD6EF2AF08F
:1055A800D8EF2AF0D9EF2AF04E81D89061376237C8
:1055B800633764375F07D8A0600750AFE6EF2AF07B
:1055C800E8EF2AF0CCEF2AF0000E666F64AFEFEF39
:1055D8002AF0F1EF2AF015EF2BF0FF0E6115566F48
:1055E800FF0E6215576FFF0E6315586F7F0E641517
:1055F800596F5651571158115911D8B406EF2BF05D
:1056080008EF2BF00CEF2BF0010E666F15EF2BF067
:105618004EA111EF2BF013EF2BF015EF2BF008EF45
:105628002BF06651D8B41BEF2BF01DEF2BF041EF98
:105638002BF0010E4E27000E4F235023512351A16A
:1056480028EF2BF02AEF2BF041EF2BF04EC156F14B
:105658004FC157F150C158F151C159F1593559331A
:1056680058335733563356C14EF157C14FF158C1CD
:1056780050F159C151F15F4B602B60BF4CEF2BF0DB
:10568800605108E15F29D8A04CEF2BF04EEF2BF0CA
:1056980059EF2BF0000E606F5F69000E4E6F000E21
:1056A8004F6F000E506F000E516F60BF66EF2BF00A
:1056B800605106E15F05D8B064EF2BF066EF2BF080
:1056C80074EF2BF0000E606F000E5F6F000E4E6FD0
:1056D800000E4F6F000E506F000E516F000E5E6F80
:1056E8005FC165F165A17BEF2BF07DEF2BF080EFBB
:1056F8002BF0508F81EF2BF0509FD8906531516F70
:1057080037EF2AF012001250800B1F6E125012242D
:10571800266E11AE92EF2BF094EF2BF095EF2BF055
:1057280026802650D8B49BEF2BF09DEF2BF0B2EFDC
:105738002BF02628D8A4A3EF2BF0A5EF2BF0ADEF84
:105748002BF0000E0F6E000E106E000E116E000E84
:10575800126E118E000E126EBAEF2BF0000E0F6E45
:10576800000E106E000E116E000E126E1650800B99
:105778001F1A16501624276E15AEC5EF2BF0C7EF6B
:105788002BF0C8EF2BF027802750D8B4CEEF2BF0A2
:10579800D0EF2BF0E5EF2BF02728D8A4D6EF2BF08D
:1057A800D8EF2BF0E0EF2BF0000E136E000E146E06
:1057B800000E156E000E166E158E000E166EEDEFAD
:1057C8002BF0000E136E000E146E000E156E000EF8
:1057D800166E1350141015101610D8A4F6EF2BF0EF
:1057E800F8EF2BF010EF2CF0000E0F6E000E106E7D
:1057F800000E116E000E126E800E11127F0E121224
:105808001F5012120FC00FF010C010F011C011F08D
:1058180012C012F053EF2DF02650D8A416EF2CF03A
:1058280018EF2CF022EF2CF0000E0F6E000E106E09
:10583800000E116E000E126E53EF2DF0275026C089
:1058480017F0186A175E000E185A7F0E1724206E7C
:10585800000E1820216E0FC01BF010C01CF011C0E4
:105868001DF012C01EF0000E0F6E000E106E000E1E
:10587800116E000E126E000E226E000E236E000EC8
:10588800246E000E256E000E276E83EF2CF0275035
:10589800D8B451EF2CF053EF2CF06AEF2CF0D890DD
:1058A8001B361C361D361E36D8900F36103611366C
:1058B800123625AE62EF2CF064EF2CF065EF2CF079
:1058C8000F80D890223623362436253613501B5C99
:1058D80014501C5815501D5816501E58D8A077EF54
:1058E8002CF079EF2CF082EF2CF0258C13501B5EF6
:1058F80014501C5A15501D5A16501E5A272A190E94
:10590800276489EF2CF08BEF2CF04BEF2CF01B5019
:105918001C101D101E10D8B494EF2CF096EF2CF02C
:10592800AEEF2CF02280AEEF2CF0D8900F36103668
:105938001136123625AEA3EF2CF0A5EF2CF0A6EF0A
:105948002CF00F80D89022362336243625362006B0
:10595800D8A0210611AEB3EF2CF0B5EF2CF099EFDB
:105968002CF0000E276E25AEBCEF2CF0BEEF2CF00D
:10597800E2EF2CF0FF0E2214176EFF0E2314186EA0
:10598800FF0E2414196E7F0E25141A6E1750181066
:1059980019101A10D8B4D3EF2CF0D5EF2CF0D9EF9A
:1059A8002CF0010E276EE2EF2CF00FA0DEEF2CF0AA
:1059B800E0EF2CF0E2EF2CF0D5EF2CF02750D8B424
:1059C800E8EF2CF0EAEF2CF00EEF2DF0010E0F2689
:1059D800000E10221122122212A0F5EF2CF0F7EF80
:1059E8002CF00EEF2DF00FC017F010C018F011C0FA
:1059F80019F012C01AF01A341A3219321832173242
:105A080017C00FF018C010F019C011F01AC012F02A
:105A1800204A212A21BE19EF2DF0215008E1202823
:105A2800D8A019EF2DF01BEF2DF026EF2DF0000E6A
:105A3800216E2068000E0F6E000E106E000E116EA3
:105A4800000E126E21BE33EF2DF0215006E1200426
:105A5800D8B031EF2DF033EF2DF041EF2DF0000EDF
:105A6800216E000E206E000E0F6E000E106E000EDE
:105A7800116E000E126E000E1F6E20C026F026A0BA
:105A880048EF2DF04AEF2DF04DEF2DF0118E4EEF2F
:105A98002DF0119ED8902630126E04EF2CF01200D3
:105AA80003EC13F002011C51D8B45DEF2DF05FEF49
:105AB8002DF00BEF2FF0D40EE86FFD0EE96F88EC98
:105AC80057F08BEF2DF00C0E0201E86FFE0EE96F18
:105AD80088EC57F0A6EF2DF0FE0E0201E86FFE0EDF
