:0400000007EF00F016
:100008007F823AED35F0ECEF40F0000E01016D6FA4
:10001800000E6C6F4EC17EF14FC17FF150C180F16F
:1000280051C181F181BF1DEF00F01BEF00F033EFEC
:1000380000F0000E6D6F010E6C6F7EC100F17FC184
:1000480001F180C102F181C103F1B5EC47F000C1B3
:100058007EF101C17FF102C180F103C181F1000E7F
:100068000101856F000E846FE4C170F1E5C171F183
:100078006C516D11D8A443EF00F045EF00F04CEF40
:1000880000F0E8A54AEF00F04CEF00F066EF00F052
:100098006C516D11D8A453EF00F055EF00F05BEFF1
:1000A80000F0000E596F2B0E586F5FEF00F0000E36
:1000B800596F2D0E586F58C15FF2844B852B70070E
:1000C800D8A071077EC100F17FC101F180C102F1A2
:1000D80081C103F13BEC34F0010100050111D8A402
:1000E80078EF00F07AEF00F0C4EF00F0BF0E536F26
:1000F800FF0E546F5251556F566B5351552754513B
:100108005623565107E11A0E555DD8B08EEF00F010
:1001180090EF00F09EEF00F05F0E8425006F020E56
:100128008521016FEA0E026FFF0E036F1AEC43F090
:10013800AAEF00F05F0E8425006F020E8521016F83
:10014800F20E026FFF0E036F1AEC43F00101FD0E71
:100158007027FF0E71234CC112F14DC113F15F0ED0
:100168000101146F020E156F70C116F171C117F1FC
:100178008CEC3AF012C14CF113C14DF113EF06F0BB
:100188007EC100F17FC101F180C102F181C103F19B
:100198003BEC34F0010100510111D8A4D6EF00F076
:1001A800D8EF00F00AEF01F0BF0E536FFF0E546F47
:1001B8005251556F566B535155275451562356512A
:1001C80007E11A0E555DD8B0ECEF00F0EEEF00F045
:1001D800FCEF00F05F0E8425006F020E8521016F91
:1001E800EE0E026FFF0E036F1AEC43F0AAEF00F059
:1001F8005F0E8425006F020E8521016FF60E026FD7
:10020800FF0E036F1AEC43F0AAEF00F0000E866FA2
:10021800000E876F800E886F3F0E896F000E836F08
:10022800000E826F7EC100F17FC101F180C102F131
:1002380081C103F1000E046F000E056F000E066FFA
:10024800000E076F9DEC3EF00101D8B02EEF01F0D3
:1002580030EF01F0B5EF01F04FEF01F086C127F163
:1002680087C128F188C129F189C12AF1000E2B6FB5
:10027800000E2C6F200E2D6F410E2E6FE4EC1AF03D
:1002880027C186F128C187F129C188F12AC189F1DE
:100298000101824B832B7EC140F17FC141F180C1B6
:1002A80042F181C143F1000E2B6F000E2C6F200E1E
:1002B8002D6F410E2E6F86C127F187C128F188C1A5
:1002C80029F189C12AF1E4EC1AF027C144F128C1C7
:1002D80045F129C146F12AC147F1B3EC32F00101D9
:1002E800D8B079EF01F07BEF01F032EF01F09BEF2E
:1002F80001F086C10EF187C10FF188C110F189C1E3
:1003080011F1000E126F000E136F200E146F410EC4
:10031800156F0FEC1FF00EC186F10FC187F110C1E8
:1003280088F111C189F101018207D8A083077EC134
:1003380040F17FC141F180C142F181C143F186C1E1
:1003480044F187C145F188C146F189C147F1B3EC51
:1003580032F00101D8A0B3EF01F0B5EF01F07DEF65
:1003680001F052C106F1076BC1EC45F001010651DD
:10037800736F73C172F1670E7319D8A4C6EF01F0D9
:10038800C8EF01F0EEEF01F0E651E711D8A4CFEF86
:1003980001F0D1EF01F0D5EF01F0000EE76F010E8B
:1003A800E66FE7BFE2EF01F0E75106E1E605D8B0F6
:1003B800E0EF01F0E2EF01F0E8EF01F0000E6F6FFF
:1003C800060E6E6FF7EF01F0E6C16EF1E7C16FF14F
:1003D800F7EF01F0E7BFF3EF01F0F5EF01F0E2EF1F
:1003E80001F0E8EF01F0670E7319D8A4FEEF01F0F1
:1003F80000EF02F02FEF02F083AF0EEF02F0FC0ED9
:10040800825DFF0E8359D8A00CEF02F00EEF02F0C8
:100418002DEF02F0FF0E536FFF0E546F6EC155F1B2
:100428006FC156F153515527545156238251555D8A
:100438005651800A576F8351800A5759D8A027EF21
:1004480002F029EF02F02DEF02F0660E726F2FEF27
:1004580002F0650E726F6EC164F16FC165F1670ECF
:100468007319D8A43AEF02F03CEF02F04CEF02F017
:10047800660E7219D8A443EF02F045EF02F04EEF72
:1004880002F083BF4CEF02F04AEF02F04EEF02F0A9
:10049800644B652B660E7219D8A455EF02F057EF1E
:1004A80002F077EF02F083BF5EEF02F05CEF02F03C
:1004B8006AEF02F0000E866F000E876F800E886F5D
:1004C8003F0E896F000E836F000E826F670E7319DF
:1004D800D8B471EF02F073EF02F077EF02F08251B7
:1004E800642783516523000E7D6F000E7C6F7EC1EB
:1004F80074F17FC175F180C176F181C177F186C150
:1005080066F187C167F188C168F189C169F109EFAE
:1005180003F074C10EF175C10FF176C110F177C106
:1005280011F186C112F187C113F188C114F189C193
:1005380015F10FEC1FF00EC127F10FC128F110C102
:1005480029F111C12AF1EBEC26F027C178F128C175
:1005580079F129C17AF12AC17BF178C100F179C119
:1005680001F17AC102F17BC103F12FEC32F000C135
:100578006AF101C16BF174C140F175C141F176C1F5
:1005880042F177C143F186C12BF187C12CF188C1B3
:100598002DF189C12EF178C127F179C128F17AC1ED
:1005A80029F17BC12AF1E4EC1AF027C144F128C1F2
:1005B80045F129C146F12AC147F109EC46F040C18D
:1005C80074F141C175F142C176F143C177F186C139
:1005D8000EF187C10FF188C110F189C111F1000E28
:1005E8000101126F000E136F200E146F410E156F6C
:1005F8000FEC1FF00EC186F10FC187F110C188F111
:1006080011C189F101017C4B7D2B64517C5D7D51C9
:10061800800A536F6551800A5359D8A016EF03F02A
:1006280018EF03F08DEF02F086C127F187C128F19A
:1006380088C129F189C12AF1000E2B6F000E2C6F99
:10064800A00E2D6F400E2E6FE4EC1AF027C178F142
:1006580028C179F129C17AF12AC17BF174C140F12D
:1006680075C141F176C142F177C143F178C144F1D6
:1006780079C145F17AC146F17BC147F1B3EC32F05B
:100688000101D8B04AEF03F04CEF03F056EF03F046
:10069800000E786F000E796F000E7A6F000E7B6F78
:1006A8007FEF03F074C100F175C101F176C102F169
:1006B80077C103F178C104F179C105F17AC106F176
:1006C8007BC107F19DEC3EF00101D8A06EEF03F06D
:1006D80070EF03F07FEF03F06AB175EF03F077EF87
:1006E80003F07FEF03F0000E786F000E796F000EB5
:1006F8007A6F000E7B6F7EC127F17FC128F180C120
:1007080029F181C12AF178C12BF179C12CF17AC183
:100718002DF17BC12EF123EC16F027C174F128C10D
:1007280075F129C176F12AC177F174C140F175C11B
:1007380041F176C142F177C143F1000E01012B6FFF
:10074800000E2C6F200E2D6F410E2E6F66C127F103
:1007580067C128F168C129F169C12AF1E4EC1AF0EE
:1007680027C144F128C145F129C146F12AC147F101
:10077800B3EC32F00101D8A0C4EF03F0C6EF03F0E8
:10078800EEEF03F0824B832B66C127F167C128F196
:1007980068C129F169C12AF1000E2B6F000E2C6F78
:1007A800200E2D6F410E2E6FE4EC1AF027C166F172
:1007B80028C167F129C168F12AC169F1660E0101F2
:1007C8007219D8A4EAEF03F0ECEF03F0EEEF03F0B0
:1007D800644B652B66C186F167C187F168C188F1F2
:1007E80069C189F1650E7219D8B4FDEF03F0FFEF06
:1007F80003F005EF04F082C162F183C163F109EFF0
:1008080004F0000E636F000E626F000E616F000E41
:10081800606F000E5F6F000E5E6F000E7D6F000E42
:100828007C6F05EF05F074C10EF175C10FF176C14B
:1008380010F177C111F186C112F187C113F188C196
:1008480014F189C115F10FEC1FF00EC127F10FC18A
:1008580028F110C129F111C12AF1EBEC26F027C1CA
:1008680078F128C179F129C17AF12AC17BF178C1DF
:1008780000F179C101F17AC102F17BC103F12FECDA
:1008880032F000C16AF101C16BF10101E8B94FEF23
:1008980004F051EF04F06EEF04F06A516B11D8A424
:1008A80058EF04F05AEF04F06EEF04F0670E731976
:1008B800D8A461EF04F063EF04F06EEF04F063BFB7
:1008C8006AEF04F068EF04F06EEF04F05E4B5F2B04
:1008D800B8EF04F060516111D8A475EF04F077EF18
:1008E80004F0A1EF04F063BF7EEF04F07CEF04F0A6
:1008F800A1EF04F05F0E8425D96E020E8521DA6E11
:100908002E0EDF6E844B852B7007D8A07107000E62
:10091800616F010E606FA1EF04F05F0E8425D96E40
:10092800020E8521DA6E300EDF6E844B852B700740
:10093800D8A071075E07D8A05F075E515F11D8A4E1
:10094800A8EF04F0AAEF04F091EF04F05F0E8425FD
:10095800D96E020E8521DA6E6A51300FDF6E844B34
:10096800852B7007D8A0710774C140F175C141F19A
:1009780076C142F177C143F186C12BF187C12CF1D1
:1009880088C12DF189C12EF178C127F179C128F1EB
:100998007AC129F17BC12AF1E4EC1AF027C144F1AC
:1009A80028C145F129C146F12AC147F109EC46F0B1
:1009B80040C174F141C175F142C176F143C177F18B
:1009C80086C10EF187C10FF188C110F189C111F1FB
:1009D800000E0101126F000E136F200E146F410EEE
:1009E800156F0FEC1FF00EC186F10FC187F110C112
:1009F80088F111C189F101016207D8A063077C4B16
:100A08007D2B64517C5D7D51800A536F6551800A4E
:100A18005359D8B012EF05F014EF05F022EF05F0A6
:100A280085BF20EF05F0855109E14B0E845DD8A004
:100A380020EF05F022EF05F017EF04F06051611187
:100A4800D8A429EF05F02BEF05F03CEF05F0E8A955
:100A580030EF05F032EF05F03CEF05F05F0E84252E
:100A6800D96E020E8521DA6E2E0EDF6E844B852B31
:100A78005F0E8425D96E020E8521DA6E000EDF6EB8
:100A8800650E7219D8A44BEF05F04DEF05F0AFEFE6
:100A980000F0000E7D6F4F0E7C6F5F0E7C25D96EC7
:100AA800020E7D21DA6E000EDF6E000E6D6F000EF5
:100AB8006C6F83BF64EF05F062EF05F06CEF05F033
:100AC800000E6D6F010E6C6F826D831FD8B0832B83
:100AD800000E6F6F020E6E6F9EEF05F07C07D8A0B8
:100AE8007D075F0E7C25D96E020E7D21DA6E82C1EC
:100AF80000F183C101F1000E036F0A0E026F93EC3F
:100B08003DF001010051300FDF6E82C100F183C159
:100B180001F1000E036F0A0E026F56EC3BF000C1A4
:100B280082F101C183F101016E07D8A06F07700738
:100B3800D8A0710782518311D8A4A5EF05F0A7EFBB
:100B480005F072EF05F06FBFB4EF05F06F5106E1E5
:100B58006E05D8B0B2EF05F0B4EF05F072EF05F00E
:100B68007C07D8A07D076C516D11D8A4BEEF05F0A5
:100B7800C0EF05F0C6EF05F0000E5B6F2B0E5A6F45
:100B8800CAEF05F0000E5B6F2D0E5A6F5F0E7C25C5
:100B9800D96E020E7D21DA6E5AC1DFFF7007D8A028
:100BA80071077C07D8A07D07BF0E536FFF0E546FE7
:100BB8005251556F566B5351552754515623565120
:100BC80009E11A0E555DD8A0ECEF05F0EEEF05F03F
:100BD800F4EF05F0000E5D6F650E5C6FF8EF05F041
:100BE800000E5D6F450E5C6F5F0E7C25D96E020EA0
:100BF8007D21DA6E5CC1DFFF7007D8A071075F0E38
:100C08008425006F020E8521016F5F0E7C25026F1F
:100C1800020E7D21036F1AEC43F0AFEF00F01200D3
:100C2800000E5F6E000E5E6E40C070F041C071F045
:100C380042C072F043C073F073BE27EF06F025EF91
:100C480006F03DEF06F0000E5F6E010E5E6E70C09E
:100C580001F071C002F072C003F073C004F028EC18
:100C680048F001C070F002C071F003C072F004C017
:100C780073F0000E776E000E766EE4C162F0E5C187
:100C880063F05E505F10D8A44CEF06F04EEF06F00C
:100C980056EF06F00101E8A554EF06F056EF06F00E
:100CA80070EF06F05E505F10D8A45DEF06F05FEFBE
:100CB80006F065EF06F0000E4B6E2B0E4A6E69EFDC
:100CC80006F0000E4B6E2D0E4A6E4AC05FF2764A51
:100CD800772A6206D8A0630670C001F071C002F0DE
:100CE80072C003F073C004F0BBEC34F001040210CE
:100CF800D8A481EF06F083EF06F0CBEF06F0BF0E25
:100D0800456EFF0E466E4450476E486A455047266A
:100D180046504822485007E11A0E475CD8B097EF72
:100D280006F099EF06F0A7EF06F05F0E7624016E45
:100D3800020E7720026EEA0E036EFF0E046EAAEC16
:100D480043F0B3EF06F05F0E7624016E020E7720B3
:100D5800026EF20E036EFF0E046EAAEC43F0FD0E57
:100D68006226FF0E63223EC013F03FC014F05F0EF0
:100D7800156E020E166E62C017F063C018F0B9EC5B
:100D88003BF013C03EF014C03FF00BEF0CF070C006
:100D980001F071C002F072C003F073C004F0BBEC44
:100DA80034F001500210D8A4DCEF06F0DEEF06F0B4
:100DB80010EF07F0BF0E456EFF0E466E4450476EAB
:100DC800486A4550472646504822485007E11A0EBF
:100DD800475CD8B0F2EF06F0F4EF06F002EF07F048
:100DE8005F0E7624016E020E7720026EEE0E036E01
:100DF800FF0E046EAAEC43F0B3EF06F05F0E762404
:100E0800016E020E7720026EF60E036EFF0E046E60
:100E1800AAEC43F0B3EF06F0000E786E000E796E80
:100E2800800E7A6E3F0E7B6E000E756E000E746E2D
:100E380070C001F071C002F072C003F073C004F01A
:100E4800000E056E000E066E000E076E000E086E90
:100E5800F3EC3EF0D8B033EF07F035EF07F0B6EF1C
:100E680007F053EF07F078C019F079C01AF07AC08C
:100E78001BF07BC01CF0000E1D6E000E1E6E200EB7
:100E88001F6E410E206EFAEC1CF019C078F01AC0E3
:100E980079F01BC07AF01CC07BF0744A752A70C0C8
:100EA80032F071C033F072C034F073C035F0000E08
:100EB8001D6E000E1E6E200E1F6E410E206E78C035
:100EC80019F079C01AF07AC01BF07BC01CF0FAEC5C
:100ED8001CF019C036F01AC037F01BC038F01CC01F
:100EE80039F0B9EC33F0D8B07CEF07F07EEF07F0BB
:100EF80037EF07F09DEF07F078C001F079C002F0F6
:100F08007AC003F07BC004F0000E056E000E066E7A
:100F1800200E076E410E086EDDEC20F001C078F05F
:100F280002C079F003C07AF004C07BF07406D8A040
:100F3800750670C032F071C033F072C034F073C0FF
:100F480035F078C036F079C037F07AC038F07BC019
:100F580039F0B9EC33F0D8A0B4EF07F0B6EF07F0EA
:100F680080EF07F044C003F0046A50EC46F00350E9
:100F7800656E65C064F0670E6518D8A4C6EF07F003
:100F8800C8EF07F0EFEF07F00101E651E711D8A429
:100F9800D0EF07F0D2EF07F0D6EF07F0000EE76FBB
:100FA800010EE66FE7BFE3EF07F0E75106E1E6055C
:100FB800D8B0E1EF07F0E3EF07F0E9EF07F0000E34
:100FC800616E060E606EF9EF07F0E6C160F0E7C1EA
:100FD80061F0F9EF07F00101E7BFF5EF07F0F7EF70
:100FE80007F0E3EF07F0E9EF07F0670E6518D8A4FC
:100FF80000EF08F002EF08F031EF08F075AE10EFDF
:1010080008F0FC0E745CFF0E7558D8A00EEF08F0BF
:1010180010EF08F02FEF08F0FF0E456EFF0E466E3A
:1010280060C047F061C048F0455047264650482206
:101038007450475C4850800A496E7550800A495878
:10104800D8A029EF08F02BEF08F02FEF08F0660E74
:10105800646E31EF08F0650E646E60C056F061C0D2
:1010680057F0670E6518D8A43CEF08F03EEF08F07B
:101078004EEF08F0660E6418D8A445EF08F047EF65
:1010880008F050EF08F075BE4EEF08F04CEF08F08E
:1010980050EF08F0564A572A660E6418D8A457EF3E
:1010A80008F059EF08F079EF08F075BE60EF08F026
:1010B8005EEF08F06CEF08F0000E786E000E796EA7
:1010C800800E7A6E3F0E7B6E000E756E000E746E8B
:1010D800670E6518D8B473EF08F075EF08F079EF6C
:1010E80008F07450562675505722000E6F6E000E89
:1010F8006E6E70C066F071C067F072C068F073C041
:1011080069F078C058F079C059F07AC05AF07BC0BD
:101118005BF009EF09F066C001F067C002F068C033
:1011280003F069C004F078C005F079C006F07AC011
:1011380007F07BC008F0DDEC20F001C01AF002C017
:101148001BF003C01CF004C01DF0F6EC27F01AC019
:101158006AF01BC06BF01CC06CF01DC06DF06AC05B
:1011680032F06BC033F06CC034F06DC035F036EC43
:1011780033F032C05CF033C05DF066C011F067C078
:1011880012F068C013F069C014F078C01DF079C07F
:101198001EF07AC01FF07BC020F06AC019F06BC047
:1011A8001AF06CC01BF06DC01CF0FAEC1CF019C0F2
:1011B80015F01AC016F01BC017F01CC018F073EC1D
:1011C80046F011C066F012C067F013C068F014C092
:1011D80069F078C001F079C002F07AC003F07BC0F2
:1011E80004F0000E056E000E066E200E076E410E0E
:1011F800086EDDEC20F001C078F002C079F003C081
:101208007AF004C07BF06E4A6F2A56506E5C6F50BD
:10121800800A456E5750800A4558D8A016EF09F045
:1012280018EF09F08FEF08F078C019F079C01AF0BC
:101238007AC01BF07BC01CF0000E1D6E000E1E6EE7
:10124800A00E1F6E400E206EFAEC1CF019C06AF05A
:101258001AC06BF01BC06CF01CC06DF066C032F099
:1012680067C033F068C034F069C035F06AC036F042
:101278006BC037F06CC038F06DC039F0B9EC33F0A2
:10128800D8B049EF09F04BEF09F055EF09F0000E1F
:101298006A6E000E6B6E000E6C6E000E6D6E7DEF4A
:1012A80009F066C001F067C002F068C003F069C0C9
:1012B80004F06AC005F06BC006F06CC007F06DC0A2
:1012C80008F0F3EC3EF0D8A06CEF09F06EEF09F0EF
:1012D8007DEF09F05CB073EF09F075EF09F07DEF71
:1012E80009F0000E6A6E000E6B6E000E6C6E000E3A
:1012F8006D6E70C001F071C002F072C003F073C06F
:1013080004F06AC005F06BC006F06CC007F06DC051
:1013180008F084EC18F001C066F002C067F003C062
:1013280068F004C069F066C032F067C033F068C086
:1013380034F069C035F0000E1D6E000E1E6E200ED2
:101348001F6E410E206E58C019F059C01AF05AC0CD
:101358001BF05BC01CF0FAEC1CF019C036F01AC088
:1013680037F01BC038F01CC039F0B9EC33F0D8A006
:10137800C0EF09F0C2EF09F0E9EF09F0744A752AE5
:1013880058C019F059C01AF05AC01BF05BC01CF0C5
:10139800000E1D6E000E1E6E200E1F6E410E206E7A
:1013A800FAEC1CF019C058F01AC059F01BC05AF0DA
:1013B8001CC05BF0660E6418D8A4E5EF09F0E7EFEF
:1013C80009F0E9EF09F0564A572A58C078F059C091
:1013D80079F05AC07AF05BC07BF0650E6418D8B417
:1013E800F8EF09F0FAEF09F000EF0AF074C054F0D2
:1013F80075C055F004EF0AF0000E556E000E546EDD
:10140800000E536E000E526E000E516E000E506E9E
:10141800000E6F6E000E6E6EFEEF0AF066C001F0F1
:1014280067C002F068C003F069C004F078C005F036
:1014380079C006F07AC007F07BC008F0DDEC20F038
:1014480001C01AF002C01BF003C01CF004C01DF05C
:10145800F6EC27F01AC06AF01BC06BF01CC06CF0E9
:101468001DC06DF06AC032F06BC033F06CC034F050
:101478006DC035F036EC33F032C05CF033C05DF04F
:101488000101E8B94AEF0AF04CEF0AF069EF0AF0F7
:101498005C505D10D8A453EF0AF055EF0AF069EFDD
:1014A8000AF0670E6518D8A45CEF0AF05EEF0AF040
:1014B80069EF0AF055BE65EF0AF063EF0AF069EFCD
:1014C8000AF0504A512AB3EF0AF052505310D8A4E8
:1014D80070EF0AF072EF0AF09CEF0AF055BE79EF50
:1014E8000AF077EF0AF09CEF0AF05F0E7624D96EC7
:1014F800020E7720DA6E2E0EDF6E764A772A6206A3
:10150800D8A06306000E536E010E526E9CEF0AF0CF
:101518005F0E7624D96E020E7720DA6E300EDF6EFB
:10152800764A772A6206D8A063065006D8A05106E4
:1015380050505110D8A4A3EF0AF0A5EF0AF08CEF91
:101548000AF05F0E7624D96E020E7720DA6E5C50B0
:10155800300FDF6E764A772A6206D8A0630666C027
:1015680011F067C012F068C013F069C014F078C0B9
:101578001DF079C01EF07AC01FF07BC020F06AC051
:1015880019F06BC01AF06CC01BF06DC01CF0FAECBF
:101598001CF019C015F01AC016F01BC017F01CC0BB
:1015A80018F073EC46F011C066F012C067F013C073
:1015B80068F014C069F078C001F079C002F07AC010
:1015C80003F07BC004F0000E056E000E066E200EC0
:1015D800076E410E086EDDEC20F001C078F002C005
:1015E80079F003C07AF004C07BF05406D8A0550601
:1015F8006E4A6F2A56506E5C6F50800A456E57507F
:10160800800A4558D8B00BEF0BF00DEF0BF01BEF2D
:101618000BF077BE19EF0BF0775009E14B0E765CB3
:10162800D8A019EF0BF01BEF0BF012EF0AF0525095
:101638005310D8A422EF0BF024EF0BF036EF0BF089
:101648000101E8A92AEF0BF02CEF0BF036EF0BF0B5
:101658005F0E7624D96E020E7720DA6E2E0EDF6EBC
:10166800764A772A5F0E7624D96E020E7720DA6ED4
:10167800000EDF6E650E6418D8A445EF0BF047EF37
:101688000BF0B7EF06F0000E6F6E4F0E6E6E5F0E2A
:101698006E24D96E020E6F20DA6E000EDF6E000E19
:1016A8005F6E000E5E6E75BE5EEF0BF05CEF0BF0CA
:1016B80066EF0BF0000E5F6E010E5E6E746C751EA9
:1016C800D8B0752A000E616E020E606E96EF0BF0B0
:1016D8006E06D8A06F065F0E6E24D96E020E6F20BC
:1016E800DA6E74C001F075C002F0000E046E0A0EC6
:1016F800036E45EC3EF00150300FDF6E74C001F010
:1017080075C002F0000E046E0A0E036E1CEC3CF06D
:1017180001C074F002C075F06006D8A061066206C8
:10172800D8A0630674507510D8A49DEF0BF09FEFF6
:101738000BF06CEF0BF061BEACEF0BF0615006E103
:101748006004D8B0AAEF0BF0ACEF0BF06CEF0BF025
:101758006E06D8A06F065E505F10D8A4B6EF0BF0E7
:10176800B8EF0BF0BEEF0BF0000E4D6E2B0E4C6E6B
:10177800C2EF0BF0000E4D6E2D0E4C6E5F0E6E24F8
:10178800D96E020E6F20DA6E4CC0DFFF6206D8A059
:1017980063066E06D8A06F06BF0E456EFF0E466E36
:1017A8004450476E486A455047264650482248509C
:1017B80009E11A0E475CD8A0E4EF0BF0E6EF0BF056
:1017C800ECEF0BF0000E4F6E650E4E6EF0EF0BF067
:1017D800000E4F6E450E4E6E5F0E6E24D96E020ED1
:1017E8006F20DA6E4EC0DFFF6206D8A063065F0E78
:1017F8007624016E020E7720026E5F0E6E24036E51
:10180800020E6F20046EAAEC43F0B7EF06F0120048
:1018180082C0D9FF83C0DAFFDECFF6FFDDCFF7FF46
:10182800F86A0800F550250AD8A41DEF0CF01FEF40
:101838000CF0BEEF0FF082C0D9FF83C0DAFFDE2ABA
:10184800000EDD22000E0101E56F000EE46FE4C119
:10185800E8F1E5C1E9F1E669E769000E00018B6F7F
:10186800000E8A6F84EF0CF00101E88182C0D9FF75
:1018780083C0DAFFDE2A000EDD2284EF0CF00101BE
:10188800E8833AEF0CF00101E8853AEF0CF001012A
:10189800E8873AEF0CF00101E8893AEF0CF0000E06
:1018A8008B6F010E8A6F84EF0CF082C0D9FF83C062
:1018B800DAFFDECFF6FFDDCFF7FFF86A0800F55054
:1018C800866F876B8751000AD8B46DEF0CF053EF21
:1018D8000CF08651200AD8B44BEF0CF0030AD8B4A8
:1018E8004FEF0CF0080AD8B447EF0CF0060AD8B44A
:1018F80038EF0CF01D0AD8B443EF0CF053EF0CF09E
:1019080000018A518B11D8B48CEF0CF08EEF0CF0DB
:1019180059EF0CF00101E8A194EF0CF096EF0CF0F0
:1019280097EF0CF0E89382C0D9FF83C0DAFFDECFCF
:10193800F6FFDDCFF7FFF86A0800F5502A0AD8A4A9
:10194800A8EF0CF0AAEF0CF0D3EF0CF082C0D9FF8F
:1019580083C0DAFFDE2A000EDD2284C0D9FF85C0ED
:10196800DAFFDFCF86F0020EDE26DFCF87F0000E2B
:10197800DD2286C0D9FF87C0DAFFDECFE4F1DDCFF4
:10198800E5F1E5BFCCEF0CF0CAEF0CF00BEF0DF072
:10199800E881E46DE51FD8B0E52B0BEF0DF082C0B0
:1019A800D9FF83C0DAFFDECF07F0DDCF08F0B3EC54
:1019B8002FF007C0E4F108C0E5F1EAEF0CF082C0AF
:1019C800D9FF83C0DAFFDE2A000EDD22D00E000127
:1019D800866FFF0E876F82C0D9FF83C0DAFFDECF24
:1019E800F6FFDDCFF7FFF86A0800F550886F896BBE
:1019F8008651882787518923895109E10A0E885D14
:101A0800D8A009EF0DF00BEF0DF0E3EF0CF082C05A
:101A1800D9FF83C0DAFFDECFF6FFDDCFF7FFF86A24
:101A28000800F5502E0AD8A41CEF0DF01EEF0DF09B
:101A380092EF0DF0000E0101E76F000EE66F82C015
:101A4800D9FF83C0DAFFDE2A000EDD2282C0D9FF6B
:101A580083C0DAFFDECFF6FFDDCFF7FFF86A0800B4
:101A6800F5502A0AD8A43BEF0DF03DEF0DF05AEFE0
:101A78000DF082C0D9FF83C0DAFFDE2A000EDD2216
:101A880084C0D9FF85C0DAFFDFCF86F0020EDE26DC
:101A9800DFCF87F0000EDD2286C0D9FF87C0DAFFCE
:101AA800DECFE6F1DDCFE7F192EF0DF082C0D9FF8E
:101AB80083C0DAFFDECF07F0DDCF08F0B3EC2FF0FC
:101AC80007C0E6F108C0E7F171EF0DF082C0D9FF59
:101AD80083C0DAFFDE2A000EDD22D00E0001866FF9
:101AE800FF0E876F82C0D9FF83C0DAFFDECFF6FF13
:101AF800DDCFF7FFF86A0800F550886F896B8651CB
:101B0800882787518923895109E10A0E885DD8A061
:101B180090EF0DF092EF0DF06AEF0DF082C0D9FF53
:101B280083C0DAFFDECFF6FFDDCFF7FFF86A0800E3
:101B3800F550036E046A50EC46F003500001986FAC
:101B48009851D8B4AAEF0DF0ACEF0DF0E8EF0DF016
:101B580082C0D9FF83C0DAFFDECF86F0DDCF87F001
:101B6800010E8627000E872386C0F6FF87C0F7FF81
:101B7800F86A0800F550036E046A50EC46F003500A
:101B88000001996F9951D8B4CCEF0DF0CEEF0DF05C
:101B9800E8EF0DF082C0D9FF83C0DAFFDECF86F010
:101BA800DDCF87F0020E8627000E872386C0F6FF5A
:101BB80087C0F7FFF86A0800F550036E046A50EC16
:101BC80046F0035000019A6F660E9819D8A4EFEFFB
:101BD8000DF0F1EF0DF032EF0EF082C0D9FF83C0A7
:101BE800DAFFDECFF6FFDDCFF7FFF86A0800F5CFA2
:101BF8009BF082C0D9FF83C0DAFFDE2A000EDD2207
:101C080084C0D9FF85C0DAFFDFCF86F0040EDE2658
:101C1800DFCF87F0000EDD2286C0D9FF87C0DAFF4C
:101C2800DECF94F0DECF95F0DECF96F0DECF97F0E2
:101C380080C03EF081C03FF094C040F095C041F0B4
:101C480096C042F097C043F09BC044F014EC06F0F5
:101C58003EC080F03FC081F0DAEF0FF0980E016EC1
:101C6800000E026EFA0E036EFF0E046E000E066E74
:101C7800020E056EE7EC38F001500210D8A447EFC9
:101C88000EF049EF0EF0BAEF0EF082C0D9FF83C014
:101C9800DAFFDECF86F0DDCF87F0010E0001862760
:101CA800000E872386C0F6FF87C0F7FFF86A080092
:101CB800F5CF9BF0BF0E866FFF0E876F82C0D9FFEE
:101CC80083C0DAFFDECFF6FFDDCFF7FFF86A080042
:101CD800F550886F896B86518827875189238951E8
:101CE80007E11A0E885DD8B07CEF0EF07EEF0EF09B
:101CF80098EF0EF084C0D9FF85C0DAFFDFCF86F0F9
:101D0800040EDE26DFCF87F0000EDD2286C0D9FF65
:101D180087C0DAFFDECF94F0DECF95F0DECF96F005
:101D2800DECF97F0B0EF0EF084C0D9FF85C0DAFFA0
:101D3800DFCF86F0040EDE26DFCF87F0000EDD222F
:101D480086C0D9FF87C0DAFFDECF94F0DECF95F0EA
:101D5800DECF96F0DECF97F0020E82C0D9FF83C0A7
:101D6800DAFFDE26000EDD221CEF0EF082C0D9FF5E
:101D780083C0DAFFDECFF6FFDDCFF7FFF86A080091
:101D8800F550750AD8A4CBEF0EF0CDEF0EF00FEF9B
:101D98000FF082C0D9FF83C0DAFFDE2A000EDD22F1
:101DA80084C0D9FF85C0DAFFDFCF86F0020EDE26B9
:101DB800DFCF87F0000EDD2286C0D9FF87C0DAFFAB
:101DC800DECF88F0DDCF89F088C08CF089C08DF037
:101DD80000018E6B8F6B906B916B926B936B80C0D5
:101DE8001EF081C01FF08CC020F08DC021F08EC085
:101DF80022F08FC023F090C024F091C025F092C04B
:101E080026F093C027F002EC2AF01EC080F01FC015
:101E180081F0DAEF0FF082C0D9FF83C0DAFFDECF9E
:101E2800F6FFDDCFF7FFF86A0800F550780AD8B456
:101E380020EF0FF022EF0FF035EF0FF082C0D9FF3F
:101E480083C0DAFFDECFF6FFDDCFF7FFF86A0800C0
:101E5800F550580AD8A433EF0FF035EF0FF085EF9F
:101E68000FF082C0D9FF83C0DAFFDECFF6FFDDCFE7
:101E7800F7FFF86A0800F5CF9BF082C0D9FF83C04E
:101E8800DAFFDE2A000EDD2284C0D9FF85C0DAFF22
:101E9800DFCF86F0020EDE26DFCF87F0000EDD22D0
:101EA80086C0D9FF87C0DAFFDECF88F0DDCF89F0A2
:101EB80088C08CF089C08DF000018E6B8F6B906BA1
:101EC800916B926B936B80C01EF081C01FF08CC029
:101ED80020F08DC021F08EC022F08FC023F090C07A
:101EE80024F091C025F092C026F093C027F09BC043
:101EF80028F098EC25F01EC080F01FC081F0DAEFC2
:101F08000FF082C0D9FF83C0DAFFDECFF6FFDDCF46
:101F1800F7FFF86A0800F550250AD8A496EF0FF0E5
:101F280098EF0FF0B0EF0FF082C0D9FF83C0DAFF4F
:101F3800DE2A000EDD22000E046E250E036E80C020
:101F480005F081C006F0F1EC3AF0000E0001816F57
:101F5800010E806FDAEF0FF082C0D9FF83C0DAFF7D
:101F6800DE2A000EDD22000E0001816F000E806F58
:101F7800DAEF0FF082C0D9FF83C0DAFFDECFF6FFB9
:101F8800DDCFF7FFF86A0800F550036E046A80C0D9
:101F980005F081C006F0F1EC3AF082C0D9FF83C0A9
:101FA800DAFFDE2A000EDD22A9EF0FF012008CC145
:101FB800D9FF8DC1DAFFDECFF6FFDDCFF7FFF86A74
:101FC8000800F550250AD8A4ECEF0FF0EEEF0FF05B
:101FD80081EF13F08CC1D9FF8DC1DAFFDE2A000E24
:101FE800DD22000E0101E56F000EE46FE4C1E8F1A7
:101FF800E5C1E9F1E669E769000E956F000E946F97
:102008004DEF10F0E8818CC1D9FF8DC1DAFFDE2ACF
:10201800000EDD224DEF10F0E88307EF10F0E885A1
:1020280007EF10F0E88707EF10F0E88907EF10F0E6
:10203800000E956F010E946F4DEF10F08CC1D9FF13
:102048008DC1DAFFDECFF6FFDDCFF7FFF86A0800B3
:10205800F550906F916B9151000AD8B436EF10F09B
:102068001CEF10F09051200AD8B416EF10F0030AB4
:10207800D8B419EF10F0080AD8B413EF10F0060A14
:10208800D8B406EF10F01D0AD8B410EF10F01CEF0A
:1020980010F094519511D8B454EF10F056EF10F099
:1020A80022EF10F0E8A15BEF10F05DEF10F05EEFAB
:1020B80010F0E8938CC1D9FF8DC1DAFFDECFF6FFAF
:1020C800DDCFF7FFF86A0800F5502A0AD8A46FEFA9
:1020D80010F071EF10F09AEF10F08CC1D9FF8DC19C
:1020E800DAFFDE2A000EDD228EC1D9FF8FC1DAFFAA
:1020F800DFCF90F1020EDE26DFCF91F1000EDD2258
:1021080090C1D9FF91C1DAFFDECFE4F1DDCFE5F16F
:10211800E5BF93EF10F091EF10F0D2EF10F0E881E7
:10212800E46DE51FD8B0E52BD2EF10F08CC1D9FFD4
:102138008DC1DAFFDECF07F1DDCF08F101EC2FF01A
:1021480007C1E4F108C1E5F1B1EF10F08CC1D9FF86
:102158008DC1DAFFDE2A000EDD22D00E0101906F5C
:10216800FF0E916F8CC1D9FF8DC1DAFFDECFF6FF6C
:10217800DDCFF7FFF86A0800F550926F936B905126
:10218800922791519323935109E10A0E925DD8A0A9
:10219800D0EF10F0D2EF10F0AAEF10F08CC1D9FFF9
:1021A8008DC1DAFFDECFF6FFDDCFF7FFF86A080052
:1021B800F5502E0AD8A4E3EF10F0E5EF10F058EF31
:1021C80011F0000EE76F000EE66F8CC1D9FF8DC1CC
:1021D800DAFFDE2A000EDD228CC1D9FF8DC1DAFFBD
:1021E800DECFF6FFDDCFF7FFF86A0800F5502A0AC0
:1021F800D8A401EF11F003EF11F020EF11F08CC11A
:10220800D9FF8DC1DAFFDE2A000EDD228EC1D9FF8B
:102218008FC1DAFFDFCF90F1020EDE26DFCF91F11A
:10222800000EDD2290C1D9FF91C1DAFFDECFE6F1C1
:10223800DDCFE7F158EF11F08CC1D9FF8DC1DAFF7E
:10224800DECF07F1DDCF08F101EC2FF007C1E6F191
:1022580008C1E7F137EF11F08CC1D9FF8DC1DAFF62
:10226800DE2A000EDD22D00E0101906FFF0E916F65
:102278008CC1D9FF8DC1DAFFDECFF6FFDDCFF7FFC6
:10228800F86A0800F550926F936B9051922791511C
:102298009323935109E10A0E925DD8A056EF11F0ED
:1022A80058EF11F030EF11F08CC1D9FF8DC1DAFF72
:1022B800DECFF6FFDDCFF7FFF86A0800F550066FAE
:1022C800076BC1EC45F001010651A26FA251D8B4C9
:1022D80070EF11F072EF11F0AEEF11F08CC1D9FF71
:1022E8008DC1DAFFDECF90F1DDCF91F1010E90279D
:1022F800000E912390C1F6FF91C1F7FFF86A08001C
:10230800F550066F076BC1EC45F001010651A36F4C
:10231800A351D8B492EF11F094EF11F0AEEF11F091
:102328008CC1D9FF8DC1DAFFDECF90F1DDCF91F1FD
:10233800020E9027000E912390C1F6FF91C1F7FF7E
:10234800F86A0800F550066F076BC1EC45F001010B
:102358000651A46F660EA219D8A4B5EF11F0B7EF15
:1023680011F0F8EF11F08CC1D9FF8DC1DAFFDECF83
:10237800F6FFDDCFF7FFF86A0800F5CFA5F18CC1AD
:10238800D9FF8DC1DAFFDE2A000EDD228EC1D9FF0A
:102398008FC1DAFFDFCF90F1040EDE26DFCF91F197
:1023A800000EDD2290C1D9FF91C1DAFFDECF9EF188
:1023B800DECF9FF1DECFA0F1DECFA1F18AC14CF1D3
:1023C8008BC14DF19EC14EF19FC14FF1A0C150F19B
:1023D800A1C151F1A5C152F109EC00F04CC18AF13B
:1023E8004DC18BF19EEF13F0A20E006F010E016F2D
:1023F800FA0E026FFF0E036F000E056F020E046FD8
:1024080078EC38F0010100510111D8A40EEF12F058
:1024180010EF12F080EF12F08CC1D9FF8DC1DAFFF6
:10242800DECF90F1DDCF91F1010E9027000E9123C0
:1024380090C1F6FF91C1F7FFF86A0800F5CFA5F142
:10244800BF0E906FFF0E916F8CC1D9FF8DC1DAFF5F
:10245800DECFF6FFDDCFF7FFF86A0800F550926F80
:10246800936B9051922791519323935107E11A0E40
:10247800925DD8B042EF12F044EF12F05EEF12F026
:102488008EC1D9FF8FC1DAFFDFCF90F1040EDE26AF
:10249800DFCF91F1000EDD2290C1D9FF91C1DAFFA3
:1024A800DECF9EF1DECF9FF1DECFA0F1DECFA1F12E
:1024B80076EF12F08EC1D9FF8FC1DAFFDFCF90F12E
:1024C800040EDE26DFCF91F1000EDD2290C1D9FF88
:1024D80091C1DAFFDECF9EF1DECF9FF1DECFA0F112
:1024E800DECFA1F1020E8CC1D9FF8DC1DAFFDE2645
:1024F800000EDD22E2EF11F08CC1D9FF8DC1DAFFA9
:10250800DECFF6FFDDCFF7FFF86A0800F550750A51
:10251800D8A491EF12F093EF12F0D4EF12F08CC11F
:10252800D9FF8DC1DAFFDE2A000EDD228EC1D9FF68
:102538008FC1DAFFDFCF90F1020EDE26DFCF91F1F7
:10254800000EDD2290C1D9FF91C1DAFFDECF92F1F2
:10255800DDCF93F192C196F193C197F1986B996B86
:102568009A6B9B6B9C6B9D6B8AC11DF18BC11EF195
:1025780096C11FF197C120F198C121F199C122F1AB
:102588009AC123F19BC124F19CC125F19DC126F17B
:10259800FFEC28F01DC18AF11EC18BF19EEF13F0EC
:1025A8008CC1D9FF8DC1DAFFDECFF6FFDDCFF7FF93
:1025B800F86A0800F550780AD8B4E5EF12F0E7EFAA
:1025C80012F0FAEF12F08CC1D9FF8DC1DAFFDECF1D
:1025D800F6FFDDCFF7FFF86A0800F550580AD8A4CF
:1025E800F8EF12F0FAEF12F049EF13F08CC1D9FFAF
:1025F8008DC1DAFFDECFF6FFDDCFF7FFF86A0800FE
:10260800F5CFA5F18CC1D9FF8DC1DAFFDE2A000E06
:10261800DD228EC1D9FF8FC1DAFFDFCF90F1020E24
:10262800DE26DFCF91F1000EDD2290C1D9FF91C1E6
:10263800DAFFDECF92F1DDCF93F192C196F193C12B
:1026480097F1986B996B9A6B9B6B9C6B9D6B8AC18E
:102658001DF18BC11EF196C11FF197C120F198C1E0
:1026680021F199C122F19AC123F19BC124F19CC1A6
:1026780025F19DC126F1A5C127F145EC24F01DC126
:102688008AF11EC18BF19EEF13F08CC1D9FF8DC169
:10269800DAFFDECFF6FFDDCFF7FFF86A0800F55066
:1026A800250AD8A45AEF13F05CEF13F074EF13F077
:1026B8008CC1D9FF8DC1DAFFDE2A000EDD22000EA3
:1026C800036F250E026F8AC104F18BC105F126EC58
:1026D8003AF0000E01018B6F010E8A6F9EEF13F026
:1026E8008CC1D9FF8DC1DAFFDE2A000EDD22000E73
:1026F8008B6F000E8A6F9EEF13F08CC1D9FF8DC1CE
:10270800DAFFDECFF6FFDDCFF7FFF86A0800F550F5
:102718000101026F036B8AC104F18BC105F126EC3C
:102728003AF08CC1D9FF8DC1DAFFDE2A000EDD2216
:102738006DEF13F01200000E01013B6F000E3C6FAD
:10274800000E3D6F000E3E6FD6EF15F0AC98AC94BE
:10275800B89637C1D9FF38C1DAFFDECF00F1DECF36
:1027680001F1DECF02F1DECF03F1000E04EC2BF015
:1027780000C112F101C113F102C114F103C115F135
:10278800000E01010E6F240E0F6F740E106F4A0EAB
:10279800116F0FEC1FF00EC13FF10FC140F110C1D6
:1027A80041F111C142F1000E0101126F000E136FC9
:1027B800800E146F420E156F3FC10EF140C10FF12C
:1027C80041C110F142C111F10FEC1FF00EC127F108
:1027D8000FC128F110C129F111C12AF1000E010120
:1027E8002B6F000E2C6F800E2D6FBF0E2E6F23ECFB
:1027F80016F027C13BF128C13CF129C13DF12AC19E
:102808003EF101EF16F0AC98AC84B89637C1D9FF09
:1028180038C1DAFFDECF00F1DECF01F1DECF02F101
:10282800DECF03F1000E04EC2BF000C112F101C160
:1028380013F102C114F103C115F1000E01010E6F6D
:10284800240E0F6F740E106F4A0E116F0FEC1FF0ED
:102858000EC13FF10FC140F110C141F111C142F168
:10286800000E0101126F000E136F800E146F410EDF
:10287800156F3FC10EF140C10FF141C110F142C1C6
:1028880011F10FEC1FF00EC127F10FC128F110C193
:1028980029F111C12AF1000E01012B6F000E2C6FD6
:1028A800800E2D6FBF0E2E6F23EC16F027C13BF163
:1028B80028C13CF129C13DF12AC13EF101EF16F0D2
:1028C800AC98AC94B88637C1D9FF38C1DAFFDECFEF
:1028D80000F1DECF01F1DECF02F1DECF03F1000E11
:1028E80004EC2BF000C112F101C113F102C114F183
:1028F80003C115F1000E01010E6F240E0F6F740E47
:10290800106F4A0E116F0FEC1FF00EC13FF10FC18F
:1029180040F110C141F111C142F1000E0101126FE5
:10292800000E136F800E146F410E156F3FC10EF12C
:1029380040C10FF141C110F142C111F10FEC1FF07C
:102948000EC127F10FC128F110C129F111C12AF1D7
:10295800000E01012B6F000E2C6F800E2D6FBF0E25
:102968002E6F23EC16F027C13BF128C13CF129C199
:102978003DF12AC13EF101EF16F0AC98AC84B8865F
:1029880037C1D9FF38C1DAFFDECF00F1DECF01F160
:10299800DECF02F1DECF03F1000E04EC2BF000C114
:1029A80012F101C113F102C114F103C115F1000EB6
:1029B80001010E6F240E0F6F740E106F4A0E116F07
:1029C8000FEC1FF00EC13FF10FC140F110C141F1F2
:1029D80011C142F1000E0101126F000E136F800E3B
:1029E800146F400E156F3FC10EF140C10FF141C188
:1029F80010F142C111F10FEC1FF00EC127F10FC108
:102A080028F110C129F111C12AF1000E01012B6F23
:102A1800000E2C6F800E2D6FBF0E2E6F23EC16F05C
:102A280027C13BF128C13CF129C13DF12AC13EF142
:102A380001EF16F0AC88B89637C1D9FF38C1DAFF74
:102A4800DECF00F1DECF01F1DECF02F1DECF03F100
:102A5800000E04EC2BF000C112F101C113F102C108
:102A680014F103C115F1000E01010E6F240E0F6F52
:102A7800740E106F4A0E116F0FEC1FF00EC13FF16C
:102A88000FC140F110C141F111C142F1000E010125
:102A9800126F000E136F800E146F400E156F3FC13A
:102AA8000EF140C10FF141C110F142C111F10FEC1B
:102AB8001FF00EC127F10FC128F110C129F111C172
:102AC8002AF1000E01012B6F000E2C6F800E2D6F66
:102AD800BF0E2E6F23EC16F027C13BF128C13CF145
:102AE80029C13DF12AC13EF101EF16F0AC88B88644
:102AF80037C1D9FF38C1DAFFDECF00F1DECF01F1EF
:102B0800DECF02F1DECF03F1000E04EC2BF000C1A2
:102B180012F101C113F102C114F103C115F1000E44
:102B280001010E6F240E0F6F740E106F4A0E116F95
:102B38000FEC1FF00EC13FF10FC140F110C141F180
:102B480011C142F1000E0101126F000E136F800EC9
:102B5800146F400E156F3FC10EF140C10FF141C116
:102B680010F142C111F10FEC1FF00EC127F10FC196
:102B780028F110C129F111C12AF1000E01012B6FB2
:102B8800000E2C6F800E2D6FBF0E2E6F23EC16F0EB
:102B980027C13BF128C13CF129C13DF12AC13EF1D1
:102BA80001EF16F020EE04F03751D9263851DA2219
:102BB800DF50396F3A6B3A51000AD8B4E6EF15F096
:102BC80001EF16F03951000AD8B4AAEF13F0010A40
:102BD800D8B407EF14F0030AD8B464EF14F0010A6C
:102BE800D8B4C1EF14F0070AD8B41EEF15F0010AE3
:102BF800D8B47AEF15F001EF16F03BC100F13CC1F3
:102C080001F13DC102F13EC103F12FEC32F00101A7
:102C18000051AF6E3BC100F13CC101F13DC102F171
:102C28003EC103F12FEC32F0010101C100F102C1F4
:102C380001F103C102F1036B0051B06E12000101F2
:102C48002A51800B336F2A512A25356F29AF2FEF70
:102C580016F031EF16F032EF16F035813551D8B451
:102C680038EF16F03AEF16F04FEF16F03529D8A4E2
:102C780040EF16F042EF16F04AEF16F0000E276FFD
:102C8800000E286F000E296F000E2A6F298F000E84
:102C98002A6F57EF16F0000E276F000E286F000EF0
:102CA800296F000E2A6F2E51800B346F335134195F
:102CB800D8B461EF16F063EF16F064EF16F0338DB9
:102CC8002E512E25346F2DAF6CEF16F06EEF16F0E7
:102CD8006FEF16F034813451D8B475EF16F077EFF2
:102CE80016F08CEF16F03429D8A47DEF16F07FEF9C
:102CF80016F087EF16F0000E2B6F000E2C6F000EEB
:102D08002D6F000E2E6F2D8F000E2E6F94EF16F084
:102D1800000E2B6F000E2C6F000E2D6F000E2E6F05
:102D28003551345DD8B09BEF16F09DEF16F0C4EF27
:102D380016F033ADA2EF16F0A4EF16F0A6EF16F0DA
:102D4800800E331B35C136F134C135F136C134F14B
:102D580027C136F12BC127F136C12BF128C136F135
:102D68002CC128F136C12CF129C136F12DC129F128
:102D780036C12DF12AC136F12EC12AF136C12EF104
:102D8800000E366F355134C12FF1306B2F5F000EB6
:102D9800305B30BFD9EF16F0305109E11A0E2F5DC4
:102DA800D8A0D9EF16F0DBEF16F012EF17F0275185
:102DB800281129112A11D8A4E4EF16F0E7EF16F02C
:102DC800010EE8EF16F0000E366F000E276F000EAA
:102DD800286F000E296F000E2A6F34C135F11BEFE2
:102DE80017F036A1FAEF16F0FCEF16F002EF17F025
:102DF800D89036310109366F04EF17F0D890363382
:102E080027A109EF17F00BEF17F00CEF17F0368F2B
:102E18002A352A33293328332733352B3451355D66
:102E2800D8A019EF17F01BEF17F0F5EF16F033BD28
:102E380020EF17F022EF17F062EF17F03551D8A402
:102E480028EF17F02AEF17F034EF17F0000E276F6E
:102E5800000E286F000E296F000E2A6F83EF18F0FE
:102E68002B5127272C5128232D5129232E512A2332
:102E78002AA141EF17F043EF17F0EFEF17F036A153
:102E880048EF17F04AEF17F050EF17F0D8903631A7
:102E98000109366F52EF17F0D890363327A157EF54
:102EA80017F059EF17F05AEF17F0368F2A352A33F3
:102EB800293328332733352BEFEF17F02B51275DB4
:102EC8002C5128592D5129592A51800A2F6F2E51DA
:102ED800800A2F59D8B073EF17F075EF17F0A0EFED
:102EE80017F027512B5D2F6F28512C59306F29511E
:102EF8002D59316F2A512E59326FFF0E2F25276F0A
:102F0800FF0E3021286FFF0E3121296FFF0E32216D
:102F18002A6F800E331B366D3651D8A496EF17F002
:102F280098EF17F0A8EF17F0010E2727000E2823B7
:102F380029232A23A8EF17F02B51275F2C51285B50
:102F48002D51295B2E512A5B2751281129112A114D
:102F5800D8A4B1EF17F0B3EF17F0E8EF17F0365138
:102F6800D8A4B9EF17F0BBEF17F0E8EF17F0000E91
:102F7800276F000E286F000E296F000E2A6F83EF4F
:102F880018F0D8902737283729372A3736AFCFEFA8
:102F980017F0D1EF17F0D2EF17F0278136A1D7EF4E
:102FA80017F0D9EF17F0DDEF17F0D8803637DFEFDD
:102FB80017F0D89036373551D8B4E5EF17F0E7EF6A
:102FC80017F0E8EF17F0350729AFEDEF17F0EFEF3F
:102FD80017F0C5EF17F0000E346F36AFF6EF17F0A5
:102FE800F8EF17F010EF18F036C12FF17F0E2F17FA
:102FF800D8B401EF18F003EF18F007EF18F0010E3E
:10300800346F10EF18F027A10CEF18F00EEF18F03E
:1030180010EF18F003EF18F03451D8B416EF18F089
:1030280018EF18F043EF18F0010E2727000E282399
:1030380029232A232AA123EF18F025EF18F043EFBC
:1030480018F027C12FF128C130F129C131F12AC167
:1030580032F132353233313330332F332FC127F148
:1030680030C128F131C129F132C12AF13529D8B44A
:1030780040EF18F042EF18F043EF18F0352B3529E0
:10308800D8B449EF18F04BEF18F053EF18F035515A
:10309800D8A451EF18F053EF18F065EF18F0000EB0
:1030A800276F000E286F000E296F000E2A6F35510A
:1030B800D8A461EF18F063EF18F065EF18F0000E70
:1030C800336F35A16AEF18F06CEF18F06FEF18F056
:1030D800298F70EF18F0299FD89035312A6F33AFB8
:1030E80078EF18F07AEF18F07BEF18F02A8F27C1E5
:1030F80027F128C128F129C129F12AC12AF1120092
:103108000450800B0D6E045004240F6E03AE8FEF35
:1031180018F091EF18F092EF18F00F800F50D8B414
:1031280098EF18F09AEF18F0AFEF18F00F28D8A41E
:10313800A0EF18F0A2EF18F0AAEF18F0000E016E39
:10314800000E026E000E036E000E046E038E000E5B
:10315800046EB7EF18F0000E016E000E026E000E3E
:10316800036E000E046E0850800B0E6E0D500E1884
:10317800D8B4C1EF18F0C3EF18F0C4EF18F00D8CF5
:10318800085008240E6E07AECCEF18F0CEEF18F0FA
:10319800CFEF18F00E800E50D8B4D5EF18F0D7EF57
:1031A80018F0ECEF18F00E28D8A4DDEF18F0DFEFD8
:1031B80018F0E7EF18F0000E056E000E066E000E10
:1031C800076E000E086E078E000E086EF4EF18F0FA
:1031D800000E056E000E066E000E076E000E086EDD
:1031E8000F500E5CD8B0FBEF18F0FDEF18F024EF8D
:1031F80019F00DAC02EF19F004EF19F006EF19F011
:10320800800E0D1A0FC010F00EC00FF010C00EF097
:1032180001C010F005C001F010C005F002C010F0A8
:1032280006C002F010C006F003C010F007C003F09B
:1032380010C007F004C010F008C004F010C008F077
:10324800000E106E0F500EC009F00A6A095E000EDB
:103258000A5A0ABE39EF19F00A5009E11A0E095C38
:10326800D8A039EF19F03BEF19F072EF19F00150BF
:10327800021003100410D8A444EF19F047EF19F016
:10328800010E48EF19F0000E106E000E016E000ED0
:10329800026E000E036E000E046E0EC00FF07BEF80
:1032A80019F010A05AEF19F05CEF19F062EF19F05D
:1032B800D89010300109106E64EF19F0D8901032D0
:1032C80001A069EF19F06BEF19F06CEF19F0108E8F
:1032D800043404320332023201320F2A0E500F5CDA
:1032E800D8A079EF19F07BEF19F055EF19F00DBC64
:1032F80080EF19F082EF19F0C2EF19F00F50D8A43F
:1033080088EF19F08AEF19F094EF19F0000E016EAA
:10331800000E026E000E036E000E046EE3EF1AF04C
:1033280005500126065002220750032208500422A5
:1033380004A0A1EF19F0A3EF19F04FEF1AF010A0B5
:10334800A8EF19F0AAEF19F0B0EF19F0D8901030E3
:103358000109106EB2EF19F0D890103201A0B7EF42
:1033680019F0B9EF19F0BAEF19F0108E04340432DD
:103378000332023201320F2A4FEF1AF00550015C76
:1033880006500258075003580450800A096E085026
:10339800800A0958D8B0D3EF19F0D5EF19F000EF2B
:1033A8001AF00150055C096E025006580A6E035067
:1033B80007580B6E045008580C6EFF0E0924016E56
:1033C800FF0E0A20026EFF0E0B20036EFF0E0C206C
:1033D800046E800E0D1A106C1050D8A4F6EF19F078
:1033E800F8EF19F008EF1AF0010E0126000E02227C
:1033F8000322042208EF1AF00550015E0650025A13
:103408000750035A0850045A0150021003100410C0
:10341800D8A411EF1AF013EF1AF048EF1AF0105071
:10342800D8A419EF1AF01BEF1AF048EF1AF0000EA3
:10343800016E000E026E000E036E000E046EE3EFC6
:103448001AF0D890013602360336043610AE2FEF44
:103458001AF031EF1AF032EF1AF0018010A037EFAE
:103468001AF039EF1AF03DEF1AF0D88010363FEF16
:103478001AF0D89010360F50D8B445EF1AF047EF2D
:103488001AF048EF1AF00F0603AE4DEF1AF04FEF9F
:103498001AF025EF1AF0000E0E6E10AE56EF1AF065
:1034A80058EF1AF070EF1AF010C009F07F0E0916E5
:1034B800D8B461EF1AF063EF1AF067EF1AF0010E53
:1034C8000E6E70EF1AF001A06CEF1AF06EEF1AF0A2
:1034D80070EF1AF063EF1AF00E50D8B476EF1AF0C6
:1034E80078EF1AF0A3EF1AF0010E0126000E02225F
:1034F8000322042204A083EF1AF085EF1AF0A3EF49
:103508001AF001C009F002C00AF003C00BF004C0B1
:103518000CF00C340C320B320A32093209C001F0BB
:103528000AC002F00BC003F00CC004F00F28D8B496
:10353800A0EF1AF0A2EF1AF0A3EF1AF00F2A0F2843
:10354800D8B4A9EF1AF0ABEF1AF0B3EF1AF00F5096
:10355800D8A4B1EF1AF0B3EF1AF0C5EF1AF0000EC5
:10356800016E000E026E000E036E000E046E0F5008
:10357800D8A4C1EF1AF0C3EF1AF0C5EF1AF0000E85
:103588000D6E0FA0CAEF1AF0CCEF1AF0CFEF1AF0B9
:10359800038ED0EF1AF0039ED8900F30046E0DAE54
:1035A800D8EF1AF0DAEF1AF0DBEF1AF0048E01C048
:1035B80001F002C002F003C003F004C004F01200DE
:1035C80001012A51800B336F2A512A25396F29AFFF
:1035D800F0EF1AF0F2EF1AF0F3EF1AF039813951DF
:1035E800D8B4F9EF1AF0FBEF1AF00EEF1BF03929F7
:1035F800D8A401EF1BF003EF1BF00BEF1BF0000E3C
:10360800276F000E286F000E296F000E2A6F298F72
:1036180016EF1BF0000E276F000E286F000E296FA3
:10362800000E2A6F2E51800B331B2E512E25386F1A
:103638002DAF21EF1BF023EF1BF024EF1BF0388197
:103648003851D8B42AEF1BF02CEF1BF03FEF1BF0DA
:103658003829D8A432EF1BF034EF1BF03CEF1BF0F5
:10366800000E2B6F000E2C6F000E2D6F000E2E6FAC
:103678002D8F47EF1BF0000E2B6F000E2C6F000EE6
:103688002D6F000E2E6F3851D8B44DEF1BF04FEF51
:103698001BF057EF1BF03951D8A455EF1BF057EF2B
:1036A8001BF061EF1BF0000E276F000E286F000E55
:1036B800296F000E2A6FF9EF1CF02D512703F3CF65
:1036C8003EF1F4CF3FF13E51346F356B366B376BBB
:1036D8003F513A6F3B6B3C6B3D6B2C512803F3CF4A
:1036E8003EF1F4CF3FF13E513427000E3523362307
:1036F80037233F513A27000E3B233C233D232B51D0
:103708002903F3CF3EF1F4CF3FF13E513427000EA9
:103718003523362337233F513A27000E3B233C23DA
:103728003D2336C137F135C136F134C135F1346B3B
:103738002B512803F3CF3EF1F4CF3FF13E5134270C
:103748003F513523000E3623000E37232C51270313
:10375800F3CF3EF1F4CF3FF13E5134273F513523AB
:10376800000E3623000E372336C137F135C136F146
:1037780034C135F1346B2B512703F3CF3EF1F4CF2D
:103788003FF13E5134273F513523000E3623000EBA
:1037980037232D512803F3CF3EF1F4CF3FF13E51AB
:1037A8003A273F513B23000E3C23000E3D232C516A
:1037B8002903F3CF3EF1F4CF3FF13E513A273F5171
:1037C8003B23000E3C23000E3D232D512903F3CF4C
:1037D8003EF1F4CF3FF13E512F6F3F51306F316BC7
:1037E800326B31C132F130C131F12FC130F12F6B61
:1037F8002F513A2730513B2331513C2332513D233D
:1038080034C12FF135C130F136C131F137C132F150
:10381800190E14EF1CF0D8903233313330332F3374
:10382800E82E0FEF1CF02F513A2730513B2331512E
:103838003C2332513D2336C137F135C136F134C10D
:1038480035F1346B385139C12FF1306B2F27000E09
:103858003023820E2F253E6FFF0E30213F6F4AEF37
:103868001CF0D8903A373B373C373D3737AF3FEFFE
:103878001CF041EF1CF042EF1CF03A81D89034372D
:103888003537363737373E07D8A03F073CAF4FEFBD
:103898001CF051EF1CF035EF1CF0000E386F37AFFD
:1038A80058EF1CF05AEF1CF07EEF1CF0FF0E341599
:1038B8002F6FFF0E3515306FFF0E3615316F7F0EE7
:1038C8003715326F2F51301131113211D8B46FEFD3
:1038D8001CF071EF1CF075EF1CF0010E386F7EEFD5
:1038E8001CF03AA17AEF1CF07CEF1CF07EEF1CF084
:1038F80071EF1CF03851D8B484EF1CF086EF1CF03F
:10390800AAEF1CF0010E3A27000E3B233C233D236F
:103918003DA191EF1CF093EF1CF0AAEF1CF03AC107
:103928002FF13BC130F13CC131F13DC132F13235AB
:103938003233313330332F332FC13AF130C13BF1B9
:1039480031C13CF132C13DF13E4B3F2B3FBFB5EF9A
:103958001CF03F5108E13E29D8A0B5EF1CF0B7EFA5
:103968001CF0C1EF1CF0000E3A6F000E3B6F800E8A
:103978003C6F7F0E3D6FEFEF1CF03FBFCEEF1CF0AA
:103988003F5106E13E05D8B0CCEF1CF0CEEF1CF05D
:10399800DAEF1CF0000E3A6F000E3B6F000E3C6F22
:1039A800000E3D6F000E336FEFEF1CF03EC139F192
:1039B800FF0E3A17FF0E3B177F0E3C17000E3D1700
:1039C80039A1E9EF1CF0EBEF1CF0ECEF1CF03C8F99
:1039D800D89039313D6F33513D133AC127F13BC17E
:1039E80028F13CC129F13DC12AF112001C50800B7D
:1039F800256E1C501C242B6E1BAE05EF1DF007EF27
:103A08001DF008EF1DF02B802B50D8B40EEF1DF0E1
:103A180010EF1DF023EF1DF02B28D8A416EF1DF092
:103A280018EF1DF020EF1DF0000E196E000E1A6E33
:103A3800000E1B6E000E1C6E1B8E2BEF1DF0000E71
:103A4800196E000E1A6E000E1B6E000E1C6E2050B2
:103A5800800B251A205020242A6E1FAE36EF1DF049
:103A680038EF1DF039EF1DF02A802A50D8B43FEF07
:103A78001DF041EF1DF054EF1DF02A28D8A447EFA0
:103A88001DF049EF1DF051EF1DF0000E1D6E000EE8
:103A98001E6E000E1F6E000E206E1F8E5CEF1DF056
:103AA800000E1D6E000E1E6E000E1F6E000E206EA4
:103AB8002A50D8B462EF1DF064EF1DF06CEF1DF0D2
:103AC8002B50D8A46AEF1DF06CEF1DF076EF1DF0B7
:103AD800000E196E000E1A6E000E1B6E000E1C6E84
:103AE8000EEF1FF01F501902F3CF30F0F4CF31F072
:103AF8003050266E276A286A296A31502C6E2D6A42
:103B08002E6A2F6A1E501A02F3CF30F0F4CF31F02C
:103B180030502626000E27222822292231502C2612
:103B2800000E2D222E222F221D501B02F3CF30F023
:103B3800F4CF31F030502626000E272228222922E1
:103B480031502C26000E2D222E222F2228C029F09B
:103B580027C028F026C027F0266A1D501A02F3CF86
:103B680030F0F4CF31F03050262631502722000EA5
:103B78002822000E29221E501902F3CF30F0F4CF6C
:103B880031F03050262631502722000E2822000E10
:103B9800292228C029F027C028F026C027F0266A45
:103BA8001D501902F3CF30F0F4CF31F030502626F3
:103BB80031502722000E2822000E29221F501A02F7
:103BC800F3CF30F0F4CF31F030502C2631502D2285
:103BD800000E2E22000E2F221E501B02F3CF30F0B3
:103BE800F4CF31F030502C2631502D22000E2E22E9
:103BF800000E2F221F501B02F3CF30F0F4CF31F00C
:103C08003050216E3150226E236A246A23C024F07A
:103C180022C023F021C022F0216A21502C262250F4
:103C28002D2223502E2224502F2226C021F027C0D7
:103C380022F028C023F029C024F0190E29EF1EF025
:103C4800D8902432233222322132E82E24EF1EF07B
:103C580021502C2622502D2223502E2224502F2250
:103C680028C029F027C028F026C027F0266A2A5045
:103C78002BC021F0226A2126000E2222820E212446
:103C8800306EFF0E2220316E5FEF1EF0D8902C367A
:103C98002D362E362F3629AE54EF1EF056EF1EF075
:103CA80057EF1EF02C80D89026362736283629362E
:103CB8003006D8A031062EAE64EF1EF066EF1EF077
:103CC8004AEF1EF0000E2A6E29AE6DEF1EF06FEF60
:103CD8001EF093EF1EF0FF0E2614216EFF0E271420
:103CE800226EFF0E2814236E7F0E2914246E215095
:103CF800221023102410D8B484EF1EF086EF1EF093
:103D08008AEF1EF0010E2A6E93EF1EF02CA08FEFA3
:103D18001EF091EF1EF093EF1EF086EF1EF02A5072
:103D2800D8B499EF1EF09BEF1EF0BFEF1EF0010E06
:103D38002C26000E2D222E222F222FA0A6EF1EF0B9
:103D4800A8EF1EF0BFEF1EF02CC021F02DC022F00E
:103D58002EC023F02FC024F0243424322332223200
:103D6800213221C02CF022C02DF023C02EF024C017
:103D78002FF0304A312A31BECAEF1EF0315008E127
:103D88003028D8A0CAEF1EF0CCEF1EF0D6EF1EF0F8
:103D9800000E2C6E000E2D6E800E2E6E7F0E2F6E76
:103DA80004EF1FF031BEE3EF1EF0315006E130049E
:103DB800D8B0E1EF1EF0E3EF1EF0EFEF1EF0000EBB
:103DC8002C6E000E2D6E000E2E6E000E2F6E000E45
:103DD800256E04EF1FF030C02BF0FF0E2C16FF0EDF
:103DE8002D167F0E2E16000E2F162BA0FEEF1EF09E
:103DF80000EF1FF001EF1FF02E8ED8902B302F6EA2
:103E080025502F122CC019F02DC01AF02EC01BF00F
:103E18002FC01CF0120001011151800B1E6F1151AF
:103E28001125256F10AF1BEF1FF01DEF1FF01EEFC0
:103E38001FF025812551D8B424EF1FF026EF1FF07D
:103E48003BEF1FF02529D8A42CEF1FF02EEF1FF011
:103E580036EF1FF0000E0E6F000E0F6F000E106F82
:103E6800000E116F108F000E116F43EF1FF0000E40
:103E78000E6F000E0F6F000E106F000E116F1551B0
:103E8800800B1E1B15511525266F14AF4EEF1FF022
:103E980050EF1FF051EF1FF026812651D8B457EF8D
:103EA8001FF059EF1FF06EEF1FF02629D8A45FEF1F
:103EB8001FF061EF1FF069EF1FF0000E126F000E88
:103EC800136F000E146F000E156F148F000E156F10
:103ED80076EF1FF0000E126F000E136F000E146FB6
:103EE800000E156F1251131114111511D8A47FEF7C
:103EF8001FF081EF1FF099EF1FF0000E0E6F000EFC
:103F08000F6F000E106F000E116F800E10137F0ED2
:103F180011131E5111130EC10EF10FC10FF110C173
:103F280010F111C111F1DCEF20F02551D8A49FEF59
:103F38001FF0A1EF1FF0ABEF1FF0000E0E6F000E89
:103F48000F6F000E106F000E116FDCEF20F026517E
:103F580025C116F1176B165F000E175B7F0E16252D
:103F68001F6F000E1721206F0EC11AF10FC11BF130
:103F780010C11CF111C11DF1000E0E6F000E0F6F64
:103F8800000E106F000E116F000E216F000E226FD1
:103F9800000E236F000E246F000E266F0CEF20F02A
:103FA8002651D8B4DAEF1FF0DCEF1FF0F3EF1FF063
:103FB800D8901A371B371C371D37D8900E370F3754
:103FC8001037113724AFEBEF1FF0EDEF1FF0EEEFD6
:103FD8001FF00E81D890213722372337243712510A
:103FE8001A5D13511B5914511C5915511D59D8A04C
:103FF80000EF20F002EF20F00BEF20F0248D12519B
:104008001A5F13511B5B14511C5B15511D5B262B4A
:10401800190E266512EF20F014EF20F0D4EF1FF0F0
:104028001A511B111C111D11D8B41DEF20F01FEFE0
:1040380020F037EF20F0218137EF20F0D8900E37AD
:104048000F371037113724AF2CEF20F02EEF20F068
:104058002FEF20F00E81D8902137223723372437CD
:104068001F07D8A0200710AF3CEF20F03EEF20F04C
:1040780022EF20F0000E266F24AF45EF20F047EF27
:1040880020F06BEF20F0FF0E2115166FFF0E2215A2
:10409800176FFF0E2315186F7F0E2415196F165111
:1040A800171118111911D8B45CEF20F05EEF20F049
:1040B80062EF20F0010E266F6BEF20F00EA167EF84
:1040C80020F069EF20F06BEF20F05EEF20F0265132
:1040D800D8B471EF20F073EF20F097EF20F0010EC5
:1040E8000E27000E0F231023112311A17EEF20F0BD
:1040F80080EF20F097EF20F00EC116F10FC117F1F5
:1041080010C118F111C119F11935193318331733C2
:10411800163316C10EF117C10FF118C110F119C1EC
:1041280011F11F4B202B20BFA2EF20F0205108E1F6
:104138001F29D8A0A2EF20F0A4EF20F0AFEF20F0C5
:10414800000E206F1F69000E0E6F000E0F6F000E1D
:10415800106F000E116F20BFBCEF20F0205106E158
:104168001F05D8B0BAEF20F0BCEF20F0CAEF20F05E
:10417800000E206F000E1F6F000E0E6F000E0F6FE7
:10418800000E106F000E116F000E1E6F1FC125F17B
:1041980025A1D1EF20F0D3EF20F0D6EF20F0108F3B
:1041A800D7EF20F0109FD8902531116F8DEF1FF0B9
:1041B80012000450800B116E04500424186E03AED4
:1041C800E8EF20F0EAEF20F0EBEF20F0188018502D
:1041D800D8B4F1EF20F0F3EF20F008EF21F0182821
:1041E800D8A4F9EF20F0FBEF20F003EF21F0000E48
:1041F800016E000E026E000E036E000E046E038E3A
:10420800000E046E10EF21F0000E016E000E026E1B
:10421800000E036E000E046E0850800B111A085031
:104228000824196E07AE1BEF21F01DEF21F01EEFD9
:1042380021F019801950D8B424EF21F026EF21F08D
:104248003BEF21F01928D8A42CEF21F02EEF21F014
:1042580036EF21F0000E056E000E066E000E076E9A
:10426800000E086E078E000E086E43EF21F0000E58
:10427800056E000E066E000E076E000E086E0550E5
:10428800061007100810D8A44CEF21F04EEF21F0CB
:1042980066EF21F0000E016E000E026E000E036E36
:1042A800000E046E800E03127F0E041211500412C9
:1042B80001C001F002C002F003C003F004C004F022
:1042C800A9EF22F01850D8A46CEF21F06EEF21F07E
:1042D80078EF21F0000E016E000E026E000E036EE4
:1042E800000E046EA9EF22F0195018C009F00A6AEE
:1042F800095E000E0A5A7F0E0924126E000E0A206B
:10430800136E01C00DF002C00EF003C00FF004C020
:1043180010F0000E016E000E026E000E036E000E0D
:10432800046E000E146E000E156E000E166E000E52
:10433800176E000E196ED9EF21F01950D8B4A7EFF7
:1043480021F0A9EF21F0C0EF21F0D8900D360E36FC
:104358000F361036D890013602360336043617AEBB
:10436800B8EF21F0BAEF21F0BBEF21F00180D8902F
:10437800143615361636173605500D5C06500E588D
:1043880007500F5808501058D8A0CDEF21F0CFEFA4
:1043980021F0D8EF21F0178C05500D5E06500E5A0B
:1043A80007500F5A0850105A192A190E1964DFEFCE
:1043B80021F0E1EF21F0A1EF21F00D500E100F10C8
:1043C8001010D8B4EAEF21F0ECEF21F004EF22F05E
:1043D800148004EF22F0D8900136023603360436F2
:1043E80017AEF9EF21F0FBEF21F0FCEF21F001808F
:1043F800D89014361536163617361206D8A0130676
:1044080003AE09EF22F00BEF22F0EFEF21F0000EE0
:10441800196E17AE12EF22F014EF22F038EF22F0E7
:10442800FF0E1414096EFF0E15140A6EFF0E1614F3
:104438000B6E7F0E17140C6E09500A100B100C101F
:10444800D8B429EF22F02BEF22F02FEF22F0010E43
:10445800196E38EF22F001A034EF22F036EF22F087
:1044680038EF22F02BEF22F01950D8B43EEF22F0AB
:1044780040EF22F064EF22F0010E0126000E022226
:104488000322042204A04BEF22F04DEF22F064EF48
:1044980022F001C009F002C00AF003C00BF004C00A
:1044A8000CF00C340C320B320A32093209C001F01C
:1044B8000AC002F00BC003F00CC004F0124A132A21
:1044C80013BE6FEF22F0135008E11228D8A06FEF47
:1044D80022F071EF22F07CEF22F0000E136E1268CA
:1044E800000E016E000E026E000E036E000E046ECA
:1044F80013BE89EF22F0135006E11204D8B087EFFB
:1045080022F089EF22F097EF22F0000E136E000ED2
:10451800126E000E016E000E026E000E036E000E8B
:10452800046E000E116E12C018F018A09EEF22F053
:10453800A0EF22F0A3EF22F0038EA4EF22F0039E57
:10454800D8901830046E5AEF21F012001E6E200E1B
:10455800B0EC49F0010EB0EC49F01F0E1E64B7EF45
:1045680022F0B9EF22F0C1EF22F07E0E1E64BFEFF9
:1045780022F0C1EF22F0C3EF22F03F0E1E6E095069
:10458800D8B4C9EF22F0CBEF22F0D3EF22F0040E1B
:104598000964D1EF22F0D3EF22F0D5EF22F0010E1B
:1045A800096E000E176EEAEF22F009C001F0010152
:1045B800FE515FEC48F0E806D8B4E5EF22F0E7EFEB
:1045C80022F007EF23F00101FE2B172AFF0E0A6ED7
:1045D800FF0E0B6E09500C6E0D6A0A500C260B501C
:1045E8000D2217500E6E0F6A0C500E5C0F50800A89
:1045F800106E0D50800A1058D8A005EF23F007EF71
:1046080023F0D9EF22F0150E0101FE650EEF23F01D
:1046180010EF23F01CEF23F0010EFE6FFC51D8B40D
:1046280018EF23F01AEF23F01CEF23F00950FD27B1
:10463800210EB0EC49F00101FE05060DF350B0EC77
:1046480049F00950050DF3CF0AF00101FE51060D9E
:10465800F3500A24F90FB0EC49F0220EB0EC49F0FF
:104668000101FD05B0EC49F009500101FD25FE0FDF
:10467800B0EC49F0CFEC49F00101F35145EC4AF0B8
:10468800400E89EC44F0000E1D6ED6C111F0D7C162
:1046980012F0D8C113F0D9C114F0530E1E6057EFB1
:1046A80023F059EF23F074EF23F01E50E00F050DAF
:1046B800F3CF1AF04B0E0A6EFB0E0B6E1A500A2639
:1046C800000E0B221D500A26000E0B220AC0F6FF10
:1046D8000BC0F7FFF86A0800F5CF19F08DEF23F04B
:1046E8001E50AD0F050DF3CF1AF04A0E0A6EFC0EE0
:1046F8000B6E1A500A26000E0B221D500A26000EB9
:104708000B220AC0F6FF0BC0F7FFF86A0800F5CFC6
:1047180019F00904D8A493EF23F095EF23F09AEF4A
:1047280023F0195089EC44F01CEF24F0000E1F6EA2
:104738001FC00AF0010E0B6E0A2AA5EF23F0D890CD
:104748000B360A2EA3EF23F00B5019140009D8B426
:10475800B0EF23F0B2EF23F0EEEF23F0000E1C6E63
:10476800E5EF23F01F500902F3501C24070B156EC8
:104778001F500902F3CF0AF0F4CF0BF01C500A24A3
:10478800016E000E0B20026E000E046E080E036E02
:104798001CEC3CF00150166E15C00AF0010E0B6EB1
:1047A8000A2AD9EF23F0D8900B360A2ED7EF23F038
:1047B800110E1624D96EDA6A000EDA220B50DF12B7
:1047C8001C2A09501C5CD8A0ECEF23F0EEEF23F074
:1047D800B6EF23F01F2A070E1F64F5EF23F0F7EF5B
:1047E80023F09CEF23F0000E186E13EF24F0000E58
:1047F8001B6E09EF24F0110E1B24D96EDA6A000E25
:10480800DA22DF5089EC44F01B2A09501B5CD8A03F
:1048180010EF24F012EF24F0FFEF23F0182A0950CC
:10482800185CD8A01AEF24F01CEF24F0FBEF23F05B
:104838001D2A040E1D6423EF24F025EF24F049EF10
:1048480023F08FEC49F009500101FE27150EFE6593
:1048580030EF24F032EF24F03EEF24F0010EFE6F2B
:10486800FC51D8B43AEF24F03CEF24F03EEF24F0AA
:104878000950FD27200EB0EC49F0000EB0EC49F0CD
:1048880012000101E7BF4BEF24F04DEF24F04EEF8B
:1048980024F0E893E7BF5BEF24F0E75106E1E60573
:1048A800D8B059EF24F05BEF24F061EF24F0000E4C
:1048B800316F010E306F65EF24F0E6C130F1E7C1CA
:1048C80031F1E4C132F1E5C133F1E8A96EEF24F02A
:1048D80070EF24F074EF24F0FE0E3227FF0E33231E
:1048E8001FC134F120C135F121C136F122C137F1A0
:1048F80023C138F124C139F125C13AF126C13BF170
:10490800000E3D6F4F0E3C6F000E0201AE6F27EF99
:1049180025F03C07D8A03D070F0E34153E6F3F6BBE
:104928003FBFA0EF24F03F5109E10A0E3E5DD8A039
:10493800A0EF24F0A2EF24F0AAEF24F0570E3E25B2
:104948003E6F000E3F213F6FB0EF24F0300E3E2542
:104958003E6F000E3F213F6FBF0E286FFF0E296F7D
:1049680027512A6F2B6B28512A2729512B232B518A
:1049780007E11A0E2A5DD8B0C4EF24F0C6EF24F080
:10498800E9EF24F09F0E286FFF0E296F200E3E11CD
:104998002A6F000E3F112B6F28512A2729512B23EC
:1049A8002B5107E11A0E2A5DD8B0DDEF24F0DFEFB6
:1049B80024F0E9EF24F03EC106F13FC107F12DECE8
:1049C80046F006C13EF107C13FF15F0E01013C25EB
:1049D800D96E020E3D21DA6E3EC1DFFF3007D8A046
:1049E80031073207D8A0330734C128F135C129F17E
:1049F80036C12AF137C12BF138C12CF139C12DF15B
:104A08003AC12EF13BC12FF1050E14EF25F0D890D5
:104A18002F332E332D332C332B332A33293328339A
:104A2800E82E0BEF25F028C134F129C135F12AC150
:104A380036F12BC137F12CC138F12DC139F12EC116
:104A48003AF12FC13BF101013DBF34EF25F03D5153
:104A580009E1020E3C5DD8A034EF25F036EF25F0D1
:104A680066EF25F0345135113611371138113911E7
:104A78003A113B11D8A443EF25F045EF25F08DEF0F
:104A880024F031BF52EF25F0315106E13005D8B09E
:104A980050EF25F052EF25F08DEF24F033BF5DEF96
:104AA80025F0335108E13205D8A05DEF25F05FEF1E
:104AB80025F066EF25F0E8B364EF25F066EF25F002
:104AC8008DEF24F0E8A96BEF25F06DEF25F083EF6B
:104AD80025F03C07D8A03D075F0E3C25D96E020E95
:104AE8003D21DA6E27C1DFFF3C07D8A03D075F0EE6
:104AF8003C25D96E020E3D21DA6E300EDF6E1DC1E7
:104B080012F11EC113F15F0E3C25146F020E3D21F8
:104B1800156F32C116F133C117F18CEC3AF012C19E
:104B28001DF113C11EF112000101E7BF9EEF25F030
:104B3800A0EF25F0A1EF25F0E893E7BFAEEF25F051
:104B4800E75106E1E605D8B0ACEF25F0AEEF25F069
:104B5800B4EF25F0000E326E010E316EB8EF25F07D
:104B6800E6C131F0E7C132F0E4C133F0E5C134F019
:104B7800E8A9C1EF25F0C3EF25F0C7EF25F0FE0E39
:104B88003326FF0E342220C035F021C036F022C073
:104B980037F023C038F024C039F025C03AF026C0D9
:104BA8003BF027C03CF0000E3E6E4F0E3D6E000EEF
:104BB8000201AE6F79EF26F03D06D8A03E060F0E33
:104BC80035143F6E406A40BEF3EF25F0405009E1CE
:104BD8000A0E3F5CD8A0F3EF25F0F5EF25F0FDEFC6
:104BE80025F0570E3F243F6E000E4020406E03EF25
:104BF80026F0300E3F243F6E000E4020406EBF0E60
:104C0800296EFF0E2A6E28502B6E2C6A29502B26EF
:104C18002A502C222C5007E11A0E2B5CD8B017EF23
:104C280026F019EF26F03CEF26F09F0E296EFF0EB6
:104C38002A6E200E3F102B6E000E40102C6E29504D
:104C48002B262A502C222C5007E11A0E2B5CD8B0A8
:104C580030EF26F032EF26F03CEF26F03FC003F0AD
:104C680040C004F0B8EC46F003C03FF004C040F088
:104C78005F0E3D24D96E020E3E20DA6E3FC0DFFF84
:104C88003106D8A032063306D8A0340635C029F03C
:104C980036C02AF037C02BF038C02CF039C02DF0C0
:104CA8003AC02EF03BC02FF03CC030F0050E66EF46
:104CB80026F0D89030322F322E322D322C322B3231
:104CC8002A322932E82E5DEF26F029C035F02AC0B5
:104CD80036F02BC037F02CC038F02DC039F02EC07C
:104CE8003AF02FC03BF030C03CF03EBE85EF26F0D6
:104CF8003E5009E1020E3D5CD8A085EF26F087EF13
:104D080026F0B8EF26F03550361037103810391025
:104D18003A103B103C10D8A494EF26F096EF26F0FA
:104D2800E0EF25F032BEA3EF26F0325006E1310461
:104D3800D8B0A1EF26F0A3EF26F0E0EF25F034BEBF
:104D4800AEEF26F0345008E13304D8A0AEEF26F0D9
:104D5800B0EF26F0B8EF26F00101E8B3B6EF26F081
:104D6800B8EF26F0E0EF25F00101E8A9BEEF26F044
:104D7800C0EF26F0D6EF26F03D06D8A03E065F0E1F
:104D88003D24D96E020E3E20DA6E28C0DFFF3D06B4
:104D9800D8A03E065F0E3D24D96E020E3E20DA6E84
:104DA800300EDF6E1EC013F01FC014F05F0E3D24DE
:104DB800156E020E3E20166E33C017F034C018F080
:104DC800B9EC3BF013C01EF014C01FF01200CEC1A6
:104DD80037F1CFC138F1D0C139F1D1C13AF127C18A
:104DE80037F128C138F129C139F12AC13AF1810EC8
:104DF80001012B6FFF0E2C6F37C12DF138C12EF139
:104E080039C12FF13AC130F1180E10EF27F0D890C0
:104E180030332F332E332D33E82E0BEF27F02D515F
:104E28002B25356F000E2C21366F36BF25EF27F066
:104E3800365109E1170E355DD8A025EF27F027EF89
:104E480027F031EF27F027C127F128C128F129C120
:104E580029F12AC12AF1F5EF27F036BF36EF27F0FE
:104E680038EF27F0A9EF27F035C12BF1FF0E2C6F93
:104E7800FF0E2D6F7F0E2E6F000E2F6F2B6747EFE3
:104E880027F04FEF27F02F352F332E332D332C33C8
:104E98002B2F42EF27F02CC131F12DC132F12EC159
:104EA80033F12FC134F10101315137152B6F3251D4
:104EB80038152C6F335139152D6F34513A152E6F23
:104EC8002B512C112D112E11D8A46DEF27F06FEF57
:104ED80027F071EF27F027EF27F037C12BF138C102
:104EE8002CF139C12DF13AC12EF1200E81EF27F0B6
:104EF800D8902E332D332C332B33E82E7CEF27F02C
:104F08002B512C112D112E11D8B48DEF27F08FEFC6
:104F180027F097EF27F03151372732513823335193
:104F2800392334513A23311D2B6F321D2C6F331D19
:104F38002D6F341D2E6F2B5137172C5138172D51CB
:104F480039172E513A17EDEF27F037C12BF138C139
:104F58002CF139C12DF13AC12EF1200EB9EF27F00D
:104F6800D8902E332D332C332B33E82EB4EF27F083
:104F78002B512C112D112E11D8A4C5EF27F0C7EFF6
:104F880027F0D1EF27F0000E376F000E386F000EB4
:104F9800396F000E3A6FEDEF27F0D89037352B6F49
:104FA80038352C6F39352D6F3A352E6F2B512C1122
:104FB8002D112E11D8B4E3EF27F0E5EF27F0EDEF30
:104FC80027F0000E376F000E386F800E396FBF0E56
:104FD8003A6F37C127F138C128F139C129F13AC1EF
:104FE8002AF11200CEC12AF0CFC12BF0D0C12CF08B
:104FF800D1C12DF01AC02AF01BC02BF01CC02CF018
:105008001DC02DF0810E1E6EFF0E1F6E2AC020F0EF
:105018002BC021F02CC022F02DC023F0180E1AEF5F
:1050280028F0D8902332223221322032E82E15EF90
:1050380028F020501E24286E000E1F20296E29BE3D
:105048002FEF28F0295009E1170E285CD8A02FEF80
:1050580028F031EF28F03BEF28F01AC01AF01BC0F7
:105068001BF01CC01CF01DC01DF0FEEF28F029BE6F
:1050780040EF28F042EF28F0B2EF28F028C01EF0E9
:10508800FF0E1F6EFF0E206E7F0E216E000E226E29
:105098001E6651EF28F059EF28F0223422322132CF
:1050A80020321F321E2E4CEF28F01FC024F020C0E3
:1050B80025F021C026F022C027F024502A141E6EA5
:1050C80025502B141F6E26502C14206E27502D149B
:1050D800216E1E501F1020102110D8A476EF28F042
:1050E80078EF28F07AEF28F031EF28F02AC01EF088
:1050F8002BC01FF02CC020F02DC021F0200E8AEF0D
:1051080028F0D890213220321F321E32E82E85EF47
:1051180028F01E501F1020102110D8B496EF28F048
:1051280098EF28F0A0EF28F024502A2625502B22AB
:1051380026502C2227502D22241C1E6E251C1F6E43
:10514800261C206E271C216E1E502A161F502B1657
:1051580020502C1621502D16F6EF28F02AC01EF0EC
:105168002BC01FF02CC020F02DC021F0200EC2EF64
:1051780028F0D890213220321F321E32E82EBDEF9F
:1051880028F01E501F1020102110D8A4CEEF28F0B0
:10519800D0EF28F0DAEF28F0000E2A6E000E2B6E02
:1051A800000E2C6E000E2D6EF6EF28F0D8902A34E3
:1051B8001E6E2B341F6E2C34206E2D34216E1E5023
:1051C8001F1020102110D8B4ECEF28F0EEEF28F0D3
:1051D800F6EF28F0000E2A6E000E2B6E800E2C6E55
:1051E800BF0E2D6E2AC01AF02BC01BF02CC01CF06D
:1051F8002DC01DF012000101E7BF05EF29F007EFF0
:1052080029F008EF29F0E893E7BF15EF29F0E751F7
:1052180006E1E605D8B013EF29F015EF29F01BEFEA
:1052280029F0000E306F010E2F6F1FEF29F0E6C135
:105238002FF1E7C130F1E4C131F1E5C132F11FC10D
:1052480033F120C134F121C135F122C136F123C136
:1052580037F124C138F125C139F126C13AF1000EE0
:105268003C6F4F0E3B6F000E0201AE6FB3EF29F09B
:105278003B07D8A03C075F0E3B25D96E020E3C21A8
:10528800DA6E33C100F134C101F135C102F136C122
:1052980003F137C104F138C105F139C106F13AC14A
:1052A80007F10A0E086F000E096F000E0A6F000E54
:1052B8000B6F000E0C6F000E0D6F000E0E6F000EC0
:1052C8000F6F55EC39F000C127F101C128F102C177
:1052D80029F103C12AF104C12BF105C12CF106C142
:1052E8002DF107C12EF101012751300FDF6E2F0775
:1052F800D8A030073107D8A0320733C100F134C134
:1053080001F135C102F136C103F137C104F138C1E9
:1053180005F139C106F13AC107F10A0E086F000E0E
:10532800096F000E0A6F000E0B6F000E0C6F000E57
:105338000D6F000E0E6F000E0F6F30EC36F000C1CF
:1053480033F101C134F102C135F103C136F104C1B1
:1053580037F105C138F106C139F107C13AF1010148
:105368003B513C11D8B4BBEF29F0BDEF29F0EDEF6C
:1053780029F03351341135113611371138113911DB
:105388003A11D8A4CAEF29F0CCEF29F03CEF29F064
:1053980030BFD9EF29F0305106E12F05D8B0D7EF4B
:1053A80029F0D9EF29F03CEF29F032BFE4EF29F0DA
:1053B800325108E13105D8A0E4EF29F0E6EF29F0F1
:1053C800EDEF29F0E8B3EBEF29F0EDEF29F03CEF32
:1053D80029F01DC112F11EC113F15F0E3B25146F98
:1053E800020E3C21156F31C116F132C117F18CEC58
:1053F8003AF012C11DF113C11EF112000101E7BFFD
:1054080008EF2AF00AEF2AF00BEF2AF0E893E7BF3B
:1054180018EF2AF0E75106E1E605D8B016EF2AF0B2
:1054280018EF2AF01EEF2AF0000E316E010E306ED2
:1054380022EF2AF0E6C130F0E7C131F0E4C132F0E2
:10544800E5C133F020C034F021C035F022C036F079
:1054580023C037F024C038F025C039F026C03AF010
:1054680027C03BF0000E3D6E4F0E3C6E000E020151
:10547800AE6FB5EF2AF03C06D8A03D065F0E3C247F
:10548800D96E020E3D20DA6E34C001F035C002F04C
:1054980036C003F037C004F038C005F039C006F054
:1054A8003AC007F03BC008F00A0E096E000E0A6EFB
:1054B800000E0B6E000E0C6E000E0D6E000E0E6EC2
:1054C800000E0F6E000E106EBEEC39F001C028F011
:1054D80002C029F003C02AF004C02BF005C02CF04C
:1054E80006C02DF007C02EF008C02FF02850300F4E
:1054F800DF6E3006D8A031063206D8A0330634C095
:1055080001F035C002F036C003F037C004F038C0EF
:1055180005F039C006F03AC007F03BC008F00A0EA3
:10552800096E000E0A6E000E0B6E000E0C6E000E59
:105538000D6E000E0E6E000E0F6E000E106EA9ECB2
:1055480036F001C034F002C035F003C036F004C0B4
:1055580037F005C038F006C039F007C03AF008C087
:105568003BF03C503D10D8B4BCEF2AF0BEEF2AF017
:10557800EFEF2AF034503510361037103810391044
:105588003A103B10D8A4CBEF2AF0CDEF2AF03FEF2A
:105598002AF031BEDAEF2AF0315006E13004D8B0F3
:1055A800D8EF2AF0DAEF2AF03FEF2AF033BEE5EF22
:1055B8002AF0335008E13204D8A0E5EF2AF0E7EFEB
:1055C8002AF0EFEF2AF00101E8B3EDEF2AF0EFEF50
:1055D8002AF03FEF2AF01EC013F01FC014F05F0E30
:1055E8003C24156E020E3D20166E32C017F033C0F3
:1055F80018F0B9EC3BF013C01EF014C01FF01200F5
:105608000101086F01010851D8B40DEF2BF00FEF1D
:105618002BF031EF2BF003BF16EF2BF014EF2BF02C
:1056280031EF2BF000C104F101C105F102C106F10F
:1056380003C107F1041F051F061F071F042B000ED7
:1056480005230623072304C10AF105C10BF106C18E
:105658000CF107C10DF139EF2BF000C10AF101C1BE
:105668000BF102C10CF103C10DF10051011102113E
:105678000311D8A442EF2BF044EF2BF04EEF2BF0A0
:10568800000E006F000E016F000E026F000E036F18
:10569800DFEF2BF0960E096F58EF2BF0092BD890FF
:1056A8000D330C330B330A33000E0A15046F000E4A
:1056B8000B15056F000E0C15066FFE0E0D15076F06
:1056C8000451051106110711D8A46DEF2BF06FEFE7
:1056D8002BF052EF2BF07DEF2BF0092B010E0A2750
:1056E800000E0B230C230D23D8900D330C330B33F2
:1056F8000A33000E0A15046F000E0B15056F000E15
:105708000C15066FFF0E0D15076F045105110611D4
:105718000711D8A492EF2BF094EF2BF071EF2BF038
:105728009CEF2BF00907D8900A370B370C370D3749
:105738000CBFA1EF2BF0A3EF2BF0ABEF2BF0020E79
:105748000961A9EF2BF0ABEF2BF096EF2BF009B125
:10575800B0EF2BF0B2EF2BF0B3EF2BF00C9FD890FB
:10576800093309C104F1056B066B076B04C107F126
:10577800066B056B046B04510A1305510B13065194
:105788000C1307510D130851D8B4CDEF2BF0CFEF00
:105798002BF0D7EF2BF003BFD6EF2BF0D4EF2BF085
:1057A800D7EF2BF00D8F0AC100F10BC101F10CC12D
:1057B80002F10DC103F11200096E0950D8B4E7EFE8
:1057C8002BF0E9EF2BF00BEF2CF004BEF0EF2BF0F1
:1057D800EEEF2BF00BEF2CF001C005F002C006F045
:1057E80003C007F004C008F0051E061E071E081EA9
:1057F800052A000E06220722082205C00BF006C063
:105808000CF007C00DF008C00EF013EF2CF001C02B
:105818000BF002C00CF003C00DF004C00EF00150F4
:10582800021003100410D8A41CEF2CF01EEF2CF06B
:1058380028EF2CF0000E016E000E026E000E036EB3
:10584800000E046EB9EF2CF0960E0A6E32EF2CF0B3
:105858000A2AD8900E320D320C320B32000E0B147D
:10586800056E000E0C14066E000E0D14076EFE0E6B
:105878000E14086E0550061007100810D8A447EF3C
:105888002CF049EF2CF02CEF2CF057EF2CF00A2AD3
:10589800010E0B26000E0C220D220E22D8900E327D
:1058A8000D320C320B32000E0B14056E000E0C1468
:1058B800066E000E0D14076EFF0E0E14086E0550CE
:1058C800061007100810D8A46CEF2CF06EEF2CF01F
:1058D8004BEF2CF076EF2CF00A06D8900B360C36EE
:1058E8000D360E360DBE7BEF2CF07DEF2CF085EFDC
:1058F8002CF0020E0A6083EF2CF085EF2CF070EF8D
:105908002CF00AB08AEF2CF08CEF2CF08DEF2CF0F5
:105918000D9ED8900A320AC005F0066A076A086A1E
:1059280005C008F0076A066A056A05500B1206509A
:105938000C1207500D1208500E120950D8B4A7EFD8
:105948002CF0A9EF2CF0B1EF2CF004BEB0EF2CF046
:10595800AEEF2CF0B1EF2CF00E8E0BC001F00CC0A6
:1059680002F00DC003F00EC004F0120022EE3FF06A
:1059780010EEC8F00F0EDBCFE3FFE806FCE20001F3
:1059880020EE02F0C651D926C751DA22DF50C86F7F
:1059980020EE01F0C651D926C751DA22DF50C96F6F
:1059A800C6C0D9FFC7C0DAFFDF50CA6F20EE03F0C8
:1059B800C651D926C751DA22DF50CB6F20EE04F04A
:1059C800C651D926C751DA22DF50CC6F20EE05F038
:1059D800C651D926C751DA22DF50CD6F20EE06F026
:1059E800C651D926C751DA22DF50CE6F20EE07F014
:1059F800C651D926C751DA22DF50CF6F20EE10F0FA
:105A0800C651D926C751DA22DF50D06F000ED16FA8
:105A1800000ED26F000ED36F000ED46F000ED56F3C
:105A2800000ED66F000ED76F870EA26FFD0EA36F04
:105A380031EC49F0000E0001D96F000ED86FE40E6A
:105A4800A26FFF0EA36FC80ED825D96E000ED921FC
:105A5800DA6EDF507E6E7E50A46FA56B31EC49F094
:105A68000001D84BD92BD9BF43EF2DF0D95109E10B
:105A7800100ED85DD8A043EF2DF045EF2DF023EFA1
:105A88002DF0D40EA26FFF0EA36F31EC49F0C80EB3
:105A9800076E000E086EFEC009F0FFC00AF04AEC5F
:105AA80043F0820E7E6EDE0EE82EFED77E2EFCD7E9
:105AB800D00E076E000E086E080E0001FE25096E56
:105AC800000EFF210A6E4AEC43F0820E7E6EDE0E57
:105AD800E82EFED77E2EFCD7100E0001FE27000E02
