:0400000007EF00F016
:100008007F827FED3DF047EF44F067506810D8B429
:1000180010EF00F012EF00F01EEF00F067C0D9FFFC
:1000280068C0DAFF65C0DEFF66C0DDFF1EEF00F0C6
:10003800654A662A65C0D9FF66C0DAFF200EDE1859
:10004800D8B429EF00F02CEF00F0010E2DEF00F0EE
:10005800000E736E746A73507410D8A436EF00F0F3
:1000680038EF00F01CEF00F0F70E696EFF0E6A6EB5
:1000780065C0D9FF66C0DAFFDF506B6E6B50736ED8
:10008800746A73C06CF074C06DF069506C266A5065
:100098006D226D5009E1050E6C5CD8A056EF00F09A
:1000A80058EF00F01CEF00F0000E706E2D0E731864
:1000B8007410D8A462EF00F064EF00F06AEF00F06B
:1000C800010E706E654A662A76EF00F02B0E7318E3
:1000D8007410D8A472EF00F074EF00F076EF00F01F
:1000E80066EF00F0000E796E7BEF00F0792A795008
:1000F8006524D96E000E6620DA6EDF50D8B487EF1B
:1001080000F089EF00F0BFEF00F079506524D96E58
:10011800000E6620DA6EDF50696EAA0E7924F66E3C
:10012800F76AFF0EF722F86A000EF8220800F55069
:100138006918D8B4A2EF00F0A4EF00F07AEF00F04D
:1001480079506524D96E000E6620DA6EDF50696E2C
:10015800A10E7924F66EF76AFF0EF722F86A000EF0
:10016800F8220800F5506918D8B4BDEF00F0BFEFC9
:1001780000F07AEF00F0020E7964C5EF00F0C7EFE7
:1001880000F0F3EF00F0000E756E000E766E800E34
:10019800776E7F0E786E67506810D8B4D6EF00F08F
:1001A800D8EF00F033EF08F0080E7918D8B4DFEF75
:1001B80000F0E1EF00F0E3EF00F0030E796E795004
:1001C8006524696E000E66206A6E67C0D9FF68C034
:1001D800DAFF69C0DEFF6AC0DDFF33EF08F0000E0A
:1001E800796EF8EF00F0792A79506524D96E000EFF
:1001F8006620DA6EDF50D8B404EF01F006EF01F0A4
:100208003CEF01F079506524D96E000E6620DA6E55
:10021800DF50696EEE0E7924F66EF76AFF0EF7224C
:10022800F86A000EF8220800F5506918D8B41FEFD4
:1002380001F021EF01F0F7EF00F079506524D96E55
:10024800000E6620DA6EDF50696EE60E7924F66ECF
:10025800F76AFF0EF722F86A000EF8220800F55038
:100268006918D8B43AEF01F03CEF01F0F7EF00F06D
:10027800030E7918D8A443EF01F045EF01F0B3EF6E
:1002880001F0CC0E016EFF0E026E6DEC4FF001C056
:1002980075F002C076F003C077F004C078F06750BC
:1002A8006810D8B45AEF01F05CEF01F033EF08F0B2
:1002B80079506526000E662265C0D9FF66C0DAFF50
:1002C800280EDE18D8A46BEF01F06DEF01F0A9EF4E
:1002D80001F0000E796E72EF01F0792A79506524E9
:1002E800D96E000E6620DA6EDF50D8B47EEF01F0CA
:1002F80080EF01F08FEF01F079506524D96E000E80
:100308006620DA6E290EDE18D8A48DEF01F08FEF83
:1003180001F071EF01F079506524D96E000E662066
:10032800DA6E290EDE18D8A49CEF01F09EEF01F0DA
:10033800A9EF01F07950696E6A6A010E6926000E0C
:100348006A22695065266A50662267C0D9FF68C06C
:10035800DAFF65C0DEFF66C0DDFF33EF08F0000E90
:10036800746E000E736E000E756E000E766E000EC3
:10037800776E000E786E000E726E000E716E000EB3
:10038800796EC8EF01F0792A79506524D96E000E8C
:100398006620DA6E300EDE18D8B4D5EF01F0D7EF4C
:1003A80001F0C7EF01F07950D8B4DDEF01F0DFEFCD
:1003B80001F04FEF05F079506524D96E000E6620E4
:1003C800DA6E780EDE18D8B4ECEF01F0EEEF01F03B
:1003D800FDEF01F079506524D96E000E6620DA6EC3
:1003E800580EDE18D8A4FBEF01F0FDEF01F04FEF37
:1003F80005F07950696E6A6A010E6926000E6A2254
:10040800695065266A506622000E796E0DEF02F07B
:10041800792A79506524D96E000E6620DA6E300E7E
:10042800DE18D8B41AEF02F01CEF02F00CEF02F05D
:10043800000E796E79506524D96E000E6620DA6E4A
:10044800700EDE18D8B42BEF02F02DEF02F09FEFFC
:1004580003F079506524D96E000E6620DA6E500ECE
:10046800DE18D8A43AEF02F03CEF02F03EEF02F0BB
:100478009FEF03F079506524D96E000E6620DA6E7E
:100488002E0EDE18D8A44BEF02F04DEF02F051EF1C
:1004980002F07088792A9FEF03F079506524D96EAD
:1004A800000E6620DA6EDF50696E6950076E086AC2
:1004B80077EC47F007500810D8B465EF02F067EF03
:1004C80002F0D5EF02F0000E6F6ED00E696EFF0ECF
:1004D8006A6E79506524D96E000E6620DA6EDF5098
:1004E8006B6E6C6A69506B266A506C226C5007E11F
:1004F8000A0E6B5CD8B083EF02F085EF02F090EF44
:1005080002F079506524D96E000E6620DA6EDF504D
:10051800D00F6F6EA0EF02F079506524D96E000EEF
:100528006620DA6EDF50696E6950076E086A97ECCC
:100538004CF00750C90F6F6E74BEAEEF02F07450E6
:1005480007E1080E735CD8B0ACEF02F0AEEF02F032
:10055800CDEF02F073500708696ED8906936D890CD
:1005680069366FC06AF06B6A6C6A6D6A692AC2EF95
:1005780002F0D8906A366B366C366D36692EBDEF50
:1005880002F06A5075126B5076126C5077126D50EB
:100598007812734A742A040E7126000E7222DFEF55
:1005A80002F0000E656E000E666E000E676E000E9D
:1005B800686E54EF08F0792A1EEF02F0795065242E
:1005C800D96E000E6620DA6E700EDE18D8B4EFEF22
:1005D80002F0F1EF02F0A6EF03F079506524D96E2E
:1005E800000E6620DA6E500EDE18D8A4FEEF02F078
:1005F80000EF03F002EF03F0A6EF03F07950652453
:10060800D96E000E6620DA6E300EDE18D8A40FEF11
:1006180003F011EF03F020EF03F073507410D8A427
:1006280018EF03F01AEF03F020EF03F0FC0E712629
:10063800FF0E72229EEF03F079506524D96E000EEA
:100648006620DA6EDF50696E6950076E086A77ECCB
:1006580047F007500810D8B434EF03F036EF03F032
:100668009EEF03F0000E6F6ED00E696EFF0E6A6E7D
:1006780079506524D96E000E6620DA6EDF506B6EF5
:100688006C6A69506B266A506C226C5007E10A0E3E
:100698006B5CD8B052EF03F054EF03F05FEF03F058
:1006A80079506524D96E000E6620DA6EDF50D00FBF
:1006B8006F6E6FEF03F079506524D96E000E6620D7
:1006C800DA6EDF50696E6950076E086A97EC4CF075
:1006D8000750C90F6F6E74BE7DEF03F0745007E1C9
:1006E800080E735CD8B07BEF03F07DEF03F09CEF4E
:1006F80003F073500708696ED8906936D890693648
:100708006FC06AF06B6A6C6A6D6A692A91EF03F0D0
:10071800D8906A366B366C366D36692E8CEF03F0DE
:100728006A5075126B5076126C5077126D507812B1
:10073800734A742A792A70B8A4EF03F0A6EF03F07D
:10074800E2EF02F079506524D96E000E6620DA6E69
:10075800700EDE18D8B4B3EF03F0B5EF03F0CEEFA8
:1007680003F079506524D96E000E6620DA6E500EBB
:10077800DE18D8B4C2EF03F0C4EF03F0CEEF03F0F5
:10078800000E656E000E666E000E676E000E686ED7
:1007980054EF08F0792A79506524D96E000E662046
:1007A800DA6E2B0EDE18D8A4DCEF03F0DEEF03F0D0
:1007B800E1EF03F0792AF2EF03F079506524D96E5E
:1007C800000E6620DA6E2D0EDE18D8A4EEEF03F0C8
:1007D800F0EF03F0F2EF03F07086792A795065267E
:1007E800000E6622000E796EFBEF03F0792A79502D
:1007F8006524D96E000E6620DA6E300EDE18D8B485
:1008080008EF04F00AEF04F0FAEF03F0000E746E3C
:10081800000E736E3CEF04F07950D8B416EF04F074
:1008280018EF04F026EF04F073C001F074C002F072
:10083800000E046E0A0E036E26EC4FF001C073F032
:1008480002C074F0D00E696EFF0E6A6E795065248E
:10085800D96E000E6620DA6EDF506B6E6C6A6950D6
:100868006B266A506C226B5073266C507422792A5E
:10087800D00E696EFF0E6A6E79506524D96E000E2F
:100888006620DA6EDF506B6E6C6A69506B266A50B0
:100898006C226C5009E10A0E6B5CD8A056EF04F08C
:1008A80058EF04F010EF04F07950D8A45EEF04F08C
:1008B80060EF04F06AEF04F0000E656E000E666EDD
:1008C800000E676E000E686E54EF08F070A66FEFAA
:1008D80004F071EF04F075EF04F0736C741ED8B077
:1008E800742A735071267450722267506810D8B4F5
:1008F80080EF04F082EF04F090EF04F07950652463
:10090800696E000E66206A6E67C0D9FF68C0DAFF9C
:1009180069C0DEFF6AC0DDFF755076107710781069
:10092800D8A499EF04F09BEF04F0A5EF04F0000EB3
:10093800656E000E666E000E676E000E686E54EFF0
:1009480008F0FF0E7514696E000E76146A6E000EBC
:1009580077146B6E000E78146C6E6C506B106A1006
:1009680009E1810E695CD8A0BCEF04F0BEEF04F089
:10097800D0EF04F0000E7526010E7622000E7722C5
:10098800000E7822D0EF04F0D89075367636773698
:1009980078367106D8A0720678AED5EF04F0D7EF96
:1009A80004F0C8EF04F072AEE3EF04F0830E715C5C
:1009B800FF0E7258D8B0E3EF04F0E5EF04F0F1EF62
:1009C80004F0FF0E726E810E716E000E756E000ED1
:1009D800766E000E776E000E786E810E711808E143
:1009E8007228D8B4FAEF04F0FCEF04F004EF05F035
:1009F800D89075367636773678367106D8A072066E
:100A080072BE10EF05F0725009E1800E715CD8A03B
:100A180010EF05F012EF05F01EEF05F0000E756EF1
:100A2800000E766E000E776E000E786E000E726EF7
:100A3800800E716E090E696ED890783277327632F0
:100A48007532692E20EF05F0FF0E7516FF0E76162B
:100A58007F0E7716000E78167F0E7124696E000ED1
:100A680072206A6EFF0E69146B6E6C6A6D6A6E6A2C
:100A7800170ED8906B366C366D366E36E82E3DEF15
:100A880005F06B5075126C5076126D5077126E50DF
:100A9800781233EF08F070B854EF05F056EF05F010
:100AA80068EF05F065C0D9FF66C0DAFF2E0EDE18C4
:100AB800D8A461EF05F063EF05F068EF05F07088E2
:100AC800654A662A4FEF05F0D00E696EFF0E6A6E12
:100AD80065C0D9FF66C0DAFFDF506B6E6C6A69507B
:100AE8006B266A506C226C5009E10A0E6B5CD8A028
:100AF80080EF05F082EF05F084EF05F0D2EF05F006
:100B08007082090E73187410D8B48DEF05F08FEF4A
:100B180005F0C5EF05F070A894EF05F096EF05F025
:100B280099EF05F07106D8A07206734A742A75C049
:100B380001F076C002F077C003F078C004F00A0E26
:100B4800056E000E066E000E076E000E086E1EEC97
:100B580048F001C075F002C076F003C077F004C019
:100B680078F065C0D9FF66C0DAFFDF50696ED00E35
:100B7800692669507526000E762277227822CEEFF4
:100B880005F070B8CAEF05F0CCEF05F0CEEF05F030
:100B9800714A722A654A662A4FEF05F0000E746E94
:100BA800000E736E65C0D9FF66C0DAFF650EDE18E9
:100BB800D8B4E1EF05F0E3EF05F0F0EF05F065C01C
:100BC800D9FF66C0DAFF450EDE18D8A4EEEF05F0AF
:100BD800F0EF05F0B8EF06F0654A662A65C0D9FF60
:100BE80066C0DAFF2D0EDE18D8A4FDEF05F0FFEF82
:100BF80005F004EF06F07086654A662A13EF06F0E2
:100C080065C0D9FF66C0DAFF2B0EDE18D8A40FEF37
:100C180006F011EF06F013EF06F0654A662A65C084
:100C2800D9FF66C0DAFF300EDE18D8B41EEF06F022
:100C380020EF06F011EF06F0D00E696EFF0E6A6E17
:100C480065C0D9FF66C0DAFFDF506B6E6C6A695009
:100C58006B266A506C226C5007E10A0E6B5CD8B0A8
:100C680038EF06F03AEF06F0ADEF06F065C0D9FFB1
:100C780066C0DAFFDF50696ED00E69266950736E60
:100C8800746A654A662AD00E696EFF0E6A6E65C080
:100C9800D9FF66C0DAFFDF506B6E6C6A69506B264D
:100CA8006A506C226C5007E10A0E6B5CD8B05FEF9B
:100CB80006F061EF06F0ADEF06F065C0D9FF66C03B
:100CC800DAFFDF50696ED00E692673C001F074C078
:100CD80002F0000E046E0A0E036E26EC4FF0695007
:100CE8000124736E000E0220746E654A662AD00EC7
:100CF800696EFF0E6A6E65C0D9FF66C0DAFFDF5005
:100D08006B6E6C6A69506B266A506C226C5007E1F6
:100D18000A0E6B5CD8B093EF06F095EF06F0ADEFD6
:100D280006F065C0D9FF66C0DAFFDF50696ED00EE5
:100D3800692673C001F074C002F0000E046E0A0E3A
:100D4800036E26EC4FF069500124736E000E0220EA
:100D5800746E70A6B2EF06F0B4EF06F0B8EF06F0C6
:100D6800736C741ED8B0742A735071267450722232
:100D780067506810D8B4C3EF06F0C5EF06F0D4EF9B
:100D880006F070A2CAEF06F0CCEF06F0D4EF06F03A
:100D980067C0D9FF68C0DAFF65C0DEFF66C0DDFF47
:100DA80075C001F076C002F077C003F078C004F097
:100DB800000E05EC2FF001C075F002C076F003C0FC
:100DC80077F004C078F075C001F076C002F077C003
:100DD80003F078C004F0000E056E000E066E000EDB
:100DE800076E000E086E06EC43F0D8A0FEEF06F082
:100DF80000EF07F00AEF07F0000E656E000E666E52
:100E0800000E676E000E686E54EF08F072BE11EFA8
:100E180007F00FEF07F09FEF07F0716C721ED8B064
:100E2800722A35EF07F075C00FF076C010F077C062
:100E380011F078C012F0F90E136E020E146E150E32
:100E4800156E500E166EE4EC24F00FC075F010C04D
:100E580076F011C077F012C078F0F60E7126FF0E0A
:100E6800722272BE43EF07F0725007E10A0E715CFE
:100E7800D8B041EF07F043EF07F017EF07F062EF44
:100E880007F075C00FF076C010F077C011F078C089
:100E980012F0000E136E000E146E200E156E410E29
:100EA800166EE4EC24F00FC075F010C076F011C097
:100EB80077F012C078F07106D8A0720671507210DF
:100EC800D8A469EF07F06BEF07F045EF07F075C09E
:100ED80059F076C05AF077C05BF078C05CF0000E2D
:100EE8005D6E000E5E6E800E5F6E000E606EFEEC34
:100EF8003BF0D8B082EF07F084EF07F033EF08F04B
:100F080070A089EF07F08BEF07F095EF07F0000E60
:100F1800656E000E666E800E676E800E686E54EF0A
:100F280008F0000E656E000E666E800E676E000E8D
:100F3800686E54EF08F072BEAAEF07F0725008E12D
:100F48007104D8A0AAEF07F0ACEF07F033EF08F070
:100F5800CCEF07F075C040F076C041F077C042F0A2
:100F680078C043F0F90E446E020E456E150E466EBB
:100F7800500E476ECFEC22F040C075F041C076F0BD
:100F880042C077F043C078F0F60E7126FF0E722249
:100F9800725007E10A0E715CD8B0D5EF07F0D7EFB1
:100FA80007F0AEEF07F0F6EF07F075C040F076C037
:100FB80041F077C042F078C043F0000E446E000E56
:100FC800456E200E466E410E476ECFEC22F040C0B3
:100FD80075F041C076F042C077F043C078F07106F2
:100FE800D8A0720671507210D8A4FDEF07F0FFEF79
:100FF80007F0D9EF07F0FF0E596EFF0E5A6E7F0EFD
:101008005B6E7F0E5C6E75C05DF076C05EF077C07B
:101018005FF078C060F0FEEC3BF0D8B016EF08F057
:1010280018EF08F033EF08F070A01DEF08F01FEF7D
:1010380008F029EF08F0000E656E000E666E800E4F
:10104800676E800E686E54EF08F0000E656E000E35
:10105800666E800E676E000E686E54EF08F070A022
:1010680038EF08F03AEF08F04CEF08F075C001F0DF
:1010780076C002F077C003F078C004F0CBEC4DF0F6
:1010880001C075F002C076F003C077F004C078F0B4
:1010980075C065F076C066F077C067F078C068F014
:1010A8001200000E0001956F000E946F67C0A6F045
:1010B80068C0A7F069C0A8F06AC0A9F0A9BF69EF25
:1010C80008F067EF08F07FEF08F0000E956F010E4B
:1010D800946FA6C001F0A7C002F0A8C003F0A9C091
:1010E80004F0CBEC4DF001C0A6F002C0A7F003C09D
:1010F800A8F004C0A9F0000E0001AD6F000EAC6F9F
:1011080092C198F093C199F094519511D8A48FEF9A
:1011180008F091EF08F098EF08F0FDA596EF08F0B9
:1011280098EF08F0B2EF08F094519511D8A49FEF0A
:1011380008F0A1EF08F0A7EF08F0000E816F2B0E62
:10114800806FABEF08F0000E816F2D0E806F80C0AE
:1011580074F2AC4BAD2B9807D8A09907A6C001F044
:10116800A7C002F0A8C003F0A9C004F000EC3DF04D
:1011780001040210D8A4C3EF08F0C5EF08F010EF7F
:1011880009F0BF0E6C6EFF0E6D6E6B506E6E6F6A5F
:101198006C506E266D506F226F5007E11A0E6E5C10
:1011A800D8B0D9EF08F0DBEF08F0EAEF08F0740EDA
:1011B8000001AC25016E020EAD21026EE20E036E37
:1011C800FF0E046E7DEC49F0F7EF08F0740E000195
:1011D800AC25016E020EAD21026EEA0E036EFF0E03
:1011E800046E7DEC49F00001FD0E9827FF0E99234F
:1011F80065C013F066C014F0740E156E020E166EFC
:1012080098C017F099C018F026EC40F013C065F0AC
:1012180014C066F05FEF0EF0A6C001F0A7C002F0A0
:10122800A8C003F0A9C004F000EC3DF00150021082
:10123800D8A421EF09F023EF09F057EF09F0BF0E0A
:101248006C6EFF0E6D6E6B506E6E6F6A6C506E2614
:101258006D506F226F5007E11A0E6E5CD8B037EFF1
:1012680009F039EF09F048EF09F0740E0001AC25D8
:10127800016E020EAD21026EE60E036EFF0E046EC5
:101288007DEC49F0F7EF08F0740E0001AC25016E13
:10129800020EAD21026EEE0E036EFF0E046E7DECA3
:1012A80049F0F7EF08F0000E0001AE6F000EAF6FC7
:1012B800800EB06F3F0EB16F000EAB6F000EAA6FBD
:1012C800A6C001F0A7C002F0A8C003F0A9C004F0AE
:1012D800000E056E000E066E000E076E000E086EFC
:1012E80006EC43F0D8B07BEF09F07DEF09F000EF92
:1012F8000AF09CEF09F0AEC040F0AFC041F0B0C0BA
:1013080042F0B1C043F0000E446E000E456E200E50
:10131800466E410E476ECFEC22F040C0AEF041C0A1
:10132800AFF042C0B0F043C0B1F00001AA4BAB2B04
:10133800A6C059F0A7C05AF0A8C05BF0A9C05CF0DD
:10134800000E446E000E456E200E466E410E476E2E
:10135800AEC040F0AFC041F0B0C042F0B1C043F001
:10136800CFEC22F040C05DF041C05EF042C05FF0BB
:1013780043C060F0FEEC3BF0D8B0C5EF09F0C7EF12
:1013880009F07FEF09F0E7EF09F0AEC00FF0AFC04A
:1013980010F0B0C011F0B1C012F0000E136E000EC4
:1013A800146E200E156E410E166EE4EC24F00FC07C
:1013B800AEF010C0AFF011C0B0F012C0B1F0000133
:1013C800AA07D8A0AB07A6C059F0A7C05AF0A8C072
:1013D8005BF0A9C05CF0AEC05DF0AFC05EF0B0C01D
:1013E8005FF0B1C060F0FEEC3BF0D8A0FEEF09F072
:1013F80000EF0AF0C9EF09F06BC007F0086A2FEC9C
:101408004CF0075000019B6F9BC09AF0670E9B1928
:10141800D8A411EF0AF013EF0AF03BEF0AF001012C
:1014280094519511D8A41BEF0AF01DEF0AF021EF93
:101438000AF0000E956F010E946F95BF2EEF0AF01B
:10144800955106E19405D8B02CEF0AF02EEF0AF07A
:1014580035EF0AF0000E0001976F060E966F45EF04
:101468000AF094C196F095C197F045EF0AF0010192
:1014780095BF41EF0AF043EF0AF02EEF0AF035EF7F
:101488000AF0670E00019B19D8A44DEF0AF04FEF40
:101498000AF07EEF0AF0ABAF5DEF0AF0FC0EAA5D32
:1014A800FF0EAB59D8A05BEF0AF05DEF0AF07CEFB6
:1014B8000AF0FF0E6C6EFF0E6D6E96C06EF097C050
:1014C8006FF06C506E266D506F22AA516E5C6F5093
:1014D800800A706EAB51800A7058D8A076EF0AF077
:1014E80078EF0AF07CEF0AF0660E9A6F7EEF0AF04A
:1014F800650E9A6F96C08CF097C08DF0670E9B1999
:10150800D8A489EF0AF08BEF0AF09BEF0AF0660E79
:101518009A19D8A492EF0AF094EF0AF09DEF0AF016
:10152800ABBF9BEF0AF099EF0AF09DEF0AF08C4BE6
:101538008D2B660E9A19D8A4A4EF0AF0A6EF0AF02C
:10154800C6EF0AF0ABBFADEF0AF0ABEF0AF0B9EFA8
:101558000AF0000EAE6F000EAF6F800EB06F3F0E38
:10156800B16F000EAB6F000EAA6F670E9B19D8B44F
:10157800C0EF0AF0C2EF0AF0C6EF0AF0AA518C27B2
:10158800AB518D23000EA56F000EA46FA6C09CF072
:10159800A7C09DF0A8C09EF0A9C09FF0AEC08EF075
:1015A800AFC08FF0B0C090F0B1C091F057EF0BF022
:1015B8009CC00FF09DC010F09EC011F09FC012F0AB
:1015C800AEC013F0AFC014F0B0C015F0B1C016F043
:1015D800E4EC24F00FC028F010C029F011C02AF064
:1015E80012C02BF03CEC2CF028C0A0F029C0A1F0D0
:1015F8002AC0A2F02BC0A3F0A0C059F0A1C05AF095
:10160800A2C05BF0A3C05CF07BEC3BF059C092F049
:101618005AC093F09CC038F09DC039F09EC03AF093
:101628009FC03BF0AEC044F0AFC045F0B0C046F03C
:10163800B1C047F0A0C040F0A1C041F0A2C042F044
:10164800A3C043F0CFEC22F040C03CF041C03DF0D5
:1016580042C03EF043C03FF052EC4CF038C09CF022
:1016680039C09DF03AC09EF03BC09FF0AEC00FF06D
:10167800AFC010F0B0C011F0B1C012F0000E136E80
:10168800000E146E200E156E410E166EE4EC24F05A
:101698000FC0AEF010C0AFF011C0B0F012C0B1F082
:1016A8000001A44BA52B8C51A45DA551800A6C6E3A
:1016B8008D51800A6C58D8A064EF0BF066EF0BF0E0
:1016C800DCEF0AF0AEC040F0AFC041F0B0C042F06D
:1016D800B1C043F0000E446E000E456EA00E466E7B
:1016E800400E476ECFEC22F040C0A0F041C0A1F000
:1016F80042C0A2F043C0A3F09CC059F09DC05AF06C
:101708009EC05BF09FC05CF0A0C05DF0A1C05EF021
:10171800A2C05FF0A3C060F0FEEC3BF0D8B097EF3A
:101728000BF099EF0BF0A4EF0BF0000E0001A06F87
:10173800000EA16F000EA26F000EA36FCDEF0BF08D
:101748009CC001F09DC002F09EC003F09FC004F051
:10175800A0C005F0A1C006F0A2C007F0A3C008F021
:1017680006EC43F0D8A0BBEF0BF0BDEF0BF0CDEFCC
:101778000BF0000192B1C3EF0BF0C5EF0BF0CDEF0A
:101788000BF0000EA06F000EA16F000EA26F000EEE
:10179800A36FA6C028F0A7C029F0A8C02AF0A9C046
:1017A8002BF0A0C02CF0A1C02DF0A2C02EF0A3C039
:1017B8002FF058EC1EF028C09CF029C09DF02AC0DC
:1017C8009EF02BC09FF09CC059F09DC05AF09EC05F
:1017D8005BF09FC05CF0000E446E000E456E200E5C
:1017E800466E410E476E8EC040F08FC041F090C0EB
:1017F80042F091C043F0CFEC22F040C05DF041C010
:101808005EF042C05FF043C060F0FEEC3BF0D8A051
:1018180010EF0CF012EF0CF03BEF0CF00001AA4BAC
:10182800AB2B8EC040F08FC041F090C042F091C009
:1018380043F0000E446E000E456E200E466E410EBB
:10184800476ECFEC22F040C08EF041C08FF042C00E
:1018580090F043C091F0660E00019A19D8A437EFB2
:101868000CF039EF0CF03BEF0CF08C4B8D2B8EC04D
:10187800AEF08FC0AFF090C0B0F091C0B1F0650E7F
:1018880000019A19D8B44BEF0CF04DEF0CF053EF60
:101898000CF0AAC08AF0ABC08BF057EF0CF0000E2A
:1018A8008B6F000E8A6F000E896F000E886F000E16
:1018B800876F000E866F000EA56F000EA46F52EFA3
:1018C8000DF09CC00FF09DC010F09EC011F09FC09D
:1018D80012F0AEC013F0AFC014F0B0C015F0B1C034
:1018E80016F0E4EC24F00FC028F010C029F011C065
:1018F8002AF012C02BF03CEC2CF028C0A0F029C034
:10190800A1F02AC0A2F02BC0A3F0A0C059F0A1C03A
:101918005AF0A2C05BF0A3C05CF07BEC3BF059C06E
:1019280092F05AC093F00001FDB99DEF0CF09FEFC3
:101938000CF0BCEF0CF092519311D8A4A6EF0CF068
:10194800A8EF0CF0BCEF0CF0670E9B19D8A4AFEF12
:101958000CF0B1EF0CF0BCEF0CF08BBFB8EF0CF053
:10196800B6EF0CF0BCEF0CF0864B872B06EF0DF0B2
:1019780088518911D8A4C3EF0CF0C5EF0CF0EFEF34
:101988000CF08BBFCCEF0CF0CAEF0CF0EFEF0CF0C3
:10199800740EAC25D96E020EAD21DA6E2E0EDF6EF6
:1019A800AC4BAD2B9807D8A09907000E896F010E94
:1019B800886FEFEF0CF0740EAC25D96E020EAD21D6
:1019C800DA6E300EDF6EAC4BAD2B9807D8A09907B6
:1019D8008607D8A0870786518711D8A4F6EF0CF0A0
:1019E800F8EF0CF0DFEF0CF0740EAC25D96E020E98
:1019F800AD21DA6E9251300FDF6EAC4BAD2B9807EC
:101A0800D8A099079CC038F09DC039F09EC03AF024
:101A18009FC03BF0AEC044F0AFC045F0B0C046F048
:101A2800B1C047F0A0C040F0A1C041F0A2C042F050
:101A3800A3C043F0CFEC22F040C03CF041C03DF0E1
:101A480042C03EF043C03FF052EC4CF038C09CF02E
:101A580039C09DF03AC09EF03BC09FF0AEC00FF079
:101A6800AFC010F0B0C011F0B1C012F0000E136E8C
:101A7800000E146E200E156E410E166EE4EC24F066
:101A88000FC0AEF010C0AFF011C0B0F012C0B1F08E
:101A980000018A07D8A08B07A44BA52B8C51A45D05
:101AA800A551800A6C6E8D51800A6C58D8B05FEFD2
:101AB8000DF061EF0DF06FEF0DF0ADBF6DEF0DF0B4
:101AC800AD5109E14B0EAC5DD8A06DEF0DF06FEF95
:101AD8000DF065EF0CF088518911D8A476EF0DF060
:101AE80078EF0DF089EF0DF0FDA97DEF0DF07FEF98
:101AF8000DF089EF0DF0740EAC25D96E020EAD21F4
:101B0800DA6E2E0EDF6EAC4BAD2B740EAC25D96E93
:101B1800020EAD21DA6E000EDF6E650E9A19D8A49A
:101B280098EF0DF09AEF0DF0FCEF08F0000EA56F9E
:101B38004F0EA46F740EA425D96E020EA521DA6E7D
:101B4800000EDF6E000E956F000E946FABBFB1EF05
:101B58000DF0AFEF0DF0B9EF0DF0000E956F010E1F
:101B6800946FAA6DAB1FD8B0AB2B000E976F020E07
:101B7800966FEAEF0DF0A407D8A0A507740EA42568
:101B8800D96E020EA521DA6EAAC001F0ABC002F030
:101B9800000E046E0A0E036E57EC42F00150300F2F
:101BA800DF6EAAC001F0ABC002F0000E046E0A0E90
:101BB800036E89EC40F001C0AAF002C0ABF000014E
:101BC8009607D8A097079807D8A09907AA51AB11EC
:101BD800D8A4F1EF0DF0F3EF0DF0BFEF0DF097BFC4
:101BE80000EF0EF0975106E19605D8B0FEEF0DF024
:101BF80000EF0EF0BFEF0DF0A407D8A0A507945191
:101C08009511D8A40AEF0EF00CEF0EF012EF0EF0BB
:101C1800000E836F2B0E826F16EF0EF0000E836F8F
:101C28002D0E826F740EA425D96E020EA521DA6ED0
:101C380082C0DFFF9807D8A09907A407D8A0A507F6
:101C4800BF0E6C6EFF0E6D6E6B506E6E6F6A6C50D1
:101C58006E266D506F226F5009E11A0E6E5CD8A087
:101C680038EF0EF03AEF0EF040EF0EF0000E856FF1
:101C7800650E846F44EF0EF0000E856F450E846F7D
:101C8800740EA425D96E020EA521DA6E84C0DFFF7A
:101C98009807D8A09907740EAC25016E020EAD21E5
:101CA800026E740EA425036E020EA521046E7DEC4F
:101CB80049F0FCEF08F01200D3CF84F09BCF85F0F9
:101CC80022EE40F010EE8AF00F0EDBCFE3FFE806BD
:101CD800FCE273EF0EF0350EE82EFED700F0D3A429
:101CE80078EF0EF07AEF0EF06FEF0EF0100EEDECCD
:101CF80048F0D00E636ECA0EE82EFED7632EFCD7CE
:101D08008D849694000E00019A6FFF0E9FEC50F0A0
:101D180000019A2B090E9A6594EF0EF096EF0EF0DB
:101D280089EF0EF08D94000E046E000E056E000E05
:101D3800066E000E076E000E01EC44F0E806D8A40B
:101D4800A8EF0EF0AAEF0EF097EF0EF0AA0E046EB1
:101D5800010E056E000E066E000E076E080E01ECF1
:101D680044F00001A46F8D94000E9C6F8A0E9C2590
:101D7800D96EDA6A000EDA22B6EC50F0DF6E000196
:101D88009C2B030E9C65CBEF0EF0CDEF0EF0BAEF57
:101D98000EF08D84A4A5D3EF0EF0D5EF0EF005EF6D
:101DA8000FF0010E01015F6F000E046E000E056E4C
:101DB800000E066E000E076E3A0E01EC44F08D948C
:101DC800000E00019D6F8A0E9D25D96EDA6A000EFD
:101DD800DA22B6EC50F0DF6E00019D2B030E9D65F4
:101DE800F8EF0EF0FAEF0EF0E7EF0EF08D848C05A9
:101DF800D8B401EF0FF003EF0FF021EF0FF072EFFF
:101E080012F0A405D8A40BEF0FF00DEF0FF0AAEF16
:101E18000EF08C05D8A413EF0FF015EF0FF072EF4A
:101E280012F0AA0E8D19D8A41CEF0FF01EEF0FF0B8
:101E380072EF12F0020E01015F6F01015F05D8B465
:101E480028EF0FF02AEF0FF035EF0FF0000E00012A
:101E5800806F000E816F000E826F400E836F3EEF21
:101E68000FF0000E0001806F000E816F000E826F70
:101E7800000E836F80C00BF081C00CF082C00DF0A3
:101E880083C00EF0290E68EC4EF00001A46FA45137
:101E9800D8B451EF0FF053EF0FF05AEF0FF0A4A59D
:101EA80058EF0FF05AEF0FF03EEF0FF0A4A55FEFD9
:101EB8000FF061EF0FF07DEF0FF001015F05D8A47F
:101EC80068EF0FF06AEF0FF079EF0FF0020E606F16
:101ED800000E046E000E056E000E066E000E076EF4
:101EE800010E01EC44F07DEF0FF0000E7B6F72EFF6
:101EF80012F0020E01016019D8B485EF0FF087EFD8
:101F08000FF0B6EF0FF0000E046E000E056E000E17
:101F1800066E000E076E3A0E01EC44F08D94B6EC96
:101F280050F0C00BC00AD8A49CEF0FF09EEF0FF042
:101F3800A3EF0FF0010E0101606FA6EF0FF0000E86
:101F48000101606F000E00019B6FB6EC50F00001BC
:101F58009B2B020E9B65B3EF0FF0B5EF0FF0A9EFC7
:101F68000FF08D84000E046E020E056E000E066ED4
:101F7800000E076E100E01EC44F00009D8A4C7EF5C
:101F88000FF0C9EF0FF0B6EF0FF0020E0101726FFC
:101F9800000E716F000E046E000E056E000E066EC8
:101FA800000E076E090E01EC44F08D94B6EC50F06B
:101FB800FE0AD8A4E2EF0FF0E4EF0FF0DAEF0FF02B
:101FC800000E00019E6F0F0E9E65EDEF0FF0EFEF14
:101FD8000FF0F1EF0FF0FEEF0FF08A0E9E25D96E8D
:101FE800DA6A000EDA22B6EC50F0DF6E00019E2BA2
:101FF800E7EF0FF0B6EC50F0B6EC50F08D84020E1F
:1020080001015F19D8A40BEF10F00DEF10F090EF5D
:1020180010F0010E00019325866F876B000E872351
:10202800886B000E8823896B000E89239251646E99
:10203800636A63C065F064C066F0000E66BEFF0E9A
:10204800676E686E655086136650871367508813ED
:102058006850891391C063F03F0E631663C064F043
:10206800656A666A676A65C067F064C066F0656A33
:10207800646A6450861365508713665088136750E6
:10208800891386C001F087C002F088C003F089C0B8
:1020980004F0000E05EC2FF001C040F002C041F042
:1020A80003C042F004C043F0BD0E446E370E456EC7
:1020B800060E466E3F0E476ECFEC22F040C077F119
:1020C80041C078F142C079F143C07AF1000E446E04
:1020D800000E456E000E466E450E476E77C140F005
:1020E80078C141F079C142F07AC143F0CFEC22F0D7
:1020F80040C059F041C05AF042C05BF043C05CF0A8
:102108007BEC3BF059C073F15AC074F15BC075F1B8
:102118005CC076F168EF11F090C063F0030E6316AF
:1021280063C064F0656A666A676A040ED8906436AC
:10213800653666366736E82E9AEF10F064C0A0F070
:1021480065C0A1F066C0A2F067C0A3F0000191517C
:10215800636E646AD89063366436D89063366436A2
:1021680063C065F064C066F0000E66BEFF0E676E61
:10217800686E6550A0136650A1136750A21368508B
:10218800A31392C063F0D8906332D8906332300EB4
:102198006316010E6324646E656A000E6522666A22
:1021A800000E6622676A000E67226450A01365500D
:1021B800A1136650A2136750A31393C063F0030ED4
:1021C8006316646A94AF01D0642A64306334656E20
:1021D800020E6526A0C066F0A1C067F0A2C068F034
:1021E800A3C069F0652AFEEF10F0D890663667360E
:1021F80068366936652EF9EF10F066C0A0F067C042
:10220800A1F068C0A2F069C0A3F08FC063F00F0E00
:102218006316A0C064F0A1C065F0A2C066F0A3C0B8
:1022280067F0632A1DEF11F0D8906436653666367C
:102238006736632E18EF11F064C0A0F065C0A1F0F6
:1022480066C0A2F067C0A3F0A0C001F0A1C002F070
:10225800A2C003F0A3C004F0000E05EC2FF001C0EB
:1022680077F102C078F103C079F104C07AF171C145
:1022780001F072C102F0036A046A000E05EC2FF047
:1022880001C013F002C014F003C015F004C016F02A
:1022980077C10FF078C110F079C111F07AC112F04E
:1022A800E4EC24F00FC059F010C05AF011C05BF0F4
:1022B80012C05CF07BEC3BF059C073F15AC074F16A
:1022C8005BC075F15CC076F1000E046E000E056E01
:1022D800000E066E000E076E0A0E01EC44F08D9497
:1022E800B6EC50F00001A46FFE0EA419D8A47FEF3D
:1022F80011F081EF11F074EF11F0000E9F6F0F0EC7
:102308009F6589EF11F08BEF11F08DEF11F09AEFC7
:1023180011F08A0E9F25D96EDA6A000EDA22B6EC21
:1023280050F0DF6E00019F2B83EF11F0B6EC50F0F8
:10233800B6EC50F08D848AC061F100018B51636E58
:102348008C510101626F63C063F18DC068F18EC06A
:1023580063F0646A656A666A63C066F0656A646A9F
:10236800636A63C064F164C065F165C066F166C004
:1023780067F18FC063F0646A656A666A64C066F074
:1023880063C065F0646A636A6350641364506513DC
:10239800655066136650671390C063F0646A656A97
:1023A800666A65C066F064C065F063C064F0636A1D
:1023B8006350641364506513655066136650671361
:1023C800000191510101641392C069F193C063F057
:1023D800646A656A666A63C066F0656A646A636AA5
:1023E80063C06AF164C06BF165C06CF166C06DF1E1
:1023F80094C063F0646A656A666A64C066F063C024
:1024080065F0646A636A63506A1364506B136550BD
:102418006C1366506D1395C063F0646A656A666AEA
:1024280065C066F064C065F063C064F0636A6350B9
:102438006A1364506B1365506C1366506D1300017A
:10244800965101016A13000197510F0B636E985161
:1024580001016E6F63C06FF100019951FE0B01011C
:10246800706F8D84C69A84C0D3FF85C09BFF41EFEF
:1024780012F0350EE82EFED700F0D3A446EF12F086
:1024880048EF12F03DEF12F0100EEDEC48F0010E9F
:102498000101846F000E806F000E816F000E826F45
:1024A800000E836F000E7C6F000E7D6F000E7E6F36
:1024B800000E7F6F010E8D6F000E896F000E8A6F00
:1024C800000E8B6F000E8C6F000E856F000E866FEE
:1024D800000E876F000E886F010E7B6F120073C0AD
:1024E800D9FF74C0DAFFDECFF6FFDDCFF7FFF86A59
:1024F8000800F550250AD8A484EF12F086EF12F0F0
:102508002DEF16F073C0D9FF74C0DAFFDE2A000E73
:10251800DD22000E0101936F000E926F92C1FDF053
:1025280093C1FEF094699569000E0001C36F000E17
:10253800C26FE6EF12F0FD8173C0D9FF74C0DAFFF5
:10254800DE2A000EDD22E6EF12F0FD83A0EF12F086
:10255800FD85A0EF12F0FD87A0EF12F0FD89A0EF36
:1025680012F0000EC36F010EC26FE6EF12F073C0D7
:10257800D9FF74C0DAFFDECFF6FFDDCFF7FFF86AC8
:102588000800F550776E786A7850000AD8B4CFEF13
:1025980012F0B5EF12F07750200AD8B4AFEF12F06E
:1025A800030AD8B4B2EF12F0080AD8B4ACEF12F0AC
:1025B800060AD8B49FEF12F01D0AD8B4A9EF12F09A
:1025C800B5EF12F0C251C311D8B4EDEF12F0EFEF2E
:1025D80012F0BBEF12F0FDA1F4EF12F0F6EF12F0DB
:1025E800F7EF12F0FD9373C0D9FF74C0DAFFDECFA6
:1025F800F6FFDDCFF7FFF86A0800F5502A0AD8A4DD
:1026080008EF13F00AEF13F036EF13F073C0D9FF99
:1026180074C0DAFFDE2A000EDD2275C0D9FF76C04D
:10262800DAFFDFCF77F0020EDE26DFCF78F0000E7C
:10263800DD2277C0D9FF78C0DAFFDECF92F1DDCF97
:1026480093F1010193BF2DEF13F02BEF13F06DEF12
:1026580013F00001FD810101926D931FD8B0932BF7
:102668006DEF13F073C0D9FF74C0DAFFDECF08F046
:10267800DDCF09F045EC2DF008C092F109C093F1C7
:102688004DEF13F073C0D9FF74C0DAFFDE2A000ED5
:10269800DD22D00E776EFF0E786E73C0D9FF74C03E
:1026A800DAFFDECFF6FFDDCFF7FFF86A0800F55056
:1026B800796E7A6A7750792678507A227A5009E1C9
:1026C8000A0E795CD8A06BEF13F06DEF13F046EFAC
:1026D80013F073C0D9FF74C0DAFFDECFF6FFDDCF89
:1026E800F7FFF86A0800F5502E0AD8A47EEF13F019
:1026F80080EF13F0F3EF13F0000E0101956F000E59
:10270800946F73C0D9FF74C0DAFFDE2A000EDD2291
:1027180073C0D9FF74C0DAFFDECFF6FFDDCFF7FF55
:10272800F86A0800F5502A0AD8A49DEF13F09FEF25
:1027380013F0BCEF13F073C0D9FF74C0DAFFDE2AC0
:10274800000EDD2275C0D9FF76C0DAFFDFCF77F043
:10275800020EDE26DFCF78F0000EDD2277C0D9FF2B
:1027680078C0DAFFDECF94F1DDCF95F1F3EF13F007
:1027780073C0D9FF74C0DAFFDECF08F0DDCF09F0EF
:1027880045EC2DF008C094F109C095F1D3EF13F092
:1027980073C0D9FF74C0DAFFDE2A000EDD22D00E26
:1027A800776EFF0E786E73C0D9FF74C0DAFFDECF84
:1027B800F6FFDDCFF7FFF86A0800F550796E7A6A00
:1027C8007750792678507A227A5009E10A0E795C96
:1027D800D8A0F1EF13F0F3EF13F0CCEF13F073C0C0
:1027E800D9FF74C0DAFFDECFF6FFDDCFF7FFF86A56
:1027F8000800F550076E086A2FEC4CF007500001EE
:10280800C46FC451D8B40BEF14F00DEF14F049EFB6
:1028180014F073C0D9FF74C0DAFFDECF77F0DDCFD4
:1028280078F0010E7726000E782277C0F6FF78C080
:10283800F7FFF86A0800F550076E086A2FEC4CF0AD
:1028480007500001C56FC551D8B42DEF14F02FEF14
:1028580014F049EF14F073C0D9FF74C0DAFFDECF6B
:1028680077F0DDCF78F0020E7726000E782277C059
:10287800F6FF78C0F7FFF86A0800F550076E086A97
:102888002FEC4CF007500001C66F73C0D9FF74C01D
:10289800DAFFDECFF6FFDDCFF7FFF86A0800F55064
:1028A800640AD8B45AEF14F05CEF14F06FEF14F028
:1028B80073C0D9FF74C0DAFFDECFF6FFDDCFF7FFB4
:1028C800F86A0800F550690AD8A46DEF14F06FEFA4
:1028D80014F0AFEF14F073C0D9FF74C0DAFFDE2A2A
:1028E800000EDD2275C0D9FF76C0DAFFDFCF77F0A2
:1028F800020EDE26DFCF78F0000EDD2277C0D9FF8A
:1029080078C0DAFFDECFB2F0DDCFB3F0000EB3BF90
:10291800FF0EB46FB56FB66FB76FB86FB96F71C090
:102928001EF072C01FF0B2C020F0B3C021F0B4C0D6
:1029380022F0B5C023F0B6C024F0B7C025F0B8C067
:1029480026F0B9C027F04CEC28F01EC071F01FC06B
:1029580072F049EF16F0660EC419D8A4B6EF14F059
:10296800B8EF14F0F9EF14F073C0D9FF74C0DAFFB0
:10297800DECFF6FFDDCFF7FFF86A0800F5CFCBF022
:1029880073C0D9FF74C0DAFFDE2A000EDD2275C0DD
:10299800D9FF76C0DAFFDFCF77F0040EDE26DFCF6F
:1029A80078F0000EDD2277C0D9FF78C0DAFFDECFDD
:1029B800C7F0DECFC8F0DECFC9F0DECFCAF071C0F5
:1029C80065F072C066F0C7C067F0C8C068F0C9C0DB
:1029D80069F0CAC06AF0CBC06BF055EC08F065C06E
:1029E80071F066C072F049EF16F0C40E056E000E65
:1029F800066EFA0E076EFF0E086E000E0A6E020EC5
:102A0800096E53EC3FF005500610D8A40EEF15F0F0
:102A180010EF15F080EF15F073C0D9FF74C0DAFF1E
:102A2800DECF77F0DDCF78F0010E7726000E782222
:102A380077C0F6FF78C0F7FFF86A0800F5CFCBF04B
:102A4800BF0E776EFF0E786E73C0D9FF74C0DAFFC1
:102A5800DECFF6FFDDCFF7FFF86A0800F550796E94
:102A68007A6A7750792678507A227A5007E11A0ED6
:102A7800795CD8B042EF15F044EF15F05EEF15F031
:102A880075C0D9FF76C0DAFFDFCF77F0040EDE26F7
:102A9800DFCF78F0000EDD2277C0D9FF78C0DAFFEB
:102AA800DECFC7F0DECFC8F0DECFC9F0DECFCAF088
:102AB80076EF15F075C0D9FF76C0DAFFDFCF77F073
:102AC800040EDE26DFCF78F0000EDD2277C0D9FFB6
:102AD80078C0DAFFDECFC7F0DECFC8F0DECFC9F0AE
:102AE800DECFCAF0020E73C0D9FF74C0DAFFDE264B
:102AF800000EDD22E3EF14F073C0D9FF74C0DAFFD3
:102B0800DECFF6FFDDCFF7FFF86A0800F550780A48
:102B1800D8B491EF15F093EF15F0A6EF15F073C048
:102B2800D9FF74C0DAFFDECFF6FFDDCFF7FFF86A12
:102B38000800F550580AD8A4A4EF15F0A6EF15F030
:102B4800F6EF15F073C0D9FF74C0DAFFDECFF6FFD9
:102B5800DDCFF7FFF86A0800F5CFCBF073C0D9FFD7
:102B680074C0DAFFDE2A000EDD2275C0D9FF76C0F8
:102B7800DAFFDFCF77F0020EDE26DFCF78F0000E27
:102B8800DD2277C0D9FF78C0DAFFDECF79F0DDCF5C
:102B98007AF079C0BAF07AC0BBF00001BC6BBD6BAB
:102BA800BE6BBF6BC06BC16B71C01EF072C01FF0F3
:102BB800BAC020F0BBC021F0BCC022F0BDC023F0D9
:102BC800BEC024F0BFC025F0C0C026F0C1C027F0A9
:102BD800CBC028F0C1EC29F01EC071F01FC072F004
:102BE80049EF16F073C0D9FF74C0DAFFDECFF6FFE5
:102BF800DDCFF7FFF86A0800F550250AD8A407EFDB
:102C080016F009EF16F020EF16F073C0D9FF74C064
:102C1800DAFFDE2A000EDD22000E046E250E036E9A
:102C280071C005F072C006F0C1EC3FF0000E726E84
:102C3800010E716E49EF16F073C0D9FF74C0DAFF48
:102C4800DE2A000EDD22000E726E000E716E49EF54
:102C580016F073C0D9FF74C0DAFFDECFF6FFDDCF00
:102C6800F7FFF86A0800F550036E046A71C005F0B2
:102C780072C006F0C1EC3FF073C0D9FF74C0DAFF30
:102C8800DE2A000EDD221AEF16F01200F4C001F061
:102C9800F5C002F0000E046E190E036E26EC4FF01C
:102CA80001C03FF102C040F101013F51006F4051A6
:102CB800016F026B036B00518E5D456F01518F5997
:102CC800466F02519059476F03519159486F62EC12
:102CD80050F0010E096E010E53EC48F0300E000161
:102CE800D26F010ED36FF90ED46FFE0ED56F82EC42
:102CF8004AF0300E096E010E0A6EFCEC4CF0010E23
:102D0800096E020E53EC48F0300E0001D26F010E2E
:102D1800D36FEC0ED46FFE0ED56F82EC4AF0300EF6
:102D2800096E010E0A6EFCEC4CF0A30E0101016F56
:102D3800570E006F020EE82EFED7002FFCD7012F8A
:102D4800FAD700F060EC0EF0010148BFB0EF16F0C2
:102D5800AEEF16F0B8EF16F0000E456F000E466F96
:102D6800000E476F000E486F000E416F000E426F55
:102D7800000E436F000E446F970E4125D96E030E67
:102D88004221DA6E000EDF6E010E4127000E42234B
:102D9800432344234451431109E1020E425DD8A064
:102DA800D8EF16F0DAEF16F0C0EF16F045C10BF0C9
:102DB80046C10CF047C10DF048C10EF0C9EC46F011
:102DC800460E0001D26FFE0ED36FD9EC4EF0560EB0
:102DD8000001D26FFF0ED36F45C1D4F046C1D5F0C4
:102DE80047C1D6F048C1D7F001013F514525006FD2
:102DF80040514621016F000E4721026F000E482105
:102E0800036FFF0E00250001D86FFF0E010101219D
:102E18000001D96FFF0E010102210001DA6FFF0ED8
:102E2800010103210001DB6FD9EC4EF0000E010116
:102E3800416F000E426F000E436F000E446FEEEFBD
:102E480018F0970E046E030E056EA4EC41F0000E08
:102E580001014A6F000E496F520E0001D26FFD0E3C
:102E6800D36F49C100F14AC101F10101003B013BA7
:102E7800F00E011700510F0B0113F00E0017970EFB
:102E88000025D96E030E0121DA6EDF50026F025160
:102E98000001D46FD56B49C103F14AC104F10101A6
:102EA800033B043BF00E041703510F0B0413F00E01
:102EB8000317980E0325D96E030E0421DA6EDF502E
:102EC800056F05510001D66FD76B49C106F14AC19C
:102ED80007F10101063B073BF00E071706510F0BE0
:102EE8000713F00E0617990E0625D96E030E072153
:102EF800DA6EDF50086F08510001D86FD96B49C1ED
:102F080009F14AC10AF10101093B0A3BF00E0A170F
:102F180009510F0B0A13F00E09179A0E0925D96EDD
:102F2800030E0A21DA6EDF500B6F0B510001DA6FC6
:102F3800DB6B49C10CF14AC10DF101010C3B0D3BA2
:102F4800F00E0D170C510F0B0D13F00E0C179B0EF6
:102F58000C25D96E030E0D21DA6EDF500E6F0E515F
:102F68000001DC6FDD6B49C10FF14AC110F10101AD
:102F78000F3B103BF00E10170F510F0B1013F00EF4
:102F88000F179C0E0F25D96E030E1021DA6EDF5035
:102F9800116F11510001DE6FDF6B49C112F14AC197
:102FA80013F10101123B133BF00E131712510F0BD3
:102FB8001313F00E12179D0E1225D96E030E13214E
:102FC800DA6EDF50146F14510001E06FE16B49C1F4
:102FD80015F14AC116F10101153B163BF00E161703
:102FE80015510F0B1613F00E15179E0E1525D96ED9
:102FF800030E1621DA6EDF50176F17510001E26FCA
:10300800E36B49C118F14AC119F10101183B193B99
:10301800F00E191718510F0B1913F00E18179F0EF1
:103028001825D96E030E1921DA6EDF501A6F1A515E
:103038000001E46FE56B49C11BF14AC11CF10101B4
:103048001B3B1C3BF00E1C171B510F0B1C13F00EE7
:103058001B17A00E1B25D96E030E1C21DA6EDF503C
:103068001D6F1D510001E66FE76B49C11EF14AC192
:103078001FF101011E3B1F3BF00E1F171E510F0BC6
:103088001F13F00E1E17A10E1E25D96E030E1F2149
:10309800DA6EDF50206F20510001E86FE96B49C1FB
:1030A80021F14AC122F10101213B223BF00E2217F6
:1030B80021510F0B2213F00E2117A20E2125D96ED4
:1030C800030E2221DA6EDF50236F23510001EA6FCD
:1030D800EB6B49C124F14AC125F10101243B253B91
:1030E800F00E251724510F0B2513F00E2417A30EED
:1030F8002425D96E030E2521DA6EDF50266F26515E
:103108000001EC6FED6B49C127F14AC128F10101BB
:10311800273B283BF00E281727510F0B2813F00EDA
:103128002717A40E2725D96E030E2821DA6EDF5043
:10313800296F29510001EE6FEF6B49C12AF14AC18D
:103148002BF101012A3B2B3BF00E2B172A510F0BB9
:103158002B13F00E2A17A50E2A25D96E030E2B2144
:10316800DA6EDF502C6F2C510001F06FF16B49C102
:103178002DF14AC12EF101012D3B2E3BF00E2E17E9
:103188002D510F0B2E13F00E2D17A60E2D25D96ECF
:10319800030E2E21DA6EDF502F6F2F510001F26FD0
:1031A800F36BD9EC4EF00101494B4A2B4ABFE6EFCD
:1031B80018F04A5109E1200E495DD8A0E6EF18F051
:1031C800E8EF18F030EF17F0010E4127000E422308
:1031D800432344233F51006F4051016F026B036B3F
:1031E8000051415D0151425902514359035144591B
:1031F800D8A001EF19F003EF19F025EF17F0AEECA6
:103208004FF08D84C69A520E0001D26FFF0ED36F15
:1032180045C1D4F046C1D5F0010145513F25006FA5
:1032280046514021016FFF0E00250001D66FFF0EA9
:10323800010101210001D76FD9EC4EF01200020103
:10324800F251800B0301756F0201F251F22503015F
:10325800776F0201F1AF33EF19F035EF19F037EF5F
:1032680019F00301778103017751D8B43EEF19F0C3
:1032780040EF19F057EF19F07729D8A446EF19F065
:1032880048EF19F051EF19F0000E0201EF6F000E30
:10329800F06F000EF16F000EF26F0201F18F000E59
:1032A800F26F60EF19F0000E0201EF6F000EF06F81
:1032B800000EF16F000EF26FF651800B0301766F6E
:1032C80075517619D8B46BEF19F06DEF19F06EEFF0
:1032D80019F0758D0201F651F6250301766F02018A
:1032E800F5AF79EF19F07BEF19F07DEF19F00301D5
:1032F800768103017651D8B484EF19F086EF19F07E
:103308009DEF19F07629D8A48CEF19F08EEF19F0FB
:1033180097EF19F0000E0201F36F000EF46F000E24
:10332800F56F000EF66F0201F58F000EF66FA6EF2F
:1033380019F0000E0201F36F000EF46F000EF56F26
:10334800000EF66F03017751765DD8B0AEEF19F035
:10335800B0EF19F0D7EF19F075ADB5EF19F0B7EF79
:1033680019F0B9EF19F0800E751B77C378F376C39F
:1033780077F378C376F3EFC278F3F3C2EFF278C34A
:10338800F3F2F0C278F3F4C2F0F278C3F4F2F1C2C7
:1033980078F3F5C2F1F278C3F5F2F2C278F3F6C227
:1033A800F2F278C3F6F2000E786F775176C371F3B4
:1033B800726B715F000E725B72BFECEF19F07251A5
:1033C80009E11A0E715DD8A0ECEF19F0EEEF19F0D3
:1033D8002CEF1AF00201EF51F011F111F211D8A4FB
:1033E800F8EF19F0FBEF19F0010EFCEF19F0000EE1
:1033F8000301786F000E0201EF6F000EF06F000EF0
:10340800F16F000EF26F76C377F335EF1AF078A1FB
:1034180010EF1AF012EF1AF018EF1AF0D89078316E
:103428000109786F1AEF1AF0D89078330201EFA1EA
:1034380020EF1AF022EF1AF024EF1AF00301788F28
:103448000201F235F233F133F033EF330301772B16
:103458007651775DD8A033EF1AF035EF1AF00BEFFD
:103468001AF0030175BD3BEF1AF03DEF1AF084EF37
:103478001AF07751D8A443EF1AF045EF1AF050EF3D
:103488001AF0000E0201EF6F000EF06F000EF16FE0
:10349800000EF26FD1EF1BF00201F351EF27F45148
:1034A800F023F551F123F651F223F2A15EEF1AF061
:1034B80060EF1AF02EEF1BF0030178A166EF1AF007
:1034C80068EF1AF06EEF1AF0D89078310109786F2A
:1034D80070EF1AF0D89078330201EFA176EF1AF066
:1034E80078EF1AF07AEF1AF00301788F0201F235BB
:1034F800F233F133F033EF330301772B2EEF1BF068
:103508000201F351EF5DF451F059F551F159F251BF
:10351800800A0301716F0201F651800A0301715993
:10352800D8B099EF1AF09BEF1AF0D7EF1AF0020112
:10353800EF51F35D0301716F0201F051F45903017A
:10354800726F0201F151F5590301736F0201F251D3
:10355800F6590301746FFF0E71250201EF6FFF0E1C
:10356800030172210201F06FFF0E030173210201B2
:10357800F16FFF0E030174210201F26F800E030147
:10358800751B786D7851D8A4CCEF1AF0CEEF1AF0ED
:10359800E0EF1AF0010E0201EF27000EF023F123ED
:1035A800F223E0EF1AF00201F351EF5FF451F05B00
:1035B800F551F15BF651F25B0201EF51F011F11197
:1035C800F211D8A4EAEF1AF0ECEF1AF026EF1BF08C
:1035D80003017851D8A4F3EF1AF0F5EF1AF026EFAB
:1035E8001BF0000E0201EF6F000EF06F000EF16F7E
:1035F800000EF26FD1EF1BF0D890EF37F037F137AC
:10360800F237030178AF0BEF1BF00DEF1BF00FEF54
:103618001BF00201EF81030178A115EF1BF017EFF2
:103628001BF01BEF1BF0D88078371DEF1BF0D890EC
:1036380078377751D8B423EF1BF025EF1BF026EF2E
:103648001BF077070201F1AF2CEF1BF02EEF1BF0F8
:1036580000EF1BF0000E0301766F78AF36EF1BF01A
:1036680038EF1BF052EF1BF078C371F37F0E711720
:10367800D8B441EF1BF043EF1BF048EF1BF0010EED
:103688000301766F52EF1BF00201EFA14EEF1BF022
:1036980050EF1BF052EF1BF043EF1BF00301765184
:1036A800D8B459EF1BF05BEF1BF088EF1BF0010E4D
:1036B8000201EF27000EF023F123F223F2A167EFB6
:1036C8001BF069EF1BF088EF1BF0EFC271F3F0C23B
:1036D80072F3F1C273F3F2C274F3030174357433F5
:1036E80073337233713371C3EFF272C3F0F273C381
:1036F800F1F274C3F2F27729D8B485EF1BF087EFA3
:103708001BF088EF1BF0772B03017729D8B48FEFD4
:103718001BF091EF1BF099EF1BF07751D8A497EFAE
:103728001BF099EF1BF0ADEF1BF0000E0201EF6FDD
:10373800000EF06F000EF16F000EF26F030177516B
:10374800D8A4A9EF1BF0ABEF1BF0ADEF1BF0000EF8
:10375800756F77A1B2EF1BF0B4EF1BF0B8EF1BF059
:103768000201F18FBAEF1BF00201F19F0301D8901B
:1037780077310201F26F030175AFC5EF1BF0C7EF98
:103788001BF0C9EF1BF00201F28FEFC2EFF2F0C29B
:10379800F0F2F1C2F1F2F2C2F2F21200000E0301ED
:1037A8007B6F000E7C6F000E7D6F000E7E6F09EF41
:1037B8001EF0AC98AC94B896F7C2D9FFF8C2DAFFFD
:1037C800DECFD5F2DECFD6F2DECFD7F2DECFD8F21B
:1037D800000E29EC2EF0D5C2E7F2D6C2E8F2D7C225
:1037E800E9F2D8C2EAF2000E0201E36F240EE46F98
:1037F800F40EE56F4B0EE66FB8EC20F0E3C27FF3F2
:10380800E4C280F3E5C281F3E6C282F3000E02014E
:10381800E76F000EE86F800EE96F420EEA6F7FC314
:10382800E3F280C3E4F281C3E5F282C3E6F2B8ECC6
:1038380020F0E3C2EFF2E4C2F0F2E5C2F1F2E6C230
:10384800F2F2000E0201F36F000EF46F800EF56FB6
:10385800BF0EF66F23EC19F0EFC27BF3F0C27CF3D6
:10386800F1C27DF3F2C27EF336EF1EF0AC98AC8461
:10387800B896F7C2D9FFF8C2DAFFDECFD5F2DECFAD
:10388800D6F2DECFD7F2DECFD8F2000E29EC2EF03A
:10389800D5C2E7F2D6C2E8F2D7C2E9F2D8C2EAF254
:1038A800000E0201E36F240EE46FF40EE56F4B0E79
:1038B800E66FB8EC20F0E3C27FF3E4C280F3E5C220
:1038C80081F3E6C282F3000E0201E76F000EE86F93
:1038D800800EE96F410EEA6F7FC3E3F280C3E4F222
:1038E80081C3E5F282C3E6F2B8EC20F0E3C2EFF25E
:1038F800E4C2F0F2E5C2F1F2E6C2F2F2000E020111
:10390800F36F000EF46F800EF56FBF0EF66F23ECA9
:1039180019F0EFC27BF3F0C27CF3F1C27DF3F2C27F
:103928007EF336EF1EF0AC98AC94B886F7C2D9FF98
:10393800F8C2DAFFDECFD5F2DECFD6F2DECFD7F28D
:10394800DECFD8F2000E29EC2EF0D5C2E7F2D6C2AF
:10395800E8F2D7C2E9F2D8C2EAF2000E0201E36F38
:10396800240EE46FF40EE56F4B0EE66FB8EC20F012
:10397800E3C27FF3E4C280F3E5C281F3E6C282F3D7
:10398800000E0201E76F000EE86F800EE96F410E2E
:10399800EA6F7FC3E3F280C3E4F281C3E5F282C336
:1039A800E6F2B8EC20F0E3C2EFF2E4C2F0F2E5C2CE
:1039B800F1F2E6C2F2F2000E0201F36F000EF46FAC
:1039C800800EF56FBF0EF66F23EC19F0EFC27BF394
:1039D800F0C27CF3F1C27DF3F2C27EF336EF1EF043
:1039E800AC98AC84B886F7C2D9FFF8C2DAFFDECF4C
:1039F800D5F2DECFD6F2DECFD7F2DECFD8F2000E88
:103A080029EC2EF0D5C2E7F2D6C2E8F2D7C2E9F225
:103A1800D8C2EAF2000E0201E36F240EE46FF40E3E
:103A2800E56F4B0EE66FB8EC20F0E3C27FF3E4C21B
:103A380080F3E5C281F3E6C282F3000E0201E76F6C
:103A4800000EE86F800EE96F400EEA6F7FC3E3F265
:103A580080C3E4F281C3E5F282C3E6F2B8EC20F059
:103A6800E3C2EFF2E4C2F0F2E5C2F1F2E6C2F2F22A
:103A7800000E0201F36F000EF46F800EF56FBF0E9B
:103A8800F66F23EC19F0EFC27BF3F0C27CF3F1C2BE
:103A98007DF3F2C27EF336EF1EF0AC88B896F7C21B
:103AA800D9FFF8C2DAFFDECFD5F2DECFD6F2DECF0D
:103AB800D7F2DECFD8F2000E29EC2EF0D5C2E7F20D
:103AC800D6C2E8F2D7C2E9F2D8C2EAF2000E020181
:103AD800E36F240EE46FF40EE56F4B0EE66FB8EC5F
:103AE80020F0E3C27FF3E4C280F3E5C281F3E6C2CB
:103AF80082F3000E0201E76F000EE86F800EE96F97
:103B0800400EEA6F7FC3E3F280C3E4F281C3E5F2BB
:103B180082C3E6F2B8EC20F0E3C2EFF2E4C2F0F2BE
:103B2800E5C2F1F2E6C2F2F2000E0201F36F000EF6
:103B3800F46F800EF56FBF0EF66F23EC19F0EFC22D
:103B48007BF3F0C27CF3F1C27DF3F2C27EF336EF71
:103B58001EF0AC88B886F7C2D9FFF8C2DAFFDECF0C
:103B6800D5F2DECFD6F2DECFD7F2DECFD8F2000E16
:103B780029EC2EF0D5C2E7F2D6C2E8F2D7C2E9F2B4
:103B8800D8C2EAF2000E0201E36F240EE46FF40ECD
:103B9800E56F4B0EE66FB8EC20F0E3C27FF3E4C2AA
:103BA80080F3E5C281F3E6C282F3000E0201E76FFB
:103BB800000EE86F800EE96F400EEA6F7FC3E3F2F4
:103BC80080C3E4F281C3E5F282C3E6F2B8EC20F0E8
:103BD800E3C2EFF2E4C2F0F2E5C2F1F2E6C2F2F2B9
:103BE800000E0201F36F000EF46F800EF56FBF0E2A
:103BF800F66F23EC19F0EFC27BF3F0C27CF3F1C24D
:103C08007DF3F2C27EF336EF1EF0020120EE04F0DF
:103C1800F751D926F851DA22DF500301796F7A6B10
:103C28007A51000AD8B41BEF1EF036EF1EF0795116
:103C3800000AD8B4DDEF1BF0010AD8B43AEF1CF043
:103C4800030AD8B497EF1CF0010AD8B4F4EF1CF0BB
:103C5800070AD8B451EF1DF0010AD8B4ADEF1DF032
:103C680036EF1EF07BC3D5F27CC3D6F27DC3D7F204
:103C78007EC3D8F2F7EC3AF00201D551AF6E7BC3A0
:103C8800D5F27CC3D6F27DC3D7F27EC3D8F2F7EC67
:103C98003AF00201D6C2D5F2D7C2D6F2D8C2D7F2CC
:103CA800D86BD551B06E12002B50800B346E2B5050
:103CB8002B24366E2AAE63EF1EF065EF1EF066EF1A
:103CC8001EF036803650D8B46CEF1EF06EEF1EF042
:103CD80083EF1EF03628D8A474EF1EF076EF1EF09E
:103CE8007EEF1EF0000E286E000E296E000E2A6E62
:103CF800000E2B6E2A8E000E2B6E8BEF1EF0000E20
:103D0800286E000E296E000E2A6E000E2B6E2F50A4
:103D1800800B356E34503518D8B495EF1EF097EFF8
:103D28001EF098EF1EF0348C2F502F24356E2EAED7
:103D3800A0EF1EF0A2EF1EF0A3EF1EF03580355065
:103D4800D8B4A9EF1EF0ABEF1EF0C0EF1EF0352877
:103D5800D8A4B1EF1EF0B3EF1EF0BBEF1EF0000EBB
:103D68002C6E000E2D6E000E2E6E000E2F6E2E8EF7
:103D7800000E2F6EC8EF1EF0000E2C6E000E2D6E7A
:103D8800000E2E6E000E2F6E3650355CD8B0CFEF79
:103D98001EF0D1EF1EF0F8EF1EF034ACD6EF1EF097
:103DA800D8EF1EF0DAEF1EF0800E341A36C037F066
:103DB80035C036F037C035F028C037F02CC028F0B1
:103DC80037C02CF029C037F02DC029F037C02DF0AE
:103DD8002AC037F02EC02AF037C02EF02BC037F09B
:103DE8002FC02BF037C02FF0000E376E365035C07D
:103DF80030F0316A305E000E315A31BE0DEF1FF0DF
:103E0800315009E11A0E305CD8A00DEF1FF00FEF0A
:103E18001FF046EF1FF0285029102A102B10D8A4A5
:103E280018EF1FF01BEF1FF0010E1CEF1FF0000E24
:103E3800376E000E286E000E296E000E2A6E000ED8
:103E48002B6E35C036F04FEF1FF037A02EEF1FF066
:103E580030EF1FF036EF1FF0D89037300109376E7A
:103E680038EF1FF0D890373228A03DEF1FF03FEF12
:103E78001FF040EF1FF0378E2B342B322A322932B5
:103E88002832362A3550365CD8A04DEF1FF04FEF58
:103E98001FF029EF1FF034BC54EF1FF056EF1FF04E
:103EA80096EF1FF03650D8A45CEF1FF05EEF1FF0BE
:103EB80068EF1FF0000E286E000E296E000E2A6EA5
:103EC800000E2B6EB7EF20F02C5028262D502922FB
:103ED8002E502A222F502B222BA075EF1FF077EFA0
:103EE8001FF023EF20F037A07CEF1FF07EEF1FF0CC
:103EF80084EF1FF0D89037300109376E86EF1FF036
:103F0800D890373228A08BEF1FF08DEF1FF08EEF7F
:103F18001FF0378E2B342B322A3229322832362A98
:103F280023EF20F02C50285C2D5029582E502A5869
:103F38002B50800A306E2F50800A3058D8B0A7EF27
:103F48001FF0A9EF1FF0D4EF1FF028502C5C306E43
:103F580029502D58316E2A502E58326E2B502F581A
:103F6800336EFF0E3024286EFF0E3120296EFF0EAF
:103F780032202A6EFF0E33202B6E800E341A376CD7
:103F88003750D8A4CAEF1FF0CCEF1FF0DCEF1FF0BA
:103F9800010E2826000E29222A222B22DCEF1FF0F0
:103FA8002C50285E2D50295A2E502A5A2F502B5A01
:103FB800285029102A102B10D8A4E5EF1FF0E7EF9E
:103FC8001FF01CEF20F03750D8A4EDEF1FF0EFEFF3
:103FD8001FF01CEF20F0000E286E000E296E000E58
:103FE8002A6E000E2B6EB7EF20F0D89028362936AF
:103FF8002A362B3637AE03EF20F005EF20F006EF18
:1040080020F0288037A00BEF20F00DEF20F011EF03
:1040180020F0D880373613EF20F0D8903736365056
:10402800D8B419EF20F01BEF20F01CEF20F0360673
:104038002AAE21EF20F023EF20F0F9EF1FF0000E59
:10404800356E37AE2AEF20F02CEF20F044EF20F049
:1040580037C030F07F0E3016D8B435EF20F037EF88
:1040680020F03BEF20F0010E356E44EF20F028A041
:1040780040EF20F042EF20F044EF20F037EF20F03F
:104088003550D8B44AEF20F04CEF20F077EF20F00D
:10409800010E2826000E29222A222B222BA057EFB8
:1040A80020F059EF20F077EF20F028C030F029C039
:1040B80031F02AC032F02BC033F03334333232328D
:1040C8003132303230C028F031C029F032C02AF005
:1040D80033C02BF03628D8B474EF20F076EF20F0F8
:1040E80077EF20F0362A3628D8B47DEF20F07FEF1E
:1040F80020F087EF20F03650D8A485EF20F087EF26
:1041080020F099EF20F0000E286E000E296E000EA8
:104118002A6E000E2B6E3650D8A495EF20F097EF3C
:1041280020F099EF20F0000E346E36A09EEF20F0BC
:10413800A0EF20F0A3EF20F02A8EA4EF20F02A9E13
:10414800D89036302B6E34AEACEF20F0AEEF20F0C6
:10415800AFEF20F02B8E28C028F029C029F02AC004
:104168002AF02BC02BF012000201E651800B03014C
:10417800686F0201E651E62503016F6F0201E5AFA2
:10418800C8EF20F0CAEF20F0CCEF20F003016F81D8
:1041980003016F51D8B4D3EF20F0D5EF20F0ECEF46
:1041A80020F06F29D8A4DBEF20F0DDEF20F0E6EF58
:1041B80020F0000E0201E36F000EE46F000EE56FC1
:1041C800000EE66F0201E58F000EE66FF5EF20F0B6
:1041D800000E0201E36F000EE46F000EE56F000EA3
:1041E800E66FEA51800B0301681B0201EA51EA25D8
:1041F8000301706F0201E9AF04EF21F006EF21F02F
:1042080008EF21F00301708103017051D8B40FEF5A
:1042180021F011EF21F028EF21F07029D8A417EF31
:1042280021F019EF21F022EF21F0000E0201E76FD3
:10423800000EE86F000EE96F000EEA6F0201E98FC9
:10424800000EEA6F31EF21F0000E0201E76F000E59
:10425800E86F000EE96F000EEA6FE751E811E91107
:10426800EA11D8A43AEF21F03CEF21F056EF21F003
:10427800000EE36F000EE46F000EE56F000EE66FB0
:10428800800EE5137F0EE613030168510201E61361
:10429800E3C2E3F2E4C2E4F2E5C2E5F2E6C2E6F222
:1042A800CEEF22F003016F51D8A45DEF21F05FEF4C
:1042B80021F06AEF21F0000E0201E36F000EE46FB7
:1042C800000EE56F000EE66FCEEF22F070516FC35F
:1042D800EBF20201EC6BEB5F000EEC5B7F0EEB2563
:1042E8000301696F000E0201EC2103016A6FE3C24A
:1042F80064F3E4C265F3E5C266F3E6C267F3000E51
:104308000201E36F000EE46F000EE56F000EE66F2A
:10431800000E03016B6F000E6C6F000E6D6F000EC8
:104328006E6F000E706FE5EF21F07051D8B49FEFFB
:1043380021F0A1EF21F0BCEF21F0D8906437653768
:10434800663767370201D890E337E437E537E63751
:1043580003016EAFB2EF21F0B4EF21F0B6EF21F018
:104368000201E3810301D8906B376C376D376E37E4
:104378000201E7510301645D0201E8510301655937
:104388000201E951030166590201EA510301675923
:10439800D8A0D1EF21F0D3EF21F0E4EF21F06E8D1A
:1043A8000201E7510301645F0201E8510301655B03
:1043B8000201E9510301665B0201EA510301675BEF
:1043C800702B190E7065EBEF21F0EDEF21F099EFEE
:1043D80021F06451651166116711D8B4F6EF21F028
:1043E800F8EF21F013EF22F06B8113EF22F0D89051
:1043F800E337E437E537E63703016EAF06EF22F01F
:1044080008EF22F00AEF22F00201E3810301D890BD
:104418006B376C376D376E376907D8A06A070201AA
:10442800E5AF19EF22F01BEF22F0FBEF21F0000EB1
:104438000301706F6EAF23EF22F025EF22F051EFEA
:1044480022F0FF0E6B150201EB6FFF0E03016C15D6
:104458000201EC6FFF0E03016D150201ED6F7F0E77
:1044680003016E150201EE6FEB51EC11ED11EE1127
:10447800D8B441EF22F043EF22F048EF22F0010ECA
:104488000301706F51EF22F0E3A14DEF22F04FEFDF
:1044980022F051EF22F043EF22F003017051D8B41B
:1044A80058EF22F05AEF22F080EF22F0010E0201BD
:1044B800E327000EE423E523E623E6A166EF22F0D6
:1044C80068EF22F080EF22F0E3C2EBF2E4C2ECF2F4
:1044D800E5C2EDF2E6C2EEF2EE35EE33ED33EC3343
:1044E800EB33EBC2E3F2ECC2E4F2EDC2E5F2EEC26A
:1044F800E6F20301694B6A2B03016ABF8CEF22F0D5
:104508006A5108E16929D8A08CEF22F08EEF22F0D9
:104518009AEF22F0000E6A6F6969000E0201E36FDC
:10452800000EE46F000EE56F000EE66F03016ABF30
:10453800A8EF22F06A5106E16905D8B0A6EF22F08B
:10454800A8EF22F0B8EF22F0000E6A6F000E696F34
:10455800000E0201E36F000EE46F000EE56F000E1F
:10456800E66F000E0301686F69C36FF36FA1BFEFB9
:1045780022F0C1EF22F0C5EF22F00201E58FC7EF6C
:1045880022F00201E59F0301D8906F310201E66F26
:1045980048EF21F012004350800B4C6E43504324E7
:1045A800526E42AEDAEF22F0DCEF22F0DDEF22F0BD
:1045B80052805250D8B4E3EF22F0E5EF22F0F8EF42
:1045C80022F05228D8A4EBEF22F0EDEF22F0F5EF1D
:1045D80022F0000E406E000E416E000E426E000E7C
:1045E800436E428E00EF23F0000E406E000E416EC7
:1045F800000E426E000E436E4750800B4C1A475017
:104608004724516E46AE0BEF23F00DEF23F00EEF6B
:1046180023F051805150D8B414EF23F016EF23F053
:1046280029EF23F05128D8A41CEF23F01EEF23F024
:1046380026EF23F0000E446E000E456E000E466E07
:10464800000E476E468E31EF23F0000E446E000ECA
:10465800456E000E466E000E476E5150D8B437EFC7
:1046680023F039EF23F041EF23F05250D8A43FEF65
:1046780023F041EF23F04BEF23F0000E406E000EC5
:10468800416E000E426E000E436EE3EF24F046507A
:104698004002F3CF57F0F4CF58F057504D6E4E6AA2
:1046A8004F6A506A5850536E546A556A566A455054
:1046B8004102F3CF57F0F4CF58F057504D26000E73
:1046C8004E224F22502258505326000E5422552273
:1046D800562244504202F3CF57F0F4CF58F05750C7
:1046E8004D26000E4E224F22502258505326000EBF
:1046F8005422552256224FC050F04EC04FF04DC0A4
:104708004EF04D6A44504102F3CF57F0F4CF58F0C1
:1047180057504D2658504E22000E4F22000E502260
:1047280045504002F3CF57F0F4CF58F057504D267C
:1047380058504E22000E4F22000E50224FC050F00B
:104748004EC04FF04DC04EF04D6A44504002F3CF7A
:1047580057F0F4CF58F057504D2658504E22000EBF
:104768004F22000E502246504102F3CF57F0F4CFAB
:1047780058F05750532658505422000E5522000E18
:10478800562245504202F3CF57F0F4CF58F0575015
:10479800532658505422000E5522000E56224650D9
:1047A8004202F3CF57F0F4CF58F05750486E5850A4
:1047B800496E4A6A4B6A4AC04BF049C04AF048C041
:1047C80049F0486A48505326495054224A505522C5
:1047D8004B5056224DC048F04EC049F04FC04AF0E9
:1047E80050C04BF0190EFEEF23F0D8904B324A32EE
:1047F80049324832E82EF9EF23F048505326495001
:1048080054224A5055224B5056224FC050F04EC0A9
:104818004FF04DC04EF04D6A515052C048F0496AB1
:104828004826000E4922820E4824576EFF0E492062
:10483800586E34EF24F0D8905336543655365636E1
:1048480050AE29EF24F02BEF24F02CEF24F0538006
:10485800D8904D364E364F3650365706D8A05806A3
:1048680055AE39EF24F03BEF24F01FEF24F0000E93
:10487800516E50AE42EF24F044EF24F068EF24F07C
:10488800FF0E4D14486EFF0E4E14496EFF0E4F1466
:104898004A6E7F0E50144B6E485049104A104B1008
:1048A800D8B459EF24F05BEF24F05FEF24F0010E49
:1048B800516E68EF24F053A064EF24F066EF24F003
:1048C80068EF24F05BEF24F05150D8B46EEF24F079
:1048D80070EF24F094EF24F0010E5326000E5422BA
:1048E8005522562256A07BEF24F07DEF24F094EF5A
:1048F80024F053C048F054C049F055C04AF056C09F
:104908004BF04B344B324A324932483248C053F0AC
:1049180049C054F04AC055F04BC056F0574A582A7F
:1049280058BE9FEF24F0585008E15728D8A09FEFB1
:1049380024F0A1EF24F0ABEF24F0000E536E000E2C
:10494800546E800E556E7F0E566ED9EF24F058BE09
:10495800B8EF24F0585006E15704D8B0B6EF24F069
:10496800B8EF24F0C4EF24F0000E536E000E546E1E
:10497800000E556E000E566E000E4C6ED9EF24F0E8
:1049880057C052F0FF0E5316FF0E54167F0E5516E1
:10499800000E561652A0D3EF24F0D5EF24F0D6EF30
:1049A80024F0558ED8905230566E4C50561253C043
:1049B80040F054C041F055C042F056C043F01200D8
:1049C8001250800B1F6E12501224266E11AEEFEF9C
:1049D80024F0F1EF24F0F2EF24F026802650D8B42A
:1049E800F8EF24F0FAEF24F00FEF25F02628D8A4EA
:1049F80000EF25F002EF25F00AEF25F0000E0F6E0C
:104A0800000E106E000E116E000E126E118E000E4A
:104A1800126E17EF25F0000E0F6E000E106E000ECE
:104A2800116E000E126E1650800B1F1A16501624A7
:104A3800276E15AE22EF25F024EF25F025EF25F09F
:104A480027802750D8B42BEF25F02DEF25F042EF23
:104A580025F02728D8A433EF25F035EF25F03DEFD2
:104A680025F0000E136E000E146E000E156E000E6B
:104A7800166E158E000E166E4AEF25F0000E136E98
:104A8800000E146E000E156E000E166E13501410E4
:104A980015101610D8A453EF25F055EF25F06DEF3B
:104AA80025F0000E0F6E000E106E000E116E000E37
:104AB800126E800E11127F0E12121F5012120FC0AA
:104AC8000FF010C010F011C011F012C012F0B0EFCA
:104AD80026F02650D8A473EF25F075EF25F07FEF68
:104AE80025F0000E0F6E000E106E000E116E000EF7
:104AF800126EB0EF26F0275026C017F0186A175E1E
:104B0800000E185A7F0E1724206E000E1820216EF2
:104B18000FC01BF010C01CF011C01DF012C01EF019
:104B2800000E0F6E000E106E000E116E000E126E4B
:104B3800000E226E000E236E000E246E000E256EEF
:104B4800000E276EE0EF25F02750D8B4AEEF25F021
:104B5800B0EF25F0C7EF25F0D8901B361C361D3670
:104B68001E36D8900F3610361136123625AEBFEFE6
:104B780025F0C1EF25F0C2EF25F00F80D89022363E
:104B880023362436253613501B5C14501C581550F8
:104B98001D5816501E58D8A0D4EF25F0D6EF25F092
:104BA800DFEF25F0258C13501B5E14501C5A15504E
:104BB8001D5A16501E5A272A190E2764E6EF25F0AB
:104BC800E8EF25F0A8EF25F01B501C101D101E1053
:104BD800D8B4F1EF25F0F3EF25F00BEF26F02280A3
:104BE8000BEF26F0D8900F3610361136123625AE58
:104BF80000EF26F002EF26F003EF26F00F80D890A2
:104C080022362336243625362006D8A0210611AEB2
:104C180010EF26F012EF26F0F6EF25F0000E276EC3
:104C280025AE19EF26F01BEF26F03FEF26F0FF0E1A
:104C38002214176EFF0E2314186EFF0E2414196E1B
:104C48007F0E25141A6E1750181019101A10D8B4A0
:104C580030EF26F032EF26F036EF26F0010E276E01
:104C68003FEF26F00FA03BEF26F03DEF26F03FEF99
:104C780026F032EF26F02750D8B445EF26F047EF5C
:104C880026F06BEF26F0010E0F26000E10221122DF
:104C9800122212A052EF26F054EF26F06BEF26F006
:104CA8000FC017F010C018F011C019F012C01AF098
:104CB8001A341A3219321832173217C00FF018C0C6
:104CC80010F019C011F01AC012F0204A212A21BE92
:104CD80076EF26F0215008E12028D8A076EF26F0BC
:104CE80078EF26F083EF26F0000E216E2068000E84
:104CF8000F6E000E106E000E116E000E126E21BEA9
:104D080090EF26F0215006E12004D8B08EEF26F06F
:104D180090EF26F09EEF26F0000E216E000E206E1A
:104D2800000E0F6E000E106E000E116E000E126E49
:104D3800000E1F6E20C026F026A0A5EF26F0A7EFD4
:104D480026F0AAEF26F0118EABEF26F0119ED89030
:104D58002630126E61EF25F012001E6E200E8FECC9
:104D68004FF0010E8FEC4FF01F0E1E64BEEF26F0C1
:104D7800C0EF26F0C8EF26F07E0E1E64C6EF26F0C0
:104D8800C8EF26F0CAEF26F03F0E1E6E0950D8B4C1
:104D9800D0EF26F0D2EF26F0DAEF26F0040E096401
:104DA800D8EF26F0DAEF26F0DCEF26F0010E096ED8
:104DB800000E176EF1EF26F009C001F00101B9519C
:104DC80003EC4EF0E806D8B4ECEF26F0EEEF26F050
:104DD8000EEF27F00101B92B172AFF0E0A6EFF0EFE
:104DE8000B6E09500C6E0D6A0A500C260B500D22E2
:104DF80017500E6E0F6A0C500E5C0F50800A106E22
:104E08000D50800A1058D8A00CEF27F00EEF27F0AD
:104E1800E0EF26F0150E0101B96515EF27F017EF41
:104E280027F023EF27F0010EB96FB751D8B41FEF61
:104E380027F021EF27F023EF27F00950B827210E9C
:104E48008FEC4FF00101B905060DF3508FEC4FF0D0
:104E58000950050DF3CF0AF00101B951060DF350C1
:104E68000A24F90F8FEC4FF0220E8FEC4FF001015E
:104E7800B8058FEC4FF009500101B825FE0F8FECF3
:104E88004FF0CCEC4FF00101AB5127EC50F0400E45
:104E98002FEC4AF0000E1D6E58C211F059C212F0E4
:104EA8005AC213F05BC214F0530E1E605EEF27F077
:104EB80060EF27F07BEF27F01E50E00F050DF3CFD2
:104EC8001AF05B0E0A6EFB0E0B6E1A500A26000EC5
:104ED8000B221D500A26000E0B220AC0F6FF0BC03B
:104EE800F7FFF86A0800F5CF19F094EF27F01E5085
:104EF800AD0F050DF3CF1AF05A0E0A6EFC0E0B6EAD
:104F08001A500A26000E0B221D500A26000E0B22EC
:104F18000AC0F6FF0BC0F7FFF86A0800F5CF19F0D2
:104F28000904D8A49AEF27F09CEF27F0A1EF27F007
:104F380019502FEC4AF023EF28F0000E1F6E1FC007
:104F48000AF0010E0B6E0A2AACEF27F0D8900B3648
:104F58000A2EAAEF27F00B5019140009D8B4B7EF9E
:104F680027F0B9EF27F0F5EF27F0000E1C6EECEFF5
:104F780027F01F500902F3501C24070B156E1F5011
:104F88000902F3CF0AF0F4CF0BF01C500A24016E8B
:104F9800000E0B20026E000E046E080E036E89ECE4
:104FA80040F00150166E15C00AF0010E0B6E0A2A69
:104FB800E0EF27F0D8900B360A2EDEEF27F0110E1F
:104FC8001624D96EDA6A000EDA220B50DF121C2A78
:104FD80009501C5CD8A0F3EF27F0F5EF27F0BDEFE0
:104FE80027F01F2A070E1F64FCEF27F0FEEF27F0BB
:104FF800A3EF27F0000E186E1AEF28F0000E1B6EB4
:1050080010EF28F0110E1B24D96EDA6A000EDA228E
:10501800DF502FEC4AF01B2A09501B5CD8A017EF71
:1050280028F019EF28F006EF28F0182A0950185C24
:10503800D8A021EF28F023EF28F002EF28F01D2A4E
:10504800040E1D642AEF28F02CEF28F050EF27F00B
:105058007EEC4FF009500101B927150EB96537EFFD
:1050680028F039EF28F045EF28F0010EB96FB75155
:10507800D8B441EF28F043EF28F045EF28F0095065
:10508800B827200E8FEC4FF0000E8FEC4FF0120077
:1050980020C038F021C039F022C03AF023C03BF0DC
:1050A80024C03CF025C03DF026C03EF027C03FF0AC
:1050B8003FBE61EF28F064EF28F0010E65EF28F09D
:1050C800000E366E376A36503710D8B46EEF28F0B7
:1050D80070EF28F080EF28F03F1E3E1E3D1E3C1E5C
:1050E8003B1E3A1E391E386C000E39223A223B22EA
:1050F8003C223D223E223F22010195BF86EF28F047
:1051080088EF28F08AEF28F00001FD93010195BF90
:1051180098EF28F0955106E19405D8B096EF28F05D
:1051280098EF28F09EEF28F0000E336E010E326ED5
:10513800A2EF28F094C132F095C133F092C134F057
:1051480093C135F036503710D8A4ADEF28F0AFEF43
:1051580028F0B7EF28F00001FDA5B5EF28F0B7EF6C
:1051680028F0BAEF28F03406D8A03506000E416EB4
:105178004F0E406E000E0201C36F3FEF29F040064C
:10518800D8A04106740E4024D96E020E4120DA6E72
:1051980038C001F039C002F03AC003F03BC004F057
:1051A8003CC005F03DC006F03EC007F03FC008F027
:1051B8000A0E096E000E0A6E000E0B6E000E0C6EC3
:1051C800000E0D6E000E0E6E000E0F6E000E106EAD
:1051D800A1EC36F001C028F002C029F003C02AF083
:1051E80004C02BF005C02CF006C02DF007C02EF02F
:1051F80008C02FF028C013F02AC014F01CEC4DF0A2
:105208001350300FDF6E3206D8A033063406D8A00C
:10521800350638C001F039C002F03AC003F03BC08F
:1052280004F03CC005F03DC006F03EC007F03FC0AA
:1052380008F00A0E096E000E0A6E000E0B6E000EC4
:105248000C6E000E0D6E000E0E6E000E0F6E000E30
:10525800106E76EC31F001C038F002C039F003C0AE
:105268003AF004C03BF005C03CF006C03DF007C072
:105278003EF008C03FF041BE4AEF29F0415008E136
:105288004004D8A04AEF29F04CEF29F07DEF29F02F
:10529800385039103A103B103C103D103E103F106A
:1052A800D8A459EF29F05BEF29F0C3EF28F033BEFB
:1052B80068EF29F0335006E13204D8B066EF29F0E0
:1052C80068EF29F0C3EF28F035BE73EF29F03550A9
:1052D80008E13404D8A073EF29F075EF29F07DEFC9
:1052E80029F00001FDB37BEF29F07DEF29F0C3EF32
:1052F80028F036503710D8A484EF29F086EF29F02B
:105308008EEF29F00001FDA58CEF29F08EEF29F032
:10531800ACEF29F04006D8A0410636503710D8A483
:1053280098EF29F09AEF29F0A0EF29F0000E316EDE
:105338002B0E306EA4EF29F0000E316E2D0E306E5C
:10534800740E4024D96E020E4120DA6E30C0DFFFA1
:105358001EC013F01FC014F0740E4024156E020E08
:105368004120166E34C017F035C018F026EC40F016
:1053780013C01EF014C01FF01200010195BFC7EF43
:1053880029F0C9EF29F0CBEF29F00001FD930101C5
:1053980095BFD9EF29F0955106E19405D8B0D7EF1C
:1053A80029F0D9EF29F0DFEF29F0000E326E010E57
:1053B800316EE3EF29F094C131F095C132F092C11A
:1053C80033F093C134F00001FDA9EDEF29F0EFEFC0
:1053D80029F0F3EF29F0FE0E3326FF0E342220C009
:1053E80035F021C036F022C037F023C038F024C091
:1053F80039F025C03AF026C03BF027C03CF0000E3B
:105408003E6E4F0E3D6E000E0201C36FA5EF2AF0EF
:105418003D06D8A03E060F0E35143F6E406A40BECA
:105428001FEF2AF0405009E10A0E3F5CD8A01FEF99
:105438002AF021EF2AF029EF2AF0570E3F243F6E79
:10544800000E4020406E2FEF2AF0300E3F243F6EB2
:10545800000E4020406EBF0E296EFF0E2A6E2850A7
:105468002B6E2C6A29502B262A502C222C5007E10F
:105478001A0E2B5CD8B043EF2AF045EF2AF068EFFC
:105488002AF09F0E296EFF0E2A6E200E3F102B6EFB
:10549800000E40102C6E29502B262A502C222C50FE
:1054A80007E11A0E2B5CD8B05CEF2AF05EEF2AF009
:1054B80068EF2AF03FC007F040C008F097EC4CF0C6
:1054C80007C03FF008C040F0740E3D24D96E020EAC
:1054D8003E20DA6E3FC0DFFF3106D8A03206330621
:1054E800D8A0340635C029F036C02AF037C02BF0D2
:1054F80038C02CF039C02DF03AC02EF03BC02FF048
:105508003CC030F0050E92EF2AF0D89030322F329E
:105518002E322D322C322B322A322932E82E89EFC4
:105528002AF029C035F02AC036F02BC037F02CC03D
:1055380038F02DC039F02EC03AF02FC03BF030C003
:105548003CF03EBEB1EF2AF03E5009E1020E3D5C50
:10555800D8A0B1EF2AF0B3EF2AF0E4EF2AF03550E3
:1055680036103710381039103A103B103C10D8A4B8
:10557800C0EF2AF0C2EF2AF00CEF2AF032BECFEFCC
:105588002AF0325006E13104D8B0CDEF2AF0CFEF3F
:105598002AF00CEF2AF034BEDAEF2AF0345008E192
:1055A8003304D8A0DAEF2AF0DCEF2AF0E4EF2AF08F
:1055B8000001FDB3E2EF2AF0E4EF2AF00CEF2AF045
:1055C8000001FDA9EAEF2AF0ECEF2AF002EF2BF038
:1055D8003D06D8A03E06740E3D24D96E020E3E202C
:1055E800DA6E28C0DFFF3D06D8A03E06740E3D24C3
:1055F800D96E020E3E20DA6E300EDF6E1EC013F03A
:105608001FC014F0740E3D24156E020E3E20166E57
:1056180033C017F034C018F026EC40F013C01EF069
:1056280014C01FF0120020EE08F07150D9267250F5
:10563800DA22DF50736E7350016E026A036A046ADD
:10564800010E05EC2FF001C028F002C029F003C0BC
:105658002AF004C02BF0000E136E000E146EC80E54
:10566800156E420E166E20EE09F07150D926725052
:10567800DA22DF50746E7450016E026A036A046A9B
:10568800000E05EC2FF001C00FF002C010F003C0AF
:1056980011F004C012F0E4EC24F00FC02CF010C09C
:1056A8002DF011C02EF012C02FF058EC1EF028C0BB
:1056B80075F029C076F02AC077F02BC078F020EE7C
:1056C8000AF07150D9267250DA22DECF59F0DECFB7
:1056D8005AF0DECF5BF0DECF5CF0000E2C6E000ED1
:1056E8002D6E800E2E6E3F0E2F6E75C028F076C080
:1056F80029F077C02AF078C02BF058EC1EF028C0AB
:105708005DF029C05EF02AC05FF02BC060F0FEECAF
:105718003BF0D8A092EF2BF094EF2BF0C0EF2BF0DA
:1057280020EE10F07150D9267250DA22010EDF6E89
:10573800000E636E000E646EC80E656E420E666ED5
:10574800E4EC3EF0000E0CEC4CF00101A851D8A49A
:10575800B0EF2BF0B2EF2BF035EF2CF071C010F05A
:1057680072C011F033EC35F0010E0101A86F010E83
:105778000001FF6F35EF2CF0000E2C6E000E2D6E21
:10578800800E2E6EBF0E2F6E75C028F076C029F0E1
:1057980077C02AF078C02BF058EC1EF028C059F0DA
:1057A80029C05AF02AC05BF02BC05CF020EE0AF04A
:1057B8007150D9267250DA22DECF5DF0DECF5EF06E
:1057C800DECF5FF0DECF60F0FEEC3BF0D8A0EFEF6D
:1057D8002BF0F1EF2BF01AEF2CF020EE10F07150B7
:1057E800D9267250DA22020EDF6E010E0CEC4CF054
:1057F800000E636E000E646E000E656E000E666E1F
:10580800E4EC3EF00101A851D8A40DEF2CF00FEF05
:105818002CF035EF2CF071C010F072C011F033ECA1
:1058280035F0010E0101A86F35EF2CF020EE10F0D5
:105838007150D9267250DA22000EDF6E000E0CEC81
:105848004CF0000E636E000E646E000E656E000E66
:10585800666EE4EC3EF0000E0101A86F000E000138
:10586800FF6F71C001F072C002F03EEC47F0120009
:1058780050C238F051C239F052C23AF053C23BF02C
:1058880028C038F029C039F02AC03AF02BC03BF0C4
:10589800810E2C6EFF0E2D6E38C02EF039C02FF001
:1058A8003AC030F03BC031F0180E60EF2CF0D890C1
:1058B800313230322F322E32E82E5BEF2CF02E5060
:1058C8002C24366E000E2D20376E37BE75EF2CF067
:1058D800375009E1170E365CD8A075EF2CF077EF3A
:1058E8002CF081EF2CF028C028F029C029F02AC01C
:1058F8002AF02BC02BF044EF2DF037BE86EF2CF0AA
:1059080088EF2CF0F8EF2CF036C02CF0FF0E2D6E3F
:10591800FF0E2E6E7F0E2F6E000E306E2C6697EFE8
:105928002CF09FEF2CF0303430322F322E322D32C3
:105938002C2E92EF2CF02DC032F02EC033F02FC059
:1059480034F030C035F0325038142C6E33503914DE
:105958002D6E34503A142E6E35503B142F6E2C5049
:105968002D102E102F10D8A4BCEF2CF0BEEF2CF069
:10597800C0EF2CF077EF2CF038C02CF039C02DF0A8
:105988003AC02EF03BC02FF0200ED0EF2CF0D8906C
:105998002F322E322D322C32E82ECBEF2CF02C5019
:1059A8002D102E102F10D8B4DCEF2CF0DEEF2CF0D9
:1059B800E6EF2CF0325038263350392234503A2250
:1059C80035503B22321C2C6E331C2D6E341C2E6E2F
:1059D800351C2F6E2C5038162D5039162E503A166D
:1059E8002F503B163CEF2DF038C02CF039C02DF06D
:1059F8003AC02EF03BC02FF0200E08EF2DF0D890C3
:105A08002F322E322D322C32E82E03EF2DF02C506F
:105A18002D102E102F10D8A414EF2DF016EF2DF006
:105A280020EF2DF0000E386E000E396E000E3A6E23
:105A3800000E3B6E3CEF2DF0D89038342C6E393484
:105A48002D6E3A342E6E3B342F6E2C502D102E10A6
:105A58002F10D8B432EF2DF034EF2DF03CEF2DF0AD
:105A6800000E386E000E396E800E3A6EBF0E3B6E19
:105A780038C028F039C029F03AC02AF03BC02BF0D2
:105A88001200000E116E000E106E000E0F6E000E4A
:105A98000E6E51EF2DF0084A092A08C0F6FF09C01A
:105AA800F7FF000EF86E0F0EF76403D00800F550EC
:105AB80005D0F6CFE9FFF7CFEAFFEF50200AD8B4B8
:105AC80068EF2DF06AEF2DF04FEF2DF0F70E0A6E0C
:105AD800FF0E0B6E08C0F6FF09C0F7FF000EF86E48
